{
	"compilerInput": "{\"language\":\"Solidity\",\"sources\":{\"contracts/RinanzeV4.sol\":{\"content\":\"// SPDX-License-Identifier: MIT\\npragma solidity ^0.8.0;\\n\\nimport \\\"@openzeppelin/contracts-upgradeable/token/ERC20/ERC20Upgradeable.sol\\\";\\nimport \\\"@openzeppelin/contracts-upgradeable/token/ERC20/extensions/ERC20PausableUpgradeable.sol\\\";\\nimport \\\"@openzeppelin/contracts-upgradeable/access/Ownable2StepUpgradeable.sol\\\";\\nimport \\\"@openzeppelin/contracts-upgradeable/access/AccessControlUpgradeable.sol\\\";\\nimport \\\"@openzeppelin/contracts-upgradeable/proxy/utils/Initializable.sol\\\";\\nimport \\\"@openzeppelin/contracts-upgradeable/proxy/utils/UUPSUpgradeable.sol\\\";\\n\\ncontract RinanzeV2 is\\n    Initializable,\\n    ERC20Upgradeable,\\n    ERC20PausableUpgradeable,\\n    Ownable2StepUpgradeable,\\n    AccessControlUpgradeable,\\n    UUPSUpgradeable\\n{\\n    // Role identifiers\\n    bytes32 public constant MINTER_ROLE = keccak256(\\\"MINTER_ROLE\\\");\\n    bytes32 public constant FREEZER_ROLE = keccak256(\\\"FREEZER_ROLE\\\");\\n    bytes32 public constant PAUSER_ROLE = keccak256(\\\"PAUSER_ROLE\\\");\\n    bytes32 public constant TRADER_ROLE = keccak256(\\\"TRADER_ROLE\\\");\\n\\n    // Mutable name & symbol\\n    string private _name;\\n    string private _symbol;\\n\\n    // Storage for frozen wallets\\n    mapping(address => bool) private _frozenWallets;\\n\\n    // NEW STORAGE: Must be appended after existing storage to prevent collision\\n    bool public traderRestrictionActive;\\n\\n    // Events\\n    event WalletFrozen(address indexed account);\\n    event WalletUnfrozen(address indexed account);\\n    event Minted(address indexed to, uint256 amount);\\n    event NameChanged(string oldName, string newName);\\n    event SymbolChanged(string oldSymbol, string newSymbol);\\n    event TraderRestrictionUpdated(bool active);\\n\\n    /// @custom:oz-upgrades-unsafe-allow constructor\\n    constructor() {\\n        _disableInitializers();\\n    }\\n\\n    function initialize(\\n        string calldata name_,\\n        string calldata symbol_\\n    ) external initializer {\\n        __ERC20_init(name_, symbol_);\\n        __ERC20Pausable_init();\\n\\n        // OZ v5: Ownable now requires an explicit initial owner argument,\\n        // and Ownable2Step's own init takes no args (no extra storage to set).\\n        __Ownable_init(msg.sender);\\n        __Ownable2Step_init();\\n\\n        __AccessControl_init();\\n\\n        // OZ v5: UUPSUpgradeable has no storage/init function anymore.\\n        // __UUPSUpgradeable_init(); // removed — does not exist in v5\\n\\n        _name = name_;\\n        _symbol = symbol_;\\n\\n        _grantRole(DEFAULT_ADMIN_ROLE, msg.sender);\\n        _grantRole(MINTER_ROLE, msg.sender);\\n        _grantRole(FREEZER_ROLE, msg.sender);\\n        _grantRole(PAUSER_ROLE, msg.sender);\\n    }\\n\\n    // NEW V2 INITIALIZER: Set to false initially\\n    function initializeV2() external reinitializer(2) {\\n        traderRestrictionActive = false;\\n    }\\n\\n    // ----- Name & Symbol updaters (only owner) -----\\n    function setName(string calldata newName) external onlyOwner {\\n        string memory old = _name;\\n        _name = newName;\\n        emit NameChanged(old, newName);\\n    }\\n\\n    function setSymbol(string calldata newSymbol) external onlyOwner {\\n        string memory old = _symbol;\\n        _symbol = newSymbol;\\n        emit SymbolChanged(old, newSymbol);\\n    }\\n\\n    function name() public view virtual override returns (string memory) {\\n        return _name;\\n    }\\n\\n    function symbol() public view virtual override returns (string memory) {\\n        return _symbol;\\n    }\\n\\n    // ----- Admin / Role Functions -----\\n    function mint(address to, uint256 amount) external onlyRole(MINTER_ROLE) {\\n        _mint(to, amount);\\n        emit Minted(to, amount);\\n    }\\n\\n    function freezeWallet(address account) external onlyRole(FREEZER_ROLE) {\\n        require(!_frozenWallets[account], \\\"Already frozen\\\");\\n        _frozenWallets[account] = true;\\n        emit WalletFrozen(account);\\n    }\\n\\n    function unfreezeWallet(address account) external onlyRole(FREEZER_ROLE) {\\n        require(_frozenWallets[account], \\\"Not frozen\\\");\\n        _frozenWallets[account] = false;\\n        emit WalletUnfrozen(account);\\n    }\\n\\n    function pause() external onlyRole(PAUSER_ROLE) {\\n        _pause();\\n    }\\n\\n    function unpause() external onlyRole(PAUSER_ROLE) {\\n        _unpause();\\n    }\\n\\n    // NEW FUNCTION: Toggle the trader restriction\\n    function setTraderRestriction(bool active) external onlyRole(DEFAULT_ADMIN_ROLE) {\\n        traderRestrictionActive = active;\\n        emit TraderRestrictionUpdated(active);\\n    }\\n\\n    // ----- Internal Overrides -----\\n    function _update(address from, address to, uint256 value)\\n        internal\\n        override(ERC20Upgradeable, ERC20PausableUpgradeable)\\n    {\\n        // 1. Freeze check\\n        require(!_frozenWallets[from] && !_frozenWallets[to], \\\"Wallet is frozen\\\");\\n\\n        // 2. Transfer restriction – Applied ONLY if traderRestrictionActive is true\\n        if (traderRestrictionActive && from != address(0) && to != address(0)) {\\n            require(hasRole(TRADER_ROLE, from), \\\"Sender lacks TRADER_ROLE\\\");\\n\\n            if (!hasRole(TRADER_ROLE, to)) {\\n                require(balanceOf(to) == 0, \\\"Receiver has balance but lacks TRADER_ROLE\\\");\\n            }\\n        }\\n\\n        // 3. Let ERC20Pausable handle pause check and actual transfer\\n        super._update(from, to, value);\\n    }\\n\\n    // ----- UUPS Upgrade Authorization (only owner) -----\\n    function _authorizeUpgrade(address newImplementation)\\n        internal\\n        override\\n        onlyOwner\\n    {}\\n}\\n\"},\"@openzeppelin/contracts-upgradeable/token/ERC20/ERC20Upgradeable.sol\":{\"content\":\"// SPDX-License-Identifier: MIT\\n// OpenZeppelin Contracts (last updated v5.5.0) (token/ERC20/ERC20.sol)\\n\\npragma solidity ^0.8.20;\\n\\nimport {IERC20} from \\\"@openzeppelin/contracts/token/ERC20/IERC20.sol\\\";\\nimport {IERC20Metadata} from \\\"@openzeppelin/contracts/token/ERC20/extensions/IERC20Metadata.sol\\\";\\nimport {ContextUpgradeable} from \\\"../../utils/ContextUpgradeable.sol\\\";\\nimport {IERC20Errors} from \\\"@openzeppelin/contracts/interfaces/draft-IERC6093.sol\\\";\\nimport {Initializable} from \\\"@openzeppelin/contracts/proxy/utils/Initializable.sol\\\";\\n\\n/**\\n * @dev Implementation of the {IERC20} interface.\\n *\\n * This implementation is agnostic to the way tokens are created. This means\\n * that a supply mechanism has to be added in a derived contract using {_mint}.\\n *\\n * TIP: For a detailed writeup see our guide\\n * https://forum.openzeppelin.com/t/how-to-implement-erc20-supply-mechanisms/226[How\\n * to implement supply mechanisms].\\n *\\n * The default value of {decimals} is 18. To change this, you should override\\n * this function so it returns a different value.\\n *\\n * We have followed general OpenZeppelin Contracts guidelines: functions revert\\n * instead returning `false` on failure. This behavior is nonetheless\\n * conventional and does not conflict with the expectations of ERC-20\\n * applications.\\n */\\nabstract contract ERC20Upgradeable is Initializable, ContextUpgradeable, IERC20, IERC20Metadata, IERC20Errors {\\n    /// @custom:storage-location erc7201:openzeppelin.storage.ERC20\\n    struct ERC20Storage {\\n        mapping(address account => uint256) _balances;\\n\\n        mapping(address account => mapping(address spender => uint256)) _allowances;\\n\\n        uint256 _totalSupply;\\n\\n        string _name;\\n        string _symbol;\\n    }\\n\\n    // keccak256(abi.encode(uint256(keccak256(\\\"openzeppelin.storage.ERC20\\\")) - 1)) & ~bytes32(uint256(0xff))\\n    bytes32 private constant ERC20StorageLocation = 0x52c63247e1f47db19d5ce0460030c497f067ca4cebf71ba98eeadabe20bace00;\\n\\n    function _getERC20Storage() private pure returns (ERC20Storage storage $) {\\n        assembly {\\n            $.slot := ERC20StorageLocation\\n        }\\n    }\\n\\n    /**\\n     * @dev Sets the values for {name} and {symbol}.\\n     *\\n     * Both values are immutable: they can only be set once during construction.\\n     */\\n    function __ERC20_init(string memory name_, string memory symbol_) internal onlyInitializing {\\n        __ERC20_init_unchained(name_, symbol_);\\n    }\\n\\n    function __ERC20_init_unchained(string memory name_, string memory symbol_) internal onlyInitializing {\\n        ERC20Storage storage $ = _getERC20Storage();\\n        $._name = name_;\\n        $._symbol = symbol_;\\n    }\\n\\n    /**\\n     * @dev Returns the name of the token.\\n     */\\n    function name() public view virtual returns (string memory) {\\n        ERC20Storage storage $ = _getERC20Storage();\\n        return $._name;\\n    }\\n\\n    /**\\n     * @dev Returns the symbol of the token, usually a shorter version of the\\n     * name.\\n     */\\n    function symbol() public view virtual returns (string memory) {\\n        ERC20Storage storage $ = _getERC20Storage();\\n        return $._symbol;\\n    }\\n\\n    /**\\n     * @dev Returns the number of decimals used to get its user representation.\\n     * For example, if `decimals` equals `2`, a balance of `505` tokens should\\n     * be displayed to a user as `5.05` (`505 / 10 ** 2`).\\n     *\\n     * Tokens usually opt for a value of 18, imitating the relationship between\\n     * Ether and Wei. This is the default value returned by this function, unless\\n     * it's overridden.\\n     *\\n     * NOTE: This information is only used for _display_ purposes: it in\\n     * no way affects any of the arithmetic of the contract, including\\n     * {IERC20-balanceOf} and {IERC20-transfer}.\\n     */\\n    function decimals() public view virtual returns (uint8) {\\n        return 18;\\n    }\\n\\n    /// @inheritdoc IERC20\\n    function totalSupply() public view virtual returns (uint256) {\\n        ERC20Storage storage $ = _getERC20Storage();\\n        return $._totalSupply;\\n    }\\n\\n    /// @inheritdoc IERC20\\n    function balanceOf(address account) public view virtual returns (uint256) {\\n        ERC20Storage storage $ = _getERC20Storage();\\n        return $._balances[account];\\n    }\\n\\n    /**\\n     * @dev See {IERC20-transfer}.\\n     *\\n     * Requirements:\\n     *\\n     * - `to` cannot be the zero address.\\n     * - the caller must have a balance of at least `value`.\\n     */\\n    function transfer(address to, uint256 value) public virtual returns (bool) {\\n        address owner = _msgSender();\\n        _transfer(owner, to, value);\\n        return true;\\n    }\\n\\n    /// @inheritdoc IERC20\\n    function allowance(address owner, address spender) public view virtual returns (uint256) {\\n        ERC20Storage storage $ = _getERC20Storage();\\n        return $._allowances[owner][spender];\\n    }\\n\\n    /**\\n     * @dev See {IERC20-approve}.\\n     *\\n     * NOTE: If `value` is the maximum `uint256`, the allowance is not updated on\\n     * `transferFrom`. This is semantically equivalent to an infinite approval.\\n     *\\n     * Requirements:\\n     *\\n     * - `spender` cannot be the zero address.\\n     */\\n    function approve(address spender, uint256 value) public virtual returns (bool) {\\n        address owner = _msgSender();\\n        _approve(owner, spender, value);\\n        return true;\\n    }\\n\\n    /**\\n     * @dev See {IERC20-transferFrom}.\\n     *\\n     * Skips emitting an {Approval} event indicating an allowance update. This is not\\n     * required by the ERC. See {xref-ERC20-_approve-address-address-uint256-bool-}[_approve].\\n     *\\n     * NOTE: Does not update the allowance if the current allowance\\n     * is the maximum `uint256`.\\n     *\\n     * Requirements:\\n     *\\n     * - `from` and `to` cannot be the zero address.\\n     * - `from` must have a balance of at least `value`.\\n     * - the caller must have allowance for ``from``'s tokens of at least\\n     * `value`.\\n     */\\n    function transferFrom(address from, address to, uint256 value) public virtual returns (bool) {\\n        address spender = _msgSender();\\n        _spendAllowance(from, spender, value);\\n        _transfer(from, to, value);\\n        return true;\\n    }\\n\\n    /**\\n     * @dev Moves a `value` amount of tokens from `from` to `to`.\\n     *\\n     * This internal function is equivalent to {transfer}, and can be used to\\n     * e.g. implement automatic token fees, slashing mechanisms, etc.\\n     *\\n     * Emits a {Transfer} event.\\n     *\\n     * NOTE: This function is not virtual, {_update} should be overridden instead.\\n     */\\n    function _transfer(address from, address to, uint256 value) internal {\\n        if (from == address(0)) {\\n            revert ERC20InvalidSender(address(0));\\n        }\\n        if (to == address(0)) {\\n            revert ERC20InvalidReceiver(address(0));\\n        }\\n        _update(from, to, value);\\n    }\\n\\n    /**\\n     * @dev Transfers a `value` amount of tokens from `from` to `to`, or alternatively mints (or burns) if `from`\\n     * (or `to`) is the zero address. All customizations to transfers, mints, and burns should be done by overriding\\n     * this function.\\n     *\\n     * Emits a {Transfer} event.\\n     */\\n    function _update(address from, address to, uint256 value) internal virtual {\\n        ERC20Storage storage $ = _getERC20Storage();\\n        if (from == address(0)) {\\n            // Overflow check required: The rest of the code assumes that totalSupply never overflows\\n            $._totalSupply += value;\\n        } else {\\n            uint256 fromBalance = $._balances[from];\\n            if (fromBalance < value) {\\n                revert ERC20InsufficientBalance(from, fromBalance, value);\\n            }\\n            unchecked {\\n                // Overflow not possible: value <= fromBalance <= totalSupply.\\n                $._balances[from] = fromBalance - value;\\n            }\\n        }\\n\\n        if (to == address(0)) {\\n            unchecked {\\n                // Overflow not possible: value <= totalSupply or value <= fromBalance <= totalSupply.\\n                $._totalSupply -= value;\\n            }\\n        } else {\\n            unchecked {\\n                // Overflow not possible: balance + value is at most totalSupply, which we know fits into a uint256.\\n                $._balances[to] += value;\\n            }\\n        }\\n\\n        emit Transfer(from, to, value);\\n    }\\n\\n    /**\\n     * @dev Creates a `value` amount of tokens and assigns them to `account`, by transferring it from address(0).\\n     * Relies on the `_update` mechanism\\n     *\\n     * Emits a {Transfer} event with `from` set to the zero address.\\n     *\\n     * NOTE: This function is not virtual, {_update} should be overridden instead.\\n     */\\n    function _mint(address account, uint256 value) internal {\\n        if (account == address(0)) {\\n            revert ERC20InvalidReceiver(address(0));\\n        }\\n        _update(address(0), account, value);\\n    }\\n\\n    /**\\n     * @dev Destroys a `value` amount of tokens from `account`, lowering the total supply.\\n     * Relies on the `_update` mechanism.\\n     *\\n     * Emits a {Transfer} event with `to` set to the zero address.\\n     *\\n     * NOTE: This function is not virtual, {_update} should be overridden instead\\n     */\\n    function _burn(address account, uint256 value) internal {\\n        if (account == address(0)) {\\n            revert ERC20InvalidSender(address(0));\\n        }\\n        _update(account, address(0), value);\\n    }\\n\\n    /**\\n     * @dev Sets `value` as the allowance of `spender` over the `owner`'s tokens.\\n     *\\n     * This internal function is equivalent to `approve`, and can be used to\\n     * e.g. set automatic allowances for certain subsystems, etc.\\n     *\\n     * Emits an {Approval} event.\\n     *\\n     * Requirements:\\n     *\\n     * - `owner` cannot be the zero address.\\n     * - `spender` cannot be the zero address.\\n     *\\n     * Overrides to this logic should be done to the variant with an additional `bool emitEvent` argument.\\n     */\\n    function _approve(address owner, address spender, uint256 value) internal {\\n        _approve(owner, spender, value, true);\\n    }\\n\\n    /**\\n     * @dev Variant of {_approve} with an optional flag to enable or disable the {Approval} event.\\n     *\\n     * By default (when calling {_approve}) the flag is set to true. On the other hand, approval changes made by\\n     * `_spendAllowance` during the `transferFrom` operation sets the flag to false. This saves gas by not emitting any\\n     * `Approval` event during `transferFrom` operations.\\n     *\\n     * Anyone who wishes to continue emitting `Approval` events on the `transferFrom` operation can force the flag to\\n     * true using the following override:\\n     *\\n     * ```solidity\\n     * function _approve(address owner, address spender, uint256 value, bool) internal virtual override {\\n     *     super._approve(owner, spender, value, true);\\n     * }\\n     * ```\\n     *\\n     * Requirements are the same as {_approve}.\\n     */\\n    function _approve(address owner, address spender, uint256 value, bool emitEvent) internal virtual {\\n        ERC20Storage storage $ = _getERC20Storage();\\n        if (owner == address(0)) {\\n            revert ERC20InvalidApprover(address(0));\\n        }\\n        if (spender == address(0)) {\\n            revert ERC20InvalidSpender(address(0));\\n        }\\n        $._allowances[owner][spender] = value;\\n        if (emitEvent) {\\n            emit Approval(owner, spender, value);\\n        }\\n    }\\n\\n    /**\\n     * @dev Updates `owner`'s allowance for `spender` based on spent `value`.\\n     *\\n     * Does not update the allowance value in case of infinite allowance.\\n     * Revert if not enough allowance is available.\\n     *\\n     * Does not emit an {Approval} event.\\n     */\\n    function _spendAllowance(address owner, address spender, uint256 value) internal virtual {\\n        uint256 currentAllowance = allowance(owner, spender);\\n        if (currentAllowance < type(uint256).max) {\\n            if (currentAllowance < value) {\\n                revert ERC20InsufficientAllowance(spender, currentAllowance, value);\\n            }\\n            unchecked {\\n                _approve(owner, spender, currentAllowance - value, false);\\n            }\\n        }\\n    }\\n}\\n\"},\"@openzeppelin/contracts/token/ERC20/IERC20.sol\":{\"content\":\"// SPDX-License-Identifier: MIT\\n// OpenZeppelin Contracts (last updated v5.4.0) (token/ERC20/IERC20.sol)\\n\\npragma solidity >=0.4.16;\\n\\n/**\\n * @dev Interface of the ERC-20 standard as defined in the ERC.\\n */\\ninterface IERC20 {\\n    /**\\n     * @dev Emitted when `value` tokens are moved from one account (`from`) to\\n     * another (`to`).\\n     *\\n     * Note that `value` may be zero.\\n     */\\n    event Transfer(address indexed from, address indexed to, uint256 value);\\n\\n    /**\\n     * @dev Emitted when the allowance of a `spender` for an `owner` is set by\\n     * a call to {approve}. `value` is the new allowance.\\n     */\\n    event Approval(address indexed owner, address indexed spender, uint256 value);\\n\\n    /**\\n     * @dev Returns the value of tokens in existence.\\n     */\\n    function totalSupply() external view returns (uint256);\\n\\n    /**\\n     * @dev Returns the value of tokens owned by `account`.\\n     */\\n    function balanceOf(address account) external view returns (uint256);\\n\\n    /**\\n     * @dev Moves a `value` amount of tokens from the caller's account to `to`.\\n     *\\n     * Returns a boolean value indicating whether the operation succeeded.\\n     *\\n     * Emits a {Transfer} event.\\n     */\\n    function transfer(address to, uint256 value) external returns (bool);\\n\\n    /**\\n     * @dev Returns the remaining number of tokens that `spender` will be\\n     * allowed to spend on behalf of `owner` through {transferFrom}. This is\\n     * zero by default.\\n     *\\n     * This value changes when {approve} or {transferFrom} are called.\\n     */\\n    function allowance(address owner, address spender) external view returns (uint256);\\n\\n    /**\\n     * @dev Sets a `value` amount of tokens as the allowance of `spender` over the\\n     * caller's tokens.\\n     *\\n     * Returns a boolean value indicating whether the operation succeeded.\\n     *\\n     * IMPORTANT: Beware that changing an allowance with this method brings the risk\\n     * that someone may use both the old and the new allowance by unfortunate\\n     * transaction ordering. One possible solution to mitigate this race\\n     * condition is to first reduce the spender's allowance to 0 and set the\\n     * desired value afterwards:\\n     * https://github.com/ethereum/EIPs/issues/20#issuecomment-263524729\\n     *\\n     * Emits an {Approval} event.\\n     */\\n    function approve(address spender, uint256 value) external returns (bool);\\n\\n    /**\\n     * @dev Moves a `value` amount of tokens from `from` to `to` using the\\n     * allowance mechanism. `value` is then deducted from the caller's\\n     * allowance.\\n     *\\n     * Returns a boolean value indicating whether the operation succeeded.\\n     *\\n     * Emits a {Transfer} event.\\n     */\\n    function transferFrom(address from, address to, uint256 value) external returns (bool);\\n}\\n\"},\"@openzeppelin/contracts/token/ERC20/extensions/IERC20Metadata.sol\":{\"content\":\"// SPDX-License-Identifier: MIT\\n// OpenZeppelin Contracts (last updated v5.4.0) (token/ERC20/extensions/IERC20Metadata.sol)\\n\\npragma solidity >=0.6.2;\\n\\nimport {IERC20} from \\\"../IERC20.sol\\\";\\n\\n/**\\n * @dev Interface for the optional metadata functions from the ERC-20 standard.\\n */\\ninterface IERC20Metadata is IERC20 {\\n    /**\\n     * @dev Returns the name of the token.\\n     */\\n    function name() external view returns (string memory);\\n\\n    /**\\n     * @dev Returns the symbol of the token.\\n     */\\n    function symbol() external view returns (string memory);\\n\\n    /**\\n     * @dev Returns the decimals places of the token.\\n     */\\n    function decimals() external view returns (uint8);\\n}\\n\"},\"@openzeppelin/contracts-upgradeable/utils/ContextUpgradeable.sol\":{\"content\":\"// SPDX-License-Identifier: MIT\\n// OpenZeppelin Contracts (last updated v5.0.1) (utils/Context.sol)\\n\\npragma solidity ^0.8.20;\\nimport {Initializable} from \\\"@openzeppelin/contracts/proxy/utils/Initializable.sol\\\";\\n\\n/**\\n * @dev Provides information about the current execution context, including the\\n * sender of the transaction and its data. While these are generally available\\n * via msg.sender and msg.data, they should not be accessed in such a direct\\n * manner, since when dealing with meta-transactions the account sending and\\n * paying for execution may not be the actual sender (as far as an application\\n * is concerned).\\n *\\n * This contract is only required for intermediate, library-like contracts.\\n */\\nabstract contract ContextUpgradeable is Initializable {\\n    function __Context_init() internal onlyInitializing {\\n    }\\n\\n    function __Context_init_unchained() internal onlyInitializing {\\n    }\\n    function _msgSender() internal view virtual returns (address) {\\n        return msg.sender;\\n    }\\n\\n    function _msgData() internal view virtual returns (bytes calldata) {\\n        return msg.data;\\n    }\\n\\n    function _contextSuffixLength() internal view virtual returns (uint256) {\\n        return 0;\\n    }\\n}\\n\"},\"@openzeppelin/contracts/proxy/utils/Initializable.sol\":{\"content\":\"// SPDX-License-Identifier: MIT\\n// OpenZeppelin Contracts (last updated v5.3.0) (proxy/utils/Initializable.sol)\\n\\npragma solidity ^0.8.20;\\n\\n/**\\n * @dev This is a base contract to aid in writing upgradeable contracts, or any kind of contract that will be deployed\\n * behind a proxy. Since proxied contracts do not make use of a constructor, it's common to move constructor logic to an\\n * external initializer function, usually called `initialize`. It then becomes necessary to protect this initializer\\n * function so it can only be called once. The {initializer} modifier provided by this contract will have this effect.\\n *\\n * The initialization functions use a version number. Once a version number is used, it is consumed and cannot be\\n * reused. This mechanism prevents re-execution of each \\\"step\\\" but allows the creation of new initialization steps in\\n * case an upgrade adds a module that needs to be initialized.\\n *\\n * For example:\\n *\\n * [.hljs-theme-light.nopadding]\\n * ```solidity\\n * contract MyToken is ERC20Upgradeable {\\n *     function initialize() initializer public {\\n *         __ERC20_init(\\\"MyToken\\\", \\\"MTK\\\");\\n *     }\\n * }\\n *\\n * contract MyTokenV2 is MyToken, ERC20PermitUpgradeable {\\n *     function initializeV2() reinitializer(2) public {\\n *         __ERC20Permit_init(\\\"MyToken\\\");\\n *     }\\n * }\\n * ```\\n *\\n * TIP: To avoid leaving the proxy in an uninitialized state, the initializer function should be called as early as\\n * possible by providing the encoded function call as the `_data` argument to {ERC1967Proxy-constructor}.\\n *\\n * CAUTION: When used with inheritance, manual care must be taken to not invoke a parent initializer twice, or to ensure\\n * that all initializers are idempotent. This is not verified automatically as constructors are by Solidity.\\n *\\n * [CAUTION]\\n * ====\\n * Avoid leaving a contract uninitialized.\\n *\\n * An uninitialized contract can be taken over by an attacker. This applies to both a proxy and its implementation\\n * contract, which may impact the proxy. To prevent the implementation contract from being used, you should invoke\\n * the {_disableInitializers} function in the constructor to automatically lock it when it is deployed:\\n *\\n * [.hljs-theme-light.nopadding]\\n * ```\\n * /// @custom:oz-upgrades-unsafe-allow constructor\\n * constructor() {\\n *     _disableInitializers();\\n * }\\n * ```\\n * ====\\n */\\nabstract contract Initializable {\\n    /**\\n     * @dev Storage of the initializable contract.\\n     *\\n     * It's implemented on a custom ERC-7201 namespace to reduce the risk of storage collisions\\n     * when using with upgradeable contracts.\\n     *\\n     * @custom:storage-location erc7201:openzeppelin.storage.Initializable\\n     */\\n    struct InitializableStorage {\\n        /**\\n         * @dev Indicates that the contract has been initialized.\\n         */\\n        uint64 _initialized;\\n        /**\\n         * @dev Indicates that the contract is in the process of being initialized.\\n         */\\n        bool _initializing;\\n    }\\n\\n    // keccak256(abi.encode(uint256(keccak256(\\\"openzeppelin.storage.Initializable\\\")) - 1)) & ~bytes32(uint256(0xff))\\n    bytes32 private constant INITIALIZABLE_STORAGE = 0xf0c57e16840df040f15088dc2f81fe391c3923bec73e23a9662efc9c229c6a00;\\n\\n    /**\\n     * @dev The contract is already initialized.\\n     */\\n    error InvalidInitialization();\\n\\n    /**\\n     * @dev The contract is not initializing.\\n     */\\n    error NotInitializing();\\n\\n    /**\\n     * @dev Triggered when the contract has been initialized or reinitialized.\\n     */\\n    event Initialized(uint64 version);\\n\\n    /**\\n     * @dev A modifier that defines a protected initializer function that can be invoked at most once. In its scope,\\n     * `onlyInitializing` functions can be used to initialize parent contracts.\\n     *\\n     * Similar to `reinitializer(1)`, except that in the context of a constructor an `initializer` may be invoked any\\n     * number of times. This behavior in the constructor can be useful during testing and is not expected to be used in\\n     * production.\\n     *\\n     * Emits an {Initialized} event.\\n     */\\n    modifier initializer() {\\n        // solhint-disable-next-line var-name-mixedcase\\n        InitializableStorage storage $ = _getInitializableStorage();\\n\\n        // Cache values to avoid duplicated sloads\\n        bool isTopLevelCall = !$._initializing;\\n        uint64 initialized = $._initialized;\\n\\n        // Allowed calls:\\n        // - initialSetup: the contract is not in the initializing state and no previous version was\\n        //                 initialized\\n        // - construction: the contract is initialized at version 1 (no reinitialization) and the\\n        //                 current contract is just being deployed\\n        bool initialSetup = initialized == 0 && isTopLevelCall;\\n        bool construction = initialized == 1 && address(this).code.length == 0;\\n\\n        if (!initialSetup && !construction) {\\n            revert InvalidInitialization();\\n        }\\n        $._initialized = 1;\\n        if (isTopLevelCall) {\\n            $._initializing = true;\\n        }\\n        _;\\n        if (isTopLevelCall) {\\n            $._initializing = false;\\n            emit Initialized(1);\\n        }\\n    }\\n\\n    /**\\n     * @dev A modifier that defines a protected reinitializer function that can be invoked at most once, and only if the\\n     * contract hasn't been initialized to a greater version before. In its scope, `onlyInitializing` functions can be\\n     * used to initialize parent contracts.\\n     *\\n     * A reinitializer may be used after the original initialization step. This is essential to configure modules that\\n     * are added through upgrades and that require initialization.\\n     *\\n     * When `version` is 1, this modifier is similar to `initializer`, except that functions marked with `reinitializer`\\n     * cannot be nested. If one is invoked in the context of another, execution will revert.\\n     *\\n     * Note that versions can jump in increments greater than 1; this implies that if multiple reinitializers coexist in\\n     * a contract, executing them in the right order is up to the developer or operator.\\n     *\\n     * WARNING: Setting the version to 2**64 - 1 will prevent any future reinitialization.\\n     *\\n     * Emits an {Initialized} event.\\n     */\\n    modifier reinitializer(uint64 version) {\\n        // solhint-disable-next-line var-name-mixedcase\\n        InitializableStorage storage $ = _getInitializableStorage();\\n\\n        if ($._initializing || $._initialized >= version) {\\n            revert InvalidInitialization();\\n        }\\n        $._initialized = version;\\n        $._initializing = true;\\n        _;\\n        $._initializing = false;\\n        emit Initialized(version);\\n    }\\n\\n    /**\\n     * @dev Modifier to protect an initialization function so that it can only be invoked by functions with the\\n     * {initializer} and {reinitializer} modifiers, directly or indirectly.\\n     */\\n    modifier onlyInitializing() {\\n        _checkInitializing();\\n        _;\\n    }\\n\\n    /**\\n     * @dev Reverts if the contract is not in an initializing state. See {onlyInitializing}.\\n     */\\n    function _checkInitializing() internal view virtual {\\n        if (!_isInitializing()) {\\n            revert NotInitializing();\\n        }\\n    }\\n\\n    /**\\n     * @dev Locks the contract, preventing any future reinitialization. This cannot be part of an initializer call.\\n     * Calling this in the constructor of a contract will prevent that contract from being initialized or reinitialized\\n     * to any version. It is recommended to use this to lock implementation contracts that are designed to be called\\n     * through proxies.\\n     *\\n     * Emits an {Initialized} event the first time it is successfully executed.\\n     */\\n    function _disableInitializers() internal virtual {\\n        // solhint-disable-next-line var-name-mixedcase\\n        InitializableStorage storage $ = _getInitializableStorage();\\n\\n        if ($._initializing) {\\n            revert InvalidInitialization();\\n        }\\n        if ($._initialized != type(uint64).max) {\\n            $._initialized = type(uint64).max;\\n            emit Initialized(type(uint64).max);\\n        }\\n    }\\n\\n    /**\\n     * @dev Returns the highest version that has been initialized. See {reinitializer}.\\n     */\\n    function _getInitializedVersion() internal view returns (uint64) {\\n        return _getInitializableStorage()._initialized;\\n    }\\n\\n    /**\\n     * @dev Returns `true` if the contract is currently initializing. See {onlyInitializing}.\\n     */\\n    function _isInitializing() internal view returns (bool) {\\n        return _getInitializableStorage()._initializing;\\n    }\\n\\n    /**\\n     * @dev Pointer to storage slot. Allows integrators to override it with a custom storage location.\\n     *\\n     * NOTE: Consider following the ERC-7201 formula to derive storage locations.\\n     */\\n    function _initializableStorageSlot() internal pure virtual returns (bytes32) {\\n        return INITIALIZABLE_STORAGE;\\n    }\\n\\n    /**\\n     * @dev Returns a pointer to the storage namespace.\\n     */\\n    // solhint-disable-next-line var-name-mixedcase\\n    function _getInitializableStorage() private pure returns (InitializableStorage storage $) {\\n        bytes32 slot = _initializableStorageSlot();\\n        assembly {\\n            $.slot := slot\\n        }\\n    }\\n}\\n\"},\"@openzeppelin/contracts/interfaces/draft-IERC6093.sol\":{\"content\":\"// SPDX-License-Identifier: MIT\\n// OpenZeppelin Contracts (last updated v5.5.0) (interfaces/draft-IERC6093.sol)\\n\\npragma solidity >=0.8.4;\\n\\n/**\\n * @dev Standard ERC-20 Errors\\n * Interface of the https://eips.ethereum.org/EIPS/eip-6093[ERC-6093] custom errors for ERC-20 tokens.\\n */\\ninterface IERC20Errors {\\n    /**\\n     * @dev Indicates an error related to the current `balance` of a `sender`. Used in transfers.\\n     * @param sender Address whose tokens are being transferred.\\n     * @param balance Current balance for the interacting account.\\n     * @param needed Minimum amount required to perform a transfer.\\n     */\\n    error ERC20InsufficientBalance(address sender, uint256 balance, uint256 needed);\\n\\n    /**\\n     * @dev Indicates a failure with the token `sender`. Used in transfers.\\n     * @param sender Address whose tokens are being transferred.\\n     */\\n    error ERC20InvalidSender(address sender);\\n\\n    /**\\n     * @dev Indicates a failure with the token `receiver`. Used in transfers.\\n     * @param receiver Address to which tokens are being transferred.\\n     */\\n    error ERC20InvalidReceiver(address receiver);\\n\\n    /**\\n     * @dev Indicates a failure with the `spender`’s `allowance`. Used in transfers.\\n     * @param spender Address that may be allowed to operate on tokens without being their owner.\\n     * @param allowance Amount of tokens a `spender` is allowed to operate with.\\n     * @param needed Minimum amount required to perform a transfer.\\n     */\\n    error ERC20InsufficientAllowance(address spender, uint256 allowance, uint256 needed);\\n\\n    /**\\n     * @dev Indicates a failure with the `approver` of a token to be approved. Used in approvals.\\n     * @param approver Address initiating an approval operation.\\n     */\\n    error ERC20InvalidApprover(address approver);\\n\\n    /**\\n     * @dev Indicates a failure with the `spender` to be approved. Used in approvals.\\n     * @param spender Address that may be allowed to operate on tokens without being their owner.\\n     */\\n    error ERC20InvalidSpender(address spender);\\n}\\n\\n/**\\n * @dev Standard ERC-721 Errors\\n * Interface of the https://eips.ethereum.org/EIPS/eip-6093[ERC-6093] custom errors for ERC-721 tokens.\\n */\\ninterface IERC721Errors {\\n    /**\\n     * @dev Indicates that an address can't be an owner. For example, `address(0)` is a forbidden owner in ERC-721.\\n     * Used in balance queries.\\n     * @param owner Address of the current owner of a token.\\n     */\\n    error ERC721InvalidOwner(address owner);\\n\\n    /**\\n     * @dev Indicates a `tokenId` whose `owner` is the zero address.\\n     * @param tokenId Identifier number of a token.\\n     */\\n    error ERC721NonexistentToken(uint256 tokenId);\\n\\n    /**\\n     * @dev Indicates an error related to the ownership over a particular token. Used in transfers.\\n     * @param sender Address whose tokens are being transferred.\\n     * @param tokenId Identifier number of a token.\\n     * @param owner Address of the current owner of a token.\\n     */\\n    error ERC721IncorrectOwner(address sender, uint256 tokenId, address owner);\\n\\n    /**\\n     * @dev Indicates a failure with the token `sender`. Used in transfers.\\n     * @param sender Address whose tokens are being transferred.\\n     */\\n    error ERC721InvalidSender(address sender);\\n\\n    /**\\n     * @dev Indicates a failure with the token `receiver`. Used in transfers.\\n     * @param receiver Address to which tokens are being transferred.\\n     */\\n    error ERC721InvalidReceiver(address receiver);\\n\\n    /**\\n     * @dev Indicates a failure with the `operator`’s approval. Used in transfers.\\n     * @param operator Address that may be allowed to operate on tokens without being their owner.\\n     * @param tokenId Identifier number of a token.\\n     */\\n    error ERC721InsufficientApproval(address operator, uint256 tokenId);\\n\\n    /**\\n     * @dev Indicates a failure with the `approver` of a token to be approved. Used in approvals.\\n     * @param approver Address initiating an approval operation.\\n     */\\n    error ERC721InvalidApprover(address approver);\\n\\n    /**\\n     * @dev Indicates a failure with the `operator` to be approved. Used in approvals.\\n     * @param operator Address that may be allowed to operate on tokens without being their owner.\\n     */\\n    error ERC721InvalidOperator(address operator);\\n}\\n\\n/**\\n * @dev Standard ERC-1155 Errors\\n * Interface of the https://eips.ethereum.org/EIPS/eip-6093[ERC-6093] custom errors for ERC-1155 tokens.\\n */\\ninterface IERC1155Errors {\\n    /**\\n     * @dev Indicates an error related to the current `balance` of a `sender`. Used in transfers.\\n     * @param sender Address whose tokens are being transferred.\\n     * @param balance Current balance for the interacting account.\\n     * @param needed Minimum amount required to perform a transfer.\\n     * @param tokenId Identifier number of a token.\\n     */\\n    error ERC1155InsufficientBalance(address sender, uint256 balance, uint256 needed, uint256 tokenId);\\n\\n    /**\\n     * @dev Indicates a failure with the token `sender`. Used in transfers.\\n     * @param sender Address whose tokens are being transferred.\\n     */\\n    error ERC1155InvalidSender(address sender);\\n\\n    /**\\n     * @dev Indicates a failure with the token `receiver`. Used in transfers.\\n     * @param receiver Address to which tokens are being transferred.\\n     */\\n    error ERC1155InvalidReceiver(address receiver);\\n\\n    /**\\n     * @dev Indicates a failure with the `operator`’s approval. Used in transfers.\\n     * @param operator Address that may be allowed to operate on tokens without being their owner.\\n     * @param owner Address of the current owner of a token.\\n     */\\n    error ERC1155MissingApprovalForAll(address operator, address owner);\\n\\n    /**\\n     * @dev Indicates a failure with the `approver` of a token to be approved. Used in approvals.\\n     * @param approver Address initiating an approval operation.\\n     */\\n    error ERC1155InvalidApprover(address approver);\\n\\n    /**\\n     * @dev Indicates a failure with the `operator` to be approved. Used in approvals.\\n     * @param operator Address that may be allowed to operate on tokens without being their owner.\\n     */\\n    error ERC1155InvalidOperator(address operator);\\n\\n    /**\\n     * @dev Indicates an array length mismatch between ids and values in a safeBatchTransferFrom operation.\\n     * Used in batch transfers.\\n     * @param idsLength Length of the array of token identifiers\\n     * @param valuesLength Length of the array of token amounts\\n     */\\n    error ERC1155InvalidArrayLength(uint256 idsLength, uint256 valuesLength);\\n}\\n\"},\"@openzeppelin/contracts-upgradeable/token/ERC20/extensions/ERC20PausableUpgradeable.sol\":{\"content\":\"// SPDX-License-Identifier: MIT\\n// OpenZeppelin Contracts (last updated v5.1.0) (token/ERC20/extensions/ERC20Pausable.sol)\\n\\npragma solidity ^0.8.20;\\n\\nimport {ERC20Upgradeable} from \\\"../ERC20Upgradeable.sol\\\";\\nimport {PausableUpgradeable} from \\\"../../../utils/PausableUpgradeable.sol\\\";\\nimport {Initializable} from \\\"@openzeppelin/contracts/proxy/utils/Initializable.sol\\\";\\n\\n/**\\n * @dev ERC-20 token with pausable token transfers, minting and burning.\\n *\\n * Useful for scenarios such as preventing trades until the end of an evaluation\\n * period, or having an emergency switch for freezing all token transfers in the\\n * event of a large bug.\\n *\\n * IMPORTANT: This contract does not include public pause and unpause functions. In\\n * addition to inheriting this contract, you must define both functions, invoking the\\n * {Pausable-_pause} and {Pausable-_unpause} internal functions, with appropriate\\n * access control, e.g. using {AccessControl} or {Ownable}. Not doing so will\\n * make the contract pause mechanism of the contract unreachable, and thus unusable.\\n */\\nabstract contract ERC20PausableUpgradeable is Initializable, ERC20Upgradeable, PausableUpgradeable {\\n    function __ERC20Pausable_init() internal onlyInitializing {\\n    }\\n\\n    function __ERC20Pausable_init_unchained() internal onlyInitializing {\\n    }\\n    /**\\n     * @dev See {ERC20-_update}.\\n     *\\n     * Requirements:\\n     *\\n     * - the contract must not be paused.\\n     */\\n    function _update(address from, address to, uint256 value) internal virtual override whenNotPaused {\\n        super._update(from, to, value);\\n    }\\n}\\n\"},\"@openzeppelin/contracts-upgradeable/utils/PausableUpgradeable.sol\":{\"content\":\"// SPDX-License-Identifier: MIT\\n// OpenZeppelin Contracts (last updated v5.3.0) (utils/Pausable.sol)\\n\\npragma solidity ^0.8.20;\\n\\nimport {ContextUpgradeable} from \\\"../utils/ContextUpgradeable.sol\\\";\\nimport {Initializable} from \\\"@openzeppelin/contracts/proxy/utils/Initializable.sol\\\";\\n\\n/**\\n * @dev Contract module which allows children to implement an emergency stop\\n * mechanism that can be triggered by an authorized account.\\n *\\n * This module is used through inheritance. It will make available the\\n * modifiers `whenNotPaused` and `whenPaused`, which can be applied to\\n * the functions of your contract. Note that they will not be pausable by\\n * simply including this module, only once the modifiers are put in place.\\n */\\nabstract contract PausableUpgradeable is Initializable, ContextUpgradeable {\\n    /// @custom:storage-location erc7201:openzeppelin.storage.Pausable\\n    struct PausableStorage {\\n        bool _paused;\\n    }\\n\\n    // keccak256(abi.encode(uint256(keccak256(\\\"openzeppelin.storage.Pausable\\\")) - 1)) & ~bytes32(uint256(0xff))\\n    bytes32 private constant PausableStorageLocation = 0xcd5ed15c6e187e77e9aee88184c21f4f2182ab5827cb3b7e07fbedcd63f03300;\\n\\n    function _getPausableStorage() private pure returns (PausableStorage storage $) {\\n        assembly {\\n            $.slot := PausableStorageLocation\\n        }\\n    }\\n\\n    /**\\n     * @dev Emitted when the pause is triggered by `account`.\\n     */\\n    event Paused(address account);\\n\\n    /**\\n     * @dev Emitted when the pause is lifted by `account`.\\n     */\\n    event Unpaused(address account);\\n\\n    /**\\n     * @dev The operation failed because the contract is paused.\\n     */\\n    error EnforcedPause();\\n\\n    /**\\n     * @dev The operation failed because the contract is not paused.\\n     */\\n    error ExpectedPause();\\n\\n    /**\\n     * @dev Modifier to make a function callable only when the contract is not paused.\\n     *\\n     * Requirements:\\n     *\\n     * - The contract must not be paused.\\n     */\\n    modifier whenNotPaused() {\\n        _requireNotPaused();\\n        _;\\n    }\\n\\n    /**\\n     * @dev Modifier to make a function callable only when the contract is paused.\\n     *\\n     * Requirements:\\n     *\\n     * - The contract must be paused.\\n     */\\n    modifier whenPaused() {\\n        _requirePaused();\\n        _;\\n    }\\n\\n    function __Pausable_init() internal onlyInitializing {\\n    }\\n\\n    function __Pausable_init_unchained() internal onlyInitializing {\\n    }\\n    /**\\n     * @dev Returns true if the contract is paused, and false otherwise.\\n     */\\n    function paused() public view virtual returns (bool) {\\n        PausableStorage storage $ = _getPausableStorage();\\n        return $._paused;\\n    }\\n\\n    /**\\n     * @dev Throws if the contract is paused.\\n     */\\n    function _requireNotPaused() internal view virtual {\\n        if (paused()) {\\n            revert EnforcedPause();\\n        }\\n    }\\n\\n    /**\\n     * @dev Throws if the contract is not paused.\\n     */\\n    function _requirePaused() internal view virtual {\\n        if (!paused()) {\\n            revert ExpectedPause();\\n        }\\n    }\\n\\n    /**\\n     * @dev Triggers stopped state.\\n     *\\n     * Requirements:\\n     *\\n     * - The contract must not be paused.\\n     */\\n    function _pause() internal virtual whenNotPaused {\\n        PausableStorage storage $ = _getPausableStorage();\\n        $._paused = true;\\n        emit Paused(_msgSender());\\n    }\\n\\n    /**\\n     * @dev Returns to normal state.\\n     *\\n     * Requirements:\\n     *\\n     * - The contract must be paused.\\n     */\\n    function _unpause() internal virtual whenPaused {\\n        PausableStorage storage $ = _getPausableStorage();\\n        $._paused = false;\\n        emit Unpaused(_msgSender());\\n    }\\n}\\n\"},\"@openzeppelin/contracts-upgradeable/access/Ownable2StepUpgradeable.sol\":{\"content\":\"// SPDX-License-Identifier: MIT\\n// OpenZeppelin Contracts (last updated v5.1.0) (access/Ownable2Step.sol)\\n\\npragma solidity ^0.8.20;\\n\\nimport {OwnableUpgradeable} from \\\"./OwnableUpgradeable.sol\\\";\\nimport {Initializable} from \\\"@openzeppelin/contracts/proxy/utils/Initializable.sol\\\";\\n\\n/**\\n * @dev Contract module which provides access control mechanism, where\\n * there is an account (an owner) that can be granted exclusive access to\\n * specific functions.\\n *\\n * This extension of the {Ownable} contract includes a two-step mechanism to transfer\\n * ownership, where the new owner must call {acceptOwnership} in order to replace the\\n * old one. This can help prevent common mistakes, such as transfers of ownership to\\n * incorrect accounts, or to contracts that are unable to interact with the\\n * permission system.\\n *\\n * The initial owner is specified at deployment time in the constructor for `Ownable`. This\\n * can later be changed with {transferOwnership} and {acceptOwnership}.\\n *\\n * This module is used through inheritance. It will make available all functions\\n * from parent (Ownable).\\n */\\nabstract contract Ownable2StepUpgradeable is Initializable, OwnableUpgradeable {\\n    /// @custom:storage-location erc7201:openzeppelin.storage.Ownable2Step\\n    struct Ownable2StepStorage {\\n        address _pendingOwner;\\n    }\\n\\n    // keccak256(abi.encode(uint256(keccak256(\\\"openzeppelin.storage.Ownable2Step\\\")) - 1)) & ~bytes32(uint256(0xff))\\n    bytes32 private constant Ownable2StepStorageLocation = 0x237e158222e3e6968b72b9db0d8043aacf074ad9f650f0d1606b4d82ee432c00;\\n\\n    function _getOwnable2StepStorage() private pure returns (Ownable2StepStorage storage $) {\\n        assembly {\\n            $.slot := Ownable2StepStorageLocation\\n        }\\n    }\\n\\n    event OwnershipTransferStarted(address indexed previousOwner, address indexed newOwner);\\n\\n    function __Ownable2Step_init() internal onlyInitializing {\\n    }\\n\\n    function __Ownable2Step_init_unchained() internal onlyInitializing {\\n    }\\n    /**\\n     * @dev Returns the address of the pending owner.\\n     */\\n    function pendingOwner() public view virtual returns (address) {\\n        Ownable2StepStorage storage $ = _getOwnable2StepStorage();\\n        return $._pendingOwner;\\n    }\\n\\n    /**\\n     * @dev Starts the ownership transfer of the contract to a new account. Replaces the pending transfer if there is one.\\n     * Can only be called by the current owner.\\n     *\\n     * Setting `newOwner` to the zero address is allowed; this can be used to cancel an initiated ownership transfer.\\n     */\\n    function transferOwnership(address newOwner) public virtual override onlyOwner {\\n        Ownable2StepStorage storage $ = _getOwnable2StepStorage();\\n        $._pendingOwner = newOwner;\\n        emit OwnershipTransferStarted(owner(), newOwner);\\n    }\\n\\n    /**\\n     * @dev Transfers ownership of the contract to a new account (`newOwner`) and deletes any pending owner.\\n     * Internal function without access restriction.\\n     */\\n    function _transferOwnership(address newOwner) internal virtual override {\\n        Ownable2StepStorage storage $ = _getOwnable2StepStorage();\\n        delete $._pendingOwner;\\n        super._transferOwnership(newOwner);\\n    }\\n\\n    /**\\n     * @dev The new owner accepts the ownership transfer.\\n     */\\n    function acceptOwnership() public virtual {\\n        address sender = _msgSender();\\n        if (pendingOwner() != sender) {\\n            revert OwnableUnauthorizedAccount(sender);\\n        }\\n        _transferOwnership(sender);\\n    }\\n}\\n\"},\"@openzeppelin/contracts-upgradeable/access/OwnableUpgradeable.sol\":{\"content\":\"// SPDX-License-Identifier: MIT\\n// OpenZeppelin Contracts (last updated v5.0.0) (access/Ownable.sol)\\n\\npragma solidity ^0.8.20;\\n\\nimport {ContextUpgradeable} from \\\"../utils/ContextUpgradeable.sol\\\";\\nimport {Initializable} from \\\"@openzeppelin/contracts/proxy/utils/Initializable.sol\\\";\\n\\n/**\\n * @dev Contract module which provides a basic access control mechanism, where\\n * there is an account (an owner) that can be granted exclusive access to\\n * specific functions.\\n *\\n * The initial owner is set to the address provided by the deployer. This can\\n * later be changed with {transferOwnership}.\\n *\\n * This module is used through inheritance. It will make available the modifier\\n * `onlyOwner`, which can be applied to your functions to restrict their use to\\n * the owner.\\n */\\nabstract contract OwnableUpgradeable is Initializable, ContextUpgradeable {\\n    /// @custom:storage-location erc7201:openzeppelin.storage.Ownable\\n    struct OwnableStorage {\\n        address _owner;\\n    }\\n\\n    // keccak256(abi.encode(uint256(keccak256(\\\"openzeppelin.storage.Ownable\\\")) - 1)) & ~bytes32(uint256(0xff))\\n    bytes32 private constant OwnableStorageLocation = 0x9016d09d72d40fdae2fd8ceac6b6234c7706214fd39c1cd1e609a0528c199300;\\n\\n    function _getOwnableStorage() private pure returns (OwnableStorage storage $) {\\n        assembly {\\n            $.slot := OwnableStorageLocation\\n        }\\n    }\\n\\n    /**\\n     * @dev The caller account is not authorized to perform an operation.\\n     */\\n    error OwnableUnauthorizedAccount(address account);\\n\\n    /**\\n     * @dev The owner is not a valid owner account. (eg. `address(0)`)\\n     */\\n    error OwnableInvalidOwner(address owner);\\n\\n    event OwnershipTransferred(address indexed previousOwner, address indexed newOwner);\\n\\n    /**\\n     * @dev Initializes the contract setting the address provided by the deployer as the initial owner.\\n     */\\n    function __Ownable_init(address initialOwner) internal onlyInitializing {\\n        __Ownable_init_unchained(initialOwner);\\n    }\\n\\n    function __Ownable_init_unchained(address initialOwner) internal onlyInitializing {\\n        if (initialOwner == address(0)) {\\n            revert OwnableInvalidOwner(address(0));\\n        }\\n        _transferOwnership(initialOwner);\\n    }\\n\\n    /**\\n     * @dev Throws if called by any account other than the owner.\\n     */\\n    modifier onlyOwner() {\\n        _checkOwner();\\n        _;\\n    }\\n\\n    /**\\n     * @dev Returns the address of the current owner.\\n     */\\n    function owner() public view virtual returns (address) {\\n        OwnableStorage storage $ = _getOwnableStorage();\\n        return $._owner;\\n    }\\n\\n    /**\\n     * @dev Throws if the sender is not the owner.\\n     */\\n    function _checkOwner() internal view virtual {\\n        if (owner() != _msgSender()) {\\n            revert OwnableUnauthorizedAccount(_msgSender());\\n        }\\n    }\\n\\n    /**\\n     * @dev Leaves the contract without owner. It will not be possible to call\\n     * `onlyOwner` functions. Can only be called by the current owner.\\n     *\\n     * NOTE: Renouncing ownership will leave the contract without an owner,\\n     * thereby disabling any functionality that is only available to the owner.\\n     */\\n    function renounceOwnership() public virtual onlyOwner {\\n        _transferOwnership(address(0));\\n    }\\n\\n    /**\\n     * @dev Transfers ownership of the contract to a new account (`newOwner`).\\n     * Can only be called by the current owner.\\n     */\\n    function transferOwnership(address newOwner) public virtual onlyOwner {\\n        if (newOwner == address(0)) {\\n            revert OwnableInvalidOwner(address(0));\\n        }\\n        _transferOwnership(newOwner);\\n    }\\n\\n    /**\\n     * @dev Transfers ownership of the contract to a new account (`newOwner`).\\n     * Internal function without access restriction.\\n     */\\n    function _transferOwnership(address newOwner) internal virtual {\\n        OwnableStorage storage $ = _getOwnableStorage();\\n        address oldOwner = $._owner;\\n        $._owner = newOwner;\\n        emit OwnershipTransferred(oldOwner, newOwner);\\n    }\\n}\\n\"},\"@openzeppelin/contracts-upgradeable/access/AccessControlUpgradeable.sol\":{\"content\":\"// SPDX-License-Identifier: MIT\\n// OpenZeppelin Contracts (last updated v5.6.0) (access/AccessControl.sol)\\n\\npragma solidity ^0.8.20;\\n\\nimport {IAccessControl} from \\\"@openzeppelin/contracts/access/IAccessControl.sol\\\";\\nimport {ContextUpgradeable} from \\\"../utils/ContextUpgradeable.sol\\\";\\nimport {ERC165Upgradeable} from \\\"../utils/introspection/ERC165Upgradeable.sol\\\";\\nimport {Initializable} from \\\"@openzeppelin/contracts/proxy/utils/Initializable.sol\\\";\\n\\n/**\\n * @dev Contract module that allows children to implement role-based access\\n * control mechanisms. This is a lightweight version that doesn't allow enumerating role\\n * members except through off-chain means by accessing the contract event logs. Some\\n * applications may benefit from on-chain enumerability, for those cases see\\n * {AccessControlEnumerable}.\\n *\\n * Roles are referred to by their `bytes32` identifier. These should be exposed\\n * in the external API and be unique. The best way to achieve this is by\\n * using `public constant` hash digests:\\n *\\n * ```solidity\\n * bytes32 public constant MY_ROLE = keccak256(\\\"MY_ROLE\\\");\\n * ```\\n *\\n * Roles can be used to represent a set of permissions. To restrict access to a\\n * function call, use {hasRole}:\\n *\\n * ```solidity\\n * function foo() public {\\n *     require(hasRole(MY_ROLE, msg.sender));\\n *     ...\\n * }\\n * ```\\n *\\n * Roles can be granted and revoked dynamically via the {grantRole} and\\n * {revokeRole} functions. Each role has an associated admin role, and only\\n * accounts that have a role's admin role can call {grantRole} and {revokeRole}.\\n *\\n * By default, the admin role for all roles is `DEFAULT_ADMIN_ROLE`, which means\\n * that only accounts with this role will be able to grant or revoke other\\n * roles. More complex role relationships can be created by using\\n * {_setRoleAdmin}.\\n *\\n * WARNING: The `DEFAULT_ADMIN_ROLE` is also its own admin: it has permission to\\n * grant and revoke this role. Extra precautions should be taken to secure\\n * accounts that have been granted it. We recommend using {AccessControlDefaultAdminRules}\\n * to enforce additional security measures for this role.\\n */\\nabstract contract AccessControlUpgradeable is Initializable, ContextUpgradeable, IAccessControl, ERC165Upgradeable {\\n    struct RoleData {\\n        mapping(address account => bool) hasRole;\\n        bytes32 adminRole;\\n    }\\n\\n    bytes32 public constant DEFAULT_ADMIN_ROLE = 0x00;\\n\\n\\n    /// @custom:storage-location erc7201:openzeppelin.storage.AccessControl\\n    struct AccessControlStorage {\\n        mapping(bytes32 role => RoleData) _roles;\\n    }\\n\\n    // keccak256(abi.encode(uint256(keccak256(\\\"openzeppelin.storage.AccessControl\\\")) - 1)) & ~bytes32(uint256(0xff))\\n    bytes32 private constant AccessControlStorageLocation = 0x02dd7bc7dec4dceedda775e58dd541e08a116c6c53815c0bd028192f7b626800;\\n\\n    function _getAccessControlStorage() private pure returns (AccessControlStorage storage $) {\\n        assembly {\\n            $.slot := AccessControlStorageLocation\\n        }\\n    }\\n\\n    /**\\n     * @dev Modifier that checks that an account has a specific role. Reverts\\n     * with an {AccessControlUnauthorizedAccount} error including the required role.\\n     */\\n    modifier onlyRole(bytes32 role) {\\n        _checkRole(role);\\n        _;\\n    }\\n\\n    function __AccessControl_init() internal onlyInitializing {\\n    }\\n\\n    function __AccessControl_init_unchained() internal onlyInitializing {\\n    }\\n    /// @inheritdoc ERC165Upgradeable\\n    function supportsInterface(bytes4 interfaceId) public view virtual override returns (bool) {\\n        return interfaceId == type(IAccessControl).interfaceId || super.supportsInterface(interfaceId);\\n    }\\n\\n    /**\\n     * @dev Returns `true` if `account` has been granted `role`.\\n     */\\n    function hasRole(bytes32 role, address account) public view virtual returns (bool) {\\n        AccessControlStorage storage $ = _getAccessControlStorage();\\n        return $._roles[role].hasRole[account];\\n    }\\n\\n    /**\\n     * @dev Reverts with an {AccessControlUnauthorizedAccount} error if `_msgSender()`\\n     * is missing `role`. Overriding this function changes the behavior of the {onlyRole} modifier.\\n     */\\n    function _checkRole(bytes32 role) internal view virtual {\\n        _checkRole(role, _msgSender());\\n    }\\n\\n    /**\\n     * @dev Reverts with an {AccessControlUnauthorizedAccount} error if `account`\\n     * is missing `role`.\\n     */\\n    function _checkRole(bytes32 role, address account) internal view virtual {\\n        if (!hasRole(role, account)) {\\n            revert AccessControlUnauthorizedAccount(account, role);\\n        }\\n    }\\n\\n    /**\\n     * @dev Returns the admin role that controls `role`. See {grantRole} and\\n     * {revokeRole}.\\n     *\\n     * To change a role's admin, use {_setRoleAdmin}.\\n     */\\n    function getRoleAdmin(bytes32 role) public view virtual returns (bytes32) {\\n        AccessControlStorage storage $ = _getAccessControlStorage();\\n        return $._roles[role].adminRole;\\n    }\\n\\n    /**\\n     * @dev Grants `role` to `account`.\\n     *\\n     * If `account` had not been already granted `role`, emits a {RoleGranted}\\n     * event.\\n     *\\n     * Requirements:\\n     *\\n     * - the caller must have ``role``'s admin role.\\n     *\\n     * May emit a {RoleGranted} event.\\n     */\\n    function grantRole(bytes32 role, address account) public virtual onlyRole(getRoleAdmin(role)) {\\n        _grantRole(role, account);\\n    }\\n\\n    /**\\n     * @dev Revokes `role` from `account`.\\n     *\\n     * If `account` had been granted `role`, emits a {RoleRevoked} event.\\n     *\\n     * Requirements:\\n     *\\n     * - the caller must have ``role``'s admin role.\\n     *\\n     * May emit a {RoleRevoked} event.\\n     */\\n    function revokeRole(bytes32 role, address account) public virtual onlyRole(getRoleAdmin(role)) {\\n        _revokeRole(role, account);\\n    }\\n\\n    /**\\n     * @dev Revokes `role` from the calling account.\\n     *\\n     * Roles are often managed via {grantRole} and {revokeRole}: this function's\\n     * purpose is to provide a mechanism for accounts to lose their privileges\\n     * if they are compromised (such as when a trusted device is misplaced).\\n     *\\n     * If the calling account had been revoked `role`, emits a {RoleRevoked}\\n     * event.\\n     *\\n     * Requirements:\\n     *\\n     * - the caller must be `callerConfirmation`.\\n     *\\n     * May emit a {RoleRevoked} event.\\n     */\\n    function renounceRole(bytes32 role, address callerConfirmation) public virtual {\\n        if (callerConfirmation != _msgSender()) {\\n            revert AccessControlBadConfirmation();\\n        }\\n\\n        _revokeRole(role, callerConfirmation);\\n    }\\n\\n    /**\\n     * @dev Sets `adminRole` as ``role``'s admin role.\\n     *\\n     * Emits a {RoleAdminChanged} event.\\n     */\\n    function _setRoleAdmin(bytes32 role, bytes32 adminRole) internal virtual {\\n        AccessControlStorage storage $ = _getAccessControlStorage();\\n        bytes32 previousAdminRole = getRoleAdmin(role);\\n        $._roles[role].adminRole = adminRole;\\n        emit RoleAdminChanged(role, previousAdminRole, adminRole);\\n    }\\n\\n    /**\\n     * @dev Attempts to grant `role` to `account` and returns a boolean indicating if `role` was granted.\\n     *\\n     * Internal function without access restriction.\\n     *\\n     * May emit a {RoleGranted} event.\\n     */\\n    function _grantRole(bytes32 role, address account) internal virtual returns (bool) {\\n        AccessControlStorage storage $ = _getAccessControlStorage();\\n        if (!hasRole(role, account)) {\\n            $._roles[role].hasRole[account] = true;\\n            emit RoleGranted(role, account, _msgSender());\\n            return true;\\n        } else {\\n            return false;\\n        }\\n    }\\n\\n    /**\\n     * @dev Attempts to revoke `role` from `account` and returns a boolean indicating if `role` was revoked.\\n     *\\n     * Internal function without access restriction.\\n     *\\n     * May emit a {RoleRevoked} event.\\n     */\\n    function _revokeRole(bytes32 role, address account) internal virtual returns (bool) {\\n        AccessControlStorage storage $ = _getAccessControlStorage();\\n        if (hasRole(role, account)) {\\n            $._roles[role].hasRole[account] = false;\\n            emit RoleRevoked(role, account, _msgSender());\\n            return true;\\n        } else {\\n            return false;\\n        }\\n    }\\n}\\n\"},\"@openzeppelin/contracts/access/IAccessControl.sol\":{\"content\":\"// SPDX-License-Identifier: MIT\\n// OpenZeppelin Contracts (last updated v5.4.0) (access/IAccessControl.sol)\\n\\npragma solidity >=0.8.4;\\n\\n/**\\n * @dev External interface of AccessControl declared to support ERC-165 detection.\\n */\\ninterface IAccessControl {\\n    /**\\n     * @dev The `account` is missing a role.\\n     */\\n    error AccessControlUnauthorizedAccount(address account, bytes32 neededRole);\\n\\n    /**\\n     * @dev The caller of a function is not the expected one.\\n     *\\n     * NOTE: Don't confuse with {AccessControlUnauthorizedAccount}.\\n     */\\n    error AccessControlBadConfirmation();\\n\\n    /**\\n     * @dev Emitted when `newAdminRole` is set as ``role``'s admin role, replacing `previousAdminRole`\\n     *\\n     * `DEFAULT_ADMIN_ROLE` is the starting admin for all roles, despite\\n     * {RoleAdminChanged} not being emitted to signal this.\\n     */\\n    event RoleAdminChanged(bytes32 indexed role, bytes32 indexed previousAdminRole, bytes32 indexed newAdminRole);\\n\\n    /**\\n     * @dev Emitted when `account` is granted `role`.\\n     *\\n     * `sender` is the account that originated the contract call. This account bears the admin role (for the granted role).\\n     * Expected in cases where the role was granted using the internal {AccessControl-_grantRole}.\\n     */\\n    event RoleGranted(bytes32 indexed role, address indexed account, address indexed sender);\\n\\n    /**\\n     * @dev Emitted when `account` is revoked `role`.\\n     *\\n     * `sender` is the account that originated the contract call:\\n     *   - if using `revokeRole`, it is the admin role bearer\\n     *   - if using `renounceRole`, it is the role bearer (i.e. `account`)\\n     */\\n    event RoleRevoked(bytes32 indexed role, address indexed account, address indexed sender);\\n\\n    /**\\n     * @dev Returns `true` if `account` has been granted `role`.\\n     */\\n    function hasRole(bytes32 role, address account) external view returns (bool);\\n\\n    /**\\n     * @dev Returns the admin role that controls `role`. See {grantRole} and\\n     * {revokeRole}.\\n     *\\n     * To change a role's admin, use {AccessControl-_setRoleAdmin}.\\n     */\\n    function getRoleAdmin(bytes32 role) external view returns (bytes32);\\n\\n    /**\\n     * @dev Grants `role` to `account`.\\n     *\\n     * If `account` had not been already granted `role`, emits a {RoleGranted}\\n     * event.\\n     *\\n     * Requirements:\\n     *\\n     * - the caller must have ``role``'s admin role.\\n     */\\n    function grantRole(bytes32 role, address account) external;\\n\\n    /**\\n     * @dev Revokes `role` from `account`.\\n     *\\n     * If `account` had been granted `role`, emits a {RoleRevoked} event.\\n     *\\n     * Requirements:\\n     *\\n     * - the caller must have ``role``'s admin role.\\n     */\\n    function revokeRole(bytes32 role, address account) external;\\n\\n    /**\\n     * @dev Revokes `role` from the calling account.\\n     *\\n     * Roles are often managed via {grantRole} and {revokeRole}: this function's\\n     * purpose is to provide a mechanism for accounts to lose their privileges\\n     * if they are compromised (such as when a trusted device is misplaced).\\n     *\\n     * If the calling account had been granted `role`, emits a {RoleRevoked}\\n     * event.\\n     *\\n     * Requirements:\\n     *\\n     * - the caller must be `callerConfirmation`.\\n     */\\n    function renounceRole(bytes32 role, address callerConfirmation) external;\\n}\\n\"},\"@openzeppelin/contracts-upgradeable/utils/introspection/ERC165Upgradeable.sol\":{\"content\":\"// SPDX-License-Identifier: MIT\\n// OpenZeppelin Contracts (last updated v5.4.0) (utils/introspection/ERC165.sol)\\n\\npragma solidity ^0.8.20;\\n\\nimport {IERC165} from \\\"@openzeppelin/contracts/utils/introspection/IERC165.sol\\\";\\nimport {Initializable} from \\\"@openzeppelin/contracts/proxy/utils/Initializable.sol\\\";\\n\\n/**\\n * @dev Implementation of the {IERC165} interface.\\n *\\n * Contracts that want to implement ERC-165 should inherit from this contract and override {supportsInterface} to check\\n * for the additional interface id that will be supported. For example:\\n *\\n * ```solidity\\n * function supportsInterface(bytes4 interfaceId) public view virtual override returns (bool) {\\n *     return interfaceId == type(MyInterface).interfaceId || super.supportsInterface(interfaceId);\\n * }\\n * ```\\n */\\nabstract contract ERC165Upgradeable is Initializable, IERC165 {\\n    function __ERC165_init() internal onlyInitializing {\\n    }\\n\\n    function __ERC165_init_unchained() internal onlyInitializing {\\n    }\\n    /// @inheritdoc IERC165\\n    function supportsInterface(bytes4 interfaceId) public view virtual returns (bool) {\\n        return interfaceId == type(IERC165).interfaceId;\\n    }\\n}\\n\"},\"@openzeppelin/contracts/utils/introspection/IERC165.sol\":{\"content\":\"// SPDX-License-Identifier: MIT\\n// OpenZeppelin Contracts (last updated v5.4.0) (utils/introspection/IERC165.sol)\\n\\npragma solidity >=0.4.16;\\n\\n/**\\n * @dev Interface of the ERC-165 standard, as defined in the\\n * https://eips.ethereum.org/EIPS/eip-165[ERC].\\n *\\n * Implementers can declare support of contract interfaces, which can then be\\n * queried by others ({ERC165Checker}).\\n *\\n * For an implementation, see {ERC165}.\\n */\\ninterface IERC165 {\\n    /**\\n     * @dev Returns true if this contract implements the interface defined by\\n     * `interfaceId`. See the corresponding\\n     * https://eips.ethereum.org/EIPS/eip-165#how-interfaces-are-identified[ERC section]\\n     * to learn more about how these ids are created.\\n     *\\n     * This function call must use less than 30 000 gas.\\n     */\\n    function supportsInterface(bytes4 interfaceId) external view returns (bool);\\n}\\n\"},\"@openzeppelin/contracts-upgradeable/proxy/utils/Initializable.sol\":{\"content\":\"// SPDX-License-Identifier: MIT\\n\\npragma solidity ^0.8.20;\\n\\nimport {Initializable} from \\\"@openzeppelin/contracts/proxy/utils/Initializable.sol\\\";\\n\"},\"@openzeppelin/contracts-upgradeable/proxy/utils/UUPSUpgradeable.sol\":{\"content\":\"// SPDX-License-Identifier: MIT\\n\\npragma solidity ^0.8.22;\\n\\nimport {UUPSUpgradeable} from \\\"@openzeppelin/contracts/proxy/utils/UUPSUpgradeable.sol\\\";\\n\"},\"@openzeppelin/contracts/proxy/utils/UUPSUpgradeable.sol\":{\"content\":\"// SPDX-License-Identifier: MIT\\n// OpenZeppelin Contracts (last updated v5.5.0) (proxy/utils/UUPSUpgradeable.sol)\\n\\npragma solidity ^0.8.22;\\n\\nimport {IERC1822Proxiable} from \\\"../../interfaces/draft-IERC1822.sol\\\";\\nimport {ERC1967Utils} from \\\"../ERC1967/ERC1967Utils.sol\\\";\\n\\n/**\\n * @dev An upgradeability mechanism designed for UUPS proxies. The functions included here can perform an upgrade of an\\n * {ERC1967Proxy}, when this contract is set as the implementation behind such a proxy.\\n *\\n * A security mechanism ensures that an upgrade does not turn off upgradeability accidentally, although this risk is\\n * reinstated if the upgrade retains upgradeability but removes the security mechanism, e.g. by replacing\\n * `UUPSUpgradeable` with a custom implementation of upgrades.\\n *\\n * The {_authorizeUpgrade} function must be overridden to include access restriction to the upgrade mechanism.\\n *\\n * @custom:stateless\\n */\\nabstract contract UUPSUpgradeable is IERC1822Proxiable {\\n    /// @custom:oz-upgrades-unsafe-allow state-variable-immutable\\n    address private immutable __self = address(this);\\n\\n    /**\\n     * @dev The version of the upgrade interface of the contract. If this getter is missing, both `upgradeTo(address)`\\n     * and `upgradeToAndCall(address,bytes)` are present, and `upgradeTo` must be used if no function should be called,\\n     * while `upgradeToAndCall` will invoke the `receive` function if the second argument is the empty byte string.\\n     * If the getter returns `\\\"5.0.0\\\"`, only `upgradeToAndCall(address,bytes)` is present, and the second argument must\\n     * be the empty byte string if no function should be called, making it impossible to invoke the `receive` function\\n     * during an upgrade.\\n     */\\n    string public constant UPGRADE_INTERFACE_VERSION = \\\"5.0.0\\\";\\n\\n    /**\\n     * @dev The call is from an unauthorized context.\\n     */\\n    error UUPSUnauthorizedCallContext();\\n\\n    /**\\n     * @dev The storage `slot` is unsupported as a UUID.\\n     */\\n    error UUPSUnsupportedProxiableUUID(bytes32 slot);\\n\\n    /**\\n     * @dev Check that the execution is being performed through a delegatecall call and that the execution context is\\n     * a proxy contract with an implementation (as defined in ERC-1967) pointing to self. This should only be the case\\n     * for UUPS and transparent proxies that are using the current contract as their implementation. Execution of a\\n     * function through ERC-1167 minimal proxies (clones) would not normally pass this test, but is not guaranteed to\\n     * fail.\\n     */\\n    modifier onlyProxy() {\\n        _checkProxy();\\n        _;\\n    }\\n\\n    /**\\n     * @dev Check that the execution is not being performed through a delegate call. This allows a function to be\\n     * callable on the implementing contract but not through proxies.\\n     */\\n    modifier notDelegated() {\\n        _checkNotDelegated();\\n        _;\\n    }\\n\\n    /**\\n     * @dev Implementation of the ERC-1822 {proxiableUUID} function. This returns the storage slot used by the\\n     * implementation. It is used to validate the implementation's compatibility when performing an upgrade.\\n     *\\n     * IMPORTANT: A proxy pointing at a proxiable contract should not be considered proxiable itself, because this risks\\n     * bricking a proxy that upgrades to it, by delegating to itself until out of gas. Thus it is critical that this\\n     * function revert if invoked through a proxy. This is guaranteed by the `notDelegated` modifier.\\n     */\\n    function proxiableUUID() external view notDelegated returns (bytes32) {\\n        return ERC1967Utils.IMPLEMENTATION_SLOT;\\n    }\\n\\n    /**\\n     * @dev Upgrade the implementation of the proxy to `newImplementation`, and subsequently execute the function call\\n     * encoded in `data`.\\n     *\\n     * Calls {_authorizeUpgrade}.\\n     *\\n     * Emits an {Upgraded} event.\\n     *\\n     * @custom:oz-upgrades-unsafe-allow-reachable delegatecall\\n     */\\n    function upgradeToAndCall(address newImplementation, bytes memory data) public payable virtual onlyProxy {\\n        _authorizeUpgrade(newImplementation);\\n        _upgradeToAndCallUUPS(newImplementation, data);\\n    }\\n\\n    /**\\n     * @dev Reverts if the execution is not performed via delegatecall or the execution\\n     * context is not of a proxy with an ERC-1967 compliant implementation pointing to self.\\n     */\\n    function _checkProxy() internal view virtual {\\n        if (\\n            address(this) == __self || // Must be called through delegatecall\\n            ERC1967Utils.getImplementation() != __self // Must be called through an active proxy\\n        ) {\\n            revert UUPSUnauthorizedCallContext();\\n        }\\n    }\\n\\n    /**\\n     * @dev Reverts if the execution is performed via delegatecall.\\n     * See {notDelegated}.\\n     */\\n    function _checkNotDelegated() internal view virtual {\\n        if (address(this) != __self) {\\n            // Must not be called through delegatecall\\n            revert UUPSUnauthorizedCallContext();\\n        }\\n    }\\n\\n    /**\\n     * @dev Function that should revert when `msg.sender` is not authorized to upgrade the contract. Called by\\n     * {upgradeToAndCall}.\\n     *\\n     * Normally, this function will use an xref:access.adoc[access control] modifier such as {Ownable-onlyOwner}.\\n     *\\n     * ```solidity\\n     * function _authorizeUpgrade(address) internal onlyOwner {}\\n     * ```\\n     */\\n    function _authorizeUpgrade(address newImplementation) internal virtual;\\n\\n    /**\\n     * @dev Performs an implementation upgrade with a security check for UUPS proxies, and additional setup call.\\n     *\\n     * As a security check, {proxiableUUID} is invoked in the new implementation, and the return value\\n     * is expected to be the implementation slot in ERC-1967.\\n     *\\n     * Emits an {IERC1967-Upgraded} event.\\n     */\\n    function _upgradeToAndCallUUPS(address newImplementation, bytes memory data) private {\\n        try IERC1822Proxiable(newImplementation).proxiableUUID() returns (bytes32 slot) {\\n            if (slot != ERC1967Utils.IMPLEMENTATION_SLOT) {\\n                revert UUPSUnsupportedProxiableUUID(slot);\\n            }\\n            ERC1967Utils.upgradeToAndCall(newImplementation, data);\\n        } catch {\\n            // The implementation is not UUPS\\n            revert ERC1967Utils.ERC1967InvalidImplementation(newImplementation);\\n        }\\n    }\\n}\\n\"},\"@openzeppelin/contracts/interfaces/draft-IERC1822.sol\":{\"content\":\"// SPDX-License-Identifier: MIT\\n// OpenZeppelin Contracts (last updated v5.4.0) (interfaces/draft-IERC1822.sol)\\n\\npragma solidity >=0.4.16;\\n\\n/**\\n * @dev ERC-1822: Universal Upgradeable Proxy Standard (UUPS) documents a method for upgradeability through a simplified\\n * proxy whose upgrades are fully controlled by the current implementation.\\n */\\ninterface IERC1822Proxiable {\\n    /**\\n     * @dev Returns the storage slot that the proxiable contract assumes is being used to store the implementation\\n     * address.\\n     *\\n     * IMPORTANT: A proxy pointing at a proxiable contract should not be considered proxiable itself, because this risks\\n     * bricking a proxy that upgrades to it, by delegating to itself until out of gas. Thus it is critical that this\\n     * function revert if invoked through a proxy.\\n     */\\n    function proxiableUUID() external view returns (bytes32);\\n}\\n\"},\"@openzeppelin/contracts/proxy/ERC1967/ERC1967Utils.sol\":{\"content\":\"// SPDX-License-Identifier: MIT\\n// OpenZeppelin Contracts (last updated v5.6.0) (proxy/ERC1967/ERC1967Utils.sol)\\n\\npragma solidity ^0.8.21;\\n\\nimport {IBeacon} from \\\"../beacon/IBeacon.sol\\\";\\nimport {IERC1967} from \\\"../../interfaces/IERC1967.sol\\\";\\nimport {Address} from \\\"../../utils/Address.sol\\\";\\nimport {StorageSlot} from \\\"../../utils/StorageSlot.sol\\\";\\n\\n/**\\n * @dev This library provides getters and event emitting update functions for\\n * https://eips.ethereum.org/EIPS/eip-1967[ERC-1967] slots.\\n */\\nlibrary ERC1967Utils {\\n    /**\\n     * @dev Storage slot with the address of the current implementation.\\n     * This is the keccak-256 hash of \\\"eip1967.proxy.implementation\\\" subtracted by 1.\\n     */\\n    // solhint-disable-next-line private-vars-leading-underscore\\n    bytes32 internal constant IMPLEMENTATION_SLOT = 0x360894a13ba1a3210667c828492db98dca3e2076cc3735a920a3ca505d382bbc;\\n\\n    /**\\n     * @dev The `implementation` of the proxy is invalid.\\n     */\\n    error ERC1967InvalidImplementation(address implementation);\\n\\n    /**\\n     * @dev The `admin` of the proxy is invalid.\\n     */\\n    error ERC1967InvalidAdmin(address admin);\\n\\n    /**\\n     * @dev The `beacon` of the proxy is invalid.\\n     */\\n    error ERC1967InvalidBeacon(address beacon);\\n\\n    /**\\n     * @dev An upgrade function sees `msg.value > 0` that may be lost.\\n     */\\n    error ERC1967NonPayable();\\n\\n    /**\\n     * @dev Returns the current implementation address.\\n     */\\n    function getImplementation() internal view returns (address) {\\n        return StorageSlot.getAddressSlot(IMPLEMENTATION_SLOT).value;\\n    }\\n\\n    /**\\n     * @dev Stores a new address in the ERC-1967 implementation slot.\\n     */\\n    function _setImplementation(address newImplementation) private {\\n        if (newImplementation.code.length == 0) {\\n            revert ERC1967InvalidImplementation(newImplementation);\\n        }\\n        StorageSlot.getAddressSlot(IMPLEMENTATION_SLOT).value = newImplementation;\\n    }\\n\\n    /**\\n     * @dev Performs implementation upgrade with additional setup call if data is nonempty.\\n     * This function is payable only if the setup call is performed, otherwise `msg.value` is rejected\\n     * to avoid stuck value in the contract.\\n     *\\n     * Emits an {IERC1967-Upgraded} event.\\n     */\\n    function upgradeToAndCall(address newImplementation, bytes memory data) internal {\\n        _setImplementation(newImplementation);\\n        emit IERC1967.Upgraded(newImplementation);\\n\\n        if (data.length > 0) {\\n            Address.functionDelegateCall(newImplementation, data);\\n        } else {\\n            _checkNonPayable();\\n        }\\n    }\\n\\n    /**\\n     * @dev Storage slot with the admin of the contract.\\n     * This is the keccak-256 hash of \\\"eip1967.proxy.admin\\\" subtracted by 1.\\n     */\\n    // solhint-disable-next-line private-vars-leading-underscore\\n    bytes32 internal constant ADMIN_SLOT = 0xb53127684a568b3173ae13b9f8a6016e243e63b6e8ee1178d6a717850b5d6103;\\n\\n    /**\\n     * @dev Returns the current admin.\\n     *\\n     * TIP: To get this value clients can read directly from the storage slot shown below (specified by ERC-1967) using\\n     * the https://ethereum.org/developers/docs/apis/json-rpc/#eth_getstorageat[`eth_getStorageAt`] RPC call.\\n     * `0xb53127684a568b3173ae13b9f8a6016e243e63b6e8ee1178d6a717850b5d6103`\\n     */\\n    function getAdmin() internal view returns (address) {\\n        return StorageSlot.getAddressSlot(ADMIN_SLOT).value;\\n    }\\n\\n    /**\\n     * @dev Stores a new address in the ERC-1967 admin slot.\\n     */\\n    function _setAdmin(address newAdmin) private {\\n        if (newAdmin == address(0)) {\\n            revert ERC1967InvalidAdmin(address(0));\\n        }\\n        StorageSlot.getAddressSlot(ADMIN_SLOT).value = newAdmin;\\n    }\\n\\n    /**\\n     * @dev Changes the admin of the proxy.\\n     *\\n     * Emits an {IERC1967-AdminChanged} event.\\n     */\\n    function changeAdmin(address newAdmin) internal {\\n        emit IERC1967.AdminChanged(getAdmin(), newAdmin);\\n        _setAdmin(newAdmin);\\n    }\\n\\n    /**\\n     * @dev The storage slot of the UpgradeableBeacon contract which defines the implementation for this proxy.\\n     * This is the keccak-256 hash of \\\"eip1967.proxy.beacon\\\" subtracted by 1.\\n     */\\n    // solhint-disable-next-line private-vars-leading-underscore\\n    bytes32 internal constant BEACON_SLOT = 0xa3f0ad74e5423aebfd80d3ef4346578335a9a72aeaee59ff6cb3582b35133d50;\\n\\n    /**\\n     * @dev Returns the current beacon.\\n     */\\n    function getBeacon() internal view returns (address) {\\n        return StorageSlot.getAddressSlot(BEACON_SLOT).value;\\n    }\\n\\n    /**\\n     * @dev Stores a new beacon in the ERC-1967 beacon slot.\\n     */\\n    function _setBeacon(address newBeacon) private {\\n        if (newBeacon.code.length == 0) {\\n            revert ERC1967InvalidBeacon(newBeacon);\\n        }\\n\\n        StorageSlot.getAddressSlot(BEACON_SLOT).value = newBeacon;\\n\\n        address beaconImplementation = IBeacon(newBeacon).implementation();\\n        if (beaconImplementation.code.length == 0) {\\n            revert ERC1967InvalidImplementation(beaconImplementation);\\n        }\\n    }\\n\\n    /**\\n     * @dev Change the beacon and trigger a setup call if data is nonempty.\\n     * This function is payable only if the setup call is performed, otherwise `msg.value` is rejected\\n     * to avoid stuck value in the contract.\\n     *\\n     * Emits an {IERC1967-BeaconUpgraded} event.\\n     *\\n     * CAUTION: Invoking this function has no effect on an instance of {BeaconProxy} since v5, since\\n     * it uses an immutable beacon without looking at the value of the ERC-1967 beacon slot for\\n     * efficiency.\\n     */\\n    function upgradeBeaconToAndCall(address newBeacon, bytes memory data) internal {\\n        _setBeacon(newBeacon);\\n        emit IERC1967.BeaconUpgraded(newBeacon);\\n\\n        if (data.length > 0) {\\n            Address.functionDelegateCall(IBeacon(newBeacon).implementation(), data);\\n        } else {\\n            _checkNonPayable();\\n        }\\n    }\\n\\n    /**\\n     * @dev Reverts if `msg.value` is not zero. It can be used to avoid `msg.value` stuck in the contract\\n     * if an upgrade doesn't perform an initialization call.\\n     */\\n    function _checkNonPayable() private {\\n        if (msg.value > 0) {\\n            revert ERC1967NonPayable();\\n        }\\n    }\\n}\\n\"},\"@openzeppelin/contracts/proxy/beacon/IBeacon.sol\":{\"content\":\"// SPDX-License-Identifier: MIT\\n// OpenZeppelin Contracts (last updated v5.4.0) (proxy/beacon/IBeacon.sol)\\n\\npragma solidity >=0.4.16;\\n\\n/**\\n * @dev This is the interface that {BeaconProxy} expects of its beacon.\\n */\\ninterface IBeacon {\\n    /**\\n     * @dev Must return an address that can be used as a delegate call target.\\n     *\\n     * {UpgradeableBeacon} will check that this address is a contract.\\n     */\\n    function implementation() external view returns (address);\\n}\\n\"},\"@openzeppelin/contracts/interfaces/IERC1967.sol\":{\"content\":\"// SPDX-License-Identifier: MIT\\n// OpenZeppelin Contracts (last updated v5.4.0) (interfaces/IERC1967.sol)\\n\\npragma solidity >=0.4.11;\\n\\n/**\\n * @dev ERC-1967: Proxy Storage Slots. This interface contains the events defined in the ERC.\\n */\\ninterface IERC1967 {\\n    /**\\n     * @dev Emitted when the implementation is upgraded.\\n     */\\n    event Upgraded(address indexed implementation);\\n\\n    /**\\n     * @dev Emitted when the admin account has changed.\\n     */\\n    event AdminChanged(address previousAdmin, address newAdmin);\\n\\n    /**\\n     * @dev Emitted when the beacon is changed.\\n     */\\n    event BeaconUpgraded(address indexed beacon);\\n}\\n\"},\"@openzeppelin/contracts/utils/Address.sol\":{\"content\":\"// SPDX-License-Identifier: MIT\\n// OpenZeppelin Contracts (last updated v5.5.0) (utils/Address.sol)\\n\\npragma solidity ^0.8.20;\\n\\nimport {Errors} from \\\"./Errors.sol\\\";\\nimport {LowLevelCall} from \\\"./LowLevelCall.sol\\\";\\n\\n/**\\n * @dev Collection of functions related to the address type\\n */\\nlibrary Address {\\n    /**\\n     * @dev There's no code at `target` (it is not a contract).\\n     */\\n    error AddressEmptyCode(address target);\\n\\n    /**\\n     * @dev Replacement for Solidity's `transfer`: sends `amount` wei to\\n     * `recipient`, forwarding all available gas and reverting on errors.\\n     *\\n     * https://eips.ethereum.org/EIPS/eip-1884[EIP1884] increases the gas cost\\n     * of certain opcodes, possibly making contracts go over the 2300 gas limit\\n     * imposed by `transfer`, making them unable to receive funds via\\n     * `transfer`. {sendValue} removes this limitation.\\n     *\\n     * https://consensys.net/diligence/blog/2019/09/stop-using-soliditys-transfer-now/[Learn more].\\n     *\\n     * IMPORTANT: because control is transferred to `recipient`, care must be\\n     * taken to not create reentrancy vulnerabilities. Consider using\\n     * {ReentrancyGuard} or the\\n     * https://solidity.readthedocs.io/en/v0.8.20/security-considerations.html#use-the-checks-effects-interactions-pattern[checks-effects-interactions pattern].\\n     */\\n    function sendValue(address payable recipient, uint256 amount) internal {\\n        if (address(this).balance < amount) {\\n            revert Errors.InsufficientBalance(address(this).balance, amount);\\n        }\\n        if (LowLevelCall.callNoReturn(recipient, amount, \\\"\\\")) {\\n            // call successful, nothing to do\\n            return;\\n        } else if (LowLevelCall.returnDataSize() > 0) {\\n            LowLevelCall.bubbleRevert();\\n        } else {\\n            revert Errors.FailedCall();\\n        }\\n    }\\n\\n    /**\\n     * @dev Performs a Solidity function call using a low level `call`. A\\n     * plain `call` is an unsafe replacement for a function call: use this\\n     * function instead.\\n     *\\n     * If `target` reverts with a revert reason or custom error, it is bubbled\\n     * up by this function (like regular Solidity function calls). However, if\\n     * the call reverted with no returned reason, this function reverts with a\\n     * {Errors.FailedCall} error.\\n     *\\n     * Returns the raw returned data. To convert to the expected return value,\\n     * use https://solidity.readthedocs.io/en/latest/units-and-global-variables.html?highlight=abi.decode#abi-encoding-and-decoding-functions[`abi.decode`].\\n     *\\n     * Requirements:\\n     *\\n     * - `target` must be a contract.\\n     * - calling `target` with `data` must not revert.\\n     */\\n    function functionCall(address target, bytes memory data) internal returns (bytes memory) {\\n        return functionCallWithValue(target, data, 0);\\n    }\\n\\n    /**\\n     * @dev Same as {xref-Address-functionCall-address-bytes-}[`functionCall`],\\n     * but also transferring `value` wei to `target`.\\n     *\\n     * Requirements:\\n     *\\n     * - the calling contract must have an ETH balance of at least `value`.\\n     * - the called Solidity function must be `payable`.\\n     */\\n    function functionCallWithValue(address target, bytes memory data, uint256 value) internal returns (bytes memory) {\\n        if (address(this).balance < value) {\\n            revert Errors.InsufficientBalance(address(this).balance, value);\\n        }\\n        bool success = LowLevelCall.callNoReturn(target, value, data);\\n        if (success && (LowLevelCall.returnDataSize() > 0 || target.code.length > 0)) {\\n            return LowLevelCall.returnData();\\n        } else if (success) {\\n            revert AddressEmptyCode(target);\\n        } else if (LowLevelCall.returnDataSize() > 0) {\\n            LowLevelCall.bubbleRevert();\\n        } else {\\n            revert Errors.FailedCall();\\n        }\\n    }\\n\\n    /**\\n     * @dev Same as {xref-Address-functionCall-address-bytes-}[`functionCall`],\\n     * but performing a static call.\\n     */\\n    function functionStaticCall(address target, bytes memory data) internal view returns (bytes memory) {\\n        bool success = LowLevelCall.staticcallNoReturn(target, data);\\n        if (success && (LowLevelCall.returnDataSize() > 0 || target.code.length > 0)) {\\n            return LowLevelCall.returnData();\\n        } else if (success) {\\n            revert AddressEmptyCode(target);\\n        } else if (LowLevelCall.returnDataSize() > 0) {\\n            LowLevelCall.bubbleRevert();\\n        } else {\\n            revert Errors.FailedCall();\\n        }\\n    }\\n\\n    /**\\n     * @dev Same as {xref-Address-functionCall-address-bytes-}[`functionCall`],\\n     * but performing a delegate call.\\n     */\\n    function functionDelegateCall(address target, bytes memory data) internal returns (bytes memory) {\\n        bool success = LowLevelCall.delegatecallNoReturn(target, data);\\n        if (success && (LowLevelCall.returnDataSize() > 0 || target.code.length > 0)) {\\n            return LowLevelCall.returnData();\\n        } else if (success) {\\n            revert AddressEmptyCode(target);\\n        } else if (LowLevelCall.returnDataSize() > 0) {\\n            LowLevelCall.bubbleRevert();\\n        } else {\\n            revert Errors.FailedCall();\\n        }\\n    }\\n\\n    /**\\n     * @dev Tool to verify that a low level call to smart-contract was successful, and reverts if the target\\n     * was not a contract or bubbling up the revert reason (falling back to {Errors.FailedCall}) in case\\n     * of an unsuccessful call.\\n     *\\n     * NOTE: This function is DEPRECATED and may be removed in the next major release.\\n     */\\n    function verifyCallResultFromTarget(\\n        address target,\\n        bool success,\\n        bytes memory returndata\\n    ) internal view returns (bytes memory) {\\n        // only check if target is a contract if the call was successful and the return data is empty\\n        // otherwise we already know that it was a contract\\n        if (success && (returndata.length > 0 || target.code.length > 0)) {\\n            return returndata;\\n        } else if (success) {\\n            revert AddressEmptyCode(target);\\n        } else if (returndata.length > 0) {\\n            LowLevelCall.bubbleRevert(returndata);\\n        } else {\\n            revert Errors.FailedCall();\\n        }\\n    }\\n\\n    /**\\n     * @dev Tool to verify that a low level call was successful, and reverts if it wasn't, either by bubbling the\\n     * revert reason or with a default {Errors.FailedCall} error.\\n     */\\n    function verifyCallResult(bool success, bytes memory returndata) internal pure returns (bytes memory) {\\n        if (success) {\\n            return returndata;\\n        } else if (returndata.length > 0) {\\n            LowLevelCall.bubbleRevert(returndata);\\n        } else {\\n            revert Errors.FailedCall();\\n        }\\n    }\\n}\\n\"},\"@openzeppelin/contracts/utils/Errors.sol\":{\"content\":\"// SPDX-License-Identifier: MIT\\n// OpenZeppelin Contracts (last updated v5.1.0) (utils/Errors.sol)\\n\\npragma solidity ^0.8.20;\\n\\n/**\\n * @dev Collection of common custom errors used in multiple contracts\\n *\\n * IMPORTANT: Backwards compatibility is not guaranteed in future versions of the library.\\n * It is recommended to avoid relying on the error API for critical functionality.\\n *\\n * _Available since v5.1._\\n */\\nlibrary Errors {\\n    /**\\n     * @dev The ETH balance of the account is not enough to perform the operation.\\n     */\\n    error InsufficientBalance(uint256 balance, uint256 needed);\\n\\n    /**\\n     * @dev A call to an address target failed. The target may have reverted.\\n     */\\n    error FailedCall();\\n\\n    /**\\n     * @dev The deployment failed.\\n     */\\n    error FailedDeployment();\\n\\n    /**\\n     * @dev A necessary precompile is missing.\\n     */\\n    error MissingPrecompile(address);\\n}\\n\"},\"@openzeppelin/contracts/utils/LowLevelCall.sol\":{\"content\":\"// SPDX-License-Identifier: MIT\\n// OpenZeppelin Contracts (last updated v5.6.0) (utils/LowLevelCall.sol)\\n\\npragma solidity ^0.8.20;\\n\\n/**\\n * @dev Library of low level call functions that implement different calling strategies to deal with the return data.\\n *\\n * WARNING: Using this library requires an advanced understanding of Solidity and how the EVM works. It is recommended\\n * to use the {Address} library instead.\\n */\\nlibrary LowLevelCall {\\n    /// @dev Performs a Solidity function call using a low level `call` and ignoring the return data.\\n    function callNoReturn(address target, bytes memory data) internal returns (bool success) {\\n        return callNoReturn(target, 0, data);\\n    }\\n\\n    /// @dev Same as {callNoReturn-address-bytes}, but allows specifying the value to be sent in the call.\\n    function callNoReturn(address target, uint256 value, bytes memory data) internal returns (bool success) {\\n        assembly (\\\"memory-safe\\\") {\\n            success := call(gas(), target, value, add(data, 0x20), mload(data), 0x00, 0x00)\\n        }\\n    }\\n\\n    /// @dev Performs a Solidity function call using a low level `call` and returns the first 64 bytes of the result\\n    /// in the scratch space of memory. Useful for functions that return a tuple with two single-word values.\\n    ///\\n    /// WARNING: Do not assume that the results are zero if `success` is false. Memory can be already allocated\\n    /// and this function doesn't zero it out.\\n    function callReturn64Bytes(\\n        address target,\\n        bytes memory data\\n    ) internal returns (bool success, bytes32 result1, bytes32 result2) {\\n        return callReturn64Bytes(target, 0, data);\\n    }\\n\\n    /// @dev Same as {callReturn64Bytes-address-bytes}, but allows specifying the value to be sent in the call.\\n    function callReturn64Bytes(\\n        address target,\\n        uint256 value,\\n        bytes memory data\\n    ) internal returns (bool success, bytes32 result1, bytes32 result2) {\\n        assembly (\\\"memory-safe\\\") {\\n            success := call(gas(), target, value, add(data, 0x20), mload(data), 0x00, 0x40)\\n            result1 := mload(0x00)\\n            result2 := mload(0x20)\\n        }\\n    }\\n\\n    /// @dev Performs a Solidity function call using a low level `staticcall` and ignoring the return data.\\n    function staticcallNoReturn(address target, bytes memory data) internal view returns (bool success) {\\n        assembly (\\\"memory-safe\\\") {\\n            success := staticcall(gas(), target, add(data, 0x20), mload(data), 0x00, 0x00)\\n        }\\n    }\\n\\n    /// @dev Performs a Solidity function call using a low level `staticcall` and returns the first 64 bytes of the result\\n    /// in the scratch space of memory. Useful for functions that return a tuple with two single-word values.\\n    ///\\n    /// WARNING: Do not assume that the results are zero if `success` is false. Memory can be already allocated\\n    /// and this function doesn't zero it out.\\n    function staticcallReturn64Bytes(\\n        address target,\\n        bytes memory data\\n    ) internal view returns (bool success, bytes32 result1, bytes32 result2) {\\n        assembly (\\\"memory-safe\\\") {\\n            success := staticcall(gas(), target, add(data, 0x20), mload(data), 0x00, 0x40)\\n            result1 := mload(0x00)\\n            result2 := mload(0x20)\\n        }\\n    }\\n\\n    /// @dev Performs a Solidity function call using a low level `delegatecall` and ignoring the return data.\\n    function delegatecallNoReturn(address target, bytes memory data) internal returns (bool success) {\\n        assembly (\\\"memory-safe\\\") {\\n            success := delegatecall(gas(), target, add(data, 0x20), mload(data), 0x00, 0x00)\\n        }\\n    }\\n\\n    /// @dev Performs a Solidity function call using a low level `delegatecall` and returns the first 64 bytes of the result\\n    /// in the scratch space of memory. Useful for functions that return a tuple with two single-word values.\\n    ///\\n    /// WARNING: Do not assume that the results are zero if `success` is false. Memory can be already allocated\\n    /// and this function doesn't zero it out.\\n    function delegatecallReturn64Bytes(\\n        address target,\\n        bytes memory data\\n    ) internal returns (bool success, bytes32 result1, bytes32 result2) {\\n        assembly (\\\"memory-safe\\\") {\\n            success := delegatecall(gas(), target, add(data, 0x20), mload(data), 0x00, 0x40)\\n            result1 := mload(0x00)\\n            result2 := mload(0x20)\\n        }\\n    }\\n\\n    /// @dev Returns the size of the return data buffer.\\n    function returnDataSize() internal pure returns (uint256 size) {\\n        assembly (\\\"memory-safe\\\") {\\n            size := returndatasize()\\n        }\\n    }\\n\\n    /// @dev Returns a buffer containing the return data from the last call.\\n    function returnData() internal pure returns (bytes memory result) {\\n        assembly (\\\"memory-safe\\\") {\\n            result := mload(0x40)\\n            mstore(result, returndatasize())\\n            returndatacopy(add(result, 0x20), 0x00, returndatasize())\\n            mstore(0x40, add(result, add(0x20, returndatasize())))\\n        }\\n    }\\n\\n    /// @dev Revert with the return data from the last call.\\n    function bubbleRevert() internal pure {\\n        assembly (\\\"memory-safe\\\") {\\n            let fmp := mload(0x40)\\n            returndatacopy(fmp, 0x00, returndatasize())\\n            revert(fmp, returndatasize())\\n        }\\n    }\\n\\n    function bubbleRevert(bytes memory returndata) internal pure {\\n        assembly (\\\"memory-safe\\\") {\\n            revert(add(returndata, 0x20), mload(returndata))\\n        }\\n    }\\n}\\n\"},\"@openzeppelin/contracts/utils/StorageSlot.sol\":{\"content\":\"// SPDX-License-Identifier: MIT\\n// OpenZeppelin Contracts (last updated v5.1.0) (utils/StorageSlot.sol)\\n// This file was procedurally generated from scripts/generate/templates/StorageSlot.js.\\n\\npragma solidity ^0.8.20;\\n\\n/**\\n * @dev Library for reading and writing primitive types to specific storage slots.\\n *\\n * Storage slots are often used to avoid storage conflict when dealing with upgradeable contracts.\\n * This library helps with reading and writing to such slots without the need for inline assembly.\\n *\\n * The functions in this library return Slot structs that contain a `value` member that can be used to read or write.\\n *\\n * Example usage to set ERC-1967 implementation slot:\\n * ```solidity\\n * contract ERC1967 {\\n *     // Define the slot. Alternatively, use the SlotDerivation library to derive the slot.\\n *     bytes32 internal constant _IMPLEMENTATION_SLOT = 0x360894a13ba1a3210667c828492db98dca3e2076cc3735a920a3ca505d382bbc;\\n *\\n *     function _getImplementation() internal view returns (address) {\\n *         return StorageSlot.getAddressSlot(_IMPLEMENTATION_SLOT).value;\\n *     }\\n *\\n *     function _setImplementation(address newImplementation) internal {\\n *         require(newImplementation.code.length > 0);\\n *         StorageSlot.getAddressSlot(_IMPLEMENTATION_SLOT).value = newImplementation;\\n *     }\\n * }\\n * ```\\n *\\n * TIP: Consider using this library along with {SlotDerivation}.\\n */\\nlibrary StorageSlot {\\n    struct AddressSlot {\\n        address value;\\n    }\\n\\n    struct BooleanSlot {\\n        bool value;\\n    }\\n\\n    struct Bytes32Slot {\\n        bytes32 value;\\n    }\\n\\n    struct Uint256Slot {\\n        uint256 value;\\n    }\\n\\n    struct Int256Slot {\\n        int256 value;\\n    }\\n\\n    struct StringSlot {\\n        string value;\\n    }\\n\\n    struct BytesSlot {\\n        bytes value;\\n    }\\n\\n    /**\\n     * @dev Returns an `AddressSlot` with member `value` located at `slot`.\\n     */\\n    function getAddressSlot(bytes32 slot) internal pure returns (AddressSlot storage r) {\\n        assembly (\\\"memory-safe\\\") {\\n            r.slot := slot\\n        }\\n    }\\n\\n    /**\\n     * @dev Returns a `BooleanSlot` with member `value` located at `slot`.\\n     */\\n    function getBooleanSlot(bytes32 slot) internal pure returns (BooleanSlot storage r) {\\n        assembly (\\\"memory-safe\\\") {\\n            r.slot := slot\\n        }\\n    }\\n\\n    /**\\n     * @dev Returns a `Bytes32Slot` with member `value` located at `slot`.\\n     */\\n    function getBytes32Slot(bytes32 slot) internal pure returns (Bytes32Slot storage r) {\\n        assembly (\\\"memory-safe\\\") {\\n            r.slot := slot\\n        }\\n    }\\n\\n    /**\\n     * @dev Returns a `Uint256Slot` with member `value` located at `slot`.\\n     */\\n    function getUint256Slot(bytes32 slot) internal pure returns (Uint256Slot storage r) {\\n        assembly (\\\"memory-safe\\\") {\\n            r.slot := slot\\n        }\\n    }\\n\\n    /**\\n     * @dev Returns a `Int256Slot` with member `value` located at `slot`.\\n     */\\n    function getInt256Slot(bytes32 slot) internal pure returns (Int256Slot storage r) {\\n        assembly (\\\"memory-safe\\\") {\\n            r.slot := slot\\n        }\\n    }\\n\\n    /**\\n     * @dev Returns a `StringSlot` with member `value` located at `slot`.\\n     */\\n    function getStringSlot(bytes32 slot) internal pure returns (StringSlot storage r) {\\n        assembly (\\\"memory-safe\\\") {\\n            r.slot := slot\\n        }\\n    }\\n\\n    /**\\n     * @dev Returns an `StringSlot` representation of the string storage pointer `store`.\\n     */\\n    function getStringSlot(string storage store) internal pure returns (StringSlot storage r) {\\n        assembly (\\\"memory-safe\\\") {\\n            r.slot := store.slot\\n        }\\n    }\\n\\n    /**\\n     * @dev Returns a `BytesSlot` with member `value` located at `slot`.\\n     */\\n    function getBytesSlot(bytes32 slot) internal pure returns (BytesSlot storage r) {\\n        assembly (\\\"memory-safe\\\") {\\n            r.slot := slot\\n        }\\n    }\\n\\n    /**\\n     * @dev Returns an `BytesSlot` representation of the bytes storage pointer `store`.\\n     */\\n    function getBytesSlot(bytes storage store) internal pure returns (BytesSlot storage r) {\\n        assembly (\\\"memory-safe\\\") {\\n            r.slot := store.slot\\n        }\\n    }\\n}\\n\"}},\"settings\":{\"optimizer\":{\"enabled\":false,\"runs\":200},\"outputSelection\":{\"*\":{\"\":[\"ast\"],\"*\":[\"abi\",\"metadata\",\"devdoc\",\"userdoc\",\"storageLayout\",\"evm.legacyAssembly\",\"evm.bytecode\",\"evm.deployedBytecode\",\"evm.methodIdentifiers\",\"evm.gasEstimates\",\"evm.assembly\"]}},\"remappings\":[]}}",
	"name": "RinanzeV2",
	"bytecode": {
		"linkReferences": {},
		"object": "60a06040523073ffffffffffffffffffffffffffffffffffffffff1660809073ffffffffffffffffffffffffffffffffffffffff16815250348015610042575f5ffd5b5061005161005660201b60201c565b6101d1565b5f61006561015460201b60201c565b9050805f0160089054906101000a900460ff16156100af576040517ff92ee8a900000000000000000000000000000000000000000000000000000000815260040160405180910390fd5b67ffffffffffffffff8016815f015f9054906101000a900467ffffffffffffffff1667ffffffffffffffff16146101515767ffffffffffffffff815f015f6101000a81548167ffffffffffffffff021916908367ffffffffffffffff1602179055507fc7f505b2f371ae2175ee4913f4499e1f2633a7b5936321eed1cdaeb6115181d267ffffffffffffffff60405161014891906101b8565b60405180910390a15b50565b5f5f61016461016d60201b60201c565b90508091505090565b5f7ff0c57e16840df040f15088dc2f81fe391c3923bec73e23a9662efc9c229c6a005f1b905090565b5f67ffffffffffffffff82169050919050565b6101b281610196565b82525050565b5f6020820190506101cb5f8301846101a9565b92915050565b608051613f916101f75f395f8181611fc80152818161201d01526121d70152613f915ff3fe60806040526004361061023a575f3560e01c806370a082311161012d578063ad3cb1cc116100aa578063dd62ed3e1161006e578063dd62ed3e146107f4578063e30c397814610830578063e63ab1e91461085a578063f0a56fc814610884578063f2fde38b146108ae5761023a565b8063ad3cb1cc14610728578063b84c824614610752578063c47f00271461077a578063d5391393146107a2578063d547741f146107cc5761023a565b806391d14854116100f157806391d148541461063457806395d89b41146106705780639f0011691461069a578063a217fddf146106c2578063a9059cbb146106ec5761023a565b806370a082311461058c578063715018a6146105c857806379ba5097146105de5780638456cb59146105f45780638da5cb5b1461060a5761023a565b8063313ce567116101bb5780634f1ef2861161017f5780634f1ef286146104de57806352d1902d146104fa5780635c975abb146105245780635cd8a76b1461054e57806360f588b7146105645761023a565b8063313ce5671461042657806336568abe146104505780633f4ba83a1461047857806340c10f191461048e5780634cd88b76146104b65761023a565b806323b872dd1161020257806323b872dd14610334578063248a9ca314610370578063252400da146103ac5780632e5b15ce146103d45780632f2ff15d146103fe5761023a565b806301ffc9a71461023e57806306a85f0f1461027a57806306fdde03146102a4578063095ea7b3146102ce57806318160ddd1461030a575b5f5ffd5b348015610249575f5ffd5b50610264600480360381019061025f91906130d3565b6108d6565b6040516102719190613118565b60405180910390f35b348015610285575f5ffd5b5061028e61094f565b60405161029b9190613149565b60405180910390f35b3480156102af575f5ffd5b506102b8610973565b6040516102c591906131d2565b60405180910390f35b3480156102d9575f5ffd5b506102f460048036038101906102ef919061327f565b610a02565b6040516103019190613118565b60405180910390f35b348015610315575f5ffd5b5061031e610a24565b60405161032b91906132cc565b60405180910390f35b34801561033f575f5ffd5b5061035a600480360381019061035591906132e5565b610a3b565b6040516103679190613118565b60405180910390f35b34801561037b575f5ffd5b506103966004803603810190610391919061335f565b610a69565b6040516103a39190613149565b60405180910390f35b3480156103b7575f5ffd5b506103d260048036038101906103cd91906133b4565b610a93565b005b3480156103df575f5ffd5b506103e8610af3565b6040516103f59190613118565b60405180910390f35b348015610409575f5ffd5b50610424600480360381019061041f91906133df565b610b05565b005b348015610431575f5ffd5b5061043a610b27565b6040516104479190613438565b60405180910390f35b34801561045b575f5ffd5b50610476600480360381019061047191906133df565b610b2f565b005b348015610483575f5ffd5b5061048c610baa565b005b348015610499575f5ffd5b506104b460048036038101906104af919061327f565b610bdf565b005b3480156104c1575f5ffd5b506104dc60048036038101906104d791906134b2565b610c66565b005b6104f860048036038101906104f39190613658565b610f43565b005b348015610505575f5ffd5b5061050e610f62565b60405161051b9190613149565b60405180910390f35b34801561052f575f5ffd5b50610538610f93565b6040516105459190613118565b60405180910390f35b348015610559575f5ffd5b50610562610fb5565b005b34801561056f575f5ffd5b5061058a600480360381019061058591906136b2565b6110f3565b005b348015610597575f5ffd5b506105b260048036038101906105ad91906136b2565b611241565b6040516105bf91906132cc565b60405180910390f35b3480156105d3575f5ffd5b506105dc611294565b005b3480156105e9575f5ffd5b506105f26112a7565b005b3480156105ff575f5ffd5b50610608611335565b005b348015610615575f5ffd5b5061061e61136a565b60405161062b91906136ec565b60405180910390f35b34801561063f575f5ffd5b5061065a600480360381019061065591906133df565b61139f565b6040516106679190613118565b60405180910390f35b34801561067b575f5ffd5b50610684611410565b60405161069191906131d2565b60405180910390f35b3480156106a5575f5ffd5b506106c060048036038101906106bb91906136b2565b6114a0565b005b3480156106cd575f5ffd5b506106d66115f0565b6040516106e39190613149565b60405180910390f35b3480156106f7575f5ffd5b50610712600480360381019061070d919061327f565b6115f6565b60405161071f9190613118565b60405180910390f35b348015610733575f5ffd5b5061073c611618565b60405161074991906131d2565b60405180910390f35b34801561075d575f5ffd5b5061077860048036038101906107739190613705565b611651565b005b348015610785575f5ffd5b506107a0600480360381019061079b9190613705565b611737565b005b3480156107ad575f5ffd5b506107b661181b565b6040516107c39190613149565b60405180910390f35b3480156107d7575f5ffd5b506107f260048036038101906107ed91906133df565b61183f565b005b3480156107ff575f5ffd5b5061081a60048036038101906108159190613750565b611861565b60405161082791906132cc565b60405180910390f35b34801561083b575f5ffd5b506108446118f1565b60405161085191906136ec565b60405180910390f35b348015610865575f5ffd5b5061086e611926565b60405161087b9190613149565b60405180910390f35b34801561088f575f5ffd5b5061089861194a565b6040516108a59190613149565b60405180910390f35b3480156108b9575f5ffd5b506108d460048036038101906108cf91906136b2565b61196e565b005b5f7f7965db0b000000000000000000000000000000000000000000000000000000007bffffffffffffffffffffffffffffffffffffffffffffffffffffffff1916827bffffffffffffffffffffffffffffffffffffffffffffffffffffffff19161480610948575061094782611a27565b5b9050919050565b7f92de27771f92d6942691d73358b3a4673e4880de8356f8f2cf452be87e02d36381565b60605f8054610981906137bb565b80601f01602080910402602001604051908101604052809291908181526020018280546109ad906137bb565b80156109f85780601f106109cf576101008083540402835291602001916109f8565b820191905f5260205f20905b8154815290600101906020018083116109db57829003601f168201915b5050505050905090565b5f5f610a0c611a90565b9050610a19818585611a97565b600191505092915050565b5f5f610a2e611aa9565b9050806002015491505090565b5f5f610a45611a90565b9050610a52858285611ad0565b610a5d858585611b63565b60019150509392505050565b5f5f610a73611c53565b9050805f015f8481526020019081526020015f2060010154915050919050565b5f5f1b610a9f81611c7a565b8160035f6101000a81548160ff0219169083151502179055507f24b29ee845e0e3f55662a5ccbbd026629d29229de2a98b6c12f968d8d0c3e24e82604051610ae79190613118565b60405180910390a15050565b60035f9054906101000a900460ff1681565b610b0e82610a69565b610b1781611c7a565b610b218383611c8e565b50505050565b5f6012905090565b610b37611a90565b73ffffffffffffffffffffffffffffffffffffffff168173ffffffffffffffffffffffffffffffffffffffff1614610b9b576040517f6697b23200000000000000000000000000000000000000000000000000000000815260040160405180910390fd5b610ba58282611d86565b505050565b7f65d7a28e3265b37a6474929f336521b332c1681b933f6cb9f3376673440d862a610bd481611c7a565b610bdc611e7e565b50565b7f9f2df0fed2c77648de5860a4cc508cd0818c85b8b8a1ab4ceeef8d981c8956a6610c0981611c7a565b610c138383611eec565b8273ffffffffffffffffffffffffffffffffffffffff167f30385c845b448a36257a6a1716e6ad2e1bc2cbe333cde1e69fe849ad6511adfe83604051610c5991906132cc565b60405180910390a2505050565b5f610c6f611f6b565b90505f815f0160089054906101000a900460ff161590505f825f015f9054906101000a900467ffffffffffffffff1690505f5f8267ffffffffffffffff16148015610cb75750825b90505f60018367ffffffffffffffff16148015610cea57505f3073ffffffffffffffffffffffffffffffffffffffff163b145b905081158015610cf8575080155b15610d2f576040517ff92ee8a900000000000000000000000000000000000000000000000000000000815260040160405180910390fd5b6001855f015f6101000a81548167ffffffffffffffff021916908367ffffffffffffffff1602179055508315610d7c576001855f0160086101000a81548160ff0219169083151502179055505b610e0c89898080601f0160208091040260200160405190810160405280939291908181526020018383808284375f81840152601f19601f8201169050808301925050505050505088888080601f0160208091040260200160405190810160405280939291908181526020018383808284375f81840152601f19601f82011690508083019250505050505050611f7e565b610e14611f94565b610e1d33611f9e565b610e25611fb2565b610e2d611fbc565b88885f9182610e3d9291906139a6565b50868660019182610e4f9291906139a6565b50610e5c5f5f1b33611c8e565b50610e877f9f2df0fed2c77648de5860a4cc508cd0818c85b8b8a1ab4ceeef8d981c8956a633611c8e565b50610eb27f92de27771f92d6942691d73358b3a4673e4880de8356f8f2cf452be87e02d36333611c8e565b50610edd7f65d7a28e3265b37a6474929f336521b332c1681b933f6cb9f3376673440d862a33611c8e565b508315610f38575f855f0160086101000a81548160ff0219169083151502179055507fc7f505b2f371ae2175ee4913f4499e1f2633a7b5936321eed1cdaeb6115181d26001604051610f2f9190613abf565b60405180910390a15b505050505050505050565b610f4b611fc6565b610f54826120ac565b610f5e82826120b7565b5050565b5f610f6b6121d5565b7f360894a13ba1a3210667c828492db98dca3e2076cc3735a920a3ca505d382bbc5f1b905090565b5f5f610f9d61225c565b9050805f015f9054906101000a900460ff1691505090565b60025f610fc0611f6b565b9050805f0160089054906101000a900460ff168061100857508167ffffffffffffffff16815f015f9054906101000a900467ffffffffffffffff1667ffffffffffffffff1610155b1561103f576040517ff92ee8a900000000000000000000000000000000000000000000000000000000815260040160405180910390fd5b81815f015f6101000a81548167ffffffffffffffff021916908367ffffffffffffffff1602179055506001815f0160086101000a81548160ff0219169083151502179055505f60035f6101000a81548160ff0219169083151502179055505f815f0160086101000a81548160ff0219169083151502179055507fc7f505b2f371ae2175ee4913f4499e1f2633a7b5936321eed1cdaeb6115181d2826040516110e79190613ae7565b60405180910390a15050565b7f92de27771f92d6942691d73358b3a4673e4880de8356f8f2cf452be87e02d36361111d81611c7a565b60025f8373ffffffffffffffffffffffffffffffffffffffff1673ffffffffffffffffffffffffffffffffffffffff1681526020019081526020015f205f9054906101000a900460ff166111a6576040517f08c379a000000000000000000000000000000000000000000000000000000000815260040161119d90613b4a565b60405180910390fd5b5f60025f8473ffffffffffffffffffffffffffffffffffffffff1673ffffffffffffffffffffffffffffffffffffffff1681526020019081526020015f205f6101000a81548160ff0219169083151502179055508173ffffffffffffffffffffffffffffffffffffffff167fd247131fabb99dc3ba793524f53f05a77eeef38f12b30119655ee340810b121060405160405180910390a25050565b5f5f61124b611aa9565b9050805f015f8473ffffffffffffffffffffffffffffffffffffffff1673ffffffffffffffffffffffffffffffffffffffff1681526020019081526020015f2054915050919050565b61129c612283565b6112a55f61230a565b565b5f6112b0611a90565b90508073ffffffffffffffffffffffffffffffffffffffff166112d16118f1565b73ffffffffffffffffffffffffffffffffffffffff161461132957806040517f118cdaa700000000000000000000000000000000000000000000000000000000815260040161132091906136ec565b60405180910390fd5b6113328161230a565b50565b7f65d7a28e3265b37a6474929f336521b332c1681b933f6cb9f3376673440d862a61135f81611c7a565b611367612347565b50565b5f5f6113746123b6565b9050805f015f9054906101000a900473ffffffffffffffffffffffffffffffffffffffff1691505090565b5f5f6113a9611c53565b9050805f015f8581526020019081526020015f205f015f8473ffffffffffffffffffffffffffffffffffffffff1673ffffffffffffffffffffffffffffffffffffffff1681526020019081526020015f205f9054906101000a900460ff1691505092915050565b60606001805461141f906137bb565b80601f016020809104026020016040519081016040528092919081815260200182805461144b906137bb565b80156114965780601f1061146d57610100808354040283529160200191611496565b820191905f5260205f20905b81548152906001019060200180831161147957829003601f168201915b5050505050905090565b7f92de27771f92d6942691d73358b3a4673e4880de8356f8f2cf452be87e02d3636114ca81611c7a565b60025f8373ffffffffffffffffffffffffffffffffffffffff1673ffffffffffffffffffffffffffffffffffffffff1681526020019081526020015f205f9054906101000a900460ff1615611554576040517f08c379a000000000000000000000000000000000000000000000000000000000815260040161154b90613bb2565b60405180910390fd5b600160025f8473ffffffffffffffffffffffffffffffffffffffff1673ffffffffffffffffffffffffffffffffffffffff1681526020019081526020015f205f6101000a81548160ff0219169083151502179055508173ffffffffffffffffffffffffffffffffffffffff167fc9710d20bdbf99ca92a03644a5a8f85ea6badb387ff0abca08eebdfbff50b77f60405160405180910390a25050565b5f5f1b81565b5f5f611600611a90565b905061160d818585611b63565b600191505092915050565b6040518060400160405280600581526020017f352e302e3000000000000000000000000000000000000000000000000000000081525081565b611659612283565b5f60018054611667906137bb565b80601f0160208091040260200160405190810160405280929190818152602001828054611693906137bb565b80156116de5780601f106116b5576101008083540402835291602001916116de565b820191905f5260205f20905b8154815290600101906020018083116116c157829003601f168201915b505050505090508282600191826116f69291906139a6565b507fd7ad744cc76ebad190995130eec8ba506b3605612d23b5b9cef8e27f14d138b481848460405161172a93929190613bfc565b60405180910390a1505050565b61173f612283565b5f5f805461174c906137bb565b80601f0160208091040260200160405190810160405280929190818152602001828054611778906137bb565b80156117c35780601f1061179a576101008083540402835291602001916117c3565b820191905f5260205f20905b8154815290600101906020018083116117a657829003601f168201915b5050505050905082825f91826117da9291906139a6565b507f6c20b91d1723b78732eba64ff11ebd7966a6e4af568a00fa4f6b72c20f58b02a81848460405161180e93929190613bfc565b60405180910390a1505050565b7f9f2df0fed2c77648de5860a4cc508cd0818c85b8b8a1ab4ceeef8d981c8956a681565b61184882610a69565b61185181611c7a565b61185b8383611d86565b50505050565b5f5f61186b611aa9565b9050806001015f8573ffffffffffffffffffffffffffffffffffffffff1673ffffffffffffffffffffffffffffffffffffffff1681526020019081526020015f205f8473ffffffffffffffffffffffffffffffffffffffff1673ffffffffffffffffffffffffffffffffffffffff1681526020019081526020015f205491505092915050565b5f5f6118fb6123dd565b9050805f015f9054906101000a900473ffffffffffffffffffffffffffffffffffffffff1691505090565b7f65d7a28e3265b37a6474929f336521b332c1681b933f6cb9f3376673440d862a81565b7ffacaf2747a7486cf5730e9265973fb54447d3ace6e7e4711f6360826b073194181565b611976612283565b5f61197f6123dd565b905081815f015f6101000a81548173ffffffffffffffffffffffffffffffffffffffff021916908373ffffffffffffffffffffffffffffffffffffffff1602179055508173ffffffffffffffffffffffffffffffffffffffff166119e161136a565b73ffffffffffffffffffffffffffffffffffffffff167f38d16b8cac22d99fc7c124b9cd0de2d3fa1faef420bfe791d8c362d765e2270060405160405180910390a35050565b5f7f01ffc9a7000000000000000000000000000000000000000000000000000000007bffffffffffffffffffffffffffffffffffffffffffffffffffffffff1916827bffffffffffffffffffffffffffffffffffffffffffffffffffffffff1916149050919050565b5f33905090565b611aa48383836001612404565b505050565b5f7f52c63247e1f47db19d5ce0460030c497f067ca4cebf71ba98eeadabe20bace00905090565b5f611adb8484611861565b90507fffffffffffffffffffffffffffffffffffffffffffffffffffffffffffffffff811015611b5d5781811015611b4e578281836040517ffb8f41b2000000000000000000000000000000000000000000000000000000008152600401611b4593929190613c33565b60405180910390fd5b611b5c84848484035f612404565b5b50505050565b5f73ffffffffffffffffffffffffffffffffffffffff168373ffffffffffffffffffffffffffffffffffffffff1603611bd3575f6040517f96c6fd1e000000000000000000000000000000000000000000000000000000008152600401611bca91906136ec565b60405180910390fd5b5f73ffffffffffffffffffffffffffffffffffffffff168273ffffffffffffffffffffffffffffffffffffffff1603611c43575f6040517fec442f05000000000000000000000000000000000000000000000000000000008152600401611c3a91906136ec565b60405180910390fd5b611c4e8383836125e1565b505050565b5f7f02dd7bc7dec4dceedda775e58dd541e08a116c6c53815c0bd028192f7b626800905090565b611c8b81611c86611a90565b612835565b50565b5f5f611c98611c53565b9050611ca4848461139f565b611d7b576001815f015f8681526020019081526020015f205f015f8573ffffffffffffffffffffffffffffffffffffffff1673ffffffffffffffffffffffffffffffffffffffff1681526020019081526020015f205f6101000a81548160ff021916908315150217905550611d17611a90565b73ffffffffffffffffffffffffffffffffffffffff168373ffffffffffffffffffffffffffffffffffffffff16857f2f8788117e7eff1d82e926ec794901d17c78024a50270940304540a733656f0d60405160405180910390a46001915050611d80565b5f9150505b92915050565b5f5f611d90611c53565b9050611d9c848461139f565b15611e73575f815f015f8681526020019081526020015f205f015f8573ffffffffffffffffffffffffffffffffffffffff1673ffffffffffffffffffffffffffffffffffffffff1681526020019081526020015f205f6101000a81548160ff021916908315150217905550611e0f611a90565b73ffffffffffffffffffffffffffffffffffffffff168373ffffffffffffffffffffffffffffffffffffffff16857ff6391f5c32d9c69d2a47ea670b442974b53935d1edc7fd64eb21e047a839171b60405160405180910390a46001915050611e78565b5f9150505b92915050565b611e86612886565b5f611e8f61225c565b90505f815f015f6101000a81548160ff0219169083151502179055507f5db9ee0a495bf2e6ff9c91a7834c1ba4fdd244a5e8aa4e537bd38aeae4b073aa611ed4611a90565b604051611ee191906136ec565b60405180910390a150565b5f73ffffffffffffffffffffffffffffffffffffffff168273ffffffffffffffffffffffffffffffffffffffff1603611f5c575f6040517fec442f05000000000000000000000000000000000000000000000000000000008152600401611f5391906136ec565b60405180910390fd5b611f675f83836125e1565b5050565b5f5f611f756128c6565b90508091505090565b611f866128ef565b611f90828261292f565b5050565b611f9c6128ef565b565b611fa66128ef565b611faf8161296b565b50565b611fba6128ef565b565b611fc46128ef565b565b7f000000000000000000000000000000000000000000000000000000000000000073ffffffffffffffffffffffffffffffffffffffff163073ffffffffffffffffffffffffffffffffffffffff16148061207357507f000000000000000000000000000000000000000000000000000000000000000073ffffffffffffffffffffffffffffffffffffffff1661205a6129ef565b73ffffffffffffffffffffffffffffffffffffffff1614155b156120aa576040517fe07c8dba00000000000000000000000000000000000000000000000000000000815260040160405180910390fd5b565b6120b4612283565b50565b8173ffffffffffffffffffffffffffffffffffffffff166352d1902d6040518163ffffffff1660e01b8152600401602060405180830381865afa92505050801561211f57506040513d601f19601f8201168201806040525081019061211c9190613c7c565b60015b61216057816040517f4c9c8ce300000000000000000000000000000000000000000000000000000000815260040161215791906136ec565b60405180910390fd5b7f360894a13ba1a3210667c828492db98dca3e2076cc3735a920a3ca505d382bbc5f1b81146121c657806040517faa1d49a40000000000000000000000000000000000000000000000000000000081526004016121bd9190613149565b60405180910390fd5b6121d08383612a42565b505050565b7f000000000000000000000000000000000000000000000000000000000000000073ffffffffffffffffffffffffffffffffffffffff163073ffffffffffffffffffffffffffffffffffffffff161461225a576040517fe07c8dba00000000000000000000000000000000000000000000000000000000815260040160405180910390fd5b565b5f7fcd5ed15c6e187e77e9aee88184c21f4f2182ab5827cb3b7e07fbedcd63f03300905090565b61228b611a90565b73ffffffffffffffffffffffffffffffffffffffff166122a961136a565b73ffffffffffffffffffffffffffffffffffffffff1614612308576122cc611a90565b6040517f118cdaa70000000000000000000000000000000000000000000000000000000081526004016122ff91906136ec565b60405180910390fd5b565b5f6123136123dd565b9050805f015f6101000a81549073ffffffffffffffffffffffffffffffffffffffff021916905561234382612ab4565b5050565b61234f612b85565b5f61235861225c565b90506001815f015f6101000a81548160ff0219169083151502179055507f62e78cea01bee320cd4e420270b5ea74000d11b0c9f74754ebdbfc544b05a25861239e611a90565b6040516123ab91906136ec565b60405180910390a150565b5f7f9016d09d72d40fdae2fd8ceac6b6234c7706214fd39c1cd1e609a0528c199300905090565b5f7f237e158222e3e6968b72b9db0d8043aacf074ad9f650f0d1606b4d82ee432c00905090565b5f61240d611aa9565b90505f73ffffffffffffffffffffffffffffffffffffffff168573ffffffffffffffffffffffffffffffffffffffff160361247f575f6040517fe602df0500000000000000000000000000000000000000000000000000000000815260040161247691906136ec565b60405180910390fd5b5f73ffffffffffffffffffffffffffffffffffffffff168473ffffffffffffffffffffffffffffffffffffffff16036124ef575f6040517f94280d620000000000000000000000000000000000000000000000000000000081526004016124e691906136ec565b60405180910390fd5b82816001015f8773ffffffffffffffffffffffffffffffffffffffff1673ffffffffffffffffffffffffffffffffffffffff1681526020019081526020015f205f8673ffffffffffffffffffffffffffffffffffffffff1673ffffffffffffffffffffffffffffffffffffffff1681526020019081526020015f208190555081156125da578373ffffffffffffffffffffffffffffffffffffffff168573ffffffffffffffffffffffffffffffffffffffff167f8c5be1e5ebec7d5bd14f71427d1e84f3dd0314c0f7b2291e5b200ac8c7c3b925856040516125d191906132cc565b60405180910390a35b5050505050565b60025f8473ffffffffffffffffffffffffffffffffffffffff1673ffffffffffffffffffffffffffffffffffffffff1681526020019081526020015f205f9054906101000a900460ff1615801561267f575060025f8373ffffffffffffffffffffffffffffffffffffffff1673ffffffffffffffffffffffffffffffffffffffff1681526020019081526020015f205f9054906101000a900460ff16155b6126be576040517f08c379a00000000000000000000000000000000000000000000000000000000081526004016126b590613cf1565b60405180910390fd5b60035f9054906101000a900460ff16801561270557505f73ffffffffffffffffffffffffffffffffffffffff168373ffffffffffffffffffffffffffffffffffffffff1614155b801561273d57505f73ffffffffffffffffffffffffffffffffffffffff168273ffffffffffffffffffffffffffffffffffffffff1614155b156128255761276c7ffacaf2747a7486cf5730e9265973fb54447d3ace6e7e4711f6360826b07319418461139f565b6127ab576040517f08c379a00000000000000000000000000000000000000000000000000000000081526004016127a290613d59565b60405180910390fd5b6127d57ffacaf2747a7486cf5730e9265973fb54447d3ace6e7e4711f6360826b07319418361139f565b612824575f6127e383611241565b14612823576040517f08c379a000000000000000000000000000000000000000000000000000000000815260040161281a90613de7565b60405180910390fd5b5b5b612830838383612bc6565b505050565b61283f828261139f565b6128825780826040517fe2517d3f000000000000000000000000000000000000000000000000000000008152600401612879929190613e05565b60405180910390fd5b5050565b61288e610f93565b6128c4576040517f8dfc202b00000000000000000000000000000000000000000000000000000000815260040160405180910390fd5b565b5f7ff0c57e16840df040f15088dc2f81fe391c3923bec73e23a9662efc9c229c6a005f1b905090565b6128f7612bde565b61292d576040517fd7e6bcf800000000000000000000000000000000000000000000000000000000815260040160405180910390fd5b565b6129376128ef565b5f612940611aa9565b9050828160030190816129539190613e2c565b50818160040190816129659190613e2c565b50505050565b6129736128ef565b5f73ffffffffffffffffffffffffffffffffffffffff168173ffffffffffffffffffffffffffffffffffffffff16036129e3575f6040517f1e4fbdf70000000000000000000000000000000000000000000000000000000081526004016129da91906136ec565b60405180910390fd5b6129ec8161230a565b50565b5f612a1b7f360894a13ba1a3210667c828492db98dca3e2076cc3735a920a3ca505d382bbc5f1b612bfc565b5f015f9054906101000a900473ffffffffffffffffffffffffffffffffffffffff16905090565b612a4b82612c05565b8173ffffffffffffffffffffffffffffffffffffffff167fbc7cd75a20ee27fd9adebab32041f755214dbc6bffa90cc0225b39da2e5c2d3b60405160405180910390a25f81511115612aa757612aa18282612cce565b50612ab0565b612aaf612dbf565b5b5050565b5f612abd6123b6565b90505f815f015f9054906101000a900473ffffffffffffffffffffffffffffffffffffffff16905082825f015f6101000a81548173ffffffffffffffffffffffffffffffffffffffff021916908373ffffffffffffffffffffffffffffffffffffffff1602179055508273ffffffffffffffffffffffffffffffffffffffff168173ffffffffffffffffffffffffffffffffffffffff167f8be0079c531659141344cd1fd0a4f28419497f9722a3daafe3b4186f6b6457e060405160405180910390a3505050565b612b8d610f93565b15612bc4576040517fd93c066500000000000000000000000000000000000000000000000000000000815260040160405180910390fd5b565b612bce612b85565b612bd9838383612dfb565b505050565b5f612be7611f6b565b5f0160089054906101000a900460ff16905090565b5f819050919050565b5f8173ffffffffffffffffffffffffffffffffffffffff163b03612c6057806040517f4c9c8ce3000000000000000000000000000000000000000000000000000000008152600401612c5791906136ec565b60405180910390fd5b80612c8c7f360894a13ba1a3210667c828492db98dca3e2076cc3735a920a3ca505d382bbc5f1b612bfc565b5f015f6101000a81548173ffffffffffffffffffffffffffffffffffffffff021916908373ffffffffffffffffffffffffffffffffffffffff16021790555050565b60605f612cdb848461302a565b9050808015612d1157505f612cee61303e565b1180612d1057505f8473ffffffffffffffffffffffffffffffffffffffff163b115b5b15612d2657612d1e613045565b915050612db9565b8015612d6957836040517f9996b315000000000000000000000000000000000000000000000000000000008152600401612d6091906136ec565b60405180910390fd5b5f612d7261303e565b1115612d8557612d80613062565b612db7565b6040517fd6bda27500000000000000000000000000000000000000000000000000000000815260040160405180910390fd5b505b92915050565b5f341115612df9576040517fb398979f00000000000000000000000000000000000000000000000000000000815260040160405180910390fd5b565b5f612e04611aa9565b90505f73ffffffffffffffffffffffffffffffffffffffff168473ffffffffffffffffffffffffffffffffffffffff1603612e585781816002015f828254612e4c9190613f28565b92505081905550612f2a565b5f815f015f8673ffffffffffffffffffffffffffffffffffffffff1673ffffffffffffffffffffffffffffffffffffffff1681526020019081526020015f2054905082811015612ee3578481846040517fe450d38c000000000000000000000000000000000000000000000000000000008152600401612eda93929190613c33565b60405180910390fd5b828103825f015f8773ffffffffffffffffffffffffffffffffffffffff1673ffffffffffffffffffffffffffffffffffffffff1681526020019081526020015f2081905550505b5f73ffffffffffffffffffffffffffffffffffffffff168373ffffffffffffffffffffffffffffffffffffffff1603612f735781816002015f8282540392505081905550612fbf565b81815f015f8573ffffffffffffffffffffffffffffffffffffffff1673ffffffffffffffffffffffffffffffffffffffff1681526020019081526020015f205f82825401925050819055505b8273ffffffffffffffffffffffffffffffffffffffff168473ffffffffffffffffffffffffffffffffffffffff167fddf252ad1be2c89b69c2b068fc378daa952ba7f163c4a11628f55a4df523b3ef8460405161301c91906132cc565b60405180910390a350505050565b5f5f5f835160208501865af4905092915050565b5f3d905090565b606060405190503d81523d5f602083013e3d602001810160405290565b6040513d5f823e3d81fd5b5f604051905090565b5f5ffd5b5f5ffd5b5f7fffffffff0000000000000000000000000000000000000000000000000000000082169050919050565b6130b28161307e565b81146130bc575f5ffd5b50565b5f813590506130cd816130a9565b92915050565b5f602082840312156130e8576130e7613076565b5b5f6130f5848285016130bf565b91505092915050565b5f8115159050919050565b613112816130fe565b82525050565b5f60208201905061312b5f830184613109565b92915050565b5f819050919050565b61314381613131565b82525050565b5f60208201905061315c5f83018461313a565b92915050565b5f81519050919050565b5f82825260208201905092915050565b8281835e5f83830152505050565b5f601f19601f8301169050919050565b5f6131a482613162565b6131ae818561316c565b93506131be81856020860161317c565b6131c78161318a565b840191505092915050565b5f6020820190508181035f8301526131ea818461319a565b905092915050565b5f73ffffffffffffffffffffffffffffffffffffffff82169050919050565b5f61321b826131f2565b9050919050565b61322b81613211565b8114613235575f5ffd5b50565b5f8135905061324681613222565b92915050565b5f819050919050565b61325e8161324c565b8114613268575f5ffd5b50565b5f8135905061327981613255565b92915050565b5f5f6040838503121561329557613294613076565b5b5f6132a285828601613238565b92505060206132b38582860161326b565b9150509250929050565b6132c68161324c565b82525050565b5f6020820190506132df5f8301846132bd565b92915050565b5f5f5f606084860312156132fc576132fb613076565b5b5f61330986828701613238565b935050602061331a86828701613238565b925050604061332b8682870161326b565b9150509250925092565b61333e81613131565b8114613348575f5ffd5b50565b5f8135905061335981613335565b92915050565b5f6020828403121561337457613373613076565b5b5f6133818482850161334b565b91505092915050565b613393816130fe565b811461339d575f5ffd5b50565b5f813590506133ae8161338a565b92915050565b5f602082840312156133c9576133c8613076565b5b5f6133d6848285016133a0565b91505092915050565b5f5f604083850312156133f5576133f4613076565b5b5f6134028582860161334b565b925050602061341385828601613238565b9150509250929050565b5f60ff82169050919050565b6134328161341d565b82525050565b5f60208201905061344b5f830184613429565b92915050565b5f5ffd5b5f5ffd5b5f5ffd5b5f5f83601f84011261347257613471613451565b5b8235905067ffffffffffffffff81111561348f5761348e613455565b5b6020830191508360018202830111156134ab576134aa613459565b5b9250929050565b5f5f5f5f604085870312156134ca576134c9613076565b5b5f85013567ffffffffffffffff8111156134e7576134e661307a565b5b6134f38782880161345d565b9450945050602085013567ffffffffffffffff8111156135165761351561307a565b5b6135228782880161345d565b925092505092959194509250565b5f5ffd5b7f4e487b71000000000000000000000000000000000000000000000000000000005f52604160045260245ffd5b61356a8261318a565b810181811067ffffffffffffffff8211171561358957613588613534565b5b80604052505050565b5f61359b61306d565b90506135a78282613561565b919050565b5f67ffffffffffffffff8211156135c6576135c5613534565b5b6135cf8261318a565b9050602081019050919050565b828183375f83830152505050565b5f6135fc6135f7846135ac565b613592565b90508281526020810184848401111561361857613617613530565b5b6136238482856135dc565b509392505050565b5f82601f83011261363f5761363e613451565b5b813561364f8482602086016135ea565b91505092915050565b5f5f6040838503121561366e5761366d613076565b5b5f61367b85828601613238565b925050602083013567ffffffffffffffff81111561369c5761369b61307a565b5b6136a88582860161362b565b9150509250929050565b5f602082840312156136c7576136c6613076565b5b5f6136d484828501613238565b91505092915050565b6136e681613211565b82525050565b5f6020820190506136ff5f8301846136dd565b92915050565b5f5f6020838503121561371b5761371a613076565b5b5f83013567ffffffffffffffff8111156137385761373761307a565b5b6137448582860161345d565b92509250509250929050565b5f5f6040838503121561376657613765613076565b5b5f61377385828601613238565b925050602061378485828601613238565b9150509250929050565b7f4e487b71000000000000000000000000000000000000000000000000000000005f52602260045260245ffd5b5f60028204905060018216806137d257607f821691505b6020821081036137e5576137e461378e565b5b50919050565b5f82905092915050565b5f819050815f5260205f209050919050565b5f6020601f8301049050919050565b5f82821b905092915050565b5f600883026138517fffffffffffffffffffffffffffffffffffffffffffffffffffffffffffffffff82613816565b61385b8683613816565b95508019841693508086168417925050509392505050565b5f819050919050565b5f61389661389161388c8461324c565b613873565b61324c565b9050919050565b5f819050919050565b6138af8361387c565b6138c36138bb8261389d565b848454613822565b825550505050565b5f5f905090565b6138da6138cb565b6138e58184846138a6565b505050565b5f5b8281101561390b576139005f8284016138d2565b6001810190506138ec565b505050565b601f82111561395e578282111561395d5761392a816137f5565b61393383613807565b61393c85613807565b6020861015613949575f90505b808301613958828403826138ea565b505050505b5b505050565b5f82821c905092915050565b5f61397e5f1984600802613963565b1980831691505092915050565b5f613996838361396f565b9150826002028217905092915050565b6139b083836137eb565b67ffffffffffffffff8111156139c9576139c8613534565b5b6139d382546137bb565b6139de828285613910565b5f601f831160018114613a0b575f84156139f9578287013590505b613a03858261398b565b865550613a6a565b601f198416613a19866137f5565b5f5b82811015613a4057848901358255600182019150602085019450602081019050613a1b565b86831015613a5d5784890135613a59601f89168261396f565b8355505b6001600288020188555050505b50505050505050565b5f819050919050565b5f67ffffffffffffffff82169050919050565b5f613aa9613aa4613a9f84613a73565b613873565b613a7c565b9050919050565b613ab981613a8f565b82525050565b5f602082019050613ad25f830184613ab0565b92915050565b613ae181613a7c565b82525050565b5f602082019050613afa5f830184613ad8565b92915050565b7f4e6f742066726f7a656e000000000000000000000000000000000000000000005f82015250565b5f613b34600a8361316c565b9150613b3f82613b00565b602082019050919050565b5f6020820190508181035f830152613b6181613b28565b9050919050565b7f416c72656164792066726f7a656e0000000000000000000000000000000000005f82015250565b5f613b9c600e8361316c565b9150613ba782613b68565b602082019050919050565b5f6020820190508181035f830152613bc981613b90565b9050919050565b5f613bdb838561316c565b9350613be88385846135dc565b613bf18361318a565b840190509392505050565b5f6040820190508181035f830152613c14818661319a565b90508181036020830152613c29818486613bd0565b9050949350505050565b5f606082019050613c465f8301866136dd565b613c5360208301856132bd565b613c6060408301846132bd565b949350505050565b5f81519050613c7681613335565b92915050565b5f60208284031215613c9157613c90613076565b5b5f613c9e84828501613c68565b91505092915050565b7f57616c6c65742069732066726f7a656e000000000000000000000000000000005f82015250565b5f613cdb60108361316c565b9150613ce682613ca7565b602082019050919050565b5f6020820190508181035f830152613d0881613ccf565b9050919050565b7f53656e646572206c61636b73205452414445525f524f4c4500000000000000005f82015250565b5f613d4360188361316c565b9150613d4e82613d0f565b602082019050919050565b5f6020820190508181035f830152613d7081613d37565b9050919050565b7f5265636569766572206861732062616c616e636520627574206c61636b7320545f8201527f52414445525f524f4c4500000000000000000000000000000000000000000000602082015250565b5f613dd1602a8361316c565b9150613ddc82613d77565b604082019050919050565b5f6020820190508181035f830152613dfe81613dc5565b9050919050565b5f604082019050613e185f8301856136dd565b613e25602083018461313a565b9392505050565b613e3582613162565b67ffffffffffffffff811115613e4e57613e4d613534565b5b613e5882546137bb565b613e63828285613910565b5f60209050601f831160018114613e94575f8415613e82578287015190505b613e8c858261398b565b865550613ef3565b601f198416613ea2866137f5565b5f5b82811015613ec957848901518255600182019150602085019450602081019050613ea4565b86831015613ee65784890151613ee2601f89168261396f565b8355505b6001600288020188555050505b505050505050565b7f4e487b71000000000000000000000000000000000000000000000000000000005f52601160045260245ffd5b5f613f328261324c565b9150613f3d8361324c565b9250828201905080821115613f5557613f54613efb565b5b9291505056fea264697066735822122044537eab296b1cdad4dfe093e3072ff52b98d2af540d7d661df14c64decc695f64736f6c63430008220033",
		"opcodes": "PUSH1 0xA0 PUSH1 0x40 MSTORE ADDRESS PUSH20 0xFFFFFFFFFFFFFFFFFFFFFFFFFFFFFFFFFFFFFFFF AND PUSH1 0x80 SWAP1 PUSH20 0xFFFFFFFFFFFFFFFFFFFFFFFFFFFFFFFFFFFFFFFF AND DUP2 MSTORE POP CALLVALUE DUP1 ISZERO PUSH2 0x42 JUMPI PUSH0 PUSH0 REVERT JUMPDEST POP PUSH2 0x51 PUSH2 0x56 PUSH1 0x20 SHL PUSH1 0x20 SHR JUMP JUMPDEST PUSH2 0x1D1 JUMP JUMPDEST PUSH0 PUSH2 0x65 PUSH2 0x154 PUSH1 0x20 SHL PUSH1 0x20 SHR JUMP JUMPDEST SWAP1 POP DUP1 PUSH0 ADD PUSH1 0x8 SWAP1 SLOAD SWAP1 PUSH2 0x100 EXP SWAP1 DIV PUSH1 0xFF AND ISZERO PUSH2 0xAF JUMPI PUSH1 0x40 MLOAD PUSH32 0xF92EE8A900000000000000000000000000000000000000000000000000000000 DUP2 MSTORE PUSH1 0x4 ADD PUSH1 0x40 MLOAD DUP1 SWAP2 SUB SWAP1 REVERT JUMPDEST PUSH8 0xFFFFFFFFFFFFFFFF DUP1 AND DUP2 PUSH0 ADD PUSH0 SWAP1 SLOAD SWAP1 PUSH2 0x100 EXP SWAP1 DIV PUSH8 0xFFFFFFFFFFFFFFFF AND PUSH8 0xFFFFFFFFFFFFFFFF AND EQ PUSH2 0x151 JUMPI PUSH8 0xFFFFFFFFFFFFFFFF DUP2 PUSH0 ADD PUSH0 PUSH2 0x100 EXP DUP2 SLOAD DUP2 PUSH8 0xFFFFFFFFFFFFFFFF MUL NOT AND SWAP1 DUP4 PUSH8 0xFFFFFFFFFFFFFFFF AND MUL OR SWAP1 SSTORE POP PUSH32 0xC7F505B2F371AE2175EE4913F4499E1F2633A7B5936321EED1CDAEB6115181D2 PUSH8 0xFFFFFFFFFFFFFFFF PUSH1 0x40 MLOAD PUSH2 0x148 SWAP2 SWAP1 PUSH2 0x1B8 JUMP JUMPDEST PUSH1 0x40 MLOAD DUP1 SWAP2 SUB SWAP1 LOG1 JUMPDEST POP JUMP JUMPDEST PUSH0 PUSH0 PUSH2 0x164 PUSH2 0x16D PUSH1 0x20 SHL PUSH1 0x20 SHR JUMP JUMPDEST SWAP1 POP DUP1 SWAP2 POP POP SWAP1 JUMP JUMPDEST PUSH0 PUSH32 0xF0C57E16840DF040F15088DC2F81FE391C3923BEC73E23A9662EFC9C229C6A00 PUSH0 SHL SWAP1 POP SWAP1 JUMP JUMPDEST PUSH0 PUSH8 0xFFFFFFFFFFFFFFFF DUP3 AND SWAP1 POP SWAP2 SWAP1 POP JUMP JUMPDEST PUSH2 0x1B2 DUP2 PUSH2 0x196 JUMP JUMPDEST DUP3 MSTORE POP POP JUMP JUMPDEST PUSH0 PUSH1 0x20 DUP3 ADD SWAP1 POP PUSH2 0x1CB PUSH0 DUP4 ADD DUP5 PUSH2 0x1A9 JUMP JUMPDEST SWAP3 SWAP2 POP POP JUMP JUMPDEST PUSH1 0x80 MLOAD PUSH2 0x3F91 PUSH2 0x1F7 PUSH0 CODECOPY PUSH0 DUP2 DUP2 PUSH2 0x1FC8 ADD MSTORE DUP2 DUP2 PUSH2 0x201D ADD MSTORE PUSH2 0x21D7 ADD MSTORE PUSH2 0x3F91 PUSH0 RETURN INVALID PUSH1 0x80 PUSH1 0x40 MSTORE PUSH1 0x4 CALLDATASIZE LT PUSH2 0x23A JUMPI PUSH0 CALLDATALOAD PUSH1 0xE0 SHR DUP1 PUSH4 0x70A08231 GT PUSH2 0x12D JUMPI DUP1 PUSH4 0xAD3CB1CC GT PUSH2 0xAA JUMPI DUP1 PUSH4 0xDD62ED3E GT PUSH2 0x6E JUMPI DUP1 PUSH4 0xDD62ED3E EQ PUSH2 0x7F4 JUMPI DUP1 PUSH4 0xE30C3978 EQ PUSH2 0x830 JUMPI DUP1 PUSH4 0xE63AB1E9 EQ PUSH2 0x85A JUMPI DUP1 PUSH4 0xF0A56FC8 EQ PUSH2 0x884 JUMPI DUP1 PUSH4 0xF2FDE38B EQ PUSH2 0x8AE JUMPI PUSH2 0x23A JUMP JUMPDEST DUP1 PUSH4 0xAD3CB1CC EQ PUSH2 0x728 JUMPI DUP1 PUSH4 0xB84C8246 EQ PUSH2 0x752 JUMPI DUP1 PUSH4 0xC47F0027 EQ PUSH2 0x77A JUMPI DUP1 PUSH4 0xD5391393 EQ PUSH2 0x7A2 JUMPI DUP1 PUSH4 0xD547741F EQ PUSH2 0x7CC JUMPI PUSH2 0x23A JUMP JUMPDEST DUP1 PUSH4 0x91D14854 GT PUSH2 0xF1 JUMPI DUP1 PUSH4 0x91D14854 EQ PUSH2 0x634 JUMPI DUP1 PUSH4 0x95D89B41 EQ PUSH2 0x670 JUMPI DUP1 PUSH4 0x9F001169 EQ PUSH2 0x69A JUMPI DUP1 PUSH4 0xA217FDDF EQ PUSH2 0x6C2 JUMPI DUP1 PUSH4 0xA9059CBB EQ PUSH2 0x6EC JUMPI PUSH2 0x23A JUMP JUMPDEST DUP1 PUSH4 0x70A08231 EQ PUSH2 0x58C JUMPI DUP1 PUSH4 0x715018A6 EQ PUSH2 0x5C8 JUMPI DUP1 PUSH4 0x79BA5097 EQ PUSH2 0x5DE JUMPI DUP1 PUSH4 0x8456CB59 EQ PUSH2 0x5F4 JUMPI DUP1 PUSH4 0x8DA5CB5B EQ PUSH2 0x60A JUMPI PUSH2 0x23A JUMP JUMPDEST DUP1 PUSH4 0x313CE567 GT PUSH2 0x1BB JUMPI DUP1 PUSH4 0x4F1EF286 GT PUSH2 0x17F JUMPI DUP1 PUSH4 0x4F1EF286 EQ PUSH2 0x4DE JUMPI DUP1 PUSH4 0x52D1902D EQ PUSH2 0x4FA JUMPI DUP1 PUSH4 0x5C975ABB EQ PUSH2 0x524 JUMPI DUP1 PUSH4 0x5CD8A76B EQ PUSH2 0x54E JUMPI DUP1 PUSH4 0x60F588B7 EQ PUSH2 0x564 JUMPI PUSH2 0x23A JUMP JUMPDEST DUP1 PUSH4 0x313CE567 EQ PUSH2 0x426 JUMPI DUP1 PUSH4 0x36568ABE EQ PUSH2 0x450 JUMPI DUP1 PUSH4 0x3F4BA83A EQ PUSH2 0x478 JUMPI DUP1 PUSH4 0x40C10F19 EQ PUSH2 0x48E JUMPI DUP1 PUSH4 0x4CD88B76 EQ PUSH2 0x4B6 JUMPI PUSH2 0x23A JUMP JUMPDEST DUP1 PUSH4 0x23B872DD GT PUSH2 0x202 JUMPI DUP1 PUSH4 0x23B872DD EQ PUSH2 0x334 JUMPI DUP1 PUSH4 0x248A9CA3 EQ PUSH2 0x370 JUMPI DUP1 PUSH4 0x252400DA EQ PUSH2 0x3AC JUMPI DUP1 PUSH4 0x2E5B15CE EQ PUSH2 0x3D4 JUMPI DUP1 PUSH4 0x2F2FF15D EQ PUSH2 0x3FE JUMPI PUSH2 0x23A JUMP JUMPDEST DUP1 PUSH4 0x1FFC9A7 EQ PUSH2 0x23E JUMPI DUP1 PUSH4 0x6A85F0F EQ PUSH2 0x27A JUMPI DUP1 PUSH4 0x6FDDE03 EQ PUSH2 0x2A4 JUMPI DUP1 PUSH4 0x95EA7B3 EQ PUSH2 0x2CE JUMPI DUP1 PUSH4 0x18160DDD EQ PUSH2 0x30A JUMPI JUMPDEST PUSH0 PUSH0 REVERT JUMPDEST CALLVALUE DUP1 ISZERO PUSH2 0x249 JUMPI PUSH0 PUSH0 REVERT JUMPDEST POP PUSH2 0x264 PUSH1 0x4 DUP1 CALLDATASIZE SUB DUP2 ADD SWAP1 PUSH2 0x25F SWAP2 SWAP1 PUSH2 0x30D3 JUMP JUMPDEST PUSH2 0x8D6 JUMP JUMPDEST PUSH1 0x40 MLOAD PUSH2 0x271 SWAP2 SWAP1 PUSH2 0x3118 JUMP JUMPDEST PUSH1 0x40 MLOAD DUP1 SWAP2 SUB SWAP1 RETURN JUMPDEST CALLVALUE DUP1 ISZERO PUSH2 0x285 JUMPI PUSH0 PUSH0 REVERT JUMPDEST POP PUSH2 0x28E PUSH2 0x94F JUMP JUMPDEST PUSH1 0x40 MLOAD PUSH2 0x29B SWAP2 SWAP1 PUSH2 0x3149 JUMP JUMPDEST PUSH1 0x40 MLOAD DUP1 SWAP2 SUB SWAP1 RETURN JUMPDEST CALLVALUE DUP1 ISZERO PUSH2 0x2AF JUMPI PUSH0 PUSH0 REVERT JUMPDEST POP PUSH2 0x2B8 PUSH2 0x973 JUMP JUMPDEST PUSH1 0x40 MLOAD PUSH2 0x2C5 SWAP2 SWAP1 PUSH2 0x31D2 JUMP JUMPDEST PUSH1 0x40 MLOAD DUP1 SWAP2 SUB SWAP1 RETURN JUMPDEST CALLVALUE DUP1 ISZERO PUSH2 0x2D9 JUMPI PUSH0 PUSH0 REVERT JUMPDEST POP PUSH2 0x2F4 PUSH1 0x4 DUP1 CALLDATASIZE SUB DUP2 ADD SWAP1 PUSH2 0x2EF SWAP2 SWAP1 PUSH2 0x327F JUMP JUMPDEST PUSH2 0xA02 JUMP JUMPDEST PUSH1 0x40 MLOAD PUSH2 0x301 SWAP2 SWAP1 PUSH2 0x3118 JUMP JUMPDEST PUSH1 0x40 MLOAD DUP1 SWAP2 SUB SWAP1 RETURN JUMPDEST CALLVALUE DUP1 ISZERO PUSH2 0x315 JUMPI PUSH0 PUSH0 REVERT JUMPDEST POP PUSH2 0x31E PUSH2 0xA24 JUMP JUMPDEST PUSH1 0x40 MLOAD PUSH2 0x32B SWAP2 SWAP1 PUSH2 0x32CC JUMP JUMPDEST PUSH1 0x40 MLOAD DUP1 SWAP2 SUB SWAP1 RETURN JUMPDEST CALLVALUE DUP1 ISZERO PUSH2 0x33F JUMPI PUSH0 PUSH0 REVERT JUMPDEST POP PUSH2 0x35A PUSH1 0x4 DUP1 CALLDATASIZE SUB DUP2 ADD SWAP1 PUSH2 0x355 SWAP2 SWAP1 PUSH2 0x32E5 JUMP JUMPDEST PUSH2 0xA3B JUMP JUMPDEST PUSH1 0x40 MLOAD PUSH2 0x367 SWAP2 SWAP1 PUSH2 0x3118 JUMP JUMPDEST PUSH1 0x40 MLOAD DUP1 SWAP2 SUB SWAP1 RETURN JUMPDEST CALLVALUE DUP1 ISZERO PUSH2 0x37B JUMPI PUSH0 PUSH0 REVERT JUMPDEST POP PUSH2 0x396 PUSH1 0x4 DUP1 CALLDATASIZE SUB DUP2 ADD SWAP1 PUSH2 0x391 SWAP2 SWAP1 PUSH2 0x335F JUMP JUMPDEST PUSH2 0xA69 JUMP JUMPDEST PUSH1 0x40 MLOAD PUSH2 0x3A3 SWAP2 SWAP1 PUSH2 0x3149 JUMP JUMPDEST PUSH1 0x40 MLOAD DUP1 SWAP2 SUB SWAP1 RETURN JUMPDEST CALLVALUE DUP1 ISZERO PUSH2 0x3B7 JUMPI PUSH0 PUSH0 REVERT JUMPDEST POP PUSH2 0x3D2 PUSH1 0x4 DUP1 CALLDATASIZE SUB DUP2 ADD SWAP1 PUSH2 0x3CD SWAP2 SWAP1 PUSH2 0x33B4 JUMP JUMPDEST PUSH2 0xA93 JUMP JUMPDEST STOP JUMPDEST CALLVALUE DUP1 ISZERO PUSH2 0x3DF JUMPI PUSH0 PUSH0 REVERT JUMPDEST POP PUSH2 0x3E8 PUSH2 0xAF3 JUMP JUMPDEST PUSH1 0x40 MLOAD PUSH2 0x3F5 SWAP2 SWAP1 PUSH2 0x3118 JUMP JUMPDEST PUSH1 0x40 MLOAD DUP1 SWAP2 SUB SWAP1 RETURN JUMPDEST CALLVALUE DUP1 ISZERO PUSH2 0x409 JUMPI PUSH0 PUSH0 REVERT JUMPDEST POP PUSH2 0x424 PUSH1 0x4 DUP1 CALLDATASIZE SUB DUP2 ADD SWAP1 PUSH2 0x41F SWAP2 SWAP1 PUSH2 0x33DF JUMP JUMPDEST PUSH2 0xB05 JUMP JUMPDEST STOP JUMPDEST CALLVALUE DUP1 ISZERO PUSH2 0x431 JUMPI PUSH0 PUSH0 REVERT JUMPDEST POP PUSH2 0x43A PUSH2 0xB27 JUMP JUMPDEST PUSH1 0x40 MLOAD PUSH2 0x447 SWAP2 SWAP1 PUSH2 0x3438 JUMP JUMPDEST PUSH1 0x40 MLOAD DUP1 SWAP2 SUB SWAP1 RETURN JUMPDEST CALLVALUE DUP1 ISZERO PUSH2 0x45B JUMPI PUSH0 PUSH0 REVERT JUMPDEST POP PUSH2 0x476 PUSH1 0x4 DUP1 CALLDATASIZE SUB DUP2 ADD SWAP1 PUSH2 0x471 SWAP2 SWAP1 PUSH2 0x33DF JUMP JUMPDEST PUSH2 0xB2F JUMP JUMPDEST STOP JUMPDEST CALLVALUE DUP1 ISZERO PUSH2 0x483 JUMPI PUSH0 PUSH0 REVERT JUMPDEST POP PUSH2 0x48C PUSH2 0xBAA JUMP JUMPDEST STOP JUMPDEST CALLVALUE DUP1 ISZERO PUSH2 0x499 JUMPI PUSH0 PUSH0 REVERT JUMPDEST POP PUSH2 0x4B4 PUSH1 0x4 DUP1 CALLDATASIZE SUB DUP2 ADD SWAP1 PUSH2 0x4AF SWAP2 SWAP1 PUSH2 0x327F JUMP JUMPDEST PUSH2 0xBDF JUMP JUMPDEST STOP JUMPDEST CALLVALUE DUP1 ISZERO PUSH2 0x4C1 JUMPI PUSH0 PUSH0 REVERT JUMPDEST POP PUSH2 0x4DC PUSH1 0x4 DUP1 CALLDATASIZE SUB DUP2 ADD SWAP1 PUSH2 0x4D7 SWAP2 SWAP1 PUSH2 0x34B2 JUMP JUMPDEST PUSH2 0xC66 JUMP JUMPDEST STOP JUMPDEST PUSH2 0x4F8 PUSH1 0x4 DUP1 CALLDATASIZE SUB DUP2 ADD SWAP1 PUSH2 0x4F3 SWAP2 SWAP1 PUSH2 0x3658 JUMP JUMPDEST PUSH2 0xF43 JUMP JUMPDEST STOP JUMPDEST CALLVALUE DUP1 ISZERO PUSH2 0x505 JUMPI PUSH0 PUSH0 REVERT JUMPDEST POP PUSH2 0x50E PUSH2 0xF62 JUMP JUMPDEST PUSH1 0x40 MLOAD PUSH2 0x51B SWAP2 SWAP1 PUSH2 0x3149 JUMP JUMPDEST PUSH1 0x40 MLOAD DUP1 SWAP2 SUB SWAP1 RETURN JUMPDEST CALLVALUE DUP1 ISZERO PUSH2 0x52F JUMPI PUSH0 PUSH0 REVERT JUMPDEST POP PUSH2 0x538 PUSH2 0xF93 JUMP JUMPDEST PUSH1 0x40 MLOAD PUSH2 0x545 SWAP2 SWAP1 PUSH2 0x3118 JUMP JUMPDEST PUSH1 0x40 MLOAD DUP1 SWAP2 SUB SWAP1 RETURN JUMPDEST CALLVALUE DUP1 ISZERO PUSH2 0x559 JUMPI PUSH0 PUSH0 REVERT JUMPDEST POP PUSH2 0x562 PUSH2 0xFB5 JUMP JUMPDEST STOP JUMPDEST CALLVALUE DUP1 ISZERO PUSH2 0x56F JUMPI PUSH0 PUSH0 REVERT JUMPDEST POP PUSH2 0x58A PUSH1 0x4 DUP1 CALLDATASIZE SUB DUP2 ADD SWAP1 PUSH2 0x585 SWAP2 SWAP1 PUSH2 0x36B2 JUMP JUMPDEST PUSH2 0x10F3 JUMP JUMPDEST STOP JUMPDEST CALLVALUE DUP1 ISZERO PUSH2 0x597 JUMPI PUSH0 PUSH0 REVERT JUMPDEST POP PUSH2 0x5B2 PUSH1 0x4 DUP1 CALLDATASIZE SUB DUP2 ADD SWAP1 PUSH2 0x5AD SWAP2 SWAP1 PUSH2 0x36B2 JUMP JUMPDEST PUSH2 0x1241 JUMP JUMPDEST PUSH1 0x40 MLOAD PUSH2 0x5BF SWAP2 SWAP1 PUSH2 0x32CC JUMP JUMPDEST PUSH1 0x40 MLOAD DUP1 SWAP2 SUB SWAP1 RETURN JUMPDEST CALLVALUE DUP1 ISZERO PUSH2 0x5D3 JUMPI PUSH0 PUSH0 REVERT JUMPDEST POP PUSH2 0x5DC PUSH2 0x1294 JUMP JUMPDEST STOP JUMPDEST CALLVALUE DUP1 ISZERO PUSH2 0x5E9 JUMPI PUSH0 PUSH0 REVERT JUMPDEST POP PUSH2 0x5F2 PUSH2 0x12A7 JUMP JUMPDEST STOP JUMPDEST CALLVALUE DUP1 ISZERO PUSH2 0x5FF JUMPI PUSH0 PUSH0 REVERT JUMPDEST POP PUSH2 0x608 PUSH2 0x1335 JUMP JUMPDEST STOP JUMPDEST CALLVALUE DUP1 ISZERO PUSH2 0x615 JUMPI PUSH0 PUSH0 REVERT JUMPDEST POP PUSH2 0x61E PUSH2 0x136A JUMP JUMPDEST PUSH1 0x40 MLOAD PUSH2 0x62B SWAP2 SWAP1 PUSH2 0x36EC JUMP JUMPDEST PUSH1 0x40 MLOAD DUP1 SWAP2 SUB SWAP1 RETURN JUMPDEST CALLVALUE DUP1 ISZERO PUSH2 0x63F JUMPI PUSH0 PUSH0 REVERT JUMPDEST POP PUSH2 0x65A PUSH1 0x4 DUP1 CALLDATASIZE SUB DUP2 ADD SWAP1 PUSH2 0x655 SWAP2 SWAP1 PUSH2 0x33DF JUMP JUMPDEST PUSH2 0x139F JUMP JUMPDEST PUSH1 0x40 MLOAD PUSH2 0x667 SWAP2 SWAP1 PUSH2 0x3118 JUMP JUMPDEST PUSH1 0x40 MLOAD DUP1 SWAP2 SUB SWAP1 RETURN JUMPDEST CALLVALUE DUP1 ISZERO PUSH2 0x67B JUMPI PUSH0 PUSH0 REVERT JUMPDEST POP PUSH2 0x684 PUSH2 0x1410 JUMP JUMPDEST PUSH1 0x40 MLOAD PUSH2 0x691 SWAP2 SWAP1 PUSH2 0x31D2 JUMP JUMPDEST PUSH1 0x40 MLOAD DUP1 SWAP2 SUB SWAP1 RETURN JUMPDEST CALLVALUE DUP1 ISZERO PUSH2 0x6A5 JUMPI PUSH0 PUSH0 REVERT JUMPDEST POP PUSH2 0x6C0 PUSH1 0x4 DUP1 CALLDATASIZE SUB DUP2 ADD SWAP1 PUSH2 0x6BB SWAP2 SWAP1 PUSH2 0x36B2 JUMP JUMPDEST PUSH2 0x14A0 JUMP JUMPDEST STOP JUMPDEST CALLVALUE DUP1 ISZERO PUSH2 0x6CD JUMPI PUSH0 PUSH0 REVERT JUMPDEST POP PUSH2 0x6D6 PUSH2 0x15F0 JUMP JUMPDEST PUSH1 0x40 MLOAD PUSH2 0x6E3 SWAP2 SWAP1 PUSH2 0x3149 JUMP JUMPDEST PUSH1 0x40 MLOAD DUP1 SWAP2 SUB SWAP1 RETURN JUMPDEST CALLVALUE DUP1 ISZERO PUSH2 0x6F7 JUMPI PUSH0 PUSH0 REVERT JUMPDEST POP PUSH2 0x712 PUSH1 0x4 DUP1 CALLDATASIZE SUB DUP2 ADD SWAP1 PUSH2 0x70D SWAP2 SWAP1 PUSH2 0x327F JUMP JUMPDEST PUSH2 0x15F6 JUMP JUMPDEST PUSH1 0x40 MLOAD PUSH2 0x71F SWAP2 SWAP1 PUSH2 0x3118 JUMP JUMPDEST PUSH1 0x40 MLOAD DUP1 SWAP2 SUB SWAP1 RETURN JUMPDEST CALLVALUE DUP1 ISZERO PUSH2 0x733 JUMPI PUSH0 PUSH0 REVERT JUMPDEST POP PUSH2 0x73C PUSH2 0x1618 JUMP JUMPDEST PUSH1 0x40 MLOAD PUSH2 0x749 SWAP2 SWAP1 PUSH2 0x31D2 JUMP JUMPDEST PUSH1 0x40 MLOAD DUP1 SWAP2 SUB SWAP1 RETURN JUMPDEST CALLVALUE DUP1 ISZERO PUSH2 0x75D JUMPI PUSH0 PUSH0 REVERT JUMPDEST POP PUSH2 0x778 PUSH1 0x4 DUP1 CALLDATASIZE SUB DUP2 ADD SWAP1 PUSH2 0x773 SWAP2 SWAP1 PUSH2 0x3705 JUMP JUMPDEST PUSH2 0x1651 JUMP JUMPDEST STOP JUMPDEST CALLVALUE DUP1 ISZERO PUSH2 0x785 JUMPI PUSH0 PUSH0 REVERT JUMPDEST POP PUSH2 0x7A0 PUSH1 0x4 DUP1 CALLDATASIZE SUB DUP2 ADD SWAP1 PUSH2 0x79B SWAP2 SWAP1 PUSH2 0x3705 JUMP JUMPDEST PUSH2 0x1737 JUMP JUMPDEST STOP JUMPDEST CALLVALUE DUP1 ISZERO PUSH2 0x7AD JUMPI PUSH0 PUSH0 REVERT JUMPDEST POP PUSH2 0x7B6 PUSH2 0x181B JUMP JUMPDEST PUSH1 0x40 MLOAD PUSH2 0x7C3 SWAP2 SWAP1 PUSH2 0x3149 JUMP JUMPDEST PUSH1 0x40 MLOAD DUP1 SWAP2 SUB SWAP1 RETURN JUMPDEST CALLVALUE DUP1 ISZERO PUSH2 0x7D7 JUMPI PUSH0 PUSH0 REVERT JUMPDEST POP PUSH2 0x7F2 PUSH1 0x4 DUP1 CALLDATASIZE SUB DUP2 ADD SWAP1 PUSH2 0x7ED SWAP2 SWAP1 PUSH2 0x33DF JUMP JUMPDEST PUSH2 0x183F JUMP JUMPDEST STOP JUMPDEST CALLVALUE DUP1 ISZERO PUSH2 0x7FF JUMPI PUSH0 PUSH0 REVERT JUMPDEST POP PUSH2 0x81A PUSH1 0x4 DUP1 CALLDATASIZE SUB DUP2 ADD SWAP1 PUSH2 0x815 SWAP2 SWAP1 PUSH2 0x3750 JUMP JUMPDEST PUSH2 0x1861 JUMP JUMPDEST PUSH1 0x40 MLOAD PUSH2 0x827 SWAP2 SWAP1 PUSH2 0x32CC JUMP JUMPDEST PUSH1 0x40 MLOAD DUP1 SWAP2 SUB SWAP1 RETURN JUMPDEST CALLVALUE DUP1 ISZERO PUSH2 0x83B JUMPI PUSH0 PUSH0 REVERT JUMPDEST POP PUSH2 0x844 PUSH2 0x18F1 JUMP JUMPDEST PUSH1 0x40 MLOAD PUSH2 0x851 SWAP2 SWAP1 PUSH2 0x36EC JUMP JUMPDEST PUSH1 0x40 MLOAD DUP1 SWAP2 SUB SWAP1 RETURN JUMPDEST CALLVALUE DUP1 ISZERO PUSH2 0x865 JUMPI PUSH0 PUSH0 REVERT JUMPDEST POP PUSH2 0x86E PUSH2 0x1926 JUMP JUMPDEST PUSH1 0x40 MLOAD PUSH2 0x87B SWAP2 SWAP1 PUSH2 0x3149 JUMP JUMPDEST PUSH1 0x40 MLOAD DUP1 SWAP2 SUB SWAP1 RETURN JUMPDEST CALLVALUE DUP1 ISZERO PUSH2 0x88F JUMPI PUSH0 PUSH0 REVERT JUMPDEST POP PUSH2 0x898 PUSH2 0x194A JUMP JUMPDEST PUSH1 0x40 MLOAD PUSH2 0x8A5 SWAP2 SWAP1 PUSH2 0x3149 JUMP JUMPDEST PUSH1 0x40 MLOAD DUP1 SWAP2 SUB SWAP1 RETURN JUMPDEST CALLVALUE DUP1 ISZERO PUSH2 0x8B9 JUMPI PUSH0 PUSH0 REVERT JUMPDEST POP PUSH2 0x8D4 PUSH1 0x4 DUP1 CALLDATASIZE SUB DUP2 ADD SWAP1 PUSH2 0x8CF SWAP2 SWAP1 PUSH2 0x36B2 JUMP JUMPDEST PUSH2 0x196E JUMP JUMPDEST STOP JUMPDEST PUSH0 PUSH32 0x7965DB0B00000000000000000000000000000000000000000000000000000000 PUSH28 0xFFFFFFFFFFFFFFFFFFFFFFFFFFFFFFFFFFFFFFFFFFFFFFFFFFFFFFFF NOT AND DUP3 PUSH28 0xFFFFFFFFFFFFFFFFFFFFFFFFFFFFFFFFFFFFFFFFFFFFFFFFFFFFFFFF NOT AND EQ DUP1 PUSH2 0x948 JUMPI POP PUSH2 0x947 DUP3 PUSH2 0x1A27 JUMP JUMPDEST JUMPDEST SWAP1 POP SWAP2 SWAP1 POP JUMP JUMPDEST PUSH32 0x92DE27771F92D6942691D73358B3A4673E4880DE8356F8F2CF452BE87E02D363 DUP2 JUMP JUMPDEST PUSH1 0x60 PUSH0 DUP1 SLOAD PUSH2 0x981 SWAP1 PUSH2 0x37BB JUMP JUMPDEST DUP1 PUSH1 0x1F ADD PUSH1 0x20 DUP1 SWAP2 DIV MUL PUSH1 0x20 ADD PUSH1 0x40 MLOAD SWAP1 DUP2 ADD PUSH1 0x40 MSTORE DUP1 SWAP3 SWAP2 SWAP1 DUP2 DUP2 MSTORE PUSH1 0x20 ADD DUP3 DUP1 SLOAD PUSH2 0x9AD SWAP1 PUSH2 0x37BB JUMP JUMPDEST DUP1 ISZERO PUSH2 0x9F8 JUMPI DUP1 PUSH1 0x1F LT PUSH2 0x9CF JUMPI PUSH2 0x100 DUP1 DUP4 SLOAD DIV MUL DUP4 MSTORE SWAP2 PUSH1 0x20 ADD SWAP2 PUSH2 0x9F8 JUMP JUMPDEST DUP3 ADD SWAP2 SWAP1 PUSH0 MSTORE PUSH1 0x20 PUSH0 KECCAK256 SWAP1 JUMPDEST DUP2 SLOAD DUP2 MSTORE SWAP1 PUSH1 0x1 ADD SWAP1 PUSH1 0x20 ADD DUP1 DUP4 GT PUSH2 0x9DB JUMPI DUP3 SWAP1 SUB PUSH1 0x1F AND DUP3 ADD SWAP2 JUMPDEST POP POP POP POP POP SWAP1 POP SWAP1 JUMP JUMPDEST PUSH0 PUSH0 PUSH2 0xA0C PUSH2 0x1A90 JUMP JUMPDEST SWAP1 POP PUSH2 0xA19 DUP2 DUP6 DUP6 PUSH2 0x1A97 JUMP JUMPDEST PUSH1 0x1 SWAP2 POP POP SWAP3 SWAP2 POP POP JUMP JUMPDEST PUSH0 PUSH0 PUSH2 0xA2E PUSH2 0x1AA9 JUMP JUMPDEST SWAP1 POP DUP1 PUSH1 0x2 ADD SLOAD SWAP2 POP POP SWAP1 JUMP JUMPDEST PUSH0 PUSH0 PUSH2 0xA45 PUSH2 0x1A90 JUMP JUMPDEST SWAP1 POP PUSH2 0xA52 DUP6 DUP3 DUP6 PUSH2 0x1AD0 JUMP JUMPDEST PUSH2 0xA5D DUP6 DUP6 DUP6 PUSH2 0x1B63 JUMP JUMPDEST PUSH1 0x1 SWAP2 POP POP SWAP4 SWAP3 POP POP POP JUMP JUMPDEST PUSH0 PUSH0 PUSH2 0xA73 PUSH2 0x1C53 JUMP JUMPDEST SWAP1 POP DUP1 PUSH0 ADD PUSH0 DUP5 DUP2 MSTORE PUSH1 0x20 ADD SWAP1 DUP2 MSTORE PUSH1 0x20 ADD PUSH0 KECCAK256 PUSH1 0x1 ADD SLOAD SWAP2 POP POP SWAP2 SWAP1 POP JUMP JUMPDEST PUSH0 PUSH0 SHL PUSH2 0xA9F DUP2 PUSH2 0x1C7A JUMP JUMPDEST DUP2 PUSH1 0x3 PUSH0 PUSH2 0x100 EXP DUP2 SLOAD DUP2 PUSH1 0xFF MUL NOT AND SWAP1 DUP4 ISZERO ISZERO MUL OR SWAP1 SSTORE POP PUSH32 0x24B29EE845E0E3F55662A5CCBBD026629D29229DE2A98B6C12F968D8D0C3E24E DUP3 PUSH1 0x40 MLOAD PUSH2 0xAE7 SWAP2 SWAP1 PUSH2 0x3118 JUMP JUMPDEST PUSH1 0x40 MLOAD DUP1 SWAP2 SUB SWAP1 LOG1 POP POP JUMP JUMPDEST PUSH1 0x3 PUSH0 SWAP1 SLOAD SWAP1 PUSH2 0x100 EXP SWAP1 DIV PUSH1 0xFF AND DUP2 JUMP JUMPDEST PUSH2 0xB0E DUP3 PUSH2 0xA69 JUMP JUMPDEST PUSH2 0xB17 DUP2 PUSH2 0x1C7A JUMP JUMPDEST PUSH2 0xB21 DUP4 DUP4 PUSH2 0x1C8E JUMP JUMPDEST POP POP POP POP JUMP JUMPDEST PUSH0 PUSH1 0x12 SWAP1 POP SWAP1 JUMP JUMPDEST PUSH2 0xB37 PUSH2 0x1A90 JUMP JUMPDEST PUSH20 0xFFFFFFFFFFFFFFFFFFFFFFFFFFFFFFFFFFFFFFFF AND DUP2 PUSH20 0xFFFFFFFFFFFFFFFFFFFFFFFFFFFFFFFFFFFFFFFF AND EQ PUSH2 0xB9B JUMPI PUSH1 0x40 MLOAD PUSH32 0x6697B23200000000000000000000000000000000000000000000000000000000 DUP2 MSTORE PUSH1 0x4 ADD PUSH1 0x40 MLOAD DUP1 SWAP2 SUB SWAP1 REVERT JUMPDEST PUSH2 0xBA5 DUP3 DUP3 PUSH2 0x1D86 JUMP JUMPDEST POP POP POP JUMP JUMPDEST PUSH32 0x65D7A28E3265B37A6474929F336521B332C1681B933F6CB9F3376673440D862A PUSH2 0xBD4 DUP2 PUSH2 0x1C7A JUMP JUMPDEST PUSH2 0xBDC PUSH2 0x1E7E JUMP JUMPDEST POP JUMP JUMPDEST PUSH32 0x9F2DF0FED2C77648DE5860A4CC508CD0818C85B8B8A1AB4CEEEF8D981C8956A6 PUSH2 0xC09 DUP2 PUSH2 0x1C7A JUMP JUMPDEST PUSH2 0xC13 DUP4 DUP4 PUSH2 0x1EEC JUMP JUMPDEST DUP3 PUSH20 0xFFFFFFFFFFFFFFFFFFFFFFFFFFFFFFFFFFFFFFFF AND PUSH32 0x30385C845B448A36257A6A1716E6AD2E1BC2CBE333CDE1E69FE849AD6511ADFE DUP4 PUSH1 0x40 MLOAD PUSH2 0xC59 SWAP2 SWAP1 PUSH2 0x32CC JUMP JUMPDEST PUSH1 0x40 MLOAD DUP1 SWAP2 SUB SWAP1 LOG2 POP POP POP JUMP JUMPDEST PUSH0 PUSH2 0xC6F PUSH2 0x1F6B JUMP JUMPDEST SWAP1 POP PUSH0 DUP2 PUSH0 ADD PUSH1 0x8 SWAP1 SLOAD SWAP1 PUSH2 0x100 EXP SWAP1 DIV PUSH1 0xFF AND ISZERO SWAP1 POP PUSH0 DUP3 PUSH0 ADD PUSH0 SWAP1 SLOAD SWAP1 PUSH2 0x100 EXP SWAP1 DIV PUSH8 0xFFFFFFFFFFFFFFFF AND SWAP1 POP PUSH0 PUSH0 DUP3 PUSH8 0xFFFFFFFFFFFFFFFF AND EQ DUP1 ISZERO PUSH2 0xCB7 JUMPI POP DUP3 JUMPDEST SWAP1 POP PUSH0 PUSH1 0x1 DUP4 PUSH8 0xFFFFFFFFFFFFFFFF AND EQ DUP1 ISZERO PUSH2 0xCEA JUMPI POP PUSH0 ADDRESS PUSH20 0xFFFFFFFFFFFFFFFFFFFFFFFFFFFFFFFFFFFFFFFF AND EXTCODESIZE EQ JUMPDEST SWAP1 POP DUP2 ISZERO DUP1 ISZERO PUSH2 0xCF8 JUMPI POP DUP1 ISZERO JUMPDEST ISZERO PUSH2 0xD2F JUMPI PUSH1 0x40 MLOAD PUSH32 0xF92EE8A900000000000000000000000000000000000000000000000000000000 DUP2 MSTORE PUSH1 0x4 ADD PUSH1 0x40 MLOAD DUP1 SWAP2 SUB SWAP1 REVERT JUMPDEST PUSH1 0x1 DUP6 PUSH0 ADD PUSH0 PUSH2 0x100 EXP DUP2 SLOAD DUP2 PUSH8 0xFFFFFFFFFFFFFFFF MUL NOT AND SWAP1 DUP4 PUSH8 0xFFFFFFFFFFFFFFFF AND MUL OR SWAP1 SSTORE POP DUP4 ISZERO PUSH2 0xD7C JUMPI PUSH1 0x1 DUP6 PUSH0 ADD PUSH1 0x8 PUSH2 0x100 EXP DUP2 SLOAD DUP2 PUSH1 0xFF MUL NOT AND SWAP1 DUP4 ISZERO ISZERO MUL OR SWAP1 SSTORE POP JUMPDEST PUSH2 0xE0C DUP10 DUP10 DUP1 DUP1 PUSH1 0x1F ADD PUSH1 0x20 DUP1 SWAP2 DIV MUL PUSH1 0x20 ADD PUSH1 0x40 MLOAD SWAP1 DUP2 ADD PUSH1 0x40 MSTORE DUP1 SWAP4 SWAP3 SWAP2 SWAP1 DUP2 DUP2 MSTORE PUSH1 0x20 ADD DUP4 DUP4 DUP1 DUP3 DUP5 CALLDATACOPY PUSH0 DUP2 DUP5 ADD MSTORE PUSH1 0x1F NOT PUSH1 0x1F DUP3 ADD AND SWAP1 POP DUP1 DUP4 ADD SWAP3 POP POP POP POP POP POP POP DUP9 DUP9 DUP1 DUP1 PUSH1 0x1F ADD PUSH1 0x20 DUP1 SWAP2 DIV MUL PUSH1 0x20 ADD PUSH1 0x40 MLOAD SWAP1 DUP2 ADD PUSH1 0x40 MSTORE DUP1 SWAP4 SWAP3 SWAP2 SWAP1 DUP2 DUP2 MSTORE PUSH1 0x20 ADD DUP4 DUP4 DUP1 DUP3 DUP5 CALLDATACOPY PUSH0 DUP2 DUP5 ADD MSTORE PUSH1 0x1F NOT PUSH1 0x1F DUP3 ADD AND SWAP1 POP DUP1 DUP4 ADD SWAP3 POP POP POP POP POP POP POP PUSH2 0x1F7E JUMP JUMPDEST PUSH2 0xE14 PUSH2 0x1F94 JUMP JUMPDEST PUSH2 0xE1D CALLER PUSH2 0x1F9E JUMP JUMPDEST PUSH2 0xE25 PUSH2 0x1FB2 JUMP JUMPDEST PUSH2 0xE2D PUSH2 0x1FBC JUMP JUMPDEST DUP9 DUP9 PUSH0 SWAP2 DUP3 PUSH2 0xE3D SWAP3 SWAP2 SWAP1 PUSH2 0x39A6 JUMP JUMPDEST POP DUP7 DUP7 PUSH1 0x1 SWAP2 DUP3 PUSH2 0xE4F SWAP3 SWAP2 SWAP1 PUSH2 0x39A6 JUMP JUMPDEST POP PUSH2 0xE5C PUSH0 PUSH0 SHL CALLER PUSH2 0x1C8E JUMP JUMPDEST POP PUSH2 0xE87 PUSH32 0x9F2DF0FED2C77648DE5860A4CC508CD0818C85B8B8A1AB4CEEEF8D981C8956A6 CALLER PUSH2 0x1C8E JUMP JUMPDEST POP PUSH2 0xEB2 PUSH32 0x92DE27771F92D6942691D73358B3A4673E4880DE8356F8F2CF452BE87E02D363 CALLER PUSH2 0x1C8E JUMP JUMPDEST POP PUSH2 0xEDD PUSH32 0x65D7A28E3265B37A6474929F336521B332C1681B933F6CB9F3376673440D862A CALLER PUSH2 0x1C8E JUMP JUMPDEST POP DUP4 ISZERO PUSH2 0xF38 JUMPI PUSH0 DUP6 PUSH0 ADD PUSH1 0x8 PUSH2 0x100 EXP DUP2 SLOAD DUP2 PUSH1 0xFF MUL NOT AND SWAP1 DUP4 ISZERO ISZERO MUL OR SWAP1 SSTORE POP PUSH32 0xC7F505B2F371AE2175EE4913F4499E1F2633A7B5936321EED1CDAEB6115181D2 PUSH1 0x1 PUSH1 0x40 MLOAD PUSH2 0xF2F SWAP2 SWAP1 PUSH2 0x3ABF JUMP JUMPDEST PUSH1 0x40 MLOAD DUP1 SWAP2 SUB SWAP1 LOG1 JUMPDEST POP POP POP POP POP POP POP POP POP JUMP JUMPDEST PUSH2 0xF4B PUSH2 0x1FC6 JUMP JUMPDEST PUSH2 0xF54 DUP3 PUSH2 0x20AC JUMP JUMPDEST PUSH2 0xF5E DUP3 DUP3 PUSH2 0x20B7 JUMP JUMPDEST POP POP JUMP JUMPDEST PUSH0 PUSH2 0xF6B PUSH2 0x21D5 JUMP JUMPDEST PUSH32 0x360894A13BA1A3210667C828492DB98DCA3E2076CC3735A920A3CA505D382BBC PUSH0 SHL SWAP1 POP SWAP1 JUMP JUMPDEST PUSH0 PUSH0 PUSH2 0xF9D PUSH2 0x225C JUMP JUMPDEST SWAP1 POP DUP1 PUSH0 ADD PUSH0 SWAP1 SLOAD SWAP1 PUSH2 0x100 EXP SWAP1 DIV PUSH1 0xFF AND SWAP2 POP POP SWAP1 JUMP JUMPDEST PUSH1 0x2 PUSH0 PUSH2 0xFC0 PUSH2 0x1F6B JUMP JUMPDEST SWAP1 POP DUP1 PUSH0 ADD PUSH1 0x8 SWAP1 SLOAD SWAP1 PUSH2 0x100 EXP SWAP1 DIV PUSH1 0xFF AND DUP1 PUSH2 0x1008 JUMPI POP DUP2 PUSH8 0xFFFFFFFFFFFFFFFF AND DUP2 PUSH0 ADD PUSH0 SWAP1 SLOAD SWAP1 PUSH2 0x100 EXP SWAP1 DIV PUSH8 0xFFFFFFFFFFFFFFFF AND PUSH8 0xFFFFFFFFFFFFFFFF AND LT ISZERO JUMPDEST ISZERO PUSH2 0x103F JUMPI PUSH1 0x40 MLOAD PUSH32 0xF92EE8A900000000000000000000000000000000000000000000000000000000 DUP2 MSTORE PUSH1 0x4 ADD PUSH1 0x40 MLOAD DUP1 SWAP2 SUB SWAP1 REVERT JUMPDEST DUP2 DUP2 PUSH0 ADD PUSH0 PUSH2 0x100 EXP DUP2 SLOAD DUP2 PUSH8 0xFFFFFFFFFFFFFFFF MUL NOT AND SWAP1 DUP4 PUSH8 0xFFFFFFFFFFFFFFFF AND MUL OR SWAP1 SSTORE POP PUSH1 0x1 DUP2 PUSH0 ADD PUSH1 0x8 PUSH2 0x100 EXP DUP2 SLOAD DUP2 PUSH1 0xFF MUL NOT AND SWAP1 DUP4 ISZERO ISZERO MUL OR SWAP1 SSTORE POP PUSH0 PUSH1 0x3 PUSH0 PUSH2 0x100 EXP DUP2 SLOAD DUP2 PUSH1 0xFF MUL NOT AND SWAP1 DUP4 ISZERO ISZERO MUL OR SWAP1 SSTORE POP PUSH0 DUP2 PUSH0 ADD PUSH1 0x8 PUSH2 0x100 EXP DUP2 SLOAD DUP2 PUSH1 0xFF MUL NOT AND SWAP1 DUP4 ISZERO ISZERO MUL OR SWAP1 SSTORE POP PUSH32 0xC7F505B2F371AE2175EE4913F4499E1F2633A7B5936321EED1CDAEB6115181D2 DUP3 PUSH1 0x40 MLOAD PUSH2 0x10E7 SWAP2 SWAP1 PUSH2 0x3AE7 JUMP JUMPDEST PUSH1 0x40 MLOAD DUP1 SWAP2 SUB SWAP1 LOG1 POP POP JUMP JUMPDEST PUSH32 0x92DE27771F92D6942691D73358B3A4673E4880DE8356F8F2CF452BE87E02D363 PUSH2 0x111D DUP2 PUSH2 0x1C7A JUMP JUMPDEST PUSH1 0x2 PUSH0 DUP4 PUSH20 0xFFFFFFFFFFFFFFFFFFFFFFFFFFFFFFFFFFFFFFFF AND PUSH20 0xFFFFFFFFFFFFFFFFFFFFFFFFFFFFFFFFFFFFFFFF AND DUP2 MSTORE PUSH1 0x20 ADD SWAP1 DUP2 MSTORE PUSH1 0x20 ADD PUSH0 KECCAK256 PUSH0 SWAP1 SLOAD SWAP1 PUSH2 0x100 EXP SWAP1 DIV PUSH1 0xFF AND PUSH2 0x11A6 JUMPI PUSH1 0x40 MLOAD PUSH32 0x8C379A000000000000000000000000000000000000000000000000000000000 DUP2 MSTORE PUSH1 0x4 ADD PUSH2 0x119D SWAP1 PUSH2 0x3B4A JUMP JUMPDEST PUSH1 0x40 MLOAD DUP1 SWAP2 SUB SWAP1 REVERT JUMPDEST PUSH0 PUSH1 0x2 PUSH0 DUP5 PUSH20 0xFFFFFFFFFFFFFFFFFFFFFFFFFFFFFFFFFFFFFFFF AND PUSH20 0xFFFFFFFFFFFFFFFFFFFFFFFFFFFFFFFFFFFFFFFF AND DUP2 MSTORE PUSH1 0x20 ADD SWAP1 DUP2 MSTORE PUSH1 0x20 ADD PUSH0 KECCAK256 PUSH0 PUSH2 0x100 EXP DUP2 SLOAD DUP2 PUSH1 0xFF MUL NOT AND SWAP1 DUP4 ISZERO ISZERO MUL OR SWAP1 SSTORE POP DUP2 PUSH20 0xFFFFFFFFFFFFFFFFFFFFFFFFFFFFFFFFFFFFFFFF AND PUSH32 0xD247131FABB99DC3BA793524F53F05A77EEEF38F12B30119655EE340810B1210 PUSH1 0x40 MLOAD PUSH1 0x40 MLOAD DUP1 SWAP2 SUB SWAP1 LOG2 POP POP JUMP JUMPDEST PUSH0 PUSH0 PUSH2 0x124B PUSH2 0x1AA9 JUMP JUMPDEST SWAP1 POP DUP1 PUSH0 ADD PUSH0 DUP5 PUSH20 0xFFFFFFFFFFFFFFFFFFFFFFFFFFFFFFFFFFFFFFFF AND PUSH20 0xFFFFFFFFFFFFFFFFFFFFFFFFFFFFFFFFFFFFFFFF AND DUP2 MSTORE PUSH1 0x20 ADD SWAP1 DUP2 MSTORE PUSH1 0x20 ADD PUSH0 KECCAK256 SLOAD SWAP2 POP POP SWAP2 SWAP1 POP JUMP JUMPDEST PUSH2 0x129C PUSH2 0x2283 JUMP JUMPDEST PUSH2 0x12A5 PUSH0 PUSH2 0x230A JUMP JUMPDEST JUMP JUMPDEST PUSH0 PUSH2 0x12B0 PUSH2 0x1A90 JUMP JUMPDEST SWAP1 POP DUP1 PUSH20 0xFFFFFFFFFFFFFFFFFFFFFFFFFFFFFFFFFFFFFFFF AND PUSH2 0x12D1 PUSH2 0x18F1 JUMP JUMPDEST PUSH20 0xFFFFFFFFFFFFFFFFFFFFFFFFFFFFFFFFFFFFFFFF AND EQ PUSH2 0x1329 JUMPI DUP1 PUSH1 0x40 MLOAD PUSH32 0x118CDAA700000000000000000000000000000000000000000000000000000000 DUP2 MSTORE PUSH1 0x4 ADD PUSH2 0x1320 SWAP2 SWAP1 PUSH2 0x36EC JUMP JUMPDEST PUSH1 0x40 MLOAD DUP1 SWAP2 SUB SWAP1 REVERT JUMPDEST PUSH2 0x1332 DUP2 PUSH2 0x230A JUMP JUMPDEST POP JUMP JUMPDEST PUSH32 0x65D7A28E3265B37A6474929F336521B332C1681B933F6CB9F3376673440D862A PUSH2 0x135F DUP2 PUSH2 0x1C7A JUMP JUMPDEST PUSH2 0x1367 PUSH2 0x2347 JUMP JUMPDEST POP JUMP JUMPDEST PUSH0 PUSH0 PUSH2 0x1374 PUSH2 0x23B6 JUMP JUMPDEST SWAP1 POP DUP1 PUSH0 ADD PUSH0 SWAP1 SLOAD SWAP1 PUSH2 0x100 EXP SWAP1 DIV PUSH20 0xFFFFFFFFFFFFFFFFFFFFFFFFFFFFFFFFFFFFFFFF AND SWAP2 POP POP SWAP1 JUMP JUMPDEST PUSH0 PUSH0 PUSH2 0x13A9 PUSH2 0x1C53 JUMP JUMPDEST SWAP1 POP DUP1 PUSH0 ADD PUSH0 DUP6 DUP2 MSTORE PUSH1 0x20 ADD SWAP1 DUP2 MSTORE PUSH1 0x20 ADD PUSH0 KECCAK256 PUSH0 ADD PUSH0 DUP5 PUSH20 0xFFFFFFFFFFFFFFFFFFFFFFFFFFFFFFFFFFFFFFFF AND PUSH20 0xFFFFFFFFFFFFFFFFFFFFFFFFFFFFFFFFFFFFFFFF AND DUP2 MSTORE PUSH1 0x20 ADD SWAP1 DUP2 MSTORE PUSH1 0x20 ADD PUSH0 KECCAK256 PUSH0 SWAP1 SLOAD SWAP1 PUSH2 0x100 EXP SWAP1 DIV PUSH1 0xFF AND SWAP2 POP POP SWAP3 SWAP2 POP POP JUMP JUMPDEST PUSH1 0x60 PUSH1 0x1 DUP1 SLOAD PUSH2 0x141F SWAP1 PUSH2 0x37BB JUMP JUMPDEST DUP1 PUSH1 0x1F ADD PUSH1 0x20 DUP1 SWAP2 DIV MUL PUSH1 0x20 ADD PUSH1 0x40 MLOAD SWAP1 DUP2 ADD PUSH1 0x40 MSTORE DUP1 SWAP3 SWAP2 SWAP1 DUP2 DUP2 MSTORE PUSH1 0x20 ADD DUP3 DUP1 SLOAD PUSH2 0x144B SWAP1 PUSH2 0x37BB JUMP JUMPDEST DUP1 ISZERO PUSH2 0x1496 JUMPI DUP1 PUSH1 0x1F LT PUSH2 0x146D JUMPI PUSH2 0x100 DUP1 DUP4 SLOAD DIV MUL DUP4 MSTORE SWAP2 PUSH1 0x20 ADD SWAP2 PUSH2 0x1496 JUMP JUMPDEST DUP3 ADD SWAP2 SWAP1 PUSH0 MSTORE PUSH1 0x20 PUSH0 KECCAK256 SWAP1 JUMPDEST DUP2 SLOAD DUP2 MSTORE SWAP1 PUSH1 0x1 ADD SWAP1 PUSH1 0x20 ADD DUP1 DUP4 GT PUSH2 0x1479 JUMPI DUP3 SWAP1 SUB PUSH1 0x1F AND DUP3 ADD SWAP2 JUMPDEST POP POP POP POP POP SWAP1 POP SWAP1 JUMP JUMPDEST PUSH32 0x92DE27771F92D6942691D73358B3A4673E4880DE8356F8F2CF452BE87E02D363 PUSH2 0x14CA DUP2 PUSH2 0x1C7A JUMP JUMPDEST PUSH1 0x2 PUSH0 DUP4 PUSH20 0xFFFFFFFFFFFFFFFFFFFFFFFFFFFFFFFFFFFFFFFF AND PUSH20 0xFFFFFFFFFFFFFFFFFFFFFFFFFFFFFFFFFFFFFFFF AND DUP2 MSTORE PUSH1 0x20 ADD SWAP1 DUP2 MSTORE PUSH1 0x20 ADD PUSH0 KECCAK256 PUSH0 SWAP1 SLOAD SWAP1 PUSH2 0x100 EXP SWAP1 DIV PUSH1 0xFF AND ISZERO PUSH2 0x1554 JUMPI PUSH1 0x40 MLOAD PUSH32 0x8C379A000000000000000000000000000000000000000000000000000000000 DUP2 MSTORE PUSH1 0x4 ADD PUSH2 0x154B SWAP1 PUSH2 0x3BB2 JUMP JUMPDEST PUSH1 0x40 MLOAD DUP1 SWAP2 SUB SWAP1 REVERT JUMPDEST PUSH1 0x1 PUSH1 0x2 PUSH0 DUP5 PUSH20 0xFFFFFFFFFFFFFFFFFFFFFFFFFFFFFFFFFFFFFFFF AND PUSH20 0xFFFFFFFFFFFFFFFFFFFFFFFFFFFFFFFFFFFFFFFF AND DUP2 MSTORE PUSH1 0x20 ADD SWAP1 DUP2 MSTORE PUSH1 0x20 ADD PUSH0 KECCAK256 PUSH0 PUSH2 0x100 EXP DUP2 SLOAD DUP2 PUSH1 0xFF MUL NOT AND SWAP1 DUP4 ISZERO ISZERO MUL OR SWAP1 SSTORE POP DUP2 PUSH20 0xFFFFFFFFFFFFFFFFFFFFFFFFFFFFFFFFFFFFFFFF AND PUSH32 0xC9710D20BDBF99CA92A03644A5A8F85EA6BADB387FF0ABCA08EEBDFBFF50B77F PUSH1 0x40 MLOAD PUSH1 0x40 MLOAD DUP1 SWAP2 SUB SWAP1 LOG2 POP POP JUMP JUMPDEST PUSH0 PUSH0 SHL DUP2 JUMP JUMPDEST PUSH0 PUSH0 PUSH2 0x1600 PUSH2 0x1A90 JUMP JUMPDEST SWAP1 POP PUSH2 0x160D DUP2 DUP6 DUP6 PUSH2 0x1B63 JUMP JUMPDEST PUSH1 0x1 SWAP2 POP POP SWAP3 SWAP2 POP POP JUMP JUMPDEST PUSH1 0x40 MLOAD DUP1 PUSH1 0x40 ADD PUSH1 0x40 MSTORE DUP1 PUSH1 0x5 DUP2 MSTORE PUSH1 0x20 ADD PUSH32 0x352E302E30000000000000000000000000000000000000000000000000000000 DUP2 MSTORE POP DUP2 JUMP JUMPDEST PUSH2 0x1659 PUSH2 0x2283 JUMP JUMPDEST PUSH0 PUSH1 0x1 DUP1 SLOAD PUSH2 0x1667 SWAP1 PUSH2 0x37BB JUMP JUMPDEST DUP1 PUSH1 0x1F ADD PUSH1 0x20 DUP1 SWAP2 DIV MUL PUSH1 0x20 ADD PUSH1 0x40 MLOAD SWAP1 DUP2 ADD PUSH1 0x40 MSTORE DUP1 SWAP3 SWAP2 SWAP1 DUP2 DUP2 MSTORE PUSH1 0x20 ADD DUP3 DUP1 SLOAD PUSH2 0x1693 SWAP1 PUSH2 0x37BB JUMP JUMPDEST DUP1 ISZERO PUSH2 0x16DE JUMPI DUP1 PUSH1 0x1F LT PUSH2 0x16B5 JUMPI PUSH2 0x100 DUP1 DUP4 SLOAD DIV MUL DUP4 MSTORE SWAP2 PUSH1 0x20 ADD SWAP2 PUSH2 0x16DE JUMP JUMPDEST DUP3 ADD SWAP2 SWAP1 PUSH0 MSTORE PUSH1 0x20 PUSH0 KECCAK256 SWAP1 JUMPDEST DUP2 SLOAD DUP2 MSTORE SWAP1 PUSH1 0x1 ADD SWAP1 PUSH1 0x20 ADD DUP1 DUP4 GT PUSH2 0x16C1 JUMPI DUP3 SWAP1 SUB PUSH1 0x1F AND DUP3 ADD SWAP2 JUMPDEST POP POP POP POP POP SWAP1 POP DUP3 DUP3 PUSH1 0x1 SWAP2 DUP3 PUSH2 0x16F6 SWAP3 SWAP2 SWAP1 PUSH2 0x39A6 JUMP JUMPDEST POP PUSH32 0xD7AD744CC76EBAD190995130EEC8BA506B3605612D23B5B9CEF8E27F14D138B4 DUP2 DUP5 DUP5 PUSH1 0x40 MLOAD PUSH2 0x172A SWAP4 SWAP3 SWAP2 SWAP1 PUSH2 0x3BFC JUMP JUMPDEST PUSH1 0x40 MLOAD DUP1 SWAP2 SUB SWAP1 LOG1 POP POP POP JUMP JUMPDEST PUSH2 0x173F PUSH2 0x2283 JUMP JUMPDEST PUSH0 PUSH0 DUP1 SLOAD PUSH2 0x174C SWAP1 PUSH2 0x37BB JUMP JUMPDEST DUP1 PUSH1 0x1F ADD PUSH1 0x20 DUP1 SWAP2 DIV MUL PUSH1 0x20 ADD PUSH1 0x40 MLOAD SWAP1 DUP2 ADD PUSH1 0x40 MSTORE DUP1 SWAP3 SWAP2 SWAP1 DUP2 DUP2 MSTORE PUSH1 0x20 ADD DUP3 DUP1 SLOAD PUSH2 0x1778 SWAP1 PUSH2 0x37BB JUMP JUMPDEST DUP1 ISZERO PUSH2 0x17C3 JUMPI DUP1 PUSH1 0x1F LT PUSH2 0x179A JUMPI PUSH2 0x100 DUP1 DUP4 SLOAD DIV MUL DUP4 MSTORE SWAP2 PUSH1 0x20 ADD SWAP2 PUSH2 0x17C3 JUMP JUMPDEST DUP3 ADD SWAP2 SWAP1 PUSH0 MSTORE PUSH1 0x20 PUSH0 KECCAK256 SWAP1 JUMPDEST DUP2 SLOAD DUP2 MSTORE SWAP1 PUSH1 0x1 ADD SWAP1 PUSH1 0x20 ADD DUP1 DUP4 GT PUSH2 0x17A6 JUMPI DUP3 SWAP1 SUB PUSH1 0x1F AND DUP3 ADD SWAP2 JUMPDEST POP POP POP POP POP SWAP1 POP DUP3 DUP3 PUSH0 SWAP2 DUP3 PUSH2 0x17DA SWAP3 SWAP2 SWAP1 PUSH2 0x39A6 JUMP JUMPDEST POP PUSH32 0x6C20B91D1723B78732EBA64FF11EBD7966A6E4AF568A00FA4F6B72C20F58B02A DUP2 DUP5 DUP5 PUSH1 0x40 MLOAD PUSH2 0x180E SWAP4 SWAP3 SWAP2 SWAP1 PUSH2 0x3BFC JUMP JUMPDEST PUSH1 0x40 MLOAD DUP1 SWAP2 SUB SWAP1 LOG1 POP POP POP JUMP JUMPDEST PUSH32 0x9F2DF0FED2C77648DE5860A4CC508CD0818C85B8B8A1AB4CEEEF8D981C8956A6 DUP2 JUMP JUMPDEST PUSH2 0x1848 DUP3 PUSH2 0xA69 JUMP JUMPDEST PUSH2 0x1851 DUP2 PUSH2 0x1C7A JUMP JUMPDEST PUSH2 0x185B DUP4 DUP4 PUSH2 0x1D86 JUMP JUMPDEST POP POP POP POP JUMP JUMPDEST PUSH0 PUSH0 PUSH2 0x186B PUSH2 0x1AA9 JUMP JUMPDEST SWAP1 POP DUP1 PUSH1 0x1 ADD PUSH0 DUP6 PUSH20 0xFFFFFFFFFFFFFFFFFFFFFFFFFFFFFFFFFFFFFFFF AND PUSH20 0xFFFFFFFFFFFFFFFFFFFFFFFFFFFFFFFFFFFFFFFF AND DUP2 MSTORE PUSH1 0x20 ADD SWAP1 DUP2 MSTORE PUSH1 0x20 ADD PUSH0 KECCAK256 PUSH0 DUP5 PUSH20 0xFFFFFFFFFFFFFFFFFFFFFFFFFFFFFFFFFFFFFFFF AND PUSH20 0xFFFFFFFFFFFFFFFFFFFFFFFFFFFFFFFFFFFFFFFF AND DUP2 MSTORE PUSH1 0x20 ADD SWAP1 DUP2 MSTORE PUSH1 0x20 ADD PUSH0 KECCAK256 SLOAD SWAP2 POP POP SWAP3 SWAP2 POP POP JUMP JUMPDEST PUSH0 PUSH0 PUSH2 0x18FB PUSH2 0x23DD JUMP JUMPDEST SWAP1 POP DUP1 PUSH0 ADD PUSH0 SWAP1 SLOAD SWAP1 PUSH2 0x100 EXP SWAP1 DIV PUSH20 0xFFFFFFFFFFFFFFFFFFFFFFFFFFFFFFFFFFFFFFFF AND SWAP2 POP POP SWAP1 JUMP JUMPDEST PUSH32 0x65D7A28E3265B37A6474929F336521B332C1681B933F6CB9F3376673440D862A DUP2 JUMP JUMPDEST PUSH32 0xFACAF2747A7486CF5730E9265973FB54447D3ACE6E7E4711F6360826B0731941 DUP2 JUMP JUMPDEST PUSH2 0x1976 PUSH2 0x2283 JUMP JUMPDEST PUSH0 PUSH2 0x197F PUSH2 0x23DD JUMP JUMPDEST SWAP1 POP DUP2 DUP2 PUSH0 ADD PUSH0 PUSH2 0x100 EXP DUP2 SLOAD DUP2 PUSH20 0xFFFFFFFFFFFFFFFFFFFFFFFFFFFFFFFFFFFFFFFF MUL NOT AND SWAP1 DUP4 PUSH20 0xFFFFFFFFFFFFFFFFFFFFFFFFFFFFFFFFFFFFFFFF AND MUL OR SWAP1 SSTORE POP DUP2 PUSH20 0xFFFFFFFFFFFFFFFFFFFFFFFFFFFFFFFFFFFFFFFF AND PUSH2 0x19E1 PUSH2 0x136A JUMP JUMPDEST PUSH20 0xFFFFFFFFFFFFFFFFFFFFFFFFFFFFFFFFFFFFFFFF AND PUSH32 0x38D16B8CAC22D99FC7C124B9CD0DE2D3FA1FAEF420BFE791D8C362D765E22700 PUSH1 0x40 MLOAD PUSH1 0x40 MLOAD DUP1 SWAP2 SUB SWAP1 LOG3 POP POP JUMP JUMPDEST PUSH0 PUSH32 0x1FFC9A700000000000000000000000000000000000000000000000000000000 PUSH28 0xFFFFFFFFFFFFFFFFFFFFFFFFFFFFFFFFFFFFFFFFFFFFFFFFFFFFFFFF NOT AND DUP3 PUSH28 0xFFFFFFFFFFFFFFFFFFFFFFFFFFFFFFFFFFFFFFFFFFFFFFFFFFFFFFFF NOT AND EQ SWAP1 POP SWAP2 SWAP1 POP JUMP JUMPDEST PUSH0 CALLER SWAP1 POP SWAP1 JUMP JUMPDEST PUSH2 0x1AA4 DUP4 DUP4 DUP4 PUSH1 0x1 PUSH2 0x2404 JUMP JUMPDEST POP POP POP JUMP JUMPDEST PUSH0 PUSH32 0x52C63247E1F47DB19D5CE0460030C497F067CA4CEBF71BA98EEADABE20BACE00 SWAP1 POP SWAP1 JUMP JUMPDEST PUSH0 PUSH2 0x1ADB DUP5 DUP5 PUSH2 0x1861 JUMP JUMPDEST SWAP1 POP PUSH32 0xFFFFFFFFFFFFFFFFFFFFFFFFFFFFFFFFFFFFFFFFFFFFFFFFFFFFFFFFFFFFFFFF DUP2 LT ISZERO PUSH2 0x1B5D JUMPI DUP2 DUP2 LT ISZERO PUSH2 0x1B4E JUMPI DUP3 DUP2 DUP4 PUSH1 0x40 MLOAD PUSH32 0xFB8F41B200000000000000000000000000000000000000000000000000000000 DUP2 MSTORE PUSH1 0x4 ADD PUSH2 0x1B45 SWAP4 SWAP3 SWAP2 SWAP1 PUSH2 0x3C33 JUMP JUMPDEST PUSH1 0x40 MLOAD DUP1 SWAP2 SUB SWAP1 REVERT JUMPDEST PUSH2 0x1B5C DUP5 DUP5 DUP5 DUP5 SUB PUSH0 PUSH2 0x2404 JUMP JUMPDEST JUMPDEST POP POP POP POP JUMP JUMPDEST PUSH0 PUSH20 0xFFFFFFFFFFFFFFFFFFFFFFFFFFFFFFFFFFFFFFFF AND DUP4 PUSH20 0xFFFFFFFFFFFFFFFFFFFFFFFFFFFFFFFFFFFFFFFF AND SUB PUSH2 0x1BD3 JUMPI PUSH0 PUSH1 0x40 MLOAD PUSH32 0x96C6FD1E00000000000000000000000000000000000000000000000000000000 DUP2 MSTORE PUSH1 0x4 ADD PUSH2 0x1BCA SWAP2 SWAP1 PUSH2 0x36EC JUMP JUMPDEST PUSH1 0x40 MLOAD DUP1 SWAP2 SUB SWAP1 REVERT JUMPDEST PUSH0 PUSH20 0xFFFFFFFFFFFFFFFFFFFFFFFFFFFFFFFFFFFFFFFF AND DUP3 PUSH20 0xFFFFFFFFFFFFFFFFFFFFFFFFFFFFFFFFFFFFFFFF AND SUB PUSH2 0x1C43 JUMPI PUSH0 PUSH1 0x40 MLOAD PUSH32 0xEC442F0500000000000000000000000000000000000000000000000000000000 DUP2 MSTORE PUSH1 0x4 ADD PUSH2 0x1C3A SWAP2 SWAP1 PUSH2 0x36EC JUMP JUMPDEST PUSH1 0x40 MLOAD DUP1 SWAP2 SUB SWAP1 REVERT JUMPDEST PUSH2 0x1C4E DUP4 DUP4 DUP4 PUSH2 0x25E1 JUMP JUMPDEST POP POP POP JUMP JUMPDEST PUSH0 PUSH32 0x2DD7BC7DEC4DCEEDDA775E58DD541E08A116C6C53815C0BD028192F7B626800 SWAP1 POP SWAP1 JUMP JUMPDEST PUSH2 0x1C8B DUP2 PUSH2 0x1C86 PUSH2 0x1A90 JUMP JUMPDEST PUSH2 0x2835 JUMP JUMPDEST POP JUMP JUMPDEST PUSH0 PUSH0 PUSH2 0x1C98 PUSH2 0x1C53 JUMP JUMPDEST SWAP1 POP PUSH2 0x1CA4 DUP5 DUP5 PUSH2 0x139F JUMP JUMPDEST PUSH2 0x1D7B JUMPI PUSH1 0x1 DUP2 PUSH0 ADD PUSH0 DUP7 DUP2 MSTORE PUSH1 0x20 ADD SWAP1 DUP2 MSTORE PUSH1 0x20 ADD PUSH0 KECCAK256 PUSH0 ADD PUSH0 DUP6 PUSH20 0xFFFFFFFFFFFFFFFFFFFFFFFFFFFFFFFFFFFFFFFF AND PUSH20 0xFFFFFFFFFFFFFFFFFFFFFFFFFFFFFFFFFFFFFFFF AND DUP2 MSTORE PUSH1 0x20 ADD SWAP1 DUP2 MSTORE PUSH1 0x20 ADD PUSH0 KECCAK256 PUSH0 PUSH2 0x100 EXP DUP2 SLOAD DUP2 PUSH1 0xFF MUL NOT AND SWAP1 DUP4 ISZERO ISZERO MUL OR SWAP1 SSTORE POP PUSH2 0x1D17 PUSH2 0x1A90 JUMP JUMPDEST PUSH20 0xFFFFFFFFFFFFFFFFFFFFFFFFFFFFFFFFFFFFFFFF AND DUP4 PUSH20 0xFFFFFFFFFFFFFFFFFFFFFFFFFFFFFFFFFFFFFFFF AND DUP6 PUSH32 0x2F8788117E7EFF1D82E926EC794901D17C78024A50270940304540A733656F0D PUSH1 0x40 MLOAD PUSH1 0x40 MLOAD DUP1 SWAP2 SUB SWAP1 LOG4 PUSH1 0x1 SWAP2 POP POP PUSH2 0x1D80 JUMP JUMPDEST PUSH0 SWAP2 POP POP JUMPDEST SWAP3 SWAP2 POP POP JUMP JUMPDEST PUSH0 PUSH0 PUSH2 0x1D90 PUSH2 0x1C53 JUMP JUMPDEST SWAP1 POP PUSH2 0x1D9C DUP5 DUP5 PUSH2 0x139F JUMP JUMPDEST ISZERO PUSH2 0x1E73 JUMPI PUSH0 DUP2 PUSH0 ADD PUSH0 DUP7 DUP2 MSTORE PUSH1 0x20 ADD SWAP1 DUP2 MSTORE PUSH1 0x20 ADD PUSH0 KECCAK256 PUSH0 ADD PUSH0 DUP6 PUSH20 0xFFFFFFFFFFFFFFFFFFFFFFFFFFFFFFFFFFFFFFFF AND PUSH20 0xFFFFFFFFFFFFFFFFFFFFFFFFFFFFFFFFFFFFFFFF AND DUP2 MSTORE PUSH1 0x20 ADD SWAP1 DUP2 MSTORE PUSH1 0x20 ADD PUSH0 KECCAK256 PUSH0 PUSH2 0x100 EXP DUP2 SLOAD DUP2 PUSH1 0xFF MUL NOT AND SWAP1 DUP4 ISZERO ISZERO MUL OR SWAP1 SSTORE POP PUSH2 0x1E0F PUSH2 0x1A90 JUMP JUMPDEST PUSH20 0xFFFFFFFFFFFFFFFFFFFFFFFFFFFFFFFFFFFFFFFF AND DUP4 PUSH20 0xFFFFFFFFFFFFFFFFFFFFFFFFFFFFFFFFFFFFFFFF AND DUP6 PUSH32 0xF6391F5C32D9C69D2A47EA670B442974B53935D1EDC7FD64EB21E047A839171B PUSH1 0x40 MLOAD PUSH1 0x40 MLOAD DUP1 SWAP2 SUB SWAP1 LOG4 PUSH1 0x1 SWAP2 POP POP PUSH2 0x1E78 JUMP JUMPDEST PUSH0 SWAP2 POP POP JUMPDEST SWAP3 SWAP2 POP POP JUMP JUMPDEST PUSH2 0x1E86 PUSH2 0x2886 JUMP JUMPDEST PUSH0 PUSH2 0x1E8F PUSH2 0x225C JUMP JUMPDEST SWAP1 POP PUSH0 DUP2 PUSH0 ADD PUSH0 PUSH2 0x100 EXP DUP2 SLOAD DUP2 PUSH1 0xFF MUL NOT AND SWAP1 DUP4 ISZERO ISZERO MUL OR SWAP1 SSTORE POP PUSH32 0x5DB9EE0A495BF2E6FF9C91A7834C1BA4FDD244A5E8AA4E537BD38AEAE4B073AA PUSH2 0x1ED4 PUSH2 0x1A90 JUMP JUMPDEST PUSH1 0x40 MLOAD PUSH2 0x1EE1 SWAP2 SWAP1 PUSH2 0x36EC JUMP JUMPDEST PUSH1 0x40 MLOAD DUP1 SWAP2 SUB SWAP1 LOG1 POP JUMP JUMPDEST PUSH0 PUSH20 0xFFFFFFFFFFFFFFFFFFFFFFFFFFFFFFFFFFFFFFFF AND DUP3 PUSH20 0xFFFFFFFFFFFFFFFFFFFFFFFFFFFFFFFFFFFFFFFF AND SUB PUSH2 0x1F5C JUMPI PUSH0 PUSH1 0x40 MLOAD PUSH32 0xEC442F0500000000000000000000000000000000000000000000000000000000 DUP2 MSTORE PUSH1 0x4 ADD PUSH2 0x1F53 SWAP2 SWAP1 PUSH2 0x36EC JUMP JUMPDEST PUSH1 0x40 MLOAD DUP1 SWAP2 SUB SWAP1 REVERT JUMPDEST PUSH2 0x1F67 PUSH0 DUP4 DUP4 PUSH2 0x25E1 JUMP JUMPDEST POP POP JUMP JUMPDEST PUSH0 PUSH0 PUSH2 0x1F75 PUSH2 0x28C6 JUMP JUMPDEST SWAP1 POP DUP1 SWAP2 POP POP SWAP1 JUMP JUMPDEST PUSH2 0x1F86 PUSH2 0x28EF JUMP JUMPDEST PUSH2 0x1F90 DUP3 DUP3 PUSH2 0x292F JUMP JUMPDEST POP POP JUMP JUMPDEST PUSH2 0x1F9C PUSH2 0x28EF JUMP JUMPDEST JUMP JUMPDEST PUSH2 0x1FA6 PUSH2 0x28EF JUMP JUMPDEST PUSH2 0x1FAF DUP2 PUSH2 0x296B JUMP JUMPDEST POP JUMP JUMPDEST PUSH2 0x1FBA PUSH2 0x28EF JUMP JUMPDEST JUMP JUMPDEST PUSH2 0x1FC4 PUSH2 0x28EF JUMP JUMPDEST JUMP JUMPDEST PUSH32 0x0 PUSH20 0xFFFFFFFFFFFFFFFFFFFFFFFFFFFFFFFFFFFFFFFF AND ADDRESS PUSH20 0xFFFFFFFFFFFFFFFFFFFFFFFFFFFFFFFFFFFFFFFF AND EQ DUP1 PUSH2 0x2073 JUMPI POP PUSH32 0x0 PUSH20 0xFFFFFFFFFFFFFFFFFFFFFFFFFFFFFFFFFFFFFFFF AND PUSH2 0x205A PUSH2 0x29EF JUMP JUMPDEST PUSH20 0xFFFFFFFFFFFFFFFFFFFFFFFFFFFFFFFFFFFFFFFF AND EQ ISZERO JUMPDEST ISZERO PUSH2 0x20AA JUMPI PUSH1 0x40 MLOAD PUSH32 0xE07C8DBA00000000000000000000000000000000000000000000000000000000 DUP2 MSTORE PUSH1 0x4 ADD PUSH1 0x40 MLOAD DUP1 SWAP2 SUB SWAP1 REVERT JUMPDEST JUMP JUMPDEST PUSH2 0x20B4 PUSH2 0x2283 JUMP JUMPDEST POP JUMP JUMPDEST DUP2 PUSH20 0xFFFFFFFFFFFFFFFFFFFFFFFFFFFFFFFFFFFFFFFF AND PUSH4 0x52D1902D PUSH1 0x40 MLOAD DUP2 PUSH4 0xFFFFFFFF AND PUSH1 0xE0 SHL DUP2 MSTORE PUSH1 0x4 ADD PUSH1 0x20 PUSH1 0x40 MLOAD DUP1 DUP4 SUB DUP2 DUP7 GAS STATICCALL SWAP3 POP POP POP DUP1 ISZERO PUSH2 0x211F JUMPI POP PUSH1 0x40 MLOAD RETURNDATASIZE PUSH1 0x1F NOT PUSH1 0x1F DUP3 ADD AND DUP3 ADD DUP1 PUSH1 0x40 MSTORE POP DUP2 ADD SWAP1 PUSH2 0x211C SWAP2 SWAP1 PUSH2 0x3C7C JUMP JUMPDEST PUSH1 0x1 JUMPDEST PUSH2 0x2160 JUMPI DUP2 PUSH1 0x40 MLOAD PUSH32 0x4C9C8CE300000000000000000000000000000000000000000000000000000000 DUP2 MSTORE PUSH1 0x4 ADD PUSH2 0x2157 SWAP2 SWAP1 PUSH2 0x36EC JUMP JUMPDEST PUSH1 0x40 MLOAD DUP1 SWAP2 SUB SWAP1 REVERT JUMPDEST PUSH32 0x360894A13BA1A3210667C828492DB98DCA3E2076CC3735A920A3CA505D382BBC PUSH0 SHL DUP2 EQ PUSH2 0x21C6 JUMPI DUP1 PUSH1 0x40 MLOAD PUSH32 0xAA1D49A400000000000000000000000000000000000000000000000000000000 DUP2 MSTORE PUSH1 0x4 ADD PUSH2 0x21BD SWAP2 SWAP1 PUSH2 0x3149 JUMP JUMPDEST PUSH1 0x40 MLOAD DUP1 SWAP2 SUB SWAP1 REVERT JUMPDEST PUSH2 0x21D0 DUP4 DUP4 PUSH2 0x2A42 JUMP JUMPDEST POP POP POP JUMP JUMPDEST PUSH32 0x0 PUSH20 0xFFFFFFFFFFFFFFFFFFFFFFFFFFFFFFFFFFFFFFFF AND ADDRESS PUSH20 0xFFFFFFFFFFFFFFFFFFFFFFFFFFFFFFFFFFFFFFFF AND EQ PUSH2 0x225A JUMPI PUSH1 0x40 MLOAD PUSH32 0xE07C8DBA00000000000000000000000000000000000000000000000000000000 DUP2 MSTORE PUSH1 0x4 ADD PUSH1 0x40 MLOAD DUP1 SWAP2 SUB SWAP1 REVERT JUMPDEST JUMP JUMPDEST PUSH0 PUSH32 0xCD5ED15C6E187E77E9AEE88184C21F4F2182AB5827CB3B7E07FBEDCD63F03300 SWAP1 POP SWAP1 JUMP JUMPDEST PUSH2 0x228B PUSH2 0x1A90 JUMP JUMPDEST PUSH20 0xFFFFFFFFFFFFFFFFFFFFFFFFFFFFFFFFFFFFFFFF AND PUSH2 0x22A9 PUSH2 0x136A JUMP JUMPDEST PUSH20 0xFFFFFFFFFFFFFFFFFFFFFFFFFFFFFFFFFFFFFFFF AND EQ PUSH2 0x2308 JUMPI PUSH2 0x22CC PUSH2 0x1A90 JUMP JUMPDEST PUSH1 0x40 MLOAD PUSH32 0x118CDAA700000000000000000000000000000000000000000000000000000000 DUP2 MSTORE PUSH1 0x4 ADD PUSH2 0x22FF SWAP2 SWAP1 PUSH2 0x36EC JUMP JUMPDEST PUSH1 0x40 MLOAD DUP1 SWAP2 SUB SWAP1 REVERT JUMPDEST JUMP JUMPDEST PUSH0 PUSH2 0x2313 PUSH2 0x23DD JUMP JUMPDEST SWAP1 POP DUP1 PUSH0 ADD PUSH0 PUSH2 0x100 EXP DUP2 SLOAD SWAP1 PUSH20 0xFFFFFFFFFFFFFFFFFFFFFFFFFFFFFFFFFFFFFFFF MUL NOT AND SWAP1 SSTORE PUSH2 0x2343 DUP3 PUSH2 0x2AB4 JUMP JUMPDEST POP POP JUMP JUMPDEST PUSH2 0x234F PUSH2 0x2B85 JUMP JUMPDEST PUSH0 PUSH2 0x2358 PUSH2 0x225C JUMP JUMPDEST SWAP1 POP PUSH1 0x1 DUP2 PUSH0 ADD PUSH0 PUSH2 0x100 EXP DUP2 SLOAD DUP2 PUSH1 0xFF MUL NOT AND SWAP1 DUP4 ISZERO ISZERO MUL OR SWAP1 SSTORE POP PUSH32 0x62E78CEA01BEE320CD4E420270B5EA74000D11B0C9F74754EBDBFC544B05A258 PUSH2 0x239E PUSH2 0x1A90 JUMP JUMPDEST PUSH1 0x40 MLOAD PUSH2 0x23AB SWAP2 SWAP1 PUSH2 0x36EC JUMP JUMPDEST PUSH1 0x40 MLOAD DUP1 SWAP2 SUB SWAP1 LOG1 POP JUMP JUMPDEST PUSH0 PUSH32 0x9016D09D72D40FDAE2FD8CEAC6B6234C7706214FD39C1CD1E609A0528C199300 SWAP1 POP SWAP1 JUMP JUMPDEST PUSH0 PUSH32 0x237E158222E3E6968B72B9DB0D8043AACF074AD9F650F0D1606B4D82EE432C00 SWAP1 POP SWAP1 JUMP JUMPDEST PUSH0 PUSH2 0x240D PUSH2 0x1AA9 JUMP JUMPDEST SWAP1 POP PUSH0 PUSH20 0xFFFFFFFFFFFFFFFFFFFFFFFFFFFFFFFFFFFFFFFF AND DUP6 PUSH20 0xFFFFFFFFFFFFFFFFFFFFFFFFFFFFFFFFFFFFFFFF AND SUB PUSH2 0x247F JUMPI PUSH0 PUSH1 0x40 MLOAD PUSH32 0xE602DF0500000000000000000000000000000000000000000000000000000000 DUP2 MSTORE PUSH1 0x4 ADD PUSH2 0x2476 SWAP2 SWAP1 PUSH2 0x36EC JUMP JUMPDEST PUSH1 0x40 MLOAD DUP1 SWAP2 SUB SWAP1 REVERT JUMPDEST PUSH0 PUSH20 0xFFFFFFFFFFFFFFFFFFFFFFFFFFFFFFFFFFFFFFFF AND DUP5 PUSH20 0xFFFFFFFFFFFFFFFFFFFFFFFFFFFFFFFFFFFFFFFF AND SUB PUSH2 0x24EF JUMPI PUSH0 PUSH1 0x40 MLOAD PUSH32 0x94280D6200000000000000000000000000000000000000000000000000000000 DUP2 MSTORE PUSH1 0x4 ADD PUSH2 0x24E6 SWAP2 SWAP1 PUSH2 0x36EC JUMP JUMPDEST PUSH1 0x40 MLOAD DUP1 SWAP2 SUB SWAP1 REVERT JUMPDEST DUP3 DUP2 PUSH1 0x1 ADD PUSH0 DUP8 PUSH20 0xFFFFFFFFFFFFFFFFFFFFFFFFFFFFFFFFFFFFFFFF AND PUSH20 0xFFFFFFFFFFFFFFFFFFFFFFFFFFFFFFFFFFFFFFFF AND DUP2 MSTORE PUSH1 0x20 ADD SWAP1 DUP2 MSTORE PUSH1 0x20 ADD PUSH0 KECCAK256 PUSH0 DUP7 PUSH20 0xFFFFFFFFFFFFFFFFFFFFFFFFFFFFFFFFFFFFFFFF AND PUSH20 0xFFFFFFFFFFFFFFFFFFFFFFFFFFFFFFFFFFFFFFFF AND DUP2 MSTORE PUSH1 0x20 ADD SWAP1 DUP2 MSTORE PUSH1 0x20 ADD PUSH0 KECCAK256 DUP2 SWAP1 SSTORE POP DUP2 ISZERO PUSH2 0x25DA JUMPI DUP4 PUSH20 0xFFFFFFFFFFFFFFFFFFFFFFFFFFFFFFFFFFFFFFFF AND DUP6 PUSH20 0xFFFFFFFFFFFFFFFFFFFFFFFFFFFFFFFFFFFFFFFF AND PUSH32 0x8C5BE1E5EBEC7D5BD14F71427D1E84F3DD0314C0F7B2291E5B200AC8C7C3B925 DUP6 PUSH1 0x40 MLOAD PUSH2 0x25D1 SWAP2 SWAP1 PUSH2 0x32CC JUMP JUMPDEST PUSH1 0x40 MLOAD DUP1 SWAP2 SUB SWAP1 LOG3 JUMPDEST POP POP POP POP POP JUMP JUMPDEST PUSH1 0x2 PUSH0 DUP5 PUSH20 0xFFFFFFFFFFFFFFFFFFFFFFFFFFFFFFFFFFFFFFFF AND PUSH20 0xFFFFFFFFFFFFFFFFFFFFFFFFFFFFFFFFFFFFFFFF AND DUP2 MSTORE PUSH1 0x20 ADD SWAP1 DUP2 MSTORE PUSH1 0x20 ADD PUSH0 KECCAK256 PUSH0 SWAP1 SLOAD SWAP1 PUSH2 0x100 EXP SWAP1 DIV PUSH1 0xFF AND ISZERO DUP1 ISZERO PUSH2 0x267F JUMPI POP PUSH1 0x2 PUSH0 DUP4 PUSH20 0xFFFFFFFFFFFFFFFFFFFFFFFFFFFFFFFFFFFFFFFF AND PUSH20 0xFFFFFFFFFFFFFFFFFFFFFFFFFFFFFFFFFFFFFFFF AND DUP2 MSTORE PUSH1 0x20 ADD SWAP1 DUP2 MSTORE PUSH1 0x20 ADD PUSH0 KECCAK256 PUSH0 SWAP1 SLOAD SWAP1 PUSH2 0x100 EXP SWAP1 DIV PUSH1 0xFF AND ISZERO JUMPDEST PUSH2 0x26BE JUMPI PUSH1 0x40 MLOAD PUSH32 0x8C379A000000000000000000000000000000000000000000000000000000000 DUP2 MSTORE PUSH1 0x4 ADD PUSH2 0x26B5 SWAP1 PUSH2 0x3CF1 JUMP JUMPDEST PUSH1 0x40 MLOAD DUP1 SWAP2 SUB SWAP1 REVERT JUMPDEST PUSH1 0x3 PUSH0 SWAP1 SLOAD SWAP1 PUSH2 0x100 EXP SWAP1 DIV PUSH1 0xFF AND DUP1 ISZERO PUSH2 0x2705 JUMPI POP PUSH0 PUSH20 0xFFFFFFFFFFFFFFFFFFFFFFFFFFFFFFFFFFFFFFFF AND DUP4 PUSH20 0xFFFFFFFFFFFFFFFFFFFFFFFFFFFFFFFFFFFFFFFF AND EQ ISZERO JUMPDEST DUP1 ISZERO PUSH2 0x273D JUMPI POP PUSH0 PUSH20 0xFFFFFFFFFFFFFFFFFFFFFFFFFFFFFFFFFFFFFFFF AND DUP3 PUSH20 0xFFFFFFFFFFFFFFFFFFFFFFFFFFFFFFFFFFFFFFFF AND EQ ISZERO JUMPDEST ISZERO PUSH2 0x2825 JUMPI PUSH2 0x276C PUSH32 0xFACAF2747A7486CF5730E9265973FB54447D3ACE6E7E4711F6360826B0731941 DUP5 PUSH2 0x139F JUMP JUMPDEST PUSH2 0x27AB JUMPI PUSH1 0x40 MLOAD PUSH32 0x8C379A000000000000000000000000000000000000000000000000000000000 DUP2 MSTORE PUSH1 0x4 ADD PUSH2 0x27A2 SWAP1 PUSH2 0x3D59 JUMP JUMPDEST PUSH1 0x40 MLOAD DUP1 SWAP2 SUB SWAP1 REVERT JUMPDEST PUSH2 0x27D5 PUSH32 0xFACAF2747A7486CF5730E9265973FB54447D3ACE6E7E4711F6360826B0731941 DUP4 PUSH2 0x139F JUMP JUMPDEST PUSH2 0x2824 JUMPI PUSH0 PUSH2 0x27E3 DUP4 PUSH2 0x1241 JUMP JUMPDEST EQ PUSH2 0x2823 JUMPI PUSH1 0x40 MLOAD PUSH32 0x8C379A000000000000000000000000000000000000000000000000000000000 DUP2 MSTORE PUSH1 0x4 ADD PUSH2 0x281A SWAP1 PUSH2 0x3DE7 JUMP JUMPDEST PUSH1 0x40 MLOAD DUP1 SWAP2 SUB SWAP1 REVERT JUMPDEST JUMPDEST JUMPDEST PUSH2 0x2830 DUP4 DUP4 DUP4 PUSH2 0x2BC6 JUMP JUMPDEST POP POP POP JUMP JUMPDEST PUSH2 0x283F DUP3 DUP3 PUSH2 0x139F JUMP JUMPDEST PUSH2 0x2882 JUMPI DUP1 DUP3 PUSH1 0x40 MLOAD PUSH32 0xE2517D3F00000000000000000000000000000000000000000000000000000000 DUP2 MSTORE PUSH1 0x4 ADD PUSH2 0x2879 SWAP3 SWAP2 SWAP1 PUSH2 0x3E05 JUMP JUMPDEST PUSH1 0x40 MLOAD DUP1 SWAP2 SUB SWAP1 REVERT JUMPDEST POP POP JUMP JUMPDEST PUSH2 0x288E PUSH2 0xF93 JUMP JUMPDEST PUSH2 0x28C4 JUMPI PUSH1 0x40 MLOAD PUSH32 0x8DFC202B00000000000000000000000000000000000000000000000000000000 DUP2 MSTORE PUSH1 0x4 ADD PUSH1 0x40 MLOAD DUP1 SWAP2 SUB SWAP1 REVERT JUMPDEST JUMP JUMPDEST PUSH0 PUSH32 0xF0C57E16840DF040F15088DC2F81FE391C3923BEC73E23A9662EFC9C229C6A00 PUSH0 SHL SWAP1 POP SWAP1 JUMP JUMPDEST PUSH2 0x28F7 PUSH2 0x2BDE JUMP JUMPDEST PUSH2 0x292D JUMPI PUSH1 0x40 MLOAD PUSH32 0xD7E6BCF800000000000000000000000000000000000000000000000000000000 DUP2 MSTORE PUSH1 0x4 ADD PUSH1 0x40 MLOAD DUP1 SWAP2 SUB SWAP1 REVERT JUMPDEST JUMP JUMPDEST PUSH2 0x2937 PUSH2 0x28EF JUMP JUMPDEST PUSH0 PUSH2 0x2940 PUSH2 0x1AA9 JUMP JUMPDEST SWAP1 POP DUP3 DUP2 PUSH1 0x3 ADD SWAP1 DUP2 PUSH2 0x2953 SWAP2 SWAP1 PUSH2 0x3E2C JUMP JUMPDEST POP DUP2 DUP2 PUSH1 0x4 ADD SWAP1 DUP2 PUSH2 0x2965 SWAP2 SWAP1 PUSH2 0x3E2C JUMP JUMPDEST POP POP POP POP JUMP JUMPDEST PUSH2 0x2973 PUSH2 0x28EF JUMP JUMPDEST PUSH0 PUSH20 0xFFFFFFFFFFFFFFFFFFFFFFFFFFFFFFFFFFFFFFFF AND DUP2 PUSH20 0xFFFFFFFFFFFFFFFFFFFFFFFFFFFFFFFFFFFFFFFF AND SUB PUSH2 0x29E3 JUMPI PUSH0 PUSH1 0x40 MLOAD PUSH32 0x1E4FBDF700000000000000000000000000000000000000000000000000000000 DUP2 MSTORE PUSH1 0x4 ADD PUSH2 0x29DA SWAP2 SWAP1 PUSH2 0x36EC JUMP JUMPDEST PUSH1 0x40 MLOAD DUP1 SWAP2 SUB SWAP1 REVERT JUMPDEST PUSH2 0x29EC DUP2 PUSH2 0x230A JUMP JUMPDEST POP JUMP JUMPDEST PUSH0 PUSH2 0x2A1B PUSH32 0x360894A13BA1A3210667C828492DB98DCA3E2076CC3735A920A3CA505D382BBC PUSH0 SHL PUSH2 0x2BFC JUMP JUMPDEST PUSH0 ADD PUSH0 SWAP1 SLOAD SWAP1 PUSH2 0x100 EXP SWAP1 DIV PUSH20 0xFFFFFFFFFFFFFFFFFFFFFFFFFFFFFFFFFFFFFFFF AND SWAP1 POP SWAP1 JUMP JUMPDEST PUSH2 0x2A4B DUP3 PUSH2 0x2C05 JUMP JUMPDEST DUP2 PUSH20 0xFFFFFFFFFFFFFFFFFFFFFFFFFFFFFFFFFFFFFFFF AND PUSH32 0xBC7CD75A20EE27FD9ADEBAB32041F755214DBC6BFFA90CC0225B39DA2E5C2D3B PUSH1 0x40 MLOAD PUSH1 0x40 MLOAD DUP1 SWAP2 SUB SWAP1 LOG2 PUSH0 DUP2 MLOAD GT ISZERO PUSH2 0x2AA7 JUMPI PUSH2 0x2AA1 DUP3 DUP3 PUSH2 0x2CCE JUMP JUMPDEST POP PUSH2 0x2AB0 JUMP JUMPDEST PUSH2 0x2AAF PUSH2 0x2DBF JUMP JUMPDEST JUMPDEST POP POP JUMP JUMPDEST PUSH0 PUSH2 0x2ABD PUSH2 0x23B6 JUMP JUMPDEST SWAP1 POP PUSH0 DUP2 PUSH0 ADD PUSH0 SWAP1 SLOAD SWAP1 PUSH2 0x100 EXP SWAP1 DIV PUSH20 0xFFFFFFFFFFFFFFFFFFFFFFFFFFFFFFFFFFFFFFFF AND SWAP1 POP DUP3 DUP3 PUSH0 ADD PUSH0 PUSH2 0x100 EXP DUP2 SLOAD DUP2 PUSH20 0xFFFFFFFFFFFFFFFFFFFFFFFFFFFFFFFFFFFFFFFF MUL NOT AND SWAP1 DUP4 PUSH20 0xFFFFFFFFFFFFFFFFFFFFFFFFFFFFFFFFFFFFFFFF AND MUL OR SWAP1 SSTORE POP DUP3 PUSH20 0xFFFFFFFFFFFFFFFFFFFFFFFFFFFFFFFFFFFFFFFF AND DUP2 PUSH20 0xFFFFFFFFFFFFFFFFFFFFFFFFFFFFFFFFFFFFFFFF AND PUSH32 0x8BE0079C531659141344CD1FD0A4F28419497F9722A3DAAFE3B4186F6B6457E0 PUSH1 0x40 MLOAD PUSH1 0x40 MLOAD DUP1 SWAP2 SUB SWAP1 LOG3 POP POP POP JUMP JUMPDEST PUSH2 0x2B8D PUSH2 0xF93 JUMP JUMPDEST ISZERO PUSH2 0x2BC4 JUMPI PUSH1 0x40 MLOAD PUSH32 0xD93C066500000000000000000000000000000000000000000000000000000000 DUP2 MSTORE PUSH1 0x4 ADD PUSH1 0x40 MLOAD DUP1 SWAP2 SUB SWAP1 REVERT JUMPDEST JUMP JUMPDEST PUSH2 0x2BCE PUSH2 0x2B85 JUMP JUMPDEST PUSH2 0x2BD9 DUP4 DUP4 DUP4 PUSH2 0x2DFB JUMP JUMPDEST POP POP POP JUMP JUMPDEST PUSH0 PUSH2 0x2BE7 PUSH2 0x1F6B JUMP JUMPDEST PUSH0 ADD PUSH1 0x8 SWAP1 SLOAD SWAP1 PUSH2 0x100 EXP SWAP1 DIV PUSH1 0xFF AND SWAP1 POP SWAP1 JUMP JUMPDEST PUSH0 DUP2 SWAP1 POP SWAP2 SWAP1 POP JUMP JUMPDEST PUSH0 DUP2 PUSH20 0xFFFFFFFFFFFFFFFFFFFFFFFFFFFFFFFFFFFFFFFF AND EXTCODESIZE SUB PUSH2 0x2C60 JUMPI DUP1 PUSH1 0x40 MLOAD PUSH32 0x4C9C8CE300000000000000000000000000000000000000000000000000000000 DUP2 MSTORE PUSH1 0x4 ADD PUSH2 0x2C57 SWAP2 SWAP1 PUSH2 0x36EC JUMP JUMPDEST PUSH1 0x40 MLOAD DUP1 SWAP2 SUB SWAP1 REVERT JUMPDEST DUP1 PUSH2 0x2C8C PUSH32 0x360894A13BA1A3210667C828492DB98DCA3E2076CC3735A920A3CA505D382BBC PUSH0 SHL PUSH2 0x2BFC JUMP JUMPDEST PUSH0 ADD PUSH0 PUSH2 0x100 EXP DUP2 SLOAD DUP2 PUSH20 0xFFFFFFFFFFFFFFFFFFFFFFFFFFFFFFFFFFFFFFFF MUL NOT AND SWAP1 DUP4 PUSH20 0xFFFFFFFFFFFFFFFFFFFFFFFFFFFFFFFFFFFFFFFF AND MUL OR SWAP1 SSTORE POP POP JUMP JUMPDEST PUSH1 0x60 PUSH0 PUSH2 0x2CDB DUP5 DUP5 PUSH2 0x302A JUMP JUMPDEST SWAP1 POP DUP1 DUP1 ISZERO PUSH2 0x2D11 JUMPI POP PUSH0 PUSH2 0x2CEE PUSH2 0x303E JUMP JUMPDEST GT DUP1 PUSH2 0x2D10 JUMPI POP PUSH0 DUP5 PUSH20 0xFFFFFFFFFFFFFFFFFFFFFFFFFFFFFFFFFFFFFFFF AND EXTCODESIZE GT JUMPDEST JUMPDEST ISZERO PUSH2 0x2D26 JUMPI PUSH2 0x2D1E PUSH2 0x3045 JUMP JUMPDEST SWAP2 POP POP PUSH2 0x2DB9 JUMP JUMPDEST DUP1 ISZERO PUSH2 0x2D69 JUMPI DUP4 PUSH1 0x40 MLOAD PUSH32 0x9996B31500000000000000000000000000000000000000000000000000000000 DUP2 MSTORE PUSH1 0x4 ADD PUSH2 0x2D60 SWAP2 SWAP1 PUSH2 0x36EC JUMP JUMPDEST PUSH1 0x40 MLOAD DUP1 SWAP2 SUB SWAP1 REVERT JUMPDEST PUSH0 PUSH2 0x2D72 PUSH2 0x303E JUMP JUMPDEST GT ISZERO PUSH2 0x2D85 JUMPI PUSH2 0x2D80 PUSH2 0x3062 JUMP JUMPDEST PUSH2 0x2DB7 JUMP JUMPDEST PUSH1 0x40 MLOAD PUSH32 0xD6BDA27500000000000000000000000000000000000000000000000000000000 DUP2 MSTORE PUSH1 0x4 ADD PUSH1 0x40 MLOAD DUP1 SWAP2 SUB SWAP1 REVERT JUMPDEST POP JUMPDEST SWAP3 SWAP2 POP POP JUMP JUMPDEST PUSH0 CALLVALUE GT ISZERO PUSH2 0x2DF9 JUMPI PUSH1 0x40 MLOAD PUSH32 0xB398979F00000000000000000000000000000000000000000000000000000000 DUP2 MSTORE PUSH1 0x4 ADD PUSH1 0x40 MLOAD DUP1 SWAP2 SUB SWAP1 REVERT JUMPDEST JUMP JUMPDEST PUSH0 PUSH2 0x2E04 PUSH2 0x1AA9 JUMP JUMPDEST SWAP1 POP PUSH0 PUSH20 0xFFFFFFFFFFFFFFFFFFFFFFFFFFFFFFFFFFFFFFFF AND DUP5 PUSH20 0xFFFFFFFFFFFFFFFFFFFFFFFFFFFFFFFFFFFFFFFF AND SUB PUSH2 0x2E58 JUMPI DUP2 DUP2 PUSH1 0x2 ADD PUSH0 DUP3 DUP3 SLOAD PUSH2 0x2E4C SWAP2 SWAP1 PUSH2 0x3F28 JUMP JUMPDEST SWAP3 POP POP DUP2 SWAP1 SSTORE POP PUSH2 0x2F2A JUMP JUMPDEST PUSH0 DUP2 PUSH0 ADD PUSH0 DUP7 PUSH20 0xFFFFFFFFFFFFFFFFFFFFFFFFFFFFFFFFFFFFFFFF AND PUSH20 0xFFFFFFFFFFFFFFFFFFFFFFFFFFFFFFFFFFFFFFFF AND DUP2 MSTORE PUSH1 0x20 ADD SWAP1 DUP2 MSTORE PUSH1 0x20 ADD PUSH0 KECCAK256 SLOAD SWAP1 POP DUP3 DUP2 LT ISZERO PUSH2 0x2EE3 JUMPI DUP5 DUP2 DUP5 PUSH1 0x40 MLOAD PUSH32 0xE450D38C00000000000000000000000000000000000000000000000000000000 DUP2 MSTORE PUSH1 0x4 ADD PUSH2 0x2EDA SWAP4 SWAP3 SWAP2 SWAP1 PUSH2 0x3C33 JUMP JUMPDEST PUSH1 0x40 MLOAD DUP1 SWAP2 SUB SWAP1 REVERT JUMPDEST DUP3 DUP2 SUB DUP3 PUSH0 ADD PUSH0 DUP8 PUSH20 0xFFFFFFFFFFFFFFFFFFFFFFFFFFFFFFFFFFFFFFFF AND PUSH20 0xFFFFFFFFFFFFFFFFFFFFFFFFFFFFFFFFFFFFFFFF AND DUP2 MSTORE PUSH1 0x20 ADD SWAP1 DUP2 MSTORE PUSH1 0x20 ADD PUSH0 KECCAK256 DUP2 SWAP1 SSTORE POP POP JUMPDEST PUSH0 PUSH20 0xFFFFFFFFFFFFFFFFFFFFFFFFFFFFFFFFFFFFFFFF AND DUP4 PUSH20 0xFFFFFFFFFFFFFFFFFFFFFFFFFFFFFFFFFFFFFFFF AND SUB PUSH2 0x2F73 JUMPI DUP2 DUP2 PUSH1 0x2 ADD PUSH0 DUP3 DUP3 SLOAD SUB SWAP3 POP POP DUP2 SWAP1 SSTORE POP PUSH2 0x2FBF JUMP JUMPDEST DUP2 DUP2 PUSH0 ADD PUSH0 DUP6 PUSH20 0xFFFFFFFFFFFFFFFFFFFFFFFFFFFFFFFFFFFFFFFF AND PUSH20 0xFFFFFFFFFFFFFFFFFFFFFFFFFFFFFFFFFFFFFFFF AND DUP2 MSTORE PUSH1 0x20 ADD SWAP1 DUP2 MSTORE PUSH1 0x20 ADD PUSH0 KECCAK256 PUSH0 DUP3 DUP3 SLOAD ADD SWAP3 POP POP DUP2 SWAP1 SSTORE POP JUMPDEST DUP3 PUSH20 0xFFFFFFFFFFFFFFFFFFFFFFFFFFFFFFFFFFFFFFFF AND DUP5 PUSH20 0xFFFFFFFFFFFFFFFFFFFFFFFFFFFFFFFFFFFFFFFF AND PUSH32 0xDDF252AD1BE2C89B69C2B068FC378DAA952BA7F163C4A11628F55A4DF523B3EF DUP5 PUSH1 0x40 MLOAD PUSH2 0x301C SWAP2 SWAP1 PUSH2 0x32CC JUMP JUMPDEST PUSH1 0x40 MLOAD DUP1 SWAP2 SUB SWAP1 LOG3 POP POP POP POP JUMP JUMPDEST PUSH0 PUSH0 PUSH0 DUP4 MLOAD PUSH1 0x20 DUP6 ADD DUP7 GAS DELEGATECALL SWAP1 POP SWAP3 SWAP2 POP POP JUMP JUMPDEST PUSH0 RETURNDATASIZE SWAP1 POP SWAP1 JUMP JUMPDEST PUSH1 0x60 PUSH1 0x40 MLOAD SWAP1 POP RETURNDATASIZE DUP2 MSTORE RETURNDATASIZE PUSH0 PUSH1 0x20 DUP4 ADD RETURNDATACOPY RETURNDATASIZE PUSH1 0x20 ADD DUP2 ADD PUSH1 0x40 MSTORE SWAP1 JUMP JUMPDEST PUSH1 0x40 MLOAD RETURNDATASIZE PUSH0 DUP3 RETURNDATACOPY RETURNDATASIZE DUP2 REVERT JUMPDEST PUSH0 PUSH1 0x40 MLOAD SWAP1 POP SWAP1 JUMP JUMPDEST PUSH0 PUSH0 REVERT JUMPDEST PUSH0 PUSH0 REVERT JUMPDEST PUSH0 PUSH32 0xFFFFFFFF00000000000000000000000000000000000000000000000000000000 DUP3 AND SWAP1 POP SWAP2 SWAP1 POP JUMP JUMPDEST PUSH2 0x30B2 DUP2 PUSH2 0x307E JUMP JUMPDEST DUP2 EQ PUSH2 0x30BC JUMPI PUSH0 PUSH0 REVERT JUMPDEST POP JUMP JUMPDEST PUSH0 DUP2 CALLDATALOAD SWAP1 POP PUSH2 0x30CD DUP2 PUSH2 0x30A9 JUMP JUMPDEST SWAP3 SWAP2 POP POP JUMP JUMPDEST PUSH0 PUSH1 0x20 DUP3 DUP5 SUB SLT ISZERO PUSH2 0x30E8 JUMPI PUSH2 0x30E7 PUSH2 0x3076 JUMP JUMPDEST JUMPDEST PUSH0 PUSH2 0x30F5 DUP5 DUP3 DUP6 ADD PUSH2 0x30BF JUMP JUMPDEST SWAP2 POP POP SWAP3 SWAP2 POP POP JUMP JUMPDEST PUSH0 DUP2 ISZERO ISZERO SWAP1 POP SWAP2 SWAP1 POP JUMP JUMPDEST PUSH2 0x3112 DUP2 PUSH2 0x30FE JUMP JUMPDEST DUP3 MSTORE POP POP JUMP JUMPDEST PUSH0 PUSH1 0x20 DUP3 ADD SWAP1 POP PUSH2 0x312B PUSH0 DUP4 ADD DUP5 PUSH2 0x3109 JUMP JUMPDEST SWAP3 SWAP2 POP POP JUMP JUMPDEST PUSH0 DUP2 SWAP1 POP SWAP2 SWAP1 POP JUMP JUMPDEST PUSH2 0x3143 DUP2 PUSH2 0x3131 JUMP JUMPDEST DUP3 MSTORE POP POP JUMP JUMPDEST PUSH0 PUSH1 0x20 DUP3 ADD SWAP1 POP PUSH2 0x315C PUSH0 DUP4 ADD DUP5 PUSH2 0x313A JUMP JUMPDEST SWAP3 SWAP2 POP POP JUMP JUMPDEST PUSH0 DUP2 MLOAD SWAP1 POP SWAP2 SWAP1 POP JUMP JUMPDEST PUSH0 DUP3 DUP3 MSTORE PUSH1 0x20 DUP3 ADD SWAP1 POP SWAP3 SWAP2 POP POP JUMP JUMPDEST DUP3 DUP2 DUP4 MCOPY PUSH0 DUP4 DUP4 ADD MSTORE POP POP POP JUMP JUMPDEST PUSH0 PUSH1 0x1F NOT PUSH1 0x1F DUP4 ADD AND SWAP1 POP SWAP2 SWAP1 POP JUMP JUMPDEST PUSH0 PUSH2 0x31A4 DUP3 PUSH2 0x3162 JUMP JUMPDEST PUSH2 0x31AE DUP2 DUP6 PUSH2 0x316C JUMP JUMPDEST SWAP4 POP PUSH2 0x31BE DUP2 DUP6 PUSH1 0x20 DUP7 ADD PUSH2 0x317C JUMP JUMPDEST PUSH2 0x31C7 DUP2 PUSH2 0x318A JUMP JUMPDEST DUP5 ADD SWAP2 POP POP SWAP3 SWAP2 POP POP JUMP JUMPDEST PUSH0 PUSH1 0x20 DUP3 ADD SWAP1 POP DUP2 DUP2 SUB PUSH0 DUP4 ADD MSTORE PUSH2 0x31EA DUP2 DUP5 PUSH2 0x319A JUMP JUMPDEST SWAP1 POP SWAP3 SWAP2 POP POP JUMP JUMPDEST PUSH0 PUSH20 0xFFFFFFFFFFFFFFFFFFFFFFFFFFFFFFFFFFFFFFFF DUP3 AND SWAP1 POP SWAP2 SWAP1 POP JUMP JUMPDEST PUSH0 PUSH2 0x321B DUP3 PUSH2 0x31F2 JUMP JUMPDEST SWAP1 POP SWAP2 SWAP1 POP JUMP JUMPDEST PUSH2 0x322B DUP2 PUSH2 0x3211 JUMP JUMPDEST DUP2 EQ PUSH2 0x3235 JUMPI PUSH0 PUSH0 REVERT JUMPDEST POP JUMP JUMPDEST PUSH0 DUP2 CALLDATALOAD SWAP1 POP PUSH2 0x3246 DUP2 PUSH2 0x3222 JUMP JUMPDEST SWAP3 SWAP2 POP POP JUMP JUMPDEST PUSH0 DUP2 SWAP1 POP SWAP2 SWAP1 POP JUMP JUMPDEST PUSH2 0x325E DUP2 PUSH2 0x324C JUMP JUMPDEST DUP2 EQ PUSH2 0x3268 JUMPI PUSH0 PUSH0 REVERT JUMPDEST POP JUMP JUMPDEST PUSH0 DUP2 CALLDATALOAD SWAP1 POP PUSH2 0x3279 DUP2 PUSH2 0x3255 JUMP JUMPDEST SWAP3 SWAP2 POP POP JUMP JUMPDEST PUSH0 PUSH0 PUSH1 0x40 DUP4 DUP6 SUB SLT ISZERO PUSH2 0x3295 JUMPI PUSH2 0x3294 PUSH2 0x3076 JUMP JUMPDEST JUMPDEST PUSH0 PUSH2 0x32A2 DUP6 DUP3 DUP7 ADD PUSH2 0x3238 JUMP JUMPDEST SWAP3 POP POP PUSH1 0x20 PUSH2 0x32B3 DUP6 DUP3 DUP7 ADD PUSH2 0x326B JUMP JUMPDEST SWAP2 POP POP SWAP3 POP SWAP3 SWAP1 POP JUMP JUMPDEST PUSH2 0x32C6 DUP2 PUSH2 0x324C JUMP JUMPDEST DUP3 MSTORE POP POP JUMP JUMPDEST PUSH0 PUSH1 0x20 DUP3 ADD SWAP1 POP PUSH2 0x32DF PUSH0 DUP4 ADD DUP5 PUSH2 0x32BD JUMP JUMPDEST SWAP3 SWAP2 POP POP JUMP JUMPDEST PUSH0 PUSH0 PUSH0 PUSH1 0x60 DUP5 DUP7 SUB SLT ISZERO PUSH2 0x32FC JUMPI PUSH2 0x32FB PUSH2 0x3076 JUMP JUMPDEST JUMPDEST PUSH0 PUSH2 0x3309 DUP7 DUP3 DUP8 ADD PUSH2 0x3238 JUMP JUMPDEST SWAP4 POP POP PUSH1 0x20 PUSH2 0x331A DUP7 DUP3 DUP8 ADD PUSH2 0x3238 JUMP JUMPDEST SWAP3 POP POP PUSH1 0x40 PUSH2 0x332B DUP7 DUP3 DUP8 ADD PUSH2 0x326B JUMP JUMPDEST SWAP2 POP POP SWAP3 POP SWAP3 POP SWAP3 JUMP JUMPDEST PUSH2 0x333E DUP2 PUSH2 0x3131 JUMP JUMPDEST DUP2 EQ PUSH2 0x3348 JUMPI PUSH0 PUSH0 REVERT JUMPDEST POP JUMP JUMPDEST PUSH0 DUP2 CALLDATALOAD SWAP1 POP PUSH2 0x3359 DUP2 PUSH2 0x3335 JUMP JUMPDEST SWAP3 SWAP2 POP POP JUMP JUMPDEST PUSH0 PUSH1 0x20 DUP3 DUP5 SUB SLT ISZERO PUSH2 0x3374 JUMPI PUSH2 0x3373 PUSH2 0x3076 JUMP JUMPDEST JUMPDEST PUSH0 PUSH2 0x3381 DUP5 DUP3 DUP6 ADD PUSH2 0x334B JUMP JUMPDEST SWAP2 POP POP SWAP3 SWAP2 POP POP JUMP JUMPDEST PUSH2 0x3393 DUP2 PUSH2 0x30FE JUMP JUMPDEST DUP2 EQ PUSH2 0x339D JUMPI PUSH0 PUSH0 REVERT JUMPDEST POP JUMP JUMPDEST PUSH0 DUP2 CALLDATALOAD SWAP1 POP PUSH2 0x33AE DUP2 PUSH2 0x338A JUMP JUMPDEST SWAP3 SWAP2 POP POP JUMP JUMPDEST PUSH0 PUSH1 0x20 DUP3 DUP5 SUB SLT ISZERO PUSH2 0x33C9 JUMPI PUSH2 0x33C8 PUSH2 0x3076 JUMP JUMPDEST JUMPDEST PUSH0 PUSH2 0x33D6 DUP5 DUP3 DUP6 ADD PUSH2 0x33A0 JUMP JUMPDEST SWAP2 POP POP SWAP3 SWAP2 POP POP JUMP JUMPDEST PUSH0 PUSH0 PUSH1 0x40 DUP4 DUP6 SUB SLT ISZERO PUSH2 0x33F5 JUMPI PUSH2 0x33F4 PUSH2 0x3076 JUMP JUMPDEST JUMPDEST PUSH0 PUSH2 0x3402 DUP6 DUP3 DUP7 ADD PUSH2 0x334B JUMP JUMPDEST SWAP3 POP POP PUSH1 0x20 PUSH2 0x3413 DUP6 DUP3 DUP7 ADD PUSH2 0x3238 JUMP JUMPDEST SWAP2 POP POP SWAP3 POP SWAP3 SWAP1 POP JUMP JUMPDEST PUSH0 PUSH1 0xFF DUP3 AND SWAP1 POP SWAP2 SWAP1 POP JUMP JUMPDEST PUSH2 0x3432 DUP2 PUSH2 0x341D JUMP JUMPDEST DUP3 MSTORE POP POP JUMP JUMPDEST PUSH0 PUSH1 0x20 DUP3 ADD SWAP1 POP PUSH2 0x344B PUSH0 DUP4 ADD DUP5 PUSH2 0x3429 JUMP JUMPDEST SWAP3 SWAP2 POP POP JUMP JUMPDEST PUSH0 PUSH0 REVERT JUMPDEST PUSH0 PUSH0 REVERT JUMPDEST PUSH0 PUSH0 REVERT JUMPDEST PUSH0 PUSH0 DUP4 PUSH1 0x1F DUP5 ADD SLT PUSH2 0x3472 JUMPI PUSH2 0x3471 PUSH2 0x3451 JUMP JUMPDEST JUMPDEST DUP3 CALLDATALOAD SWAP1 POP PUSH8 0xFFFFFFFFFFFFFFFF DUP2 GT ISZERO PUSH2 0x348F JUMPI PUSH2 0x348E PUSH2 0x3455 JUMP JUMPDEST JUMPDEST PUSH1 0x20 DUP4 ADD SWAP2 POP DUP4 PUSH1 0x1 DUP3 MUL DUP4 ADD GT ISZERO PUSH2 0x34AB JUMPI PUSH2 0x34AA PUSH2 0x3459 JUMP JUMPDEST JUMPDEST SWAP3 POP SWAP3 SWAP1 POP JUMP JUMPDEST PUSH0 PUSH0 PUSH0 PUSH0 PUSH1 0x40 DUP6 DUP8 SUB SLT ISZERO PUSH2 0x34CA JUMPI PUSH2 0x34C9 PUSH2 0x3076 JUMP JUMPDEST JUMPDEST PUSH0 DUP6 ADD CALLDATALOAD PUSH8 0xFFFFFFFFFFFFFFFF DUP2 GT ISZERO PUSH2 0x34E7 JUMPI PUSH2 0x34E6 PUSH2 0x307A JUMP JUMPDEST JUMPDEST PUSH2 0x34F3 DUP8 DUP3 DUP9 ADD PUSH2 0x345D JUMP JUMPDEST SWAP5 POP SWAP5 POP POP PUSH1 0x20 DUP6 ADD CALLDATALOAD PUSH8 0xFFFFFFFFFFFFFFFF DUP2 GT ISZERO PUSH2 0x3516 JUMPI PUSH2 0x3515 PUSH2 0x307A JUMP JUMPDEST JUMPDEST PUSH2 0x3522 DUP8 DUP3 DUP9 ADD PUSH2 0x345D JUMP JUMPDEST SWAP3 POP SWAP3 POP POP SWAP3 SWAP6 SWAP2 SWAP5 POP SWAP3 POP JUMP JUMPDEST PUSH0 PUSH0 REVERT JUMPDEST PUSH32 0x4E487B7100000000000000000000000000000000000000000000000000000000 PUSH0 MSTORE PUSH1 0x41 PUSH1 0x4 MSTORE PUSH1 0x24 PUSH0 REVERT JUMPDEST PUSH2 0x356A DUP3 PUSH2 0x318A JUMP JUMPDEST DUP2 ADD DUP2 DUP2 LT PUSH8 0xFFFFFFFFFFFFFFFF DUP3 GT OR ISZERO PUSH2 0x3589 JUMPI PUSH2 0x3588 PUSH2 0x3534 JUMP JUMPDEST JUMPDEST DUP1 PUSH1 0x40 MSTORE POP POP POP JUMP JUMPDEST PUSH0 PUSH2 0x359B PUSH2 0x306D JUMP JUMPDEST SWAP1 POP PUSH2 0x35A7 DUP3 DUP3 PUSH2 0x3561 JUMP JUMPDEST SWAP2 SWAP1 POP JUMP JUMPDEST PUSH0 PUSH8 0xFFFFFFFFFFFFFFFF DUP3 GT ISZERO PUSH2 0x35C6 JUMPI PUSH2 0x35C5 PUSH2 0x3534 JUMP JUMPDEST JUMPDEST PUSH2 0x35CF DUP3 PUSH2 0x318A JUMP JUMPDEST SWAP1 POP PUSH1 0x20 DUP2 ADD SWAP1 POP SWAP2 SWAP1 POP JUMP JUMPDEST DUP3 DUP2 DUP4 CALLDATACOPY PUSH0 DUP4 DUP4 ADD MSTORE POP POP POP JUMP JUMPDEST PUSH0 PUSH2 0x35FC PUSH2 0x35F7 DUP5 PUSH2 0x35AC JUMP JUMPDEST PUSH2 0x3592 JUMP JUMPDEST SWAP1 POP DUP3 DUP2 MSTORE PUSH1 0x20 DUP2 ADD DUP5 DUP5 DUP5 ADD GT ISZERO PUSH2 0x3618 JUMPI PUSH2 0x3617 PUSH2 0x3530 JUMP JUMPDEST JUMPDEST PUSH2 0x3623 DUP5 DUP3 DUP6 PUSH2 0x35DC JUMP JUMPDEST POP SWAP4 SWAP3 POP POP POP JUMP JUMPDEST PUSH0 DUP3 PUSH1 0x1F DUP4 ADD SLT PUSH2 0x363F JUMPI PUSH2 0x363E PUSH2 0x3451 JUMP JUMPDEST JUMPDEST DUP2 CALLDATALOAD PUSH2 0x364F DUP5 DUP3 PUSH1 0x20 DUP7 ADD PUSH2 0x35EA JUMP JUMPDEST SWAP2 POP POP SWAP3 SWAP2 POP POP JUMP JUMPDEST PUSH0 PUSH0 PUSH1 0x40 DUP4 DUP6 SUB SLT ISZERO PUSH2 0x366E JUMPI PUSH2 0x366D PUSH2 0x3076 JUMP JUMPDEST JUMPDEST PUSH0 PUSH2 0x367B DUP6 DUP3 DUP7 ADD PUSH2 0x3238 JUMP JUMPDEST SWAP3 POP POP PUSH1 0x20 DUP4 ADD CALLDATALOAD PUSH8 0xFFFFFFFFFFFFFFFF DUP2 GT ISZERO PUSH2 0x369C JUMPI PUSH2 0x369B PUSH2 0x307A JUMP JUMPDEST JUMPDEST PUSH2 0x36A8 DUP6 DUP3 DUP7 ADD PUSH2 0x362B JUMP JUMPDEST SWAP2 POP POP SWAP3 POP SWAP3 SWAP1 POP JUMP JUMPDEST PUSH0 PUSH1 0x20 DUP3 DUP5 SUB SLT ISZERO PUSH2 0x36C7 JUMPI PUSH2 0x36C6 PUSH2 0x3076 JUMP JUMPDEST JUMPDEST PUSH0 PUSH2 0x36D4 DUP5 DUP3 DUP6 ADD PUSH2 0x3238 JUMP JUMPDEST SWAP2 POP POP SWAP3 SWAP2 POP POP JUMP JUMPDEST PUSH2 0x36E6 DUP2 PUSH2 0x3211 JUMP JUMPDEST DUP3 MSTORE POP POP JUMP JUMPDEST PUSH0 PUSH1 0x20 DUP3 ADD SWAP1 POP PUSH2 0x36FF PUSH0 DUP4 ADD DUP5 PUSH2 0x36DD JUMP JUMPDEST SWAP3 SWAP2 POP POP JUMP JUMPDEST PUSH0 PUSH0 PUSH1 0x20 DUP4 DUP6 SUB SLT ISZERO PUSH2 0x371B JUMPI PUSH2 0x371A PUSH2 0x3076 JUMP JUMPDEST JUMPDEST PUSH0 DUP4 ADD CALLDATALOAD PUSH8 0xFFFFFFFFFFFFFFFF DUP2 GT ISZERO PUSH2 0x3738 JUMPI PUSH2 0x3737 PUSH2 0x307A JUMP JUMPDEST JUMPDEST PUSH2 0x3744 DUP6 DUP3 DUP7 ADD PUSH2 0x345D JUMP JUMPDEST SWAP3 POP SWAP3 POP POP SWAP3 POP SWAP3 SWAP1 POP JUMP JUMPDEST PUSH0 PUSH0 PUSH1 0x40 DUP4 DUP6 SUB SLT ISZERO PUSH2 0x3766 JUMPI PUSH2 0x3765 PUSH2 0x3076 JUMP JUMPDEST JUMPDEST PUSH0 PUSH2 0x3773 DUP6 DUP3 DUP7 ADD PUSH2 0x3238 JUMP JUMPDEST SWAP3 POP POP PUSH1 0x20 PUSH2 0x3784 DUP6 DUP3 DUP7 ADD PUSH2 0x3238 JUMP JUMPDEST SWAP2 POP POP SWAP3 POP SWAP3 SWAP1 POP JUMP JUMPDEST PUSH32 0x4E487B7100000000000000000000000000000000000000000000000000000000 PUSH0 MSTORE PUSH1 0x22 PUSH1 0x4 MSTORE PUSH1 0x24 PUSH0 REVERT JUMPDEST PUSH0 PUSH1 0x2 DUP3 DIV SWAP1 POP PUSH1 0x1 DUP3 AND DUP1 PUSH2 0x37D2 JUMPI PUSH1 0x7F DUP3 AND SWAP2 POP JUMPDEST PUSH1 0x20 DUP3 LT DUP2 SUB PUSH2 0x37E5 JUMPI PUSH2 0x37E4 PUSH2 0x378E JUMP JUMPDEST JUMPDEST POP SWAP2 SWAP1 POP JUMP JUMPDEST PUSH0 DUP3 SWAP1 POP SWAP3 SWAP2 POP POP JUMP JUMPDEST PUSH0 DUP2 SWAP1 POP DUP2 PUSH0 MSTORE PUSH1 0x20 PUSH0 KECCAK256 SWAP1 POP SWAP2 SWAP1 POP JUMP JUMPDEST PUSH0 PUSH1 0x20 PUSH1 0x1F DUP4 ADD DIV SWAP1 POP SWAP2 SWAP1 POP JUMP JUMPDEST PUSH0 DUP3 DUP3 SHL SWAP1 POP SWAP3 SWAP2 POP POP JUMP JUMPDEST PUSH0 PUSH1 0x8 DUP4 MUL PUSH2 0x3851 PUSH32 0xFFFFFFFFFFFFFFFFFFFFFFFFFFFFFFFFFFFFFFFFFFFFFFFFFFFFFFFFFFFFFFFF DUP3 PUSH2 0x3816 JUMP JUMPDEST PUSH2 0x385B DUP7 DUP4 PUSH2 0x3816 JUMP JUMPDEST SWAP6 POP DUP1 NOT DUP5 AND SWAP4 POP DUP1 DUP7 AND DUP5 OR SWAP3 POP POP POP SWAP4 SWAP3 POP POP POP JUMP JUMPDEST PUSH0 DUP2 SWAP1 POP SWAP2 SWAP1 POP JUMP JUMPDEST PUSH0 PUSH2 0x3896 PUSH2 0x3891 PUSH2 0x388C DUP5 PUSH2 0x324C JUMP JUMPDEST PUSH2 0x3873 JUMP JUMPDEST PUSH2 0x324C JUMP JUMPDEST SWAP1 POP SWAP2 SWAP1 POP JUMP JUMPDEST PUSH0 DUP2 SWAP1 POP SWAP2 SWAP1 POP JUMP JUMPDEST PUSH2 0x38AF DUP4 PUSH2 0x387C JUMP JUMPDEST PUSH2 0x38C3 PUSH2 0x38BB DUP3 PUSH2 0x389D JUMP JUMPDEST DUP5 DUP5 SLOAD PUSH2 0x3822 JUMP JUMPDEST DUP3 SSTORE POP POP POP POP JUMP JUMPDEST PUSH0 PUSH0 SWAP1 POP SWAP1 JUMP JUMPDEST PUSH2 0x38DA PUSH2 0x38CB JUMP JUMPDEST PUSH2 0x38E5 DUP2 DUP5 DUP5 PUSH2 0x38A6 JUMP JUMPDEST POP POP POP JUMP JUMPDEST PUSH0 JUMPDEST DUP3 DUP2 LT ISZERO PUSH2 0x390B JUMPI PUSH2 0x3900 PUSH0 DUP3 DUP5 ADD PUSH2 0x38D2 JUMP JUMPDEST PUSH1 0x1 DUP2 ADD SWAP1 POP PUSH2 0x38EC JUMP JUMPDEST POP POP POP JUMP JUMPDEST PUSH1 0x1F DUP3 GT ISZERO PUSH2 0x395E JUMPI DUP3 DUP3 GT ISZERO PUSH2 0x395D JUMPI PUSH2 0x392A DUP2 PUSH2 0x37F5 JUMP JUMPDEST PUSH2 0x3933 DUP4 PUSH2 0x3807 JUMP JUMPDEST PUSH2 0x393C DUP6 PUSH2 0x3807 JUMP JUMPDEST PUSH1 0x20 DUP7 LT ISZERO PUSH2 0x3949 JUMPI PUSH0 SWAP1 POP JUMPDEST DUP1 DUP4 ADD PUSH2 0x3958 DUP3 DUP5 SUB DUP3 PUSH2 0x38EA JUMP JUMPDEST POP POP POP POP JUMPDEST JUMPDEST POP POP POP JUMP JUMPDEST PUSH0 DUP3 DUP3 SHR SWAP1 POP SWAP3 SWAP2 POP POP JUMP JUMPDEST PUSH0 PUSH2 0x397E PUSH0 NOT DUP5 PUSH1 0x8 MUL PUSH2 0x3963 JUMP JUMPDEST NOT DUP1 DUP4 AND SWAP2 POP POP SWAP3 SWAP2 POP POP JUMP JUMPDEST PUSH0 PUSH2 0x3996 DUP4 DUP4 PUSH2 0x396F JUMP JUMPDEST SWAP2 POP DUP3 PUSH1 0x2 MUL DUP3 OR SWAP1 POP SWAP3 SWAP2 POP POP JUMP JUMPDEST PUSH2 0x39B0 DUP4 DUP4 PUSH2 0x37EB JUMP JUMPDEST PUSH8 0xFFFFFFFFFFFFFFFF DUP2 GT ISZERO PUSH2 0x39C9 JUMPI PUSH2 0x39C8 PUSH2 0x3534 JUMP JUMPDEST JUMPDEST PUSH2 0x39D3 DUP3 SLOAD PUSH2 0x37BB JUMP JUMPDEST PUSH2 0x39DE DUP3 DUP3 DUP6 PUSH2 0x3910 JUMP JUMPDEST PUSH0 PUSH1 0x1F DUP4 GT PUSH1 0x1 DUP2 EQ PUSH2 0x3A0B JUMPI PUSH0 DUP5 ISZERO PUSH2 0x39F9 JUMPI DUP3 DUP8 ADD CALLDATALOAD SWAP1 POP JUMPDEST PUSH2 0x3A03 DUP6 DUP3 PUSH2 0x398B JUMP JUMPDEST DUP7 SSTORE POP PUSH2 0x3A6A JUMP JUMPDEST PUSH1 0x1F NOT DUP5 AND PUSH2 0x3A19 DUP7 PUSH2 0x37F5 JUMP JUMPDEST PUSH0 JUMPDEST DUP3 DUP2 LT ISZERO PUSH2 0x3A40 JUMPI DUP5 DUP10 ADD CALLDATALOAD DUP3 SSTORE PUSH1 0x1 DUP3 ADD SWAP2 POP PUSH1 0x20 DUP6 ADD SWAP5 POP PUSH1 0x20 DUP2 ADD SWAP1 POP PUSH2 0x3A1B JUMP JUMPDEST DUP7 DUP4 LT ISZERO PUSH2 0x3A5D JUMPI DUP5 DUP10 ADD CALLDATALOAD PUSH2 0x3A59 PUSH1 0x1F DUP10 AND DUP3 PUSH2 0x396F JUMP JUMPDEST DUP4 SSTORE POP JUMPDEST PUSH1 0x1 PUSH1 0x2 DUP9 MUL ADD DUP9 SSTORE POP POP POP JUMPDEST POP POP POP POP POP POP POP JUMP JUMPDEST PUSH0 DUP2 SWAP1 POP SWAP2 SWAP1 POP JUMP JUMPDEST PUSH0 PUSH8 0xFFFFFFFFFFFFFFFF DUP3 AND SWAP1 POP SWAP2 SWAP1 POP JUMP JUMPDEST PUSH0 PUSH2 0x3AA9 PUSH2 0x3AA4 PUSH2 0x3A9F DUP5 PUSH2 0x3A73 JUMP JUMPDEST PUSH2 0x3873 JUMP JUMPDEST PUSH2 0x3A7C JUMP JUMPDEST SWAP1 POP SWAP2 SWAP1 POP JUMP JUMPDEST PUSH2 0x3AB9 DUP2 PUSH2 0x3A8F JUMP JUMPDEST DUP3 MSTORE POP POP JUMP JUMPDEST PUSH0 PUSH1 0x20 DUP3 ADD SWAP1 POP PUSH2 0x3AD2 PUSH0 DUP4 ADD DUP5 PUSH2 0x3AB0 JUMP JUMPDEST SWAP3 SWAP2 POP POP JUMP JUMPDEST PUSH2 0x3AE1 DUP2 PUSH2 0x3A7C JUMP JUMPDEST DUP3 MSTORE POP POP JUMP JUMPDEST PUSH0 PUSH1 0x20 DUP3 ADD SWAP1 POP PUSH2 0x3AFA PUSH0 DUP4 ADD DUP5 PUSH2 0x3AD8 JUMP JUMPDEST SWAP3 SWAP2 POP POP JUMP JUMPDEST PUSH32 0x4E6F742066726F7A656E00000000000000000000000000000000000000000000 PUSH0 DUP3 ADD MSTORE POP JUMP JUMPDEST PUSH0 PUSH2 0x3B34 PUSH1 0xA DUP4 PUSH2 0x316C JUMP JUMPDEST SWAP2 POP PUSH2 0x3B3F DUP3 PUSH2 0x3B00 JUMP JUMPDEST PUSH1 0x20 DUP3 ADD SWAP1 POP SWAP2 SWAP1 POP JUMP JUMPDEST PUSH0 PUSH1 0x20 DUP3 ADD SWAP1 POP DUP2 DUP2 SUB PUSH0 DUP4 ADD MSTORE PUSH2 0x3B61 DUP2 PUSH2 0x3B28 JUMP JUMPDEST SWAP1 POP SWAP2 SWAP1 POP JUMP JUMPDEST PUSH32 0x416C72656164792066726F7A656E000000000000000000000000000000000000 PUSH0 DUP3 ADD MSTORE POP JUMP JUMPDEST PUSH0 PUSH2 0x3B9C PUSH1 0xE DUP4 PUSH2 0x316C JUMP JUMPDEST SWAP2 POP PUSH2 0x3BA7 DUP3 PUSH2 0x3B68 JUMP JUMPDEST PUSH1 0x20 DUP3 ADD SWAP1 POP SWAP2 SWAP1 POP JUMP JUMPDEST PUSH0 PUSH1 0x20 DUP3 ADD SWAP1 POP DUP2 DUP2 SUB PUSH0 DUP4 ADD MSTORE PUSH2 0x3BC9 DUP2 PUSH2 0x3B90 JUMP JUMPDEST SWAP1 POP SWAP2 SWAP1 POP JUMP JUMPDEST PUSH0 PUSH2 0x3BDB DUP4 DUP6 PUSH2 0x316C JUMP JUMPDEST SWAP4 POP PUSH2 0x3BE8 DUP4 DUP6 DUP5 PUSH2 0x35DC JUMP JUMPDEST PUSH2 0x3BF1 DUP4 PUSH2 0x318A JUMP JUMPDEST DUP5 ADD SWAP1 POP SWAP4 SWAP3 POP POP POP JUMP JUMPDEST PUSH0 PUSH1 0x40 DUP3 ADD SWAP1 POP DUP2 DUP2 SUB PUSH0 DUP4 ADD MSTORE PUSH2 0x3C14 DUP2 DUP7 PUSH2 0x319A JUMP JUMPDEST SWAP1 POP DUP2 DUP2 SUB PUSH1 0x20 DUP4 ADD MSTORE PUSH2 0x3C29 DUP2 DUP5 DUP7 PUSH2 0x3BD0 JUMP JUMPDEST SWAP1 POP SWAP5 SWAP4 POP POP POP POP JUMP JUMPDEST PUSH0 PUSH1 0x60 DUP3 ADD SWAP1 POP PUSH2 0x3C46 PUSH0 DUP4 ADD DUP7 PUSH2 0x36DD JUMP JUMPDEST PUSH2 0x3C53 PUSH1 0x20 DUP4 ADD DUP6 PUSH2 0x32BD JUMP JUMPDEST PUSH2 0x3C60 PUSH1 0x40 DUP4 ADD DUP5 PUSH2 0x32BD JUMP JUMPDEST SWAP5 SWAP4 POP POP POP POP JUMP JUMPDEST PUSH0 DUP2 MLOAD SWAP1 POP PUSH2 0x3C76 DUP2 PUSH2 0x3335 JUMP JUMPDEST SWAP3 SWAP2 POP POP JUMP JUMPDEST PUSH0 PUSH1 0x20 DUP3 DUP5 SUB SLT ISZERO PUSH2 0x3C91 JUMPI PUSH2 0x3C90 PUSH2 0x3076 JUMP JUMPDEST JUMPDEST PUSH0 PUSH2 0x3C9E DUP5 DUP3 DUP6 ADD PUSH2 0x3C68 JUMP JUMPDEST SWAP2 POP POP SWAP3 SWAP2 POP POP JUMP JUMPDEST PUSH32 0x57616C6C65742069732066726F7A656E00000000000000000000000000000000 PUSH0 DUP3 ADD MSTORE POP JUMP JUMPDEST PUSH0 PUSH2 0x3CDB PUSH1 0x10 DUP4 PUSH2 0x316C JUMP JUMPDEST SWAP2 POP PUSH2 0x3CE6 DUP3 PUSH2 0x3CA7 JUMP JUMPDEST PUSH1 0x20 DUP3 ADD SWAP1 POP SWAP2 SWAP1 POP JUMP JUMPDEST PUSH0 PUSH1 0x20 DUP3 ADD SWAP1 POP DUP2 DUP2 SUB PUSH0 DUP4 ADD MSTORE PUSH2 0x3D08 DUP2 PUSH2 0x3CCF JUMP JUMPDEST SWAP1 POP SWAP2 SWAP1 POP JUMP JUMPDEST PUSH32 0x53656E646572206C61636B73205452414445525F524F4C450000000000000000 PUSH0 DUP3 ADD MSTORE POP JUMP JUMPDEST PUSH0 PUSH2 0x3D43 PUSH1 0x18 DUP4 PUSH2 0x316C JUMP JUMPDEST SWAP2 POP PUSH2 0x3D4E DUP3 PUSH2 0x3D0F JUMP JUMPDEST PUSH1 0x20 DUP3 ADD SWAP1 POP SWAP2 SWAP1 POP JUMP JUMPDEST PUSH0 PUSH1 0x20 DUP3 ADD SWAP1 POP DUP2 DUP2 SUB PUSH0 DUP4 ADD MSTORE PUSH2 0x3D70 DUP2 PUSH2 0x3D37 JUMP JUMPDEST SWAP1 POP SWAP2 SWAP1 POP JUMP JUMPDEST PUSH32 0x5265636569766572206861732062616C616E636520627574206C61636B732054 PUSH0 DUP3 ADD MSTORE PUSH32 0x52414445525F524F4C4500000000000000000000000000000000000000000000 PUSH1 0x20 DUP3 ADD MSTORE POP JUMP JUMPDEST PUSH0 PUSH2 0x3DD1 PUSH1 0x2A DUP4 PUSH2 0x316C JUMP JUMPDEST SWAP2 POP PUSH2 0x3DDC DUP3 PUSH2 0x3D77 JUMP JUMPDEST PUSH1 0x40 DUP3 ADD SWAP1 POP SWAP2 SWAP1 POP JUMP JUMPDEST PUSH0 PUSH1 0x20 DUP3 ADD SWAP1 POP DUP2 DUP2 SUB PUSH0 DUP4 ADD MSTORE PUSH2 0x3DFE DUP2 PUSH2 0x3DC5 JUMP JUMPDEST SWAP1 POP SWAP2 SWAP1 POP JUMP JUMPDEST PUSH0 PUSH1 0x40 DUP3 ADD SWAP1 POP PUSH2 0x3E18 PUSH0 DUP4 ADD DUP6 PUSH2 0x36DD JUMP JUMPDEST PUSH2 0x3E25 PUSH1 0x20 DUP4 ADD DUP5 PUSH2 0x313A JUMP JUMPDEST SWAP4 SWAP3 POP POP POP JUMP JUMPDEST PUSH2 0x3E35 DUP3 PUSH2 0x3162 JUMP JUMPDEST PUSH8 0xFFFFFFFFFFFFFFFF DUP2 GT ISZERO PUSH2 0x3E4E JUMPI PUSH2 0x3E4D PUSH2 0x3534 JUMP JUMPDEST JUMPDEST PUSH2 0x3E58 DUP3 SLOAD PUSH2 0x37BB JUMP JUMPDEST PUSH2 0x3E63 DUP3 DUP3 DUP6 PUSH2 0x3910 JUMP JUMPDEST PUSH0 PUSH1 0x20 SWAP1 POP PUSH1 0x1F DUP4 GT PUSH1 0x1 DUP2 EQ PUSH2 0x3E94 JUMPI PUSH0 DUP5 ISZERO PUSH2 0x3E82 JUMPI DUP3 DUP8 ADD MLOAD SWAP1 POP JUMPDEST PUSH2 0x3E8C DUP6 DUP3 PUSH2 0x398B JUMP JUMPDEST DUP7 SSTORE POP PUSH2 0x3EF3 JUMP JUMPDEST PUSH1 0x1F NOT DUP5 AND PUSH2 0x3EA2 DUP7 PUSH2 0x37F5 JUMP JUMPDEST PUSH0 JUMPDEST DUP3 DUP2 LT ISZERO PUSH2 0x3EC9 JUMPI DUP5 DUP10 ADD MLOAD DUP3 SSTORE PUSH1 0x1 DUP3 ADD SWAP2 POP PUSH1 0x20 DUP6 ADD SWAP5 POP PUSH1 0x20 DUP2 ADD SWAP1 POP PUSH2 0x3EA4 JUMP JUMPDEST DUP7 DUP4 LT ISZERO PUSH2 0x3EE6 JUMPI DUP5 DUP10 ADD MLOAD PUSH2 0x3EE2 PUSH1 0x1F DUP10 AND DUP3 PUSH2 0x396F JUMP JUMPDEST DUP4 SSTORE POP JUMPDEST PUSH1 0x1 PUSH1 0x2 DUP9 MUL ADD DUP9 SSTORE POP POP POP JUMPDEST POP POP POP POP POP POP JUMP JUMPDEST PUSH32 0x4E487B7100000000000000000000000000000000000000000000000000000000 PUSH0 MSTORE PUSH1 0x11 PUSH1 0x4 MSTORE PUSH1 0x24 PUSH0 REVERT JUMPDEST PUSH0 PUSH2 0x3F32 DUP3 PUSH2 0x324C JUMP JUMPDEST SWAP2 POP PUSH2 0x3F3D DUP4 PUSH2 0x324C JUMP JUMPDEST SWAP3 POP DUP3 DUP3 ADD SWAP1 POP DUP1 DUP3 GT ISZERO PUSH2 0x3F55 JUMPI PUSH2 0x3F54 PUSH2 0x3EFB JUMP JUMPDEST JUMPDEST SWAP3 SWAP2 POP POP JUMP INVALID LOG2 PUSH5 0x6970667358 0x22 SLT KECCAK256 PREVRANDAO MSTORE8 PUSH31 0xAB296B1CDAD4DFE093E3072FF52B98D2AF540D7D661DF14C64DECC695F6473 PUSH16 0x6C634300082200330000000000000000 "
	},
	"abi": [
		{
			"inputs": [],
			"stateMutability": "nonpayable",
			"type": "constructor"
		},
		{
			"inputs": [],
			"name": "AccessControlBadConfirmation",
			"type": "error"
		},
		{
			"inputs": [
				{
					"internalType": "address",
					"name": "account",
					"type": "address"
				},
				{
					"internalType": "bytes32",
					"name": "neededRole",
					"type": "bytes32"
				}
			],
			"name": "AccessControlUnauthorizedAccount",
			"type": "error"
		},
		{
			"inputs": [
				{
					"internalType": "address",
					"name": "target",
					"type": "address"
				}
			],
			"name": "AddressEmptyCode",
			"type": "error"
		},
		{
			"inputs": [
				{
					"internalType": "address",
					"name": "implementation",
					"type": "address"
				}
			],
			"name": "ERC1967InvalidImplementation",
			"type": "error"
		},
		{
			"inputs": [],
			"name": "ERC1967NonPayable",
			"type": "error"
		},
		{
			"inputs": [
				{
					"internalType": "address",
					"name": "spender",
					"type": "address"
				},
				{
					"internalType": "uint256",
					"name": "allowance",
					"type": "uint256"
				},
				{
					"internalType": "uint256",
					"name": "needed",
					"type": "uint256"
				}
			],
			"name": "ERC20InsufficientAllowance",
			"type": "error"
		},
		{
			"inputs": [
				{
					"internalType": "address",
					"name": "sender",
					"type": "address"
				},
				{
					"internalType": "uint256",
					"name": "balance",
					"type": "uint256"
				},
				{
					"internalType": "uint256",
					"name": "needed",
					"type": "uint256"
				}
			],
			"name": "ERC20InsufficientBalance",
			"type": "error"
		},
		{
			"inputs": [
				{
					"internalType": "address",
					"name": "approver",
					"type": "address"
				}
			],
			"name": "ERC20InvalidApprover",
			"type": "error"
		},
		{
			"inputs": [
				{
					"internalType": "address",
					"name": "receiver",
					"type": "address"
				}
			],
			"name": "ERC20InvalidReceiver",
			"type": "error"
		},
		{
			"inputs": [
				{
					"internalType": "address",
					"name": "sender",
					"type": "address"
				}
			],
			"name": "ERC20InvalidSender",
			"type": "error"
		},
		{
			"inputs": [
				{
					"internalType": "address",
					"name": "spender",
					"type": "address"
				}
			],
			"name": "ERC20InvalidSpender",
			"type": "error"
		},
		{
			"inputs": [],
			"name": "EnforcedPause",
			"type": "error"
		},
		{
			"inputs": [],
			"name": "ExpectedPause",
			"type": "error"
		},
		{
			"inputs": [],
			"name": "FailedCall",
			"type": "error"
		},
		{
			"inputs": [],
			"name": "InvalidInitialization",
			"type": "error"
		},
		{
			"inputs": [],
			"name": "NotInitializing",
			"type": "error"
		},
		{
			"inputs": [
				{
					"internalType": "address",
					"name": "owner",
					"type": "address"
				}
			],
			"name": "OwnableInvalidOwner",
			"type": "error"
		},
		{
			"inputs": [
				{
					"internalType": "address",
					"name": "account",
					"type": "address"
				}
			],
			"name": "OwnableUnauthorizedAccount",
			"type": "error"
		},
		{
			"inputs": [],
			"name": "UUPSUnauthorizedCallContext",
			"type": "error"
		},
		{
			"inputs": [
				{
					"internalType": "bytes32",
					"name": "slot",
					"type": "bytes32"
				}
			],
			"name": "UUPSUnsupportedProxiableUUID",
			"type": "error"
		},
		{
			"anonymous": false,
			"inputs": [
				{
					"indexed": true,
					"internalType": "address",
					"name": "owner",
					"type": "address"
				},
				{
					"indexed": true,
					"internalType": "address",
					"name": "spender",
					"type": "address"
				},
				{
					"indexed": false,
					"internalType": "uint256",
					"name": "value",
					"type": "uint256"
				}
			],
			"name": "Approval",
			"type": "event"
		},
		{
			"anonymous": false,
			"inputs": [
				{
					"indexed": false,
					"internalType": "uint64",
					"name": "version",
					"type": "uint64"
				}
			],
			"name": "Initialized",
			"type": "event"
		},
		{
			"anonymous": false,
			"inputs": [
				{
					"indexed": true,
					"internalType": "address",
					"name": "to",
					"type": "address"
				},
				{
					"indexed": false,
					"internalType": "uint256",
					"name": "amount",
					"type": "uint256"
				}
			],
			"name": "Minted",
			"type": "event"
		},
		{
			"anonymous": false,
			"inputs": [
				{
					"indexed": false,
					"internalType": "string",
					"name": "oldName",
					"type": "string"
				},
				{
					"indexed": false,
					"internalType": "string",
					"name": "newName",
					"type": "string"
				}
			],
			"name": "NameChanged",
			"type": "event"
		},
		{
			"anonymous": false,
			"inputs": [
				{
					"indexed": true,
					"internalType": "address",
					"name": "previousOwner",
					"type": "address"
				},
				{
					"indexed": true,
					"internalType": "address",
					"name": "newOwner",
					"type": "address"
				}
			],
			"name": "OwnershipTransferStarted",
			"type": "event"
		},
		{
			"anonymous": false,
			"inputs": [
				{
					"indexed": true,
					"internalType": "address",
					"name": "previousOwner",
					"type": "address"
				},
				{
					"indexed": true,
					"internalType": "address",
					"name": "newOwner",
					"type": "address"
				}
			],
			"name": "OwnershipTransferred",
			"type": "event"
		},
		{
			"anonymous": false,
			"inputs": [
				{
					"indexed": false,
					"internalType": "address",
					"name": "account",
					"type": "address"
				}
			],
			"name": "Paused",
			"type": "event"
		},
		{
			"anonymous": false,
			"inputs": [
				{
					"indexed": true,
					"internalType": "bytes32",
					"name": "role",
					"type": "bytes32"
				},
				{
					"indexed": true,
					"internalType": "bytes32",
					"name": "previousAdminRole",
					"type": "bytes32"
				},
				{
					"indexed": true,
					"internalType": "bytes32",
					"name": "newAdminRole",
					"type": "bytes32"
				}
			],
			"name": "RoleAdminChanged",
			"type": "event"
		},
		{
			"anonymous": false,
			"inputs": [
				{
					"indexed": true,
					"internalType": "bytes32",
					"name": "role",
					"type": "bytes32"
				},
				{
					"indexed": true,
					"internalType": "address",
					"name": "account",
					"type": "address"
				},
				{
					"indexed": true,
					"internalType": "address",
					"name": "sender",
					"type": "address"
				}
			],
			"name": "RoleGranted",
			"type": "event"
		},
		{
			"anonymous": false,
			"inputs": [
				{
					"indexed": true,
					"internalType": "bytes32",
					"name": "role",
					"type": "bytes32"
				},
				{
					"indexed": true,
					"internalType": "address",
					"name": "account",
					"type": "address"
				},
				{
					"indexed": true,
					"internalType": "address",
					"name": "sender",
					"type": "address"
				}
			],
			"name": "RoleRevoked",
			"type": "event"
		},
		{
			"anonymous": false,
			"inputs": [
				{
					"indexed": false,
					"internalType": "string",
					"name": "oldSymbol",
					"type": "string"
				},
				{
					"indexed": false,
					"internalType": "string",
					"name": "newSymbol",
					"type": "string"
				}
			],
			"name": "SymbolChanged",
			"type": "event"
		},
		{
			"anonymous": false,
			"inputs": [
				{
					"indexed": false,
					"internalType": "bool",
					"name": "active",
					"type": "bool"
				}
			],
			"name": "TraderRestrictionUpdated",
			"type": "event"
		},
		{
			"anonymous": false,
			"inputs": [
				{
					"indexed": true,
					"internalType": "address",
					"name": "from",
					"type": "address"
				},
				{
					"indexed": true,
					"internalType": "address",
					"name": "to",
					"type": "address"
				},
				{
					"indexed": false,
					"internalType": "uint256",
					"name": "value",
					"type": "uint256"
				}
			],
			"name": "Transfer",
			"type": "event"
		},
		{
			"anonymous": false,
			"inputs": [
				{
					"indexed": false,
					"internalType": "address",
					"name": "account",
					"type": "address"
				}
			],
			"name": "Unpaused",
			"type": "event"
		},
		{
			"anonymous": false,
			"inputs": [
				{
					"indexed": true,
					"internalType": "address",
					"name": "implementation",
					"type": "address"
				}
			],
			"name": "Upgraded",
			"type": "event"
		},
		{
			"anonymous": false,
			"inputs": [
				{
					"indexed": true,
					"internalType": "address",
					"name": "account",
					"type": "address"
				}
			],
			"name": "WalletFrozen",
			"type": "event"
		},
		{
			"anonymous": false,
			"inputs": [
				{
					"indexed": true,
					"internalType": "address",
					"name": "account",
					"type": "address"
				}
			],
			"name": "WalletUnfrozen",
			"type": "event"
		},
		{
			"inputs": [],
			"name": "DEFAULT_ADMIN_ROLE",
			"outputs": [
				{
					"internalType": "bytes32",
					"name": "",
					"type": "bytes32"
				}
			],
			"stateMutability": "view",
			"type": "function"
		},
		{
			"inputs": [],
			"name": "FREEZER_ROLE",
			"outputs": [
				{
					"internalType": "bytes32",
					"name": "",
					"type": "bytes32"
				}
			],
			"stateMutability": "view",
			"type": "function"
		},
		{
			"inputs": [],
			"name": "MINTER_ROLE",
			"outputs": [
				{
					"internalType": "bytes32",
					"name": "",
					"type": "bytes32"
				}
			],
			"stateMutability": "view",
			"type": "function"
		},
		{
			"inputs": [],
			"name": "PAUSER_ROLE",
			"outputs": [
				{
					"internalType": "bytes32",
					"name": "",
					"type": "bytes32"
				}
			],
			"stateMutability": "view",
			"type": "function"
		},
		{
			"inputs": [],
			"name": "TRADER_ROLE",
			"outputs": [
				{
					"internalType": "bytes32",
					"name": "",
					"type": "bytes32"
				}
			],
			"stateMutability": "view",
			"type": "function"
		},
		{
			"inputs": [],
			"name": "UPGRADE_INTERFACE_VERSION",
			"outputs": [
				{
					"internalType": "string",
					"name": "",
					"type": "string"
				}
			],
			"stateMutability": "view",
			"type": "function"
		},
		{
			"inputs": [],
			"name": "acceptOwnership",
			"outputs": [],
			"stateMutability": "nonpayable",
			"type": "function"
		},
		{
			"inputs": [
				{
					"internalType": "address",
					"name": "owner",
					"type": "address"
				},
				{
					"internalType": "address",
					"name": "spender",
					"type": "address"
				}
			],
			"name": "allowance",
			"outputs": [
				{
					"internalType": "uint256",
					"name": "",
					"type": "uint256"
				}
			],
			"stateMutability": "view",
			"type": "function"
		},
		{
			"inputs": [
				{
					"internalType": "address",
					"name": "spender",
					"type": "address"
				},
				{
					"internalType": "uint256",
					"name": "value",
					"type": "uint256"
				}
			],
			"name": "approve",
			"outputs": [
				{
					"internalType": "bool",
					"name": "",
					"type": "bool"
				}
			],
			"stateMutability": "nonpayable",
			"type": "function"
		},
		{
			"inputs": [
				{
					"internalType": "address",
					"name": "account",
					"type": "address"
				}
			],
			"name": "balanceOf",
			"outputs": [
				{
					"internalType": "uint256",
					"name": "",
					"type": "uint256"
				}
			],
			"stateMutability": "view",
			"type": "function"
		},
		{
			"inputs": [],
			"name": "decimals",
			"outputs": [
				{
					"internalType": "uint8",
					"name": "",
					"type": "uint8"
				}
			],
			"stateMutability": "view",
			"type": "function"
		},
		{
			"inputs": [
				{
					"internalType": "address",
					"name": "account",
					"type": "address"
				}
			],
			"name": "freezeWallet",
			"outputs": [],
			"stateMutability": "nonpayable",
			"type": "function"
		},
		{
			"inputs": [
				{
					"internalType": "bytes32",
					"name": "role",
					"type": "bytes32"
				}
			],
			"name": "getRoleAdmin",
			"outputs": [
				{
					"internalType": "bytes32",
					"name": "",
					"type": "bytes32"
				}
			],
			"stateMutability": "view",
			"type": "function"
		},
		{
			"inputs": [
				{
					"internalType": "bytes32",
					"name": "role",
					"type": "bytes32"
				},
				{
					"internalType": "address",
					"name": "account",
					"type": "address"
				}
			],
			"name": "grantRole",
			"outputs": [],
			"stateMutability": "nonpayable",
			"type": "function"
		},
		{
			"inputs": [
				{
					"internalType": "bytes32",
					"name": "role",
					"type": "bytes32"
				},
				{
					"internalType": "address",
					"name": "account",
					"type": "address"
				}
			],
			"name": "hasRole",
			"outputs": [
				{
					"internalType": "bool",
					"name": "",
					"type": "bool"
				}
			],
			"stateMutability": "view",
			"type": "function"
		},
		{
			"inputs": [
				{
					"internalType": "string",
					"name": "name_",
					"type": "string"
				},
				{
					"internalType": "string",
					"name": "symbol_",
					"type": "string"
				}
			],
			"name": "initialize",
			"outputs": [],
			"stateMutability": "nonpayable",
			"type": "function"
		},
		{
			"inputs": [],
			"name": "initializeV2",
			"outputs": [],
			"stateMutability": "nonpayable",
			"type": "function"
		},
		{
			"inputs": [
				{
					"internalType": "address",
					"name": "to",
					"type": "address"
				},
				{
					"internalType": "uint256",
					"name": "amount",
					"type": "uint256"
				}
			],
			"name": "mint",
			"outputs": [],
			"stateMutability": "nonpayable",
			"type": "function"
		},
		{
			"inputs": [],
			"name": "name",
			"outputs": [
				{
					"internalType": "string",
					"name": "",
					"type": "string"
				}
			],
			"stateMutability": "view",
			"type": "function"
		},
		{
			"inputs": [],
			"name": "owner",
			"outputs": [
				{
					"internalType": "address",
					"name": "",
					"type": "address"
				}
			],
			"stateMutability": "view",
			"type": "function"
		},
		{
			"inputs": [],
			"name": "pause",
			"outputs": [],
			"stateMutability": "nonpayable",
			"type": "function"
		},
		{
			"inputs": [],
			"name": "paused",
			"outputs": [
				{
					"internalType": "bool",
					"name": "",
					"type": "bool"
				}
			],
			"stateMutability": "view",
			"type": "function"
		},
		{
			"inputs": [],
			"name": "pendingOwner",
			"outputs": [
				{
					"internalType": "address",
					"name": "",
					"type": "address"
				}
			],
			"stateMutability": "view",
			"type": "function"
		},
		{
			"inputs": [],
			"name": "proxiableUUID",
			"outputs": [
				{
					"internalType": "bytes32",
					"name": "",
					"type": "bytes32"
				}
			],
			"stateMutability": "view",
			"type": "function"
		},
		{
			"inputs": [],
			"name": "renounceOwnership",
			"outputs": [],
			"stateMutability": "nonpayable",
			"type": "function"
		},
		{
			"inputs": [
				{
					"internalType": "bytes32",
					"name": "role",
					"type": "bytes32"
				},
				{
					"internalType": "address",
					"name": "callerConfirmation",
					"type": "address"
				}
			],
			"name": "renounceRole",
			"outputs": [],
			"stateMutability": "nonpayable",
			"type": "function"
		},
		{
			"inputs": [
				{
					"internalType": "bytes32",
					"name": "role",
					"type": "bytes32"
				},
				{
					"internalType": "address",
					"name": "account",
					"type": "address"
				}
			],
			"name": "revokeRole",
			"outputs": [],
			"stateMutability": "nonpayable",
			"type": "function"
		},
		{
			"inputs": [
				{
					"internalType": "string",
					"name": "newName",
					"type": "string"
				}
			],
			"name": "setName",
			"outputs": [],
			"stateMutability": "nonpayable",
			"type": "function"
		},
		{
			"inputs": [
				{
					"internalType": "string",
					"name": "newSymbol",
					"type": "string"
				}
			],
			"name": "setSymbol",
			"outputs": [],
			"stateMutability": "nonpayable",
			"type": "function"
		},
		{
			"inputs": [
				{
					"internalType": "bool",
					"name": "active",
					"type": "bool"
				}
			],
			"name": "setTraderRestriction",
			"outputs": [],
			"stateMutability": "nonpayable",
			"type": "function"
		},
		{
			"inputs": [
				{
					"internalType": "bytes4",
					"name": "interfaceId",
					"type": "bytes4"
				}
			],
			"name": "supportsInterface",
			"outputs": [
				{
					"internalType": "bool",
					"name": "",
					"type": "bool"
				}
			],
			"stateMutability": "view",
			"type": "function"
		},
		{
			"inputs": [],
			"name": "symbol",
			"outputs": [
				{
					"internalType": "string",
					"name": "",
					"type": "string"
				}
			],
			"stateMutability": "view",
			"type": "function"
		},
		{
			"inputs": [],
			"name": "totalSupply",
			"outputs": [
				{
					"internalType": "uint256",
					"name": "",
					"type": "uint256"
				}
			],
			"stateMutability": "view",
			"type": "function"
		},
		{
			"inputs": [],
			"name": "traderRestrictionActive",
			"outputs": [
				{
					"internalType": "bool",
					"name": "",
					"type": "bool"
				}
			],
			"stateMutability": "view",
			"type": "function"
		},
		{
			"inputs": [
				{
					"internalType": "address",
					"name": "to",
					"type": "address"
				},
				{
					"internalType": "uint256",
					"name": "value",
					"type": "uint256"
				}
			],
			"name": "transfer",
			"outputs": [
				{
					"internalType": "bool",
					"name": "",
					"type": "bool"
				}
			],
			"stateMutability": "nonpayable",
			"type": "function"
		},
		{
			"inputs": [
				{
					"internalType": "address",
					"name": "from",
					"type": "address"
				},
				{
					"internalType": "address",
					"name": "to",
					"type": "address"
				},
				{
					"internalType": "uint256",
					"name": "value",
					"type": "uint256"
				}
			],
			"name": "transferFrom",
			"outputs": [
				{
					"internalType": "bool",
					"name": "",
					"type": "bool"
				}
			],
			"stateMutability": "nonpayable",
			"type": "function"
		},
		{
			"inputs": [
				{
					"internalType": "address",
					"name": "newOwner",
					"type": "address"
				}
			],
			"name": "transferOwnership",
			"outputs": [],
			"stateMutability": "nonpayable",
			"type": "function"
		},
		{
			"inputs": [
				{
					"internalType": "address",
					"name": "account",
					"type": "address"
				}
			],
			"name": "unfreezeWallet",
			"outputs": [],
			"stateMutability": "nonpayable",
			"type": "function"
		},
		{
			"inputs": [],
			"name": "unpause",
			"outputs": [],
			"stateMutability": "nonpayable",
			"type": "function"
		},
		{
			"inputs": [
				{
					"internalType": "address",
					"name": "newImplementation",
					"type": "address"
				},
				{
					"internalType": "bytes",
					"name": "data",
					"type": "bytes"
				}
			],
			"name": "upgradeToAndCall",
			"outputs": [],
			"stateMutability": "payable",
			"type": "function"
		}
	],
	"storageLayout": {
		"storage": [
			{
				"astId": 3457,
				"contract": "contracts/RinanzeV4.sol:RinanzeV2",
				"label": "_name",
				"offset": 0,
				"slot": "0",
				"type": "t_string_storage"
			},
			{
				"astId": 3459,
				"contract": "contracts/RinanzeV4.sol:RinanzeV2",
				"label": "_symbol",
				"offset": 0,
				"slot": "1",
				"type": "t_string_storage"
			},
			{
				"astId": 3463,
				"contract": "contracts/RinanzeV4.sol:RinanzeV2",
				"label": "_frozenWallets",
				"offset": 0,
				"slot": "2",
				"type": "t_mapping(t_address,t_bool)"
			},
			{
				"astId": 3465,
				"contract": "contracts/RinanzeV4.sol:RinanzeV2",
				"label": "traderRestrictionActive",
				"offset": 0,
				"slot": "3",
				"type": "t_bool"
			}
		],
		"types": {
			"t_address": {
				"encoding": "inplace",
				"label": "address",
				"numberOfBytes": "20"
			},
			"t_bool": {
				"encoding": "inplace",
				"label": "bool",
				"numberOfBytes": "1"
			},
			"t_mapping(t_address,t_bool)": {
				"encoding": "mapping",
				"key": "t_address",
				"label": "mapping(address => bool)",
				"numberOfBytes": "32",
				"value": "t_bool"
			},
			"t_string_storage": {
				"encoding": "bytes",
				"label": "string",
				"numberOfBytes": "32"
			}
		}
	},
	"web3Deploy": "var rinanzev2Contract = new web3.eth.Contract([{\"inputs\":[],\"stateMutability\":\"nonpayable\",\"type\":\"constructor\"},{\"inputs\":[],\"name\":\"AccessControlBadConfirmation\",\"type\":\"error\"},{\"inputs\":[{\"internalType\":\"address\",\"name\":\"account\",\"type\":\"address\"},{\"internalType\":\"bytes32\",\"name\":\"neededRole\",\"type\":\"bytes32\"}],\"name\":\"AccessControlUnauthorizedAccount\",\"type\":\"error\"},{\"inputs\":[{\"internalType\":\"address\",\"name\":\"target\",\"type\":\"address\"}],\"name\":\"AddressEmptyCode\",\"type\":\"error\"},{\"inputs\":[{\"internalType\":\"address\",\"name\":\"implementation\",\"type\":\"address\"}],\"name\":\"ERC1967InvalidImplementation\",\"type\":\"error\"},{\"inputs\":[],\"name\":\"ERC1967NonPayable\",\"type\":\"error\"},{\"inputs\":[{\"internalType\":\"address\",\"name\":\"spender\",\"type\":\"address\"},{\"internalType\":\"uint256\",\"name\":\"allowance\",\"type\":\"uint256\"},{\"internalType\":\"uint256\",\"name\":\"needed\",\"type\":\"uint256\"}],\"name\":\"ERC20InsufficientAllowance\",\"type\":\"error\"},{\"inputs\":[{\"internalType\":\"address\",\"name\":\"sender\",\"type\":\"address\"},{\"internalType\":\"uint256\",\"name\":\"balance\",\"type\":\"uint256\"},{\"internalType\":\"uint256\",\"name\":\"needed\",\"type\":\"uint256\"}],\"name\":\"ERC20InsufficientBalance\",\"type\":\"error\"},{\"inputs\":[{\"internalType\":\"address\",\"name\":\"approver\",\"type\":\"address\"}],\"name\":\"ERC20InvalidApprover\",\"type\":\"error\"},{\"inputs\":[{\"internalType\":\"address\",\"name\":\"receiver\",\"type\":\"address\"}],\"name\":\"ERC20InvalidReceiver\",\"type\":\"error\"},{\"inputs\":[{\"internalType\":\"address\",\"name\":\"sender\",\"type\":\"address\"}],\"name\":\"ERC20InvalidSender\",\"type\":\"error\"},{\"inputs\":[{\"internalType\":\"address\",\"name\":\"spender\",\"type\":\"address\"}],\"name\":\"ERC20InvalidSpender\",\"type\":\"error\"},{\"inputs\":[],\"name\":\"EnforcedPause\",\"type\":\"error\"},{\"inputs\":[],\"name\":\"ExpectedPause\",\"type\":\"error\"},{\"inputs\":[],\"name\":\"FailedCall\",\"type\":\"error\"},{\"inputs\":[],\"name\":\"InvalidInitialization\",\"type\":\"error\"},{\"inputs\":[],\"name\":\"NotInitializing\",\"type\":\"error\"},{\"inputs\":[{\"internalType\":\"address\",\"name\":\"owner\",\"type\":\"address\"}],\"name\":\"OwnableInvalidOwner\",\"type\":\"error\"},{\"inputs\":[{\"internalType\":\"address\",\"name\":\"account\",\"type\":\"address\"}],\"name\":\"OwnableUnauthorizedAccount\",\"type\":\"error\"},{\"inputs\":[],\"name\":\"UUPSUnauthorizedCallContext\",\"type\":\"error\"},{\"inputs\":[{\"internalType\":\"bytes32\",\"name\":\"slot\",\"type\":\"bytes32\"}],\"name\":\"UUPSUnsupportedProxiableUUID\",\"type\":\"error\"},{\"anonymous\":false,\"inputs\":[{\"indexed\":true,\"internalType\":\"address\",\"name\":\"owner\",\"type\":\"address\"},{\"indexed\":true,\"internalType\":\"address\",\"name\":\"spender\",\"type\":\"address\"},{\"indexed\":false,\"internalType\":\"uint256\",\"name\":\"value\",\"type\":\"uint256\"}],\"name\":\"Approval\",\"type\":\"event\"},{\"anonymous\":false,\"inputs\":[{\"indexed\":false,\"internalType\":\"uint64\",\"name\":\"version\",\"type\":\"uint64\"}],\"name\":\"Initialized\",\"type\":\"event\"},{\"anonymous\":false,\"inputs\":[{\"indexed\":true,\"internalType\":\"address\",\"name\":\"to\",\"type\":\"address\"},{\"indexed\":false,\"internalType\":\"uint256\",\"name\":\"amount\",\"type\":\"uint256\"}],\"name\":\"Minted\",\"type\":\"event\"},{\"anonymous\":false,\"inputs\":[{\"indexed\":false,\"internalType\":\"string\",\"name\":\"oldName\",\"type\":\"string\"},{\"indexed\":false,\"internalType\":\"string\",\"name\":\"newName\",\"type\":\"string\"}],\"name\":\"NameChanged\",\"type\":\"event\"},{\"anonymous\":false,\"inputs\":[{\"indexed\":true,\"internalType\":\"address\",\"name\":\"previousOwner\",\"type\":\"address\"},{\"indexed\":true,\"internalType\":\"address\",\"name\":\"newOwner\",\"type\":\"address\"}],\"name\":\"OwnershipTransferStarted\",\"type\":\"event\"},{\"anonymous\":false,\"inputs\":[{\"indexed\":true,\"internalType\":\"address\",\"name\":\"previousOwner\",\"type\":\"address\"},{\"indexed\":true,\"internalType\":\"address\",\"name\":\"newOwner\",\"type\":\"address\"}],\"name\":\"OwnershipTransferred\",\"type\":\"event\"},{\"anonymous\":false,\"inputs\":[{\"indexed\":false,\"internalType\":\"address\",\"name\":\"account\",\"type\":\"address\"}],\"name\":\"Paused\",\"type\":\"event\"},{\"anonymous\":false,\"inputs\":[{\"indexed\":true,\"internalType\":\"bytes32\",\"name\":\"role\",\"type\":\"bytes32\"},{\"indexed\":true,\"internalType\":\"bytes32\",\"name\":\"previousAdminRole\",\"type\":\"bytes32\"},{\"indexed\":true,\"internalType\":\"bytes32\",\"name\":\"newAdminRole\",\"type\":\"bytes32\"}],\"name\":\"RoleAdminChanged\",\"type\":\"event\"},{\"anonymous\":false,\"inputs\":[{\"indexed\":true,\"internalType\":\"bytes32\",\"name\":\"role\",\"type\":\"bytes32\"},{\"indexed\":true,\"internalType\":\"address\",\"name\":\"account\",\"type\":\"address\"},{\"indexed\":true,\"internalType\":\"address\",\"name\":\"sender\",\"type\":\"address\"}],\"name\":\"RoleGranted\",\"type\":\"event\"},{\"anonymous\":false,\"inputs\":[{\"indexed\":true,\"internalType\":\"bytes32\",\"name\":\"role\",\"type\":\"bytes32\"},{\"indexed\":true,\"internalType\":\"address\",\"name\":\"account\",\"type\":\"address\"},{\"indexed\":true,\"internalType\":\"address\",\"name\":\"sender\",\"type\":\"address\"}],\"name\":\"RoleRevoked\",\"type\":\"event\"},{\"anonymous\":false,\"inputs\":[{\"indexed\":false,\"internalType\":\"string\",\"name\":\"oldSymbol\",\"type\":\"string\"},{\"indexed\":false,\"internalType\":\"string\",\"name\":\"newSymbol\",\"type\":\"string\"}],\"name\":\"SymbolChanged\",\"type\":\"event\"},{\"anonymous\":false,\"inputs\":[{\"indexed\":false,\"internalType\":\"bool\",\"name\":\"active\",\"type\":\"bool\"}],\"name\":\"TraderRestrictionUpdated\",\"type\":\"event\"},{\"anonymous\":false,\"inputs\":[{\"indexed\":true,\"internalType\":\"address\",\"name\":\"from\",\"type\":\"address\"},{\"indexed\":true,\"internalType\":\"address\",\"name\":\"to\",\"type\":\"address\"},{\"indexed\":false,\"internalType\":\"uint256\",\"name\":\"value\",\"type\":\"uint256\"}],\"name\":\"Transfer\",\"type\":\"event\"},{\"anonymous\":false,\"inputs\":[{\"indexed\":false,\"internalType\":\"address\",\"name\":\"account\",\"type\":\"address\"}],\"name\":\"Unpaused\",\"type\":\"event\"},{\"anonymous\":false,\"inputs\":[{\"indexed\":true,\"internalType\":\"address\",\"name\":\"implementation\",\"type\":\"address\"}],\"name\":\"Upgraded\",\"type\":\"event\"},{\"anonymous\":false,\"inputs\":[{\"indexed\":true,\"internalType\":\"address\",\"name\":\"account\",\"type\":\"address\"}],\"name\":\"WalletFrozen\",\"type\":\"event\"},{\"anonymous\":false,\"inputs\":[{\"indexed\":true,\"internalType\":\"address\",\"name\":\"account\",\"type\":\"address\"}],\"name\":\"WalletUnfrozen\",\"type\":\"event\"},{\"inputs\":[],\"name\":\"DEFAULT_ADMIN_ROLE\",\"outputs\":[{\"internalType\":\"bytes32\",\"name\":\"\",\"type\":\"bytes32\"}],\"stateMutability\":\"view\",\"type\":\"function\"},{\"inputs\":[],\"name\":\"FREEZER_ROLE\",\"outputs\":[{\"internalType\":\"bytes32\",\"name\":\"\",\"type\":\"bytes32\"}],\"stateMutability\":\"view\",\"type\":\"function\"},{\"inputs\":[],\"name\":\"MINTER_ROLE\",\"outputs\":[{\"internalType\":\"bytes32\",\"name\":\"\",\"type\":\"bytes32\"}],\"stateMutability\":\"view\",\"type\":\"function\"},{\"inputs\":[],\"name\":\"PAUSER_ROLE\",\"outputs\":[{\"internalType\":\"bytes32\",\"name\":\"\",\"type\":\"bytes32\"}],\"stateMutability\":\"view\",\"type\":\"function\"},{\"inputs\":[],\"name\":\"TRADER_ROLE\",\"outputs\":[{\"internalType\":\"bytes32\",\"name\":\"\",\"type\":\"bytes32\"}],\"stateMutability\":\"view\",\"type\":\"function\"},{\"inputs\":[],\"name\":\"UPGRADE_INTERFACE_VERSION\",\"outputs\":[{\"internalType\":\"string\",\"name\":\"\",\"type\":\"string\"}],\"stateMutability\":\"view\",\"type\":\"function\"},{\"inputs\":[],\"name\":\"acceptOwnership\",\"outputs\":[],\"stateMutability\":\"nonpayable\",\"type\":\"function\"},{\"inputs\":[{\"internalType\":\"address\",\"name\":\"owner\",\"type\":\"address\"},{\"internalType\":\"address\",\"name\":\"spender\",\"type\":\"address\"}],\"name\":\"allowance\",\"outputs\":[{\"internalType\":\"uint256\",\"name\":\"\",\"type\":\"uint256\"}],\"stateMutability\":\"view\",\"type\":\"function\"},{\"inputs\":[{\"internalType\":\"address\",\"name\":\"spender\",\"type\":\"address\"},{\"internalType\":\"uint256\",\"name\":\"value\",\"type\":\"uint256\"}],\"name\":\"approve\",\"outputs\":[{\"internalType\":\"bool\",\"name\":\"\",\"type\":\"bool\"}],\"stateMutability\":\"nonpayable\",\"type\":\"function\"},{\"inputs\":[{\"internalType\":\"address\",\"name\":\"account\",\"type\":\"address\"}],\"name\":\"balanceOf\",\"outputs\":[{\"internalType\":\"uint256\",\"name\":\"\",\"type\":\"uint256\"}],\"stateMutability\":\"view\",\"type\":\"function\"},{\"inputs\":[],\"name\":\"decimals\",\"outputs\":[{\"internalType\":\"uint8\",\"name\":\"\",\"type\":\"uint8\"}],\"stateMutability\":\"view\",\"type\":\"function\"},{\"inputs\":[{\"internalType\":\"address\",\"name\":\"account\",\"type\":\"address\"}],\"name\":\"freezeWallet\",\"outputs\":[],\"stateMutability\":\"nonpayable\",\"type\":\"function\"},{\"inputs\":[{\"internalType\":\"bytes32\",\"name\":\"role\",\"type\":\"bytes32\"}],\"name\":\"getRoleAdmin\",\"outputs\":[{\"internalType\":\"bytes32\",\"name\":\"\",\"type\":\"bytes32\"}],\"stateMutability\":\"view\",\"type\":\"function\"},{\"inputs\":[{\"internalType\":\"bytes32\",\"name\":\"role\",\"type\":\"bytes32\"},{\"internalType\":\"address\",\"name\":\"account\",\"type\":\"address\"}],\"name\":\"grantRole\",\"outputs\":[],\"stateMutability\":\"nonpayable\",\"type\":\"function\"},{\"inputs\":[{\"internalType\":\"bytes32\",\"name\":\"role\",\"type\":\"bytes32\"},{\"internalType\":\"address\",\"name\":\"account\",\"type\":\"address\"}],\"name\":\"hasRole\",\"outputs\":[{\"internalType\":\"bool\",\"name\":\"\",\"type\":\"bool\"}],\"stateMutability\":\"view\",\"type\":\"function\"},{\"inputs\":[{\"internalType\":\"string\",\"name\":\"name_\",\"type\":\"string\"},{\"internalType\":\"string\",\"name\":\"symbol_\",\"type\":\"string\"}],\"name\":\"initialize\",\"outputs\":[],\"stateMutability\":\"nonpayable\",\"type\":\"function\"},{\"inputs\":[],\"name\":\"initializeV2\",\"outputs\":[],\"stateMutability\":\"nonpayable\",\"type\":\"function\"},{\"inputs\":[{\"internalType\":\"address\",\"name\":\"to\",\"type\":\"address\"},{\"internalType\":\"uint256\",\"name\":\"amount\",\"type\":\"uint256\"}],\"name\":\"mint\",\"outputs\":[],\"stateMutability\":\"nonpayable\",\"type\":\"function\"},{\"inputs\":[],\"name\":\"name\",\"outputs\":[{\"internalType\":\"string\",\"name\":\"\",\"type\":\"string\"}],\"stateMutability\":\"view\",\"type\":\"function\"},{\"inputs\":[],\"name\":\"owner\",\"outputs\":[{\"internalType\":\"address\",\"name\":\"\",\"type\":\"address\"}],\"stateMutability\":\"view\",\"type\":\"function\"},{\"inputs\":[],\"name\":\"pause\",\"outputs\":[],\"stateMutability\":\"nonpayable\",\"type\":\"function\"},{\"inputs\":[],\"name\":\"paused\",\"outputs\":[{\"internalType\":\"bool\",\"name\":\"\",\"type\":\"bool\"}],\"stateMutability\":\"view\",\"type\":\"function\"},{\"inputs\":[],\"name\":\"pendingOwner\",\"outputs\":[{\"internalType\":\"address\",\"name\":\"\",\"type\":\"address\"}],\"stateMutability\":\"view\",\"type\":\"function\"},{\"inputs\":[],\"name\":\"proxiableUUID\",\"outputs\":[{\"internalType\":\"bytes32\",\"name\":\"\",\"type\":\"bytes32\"}],\"stateMutability\":\"view\",\"type\":\"function\"},{\"inputs\":[],\"name\":\"renounceOwnership\",\"outputs\":[],\"stateMutability\":\"nonpayable\",\"type\":\"function\"},{\"inputs\":[{\"internalType\":\"bytes32\",\"name\":\"role\",\"type\":\"bytes32\"},{\"internalType\":\"address\",\"name\":\"callerConfirmation\",\"type\":\"address\"}],\"name\":\"renounceRole\",\"outputs\":[],\"stateMutability\":\"nonpayable\",\"type\":\"function\"},{\"inputs\":[{\"internalType\":\"bytes32\",\"name\":\"role\",\"type\":\"bytes32\"},{\"internalType\":\"address\",\"name\":\"account\",\"type\":\"address\"}],\"name\":\"revokeRole\",\"outputs\":[],\"stateMutability\":\"nonpayable\",\"type\":\"function\"},{\"inputs\":[{\"internalType\":\"string\",\"name\":\"newName\",\"type\":\"string\"}],\"name\":\"setName\",\"outputs\":[],\"stateMutability\":\"nonpayable\",\"type\":\"function\"},{\"inputs\":[{\"internalType\":\"string\",\"name\":\"newSymbol\",\"type\":\"string\"}],\"name\":\"setSymbol\",\"outputs\":[],\"stateMutability\":\"nonpayable\",\"type\":\"function\"},{\"inputs\":[{\"internalType\":\"bool\",\"name\":\"active\",\"type\":\"bool\"}],\"name\":\"setTraderRestriction\",\"outputs\":[],\"stateMutability\":\"nonpayable\",\"type\":\"function\"},{\"inputs\":[{\"internalType\":\"bytes4\",\"name\":\"interfaceId\",\"type\":\"bytes4\"}],\"name\":\"supportsInterface\",\"outputs\":[{\"internalType\":\"bool\",\"name\":\"\",\"type\":\"bool\"}],\"stateMutability\":\"view\",\"type\":\"function\"},{\"inputs\":[],\"name\":\"symbol\",\"outputs\":[{\"internalType\":\"string\",\"name\":\"\",\"type\":\"string\"}],\"stateMutability\":\"view\",\"type\":\"function\"},{\"inputs\":[],\"name\":\"totalSupply\",\"outputs\":[{\"internalType\":\"uint256\",\"name\":\"\",\"type\":\"uint256\"}],\"stateMutability\":\"view\",\"type\":\"function\"},{\"inputs\":[],\"name\":\"traderRestrictionActive\",\"outputs\":[{\"internalType\":\"bool\",\"name\":\"\",\"type\":\"bool\"}],\"stateMutability\":\"view\",\"type\":\"function\"},{\"inputs\":[{\"internalType\":\"address\",\"name\":\"to\",\"type\":\"address\"},{\"internalType\":\"uint256\",\"name\":\"value\",\"type\":\"uint256\"}],\"name\":\"transfer\",\"outputs\":[{\"internalType\":\"bool\",\"name\":\"\",\"type\":\"bool\"}],\"stateMutability\":\"nonpayable\",\"type\":\"function\"},{\"inputs\":[{\"internalType\":\"address\",\"name\":\"from\",\"type\":\"address\"},{\"internalType\":\"address\",\"name\":\"to\",\"type\":\"address\"},{\"internalType\":\"uint256\",\"name\":\"value\",\"type\":\"uint256\"}],\"name\":\"transferFrom\",\"outputs\":[{\"internalType\":\"bool\",\"name\":\"\",\"type\":\"bool\"}],\"stateMutability\":\"nonpayable\",\"type\":\"function\"},{\"inputs\":[{\"internalType\":\"address\",\"name\":\"newOwner\",\"type\":\"address\"}],\"name\":\"transferOwnership\",\"outputs\":[],\"stateMutability\":\"nonpayable\",\"type\":\"function\"},{\"inputs\":[{\"internalType\":\"address\",\"name\":\"account\",\"type\":\"address\"}],\"name\":\"unfreezeWallet\",\"outputs\":[],\"stateMutability\":\"nonpayable\",\"type\":\"function\"},{\"inputs\":[],\"name\":\"unpause\",\"outputs\":[],\"stateMutability\":\"nonpayable\",\"type\":\"function\"},{\"inputs\":[{\"internalType\":\"address\",\"name\":\"newImplementation\",\"type\":\"address\"},{\"internalType\":\"bytes\",\"name\":\"data\",\"type\":\"bytes\"}],\"name\":\"upgradeToAndCall\",\"outputs\":[],\"stateMutability\":\"payable\",\"type\":\"function\"}]);\nvar rinanzev2 = rinanzev2Contract.deploy({\n     data: '0x60a06040523073ffffffffffffffffffffffffffffffffffffffff1660809073ffffffffffffffffffffffffffffffffffffffff16815250348015610042575f5ffd5b5061005161005660201b60201c565b6101d1565b5f61006561015460201b60201c565b9050805f0160089054906101000a900460ff16156100af576040517ff92ee8a900000000000000000000000000000000000000000000000000000000815260040160405180910390fd5b67ffffffffffffffff8016815f015f9054906101000a900467ffffffffffffffff1667ffffffffffffffff16146101515767ffffffffffffffff815f015f6101000a81548167ffffffffffffffff021916908367ffffffffffffffff1602179055507fc7f505b2f371ae2175ee4913f4499e1f2633a7b5936321eed1cdaeb6115181d267ffffffffffffffff60405161014891906101b8565b60405180910390a15b50565b5f5f61016461016d60201b60201c565b90508091505090565b5f7ff0c57e16840df040f15088dc2f81fe391c3923bec73e23a9662efc9c229c6a005f1b905090565b5f67ffffffffffffffff82169050919050565b6101b281610196565b82525050565b5f6020820190506101cb5f8301846101a9565b92915050565b608051613f916101f75f395f8181611fc80152818161201d01526121d70152613f915ff3fe60806040526004361061023a575f3560e01c806370a082311161012d578063ad3cb1cc116100aa578063dd62ed3e1161006e578063dd62ed3e146107f4578063e30c397814610830578063e63ab1e91461085a578063f0a56fc814610884578063f2fde38b146108ae5761023a565b8063ad3cb1cc14610728578063b84c824614610752578063c47f00271461077a578063d5391393146107a2578063d547741f146107cc5761023a565b806391d14854116100f157806391d148541461063457806395d89b41146106705780639f0011691461069a578063a217fddf146106c2578063a9059cbb146106ec5761023a565b806370a082311461058c578063715018a6146105c857806379ba5097146105de5780638456cb59146105f45780638da5cb5b1461060a5761023a565b8063313ce567116101bb5780634f1ef2861161017f5780634f1ef286146104de57806352d1902d146104fa5780635c975abb146105245780635cd8a76b1461054e57806360f588b7146105645761023a565b8063313ce5671461042657806336568abe146104505780633f4ba83a1461047857806340c10f191461048e5780634cd88b76146104b65761023a565b806323b872dd1161020257806323b872dd14610334578063248a9ca314610370578063252400da146103ac5780632e5b15ce146103d45780632f2ff15d146103fe5761023a565b806301ffc9a71461023e57806306a85f0f1461027a57806306fdde03146102a4578063095ea7b3146102ce57806318160ddd1461030a575b5f5ffd5b348015610249575f5ffd5b50610264600480360381019061025f91906130d3565b6108d6565b6040516102719190613118565b60405180910390f35b348015610285575f5ffd5b5061028e61094f565b60405161029b9190613149565b60405180910390f35b3480156102af575f5ffd5b506102b8610973565b6040516102c591906131d2565b60405180910390f35b3480156102d9575f5ffd5b506102f460048036038101906102ef919061327f565b610a02565b6040516103019190613118565b60405180910390f35b348015610315575f5ffd5b5061031e610a24565b60405161032b91906132cc565b60405180910390f35b34801561033f575f5ffd5b5061035a600480360381019061035591906132e5565b610a3b565b6040516103679190613118565b60405180910390f35b34801561037b575f5ffd5b506103966004803603810190610391919061335f565b610a69565b6040516103a39190613149565b60405180910390f35b3480156103b7575f5ffd5b506103d260048036038101906103cd91906133b4565b610a93565b005b3480156103df575f5ffd5b506103e8610af3565b6040516103f59190613118565b60405180910390f35b348015610409575f5ffd5b50610424600480360381019061041f91906133df565b610b05565b005b348015610431575f5ffd5b5061043a610b27565b6040516104479190613438565b60405180910390f35b34801561045b575f5ffd5b50610476600480360381019061047191906133df565b610b2f565b005b348015610483575f5ffd5b5061048c610baa565b005b348015610499575f5ffd5b506104b460048036038101906104af919061327f565b610bdf565b005b3480156104c1575f5ffd5b506104dc60048036038101906104d791906134b2565b610c66565b005b6104f860048036038101906104f39190613658565b610f43565b005b348015610505575f5ffd5b5061050e610f62565b60405161051b9190613149565b60405180910390f35b34801561052f575f5ffd5b50610538610f93565b6040516105459190613118565b60405180910390f35b348015610559575f5ffd5b50610562610fb5565b005b34801561056f575f5ffd5b5061058a600480360381019061058591906136b2565b6110f3565b005b348015610597575f5ffd5b506105b260048036038101906105ad91906136b2565b611241565b6040516105bf91906132cc565b60405180910390f35b3480156105d3575f5ffd5b506105dc611294565b005b3480156105e9575f5ffd5b506105f26112a7565b005b3480156105ff575f5ffd5b50610608611335565b005b348015610615575f5ffd5b5061061e61136a565b60405161062b91906136ec565b60405180910390f35b34801561063f575f5ffd5b5061065a600480360381019061065591906133df565b61139f565b6040516106679190613118565b60405180910390f35b34801561067b575f5ffd5b50610684611410565b60405161069191906131d2565b60405180910390f35b3480156106a5575f5ffd5b506106c060048036038101906106bb91906136b2565b6114a0565b005b3480156106cd575f5ffd5b506106d66115f0565b6040516106e39190613149565b60405180910390f35b3480156106f7575f5ffd5b50610712600480360381019061070d919061327f565b6115f6565b60405161071f9190613118565b60405180910390f35b348015610733575f5ffd5b5061073c611618565b60405161074991906131d2565b60405180910390f35b34801561075d575f5ffd5b5061077860048036038101906107739190613705565b611651565b005b348015610785575f5ffd5b506107a0600480360381019061079b9190613705565b611737565b005b3480156107ad575f5ffd5b506107b661181b565b6040516107c39190613149565b60405180910390f35b3480156107d7575f5ffd5b506107f260048036038101906107ed91906133df565b61183f565b005b3480156107ff575f5ffd5b5061081a60048036038101906108159190613750565b611861565b60405161082791906132cc565b60405180910390f35b34801561083b575f5ffd5b506108446118f1565b60405161085191906136ec565b60405180910390f35b348015610865575f5ffd5b5061086e611926565b60405161087b9190613149565b60405180910390f35b34801561088f575f5ffd5b5061089861194a565b6040516108a59190613149565b60405180910390f35b3480156108b9575f5ffd5b506108d460048036038101906108cf91906136b2565b61196e565b005b5f7f7965db0b000000000000000000000000000000000000000000000000000000007bffffffffffffffffffffffffffffffffffffffffffffffffffffffff1916827bffffffffffffffffffffffffffffffffffffffffffffffffffffffff19161480610948575061094782611a27565b5b9050919050565b7f92de27771f92d6942691d73358b3a4673e4880de8356f8f2cf452be87e02d36381565b60605f8054610981906137bb565b80601f01602080910402602001604051908101604052809291908181526020018280546109ad906137bb565b80156109f85780601f106109cf576101008083540402835291602001916109f8565b820191905f5260205f20905b8154815290600101906020018083116109db57829003601f168201915b5050505050905090565b5f5f610a0c611a90565b9050610a19818585611a97565b600191505092915050565b5f5f610a2e611aa9565b9050806002015491505090565b5f5f610a45611a90565b9050610a52858285611ad0565b610a5d858585611b63565b60019150509392505050565b5f5f610a73611c53565b9050805f015f8481526020019081526020015f2060010154915050919050565b5f5f1b610a9f81611c7a565b8160035f6101000a81548160ff0219169083151502179055507f24b29ee845e0e3f55662a5ccbbd026629d29229de2a98b6c12f968d8d0c3e24e82604051610ae79190613118565b60405180910390a15050565b60035f9054906101000a900460ff1681565b610b0e82610a69565b610b1781611c7a565b610b218383611c8e565b50505050565b5f6012905090565b610b37611a90565b73ffffffffffffffffffffffffffffffffffffffff168173ffffffffffffffffffffffffffffffffffffffff1614610b9b576040517f6697b23200000000000000000000000000000000000000000000000000000000815260040160405180910390fd5b610ba58282611d86565b505050565b7f65d7a28e3265b37a6474929f336521b332c1681b933f6cb9f3376673440d862a610bd481611c7a565b610bdc611e7e565b50565b7f9f2df0fed2c77648de5860a4cc508cd0818c85b8b8a1ab4ceeef8d981c8956a6610c0981611c7a565b610c138383611eec565b8273ffffffffffffffffffffffffffffffffffffffff167f30385c845b448a36257a6a1716e6ad2e1bc2cbe333cde1e69fe849ad6511adfe83604051610c5991906132cc565b60405180910390a2505050565b5f610c6f611f6b565b90505f815f0160089054906101000a900460ff161590505f825f015f9054906101000a900467ffffffffffffffff1690505f5f8267ffffffffffffffff16148015610cb75750825b90505f60018367ffffffffffffffff16148015610cea57505f3073ffffffffffffffffffffffffffffffffffffffff163b145b905081158015610cf8575080155b15610d2f576040517ff92ee8a900000000000000000000000000000000000000000000000000000000815260040160405180910390fd5b6001855f015f6101000a81548167ffffffffffffffff021916908367ffffffffffffffff1602179055508315610d7c576001855f0160086101000a81548160ff0219169083151502179055505b610e0c89898080601f0160208091040260200160405190810160405280939291908181526020018383808284375f81840152601f19601f8201169050808301925050505050505088888080601f0160208091040260200160405190810160405280939291908181526020018383808284375f81840152601f19601f82011690508083019250505050505050611f7e565b610e14611f94565b610e1d33611f9e565b610e25611fb2565b610e2d611fbc565b88885f9182610e3d9291906139a6565b50868660019182610e4f9291906139a6565b50610e5c5f5f1b33611c8e565b50610e877f9f2df0fed2c77648de5860a4cc508cd0818c85b8b8a1ab4ceeef8d981c8956a633611c8e565b50610eb27f92de27771f92d6942691d73358b3a4673e4880de8356f8f2cf452be87e02d36333611c8e565b50610edd7f65d7a28e3265b37a6474929f336521b332c1681b933f6cb9f3376673440d862a33611c8e565b508315610f38575f855f0160086101000a81548160ff0219169083151502179055507fc7f505b2f371ae2175ee4913f4499e1f2633a7b5936321eed1cdaeb6115181d26001604051610f2f9190613abf565b60405180910390a15b505050505050505050565b610f4b611fc6565b610f54826120ac565b610f5e82826120b7565b5050565b5f610f6b6121d5565b7f360894a13ba1a3210667c828492db98dca3e2076cc3735a920a3ca505d382bbc5f1b905090565b5f5f610f9d61225c565b9050805f015f9054906101000a900460ff1691505090565b60025f610fc0611f6b565b9050805f0160089054906101000a900460ff168061100857508167ffffffffffffffff16815f015f9054906101000a900467ffffffffffffffff1667ffffffffffffffff1610155b1561103f576040517ff92ee8a900000000000000000000000000000000000000000000000000000000815260040160405180910390fd5b81815f015f6101000a81548167ffffffffffffffff021916908367ffffffffffffffff1602179055506001815f0160086101000a81548160ff0219169083151502179055505f60035f6101000a81548160ff0219169083151502179055505f815f0160086101000a81548160ff0219169083151502179055507fc7f505b2f371ae2175ee4913f4499e1f2633a7b5936321eed1cdaeb6115181d2826040516110e79190613ae7565b60405180910390a15050565b7f92de27771f92d6942691d73358b3a4673e4880de8356f8f2cf452be87e02d36361111d81611c7a565b60025f8373ffffffffffffffffffffffffffffffffffffffff1673ffffffffffffffffffffffffffffffffffffffff1681526020019081526020015f205f9054906101000a900460ff166111a6576040517f08c379a000000000000000000000000000000000000000000000000000000000815260040161119d90613b4a565b60405180910390fd5b5f60025f8473ffffffffffffffffffffffffffffffffffffffff1673ffffffffffffffffffffffffffffffffffffffff1681526020019081526020015f205f6101000a81548160ff0219169083151502179055508173ffffffffffffffffffffffffffffffffffffffff167fd247131fabb99dc3ba793524f53f05a77eeef38f12b30119655ee340810b121060405160405180910390a25050565b5f5f61124b611aa9565b9050805f015f8473ffffffffffffffffffffffffffffffffffffffff1673ffffffffffffffffffffffffffffffffffffffff1681526020019081526020015f2054915050919050565b61129c612283565b6112a55f61230a565b565b5f6112b0611a90565b90508073ffffffffffffffffffffffffffffffffffffffff166112d16118f1565b73ffffffffffffffffffffffffffffffffffffffff161461132957806040517f118cdaa700000000000000000000000000000000000000000000000000000000815260040161132091906136ec565b60405180910390fd5b6113328161230a565b50565b7f65d7a28e3265b37a6474929f336521b332c1681b933f6cb9f3376673440d862a61135f81611c7a565b611367612347565b50565b5f5f6113746123b6565b9050805f015f9054906101000a900473ffffffffffffffffffffffffffffffffffffffff1691505090565b5f5f6113a9611c53565b9050805f015f8581526020019081526020015f205f015f8473ffffffffffffffffffffffffffffffffffffffff1673ffffffffffffffffffffffffffffffffffffffff1681526020019081526020015f205f9054906101000a900460ff1691505092915050565b60606001805461141f906137bb565b80601f016020809104026020016040519081016040528092919081815260200182805461144b906137bb565b80156114965780601f1061146d57610100808354040283529160200191611496565b820191905f5260205f20905b81548152906001019060200180831161147957829003601f168201915b5050505050905090565b7f92de27771f92d6942691d73358b3a4673e4880de8356f8f2cf452be87e02d3636114ca81611c7a565b60025f8373ffffffffffffffffffffffffffffffffffffffff1673ffffffffffffffffffffffffffffffffffffffff1681526020019081526020015f205f9054906101000a900460ff1615611554576040517f08c379a000000000000000000000000000000000000000000000000000000000815260040161154b90613bb2565b60405180910390fd5b600160025f8473ffffffffffffffffffffffffffffffffffffffff1673ffffffffffffffffffffffffffffffffffffffff1681526020019081526020015f205f6101000a81548160ff0219169083151502179055508173ffffffffffffffffffffffffffffffffffffffff167fc9710d20bdbf99ca92a03644a5a8f85ea6badb387ff0abca08eebdfbff50b77f60405160405180910390a25050565b5f5f1b81565b5f5f611600611a90565b905061160d818585611b63565b600191505092915050565b6040518060400160405280600581526020017f352e302e3000000000000000000000000000000000000000000000000000000081525081565b611659612283565b5f60018054611667906137bb565b80601f0160208091040260200160405190810160405280929190818152602001828054611693906137bb565b80156116de5780601f106116b5576101008083540402835291602001916116de565b820191905f5260205f20905b8154815290600101906020018083116116c157829003601f168201915b505050505090508282600191826116f69291906139a6565b507fd7ad744cc76ebad190995130eec8ba506b3605612d23b5b9cef8e27f14d138b481848460405161172a93929190613bfc565b60405180910390a1505050565b61173f612283565b5f5f805461174c906137bb565b80601f0160208091040260200160405190810160405280929190818152602001828054611778906137bb565b80156117c35780601f1061179a576101008083540402835291602001916117c3565b820191905f5260205f20905b8154815290600101906020018083116117a657829003601f168201915b5050505050905082825f91826117da9291906139a6565b507f6c20b91d1723b78732eba64ff11ebd7966a6e4af568a00fa4f6b72c20f58b02a81848460405161180e93929190613bfc565b60405180910390a1505050565b7f9f2df0fed2c77648de5860a4cc508cd0818c85b8b8a1ab4ceeef8d981c8956a681565b61184882610a69565b61185181611c7a565b61185b8383611d86565b50505050565b5f5f61186b611aa9565b9050806001015f8573ffffffffffffffffffffffffffffffffffffffff1673ffffffffffffffffffffffffffffffffffffffff1681526020019081526020015f205f8473ffffffffffffffffffffffffffffffffffffffff1673ffffffffffffffffffffffffffffffffffffffff1681526020019081526020015f205491505092915050565b5f5f6118fb6123dd565b9050805f015f9054906101000a900473ffffffffffffffffffffffffffffffffffffffff1691505090565b7f65d7a28e3265b37a6474929f336521b332c1681b933f6cb9f3376673440d862a81565b7ffacaf2747a7486cf5730e9265973fb54447d3ace6e7e4711f6360826b073194181565b611976612283565b5f61197f6123dd565b905081815f015f6101000a81548173ffffffffffffffffffffffffffffffffffffffff021916908373ffffffffffffffffffffffffffffffffffffffff1602179055508173ffffffffffffffffffffffffffffffffffffffff166119e161136a565b73ffffffffffffffffffffffffffffffffffffffff167f38d16b8cac22d99fc7c124b9cd0de2d3fa1faef420bfe791d8c362d765e2270060405160405180910390a35050565b5f7f01ffc9a7000000000000000000000000000000000000000000000000000000007bffffffffffffffffffffffffffffffffffffffffffffffffffffffff1916827bffffffffffffffffffffffffffffffffffffffffffffffffffffffff1916149050919050565b5f33905090565b611aa48383836001612404565b505050565b5f7f52c63247e1f47db19d5ce0460030c497f067ca4cebf71ba98eeadabe20bace00905090565b5f611adb8484611861565b90507fffffffffffffffffffffffffffffffffffffffffffffffffffffffffffffffff811015611b5d5781811015611b4e578281836040517ffb8f41b2000000000000000000000000000000000000000000000000000000008152600401611b4593929190613c33565b60405180910390fd5b611b5c84848484035f612404565b5b50505050565b5f73ffffffffffffffffffffffffffffffffffffffff168373ffffffffffffffffffffffffffffffffffffffff1603611bd3575f6040517f96c6fd1e000000000000000000000000000000000000000000000000000000008152600401611bca91906136ec565b60405180910390fd5b5f73ffffffffffffffffffffffffffffffffffffffff168273ffffffffffffffffffffffffffffffffffffffff1603611c43575f6040517fec442f05000000000000000000000000000000000000000000000000000000008152600401611c3a91906136ec565b60405180910390fd5b611c4e8383836125e1565b505050565b5f7f02dd7bc7dec4dceedda775e58dd541e08a116c6c53815c0bd028192f7b626800905090565b611c8b81611c86611a90565b612835565b50565b5f5f611c98611c53565b9050611ca4848461139f565b611d7b576001815f015f8681526020019081526020015f205f015f8573ffffffffffffffffffffffffffffffffffffffff1673ffffffffffffffffffffffffffffffffffffffff1681526020019081526020015f205f6101000a81548160ff021916908315150217905550611d17611a90565b73ffffffffffffffffffffffffffffffffffffffff168373ffffffffffffffffffffffffffffffffffffffff16857f2f8788117e7eff1d82e926ec794901d17c78024a50270940304540a733656f0d60405160405180910390a46001915050611d80565b5f9150505b92915050565b5f5f611d90611c53565b9050611d9c848461139f565b15611e73575f815f015f8681526020019081526020015f205f015f8573ffffffffffffffffffffffffffffffffffffffff1673ffffffffffffffffffffffffffffffffffffffff1681526020019081526020015f205f6101000a81548160ff021916908315150217905550611e0f611a90565b73ffffffffffffffffffffffffffffffffffffffff168373ffffffffffffffffffffffffffffffffffffffff16857ff6391f5c32d9c69d2a47ea670b442974b53935d1edc7fd64eb21e047a839171b60405160405180910390a46001915050611e78565b5f9150505b92915050565b611e86612886565b5f611e8f61225c565b90505f815f015f6101000a81548160ff0219169083151502179055507f5db9ee0a495bf2e6ff9c91a7834c1ba4fdd244a5e8aa4e537bd38aeae4b073aa611ed4611a90565b604051611ee191906136ec565b60405180910390a150565b5f73ffffffffffffffffffffffffffffffffffffffff168273ffffffffffffffffffffffffffffffffffffffff1603611f5c575f6040517fec442f05000000000000000000000000000000000000000000000000000000008152600401611f5391906136ec565b60405180910390fd5b611f675f83836125e1565b5050565b5f5f611f756128c6565b90508091505090565b611f866128ef565b611f90828261292f565b5050565b611f9c6128ef565b565b611fa66128ef565b611faf8161296b565b50565b611fba6128ef565b565b611fc46128ef565b565b7f000000000000000000000000000000000000000000000000000000000000000073ffffffffffffffffffffffffffffffffffffffff163073ffffffffffffffffffffffffffffffffffffffff16148061207357507f000000000000000000000000000000000000000000000000000000000000000073ffffffffffffffffffffffffffffffffffffffff1661205a6129ef565b73ffffffffffffffffffffffffffffffffffffffff1614155b156120aa576040517fe07c8dba00000000000000000000000000000000000000000000000000000000815260040160405180910390fd5b565b6120b4612283565b50565b8173ffffffffffffffffffffffffffffffffffffffff166352d1902d6040518163ffffffff1660e01b8152600401602060405180830381865afa92505050801561211f57506040513d601f19601f8201168201806040525081019061211c9190613c7c565b60015b61216057816040517f4c9c8ce300000000000000000000000000000000000000000000000000000000815260040161215791906136ec565b60405180910390fd5b7f360894a13ba1a3210667c828492db98dca3e2076cc3735a920a3ca505d382bbc5f1b81146121c657806040517faa1d49a40000000000000000000000000000000000000000000000000000000081526004016121bd9190613149565b60405180910390fd5b6121d08383612a42565b505050565b7f000000000000000000000000000000000000000000000000000000000000000073ffffffffffffffffffffffffffffffffffffffff163073ffffffffffffffffffffffffffffffffffffffff161461225a576040517fe07c8dba00000000000000000000000000000000000000000000000000000000815260040160405180910390fd5b565b5f7fcd5ed15c6e187e77e9aee88184c21f4f2182ab5827cb3b7e07fbedcd63f03300905090565b61228b611a90565b73ffffffffffffffffffffffffffffffffffffffff166122a961136a565b73ffffffffffffffffffffffffffffffffffffffff1614612308576122cc611a90565b6040517f118cdaa70000000000000000000000000000000000000000000000000000000081526004016122ff91906136ec565b60405180910390fd5b565b5f6123136123dd565b9050805f015f6101000a81549073ffffffffffffffffffffffffffffffffffffffff021916905561234382612ab4565b5050565b61234f612b85565b5f61235861225c565b90506001815f015f6101000a81548160ff0219169083151502179055507f62e78cea01bee320cd4e420270b5ea74000d11b0c9f74754ebdbfc544b05a25861239e611a90565b6040516123ab91906136ec565b60405180910390a150565b5f7f9016d09d72d40fdae2fd8ceac6b6234c7706214fd39c1cd1e609a0528c199300905090565b5f7f237e158222e3e6968b72b9db0d8043aacf074ad9f650f0d1606b4d82ee432c00905090565b5f61240d611aa9565b90505f73ffffffffffffffffffffffffffffffffffffffff168573ffffffffffffffffffffffffffffffffffffffff160361247f575f6040517fe602df0500000000000000000000000000000000000000000000000000000000815260040161247691906136ec565b60405180910390fd5b5f73ffffffffffffffffffffffffffffffffffffffff168473ffffffffffffffffffffffffffffffffffffffff16036124ef575f6040517f94280d620000000000000000000000000000000000000000000000000000000081526004016124e691906136ec565b60405180910390fd5b82816001015f8773ffffffffffffffffffffffffffffffffffffffff1673ffffffffffffffffffffffffffffffffffffffff1681526020019081526020015f205f8673ffffffffffffffffffffffffffffffffffffffff1673ffffffffffffffffffffffffffffffffffffffff1681526020019081526020015f208190555081156125da578373ffffffffffffffffffffffffffffffffffffffff168573ffffffffffffffffffffffffffffffffffffffff167f8c5be1e5ebec7d5bd14f71427d1e84f3dd0314c0f7b2291e5b200ac8c7c3b925856040516125d191906132cc565b60405180910390a35b5050505050565b60025f8473ffffffffffffffffffffffffffffffffffffffff1673ffffffffffffffffffffffffffffffffffffffff1681526020019081526020015f205f9054906101000a900460ff1615801561267f575060025f8373ffffffffffffffffffffffffffffffffffffffff1673ffffffffffffffffffffffffffffffffffffffff1681526020019081526020015f205f9054906101000a900460ff16155b6126be576040517f08c379a00000000000000000000000000000000000000000000000000000000081526004016126b590613cf1565b60405180910390fd5b60035f9054906101000a900460ff16801561270557505f73ffffffffffffffffffffffffffffffffffffffff168373ffffffffffffffffffffffffffffffffffffffff1614155b801561273d57505f73ffffffffffffffffffffffffffffffffffffffff168273ffffffffffffffffffffffffffffffffffffffff1614155b156128255761276c7ffacaf2747a7486cf5730e9265973fb54447d3ace6e7e4711f6360826b07319418461139f565b6127ab576040517f08c379a00000000000000000000000000000000000000000000000000000000081526004016127a290613d59565b60405180910390fd5b6127d57ffacaf2747a7486cf5730e9265973fb54447d3ace6e7e4711f6360826b07319418361139f565b612824575f6127e383611241565b14612823576040517f08c379a000000000000000000000000000000000000000000000000000000000815260040161281a90613de7565b60405180910390fd5b5b5b612830838383612bc6565b505050565b61283f828261139f565b6128825780826040517fe2517d3f000000000000000000000000000000000000000000000000000000008152600401612879929190613e05565b60405180910390fd5b5050565b61288e610f93565b6128c4576040517f8dfc202b00000000000000000000000000000000000000000000000000000000815260040160405180910390fd5b565b5f7ff0c57e16840df040f15088dc2f81fe391c3923bec73e23a9662efc9c229c6a005f1b905090565b6128f7612bde565b61292d576040517fd7e6bcf800000000000000000000000000000000000000000000000000000000815260040160405180910390fd5b565b6129376128ef565b5f612940611aa9565b9050828160030190816129539190613e2c565b50818160040190816129659190613e2c565b50505050565b6129736128ef565b5f73ffffffffffffffffffffffffffffffffffffffff168173ffffffffffffffffffffffffffffffffffffffff16036129e3575f6040517f1e4fbdf70000000000000000000000000000000000000000000000000000000081526004016129da91906136ec565b60405180910390fd5b6129ec8161230a565b50565b5f612a1b7f360894a13ba1a3210667c828492db98dca3e2076cc3735a920a3ca505d382bbc5f1b612bfc565b5f015f9054906101000a900473ffffffffffffffffffffffffffffffffffffffff16905090565b612a4b82612c05565b8173ffffffffffffffffffffffffffffffffffffffff167fbc7cd75a20ee27fd9adebab32041f755214dbc6bffa90cc0225b39da2e5c2d3b60405160405180910390a25f81511115612aa757612aa18282612cce565b50612ab0565b612aaf612dbf565b5b5050565b5f612abd6123b6565b90505f815f015f9054906101000a900473ffffffffffffffffffffffffffffffffffffffff16905082825f015f6101000a81548173ffffffffffffffffffffffffffffffffffffffff021916908373ffffffffffffffffffffffffffffffffffffffff1602179055508273ffffffffffffffffffffffffffffffffffffffff168173ffffffffffffffffffffffffffffffffffffffff167f8be0079c531659141344cd1fd0a4f28419497f9722a3daafe3b4186f6b6457e060405160405180910390a3505050565b612b8d610f93565b15612bc4576040517fd93c066500000000000000000000000000000000000000000000000000000000815260040160405180910390fd5b565b612bce612b85565b612bd9838383612dfb565b505050565b5f612be7611f6b565b5f0160089054906101000a900460ff16905090565b5f819050919050565b5f8173ffffffffffffffffffffffffffffffffffffffff163b03612c6057806040517f4c9c8ce3000000000000000000000000000000000000000000000000000000008152600401612c5791906136ec565b60405180910390fd5b80612c8c7f360894a13ba1a3210667c828492db98dca3e2076cc3735a920a3ca505d382bbc5f1b612bfc565b5f015f6101000a81548173ffffffffffffffffffffffffffffffffffffffff021916908373ffffffffffffffffffffffffffffffffffffffff16021790555050565b60605f612cdb848461302a565b9050808015612d1157505f612cee61303e565b1180612d1057505f8473ffffffffffffffffffffffffffffffffffffffff163b115b5b15612d2657612d1e613045565b915050612db9565b8015612d6957836040517f9996b315000000000000000000000000000000000000000000000000000000008152600401612d6091906136ec565b60405180910390fd5b5f612d7261303e565b1115612d8557612d80613062565b612db7565b6040517fd6bda27500000000000000000000000000000000000000000000000000000000815260040160405180910390fd5b505b92915050565b5f341115612df9576040517fb398979f00000000000000000000000000000000000000000000000000000000815260040160405180910390fd5b565b5f612e04611aa9565b90505f73ffffffffffffffffffffffffffffffffffffffff168473ffffffffffffffffffffffffffffffffffffffff1603612e585781816002015f828254612e4c9190613f28565b92505081905550612f2a565b5f815f015f8673ffffffffffffffffffffffffffffffffffffffff1673ffffffffffffffffffffffffffffffffffffffff1681526020019081526020015f2054905082811015612ee3578481846040517fe450d38c000000000000000000000000000000000000000000000000000000008152600401612eda93929190613c33565b60405180910390fd5b828103825f015f8773ffffffffffffffffffffffffffffffffffffffff1673ffffffffffffffffffffffffffffffffffffffff1681526020019081526020015f2081905550505b5f73ffffffffffffffffffffffffffffffffffffffff168373ffffffffffffffffffffffffffffffffffffffff1603612f735781816002015f8282540392505081905550612fbf565b81815f015f8573ffffffffffffffffffffffffffffffffffffffff1673ffffffffffffffffffffffffffffffffffffffff1681526020019081526020015f205f82825401925050819055505b8273ffffffffffffffffffffffffffffffffffffffff168473ffffffffffffffffffffffffffffffffffffffff167fddf252ad1be2c89b69c2b068fc378daa952ba7f163c4a11628f55a4df523b3ef8460405161301c91906132cc565b60405180910390a350505050565b5f5f5f835160208501865af4905092915050565b5f3d905090565b606060405190503d81523d5f602083013e3d602001810160405290565b6040513d5f823e3d81fd5b5f604051905090565b5f5ffd5b5f5ffd5b5f7fffffffff0000000000000000000000000000000000000000000000000000000082169050919050565b6130b28161307e565b81146130bc575f5ffd5b50565b5f813590506130cd816130a9565b92915050565b5f602082840312156130e8576130e7613076565b5b5f6130f5848285016130bf565b91505092915050565b5f8115159050919050565b613112816130fe565b82525050565b5f60208201905061312b5f830184613109565b92915050565b5f819050919050565b61314381613131565b82525050565b5f60208201905061315c5f83018461313a565b92915050565b5f81519050919050565b5f82825260208201905092915050565b8281835e5f83830152505050565b5f601f19601f8301169050919050565b5f6131a482613162565b6131ae818561316c565b93506131be81856020860161317c565b6131c78161318a565b840191505092915050565b5f6020820190508181035f8301526131ea818461319a565b905092915050565b5f73ffffffffffffffffffffffffffffffffffffffff82169050919050565b5f61321b826131f2565b9050919050565b61322b81613211565b8114613235575f5ffd5b50565b5f8135905061324681613222565b92915050565b5f819050919050565b61325e8161324c565b8114613268575f5ffd5b50565b5f8135905061327981613255565b92915050565b5f5f6040838503121561329557613294613076565b5b5f6132a285828601613238565b92505060206132b38582860161326b565b9150509250929050565b6132c68161324c565b82525050565b5f6020820190506132df5f8301846132bd565b92915050565b5f5f5f606084860312156132fc576132fb613076565b5b5f61330986828701613238565b935050602061331a86828701613238565b925050604061332b8682870161326b565b9150509250925092565b61333e81613131565b8114613348575f5ffd5b50565b5f8135905061335981613335565b92915050565b5f6020828403121561337457613373613076565b5b5f6133818482850161334b565b91505092915050565b613393816130fe565b811461339d575f5ffd5b50565b5f813590506133ae8161338a565b92915050565b5f602082840312156133c9576133c8613076565b5b5f6133d6848285016133a0565b91505092915050565b5f5f604083850312156133f5576133f4613076565b5b5f6134028582860161334b565b925050602061341385828601613238565b9150509250929050565b5f60ff82169050919050565b6134328161341d565b82525050565b5f60208201905061344b5f830184613429565b92915050565b5f5ffd5b5f5ffd5b5f5ffd5b5f5f83601f84011261347257613471613451565b5b8235905067ffffffffffffffff81111561348f5761348e613455565b5b6020830191508360018202830111156134ab576134aa613459565b5b9250929050565b5f5f5f5f604085870312156134ca576134c9613076565b5b5f85013567ffffffffffffffff8111156134e7576134e661307a565b5b6134f38782880161345d565b9450945050602085013567ffffffffffffffff8111156135165761351561307a565b5b6135228782880161345d565b925092505092959194509250565b5f5ffd5b7f4e487b71000000000000000000000000000000000000000000000000000000005f52604160045260245ffd5b61356a8261318a565b810181811067ffffffffffffffff8211171561358957613588613534565b5b80604052505050565b5f61359b61306d565b90506135a78282613561565b919050565b5f67ffffffffffffffff8211156135c6576135c5613534565b5b6135cf8261318a565b9050602081019050919050565b828183375f83830152505050565b5f6135fc6135f7846135ac565b613592565b90508281526020810184848401111561361857613617613530565b5b6136238482856135dc565b509392505050565b5f82601f83011261363f5761363e613451565b5b813561364f8482602086016135ea565b91505092915050565b5f5f6040838503121561366e5761366d613076565b5b5f61367b85828601613238565b925050602083013567ffffffffffffffff81111561369c5761369b61307a565b5b6136a88582860161362b565b9150509250929050565b5f602082840312156136c7576136c6613076565b5b5f6136d484828501613238565b91505092915050565b6136e681613211565b82525050565b5f6020820190506136ff5f8301846136dd565b92915050565b5f5f6020838503121561371b5761371a613076565b5b5f83013567ffffffffffffffff8111156137385761373761307a565b5b6137448582860161345d565b92509250509250929050565b5f5f6040838503121561376657613765613076565b5b5f61377385828601613238565b925050602061378485828601613238565b9150509250929050565b7f4e487b71000000000000000000000000000000000000000000000000000000005f52602260045260245ffd5b5f60028204905060018216806137d257607f821691505b6020821081036137e5576137e461378e565b5b50919050565b5f82905092915050565b5f819050815f5260205f209050919050565b5f6020601f8301049050919050565b5f82821b905092915050565b5f600883026138517fffffffffffffffffffffffffffffffffffffffffffffffffffffffffffffffff82613816565b61385b8683613816565b95508019841693508086168417925050509392505050565b5f819050919050565b5f61389661389161388c8461324c565b613873565b61324c565b9050919050565b5f819050919050565b6138af8361387c565b6138c36138bb8261389d565b848454613822565b825550505050565b5f5f905090565b6138da6138cb565b6138e58184846138a6565b505050565b5f5b8281101561390b576139005f8284016138d2565b6001810190506138ec565b505050565b601f82111561395e578282111561395d5761392a816137f5565b61393383613807565b61393c85613807565b6020861015613949575f90505b808301613958828403826138ea565b505050505b5b505050565b5f82821c905092915050565b5f61397e5f1984600802613963565b1980831691505092915050565b5f613996838361396f565b9150826002028217905092915050565b6139b083836137eb565b67ffffffffffffffff8111156139c9576139c8613534565b5b6139d382546137bb565b6139de828285613910565b5f601f831160018114613a0b575f84156139f9578287013590505b613a03858261398b565b865550613a6a565b601f198416613a19866137f5565b5f5b82811015613a4057848901358255600182019150602085019450602081019050613a1b565b86831015613a5d5784890135613a59601f89168261396f565b8355505b6001600288020188555050505b50505050505050565b5f819050919050565b5f67ffffffffffffffff82169050919050565b5f613aa9613aa4613a9f84613a73565b613873565b613a7c565b9050919050565b613ab981613a8f565b82525050565b5f602082019050613ad25f830184613ab0565b92915050565b613ae181613a7c565b82525050565b5f602082019050613afa5f830184613ad8565b92915050565b7f4e6f742066726f7a656e000000000000000000000000000000000000000000005f82015250565b5f613b34600a8361316c565b9150613b3f82613b00565b602082019050919050565b5f6020820190508181035f830152613b6181613b28565b9050919050565b7f416c72656164792066726f7a656e0000000000000000000000000000000000005f82015250565b5f613b9c600e8361316c565b9150613ba782613b68565b602082019050919050565b5f6020820190508181035f830152613bc981613b90565b9050919050565b5f613bdb838561316c565b9350613be88385846135dc565b613bf18361318a565b840190509392505050565b5f6040820190508181035f830152613c14818661319a565b90508181036020830152613c29818486613bd0565b9050949350505050565b5f606082019050613c465f8301866136dd565b613c5360208301856132bd565b613c6060408301846132bd565b949350505050565b5f81519050613c7681613335565b92915050565b5f60208284031215613c9157613c90613076565b5b5f613c9e84828501613c68565b91505092915050565b7f57616c6c65742069732066726f7a656e000000000000000000000000000000005f82015250565b5f613cdb60108361316c565b9150613ce682613ca7565b602082019050919050565b5f6020820190508181035f830152613d0881613ccf565b9050919050565b7f53656e646572206c61636b73205452414445525f524f4c4500000000000000005f82015250565b5f613d4360188361316c565b9150613d4e82613d0f565b602082019050919050565b5f6020820190508181035f830152613d7081613d37565b9050919050565b7f5265636569766572206861732062616c616e636520627574206c61636b7320545f8201527f52414445525f524f4c4500000000000000000000000000000000000000000000602082015250565b5f613dd1602a8361316c565b9150613ddc82613d77565b604082019050919050565b5f6020820190508181035f830152613dfe81613dc5565b9050919050565b5f604082019050613e185f8301856136dd565b613e25602083018461313a565b9392505050565b613e3582613162565b67ffffffffffffffff811115613e4e57613e4d613534565b5b613e5882546137bb565b613e63828285613910565b5f60209050601f831160018114613e94575f8415613e82578287015190505b613e8c858261398b565b865550613ef3565b601f198416613ea2866137f5565b5f5b82811015613ec957848901518255600182019150602085019450602081019050613ea4565b86831015613ee65784890151613ee2601f89168261396f565b8355505b6001600288020188555050505b505050505050565b7f4e487b71000000000000000000000000000000000000000000000000000000005f52601160045260245ffd5b5f613f328261324c565b9150613f3d8361324c565b9250828201905080821115613f5557613f54613efb565b5b9291505056fea264697066735822122044537eab296b1cdad4dfe093e3072ff52b98d2af540d7d661df14c64decc695f64736f6c63430008220033', \n     arguments: [\n     ]\n}).send({\n     from: web3.eth.accounts[0], \n     gas: '4700000'\n   }, function (e, contract){\n    console.log(e, contract);\n    if (typeof contract.address !== 'undefined') {\n         console.log('Contract mined! address: ' + contract.address + ' transactionHash: ' + contract.transactionHash);\n    }\n })",
	"functionHashes": {
		"a217fddf": "DEFAULT_ADMIN_ROLE()",
		"06a85f0f": "FREEZER_ROLE()",
		"d5391393": "MINTER_ROLE()",
		"e63ab1e9": "PAUSER_ROLE()",
		"f0a56fc8": "TRADER_ROLE()",
		"ad3cb1cc": "UPGRADE_INTERFACE_VERSION()",
		"79ba5097": "acceptOwnership()",
		"dd62ed3e": "allowance(address,address)",
		"095ea7b3": "approve(address,uint256)",
		"70a08231": "balanceOf(address)",
		"313ce567": "decimals()",
		"9f001169": "freezeWallet(address)",
		"248a9ca3": "getRoleAdmin(bytes32)",
		"2f2ff15d": "grantRole(bytes32,address)",
		"91d14854": "hasRole(bytes32,address)",
		"4cd88b76": "initialize(string,string)",
		"5cd8a76b": "initializeV2()",
		"40c10f19": "mint(address,uint256)",
		"06fdde03": "name()",
		"8da5cb5b": "owner()",
		"8456cb59": "pause()",
		"5c975abb": "paused()",
		"e30c3978": "pendingOwner()",
		"52d1902d": "proxiableUUID()",
		"715018a6": "renounceOwnership()",
		"36568abe": "renounceRole(bytes32,address)",
		"d547741f": "revokeRole(bytes32,address)",
		"c47f0027": "setName(string)",
		"b84c8246": "setSymbol(string)",
		"252400da": "setTraderRestriction(bool)",
		"01ffc9a7": "supportsInterface(bytes4)",
		"95d89b41": "symbol()",
		"18160ddd": "totalSupply()",
		"2e5b15ce": "traderRestrictionActive()",
		"a9059cbb": "transfer(address,uint256)",
		"23b872dd": "transferFrom(address,address,uint256)",
		"f2fde38b": "transferOwnership(address)",
		"60f588b7": "unfreezeWallet(address)",
		"3f4ba83a": "unpause()",
		"4f1ef286": "upgradeToAndCall(address,bytes)"
	},
	"gasEstimates": {
		"Creation": {
			"codeDepositCost": "3254600",
			"executionCost": "infinite",
			"totalCost": "infinite"
		},
		"External": {
			"DEFAULT_ADMIN_ROLE()": "440",
			"FREEZER_ROLE()": "394",
			"MINTER_ROLE()": "436",
			"PAUSER_ROLE()": "413",
			"TRADER_ROLE()": "435",
			"UPGRADE_INTERFACE_VERSION()": "infinite",
			"acceptOwnership()": "infinite",
			"allowance(address,address)": "infinite",
			"approve(address,uint256)": "infinite",
			"balanceOf(address)": "2926",
			"decimals()": "384",
			"freezeWallet(address)": "infinite",
			"getRoleAdmin(bytes32)": "infinite",
			"grantRole(bytes32,address)": "infinite",
			"hasRole(bytes32,address)": "3217",
			"initialize(string,string)": "infinite",
			"initializeV2()": "103123",
			"mint(address,uint256)": "infinite",
			"name()": "infinite",
			"owner()": "2700",
			"pause()": "infinite",
			"paused()": "2613",
			"pendingOwner()": "2632",
			"proxiableUUID()": "infinite",
			"renounceOwnership()": "infinite",
			"renounceRole(bytes32,address)": "infinite",
			"revokeRole(bytes32,address)": "infinite",
			"setName(string)": "infinite",
			"setSymbol(string)": "infinite",
			"setTraderRestriction(bool)": "infinite",
			"supportsInterface(bytes4)": "764",
			"symbol()": "infinite",
			"totalSupply()": "2619",
			"traderRestrictionActive()": "2578",
			"transfer(address,uint256)": "infinite",
			"transferFrom(address,address,uint256)": "infinite",
			"transferOwnership(address)": "infinite",
			"unfreezeWallet(address)": "infinite",
			"unpause()": "infinite",
			"upgradeToAndCall(address,bytes)": "infinite"
		},
		"Internal": {
			"_authorizeUpgrade(address)": "infinite",
			"_update(address,address,uint256)": "infinite"
		}
	},
	"devdoc": {
		"errors": {
			"AccessControlBadConfirmation()": [
				{
					"details": "The caller of a function is not the expected one. NOTE: Don't confuse with {AccessControlUnauthorizedAccount}."
				}
			],
			"AccessControlUnauthorizedAccount(address,bytes32)": [
				{
					"details": "The `account` is missing a role."
				}
			],
			"AddressEmptyCode(address)": [
				{
					"details": "There's no code at `target` (it is not a contract)."
				}
			],
			"ERC1967InvalidImplementation(address)": [
				{
					"details": "The `implementation` of the proxy is invalid."
				}
			],
			"ERC1967NonPayable()": [
				{
					"details": "An upgrade function sees `msg.value > 0` that may be lost."
				}
			],
			"ERC20InsufficientAllowance(address,uint256,uint256)": [
				{
					"details": "Indicates a failure with the `spender`’s `allowance`. Used in transfers.",
					"params": {
						"allowance": "Amount of tokens a `spender` is allowed to operate with.",
						"needed": "Minimum amount required to perform a transfer.",
						"spender": "Address that may be allowed to operate on tokens without being their owner."
					}
				}
			],
			"ERC20InsufficientBalance(address,uint256,uint256)": [
				{
					"details": "Indicates an error related to the current `balance` of a `sender`. Used in transfers.",
					"params": {
						"balance": "Current balance for the interacting account.",
						"needed": "Minimum amount required to perform a transfer.",
						"sender": "Address whose tokens are being transferred."
					}
				}
			],
			"ERC20InvalidApprover(address)": [
				{
					"details": "Indicates a failure with the `approver` of a token to be approved. Used in approvals.",
					"params": {
						"approver": "Address initiating an approval operation."
					}
				}
			],
			"ERC20InvalidReceiver(address)": [
				{
					"details": "Indicates a failure with the token `receiver`. Used in transfers.",
					"params": {
						"receiver": "Address to which tokens are being transferred."
					}
				}
			],
			"ERC20InvalidSender(address)": [
				{
					"details": "Indicates a failure with the token `sender`. Used in transfers.",
					"params": {
						"sender": "Address whose tokens are being transferred."
					}
				}
			],
			"ERC20InvalidSpender(address)": [
				{
					"details": "Indicates a failure with the `spender` to be approved. Used in approvals.",
					"params": {
						"spender": "Address that may be allowed to operate on tokens without being their owner."
					}
				}
			],
			"EnforcedPause()": [
				{
					"details": "The operation failed because the contract is paused."
				}
			],
			"ExpectedPause()": [
				{
					"details": "The operation failed because the contract is not paused."
				}
			],
			"FailedCall()": [
				{
					"details": "A call to an address target failed. The target may have reverted."
				}
			],
			"InvalidInitialization()": [
				{
					"details": "The contract is already initialized."
				}
			],
			"NotInitializing()": [
				{
					"details": "The contract is not initializing."
				}
			],
			"OwnableInvalidOwner(address)": [
				{
					"details": "The owner is not a valid owner account. (eg. `address(0)`)"
				}
			],
			"OwnableUnauthorizedAccount(address)": [
				{
					"details": "The caller account is not authorized to perform an operation."
				}
			],
			"UUPSUnauthorizedCallContext()": [
				{
					"details": "The call is from an unauthorized context."
				}
			],
			"UUPSUnsupportedProxiableUUID(bytes32)": [
				{
					"details": "The storage `slot` is unsupported as a UUID."
				}
			]
		},
		"events": {
			"Approval(address,address,uint256)": {
				"details": "Emitted when the allowance of a `spender` for an `owner` is set by a call to {approve}. `value` is the new allowance."
			},
			"Initialized(uint64)": {
				"details": "Triggered when the contract has been initialized or reinitialized."
			},
			"Paused(address)": {
				"details": "Emitted when the pause is triggered by `account`."
			},
			"RoleAdminChanged(bytes32,bytes32,bytes32)": {
				"details": "Emitted when `newAdminRole` is set as ``role``'s admin role, replacing `previousAdminRole` `DEFAULT_ADMIN_ROLE` is the starting admin for all roles, despite {RoleAdminChanged} not being emitted to signal this."
			},
			"RoleGranted(bytes32,address,address)": {
				"details": "Emitted when `account` is granted `role`. `sender` is the account that originated the contract call. This account bears the admin role (for the granted role). Expected in cases where the role was granted using the internal {AccessControl-_grantRole}."
			},
			"RoleRevoked(bytes32,address,address)": {
				"details": "Emitted when `account` is revoked `role`. `sender` is the account that originated the contract call:   - if using `revokeRole`, it is the admin role bearer   - if using `renounceRole`, it is the role bearer (i.e. `account`)"
			},
			"Transfer(address,address,uint256)": {
				"details": "Emitted when `value` tokens are moved from one account (`from`) to another (`to`). Note that `value` may be zero."
			},
			"Unpaused(address)": {
				"details": "Emitted when the pause is lifted by `account`."
			},
			"Upgraded(address)": {
				"details": "Emitted when the implementation is upgraded."
			}
		},
		"kind": "dev",
		"methods": {
			"acceptOwnership()": {
				"details": "The new owner accepts the ownership transfer."
			},
			"allowance(address,address)": {
				"details": "Returns the remaining number of tokens that `spender` will be allowed to spend on behalf of `owner` through {transferFrom}. This is zero by default. This value changes when {approve} or {transferFrom} are called."
			},
			"approve(address,uint256)": {
				"details": "See {IERC20-approve}. NOTE: If `value` is the maximum `uint256`, the allowance is not updated on `transferFrom`. This is semantically equivalent to an infinite approval. Requirements: - `spender` cannot be the zero address."
			},
			"balanceOf(address)": {
				"details": "Returns the value of tokens owned by `account`."
			},
			"constructor": {
				"custom:oz-upgrades-unsafe-allow": "constructor"
			},
			"decimals()": {
				"details": "Returns the number of decimals used to get its user representation. For example, if `decimals` equals `2`, a balance of `505` tokens should be displayed to a user as `5.05` (`505 / 10 ** 2`). Tokens usually opt for a value of 18, imitating the relationship between Ether and Wei. This is the default value returned by this function, unless it's overridden. NOTE: This information is only used for _display_ purposes: it in no way affects any of the arithmetic of the contract, including {IERC20-balanceOf} and {IERC20-transfer}."
			},
			"getRoleAdmin(bytes32)": {
				"details": "Returns the admin role that controls `role`. See {grantRole} and {revokeRole}. To change a role's admin, use {_setRoleAdmin}."
			},
			"grantRole(bytes32,address)": {
				"details": "Grants `role` to `account`. If `account` had not been already granted `role`, emits a {RoleGranted} event. Requirements: - the caller must have ``role``'s admin role. May emit a {RoleGranted} event."
			},
			"hasRole(bytes32,address)": {
				"details": "Returns `true` if `account` has been granted `role`."
			},
			"name()": {
				"details": "Returns the name of the token."
			},
			"owner()": {
				"details": "Returns the address of the current owner."
			},
			"paused()": {
				"details": "Returns true if the contract is paused, and false otherwise."
			},
			"pendingOwner()": {
				"details": "Returns the address of the pending owner."
			},
			"proxiableUUID()": {
				"details": "Implementation of the ERC-1822 {proxiableUUID} function. This returns the storage slot used by the implementation. It is used to validate the implementation's compatibility when performing an upgrade. IMPORTANT: A proxy pointing at a proxiable contract should not be considered proxiable itself, because this risks bricking a proxy that upgrades to it, by delegating to itself until out of gas. Thus it is critical that this function revert if invoked through a proxy. This is guaranteed by the `notDelegated` modifier."
			},
			"renounceOwnership()": {
				"details": "Leaves the contract without owner. It will not be possible to call `onlyOwner` functions. Can only be called by the current owner. NOTE: Renouncing ownership will leave the contract without an owner, thereby disabling any functionality that is only available to the owner."
			},
			"renounceRole(bytes32,address)": {
				"details": "Revokes `role` from the calling account. Roles are often managed via {grantRole} and {revokeRole}: this function's purpose is to provide a mechanism for accounts to lose their privileges if they are compromised (such as when a trusted device is misplaced). If the calling account had been revoked `role`, emits a {RoleRevoked} event. Requirements: - the caller must be `callerConfirmation`. May emit a {RoleRevoked} event."
			},
			"revokeRole(bytes32,address)": {
				"details": "Revokes `role` from `account`. If `account` had been granted `role`, emits a {RoleRevoked} event. Requirements: - the caller must have ``role``'s admin role. May emit a {RoleRevoked} event."
			},
			"supportsInterface(bytes4)": {
				"details": "Returns true if this contract implements the interface defined by `interfaceId`. See the corresponding https://eips.ethereum.org/EIPS/eip-165#how-interfaces-are-identified[ERC section] to learn more about how these ids are created. This function call must use less than 30 000 gas."
			},
			"symbol()": {
				"details": "Returns the symbol of the token, usually a shorter version of the name."
			},
			"totalSupply()": {
				"details": "Returns the value of tokens in existence."
			},
			"transfer(address,uint256)": {
				"details": "See {IERC20-transfer}. Requirements: - `to` cannot be the zero address. - the caller must have a balance of at least `value`."
			},
			"transferFrom(address,address,uint256)": {
				"details": "See {IERC20-transferFrom}. Skips emitting an {Approval} event indicating an allowance update. This is not required by the ERC. See {xref-ERC20-_approve-address-address-uint256-bool-}[_approve]. NOTE: Does not update the allowance if the current allowance is the maximum `uint256`. Requirements: - `from` and `to` cannot be the zero address. - `from` must have a balance of at least `value`. - the caller must have allowance for ``from``'s tokens of at least `value`."
			},
			"transferOwnership(address)": {
				"details": "Starts the ownership transfer of the contract to a new account. Replaces the pending transfer if there is one. Can only be called by the current owner. Setting `newOwner` to the zero address is allowed; this can be used to cancel an initiated ownership transfer."
			},
			"upgradeToAndCall(address,bytes)": {
				"custom:oz-upgrades-unsafe-allow-reachable": "delegatecall",
				"details": "Upgrade the implementation of the proxy to `newImplementation`, and subsequently execute the function call encoded in `data`. Calls {_authorizeUpgrade}. Emits an {Upgraded} event."
			}
		},
		"version": 1
	},
	"userdoc": {
		"kind": "user",
		"methods": {},
		"version": 1
	},
	"Runtime Bytecode": {
		"immutableReferences": {
			"2454": [
				{
					"length": 32,
					"start": 8136
				},
				{
					"length": 32,
					"start": 8221
				},
				{
					"length": 32,
					"start": 8663
				}
			]
		},
		"linkReferences": {},
		"object": "60806040526004361061023a575f3560e01c806370a082311161012d578063ad3cb1cc116100aa578063dd62ed3e1161006e578063dd62ed3e146107f4578063e30c397814610830578063e63ab1e91461085a578063f0a56fc814610884578063f2fde38b146108ae5761023a565b8063ad3cb1cc14610728578063b84c824614610752578063c47f00271461077a578063d5391393146107a2578063d547741f146107cc5761023a565b806391d14854116100f157806391d148541461063457806395d89b41146106705780639f0011691461069a578063a217fddf146106c2578063a9059cbb146106ec5761023a565b806370a082311461058c578063715018a6146105c857806379ba5097146105de5780638456cb59146105f45780638da5cb5b1461060a5761023a565b8063313ce567116101bb5780634f1ef2861161017f5780634f1ef286146104de57806352d1902d146104fa5780635c975abb146105245780635cd8a76b1461054e57806360f588b7146105645761023a565b8063313ce5671461042657806336568abe146104505780633f4ba83a1461047857806340c10f191461048e5780634cd88b76146104b65761023a565b806323b872dd1161020257806323b872dd14610334578063248a9ca314610370578063252400da146103ac5780632e5b15ce146103d45780632f2ff15d146103fe5761023a565b806301ffc9a71461023e57806306a85f0f1461027a57806306fdde03146102a4578063095ea7b3146102ce57806318160ddd1461030a575b5f5ffd5b348015610249575f5ffd5b50610264600480360381019061025f91906130d3565b6108d6565b6040516102719190613118565b60405180910390f35b348015610285575f5ffd5b5061028e61094f565b60405161029b9190613149565b60405180910390f35b3480156102af575f5ffd5b506102b8610973565b6040516102c591906131d2565b60405180910390f35b3480156102d9575f5ffd5b506102f460048036038101906102ef919061327f565b610a02565b6040516103019190613118565b60405180910390f35b348015610315575f5ffd5b5061031e610a24565b60405161032b91906132cc565b60405180910390f35b34801561033f575f5ffd5b5061035a600480360381019061035591906132e5565b610a3b565b6040516103679190613118565b60405180910390f35b34801561037b575f5ffd5b506103966004803603810190610391919061335f565b610a69565b6040516103a39190613149565b60405180910390f35b3480156103b7575f5ffd5b506103d260048036038101906103cd91906133b4565b610a93565b005b3480156103df575f5ffd5b506103e8610af3565b6040516103f59190613118565b60405180910390f35b348015610409575f5ffd5b50610424600480360381019061041f91906133df565b610b05565b005b348015610431575f5ffd5b5061043a610b27565b6040516104479190613438565b60405180910390f35b34801561045b575f5ffd5b50610476600480360381019061047191906133df565b610b2f565b005b348015610483575f5ffd5b5061048c610baa565b005b348015610499575f5ffd5b506104b460048036038101906104af919061327f565b610bdf565b005b3480156104c1575f5ffd5b506104dc60048036038101906104d791906134b2565b610c66565b005b6104f860048036038101906104f39190613658565b610f43565b005b348015610505575f5ffd5b5061050e610f62565b60405161051b9190613149565b60405180910390f35b34801561052f575f5ffd5b50610538610f93565b6040516105459190613118565b60405180910390f35b348015610559575f5ffd5b50610562610fb5565b005b34801561056f575f5ffd5b5061058a600480360381019061058591906136b2565b6110f3565b005b348015610597575f5ffd5b506105b260048036038101906105ad91906136b2565b611241565b6040516105bf91906132cc565b60405180910390f35b3480156105d3575f5ffd5b506105dc611294565b005b3480156105e9575f5ffd5b506105f26112a7565b005b3480156105ff575f5ffd5b50610608611335565b005b348015610615575f5ffd5b5061061e61136a565b60405161062b91906136ec565b60405180910390f35b34801561063f575f5ffd5b5061065a600480360381019061065591906133df565b61139f565b6040516106679190613118565b60405180910390f35b34801561067b575f5ffd5b50610684611410565b60405161069191906131d2565b60405180910390f35b3480156106a5575f5ffd5b506106c060048036038101906106bb91906136b2565b6114a0565b005b3480156106cd575f5ffd5b506106d66115f0565b6040516106e39190613149565b60405180910390f35b3480156106f7575f5ffd5b50610712600480360381019061070d919061327f565b6115f6565b60405161071f9190613118565b60405180910390f35b348015610733575f5ffd5b5061073c611618565b60405161074991906131d2565b60405180910390f35b34801561075d575f5ffd5b5061077860048036038101906107739190613705565b611651565b005b348015610785575f5ffd5b506107a0600480360381019061079b9190613705565b611737565b005b3480156107ad575f5ffd5b506107b661181b565b6040516107c39190613149565b60405180910390f35b3480156107d7575f5ffd5b506107f260048036038101906107ed91906133df565b61183f565b005b3480156107ff575f5ffd5b5061081a60048036038101906108159190613750565b611861565b60405161082791906132cc565b60405180910390f35b34801561083b575f5ffd5b506108446118f1565b60405161085191906136ec565b60405180910390f35b348015610865575f5ffd5b5061086e611926565b60405161087b9190613149565b60405180910390f35b34801561088f575f5ffd5b5061089861194a565b6040516108a59190613149565b60405180910390f35b3480156108b9575f5ffd5b506108d460048036038101906108cf91906136b2565b61196e565b005b5f7f7965db0b000000000000000000000000000000000000000000000000000000007bffffffffffffffffffffffffffffffffffffffffffffffffffffffff1916827bffffffffffffffffffffffffffffffffffffffffffffffffffffffff19161480610948575061094782611a27565b5b9050919050565b7f92de27771f92d6942691d73358b3a4673e4880de8356f8f2cf452be87e02d36381565b60605f8054610981906137bb565b80601f01602080910402602001604051908101604052809291908181526020018280546109ad906137bb565b80156109f85780601f106109cf576101008083540402835291602001916109f8565b820191905f5260205f20905b8154815290600101906020018083116109db57829003601f168201915b5050505050905090565b5f5f610a0c611a90565b9050610a19818585611a97565b600191505092915050565b5f5f610a2e611aa9565b9050806002015491505090565b5f5f610a45611a90565b9050610a52858285611ad0565b610a5d858585611b63565b60019150509392505050565b5f5f610a73611c53565b9050805f015f8481526020019081526020015f2060010154915050919050565b5f5f1b610a9f81611c7a565b8160035f6101000a81548160ff0219169083151502179055507f24b29ee845e0e3f55662a5ccbbd026629d29229de2a98b6c12f968d8d0c3e24e82604051610ae79190613118565b60405180910390a15050565b60035f9054906101000a900460ff1681565b610b0e82610a69565b610b1781611c7a565b610b218383611c8e565b50505050565b5f6012905090565b610b37611a90565b73ffffffffffffffffffffffffffffffffffffffff168173ffffffffffffffffffffffffffffffffffffffff1614610b9b576040517f6697b23200000000000000000000000000000000000000000000000000000000815260040160405180910390fd5b610ba58282611d86565b505050565b7f65d7a28e3265b37a6474929f336521b332c1681b933f6cb9f3376673440d862a610bd481611c7a565b610bdc611e7e565b50565b7f9f2df0fed2c77648de5860a4cc508cd0818c85b8b8a1ab4ceeef8d981c8956a6610c0981611c7a565b610c138383611eec565b8273ffffffffffffffffffffffffffffffffffffffff167f30385c845b448a36257a6a1716e6ad2e1bc2cbe333cde1e69fe849ad6511adfe83604051610c5991906132cc565b60405180910390a2505050565b5f610c6f611f6b565b90505f815f0160089054906101000a900460ff161590505f825f015f9054906101000a900467ffffffffffffffff1690505f5f8267ffffffffffffffff16148015610cb75750825b90505f60018367ffffffffffffffff16148015610cea57505f3073ffffffffffffffffffffffffffffffffffffffff163b145b905081158015610cf8575080155b15610d2f576040517ff92ee8a900000000000000000000000000000000000000000000000000000000815260040160405180910390fd5b6001855f015f6101000a81548167ffffffffffffffff021916908367ffffffffffffffff1602179055508315610d7c576001855f0160086101000a81548160ff0219169083151502179055505b610e0c89898080601f0160208091040260200160405190810160405280939291908181526020018383808284375f81840152601f19601f8201169050808301925050505050505088888080601f0160208091040260200160405190810160405280939291908181526020018383808284375f81840152601f19601f82011690508083019250505050505050611f7e565b610e14611f94565b610e1d33611f9e565b610e25611fb2565b610e2d611fbc565b88885f9182610e3d9291906139a6565b50868660019182610e4f9291906139a6565b50610e5c5f5f1b33611c8e565b50610e877f9f2df0fed2c77648de5860a4cc508cd0818c85b8b8a1ab4ceeef8d981c8956a633611c8e565b50610eb27f92de27771f92d6942691d73358b3a4673e4880de8356f8f2cf452be87e02d36333611c8e565b50610edd7f65d7a28e3265b37a6474929f336521b332c1681b933f6cb9f3376673440d862a33611c8e565b508315610f38575f855f0160086101000a81548160ff0219169083151502179055507fc7f505b2f371ae2175ee4913f4499e1f2633a7b5936321eed1cdaeb6115181d26001604051610f2f9190613abf565b60405180910390a15b505050505050505050565b610f4b611fc6565b610f54826120ac565b610f5e82826120b7565b5050565b5f610f6b6121d5565b7f360894a13ba1a3210667c828492db98dca3e2076cc3735a920a3ca505d382bbc5f1b905090565b5f5f610f9d61225c565b9050805f015f9054906101000a900460ff1691505090565b60025f610fc0611f6b565b9050805f0160089054906101000a900460ff168061100857508167ffffffffffffffff16815f015f9054906101000a900467ffffffffffffffff1667ffffffffffffffff1610155b1561103f576040517ff92ee8a900000000000000000000000000000000000000000000000000000000815260040160405180910390fd5b81815f015f6101000a81548167ffffffffffffffff021916908367ffffffffffffffff1602179055506001815f0160086101000a81548160ff0219169083151502179055505f60035f6101000a81548160ff0219169083151502179055505f815f0160086101000a81548160ff0219169083151502179055507fc7f505b2f371ae2175ee4913f4499e1f2633a7b5936321eed1cdaeb6115181d2826040516110e79190613ae7565b60405180910390a15050565b7f92de27771f92d6942691d73358b3a4673e4880de8356f8f2cf452be87e02d36361111d81611c7a565b60025f8373ffffffffffffffffffffffffffffffffffffffff1673ffffffffffffffffffffffffffffffffffffffff1681526020019081526020015f205f9054906101000a900460ff166111a6576040517f08c379a000000000000000000000000000000000000000000000000000000000815260040161119d90613b4a565b60405180910390fd5b5f60025f8473ffffffffffffffffffffffffffffffffffffffff1673ffffffffffffffffffffffffffffffffffffffff1681526020019081526020015f205f6101000a81548160ff0219169083151502179055508173ffffffffffffffffffffffffffffffffffffffff167fd247131fabb99dc3ba793524f53f05a77eeef38f12b30119655ee340810b121060405160405180910390a25050565b5f5f61124b611aa9565b9050805f015f8473ffffffffffffffffffffffffffffffffffffffff1673ffffffffffffffffffffffffffffffffffffffff1681526020019081526020015f2054915050919050565b61129c612283565b6112a55f61230a565b565b5f6112b0611a90565b90508073ffffffffffffffffffffffffffffffffffffffff166112d16118f1565b73ffffffffffffffffffffffffffffffffffffffff161461132957806040517f118cdaa700000000000000000000000000000000000000000000000000000000815260040161132091906136ec565b60405180910390fd5b6113328161230a565b50565b7f65d7a28e3265b37a6474929f336521b332c1681b933f6cb9f3376673440d862a61135f81611c7a565b611367612347565b50565b5f5f6113746123b6565b9050805f015f9054906101000a900473ffffffffffffffffffffffffffffffffffffffff1691505090565b5f5f6113a9611c53565b9050805f015f8581526020019081526020015f205f015f8473ffffffffffffffffffffffffffffffffffffffff1673ffffffffffffffffffffffffffffffffffffffff1681526020019081526020015f205f9054906101000a900460ff1691505092915050565b60606001805461141f906137bb565b80601f016020809104026020016040519081016040528092919081815260200182805461144b906137bb565b80156114965780601f1061146d57610100808354040283529160200191611496565b820191905f5260205f20905b81548152906001019060200180831161147957829003601f168201915b5050505050905090565b7f92de27771f92d6942691d73358b3a4673e4880de8356f8f2cf452be87e02d3636114ca81611c7a565b60025f8373ffffffffffffffffffffffffffffffffffffffff1673ffffffffffffffffffffffffffffffffffffffff1681526020019081526020015f205f9054906101000a900460ff1615611554576040517f08c379a000000000000000000000000000000000000000000000000000000000815260040161154b90613bb2565b60405180910390fd5b600160025f8473ffffffffffffffffffffffffffffffffffffffff1673ffffffffffffffffffffffffffffffffffffffff1681526020019081526020015f205f6101000a81548160ff0219169083151502179055508173ffffffffffffffffffffffffffffffffffffffff167fc9710d20bdbf99ca92a03644a5a8f85ea6badb387ff0abca08eebdfbff50b77f60405160405180910390a25050565b5f5f1b81565b5f5f611600611a90565b905061160d818585611b63565b600191505092915050565b6040518060400160405280600581526020017f352e302e3000000000000000000000000000000000000000000000000000000081525081565b611659612283565b5f60018054611667906137bb565b80601f0160208091040260200160405190810160405280929190818152602001828054611693906137bb565b80156116de5780601f106116b5576101008083540402835291602001916116de565b820191905f5260205f20905b8154815290600101906020018083116116c157829003601f168201915b505050505090508282600191826116f69291906139a6565b507fd7ad744cc76ebad190995130eec8ba506b3605612d23b5b9cef8e27f14d138b481848460405161172a93929190613bfc565b60405180910390a1505050565b61173f612283565b5f5f805461174c906137bb565b80601f0160208091040260200160405190810160405280929190818152602001828054611778906137bb565b80156117c35780601f1061179a576101008083540402835291602001916117c3565b820191905f5260205f20905b8154815290600101906020018083116117a657829003601f168201915b5050505050905082825f91826117da9291906139a6565b507f6c20b91d1723b78732eba64ff11ebd7966a6e4af568a00fa4f6b72c20f58b02a81848460405161180e93929190613bfc565b60405180910390a1505050565b7f9f2df0fed2c77648de5860a4cc508cd0818c85b8b8a1ab4ceeef8d981c8956a681565b61184882610a69565b61185181611c7a565b61185b8383611d86565b50505050565b5f5f61186b611aa9565b9050806001015f8573ffffffffffffffffffffffffffffffffffffffff1673ffffffffffffffffffffffffffffffffffffffff1681526020019081526020015f205f8473ffffffffffffffffffffffffffffffffffffffff1673ffffffffffffffffffffffffffffffffffffffff1681526020019081526020015f205491505092915050565b5f5f6118fb6123dd565b9050805f015f9054906101000a900473ffffffffffffffffffffffffffffffffffffffff1691505090565b7f65d7a28e3265b37a6474929f336521b332c1681b933f6cb9f3376673440d862a81565b7ffacaf2747a7486cf5730e9265973fb54447d3ace6e7e4711f6360826b073194181565b611976612283565b5f61197f6123dd565b905081815f015f6101000a81548173ffffffffffffffffffffffffffffffffffffffff021916908373ffffffffffffffffffffffffffffffffffffffff1602179055508173ffffffffffffffffffffffffffffffffffffffff166119e161136a565b73ffffffffffffffffffffffffffffffffffffffff167f38d16b8cac22d99fc7c124b9cd0de2d3fa1faef420bfe791d8c362d765e2270060405160405180910390a35050565b5f7f01ffc9a7000000000000000000000000000000000000000000000000000000007bffffffffffffffffffffffffffffffffffffffffffffffffffffffff1916827bffffffffffffffffffffffffffffffffffffffffffffffffffffffff1916149050919050565b5f33905090565b611aa48383836001612404565b505050565b5f7f52c63247e1f47db19d5ce0460030c497f067ca4cebf71ba98eeadabe20bace00905090565b5f611adb8484611861565b90507fffffffffffffffffffffffffffffffffffffffffffffffffffffffffffffffff811015611b5d5781811015611b4e578281836040517ffb8f41b2000000000000000000000000000000000000000000000000000000008152600401611b4593929190613c33565b60405180910390fd5b611b5c84848484035f612404565b5b50505050565b5f73ffffffffffffffffffffffffffffffffffffffff168373ffffffffffffffffffffffffffffffffffffffff1603611bd3575f6040517f96c6fd1e000000000000000000000000000000000000000000000000000000008152600401611bca91906136ec565b60405180910390fd5b5f73ffffffffffffffffffffffffffffffffffffffff168273ffffffffffffffffffffffffffffffffffffffff1603611c43575f6040517fec442f05000000000000000000000000000000000000000000000000000000008152600401611c3a91906136ec565b60405180910390fd5b611c4e8383836125e1565b505050565b5f7f02dd7bc7dec4dceedda775e58dd541e08a116c6c53815c0bd028192f7b626800905090565b611c8b81611c86611a90565b612835565b50565b5f5f611c98611c53565b9050611ca4848461139f565b611d7b576001815f015f8681526020019081526020015f205f015f8573ffffffffffffffffffffffffffffffffffffffff1673ffffffffffffffffffffffffffffffffffffffff1681526020019081526020015f205f6101000a81548160ff021916908315150217905550611d17611a90565b73ffffffffffffffffffffffffffffffffffffffff168373ffffffffffffffffffffffffffffffffffffffff16857f2f8788117e7eff1d82e926ec794901d17c78024a50270940304540a733656f0d60405160405180910390a46001915050611d80565b5f9150505b92915050565b5f5f611d90611c53565b9050611d9c848461139f565b15611e73575f815f015f8681526020019081526020015f205f015f8573ffffffffffffffffffffffffffffffffffffffff1673ffffffffffffffffffffffffffffffffffffffff1681526020019081526020015f205f6101000a81548160ff021916908315150217905550611e0f611a90565b73ffffffffffffffffffffffffffffffffffffffff168373ffffffffffffffffffffffffffffffffffffffff16857ff6391f5c32d9c69d2a47ea670b442974b53935d1edc7fd64eb21e047a839171b60405160405180910390a46001915050611e78565b5f9150505b92915050565b611e86612886565b5f611e8f61225c565b90505f815f015f6101000a81548160ff0219169083151502179055507f5db9ee0a495bf2e6ff9c91a7834c1ba4fdd244a5e8aa4e537bd38aeae4b073aa611ed4611a90565b604051611ee191906136ec565b60405180910390a150565b5f73ffffffffffffffffffffffffffffffffffffffff168273ffffffffffffffffffffffffffffffffffffffff1603611f5c575f6040517fec442f05000000000000000000000000000000000000000000000000000000008152600401611f5391906136ec565b60405180910390fd5b611f675f83836125e1565b5050565b5f5f611f756128c6565b90508091505090565b611f866128ef565b611f90828261292f565b5050565b611f9c6128ef565b565b611fa66128ef565b611faf8161296b565b50565b611fba6128ef565b565b611fc46128ef565b565b7f000000000000000000000000000000000000000000000000000000000000000073ffffffffffffffffffffffffffffffffffffffff163073ffffffffffffffffffffffffffffffffffffffff16148061207357507f000000000000000000000000000000000000000000000000000000000000000073ffffffffffffffffffffffffffffffffffffffff1661205a6129ef565b73ffffffffffffffffffffffffffffffffffffffff1614155b156120aa576040517fe07c8dba00000000000000000000000000000000000000000000000000000000815260040160405180910390fd5b565b6120b4612283565b50565b8173ffffffffffffffffffffffffffffffffffffffff166352d1902d6040518163ffffffff1660e01b8152600401602060405180830381865afa92505050801561211f57506040513d601f19601f8201168201806040525081019061211c9190613c7c565b60015b61216057816040517f4c9c8ce300000000000000000000000000000000000000000000000000000000815260040161215791906136ec565b60405180910390fd5b7f360894a13ba1a3210667c828492db98dca3e2076cc3735a920a3ca505d382bbc5f1b81146121c657806040517faa1d49a40000000000000000000000000000000000000000000000000000000081526004016121bd9190613149565b60405180910390fd5b6121d08383612a42565b505050565b7f000000000000000000000000000000000000000000000000000000000000000073ffffffffffffffffffffffffffffffffffffffff163073ffffffffffffffffffffffffffffffffffffffff161461225a576040517fe07c8dba00000000000000000000000000000000000000000000000000000000815260040160405180910390fd5b565b5f7fcd5ed15c6e187e77e9aee88184c21f4f2182ab5827cb3b7e07fbedcd63f03300905090565b61228b611a90565b73ffffffffffffffffffffffffffffffffffffffff166122a961136a565b73ffffffffffffffffffffffffffffffffffffffff1614612308576122cc611a90565b6040517f118cdaa70000000000000000000000000000000000000000000000000000000081526004016122ff91906136ec565b60405180910390fd5b565b5f6123136123dd565b9050805f015f6101000a81549073ffffffffffffffffffffffffffffffffffffffff021916905561234382612ab4565b5050565b61234f612b85565b5f61235861225c565b90506001815f015f6101000a81548160ff0219169083151502179055507f62e78cea01bee320cd4e420270b5ea74000d11b0c9f74754ebdbfc544b05a25861239e611a90565b6040516123ab91906136ec565b60405180910390a150565b5f7f9016d09d72d40fdae2fd8ceac6b6234c7706214fd39c1cd1e609a0528c199300905090565b5f7f237e158222e3e6968b72b9db0d8043aacf074ad9f650f0d1606b4d82ee432c00905090565b5f61240d611aa9565b90505f73ffffffffffffffffffffffffffffffffffffffff168573ffffffffffffffffffffffffffffffffffffffff160361247f575f6040517fe602df0500000000000000000000000000000000000000000000000000000000815260040161247691906136ec565b60405180910390fd5b5f73ffffffffffffffffffffffffffffffffffffffff168473ffffffffffffffffffffffffffffffffffffffff16036124ef575f6040517f94280d620000000000000000000000000000000000000000000000000000000081526004016124e691906136ec565b60405180910390fd5b82816001015f8773ffffffffffffffffffffffffffffffffffffffff1673ffffffffffffffffffffffffffffffffffffffff1681526020019081526020015f205f8673ffffffffffffffffffffffffffffffffffffffff1673ffffffffffffffffffffffffffffffffffffffff1681526020019081526020015f208190555081156125da578373ffffffffffffffffffffffffffffffffffffffff168573ffffffffffffffffffffffffffffffffffffffff167f8c5be1e5ebec7d5bd14f71427d1e84f3dd0314c0f7b2291e5b200ac8c7c3b925856040516125d191906132cc565b60405180910390a35b5050505050565b60025f8473ffffffffffffffffffffffffffffffffffffffff1673ffffffffffffffffffffffffffffffffffffffff1681526020019081526020015f205f9054906101000a900460ff1615801561267f575060025f8373ffffffffffffffffffffffffffffffffffffffff1673ffffffffffffffffffffffffffffffffffffffff1681526020019081526020015f205f9054906101000a900460ff16155b6126be576040517f08c379a00000000000000000000000000000000000000000000000000000000081526004016126b590613cf1565b60405180910390fd5b60035f9054906101000a900460ff16801561270557505f73ffffffffffffffffffffffffffffffffffffffff168373ffffffffffffffffffffffffffffffffffffffff1614155b801561273d57505f73ffffffffffffffffffffffffffffffffffffffff168273ffffffffffffffffffffffffffffffffffffffff1614155b156128255761276c7ffacaf2747a7486cf5730e9265973fb54447d3ace6e7e4711f6360826b07319418461139f565b6127ab576040517f08c379a00000000000000000000000000000000000000000000000000000000081526004016127a290613d59565b60405180910390fd5b6127d57ffacaf2747a7486cf5730e9265973fb54447d3ace6e7e4711f6360826b07319418361139f565b612824575f6127e383611241565b14612823576040517f08c379a000000000000000000000000000000000000000000000000000000000815260040161281a90613de7565b60405180910390fd5b5b5b612830838383612bc6565b505050565b61283f828261139f565b6128825780826040517fe2517d3f000000000000000000000000000000000000000000000000000000008152600401612879929190613e05565b60405180910390fd5b5050565b61288e610f93565b6128c4576040517f8dfc202b00000000000000000000000000000000000000000000000000000000815260040160405180910390fd5b565b5f7ff0c57e16840df040f15088dc2f81fe391c3923bec73e23a9662efc9c229c6a005f1b905090565b6128f7612bde565b61292d576040517fd7e6bcf800000000000000000000000000000000000000000000000000000000815260040160405180910390fd5b565b6129376128ef565b5f612940611aa9565b9050828160030190816129539190613e2c565b50818160040190816129659190613e2c565b50505050565b6129736128ef565b5f73ffffffffffffffffffffffffffffffffffffffff168173ffffffffffffffffffffffffffffffffffffffff16036129e3575f6040517f1e4fbdf70000000000000000000000000000000000000000000000000000000081526004016129da91906136ec565b60405180910390fd5b6129ec8161230a565b50565b5f612a1b7f360894a13ba1a3210667c828492db98dca3e2076cc3735a920a3ca505d382bbc5f1b612bfc565b5f015f9054906101000a900473ffffffffffffffffffffffffffffffffffffffff16905090565b612a4b82612c05565b8173ffffffffffffffffffffffffffffffffffffffff167fbc7cd75a20ee27fd9adebab32041f755214dbc6bffa90cc0225b39da2e5c2d3b60405160405180910390a25f81511115612aa757612aa18282612cce565b50612ab0565b612aaf612dbf565b5b5050565b5f612abd6123b6565b90505f815f015f9054906101000a900473ffffffffffffffffffffffffffffffffffffffff16905082825f015f6101000a81548173ffffffffffffffffffffffffffffffffffffffff021916908373ffffffffffffffffffffffffffffffffffffffff1602179055508273ffffffffffffffffffffffffffffffffffffffff168173ffffffffffffffffffffffffffffffffffffffff167f8be0079c531659141344cd1fd0a4f28419497f9722a3daafe3b4186f6b6457e060405160405180910390a3505050565b612b8d610f93565b15612bc4576040517fd93c066500000000000000000000000000000000000000000000000000000000815260040160405180910390fd5b565b612bce612b85565b612bd9838383612dfb565b505050565b5f612be7611f6b565b5f0160089054906101000a900460ff16905090565b5f819050919050565b5f8173ffffffffffffffffffffffffffffffffffffffff163b03612c6057806040517f4c9c8ce3000000000000000000000000000000000000000000000000000000008152600401612c5791906136ec565b60405180910390fd5b80612c8c7f360894a13ba1a3210667c828492db98dca3e2076cc3735a920a3ca505d382bbc5f1b612bfc565b5f015f6101000a81548173ffffffffffffffffffffffffffffffffffffffff021916908373ffffffffffffffffffffffffffffffffffffffff16021790555050565b60605f612cdb848461302a565b9050808015612d1157505f612cee61303e565b1180612d1057505f8473ffffffffffffffffffffffffffffffffffffffff163b115b5b15612d2657612d1e613045565b915050612db9565b8015612d6957836040517f9996b315000000000000000000000000000000000000000000000000000000008152600401612d6091906136ec565b60405180910390fd5b5f612d7261303e565b1115612d8557612d80613062565b612db7565b6040517fd6bda27500000000000000000000000000000000000000000000000000000000815260040160405180910390fd5b505b92915050565b5f341115612df9576040517fb398979f00000000000000000000000000000000000000000000000000000000815260040160405180910390fd5b565b5f612e04611aa9565b90505f73ffffffffffffffffffffffffffffffffffffffff168473ffffffffffffffffffffffffffffffffffffffff1603612e585781816002015f828254612e4c9190613f28565b92505081905550612f2a565b5f815f015f8673ffffffffffffffffffffffffffffffffffffffff1673ffffffffffffffffffffffffffffffffffffffff1681526020019081526020015f2054905082811015612ee3578481846040517fe450d38c000000000000000000000000000000000000000000000000000000008152600401612eda93929190613c33565b60405180910390fd5b828103825f015f8773ffffffffffffffffffffffffffffffffffffffff1673ffffffffffffffffffffffffffffffffffffffff1681526020019081526020015f2081905550505b5f73ffffffffffffffffffffffffffffffffffffffff168373ffffffffffffffffffffffffffffffffffffffff1603612f735781816002015f8282540392505081905550612fbf565b81815f015f8573ffffffffffffffffffffffffffffffffffffffff1673ffffffffffffffffffffffffffffffffffffffff1681526020019081526020015f205f82825401925050819055505b8273ffffffffffffffffffffffffffffffffffffffff168473ffffffffffffffffffffffffffffffffffffffff167fddf252ad1be2c89b69c2b068fc378daa952ba7f163c4a11628f55a4df523b3ef8460405161301c91906132cc565b60405180910390a350505050565b5f5f5f835160208501865af4905092915050565b5f3d905090565b606060405190503d81523d5f602083013e3d602001810160405290565b6040513d5f823e3d81fd5b5f604051905090565b5f5ffd5b5f5ffd5b5f7fffffffff0000000000000000000000000000000000000000000000000000000082169050919050565b6130b28161307e565b81146130bc575f5ffd5b50565b5f813590506130cd816130a9565b92915050565b5f602082840312156130e8576130e7613076565b5b5f6130f5848285016130bf565b91505092915050565b5f8115159050919050565b613112816130fe565b82525050565b5f60208201905061312b5f830184613109565b92915050565b5f819050919050565b61314381613131565b82525050565b5f60208201905061315c5f83018461313a565b92915050565b5f81519050919050565b5f82825260208201905092915050565b8281835e5f83830152505050565b5f601f19601f8301169050919050565b5f6131a482613162565b6131ae818561316c565b93506131be81856020860161317c565b6131c78161318a565b840191505092915050565b5f6020820190508181035f8301526131ea818461319a565b905092915050565b5f73ffffffffffffffffffffffffffffffffffffffff82169050919050565b5f61321b826131f2565b9050919050565b61322b81613211565b8114613235575f5ffd5b50565b5f8135905061324681613222565b92915050565b5f819050919050565b61325e8161324c565b8114613268575f5ffd5b50565b5f8135905061327981613255565b92915050565b5f5f6040838503121561329557613294613076565b5b5f6132a285828601613238565b92505060206132b38582860161326b565b9150509250929050565b6132c68161324c565b82525050565b5f6020820190506132df5f8301846132bd565b92915050565b5f5f5f606084860312156132fc576132fb613076565b5b5f61330986828701613238565b935050602061331a86828701613238565b925050604061332b8682870161326b565b9150509250925092565b61333e81613131565b8114613348575f5ffd5b50565b5f8135905061335981613335565b92915050565b5f6020828403121561337457613373613076565b5b5f6133818482850161334b565b91505092915050565b613393816130fe565b811461339d575f5ffd5b50565b5f813590506133ae8161338a565b92915050565b5f602082840312156133c9576133c8613076565b5b5f6133d6848285016133a0565b91505092915050565b5f5f604083850312156133f5576133f4613076565b5b5f6134028582860161334b565b925050602061341385828601613238565b9150509250929050565b5f60ff82169050919050565b6134328161341d565b82525050565b5f60208201905061344b5f830184613429565b92915050565b5f5ffd5b5f5ffd5b5f5ffd5b5f5f83601f84011261347257613471613451565b5b8235905067ffffffffffffffff81111561348f5761348e613455565b5b6020830191508360018202830111156134ab576134aa613459565b5b9250929050565b5f5f5f5f604085870312156134ca576134c9613076565b5b5f85013567ffffffffffffffff8111156134e7576134e661307a565b5b6134f38782880161345d565b9450945050602085013567ffffffffffffffff8111156135165761351561307a565b5b6135228782880161345d565b925092505092959194509250565b5f5ffd5b7f4e487b71000000000000000000000000000000000000000000000000000000005f52604160045260245ffd5b61356a8261318a565b810181811067ffffffffffffffff8211171561358957613588613534565b5b80604052505050565b5f61359b61306d565b90506135a78282613561565b919050565b5f67ffffffffffffffff8211156135c6576135c5613534565b5b6135cf8261318a565b9050602081019050919050565b828183375f83830152505050565b5f6135fc6135f7846135ac565b613592565b90508281526020810184848401111561361857613617613530565b5b6136238482856135dc565b509392505050565b5f82601f83011261363f5761363e613451565b5b813561364f8482602086016135ea565b91505092915050565b5f5f6040838503121561366e5761366d613076565b5b5f61367b85828601613238565b925050602083013567ffffffffffffffff81111561369c5761369b61307a565b5b6136a88582860161362b565b9150509250929050565b5f602082840312156136c7576136c6613076565b5b5f6136d484828501613238565b91505092915050565b6136e681613211565b82525050565b5f6020820190506136ff5f8301846136dd565b92915050565b5f5f6020838503121561371b5761371a613076565b5b5f83013567ffffffffffffffff8111156137385761373761307a565b5b6137448582860161345d565b92509250509250929050565b5f5f6040838503121561376657613765613076565b5b5f61377385828601613238565b925050602061378485828601613238565b9150509250929050565b7f4e487b71000000000000000000000000000000000000000000000000000000005f52602260045260245ffd5b5f60028204905060018216806137d257607f821691505b6020821081036137e5576137e461378e565b5b50919050565b5f82905092915050565b5f819050815f5260205f209050919050565b5f6020601f8301049050919050565b5f82821b905092915050565b5f600883026138517fffffffffffffffffffffffffffffffffffffffffffffffffffffffffffffffff82613816565b61385b8683613816565b95508019841693508086168417925050509392505050565b5f819050919050565b5f61389661389161388c8461324c565b613873565b61324c565b9050919050565b5f819050919050565b6138af8361387c565b6138c36138bb8261389d565b848454613822565b825550505050565b5f5f905090565b6138da6138cb565b6138e58184846138a6565b505050565b5f5b8281101561390b576139005f8284016138d2565b6001810190506138ec565b505050565b601f82111561395e578282111561395d5761392a816137f5565b61393383613807565b61393c85613807565b6020861015613949575f90505b808301613958828403826138ea565b505050505b5b505050565b5f82821c905092915050565b5f61397e5f1984600802613963565b1980831691505092915050565b5f613996838361396f565b9150826002028217905092915050565b6139b083836137eb565b67ffffffffffffffff8111156139c9576139c8613534565b5b6139d382546137bb565b6139de828285613910565b5f601f831160018114613a0b575f84156139f9578287013590505b613a03858261398b565b865550613a6a565b601f198416613a19866137f5565b5f5b82811015613a4057848901358255600182019150602085019450602081019050613a1b565b86831015613a5d5784890135613a59601f89168261396f565b8355505b6001600288020188555050505b50505050505050565b5f819050919050565b5f67ffffffffffffffff82169050919050565b5f613aa9613aa4613a9f84613a73565b613873565b613a7c565b9050919050565b613ab981613a8f565b82525050565b5f602082019050613ad25f830184613ab0565b92915050565b613ae181613a7c565b82525050565b5f602082019050613afa5f830184613ad8565b92915050565b7f4e6f742066726f7a656e000000000000000000000000000000000000000000005f82015250565b5f613b34600a8361316c565b9150613b3f82613b00565b602082019050919050565b5f6020820190508181035f830152613b6181613b28565b9050919050565b7f416c72656164792066726f7a656e0000000000000000000000000000000000005f82015250565b5f613b9c600e8361316c565b9150613ba782613b68565b602082019050919050565b5f6020820190508181035f830152613bc981613b90565b9050919050565b5f613bdb838561316c565b9350613be88385846135dc565b613bf18361318a565b840190509392505050565b5f6040820190508181035f830152613c14818661319a565b90508181036020830152613c29818486613bd0565b9050949350505050565b5f606082019050613c465f8301866136dd565b613c5360208301856132bd565b613c6060408301846132bd565b949350505050565b5f81519050613c7681613335565b92915050565b5f60208284031215613c9157613c90613076565b5b5f613c9e84828501613c68565b91505092915050565b7f57616c6c65742069732066726f7a656e000000000000000000000000000000005f82015250565b5f613cdb60108361316c565b9150613ce682613ca7565b602082019050919050565b5f6020820190508181035f830152613d0881613ccf565b9050919050565b7f53656e646572206c61636b73205452414445525f524f4c4500000000000000005f82015250565b5f613d4360188361316c565b9150613d4e82613d0f565b602082019050919050565b5f6020820190508181035f830152613d7081613d37565b9050919050565b7f5265636569766572206861732062616c616e636520627574206c61636b7320545f8201527f52414445525f524f4c4500000000000000000000000000000000000000000000602082015250565b5f613dd1602a8361316c565b9150613ddc82613d77565b604082019050919050565b5f6020820190508181035f830152613dfe81613dc5565b9050919050565b5f604082019050613e185f8301856136dd565b613e25602083018461313a565b9392505050565b613e3582613162565b67ffffffffffffffff811115613e4e57613e4d613534565b5b613e5882546137bb565b613e63828285613910565b5f60209050601f831160018114613e94575f8415613e82578287015190505b613e8c858261398b565b865550613ef3565b601f198416613ea2866137f5565b5f5b82811015613ec957848901518255600182019150602085019450602081019050613ea4565b86831015613ee65784890151613ee2601f89168261396f565b8355505b6001600288020188555050505b505050505050565b7f4e487b71000000000000000000000000000000000000000000000000000000005f52601160045260245ffd5b5f613f328261324c565b9150613f3d8361324c565b9250828201905080821115613f5557613f54613efb565b5b9291505056fea264697066735822122044537eab296b1cdad4dfe093e3072ff52b98d2af540d7d661df14c64decc695f64736f6c63430008220033",
		"opcodes": "PUSH1 0x80 PUSH1 0x40 MSTORE PUSH1 0x4 CALLDATASIZE LT PUSH2 0x23A JUMPI PUSH0 CALLDATALOAD PUSH1 0xE0 SHR DUP1 PUSH4 0x70A08231 GT PUSH2 0x12D JUMPI DUP1 PUSH4 0xAD3CB1CC GT PUSH2 0xAA JUMPI DUP1 PUSH4 0xDD62ED3E GT PUSH2 0x6E JUMPI DUP1 PUSH4 0xDD62ED3E EQ PUSH2 0x7F4 JUMPI DUP1 PUSH4 0xE30C3978 EQ PUSH2 0x830 JUMPI DUP1 PUSH4 0xE63AB1E9 EQ PUSH2 0x85A JUMPI DUP1 PUSH4 0xF0A56FC8 EQ PUSH2 0x884 JUMPI DUP1 PUSH4 0xF2FDE38B EQ PUSH2 0x8AE JUMPI PUSH2 0x23A JUMP JUMPDEST DUP1 PUSH4 0xAD3CB1CC EQ PUSH2 0x728 JUMPI DUP1 PUSH4 0xB84C8246 EQ PUSH2 0x752 JUMPI DUP1 PUSH4 0xC47F0027 EQ PUSH2 0x77A JUMPI DUP1 PUSH4 0xD5391393 EQ PUSH2 0x7A2 JUMPI DUP1 PUSH4 0xD547741F EQ PUSH2 0x7CC JUMPI PUSH2 0x23A JUMP JUMPDEST DUP1 PUSH4 0x91D14854 GT PUSH2 0xF1 JUMPI DUP1 PUSH4 0x91D14854 EQ PUSH2 0x634 JUMPI DUP1 PUSH4 0x95D89B41 EQ PUSH2 0x670 JUMPI DUP1 PUSH4 0x9F001169 EQ PUSH2 0x69A JUMPI DUP1 PUSH4 0xA217FDDF EQ PUSH2 0x6C2 JUMPI DUP1 PUSH4 0xA9059CBB EQ PUSH2 0x6EC JUMPI PUSH2 0x23A JUMP JUMPDEST DUP1 PUSH4 0x70A08231 EQ PUSH2 0x58C JUMPI DUP1 PUSH4 0x715018A6 EQ PUSH2 0x5C8 JUMPI DUP1 PUSH4 0x79BA5097 EQ PUSH2 0x5DE JUMPI DUP1 PUSH4 0x8456CB59 EQ PUSH2 0x5F4 JUMPI DUP1 PUSH4 0x8DA5CB5B EQ PUSH2 0x60A JUMPI PUSH2 0x23A JUMP JUMPDEST DUP1 PUSH4 0x313CE567 GT PUSH2 0x1BB JUMPI DUP1 PUSH4 0x4F1EF286 GT PUSH2 0x17F JUMPI DUP1 PUSH4 0x4F1EF286 EQ PUSH2 0x4DE JUMPI DUP1 PUSH4 0x52D1902D EQ PUSH2 0x4FA JUMPI DUP1 PUSH4 0x5C975ABB EQ PUSH2 0x524 JUMPI DUP1 PUSH4 0x5CD8A76B EQ PUSH2 0x54E JUMPI DUP1 PUSH4 0x60F588B7 EQ PUSH2 0x564 JUMPI PUSH2 0x23A JUMP JUMPDEST DUP1 PUSH4 0x313CE567 EQ PUSH2 0x426 JUMPI DUP1 PUSH4 0x36568ABE EQ PUSH2 0x450 JUMPI DUP1 PUSH4 0x3F4BA83A EQ PUSH2 0x478 JUMPI DUP1 PUSH4 0x40C10F19 EQ PUSH2 0x48E JUMPI DUP1 PUSH4 0x4CD88B76 EQ PUSH2 0x4B6 JUMPI PUSH2 0x23A JUMP JUMPDEST DUP1 PUSH4 0x23B872DD GT PUSH2 0x202 JUMPI DUP1 PUSH4 0x23B872DD EQ PUSH2 0x334 JUMPI DUP1 PUSH4 0x248A9CA3 EQ PUSH2 0x370 JUMPI DUP1 PUSH4 0x252400DA EQ PUSH2 0x3AC JUMPI DUP1 PUSH4 0x2E5B15CE EQ PUSH2 0x3D4 JUMPI DUP1 PUSH4 0x2F2FF15D EQ PUSH2 0x3FE JUMPI PUSH2 0x23A JUMP JUMPDEST DUP1 PUSH4 0x1FFC9A7 EQ PUSH2 0x23E JUMPI DUP1 PUSH4 0x6A85F0F EQ PUSH2 0x27A JUMPI DUP1 PUSH4 0x6FDDE03 EQ PUSH2 0x2A4 JUMPI DUP1 PUSH4 0x95EA7B3 EQ PUSH2 0x2CE JUMPI DUP1 PUSH4 0x18160DDD EQ PUSH2 0x30A JUMPI JUMPDEST PUSH0 PUSH0 REVERT JUMPDEST CALLVALUE DUP1 ISZERO PUSH2 0x249 JUMPI PUSH0 PUSH0 REVERT JUMPDEST POP PUSH2 0x264 PUSH1 0x4 DUP1 CALLDATASIZE SUB DUP2 ADD SWAP1 PUSH2 0x25F SWAP2 SWAP1 PUSH2 0x30D3 JUMP JUMPDEST PUSH2 0x8D6 JUMP JUMPDEST PUSH1 0x40 MLOAD PUSH2 0x271 SWAP2 SWAP1 PUSH2 0x3118 JUMP JUMPDEST PUSH1 0x40 MLOAD DUP1 SWAP2 SUB SWAP1 RETURN JUMPDEST CALLVALUE DUP1 ISZERO PUSH2 0x285 JUMPI PUSH0 PUSH0 REVERT JUMPDEST POP PUSH2 0x28E PUSH2 0x94F JUMP JUMPDEST PUSH1 0x40 MLOAD PUSH2 0x29B SWAP2 SWAP1 PUSH2 0x3149 JUMP JUMPDEST PUSH1 0x40 MLOAD DUP1 SWAP2 SUB SWAP1 RETURN JUMPDEST CALLVALUE DUP1 ISZERO PUSH2 0x2AF JUMPI PUSH0 PUSH0 REVERT JUMPDEST POP PUSH2 0x2B8 PUSH2 0x973 JUMP JUMPDEST PUSH1 0x40 MLOAD PUSH2 0x2C5 SWAP2 SWAP1 PUSH2 0x31D2 JUMP JUMPDEST PUSH1 0x40 MLOAD DUP1 SWAP2 SUB SWAP1 RETURN JUMPDEST CALLVALUE DUP1 ISZERO PUSH2 0x2D9 JUMPI PUSH0 PUSH0 REVERT JUMPDEST POP PUSH2 0x2F4 PUSH1 0x4 DUP1 CALLDATASIZE SUB DUP2 ADD SWAP1 PUSH2 0x2EF SWAP2 SWAP1 PUSH2 0x327F JUMP JUMPDEST PUSH2 0xA02 JUMP JUMPDEST PUSH1 0x40 MLOAD PUSH2 0x301 SWAP2 SWAP1 PUSH2 0x3118 JUMP JUMPDEST PUSH1 0x40 MLOAD DUP1 SWAP2 SUB SWAP1 RETURN JUMPDEST CALLVALUE DUP1 ISZERO PUSH2 0x315 JUMPI PUSH0 PUSH0 REVERT JUMPDEST POP PUSH2 0x31E PUSH2 0xA24 JUMP JUMPDEST PUSH1 0x40 MLOAD PUSH2 0x32B SWAP2 SWAP1 PUSH2 0x32CC JUMP JUMPDEST PUSH1 0x40 MLOAD DUP1 SWAP2 SUB SWAP1 RETURN JUMPDEST CALLVALUE DUP1 ISZERO PUSH2 0x33F JUMPI PUSH0 PUSH0 REVERT JUMPDEST POP PUSH2 0x35A PUSH1 0x4 DUP1 CALLDATASIZE SUB DUP2 ADD SWAP1 PUSH2 0x355 SWAP2 SWAP1 PUSH2 0x32E5 JUMP JUMPDEST PUSH2 0xA3B JUMP JUMPDEST PUSH1 0x40 MLOAD PUSH2 0x367 SWAP2 SWAP1 PUSH2 0x3118 JUMP JUMPDEST PUSH1 0x40 MLOAD DUP1 SWAP2 SUB SWAP1 RETURN JUMPDEST CALLVALUE DUP1 ISZERO PUSH2 0x37B JUMPI PUSH0 PUSH0 REVERT JUMPDEST POP PUSH2 0x396 PUSH1 0x4 DUP1 CALLDATASIZE SUB DUP2 ADD SWAP1 PUSH2 0x391 SWAP2 SWAP1 PUSH2 0x335F JUMP JUMPDEST PUSH2 0xA69 JUMP JUMPDEST PUSH1 0x40 MLOAD PUSH2 0x3A3 SWAP2 SWAP1 PUSH2 0x3149 JUMP JUMPDEST PUSH1 0x40 MLOAD DUP1 SWAP2 SUB SWAP1 RETURN JUMPDEST CALLVALUE DUP1 ISZERO PUSH2 0x3B7 JUMPI PUSH0 PUSH0 REVERT JUMPDEST POP PUSH2 0x3D2 PUSH1 0x4 DUP1 CALLDATASIZE SUB DUP2 ADD SWAP1 PUSH2 0x3CD SWAP2 SWAP1 PUSH2 0x33B4 JUMP JUMPDEST PUSH2 0xA93 JUMP JUMPDEST STOP JUMPDEST CALLVALUE DUP1 ISZERO PUSH2 0x3DF JUMPI PUSH0 PUSH0 REVERT JUMPDEST POP PUSH2 0x3E8 PUSH2 0xAF3 JUMP JUMPDEST PUSH1 0x40 MLOAD PUSH2 0x3F5 SWAP2 SWAP1 PUSH2 0x3118 JUMP JUMPDEST PUSH1 0x40 MLOAD DUP1 SWAP2 SUB SWAP1 RETURN JUMPDEST CALLVALUE DUP1 ISZERO PUSH2 0x409 JUMPI PUSH0 PUSH0 REVERT JUMPDEST POP PUSH2 0x424 PUSH1 0x4 DUP1 CALLDATASIZE SUB DUP2 ADD SWAP1 PUSH2 0x41F SWAP2 SWAP1 PUSH2 0x33DF JUMP JUMPDEST PUSH2 0xB05 JUMP JUMPDEST STOP JUMPDEST CALLVALUE DUP1 ISZERO PUSH2 0x431 JUMPI PUSH0 PUSH0 REVERT JUMPDEST POP PUSH2 0x43A PUSH2 0xB27 JUMP JUMPDEST PUSH1 0x40 MLOAD PUSH2 0x447 SWAP2 SWAP1 PUSH2 0x3438 JUMP JUMPDEST PUSH1 0x40 MLOAD DUP1 SWAP2 SUB SWAP1 RETURN JUMPDEST CALLVALUE DUP1 ISZERO PUSH2 0x45B JUMPI PUSH0 PUSH0 REVERT JUMPDEST POP PUSH2 0x476 PUSH1 0x4 DUP1 CALLDATASIZE SUB DUP2 ADD SWAP1 PUSH2 0x471 SWAP2 SWAP1 PUSH2 0x33DF JUMP JUMPDEST PUSH2 0xB2F JUMP JUMPDEST STOP JUMPDEST CALLVALUE DUP1 ISZERO PUSH2 0x483 JUMPI PUSH0 PUSH0 REVERT JUMPDEST POP PUSH2 0x48C PUSH2 0xBAA JUMP JUMPDEST STOP JUMPDEST CALLVALUE DUP1 ISZERO PUSH2 0x499 JUMPI PUSH0 PUSH0 REVERT JUMPDEST POP PUSH2 0x4B4 PUSH1 0x4 DUP1 CALLDATASIZE SUB DUP2 ADD SWAP1 PUSH2 0x4AF SWAP2 SWAP1 PUSH2 0x327F JUMP JUMPDEST PUSH2 0xBDF JUMP JUMPDEST STOP JUMPDEST CALLVALUE DUP1 ISZERO PUSH2 0x4C1 JUMPI PUSH0 PUSH0 REVERT JUMPDEST POP PUSH2 0x4DC PUSH1 0x4 DUP1 CALLDATASIZE SUB DUP2 ADD SWAP1 PUSH2 0x4D7 SWAP2 SWAP1 PUSH2 0x34B2 JUMP JUMPDEST PUSH2 0xC66 JUMP JUMPDEST STOP JUMPDEST PUSH2 0x4F8 PUSH1 0x4 DUP1 CALLDATASIZE SUB DUP2 ADD SWAP1 PUSH2 0x4F3 SWAP2 SWAP1 PUSH2 0x3658 JUMP JUMPDEST PUSH2 0xF43 JUMP JUMPDEST STOP JUMPDEST CALLVALUE DUP1 ISZERO PUSH2 0x505 JUMPI PUSH0 PUSH0 REVERT JUMPDEST POP PUSH2 0x50E PUSH2 0xF62 JUMP JUMPDEST PUSH1 0x40 MLOAD PUSH2 0x51B SWAP2 SWAP1 PUSH2 0x3149 JUMP JUMPDEST PUSH1 0x40 MLOAD DUP1 SWAP2 SUB SWAP1 RETURN JUMPDEST CALLVALUE DUP1 ISZERO PUSH2 0x52F JUMPI PUSH0 PUSH0 REVERT JUMPDEST POP PUSH2 0x538 PUSH2 0xF93 JUMP JUMPDEST PUSH1 0x40 MLOAD PUSH2 0x545 SWAP2 SWAP1 PUSH2 0x3118 JUMP JUMPDEST PUSH1 0x40 MLOAD DUP1 SWAP2 SUB SWAP1 RETURN JUMPDEST CALLVALUE DUP1 ISZERO PUSH2 0x559 JUMPI PUSH0 PUSH0 REVERT JUMPDEST POP PUSH2 0x562 PUSH2 0xFB5 JUMP JUMPDEST STOP JUMPDEST CALLVALUE DUP1 ISZERO PUSH2 0x56F JUMPI PUSH0 PUSH0 REVERT JUMPDEST POP PUSH2 0x58A PUSH1 0x4 DUP1 CALLDATASIZE SUB DUP2 ADD SWAP1 PUSH2 0x585 SWAP2 SWAP1 PUSH2 0x36B2 JUMP JUMPDEST PUSH2 0x10F3 JUMP JUMPDEST STOP JUMPDEST CALLVALUE DUP1 ISZERO PUSH2 0x597 JUMPI PUSH0 PUSH0 REVERT JUMPDEST POP PUSH2 0x5B2 PUSH1 0x4 DUP1 CALLDATASIZE SUB DUP2 ADD SWAP1 PUSH2 0x5AD SWAP2 SWAP1 PUSH2 0x36B2 JUMP JUMPDEST PUSH2 0x1241 JUMP JUMPDEST PUSH1 0x40 MLOAD PUSH2 0x5BF SWAP2 SWAP1 PUSH2 0x32CC JUMP JUMPDEST PUSH1 0x40 MLOAD DUP1 SWAP2 SUB SWAP1 RETURN JUMPDEST CALLVALUE DUP1 ISZERO PUSH2 0x5D3 JUMPI PUSH0 PUSH0 REVERT JUMPDEST POP PUSH2 0x5DC PUSH2 0x1294 JUMP JUMPDEST STOP JUMPDEST CALLVALUE DUP1 ISZERO PUSH2 0x5E9 JUMPI PUSH0 PUSH0 REVERT JUMPDEST POP PUSH2 0x5F2 PUSH2 0x12A7 JUMP JUMPDEST STOP JUMPDEST CALLVALUE DUP1 ISZERO PUSH2 0x5FF JUMPI PUSH0 PUSH0 REVERT JUMPDEST POP PUSH2 0x608 PUSH2 0x1335 JUMP JUMPDEST STOP JUMPDEST CALLVALUE DUP1 ISZERO PUSH2 0x615 JUMPI PUSH0 PUSH0 REVERT JUMPDEST POP PUSH2 0x61E PUSH2 0x136A JUMP JUMPDEST PUSH1 0x40 MLOAD PUSH2 0x62B SWAP2 SWAP1 PUSH2 0x36EC JUMP JUMPDEST PUSH1 0x40 MLOAD DUP1 SWAP2 SUB SWAP1 RETURN JUMPDEST CALLVALUE DUP1 ISZERO PUSH2 0x63F JUMPI PUSH0 PUSH0 REVERT JUMPDEST POP PUSH2 0x65A PUSH1 0x4 DUP1 CALLDATASIZE SUB DUP2 ADD SWAP1 PUSH2 0x655 SWAP2 SWAP1 PUSH2 0x33DF JUMP JUMPDEST PUSH2 0x139F JUMP JUMPDEST PUSH1 0x40 MLOAD PUSH2 0x667 SWAP2 SWAP1 PUSH2 0x3118 JUMP JUMPDEST PUSH1 0x40 MLOAD DUP1 SWAP2 SUB SWAP1 RETURN JUMPDEST CALLVALUE DUP1 ISZERO PUSH2 0x67B JUMPI PUSH0 PUSH0 REVERT JUMPDEST POP PUSH2 0x684 PUSH2 0x1410 JUMP JUMPDEST PUSH1 0x40 MLOAD PUSH2 0x691 SWAP2 SWAP1 PUSH2 0x31D2 JUMP JUMPDEST PUSH1 0x40 MLOAD DUP1 SWAP2 SUB SWAP1 RETURN JUMPDEST CALLVALUE DUP1 ISZERO PUSH2 0x6A5 JUMPI PUSH0 PUSH0 REVERT JUMPDEST POP PUSH2 0x6C0 PUSH1 0x4 DUP1 CALLDATASIZE SUB DUP2 ADD SWAP1 PUSH2 0x6BB SWAP2 SWAP1 PUSH2 0x36B2 JUMP JUMPDEST PUSH2 0x14A0 JUMP JUMPDEST STOP JUMPDEST CALLVALUE DUP1 ISZERO PUSH2 0x6CD JUMPI PUSH0 PUSH0 REVERT JUMPDEST POP PUSH2 0x6D6 PUSH2 0x15F0 JUMP JUMPDEST PUSH1 0x40 MLOAD PUSH2 0x6E3 SWAP2 SWAP1 PUSH2 0x3149 JUMP JUMPDEST PUSH1 0x40 MLOAD DUP1 SWAP2 SUB SWAP1 RETURN JUMPDEST CALLVALUE DUP1 ISZERO PUSH2 0x6F7 JUMPI PUSH0 PUSH0 REVERT JUMPDEST POP PUSH2 0x712 PUSH1 0x4 DUP1 CALLDATASIZE SUB DUP2 ADD SWAP1 PUSH2 0x70D SWAP2 SWAP1 PUSH2 0x327F JUMP JUMPDEST PUSH2 0x15F6 JUMP JUMPDEST PUSH1 0x40 MLOAD PUSH2 0x71F SWAP2 SWAP1 PUSH2 0x3118 JUMP JUMPDEST PUSH1 0x40 MLOAD DUP1 SWAP2 SUB SWAP1 RETURN JUMPDEST CALLVALUE DUP1 ISZERO PUSH2 0x733 JUMPI PUSH0 PUSH0 REVERT JUMPDEST POP PUSH2 0x73C PUSH2 0x1618 JUMP JUMPDEST PUSH1 0x40 MLOAD PUSH2 0x749 SWAP2 SWAP1 PUSH2 0x31D2 JUMP JUMPDEST PUSH1 0x40 MLOAD DUP1 SWAP2 SUB SWAP1 RETURN JUMPDEST CALLVALUE DUP1 ISZERO PUSH2 0x75D JUMPI PUSH0 PUSH0 REVERT JUMPDEST POP PUSH2 0x778 PUSH1 0x4 DUP1 CALLDATASIZE SUB DUP2 ADD SWAP1 PUSH2 0x773 SWAP2 SWAP1 PUSH2 0x3705 JUMP JUMPDEST PUSH2 0x1651 JUMP JUMPDEST STOP JUMPDEST CALLVALUE DUP1 ISZERO PUSH2 0x785 JUMPI PUSH0 PUSH0 REVERT JUMPDEST POP PUSH2 0x7A0 PUSH1 0x4 DUP1 CALLDATASIZE SUB DUP2 ADD SWAP1 PUSH2 0x79B SWAP2 SWAP1 PUSH2 0x3705 JUMP JUMPDEST PUSH2 0x1737 JUMP JUMPDEST STOP JUMPDEST CALLVALUE DUP1 ISZERO PUSH2 0x7AD JUMPI PUSH0 PUSH0 REVERT JUMPDEST POP PUSH2 0x7B6 PUSH2 0x181B JUMP JUMPDEST PUSH1 0x40 MLOAD PUSH2 0x7C3 SWAP2 SWAP1 PUSH2 0x3149 JUMP JUMPDEST PUSH1 0x40 MLOAD DUP1 SWAP2 SUB SWAP1 RETURN JUMPDEST CALLVALUE DUP1 ISZERO PUSH2 0x7D7 JUMPI PUSH0 PUSH0 REVERT JUMPDEST POP PUSH2 0x7F2 PUSH1 0x4 DUP1 CALLDATASIZE SUB DUP2 ADD SWAP1 PUSH2 0x7ED SWAP2 SWAP1 PUSH2 0x33DF JUMP JUMPDEST PUSH2 0x183F JUMP JUMPDEST STOP JUMPDEST CALLVALUE DUP1 ISZERO PUSH2 0x7FF JUMPI PUSH0 PUSH0 REVERT JUMPDEST POP PUSH2 0x81A PUSH1 0x4 DUP1 CALLDATASIZE SUB DUP2 ADD SWAP1 PUSH2 0x815 SWAP2 SWAP1 PUSH2 0x3750 JUMP JUMPDEST PUSH2 0x1861 JUMP JUMPDEST PUSH1 0x40 MLOAD PUSH2 0x827 SWAP2 SWAP1 PUSH2 0x32CC JUMP JUMPDEST PUSH1 0x40 MLOAD DUP1 SWAP2 SUB SWAP1 RETURN JUMPDEST CALLVALUE DUP1 ISZERO PUSH2 0x83B JUMPI PUSH0 PUSH0 REVERT JUMPDEST POP PUSH2 0x844 PUSH2 0x18F1 JUMP JUMPDEST PUSH1 0x40 MLOAD PUSH2 0x851 SWAP2 SWAP1 PUSH2 0x36EC JUMP JUMPDEST PUSH1 0x40 MLOAD DUP1 SWAP2 SUB SWAP1 RETURN JUMPDEST CALLVALUE DUP1 ISZERO PUSH2 0x865 JUMPI PUSH0 PUSH0 REVERT JUMPDEST POP PUSH2 0x86E PUSH2 0x1926 JUMP JUMPDEST PUSH1 0x40 MLOAD PUSH2 0x87B SWAP2 SWAP1 PUSH2 0x3149 JUMP JUMPDEST PUSH1 0x40 MLOAD DUP1 SWAP2 SUB SWAP1 RETURN JUMPDEST CALLVALUE DUP1 ISZERO PUSH2 0x88F JUMPI PUSH0 PUSH0 REVERT JUMPDEST POP PUSH2 0x898 PUSH2 0x194A JUMP JUMPDEST PUSH1 0x40 MLOAD PUSH2 0x8A5 SWAP2 SWAP1 PUSH2 0x3149 JUMP JUMPDEST PUSH1 0x40 MLOAD DUP1 SWAP2 SUB SWAP1 RETURN JUMPDEST CALLVALUE DUP1 ISZERO PUSH2 0x8B9 JUMPI PUSH0 PUSH0 REVERT JUMPDEST POP PUSH2 0x8D4 PUSH1 0x4 DUP1 CALLDATASIZE SUB DUP2 ADD SWAP1 PUSH2 0x8CF SWAP2 SWAP1 PUSH2 0x36B2 JUMP JUMPDEST PUSH2 0x196E JUMP JUMPDEST STOP JUMPDEST PUSH0 PUSH32 0x7965DB0B00000000000000000000000000000000000000000000000000000000 PUSH28 0xFFFFFFFFFFFFFFFFFFFFFFFFFFFFFFFFFFFFFFFFFFFFFFFFFFFFFFFF NOT AND DUP3 PUSH28 0xFFFFFFFFFFFFFFFFFFFFFFFFFFFFFFFFFFFFFFFFFFFFFFFFFFFFFFFF NOT AND EQ DUP1 PUSH2 0x948 JUMPI POP PUSH2 0x947 DUP3 PUSH2 0x1A27 JUMP JUMPDEST JUMPDEST SWAP1 POP SWAP2 SWAP1 POP JUMP JUMPDEST PUSH32 0x92DE27771F92D6942691D73358B3A4673E4880DE8356F8F2CF452BE87E02D363 DUP2 JUMP JUMPDEST PUSH1 0x60 PUSH0 DUP1 SLOAD PUSH2 0x981 SWAP1 PUSH2 0x37BB JUMP JUMPDEST DUP1 PUSH1 0x1F ADD PUSH1 0x20 DUP1 SWAP2 DIV MUL PUSH1 0x20 ADD PUSH1 0x40 MLOAD SWAP1 DUP2 ADD PUSH1 0x40 MSTORE DUP1 SWAP3 SWAP2 SWAP1 DUP2 DUP2 MSTORE PUSH1 0x20 ADD DUP3 DUP1 SLOAD PUSH2 0x9AD SWAP1 PUSH2 0x37BB JUMP JUMPDEST DUP1 ISZERO PUSH2 0x9F8 JUMPI DUP1 PUSH1 0x1F LT PUSH2 0x9CF JUMPI PUSH2 0x100 DUP1 DUP4 SLOAD DIV MUL DUP4 MSTORE SWAP2 PUSH1 0x20 ADD SWAP2 PUSH2 0x9F8 JUMP JUMPDEST DUP3 ADD SWAP2 SWAP1 PUSH0 MSTORE PUSH1 0x20 PUSH0 KECCAK256 SWAP1 JUMPDEST DUP2 SLOAD DUP2 MSTORE SWAP1 PUSH1 0x1 ADD SWAP1 PUSH1 0x20 ADD DUP1 DUP4 GT PUSH2 0x9DB JUMPI DUP3 SWAP1 SUB PUSH1 0x1F AND DUP3 ADD SWAP2 JUMPDEST POP POP POP POP POP SWAP1 POP SWAP1 JUMP JUMPDEST PUSH0 PUSH0 PUSH2 0xA0C PUSH2 0x1A90 JUMP JUMPDEST SWAP1 POP PUSH2 0xA19 DUP2 DUP6 DUP6 PUSH2 0x1A97 JUMP JUMPDEST PUSH1 0x1 SWAP2 POP POP SWAP3 SWAP2 POP POP JUMP JUMPDEST PUSH0 PUSH0 PUSH2 0xA2E PUSH2 0x1AA9 JUMP JUMPDEST SWAP1 POP DUP1 PUSH1 0x2 ADD SLOAD SWAP2 POP POP SWAP1 JUMP JUMPDEST PUSH0 PUSH0 PUSH2 0xA45 PUSH2 0x1A90 JUMP JUMPDEST SWAP1 POP PUSH2 0xA52 DUP6 DUP3 DUP6 PUSH2 0x1AD0 JUMP JUMPDEST PUSH2 0xA5D DUP6 DUP6 DUP6 PUSH2 0x1B63 JUMP JUMPDEST PUSH1 0x1 SWAP2 POP POP SWAP4 SWAP3 POP POP POP JUMP JUMPDEST PUSH0 PUSH0 PUSH2 0xA73 PUSH2 0x1C53 JUMP JUMPDEST SWAP1 POP DUP1 PUSH0 ADD PUSH0 DUP5 DUP2 MSTORE PUSH1 0x20 ADD SWAP1 DUP2 MSTORE PUSH1 0x20 ADD PUSH0 KECCAK256 PUSH1 0x1 ADD SLOAD SWAP2 POP POP SWAP2 SWAP1 POP JUMP JUMPDEST PUSH0 PUSH0 SHL PUSH2 0xA9F DUP2 PUSH2 0x1C7A JUMP JUMPDEST DUP2 PUSH1 0x3 PUSH0 PUSH2 0x100 EXP DUP2 SLOAD DUP2 PUSH1 0xFF MUL NOT AND SWAP1 DUP4 ISZERO ISZERO MUL OR SWAP1 SSTORE POP PUSH32 0x24B29EE845E0E3F55662A5CCBBD026629D29229DE2A98B6C12F968D8D0C3E24E DUP3 PUSH1 0x40 MLOAD PUSH2 0xAE7 SWAP2 SWAP1 PUSH2 0x3118 JUMP JUMPDEST PUSH1 0x40 MLOAD DUP1 SWAP2 SUB SWAP1 LOG1 POP POP JUMP JUMPDEST PUSH1 0x3 PUSH0 SWAP1 SLOAD SWAP1 PUSH2 0x100 EXP SWAP1 DIV PUSH1 0xFF AND DUP2 JUMP JUMPDEST PUSH2 0xB0E DUP3 PUSH2 0xA69 JUMP JUMPDEST PUSH2 0xB17 DUP2 PUSH2 0x1C7A JUMP JUMPDEST PUSH2 0xB21 DUP4 DUP4 PUSH2 0x1C8E JUMP JUMPDEST POP POP POP POP JUMP JUMPDEST PUSH0 PUSH1 0x12 SWAP1 POP SWAP1 JUMP JUMPDEST PUSH2 0xB37 PUSH2 0x1A90 JUMP JUMPDEST PUSH20 0xFFFFFFFFFFFFFFFFFFFFFFFFFFFFFFFFFFFFFFFF AND DUP2 PUSH20 0xFFFFFFFFFFFFFFFFFFFFFFFFFFFFFFFFFFFFFFFF AND EQ PUSH2 0xB9B JUMPI PUSH1 0x40 MLOAD PUSH32 0x6697B23200000000000000000000000000000000000000000000000000000000 DUP2 MSTORE PUSH1 0x4 ADD PUSH1 0x40 MLOAD DUP1 SWAP2 SUB SWAP1 REVERT JUMPDEST PUSH2 0xBA5 DUP3 DUP3 PUSH2 0x1D86 JUMP JUMPDEST POP POP POP JUMP JUMPDEST PUSH32 0x65D7A28E3265B37A6474929F336521B332C1681B933F6CB9F3376673440D862A PUSH2 0xBD4 DUP2 PUSH2 0x1C7A JUMP JUMPDEST PUSH2 0xBDC PUSH2 0x1E7E JUMP JUMPDEST POP JUMP JUMPDEST PUSH32 0x9F2DF0FED2C77648DE5860A4CC508CD0818C85B8B8A1AB4CEEEF8D981C8956A6 PUSH2 0xC09 DUP2 PUSH2 0x1C7A JUMP JUMPDEST PUSH2 0xC13 DUP4 DUP4 PUSH2 0x1EEC JUMP JUMPDEST DUP3 PUSH20 0xFFFFFFFFFFFFFFFFFFFFFFFFFFFFFFFFFFFFFFFF AND PUSH32 0x30385C845B448A36257A6A1716E6AD2E1BC2CBE333CDE1E69FE849AD6511ADFE DUP4 PUSH1 0x40 MLOAD PUSH2 0xC59 SWAP2 SWAP1 PUSH2 0x32CC JUMP JUMPDEST PUSH1 0x40 MLOAD DUP1 SWAP2 SUB SWAP1 LOG2 POP POP POP JUMP JUMPDEST PUSH0 PUSH2 0xC6F PUSH2 0x1F6B JUMP JUMPDEST SWAP1 POP PUSH0 DUP2 PUSH0 ADD PUSH1 0x8 SWAP1 SLOAD SWAP1 PUSH2 0x100 EXP SWAP1 DIV PUSH1 0xFF AND ISZERO SWAP1 POP PUSH0 DUP3 PUSH0 ADD PUSH0 SWAP1 SLOAD SWAP1 PUSH2 0x100 EXP SWAP1 DIV PUSH8 0xFFFFFFFFFFFFFFFF AND SWAP1 POP PUSH0 PUSH0 DUP3 PUSH8 0xFFFFFFFFFFFFFFFF AND EQ DUP1 ISZERO PUSH2 0xCB7 JUMPI POP DUP3 JUMPDEST SWAP1 POP PUSH0 PUSH1 0x1 DUP4 PUSH8 0xFFFFFFFFFFFFFFFF AND EQ DUP1 ISZERO PUSH2 0xCEA JUMPI POP PUSH0 ADDRESS PUSH20 0xFFFFFFFFFFFFFFFFFFFFFFFFFFFFFFFFFFFFFFFF AND EXTCODESIZE EQ JUMPDEST SWAP1 POP DUP2 ISZERO DUP1 ISZERO PUSH2 0xCF8 JUMPI POP DUP1 ISZERO JUMPDEST ISZERO PUSH2 0xD2F JUMPI PUSH1 0x40 MLOAD PUSH32 0xF92EE8A900000000000000000000000000000000000000000000000000000000 DUP2 MSTORE PUSH1 0x4 ADD PUSH1 0x40 MLOAD DUP1 SWAP2 SUB SWAP1 REVERT JUMPDEST PUSH1 0x1 DUP6 PUSH0 ADD PUSH0 PUSH2 0x100 EXP DUP2 SLOAD DUP2 PUSH8 0xFFFFFFFFFFFFFFFF MUL NOT AND SWAP1 DUP4 PUSH8 0xFFFFFFFFFFFFFFFF AND MUL OR SWAP1 SSTORE POP DUP4 ISZERO PUSH2 0xD7C JUMPI PUSH1 0x1 DUP6 PUSH0 ADD PUSH1 0x8 PUSH2 0x100 EXP DUP2 SLOAD DUP2 PUSH1 0xFF MUL NOT AND SWAP1 DUP4 ISZERO ISZERO MUL OR SWAP1 SSTORE POP JUMPDEST PUSH2 0xE0C DUP10 DUP10 DUP1 DUP1 PUSH1 0x1F ADD PUSH1 0x20 DUP1 SWAP2 DIV MUL PUSH1 0x20 ADD PUSH1 0x40 MLOAD SWAP1 DUP2 ADD PUSH1 0x40 MSTORE DUP1 SWAP4 SWAP3 SWAP2 SWAP1 DUP2 DUP2 MSTORE PUSH1 0x20 ADD DUP4 DUP4 DUP1 DUP3 DUP5 CALLDATACOPY PUSH0 DUP2 DUP5 ADD MSTORE PUSH1 0x1F NOT PUSH1 0x1F DUP3 ADD AND SWAP1 POP DUP1 DUP4 ADD SWAP3 POP POP POP POP POP POP POP DUP9 DUP9 DUP1 DUP1 PUSH1 0x1F ADD PUSH1 0x20 DUP1 SWAP2 DIV MUL PUSH1 0x20 ADD PUSH1 0x40 MLOAD SWAP1 DUP2 ADD PUSH1 0x40 MSTORE DUP1 SWAP4 SWAP3 SWAP2 SWAP1 DUP2 DUP2 MSTORE PUSH1 0x20 ADD DUP4 DUP4 DUP1 DUP3 DUP5 CALLDATACOPY PUSH0 DUP2 DUP5 ADD MSTORE PUSH1 0x1F NOT PUSH1 0x1F DUP3 ADD AND SWAP1 POP DUP1 DUP4 ADD SWAP3 POP POP POP POP POP POP POP PUSH2 0x1F7E JUMP JUMPDEST PUSH2 0xE14 PUSH2 0x1F94 JUMP JUMPDEST PUSH2 0xE1D CALLER PUSH2 0x1F9E JUMP JUMPDEST PUSH2 0xE25 PUSH2 0x1FB2 JUMP JUMPDEST PUSH2 0xE2D PUSH2 0x1FBC JUMP JUMPDEST DUP9 DUP9 PUSH0 SWAP2 DUP3 PUSH2 0xE3D SWAP3 SWAP2 SWAP1 PUSH2 0x39A6 JUMP JUMPDEST POP DUP7 DUP7 PUSH1 0x1 SWAP2 DUP3 PUSH2 0xE4F SWAP3 SWAP2 SWAP1 PUSH2 0x39A6 JUMP JUMPDEST POP PUSH2 0xE5C PUSH0 PUSH0 SHL CALLER PUSH2 0x1C8E JUMP JUMPDEST POP PUSH2 0xE87 PUSH32 0x9F2DF0FED2C77648DE5860A4CC508CD0818C85B8B8A1AB4CEEEF8D981C8956A6 CALLER PUSH2 0x1C8E JUMP JUMPDEST POP PUSH2 0xEB2 PUSH32 0x92DE27771F92D6942691D73358B3A4673E4880DE8356F8F2CF452BE87E02D363 CALLER PUSH2 0x1C8E JUMP JUMPDEST POP PUSH2 0xEDD PUSH32 0x65D7A28E3265B37A6474929F336521B332C1681B933F6CB9F3376673440D862A CALLER PUSH2 0x1C8E JUMP JUMPDEST POP DUP4 ISZERO PUSH2 0xF38 JUMPI PUSH0 DUP6 PUSH0 ADD PUSH1 0x8 PUSH2 0x100 EXP DUP2 SLOAD DUP2 PUSH1 0xFF MUL NOT AND SWAP1 DUP4 ISZERO ISZERO MUL OR SWAP1 SSTORE POP PUSH32 0xC7F505B2F371AE2175EE4913F4499E1F2633A7B5936321EED1CDAEB6115181D2 PUSH1 0x1 PUSH1 0x40 MLOAD PUSH2 0xF2F SWAP2 SWAP1 PUSH2 0x3ABF JUMP JUMPDEST PUSH1 0x40 MLOAD DUP1 SWAP2 SUB SWAP1 LOG1 JUMPDEST POP POP POP POP POP POP POP POP POP JUMP JUMPDEST PUSH2 0xF4B PUSH2 0x1FC6 JUMP JUMPDEST PUSH2 0xF54 DUP3 PUSH2 0x20AC JUMP JUMPDEST PUSH2 0xF5E DUP3 DUP3 PUSH2 0x20B7 JUMP JUMPDEST POP POP JUMP JUMPDEST PUSH0 PUSH2 0xF6B PUSH2 0x21D5 JUMP JUMPDEST PUSH32 0x360894A13BA1A3210667C828492DB98DCA3E2076CC3735A920A3CA505D382BBC PUSH0 SHL SWAP1 POP SWAP1 JUMP JUMPDEST PUSH0 PUSH0 PUSH2 0xF9D PUSH2 0x225C JUMP JUMPDEST SWAP1 POP DUP1 PUSH0 ADD PUSH0 SWAP1 SLOAD SWAP1 PUSH2 0x100 EXP SWAP1 DIV PUSH1 0xFF AND SWAP2 POP POP SWAP1 JUMP JUMPDEST PUSH1 0x2 PUSH0 PUSH2 0xFC0 PUSH2 0x1F6B JUMP JUMPDEST SWAP1 POP DUP1 PUSH0 ADD PUSH1 0x8 SWAP1 SLOAD SWAP1 PUSH2 0x100 EXP SWAP1 DIV PUSH1 0xFF AND DUP1 PUSH2 0x1008 JUMPI POP DUP2 PUSH8 0xFFFFFFFFFFFFFFFF AND DUP2 PUSH0 ADD PUSH0 SWAP1 SLOAD SWAP1 PUSH2 0x100 EXP SWAP1 DIV PUSH8 0xFFFFFFFFFFFFFFFF AND PUSH8 0xFFFFFFFFFFFFFFFF AND LT ISZERO JUMPDEST ISZERO PUSH2 0x103F JUMPI PUSH1 0x40 MLOAD PUSH32 0xF92EE8A900000000000000000000000000000000000000000000000000000000 DUP2 MSTORE PUSH1 0x4 ADD PUSH1 0x40 MLOAD DUP1 SWAP2 SUB SWAP1 REVERT JUMPDEST DUP2 DUP2 PUSH0 ADD PUSH0 PUSH2 0x100 EXP DUP2 SLOAD DUP2 PUSH8 0xFFFFFFFFFFFFFFFF MUL NOT AND SWAP1 DUP4 PUSH8 0xFFFFFFFFFFFFFFFF AND MUL OR SWAP1 SSTORE POP PUSH1 0x1 DUP2 PUSH0 ADD PUSH1 0x8 PUSH2 0x100 EXP DUP2 SLOAD DUP2 PUSH1 0xFF MUL NOT AND SWAP1 DUP4 ISZERO ISZERO MUL OR SWAP1 SSTORE POP PUSH0 PUSH1 0x3 PUSH0 PUSH2 0x100 EXP DUP2 SLOAD DUP2 PUSH1 0xFF MUL NOT AND SWAP1 DUP4 ISZERO ISZERO MUL OR SWAP1 SSTORE POP PUSH0 DUP2 PUSH0 ADD PUSH1 0x8 PUSH2 0x100 EXP DUP2 SLOAD DUP2 PUSH1 0xFF MUL NOT AND SWAP1 DUP4 ISZERO ISZERO MUL OR SWAP1 SSTORE POP PUSH32 0xC7F505B2F371AE2175EE4913F4499E1F2633A7B5936321EED1CDAEB6115181D2 DUP3 PUSH1 0x40 MLOAD PUSH2 0x10E7 SWAP2 SWAP1 PUSH2 0x3AE7 JUMP JUMPDEST PUSH1 0x40 MLOAD DUP1 SWAP2 SUB SWAP1 LOG1 POP POP JUMP JUMPDEST PUSH32 0x92DE27771F92D6942691D73358B3A4673E4880DE8356F8F2CF452BE87E02D363 PUSH2 0x111D DUP2 PUSH2 0x1C7A JUMP JUMPDEST PUSH1 0x2 PUSH0 DUP4 PUSH20 0xFFFFFFFFFFFFFFFFFFFFFFFFFFFFFFFFFFFFFFFF AND PUSH20 0xFFFFFFFFFFFFFFFFFFFFFFFFFFFFFFFFFFFFFFFF AND DUP2 MSTORE PUSH1 0x20 ADD SWAP1 DUP2 MSTORE PUSH1 0x20 ADD PUSH0 KECCAK256 PUSH0 SWAP1 SLOAD SWAP1 PUSH2 0x100 EXP SWAP1 DIV PUSH1 0xFF AND PUSH2 0x11A6 JUMPI PUSH1 0x40 MLOAD PUSH32 0x8C379A000000000000000000000000000000000000000000000000000000000 DUP2 MSTORE PUSH1 0x4 ADD PUSH2 0x119D SWAP1 PUSH2 0x3B4A JUMP JUMPDEST PUSH1 0x40 MLOAD DUP1 SWAP2 SUB SWAP1 REVERT JUMPDEST PUSH0 PUSH1 0x2 PUSH0 DUP5 PUSH20 0xFFFFFFFFFFFFFFFFFFFFFFFFFFFFFFFFFFFFFFFF AND PUSH20 0xFFFFFFFFFFFFFFFFFFFFFFFFFFFFFFFFFFFFFFFF AND DUP2 MSTORE PUSH1 0x20 ADD SWAP1 DUP2 MSTORE PUSH1 0x20 ADD PUSH0 KECCAK256 PUSH0 PUSH2 0x100 EXP DUP2 SLOAD DUP2 PUSH1 0xFF MUL NOT AND SWAP1 DUP4 ISZERO ISZERO MUL OR SWAP1 SSTORE POP DUP2 PUSH20 0xFFFFFFFFFFFFFFFFFFFFFFFFFFFFFFFFFFFFFFFF AND PUSH32 0xD247131FABB99DC3BA793524F53F05A77EEEF38F12B30119655EE340810B1210 PUSH1 0x40 MLOAD PUSH1 0x40 MLOAD DUP1 SWAP2 SUB SWAP1 LOG2 POP POP JUMP JUMPDEST PUSH0 PUSH0 PUSH2 0x124B PUSH2 0x1AA9 JUMP JUMPDEST SWAP1 POP DUP1 PUSH0 ADD PUSH0 DUP5 PUSH20 0xFFFFFFFFFFFFFFFFFFFFFFFFFFFFFFFFFFFFFFFF AND PUSH20 0xFFFFFFFFFFFFFFFFFFFFFFFFFFFFFFFFFFFFFFFF AND DUP2 MSTORE PUSH1 0x20 ADD SWAP1 DUP2 MSTORE PUSH1 0x20 ADD PUSH0 KECCAK256 SLOAD SWAP2 POP POP SWAP2 SWAP1 POP JUMP JUMPDEST PUSH2 0x129C PUSH2 0x2283 JUMP JUMPDEST PUSH2 0x12A5 PUSH0 PUSH2 0x230A JUMP JUMPDEST JUMP JUMPDEST PUSH0 PUSH2 0x12B0 PUSH2 0x1A90 JUMP JUMPDEST SWAP1 POP DUP1 PUSH20 0xFFFFFFFFFFFFFFFFFFFFFFFFFFFFFFFFFFFFFFFF AND PUSH2 0x12D1 PUSH2 0x18F1 JUMP JUMPDEST PUSH20 0xFFFFFFFFFFFFFFFFFFFFFFFFFFFFFFFFFFFFFFFF AND EQ PUSH2 0x1329 JUMPI DUP1 PUSH1 0x40 MLOAD PUSH32 0x118CDAA700000000000000000000000000000000000000000000000000000000 DUP2 MSTORE PUSH1 0x4 ADD PUSH2 0x1320 SWAP2 SWAP1 PUSH2 0x36EC JUMP JUMPDEST PUSH1 0x40 MLOAD DUP1 SWAP2 SUB SWAP1 REVERT JUMPDEST PUSH2 0x1332 DUP2 PUSH2 0x230A JUMP JUMPDEST POP JUMP JUMPDEST PUSH32 0x65D7A28E3265B37A6474929F336521B332C1681B933F6CB9F3376673440D862A PUSH2 0x135F DUP2 PUSH2 0x1C7A JUMP JUMPDEST PUSH2 0x1367 PUSH2 0x2347 JUMP JUMPDEST POP JUMP JUMPDEST PUSH0 PUSH0 PUSH2 0x1374 PUSH2 0x23B6 JUMP JUMPDEST SWAP1 POP DUP1 PUSH0 ADD PUSH0 SWAP1 SLOAD SWAP1 PUSH2 0x100 EXP SWAP1 DIV PUSH20 0xFFFFFFFFFFFFFFFFFFFFFFFFFFFFFFFFFFFFFFFF AND SWAP2 POP POP SWAP1 JUMP JUMPDEST PUSH0 PUSH0 PUSH2 0x13A9 PUSH2 0x1C53 JUMP JUMPDEST SWAP1 POP DUP1 PUSH0 ADD PUSH0 DUP6 DUP2 MSTORE PUSH1 0x20 ADD SWAP1 DUP2 MSTORE PUSH1 0x20 ADD PUSH0 KECCAK256 PUSH0 ADD PUSH0 DUP5 PUSH20 0xFFFFFFFFFFFFFFFFFFFFFFFFFFFFFFFFFFFFFFFF AND PUSH20 0xFFFFFFFFFFFFFFFFFFFFFFFFFFFFFFFFFFFFFFFF AND DUP2 MSTORE PUSH1 0x20 ADD SWAP1 DUP2 MSTORE PUSH1 0x20 ADD PUSH0 KECCAK256 PUSH0 SWAP1 SLOAD SWAP1 PUSH2 0x100 EXP SWAP1 DIV PUSH1 0xFF AND SWAP2 POP POP SWAP3 SWAP2 POP POP JUMP JUMPDEST PUSH1 0x60 PUSH1 0x1 DUP1 SLOAD PUSH2 0x141F SWAP1 PUSH2 0x37BB JUMP JUMPDEST DUP1 PUSH1 0x1F ADD PUSH1 0x20 DUP1 SWAP2 DIV MUL PUSH1 0x20 ADD PUSH1 0x40 MLOAD SWAP1 DUP2 ADD PUSH1 0x40 MSTORE DUP1 SWAP3 SWAP2 SWAP1 DUP2 DUP2 MSTORE PUSH1 0x20 ADD DUP3 DUP1 SLOAD PUSH2 0x144B SWAP1 PUSH2 0x37BB JUMP JUMPDEST DUP1 ISZERO PUSH2 0x1496 JUMPI DUP1 PUSH1 0x1F LT PUSH2 0x146D JUMPI PUSH2 0x100 DUP1 DUP4 SLOAD DIV MUL DUP4 MSTORE SWAP2 PUSH1 0x20 ADD SWAP2 PUSH2 0x1496 JUMP JUMPDEST DUP3 ADD SWAP2 SWAP1 PUSH0 MSTORE PUSH1 0x20 PUSH0 KECCAK256 SWAP1 JUMPDEST DUP2 SLOAD DUP2 MSTORE SWAP1 PUSH1 0x1 ADD SWAP1 PUSH1 0x20 ADD DUP1 DUP4 GT PUSH2 0x1479 JUMPI DUP3 SWAP1 SUB PUSH1 0x1F AND DUP3 ADD SWAP2 JUMPDEST POP POP POP POP POP SWAP1 POP SWAP1 JUMP JUMPDEST PUSH32 0x92DE27771F92D6942691D73358B3A4673E4880DE8356F8F2CF452BE87E02D363 PUSH2 0x14CA DUP2 PUSH2 0x1C7A JUMP JUMPDEST PUSH1 0x2 PUSH0 DUP4 PUSH20 0xFFFFFFFFFFFFFFFFFFFFFFFFFFFFFFFFFFFFFFFF AND PUSH20 0xFFFFFFFFFFFFFFFFFFFFFFFFFFFFFFFFFFFFFFFF AND DUP2 MSTORE PUSH1 0x20 ADD SWAP1 DUP2 MSTORE PUSH1 0x20 ADD PUSH0 KECCAK256 PUSH0 SWAP1 SLOAD SWAP1 PUSH2 0x100 EXP SWAP1 DIV PUSH1 0xFF AND ISZERO PUSH2 0x1554 JUMPI PUSH1 0x40 MLOAD PUSH32 0x8C379A000000000000000000000000000000000000000000000000000000000 DUP2 MSTORE PUSH1 0x4 ADD PUSH2 0x154B SWAP1 PUSH2 0x3BB2 JUMP JUMPDEST PUSH1 0x40 MLOAD DUP1 SWAP2 SUB SWAP1 REVERT JUMPDEST PUSH1 0x1 PUSH1 0x2 PUSH0 DUP5 PUSH20 0xFFFFFFFFFFFFFFFFFFFFFFFFFFFFFFFFFFFFFFFF AND PUSH20 0xFFFFFFFFFFFFFFFFFFFFFFFFFFFFFFFFFFFFFFFF AND DUP2 MSTORE PUSH1 0x20 ADD SWAP1 DUP2 MSTORE PUSH1 0x20 ADD PUSH0 KECCAK256 PUSH0 PUSH2 0x100 EXP DUP2 SLOAD DUP2 PUSH1 0xFF MUL NOT AND SWAP1 DUP4 ISZERO ISZERO MUL OR SWAP1 SSTORE POP DUP2 PUSH20 0xFFFFFFFFFFFFFFFFFFFFFFFFFFFFFFFFFFFFFFFF AND PUSH32 0xC9710D20BDBF99CA92A03644A5A8F85EA6BADB387FF0ABCA08EEBDFBFF50B77F PUSH1 0x40 MLOAD PUSH1 0x40 MLOAD DUP1 SWAP2 SUB SWAP1 LOG2 POP POP JUMP JUMPDEST PUSH0 PUSH0 SHL DUP2 JUMP JUMPDEST PUSH0 PUSH0 PUSH2 0x1600 PUSH2 0x1A90 JUMP JUMPDEST SWAP1 POP PUSH2 0x160D DUP2 DUP6 DUP6 PUSH2 0x1B63 JUMP JUMPDEST PUSH1 0x1 SWAP2 POP POP SWAP3 SWAP2 POP POP JUMP JUMPDEST PUSH1 0x40 MLOAD DUP1 PUSH1 0x40 ADD PUSH1 0x40 MSTORE DUP1 PUSH1 0x5 DUP2 MSTORE PUSH1 0x20 ADD PUSH32 0x352E302E30000000000000000000000000000000000000000000000000000000 DUP2 MSTORE POP DUP2 JUMP JUMPDEST PUSH2 0x1659 PUSH2 0x2283 JUMP JUMPDEST PUSH0 PUSH1 0x1 DUP1 SLOAD PUSH2 0x1667 SWAP1 PUSH2 0x37BB JUMP JUMPDEST DUP1 PUSH1 0x1F ADD PUSH1 0x20 DUP1 SWAP2 DIV MUL PUSH1 0x20 ADD PUSH1 0x40 MLOAD SWAP1 DUP2 ADD PUSH1 0x40 MSTORE DUP1 SWAP3 SWAP2 SWAP1 DUP2 DUP2 MSTORE PUSH1 0x20 ADD DUP3 DUP1 SLOAD PUSH2 0x1693 SWAP1 PUSH2 0x37BB JUMP JUMPDEST DUP1 ISZERO PUSH2 0x16DE JUMPI DUP1 PUSH1 0x1F LT PUSH2 0x16B5 JUMPI PUSH2 0x100 DUP1 DUP4 SLOAD DIV MUL DUP4 MSTORE SWAP2 PUSH1 0x20 ADD SWAP2 PUSH2 0x16DE JUMP JUMPDEST DUP3 ADD SWAP2 SWAP1 PUSH0 MSTORE PUSH1 0x20 PUSH0 KECCAK256 SWAP1 JUMPDEST DUP2 SLOAD DUP2 MSTORE SWAP1 PUSH1 0x1 ADD SWAP1 PUSH1 0x20 ADD DUP1 DUP4 GT PUSH2 0x16C1 JUMPI DUP3 SWAP1 SUB PUSH1 0x1F AND DUP3 ADD SWAP2 JUMPDEST POP POP POP POP POP SWAP1 POP DUP3 DUP3 PUSH1 0x1 SWAP2 DUP3 PUSH2 0x16F6 SWAP3 SWAP2 SWAP1 PUSH2 0x39A6 JUMP JUMPDEST POP PUSH32 0xD7AD744CC76EBAD190995130EEC8BA506B3605612D23B5B9CEF8E27F14D138B4 DUP2 DUP5 DUP5 PUSH1 0x40 MLOAD PUSH2 0x172A SWAP4 SWAP3 SWAP2 SWAP1 PUSH2 0x3BFC JUMP JUMPDEST PUSH1 0x40 MLOAD DUP1 SWAP2 SUB SWAP1 LOG1 POP POP POP JUMP JUMPDEST PUSH2 0x173F PUSH2 0x2283 JUMP JUMPDEST PUSH0 PUSH0 DUP1 SLOAD PUSH2 0x174C SWAP1 PUSH2 0x37BB JUMP JUMPDEST DUP1 PUSH1 0x1F ADD PUSH1 0x20 DUP1 SWAP2 DIV MUL PUSH1 0x20 ADD PUSH1 0x40 MLOAD SWAP1 DUP2 ADD PUSH1 0x40 MSTORE DUP1 SWAP3 SWAP2 SWAP1 DUP2 DUP2 MSTORE PUSH1 0x20 ADD DUP3 DUP1 SLOAD PUSH2 0x1778 SWAP1 PUSH2 0x37BB JUMP JUMPDEST DUP1 ISZERO PUSH2 0x17C3 JUMPI DUP1 PUSH1 0x1F LT PUSH2 0x179A JUMPI PUSH2 0x100 DUP1 DUP4 SLOAD DIV MUL DUP4 MSTORE SWAP2 PUSH1 0x20 ADD SWAP2 PUSH2 0x17C3 JUMP JUMPDEST DUP3 ADD SWAP2 SWAP1 PUSH0 MSTORE PUSH1 0x20 PUSH0 KECCAK256 SWAP1 JUMPDEST DUP2 SLOAD DUP2 MSTORE SWAP1 PUSH1 0x1 ADD SWAP1 PUSH1 0x20 ADD DUP1 DUP4 GT PUSH2 0x17A6 JUMPI DUP3 SWAP1 SUB PUSH1 0x1F AND DUP3 ADD SWAP2 JUMPDEST POP POP POP POP POP SWAP1 POP DUP3 DUP3 PUSH0 SWAP2 DUP3 PUSH2 0x17DA SWAP3 SWAP2 SWAP1 PUSH2 0x39A6 JUMP JUMPDEST POP PUSH32 0x6C20B91D1723B78732EBA64FF11EBD7966A6E4AF568A00FA4F6B72C20F58B02A DUP2 DUP5 DUP5 PUSH1 0x40 MLOAD PUSH2 0x180E SWAP4 SWAP3 SWAP2 SWAP1 PUSH2 0x3BFC JUMP JUMPDEST PUSH1 0x40 MLOAD DUP1 SWAP2 SUB SWAP1 LOG1 POP POP POP JUMP JUMPDEST PUSH32 0x9F2DF0FED2C77648DE5860A4CC508CD0818C85B8B8A1AB4CEEEF8D981C8956A6 DUP2 JUMP JUMPDEST PUSH2 0x1848 DUP3 PUSH2 0xA69 JUMP JUMPDEST PUSH2 0x1851 DUP2 PUSH2 0x1C7A JUMP JUMPDEST PUSH2 0x185B DUP4 DUP4 PUSH2 0x1D86 JUMP JUMPDEST POP POP POP POP JUMP JUMPDEST PUSH0 PUSH0 PUSH2 0x186B PUSH2 0x1AA9 JUMP JUMPDEST SWAP1 POP DUP1 PUSH1 0x1 ADD PUSH0 DUP6 PUSH20 0xFFFFFFFFFFFFFFFFFFFFFFFFFFFFFFFFFFFFFFFF AND PUSH20 0xFFFFFFFFFFFFFFFFFFFFFFFFFFFFFFFFFFFFFFFF AND DUP2 MSTORE PUSH1 0x20 ADD SWAP1 DUP2 MSTORE PUSH1 0x20 ADD PUSH0 KECCAK256 PUSH0 DUP5 PUSH20 0xFFFFFFFFFFFFFFFFFFFFFFFFFFFFFFFFFFFFFFFF AND PUSH20 0xFFFFFFFFFFFFFFFFFFFFFFFFFFFFFFFFFFFFFFFF AND DUP2 MSTORE PUSH1 0x20 ADD SWAP1 DUP2 MSTORE PUSH1 0x20 ADD PUSH0 KECCAK256 SLOAD SWAP2 POP POP SWAP3 SWAP2 POP POP JUMP JUMPDEST PUSH0 PUSH0 PUSH2 0x18FB PUSH2 0x23DD JUMP JUMPDEST SWAP1 POP DUP1 PUSH0 ADD PUSH0 SWAP1 SLOAD SWAP1 PUSH2 0x100 EXP SWAP1 DIV PUSH20 0xFFFFFFFFFFFFFFFFFFFFFFFFFFFFFFFFFFFFFFFF AND SWAP2 POP POP SWAP1 JUMP JUMPDEST PUSH32 0x65D7A28E3265B37A6474929F336521B332C1681B933F6CB9F3376673440D862A DUP2 JUMP JUMPDEST PUSH32 0xFACAF2747A7486CF5730E9265973FB54447D3ACE6E7E4711F6360826B0731941 DUP2 JUMP JUMPDEST PUSH2 0x1976 PUSH2 0x2283 JUMP JUMPDEST PUSH0 PUSH2 0x197F PUSH2 0x23DD JUMP JUMPDEST SWAP1 POP DUP2 DUP2 PUSH0 ADD PUSH0 PUSH2 0x100 EXP DUP2 SLOAD DUP2 PUSH20 0xFFFFFFFFFFFFFFFFFFFFFFFFFFFFFFFFFFFFFFFF MUL NOT AND SWAP1 DUP4 PUSH20 0xFFFFFFFFFFFFFFFFFFFFFFFFFFFFFFFFFFFFFFFF AND MUL OR SWAP1 SSTORE POP DUP2 PUSH20 0xFFFFFFFFFFFFFFFFFFFFFFFFFFFFFFFFFFFFFFFF AND PUSH2 0x19E1 PUSH2 0x136A JUMP JUMPDEST PUSH20 0xFFFFFFFFFFFFFFFFFFFFFFFFFFFFFFFFFFFFFFFF AND PUSH32 0x38D16B8CAC22D99FC7C124B9CD0DE2D3FA1FAEF420BFE791D8C362D765E22700 PUSH1 0x40 MLOAD PUSH1 0x40 MLOAD DUP1 SWAP2 SUB SWAP1 LOG3 POP POP JUMP JUMPDEST PUSH0 PUSH32 0x1FFC9A700000000000000000000000000000000000000000000000000000000 PUSH28 0xFFFFFFFFFFFFFFFFFFFFFFFFFFFFFFFFFFFFFFFFFFFFFFFFFFFFFFFF NOT AND DUP3 PUSH28 0xFFFFFFFFFFFFFFFFFFFFFFFFFFFFFFFFFFFFFFFFFFFFFFFFFFFFFFFF NOT AND EQ SWAP1 POP SWAP2 SWAP1 POP JUMP JUMPDEST PUSH0 CALLER SWAP1 POP SWAP1 JUMP JUMPDEST PUSH2 0x1AA4 DUP4 DUP4 DUP4 PUSH1 0x1 PUSH2 0x2404 JUMP JUMPDEST POP POP POP JUMP JUMPDEST PUSH0 PUSH32 0x52C63247E1F47DB19D5CE0460030C497F067CA4CEBF71BA98EEADABE20BACE00 SWAP1 POP SWAP1 JUMP JUMPDEST PUSH0 PUSH2 0x1ADB DUP5 DUP5 PUSH2 0x1861 JUMP JUMPDEST SWAP1 POP PUSH32 0xFFFFFFFFFFFFFFFFFFFFFFFFFFFFFFFFFFFFFFFFFFFFFFFFFFFFFFFFFFFFFFFF DUP2 LT ISZERO PUSH2 0x1B5D JUMPI DUP2 DUP2 LT ISZERO PUSH2 0x1B4E JUMPI DUP3 DUP2 DUP4 PUSH1 0x40 MLOAD PUSH32 0xFB8F41B200000000000000000000000000000000000000000000000000000000 DUP2 MSTORE PUSH1 0x4 ADD PUSH2 0x1B45 SWAP4 SWAP3 SWAP2 SWAP1 PUSH2 0x3C33 JUMP JUMPDEST PUSH1 0x40 MLOAD DUP1 SWAP2 SUB SWAP1 REVERT JUMPDEST PUSH2 0x1B5C DUP5 DUP5 DUP5 DUP5 SUB PUSH0 PUSH2 0x2404 JUMP JUMPDEST JUMPDEST POP POP POP POP JUMP JUMPDEST PUSH0 PUSH20 0xFFFFFFFFFFFFFFFFFFFFFFFFFFFFFFFFFFFFFFFF AND DUP4 PUSH20 0xFFFFFFFFFFFFFFFFFFFFFFFFFFFFFFFFFFFFFFFF AND SUB PUSH2 0x1BD3 JUMPI PUSH0 PUSH1 0x40 MLOAD PUSH32 0x96C6FD1E00000000000000000000000000000000000000000000000000000000 DUP2 MSTORE PUSH1 0x4 ADD PUSH2 0x1BCA SWAP2 SWAP1 PUSH2 0x36EC JUMP JUMPDEST PUSH1 0x40 MLOAD DUP1 SWAP2 SUB SWAP1 REVERT JUMPDEST PUSH0 PUSH20 0xFFFFFFFFFFFFFFFFFFFFFFFFFFFFFFFFFFFFFFFF AND DUP3 PUSH20 0xFFFFFFFFFFFFFFFFFFFFFFFFFFFFFFFFFFFFFFFF AND SUB PUSH2 0x1C43 JUMPI PUSH0 PUSH1 0x40 MLOAD PUSH32 0xEC442F0500000000000000000000000000000000000000000000000000000000 DUP2 MSTORE PUSH1 0x4 ADD PUSH2 0x1C3A SWAP2 SWAP1 PUSH2 0x36EC JUMP JUMPDEST PUSH1 0x40 MLOAD DUP1 SWAP2 SUB SWAP1 REVERT JUMPDEST PUSH2 0x1C4E DUP4 DUP4 DUP4 PUSH2 0x25E1 JUMP JUMPDEST POP POP POP JUMP JUMPDEST PUSH0 PUSH32 0x2DD7BC7DEC4DCEEDDA775E58DD541E08A116C6C53815C0BD028192F7B626800 SWAP1 POP SWAP1 JUMP JUMPDEST PUSH2 0x1C8B DUP2 PUSH2 0x1C86 PUSH2 0x1A90 JUMP JUMPDEST PUSH2 0x2835 JUMP JUMPDEST POP JUMP JUMPDEST PUSH0 PUSH0 PUSH2 0x1C98 PUSH2 0x1C53 JUMP JUMPDEST SWAP1 POP PUSH2 0x1CA4 DUP5 DUP5 PUSH2 0x139F JUMP JUMPDEST PUSH2 0x1D7B JUMPI PUSH1 0x1 DUP2 PUSH0 ADD PUSH0 DUP7 DUP2 MSTORE PUSH1 0x20 ADD SWAP1 DUP2 MSTORE PUSH1 0x20 ADD PUSH0 KECCAK256 PUSH0 ADD PUSH0 DUP6 PUSH20 0xFFFFFFFFFFFFFFFFFFFFFFFFFFFFFFFFFFFFFFFF AND PUSH20 0xFFFFFFFFFFFFFFFFFFFFFFFFFFFFFFFFFFFFFFFF AND DUP2 MSTORE PUSH1 0x20 ADD SWAP1 DUP2 MSTORE PUSH1 0x20 ADD PUSH0 KECCAK256 PUSH0 PUSH2 0x100 EXP DUP2 SLOAD DUP2 PUSH1 0xFF MUL NOT AND SWAP1 DUP4 ISZERO ISZERO MUL OR SWAP1 SSTORE POP PUSH2 0x1D17 PUSH2 0x1A90 JUMP JUMPDEST PUSH20 0xFFFFFFFFFFFFFFFFFFFFFFFFFFFFFFFFFFFFFFFF AND DUP4 PUSH20 0xFFFFFFFFFFFFFFFFFFFFFFFFFFFFFFFFFFFFFFFF AND DUP6 PUSH32 0x2F8788117E7EFF1D82E926EC794901D17C78024A50270940304540A733656F0D PUSH1 0x40 MLOAD PUSH1 0x40 MLOAD DUP1 SWAP2 SUB SWAP1 LOG4 PUSH1 0x1 SWAP2 POP POP PUSH2 0x1D80 JUMP JUMPDEST PUSH0 SWAP2 POP POP JUMPDEST SWAP3 SWAP2 POP POP JUMP JUMPDEST PUSH0 PUSH0 PUSH2 0x1D90 PUSH2 0x1C53 JUMP JUMPDEST SWAP1 POP PUSH2 0x1D9C DUP5 DUP5 PUSH2 0x139F JUMP JUMPDEST ISZERO PUSH2 0x1E73 JUMPI PUSH0 DUP2 PUSH0 ADD PUSH0 DUP7 DUP2 MSTORE PUSH1 0x20 ADD SWAP1 DUP2 MSTORE PUSH1 0x20 ADD PUSH0 KECCAK256 PUSH0 ADD PUSH0 DUP6 PUSH20 0xFFFFFFFFFFFFFFFFFFFFFFFFFFFFFFFFFFFFFFFF AND PUSH20 0xFFFFFFFFFFFFFFFFFFFFFFFFFFFFFFFFFFFFFFFF AND DUP2 MSTORE PUSH1 0x20 ADD SWAP1 DUP2 MSTORE PUSH1 0x20 ADD PUSH0 KECCAK256 PUSH0 PUSH2 0x100 EXP DUP2 SLOAD DUP2 PUSH1 0xFF MUL NOT AND SWAP1 DUP4 ISZERO ISZERO MUL OR SWAP1 SSTORE POP PUSH2 0x1E0F PUSH2 0x1A90 JUMP JUMPDEST PUSH20 0xFFFFFFFFFFFFFFFFFFFFFFFFFFFFFFFFFFFFFFFF AND DUP4 PUSH20 0xFFFFFFFFFFFFFFFFFFFFFFFFFFFFFFFFFFFFFFFF AND DUP6 PUSH32 0xF6391F5C32D9C69D2A47EA670B442974B53935D1EDC7FD64EB21E047A839171B PUSH1 0x40 MLOAD PUSH1 0x40 MLOAD DUP1 SWAP2 SUB SWAP1 LOG4 PUSH1 0x1 SWAP2 POP POP PUSH2 0x1E78 JUMP JUMPDEST PUSH0 SWAP2 POP POP JUMPDEST SWAP3 SWAP2 POP POP JUMP JUMPDEST PUSH2 0x1E86 PUSH2 0x2886 JUMP JUMPDEST PUSH0 PUSH2 0x1E8F PUSH2 0x225C JUMP JUMPDEST SWAP1 POP PUSH0 DUP2 PUSH0 ADD PUSH0 PUSH2 0x100 EXP DUP2 SLOAD DUP2 PUSH1 0xFF MUL NOT AND SWAP1 DUP4 ISZERO ISZERO MUL OR SWAP1 SSTORE POP PUSH32 0x5DB9EE0A495BF2E6FF9C91A7834C1BA4FDD244A5E8AA4E537BD38AEAE4B073AA PUSH2 0x1ED4 PUSH2 0x1A90 JUMP JUMPDEST PUSH1 0x40 MLOAD PUSH2 0x1EE1 SWAP2 SWAP1 PUSH2 0x36EC JUMP JUMPDEST PUSH1 0x40 MLOAD DUP1 SWAP2 SUB SWAP1 LOG1 POP JUMP JUMPDEST PUSH0 PUSH20 0xFFFFFFFFFFFFFFFFFFFFFFFFFFFFFFFFFFFFFFFF AND DUP3 PUSH20 0xFFFFFFFFFFFFFFFFFFFFFFFFFFFFFFFFFFFFFFFF AND SUB PUSH2 0x1F5C JUMPI PUSH0 PUSH1 0x40 MLOAD PUSH32 0xEC442F0500000000000000000000000000000000000000000000000000000000 DUP2 MSTORE PUSH1 0x4 ADD PUSH2 0x1F53 SWAP2 SWAP1 PUSH2 0x36EC JUMP JUMPDEST PUSH1 0x40 MLOAD DUP1 SWAP2 SUB SWAP1 REVERT JUMPDEST PUSH2 0x1F67 PUSH0 DUP4 DUP4 PUSH2 0x25E1 JUMP JUMPDEST POP POP JUMP JUMPDEST PUSH0 PUSH0 PUSH2 0x1F75 PUSH2 0x28C6 JUMP JUMPDEST SWAP1 POP DUP1 SWAP2 POP POP SWAP1 JUMP JUMPDEST PUSH2 0x1F86 PUSH2 0x28EF JUMP JUMPDEST PUSH2 0x1F90 DUP3 DUP3 PUSH2 0x292F JUMP JUMPDEST POP POP JUMP JUMPDEST PUSH2 0x1F9C PUSH2 0x28EF JUMP JUMPDEST JUMP JUMPDEST PUSH2 0x1FA6 PUSH2 0x28EF JUMP JUMPDEST PUSH2 0x1FAF DUP2 PUSH2 0x296B JUMP JUMPDEST POP JUMP JUMPDEST PUSH2 0x1FBA PUSH2 0x28EF JUMP JUMPDEST JUMP JUMPDEST PUSH2 0x1FC4 PUSH2 0x28EF JUMP JUMPDEST JUMP JUMPDEST PUSH32 0x0 PUSH20 0xFFFFFFFFFFFFFFFFFFFFFFFFFFFFFFFFFFFFFFFF AND ADDRESS PUSH20 0xFFFFFFFFFFFFFFFFFFFFFFFFFFFFFFFFFFFFFFFF AND EQ DUP1 PUSH2 0x2073 JUMPI POP PUSH32 0x0 PUSH20 0xFFFFFFFFFFFFFFFFFFFFFFFFFFFFFFFFFFFFFFFF AND PUSH2 0x205A PUSH2 0x29EF JUMP JUMPDEST PUSH20 0xFFFFFFFFFFFFFFFFFFFFFFFFFFFFFFFFFFFFFFFF AND EQ ISZERO JUMPDEST ISZERO PUSH2 0x20AA JUMPI PUSH1 0x40 MLOAD PUSH32 0xE07C8DBA00000000000000000000000000000000000000000000000000000000 DUP2 MSTORE PUSH1 0x4 ADD PUSH1 0x40 MLOAD DUP1 SWAP2 SUB SWAP1 REVERT JUMPDEST JUMP JUMPDEST PUSH2 0x20B4 PUSH2 0x2283 JUMP JUMPDEST POP JUMP JUMPDEST DUP2 PUSH20 0xFFFFFFFFFFFFFFFFFFFFFFFFFFFFFFFFFFFFFFFF AND PUSH4 0x52D1902D PUSH1 0x40 MLOAD DUP2 PUSH4 0xFFFFFFFF AND PUSH1 0xE0 SHL DUP2 MSTORE PUSH1 0x4 ADD PUSH1 0x20 PUSH1 0x40 MLOAD DUP1 DUP4 SUB DUP2 DUP7 GAS STATICCALL SWAP3 POP POP POP DUP1 ISZERO PUSH2 0x211F JUMPI POP PUSH1 0x40 MLOAD RETURNDATASIZE PUSH1 0x1F NOT PUSH1 0x1F DUP3 ADD AND DUP3 ADD DUP1 PUSH1 0x40 MSTORE POP DUP2 ADD SWAP1 PUSH2 0x211C SWAP2 SWAP1 PUSH2 0x3C7C JUMP JUMPDEST PUSH1 0x1 JUMPDEST PUSH2 0x2160 JUMPI DUP2 PUSH1 0x40 MLOAD PUSH32 0x4C9C8CE300000000000000000000000000000000000000000000000000000000 DUP2 MSTORE PUSH1 0x4 ADD PUSH2 0x2157 SWAP2 SWAP1 PUSH2 0x36EC JUMP JUMPDEST PUSH1 0x40 MLOAD DUP1 SWAP2 SUB SWAP1 REVERT JUMPDEST PUSH32 0x360894A13BA1A3210667C828492DB98DCA3E2076CC3735A920A3CA505D382BBC PUSH0 SHL DUP2 EQ PUSH2 0x21C6 JUMPI DUP1 PUSH1 0x40 MLOAD PUSH32 0xAA1D49A400000000000000000000000000000000000000000000000000000000 DUP2 MSTORE PUSH1 0x4 ADD PUSH2 0x21BD SWAP2 SWAP1 PUSH2 0x3149 JUMP JUMPDEST PUSH1 0x40 MLOAD DUP1 SWAP2 SUB SWAP1 REVERT JUMPDEST PUSH2 0x21D0 DUP4 DUP4 PUSH2 0x2A42 JUMP JUMPDEST POP POP POP JUMP JUMPDEST PUSH32 0x0 PUSH20 0xFFFFFFFFFFFFFFFFFFFFFFFFFFFFFFFFFFFFFFFF AND ADDRESS PUSH20 0xFFFFFFFFFFFFFFFFFFFFFFFFFFFFFFFFFFFFFFFF AND EQ PUSH2 0x225A JUMPI PUSH1 0x40 MLOAD PUSH32 0xE07C8DBA00000000000000000000000000000000000000000000000000000000 DUP2 MSTORE PUSH1 0x4 ADD PUSH1 0x40 MLOAD DUP1 SWAP2 SUB SWAP1 REVERT JUMPDEST JUMP JUMPDEST PUSH0 PUSH32 0xCD5ED15C6E187E77E9AEE88184C21F4F2182AB5827CB3B7E07FBEDCD63F03300 SWAP1 POP SWAP1 JUMP JUMPDEST PUSH2 0x228B PUSH2 0x1A90 JUMP JUMPDEST PUSH20 0xFFFFFFFFFFFFFFFFFFFFFFFFFFFFFFFFFFFFFFFF AND PUSH2 0x22A9 PUSH2 0x136A JUMP JUMPDEST PUSH20 0xFFFFFFFFFFFFFFFFFFFFFFFFFFFFFFFFFFFFFFFF AND EQ PUSH2 0x2308 JUMPI PUSH2 0x22CC PUSH2 0x1A90 JUMP JUMPDEST PUSH1 0x40 MLOAD PUSH32 0x118CDAA700000000000000000000000000000000000000000000000000000000 DUP2 MSTORE PUSH1 0x4 ADD PUSH2 0x22FF SWAP2 SWAP1 PUSH2 0x36EC JUMP JUMPDEST PUSH1 0x40 MLOAD DUP1 SWAP2 SUB SWAP1 REVERT JUMPDEST JUMP JUMPDEST PUSH0 PUSH2 0x2313 PUSH2 0x23DD JUMP JUMPDEST SWAP1 POP DUP1 PUSH0 ADD PUSH0 PUSH2 0x100 EXP DUP2 SLOAD SWAP1 PUSH20 0xFFFFFFFFFFFFFFFFFFFFFFFFFFFFFFFFFFFFFFFF MUL NOT AND SWAP1 SSTORE PUSH2 0x2343 DUP3 PUSH2 0x2AB4 JUMP JUMPDEST POP POP JUMP JUMPDEST PUSH2 0x234F PUSH2 0x2B85 JUMP JUMPDEST PUSH0 PUSH2 0x2358 PUSH2 0x225C JUMP JUMPDEST SWAP1 POP PUSH1 0x1 DUP2 PUSH0 ADD PUSH0 PUSH2 0x100 EXP DUP2 SLOAD DUP2 PUSH1 0xFF MUL NOT AND SWAP1 DUP4 ISZERO ISZERO MUL OR SWAP1 SSTORE POP PUSH32 0x62E78CEA01BEE320CD4E420270B5EA74000D11B0C9F74754EBDBFC544B05A258 PUSH2 0x239E PUSH2 0x1A90 JUMP JUMPDEST PUSH1 0x40 MLOAD PUSH2 0x23AB SWAP2 SWAP1 PUSH2 0x36EC JUMP JUMPDEST PUSH1 0x40 MLOAD DUP1 SWAP2 SUB SWAP1 LOG1 POP JUMP JUMPDEST PUSH0 PUSH32 0x9016D09D72D40FDAE2FD8CEAC6B6234C7706214FD39C1CD1E609A0528C199300 SWAP1 POP SWAP1 JUMP JUMPDEST PUSH0 PUSH32 0x237E158222E3E6968B72B9DB0D8043AACF074AD9F650F0D1606B4D82EE432C00 SWAP1 POP SWAP1 JUMP JUMPDEST PUSH0 PUSH2 0x240D PUSH2 0x1AA9 JUMP JUMPDEST SWAP1 POP PUSH0 PUSH20 0xFFFFFFFFFFFFFFFFFFFFFFFFFFFFFFFFFFFFFFFF AND DUP6 PUSH20 0xFFFFFFFFFFFFFFFFFFFFFFFFFFFFFFFFFFFFFFFF AND SUB PUSH2 0x247F JUMPI PUSH0 PUSH1 0x40 MLOAD PUSH32 0xE602DF0500000000000000000000000000000000000000000000000000000000 DUP2 MSTORE PUSH1 0x4 ADD PUSH2 0x2476 SWAP2 SWAP1 PUSH2 0x36EC JUMP JUMPDEST PUSH1 0x40 MLOAD DUP1 SWAP2 SUB SWAP1 REVERT JUMPDEST PUSH0 PUSH20 0xFFFFFFFFFFFFFFFFFFFFFFFFFFFFFFFFFFFFFFFF AND DUP5 PUSH20 0xFFFFFFFFFFFFFFFFFFFFFFFFFFFFFFFFFFFFFFFF AND SUB PUSH2 0x24EF JUMPI PUSH0 PUSH1 0x40 MLOAD PUSH32 0x94280D6200000000000000000000000000000000000000000000000000000000 DUP2 MSTORE PUSH1 0x4 ADD PUSH2 0x24E6 SWAP2 SWAP1 PUSH2 0x36EC JUMP JUMPDEST PUSH1 0x40 MLOAD DUP1 SWAP2 SUB SWAP1 REVERT JUMPDEST DUP3 DUP2 PUSH1 0x1 ADD PUSH0 DUP8 PUSH20 0xFFFFFFFFFFFFFFFFFFFFFFFFFFFFFFFFFFFFFFFF AND PUSH20 0xFFFFFFFFFFFFFFFFFFFFFFFFFFFFFFFFFFFFFFFF AND DUP2 MSTORE PUSH1 0x20 ADD SWAP1 DUP2 MSTORE PUSH1 0x20 ADD PUSH0 KECCAK256 PUSH0 DUP7 PUSH20 0xFFFFFFFFFFFFFFFFFFFFFFFFFFFFFFFFFFFFFFFF AND PUSH20 0xFFFFFFFFFFFFFFFFFFFFFFFFFFFFFFFFFFFFFFFF AND DUP2 MSTORE PUSH1 0x20 ADD SWAP1 DUP2 MSTORE PUSH1 0x20 ADD PUSH0 KECCAK256 DUP2 SWAP1 SSTORE POP DUP2 ISZERO PUSH2 0x25DA JUMPI DUP4 PUSH20 0xFFFFFFFFFFFFFFFFFFFFFFFFFFFFFFFFFFFFFFFF AND DUP6 PUSH20 0xFFFFFFFFFFFFFFFFFFFFFFFFFFFFFFFFFFFFFFFF AND PUSH32 0x8C5BE1E5EBEC7D5BD14F71427D1E84F3DD0314C0F7B2291E5B200AC8C7C3B925 DUP6 PUSH1 0x40 MLOAD PUSH2 0x25D1 SWAP2 SWAP1 PUSH2 0x32CC JUMP JUMPDEST PUSH1 0x40 MLOAD DUP1 SWAP2 SUB SWAP1 LOG3 JUMPDEST POP POP POP POP POP JUMP JUMPDEST PUSH1 0x2 PUSH0 DUP5 PUSH20 0xFFFFFFFFFFFFFFFFFFFFFFFFFFFFFFFFFFFFFFFF AND PUSH20 0xFFFFFFFFFFFFFFFFFFFFFFFFFFFFFFFFFFFFFFFF AND DUP2 MSTORE PUSH1 0x20 ADD SWAP1 DUP2 MSTORE PUSH1 0x20 ADD PUSH0 KECCAK256 PUSH0 SWAP1 SLOAD SWAP1 PUSH2 0x100 EXP SWAP1 DIV PUSH1 0xFF AND ISZERO DUP1 ISZERO PUSH2 0x267F JUMPI POP PUSH1 0x2 PUSH0 DUP4 PUSH20 0xFFFFFFFFFFFFFFFFFFFFFFFFFFFFFFFFFFFFFFFF AND PUSH20 0xFFFFFFFFFFFFFFFFFFFFFFFFFFFFFFFFFFFFFFFF AND DUP2 MSTORE PUSH1 0x20 ADD SWAP1 DUP2 MSTORE PUSH1 0x20 ADD PUSH0 KECCAK256 PUSH0 SWAP1 SLOAD SWAP1 PUSH2 0x100 EXP SWAP1 DIV PUSH1 0xFF AND ISZERO JUMPDEST PUSH2 0x26BE JUMPI PUSH1 0x40 MLOAD PUSH32 0x8C379A000000000000000000000000000000000000000000000000000000000 DUP2 MSTORE PUSH1 0x4 ADD PUSH2 0x26B5 SWAP1 PUSH2 0x3CF1 JUMP JUMPDEST PUSH1 0x40 MLOAD DUP1 SWAP2 SUB SWAP1 REVERT JUMPDEST PUSH1 0x3 PUSH0 SWAP1 SLOAD SWAP1 PUSH2 0x100 EXP SWAP1 DIV PUSH1 0xFF AND DUP1 ISZERO PUSH2 0x2705 JUMPI POP PUSH0 PUSH20 0xFFFFFFFFFFFFFFFFFFFFFFFFFFFFFFFFFFFFFFFF AND DUP4 PUSH20 0xFFFFFFFFFFFFFFFFFFFFFFFFFFFFFFFFFFFFFFFF AND EQ ISZERO JUMPDEST DUP1 ISZERO PUSH2 0x273D JUMPI POP PUSH0 PUSH20 0xFFFFFFFFFFFFFFFFFFFFFFFFFFFFFFFFFFFFFFFF AND DUP3 PUSH20 0xFFFFFFFFFFFFFFFFFFFFFFFFFFFFFFFFFFFFFFFF AND EQ ISZERO JUMPDEST ISZERO PUSH2 0x2825 JUMPI PUSH2 0x276C PUSH32 0xFACAF2747A7486CF5730E9265973FB54447D3ACE6E7E4711F6360826B0731941 DUP5 PUSH2 0x139F JUMP JUMPDEST PUSH2 0x27AB JUMPI PUSH1 0x40 MLOAD PUSH32 0x8C379A000000000000000000000000000000000000000000000000000000000 DUP2 MSTORE PUSH1 0x4 ADD PUSH2 0x27A2 SWAP1 PUSH2 0x3D59 JUMP JUMPDEST PUSH1 0x40 MLOAD DUP1 SWAP2 SUB SWAP1 REVERT JUMPDEST PUSH2 0x27D5 PUSH32 0xFACAF2747A7486CF5730E9265973FB54447D3ACE6E7E4711F6360826B0731941 DUP4 PUSH2 0x139F JUMP JUMPDEST PUSH2 0x2824 JUMPI PUSH0 PUSH2 0x27E3 DUP4 PUSH2 0x1241 JUMP JUMPDEST EQ PUSH2 0x2823 JUMPI PUSH1 0x40 MLOAD PUSH32 0x8C379A000000000000000000000000000000000000000000000000000000000 DUP2 MSTORE PUSH1 0x4 ADD PUSH2 0x281A SWAP1 PUSH2 0x3DE7 JUMP JUMPDEST PUSH1 0x40 MLOAD DUP1 SWAP2 SUB SWAP1 REVERT JUMPDEST JUMPDEST JUMPDEST PUSH2 0x2830 DUP4 DUP4 DUP4 PUSH2 0x2BC6 JUMP JUMPDEST POP POP POP JUMP JUMPDEST PUSH2 0x283F DUP3 DUP3 PUSH2 0x139F JUMP JUMPDEST PUSH2 0x2882 JUMPI DUP1 DUP3 PUSH1 0x40 MLOAD PUSH32 0xE2517D3F00000000000000000000000000000000000000000000000000000000 DUP2 MSTORE PUSH1 0x4 ADD PUSH2 0x2879 SWAP3 SWAP2 SWAP1 PUSH2 0x3E05 JUMP JUMPDEST PUSH1 0x40 MLOAD DUP1 SWAP2 SUB SWAP1 REVERT JUMPDEST POP POP JUMP JUMPDEST PUSH2 0x288E PUSH2 0xF93 JUMP JUMPDEST PUSH2 0x28C4 JUMPI PUSH1 0x40 MLOAD PUSH32 0x8DFC202B00000000000000000000000000000000000000000000000000000000 DUP2 MSTORE PUSH1 0x4 ADD PUSH1 0x40 MLOAD DUP1 SWAP2 SUB SWAP1 REVERT JUMPDEST JUMP JUMPDEST PUSH0 PUSH32 0xF0C57E16840DF040F15088DC2F81FE391C3923BEC73E23A9662EFC9C229C6A00 PUSH0 SHL SWAP1 POP SWAP1 JUMP JUMPDEST PUSH2 0x28F7 PUSH2 0x2BDE JUMP JUMPDEST PUSH2 0x292D JUMPI PUSH1 0x40 MLOAD PUSH32 0xD7E6BCF800000000000000000000000000000000000000000000000000000000 DUP2 MSTORE PUSH1 0x4 ADD PUSH1 0x40 MLOAD DUP1 SWAP2 SUB SWAP1 REVERT JUMPDEST JUMP JUMPDEST PUSH2 0x2937 PUSH2 0x28EF JUMP JUMPDEST PUSH0 PUSH2 0x2940 PUSH2 0x1AA9 JUMP JUMPDEST SWAP1 POP DUP3 DUP2 PUSH1 0x3 ADD SWAP1 DUP2 PUSH2 0x2953 SWAP2 SWAP1 PUSH2 0x3E2C JUMP JUMPDEST POP DUP2 DUP2 PUSH1 0x4 ADD SWAP1 DUP2 PUSH2 0x2965 SWAP2 SWAP1 PUSH2 0x3E2C JUMP JUMPDEST POP POP POP POP JUMP JUMPDEST PUSH2 0x2973 PUSH2 0x28EF JUMP JUMPDEST PUSH0 PUSH20 0xFFFFFFFFFFFFFFFFFFFFFFFFFFFFFFFFFFFFFFFF AND DUP2 PUSH20 0xFFFFFFFFFFFFFFFFFFFFFFFFFFFFFFFFFFFFFFFF AND SUB PUSH2 0x29E3 JUMPI PUSH0 PUSH1 0x40 MLOAD PUSH32 0x1E4FBDF700000000000000000000000000000000000000000000000000000000 DUP2 MSTORE PUSH1 0x4 ADD PUSH2 0x29DA SWAP2 SWAP1 PUSH2 0x36EC JUMP JUMPDEST PUSH1 0x40 MLOAD DUP1 SWAP2 SUB SWAP1 REVERT JUMPDEST PUSH2 0x29EC DUP2 PUSH2 0x230A JUMP JUMPDEST POP JUMP JUMPDEST PUSH0 PUSH2 0x2A1B PUSH32 0x360894A13BA1A3210667C828492DB98DCA3E2076CC3735A920A3CA505D382BBC PUSH0 SHL PUSH2 0x2BFC JUMP JUMPDEST PUSH0 ADD PUSH0 SWAP1 SLOAD SWAP1 PUSH2 0x100 EXP SWAP1 DIV PUSH20 0xFFFFFFFFFFFFFFFFFFFFFFFFFFFFFFFFFFFFFFFF AND SWAP1 POP SWAP1 JUMP JUMPDEST PUSH2 0x2A4B DUP3 PUSH2 0x2C05 JUMP JUMPDEST DUP2 PUSH20 0xFFFFFFFFFFFFFFFFFFFFFFFFFFFFFFFFFFFFFFFF AND PUSH32 0xBC7CD75A20EE27FD9ADEBAB32041F755214DBC6BFFA90CC0225B39DA2E5C2D3B PUSH1 0x40 MLOAD PUSH1 0x40 MLOAD DUP1 SWAP2 SUB SWAP1 LOG2 PUSH0 DUP2 MLOAD GT ISZERO PUSH2 0x2AA7 JUMPI PUSH2 0x2AA1 DUP3 DUP3 PUSH2 0x2CCE JUMP JUMPDEST POP PUSH2 0x2AB0 JUMP JUMPDEST PUSH2 0x2AAF PUSH2 0x2DBF JUMP JUMPDEST JUMPDEST POP POP JUMP JUMPDEST PUSH0 PUSH2 0x2ABD PUSH2 0x23B6 JUMP JUMPDEST SWAP1 POP PUSH0 DUP2 PUSH0 ADD PUSH0 SWAP1 SLOAD SWAP1 PUSH2 0x100 EXP SWAP1 DIV PUSH20 0xFFFFFFFFFFFFFFFFFFFFFFFFFFFFFFFFFFFFFFFF AND SWAP1 POP DUP3 DUP3 PUSH0 ADD PUSH0 PUSH2 0x100 EXP DUP2 SLOAD DUP2 PUSH20 0xFFFFFFFFFFFFFFFFFFFFFFFFFFFFFFFFFFFFFFFF MUL NOT AND SWAP1 DUP4 PUSH20 0xFFFFFFFFFFFFFFFFFFFFFFFFFFFFFFFFFFFFFFFF AND MUL OR SWAP1 SSTORE POP DUP3 PUSH20 0xFFFFFFFFFFFFFFFFFFFFFFFFFFFFFFFFFFFFFFFF AND DUP2 PUSH20 0xFFFFFFFFFFFFFFFFFFFFFFFFFFFFFFFFFFFFFFFF AND PUSH32 0x8BE0079C531659141344CD1FD0A4F28419497F9722A3DAAFE3B4186F6B6457E0 PUSH1 0x40 MLOAD PUSH1 0x40 MLOAD DUP1 SWAP2 SUB SWAP1 LOG3 POP POP POP JUMP JUMPDEST PUSH2 0x2B8D PUSH2 0xF93 JUMP JUMPDEST ISZERO PUSH2 0x2BC4 JUMPI PUSH1 0x40 MLOAD PUSH32 0xD93C066500000000000000000000000000000000000000000000000000000000 DUP2 MSTORE PUSH1 0x4 ADD PUSH1 0x40 MLOAD DUP1 SWAP2 SUB SWAP1 REVERT JUMPDEST JUMP JUMPDEST PUSH2 0x2BCE PUSH2 0x2B85 JUMP JUMPDEST PUSH2 0x2BD9 DUP4 DUP4 DUP4 PUSH2 0x2DFB JUMP JUMPDEST POP POP POP JUMP JUMPDEST PUSH0 PUSH2 0x2BE7 PUSH2 0x1F6B JUMP JUMPDEST PUSH0 ADD PUSH1 0x8 SWAP1 SLOAD SWAP1 PUSH2 0x100 EXP SWAP1 DIV PUSH1 0xFF AND SWAP1 POP SWAP1 JUMP JUMPDEST PUSH0 DUP2 SWAP1 POP SWAP2 SWAP1 POP JUMP JUMPDEST PUSH0 DUP2 PUSH20 0xFFFFFFFFFFFFFFFFFFFFFFFFFFFFFFFFFFFFFFFF AND EXTCODESIZE SUB PUSH2 0x2C60 JUMPI DUP1 PUSH1 0x40 MLOAD PUSH32 0x4C9C8CE300000000000000000000000000000000000000000000000000000000 DUP2 MSTORE PUSH1 0x4 ADD PUSH2 0x2C57 SWAP2 SWAP1 PUSH2 0x36EC JUMP JUMPDEST PUSH1 0x40 MLOAD DUP1 SWAP2 SUB SWAP1 REVERT JUMPDEST DUP1 PUSH2 0x2C8C PUSH32 0x360894A13BA1A3210667C828492DB98DCA3E2076CC3735A920A3CA505D382BBC PUSH0 SHL PUSH2 0x2BFC JUMP JUMPDEST PUSH0 ADD PUSH0 PUSH2 0x100 EXP DUP2 SLOAD DUP2 PUSH20 0xFFFFFFFFFFFFFFFFFFFFFFFFFFFFFFFFFFFFFFFF MUL NOT AND SWAP1 DUP4 PUSH20 0xFFFFFFFFFFFFFFFFFFFFFFFFFFFFFFFFFFFFFFFF AND MUL OR SWAP1 SSTORE POP POP JUMP JUMPDEST PUSH1 0x60 PUSH0 PUSH2 0x2CDB DUP5 DUP5 PUSH2 0x302A JUMP JUMPDEST SWAP1 POP DUP1 DUP1 ISZERO PUSH2 0x2D11 JUMPI POP PUSH0 PUSH2 0x2CEE PUSH2 0x303E JUMP JUMPDEST GT DUP1 PUSH2 0x2D10 JUMPI POP PUSH0 DUP5 PUSH20 0xFFFFFFFFFFFFFFFFFFFFFFFFFFFFFFFFFFFFFFFF AND EXTCODESIZE GT JUMPDEST JUMPDEST ISZERO PUSH2 0x2D26 JUMPI PUSH2 0x2D1E PUSH2 0x3045 JUMP JUMPDEST SWAP2 POP POP PUSH2 0x2DB9 JUMP JUMPDEST DUP1 ISZERO PUSH2 0x2D69 JUMPI DUP4 PUSH1 0x40 MLOAD PUSH32 0x9996B31500000000000000000000000000000000000000000000000000000000 DUP2 MSTORE PUSH1 0x4 ADD PUSH2 0x2D60 SWAP2 SWAP1 PUSH2 0x36EC JUMP JUMPDEST PUSH1 0x40 MLOAD DUP1 SWAP2 SUB SWAP1 REVERT JUMPDEST PUSH0 PUSH2 0x2D72 PUSH2 0x303E JUMP JUMPDEST GT ISZERO PUSH2 0x2D85 JUMPI PUSH2 0x2D80 PUSH2 0x3062 JUMP JUMPDEST PUSH2 0x2DB7 JUMP JUMPDEST PUSH1 0x40 MLOAD PUSH32 0xD6BDA27500000000000000000000000000000000000000000000000000000000 DUP2 MSTORE PUSH1 0x4 ADD PUSH1 0x40 MLOAD DUP1 SWAP2 SUB SWAP1 REVERT JUMPDEST POP JUMPDEST SWAP3 SWAP2 POP POP JUMP JUMPDEST PUSH0 CALLVALUE GT ISZERO PUSH2 0x2DF9 JUMPI PUSH1 0x40 MLOAD PUSH32 0xB398979F00000000000000000000000000000000000000000000000000000000 DUP2 MSTORE PUSH1 0x4 ADD PUSH1 0x40 MLOAD DUP1 SWAP2 SUB SWAP1 REVERT JUMPDEST JUMP JUMPDEST PUSH0 PUSH2 0x2E04 PUSH2 0x1AA9 JUMP JUMPDEST SWAP1 POP PUSH0 PUSH20 0xFFFFFFFFFFFFFFFFFFFFFFFFFFFFFFFFFFFFFFFF AND DUP5 PUSH20 0xFFFFFFFFFFFFFFFFFFFFFFFFFFFFFFFFFFFFFFFF AND SUB PUSH2 0x2E58 JUMPI DUP2 DUP2 PUSH1 0x2 ADD PUSH0 DUP3 DUP3 SLOAD PUSH2 0x2E4C SWAP2 SWAP1 PUSH2 0x3F28 JUMP JUMPDEST SWAP3 POP POP DUP2 SWAP1 SSTORE POP PUSH2 0x2F2A JUMP JUMPDEST PUSH0 DUP2 PUSH0 ADD PUSH0 DUP7 PUSH20 0xFFFFFFFFFFFFFFFFFFFFFFFFFFFFFFFFFFFFFFFF AND PUSH20 0xFFFFFFFFFFFFFFFFFFFFFFFFFFFFFFFFFFFFFFFF AND DUP2 MSTORE PUSH1 0x20 ADD SWAP1 DUP2 MSTORE PUSH1 0x20 ADD PUSH0 KECCAK256 SLOAD SWAP1 POP DUP3 DUP2 LT ISZERO PUSH2 0x2EE3 JUMPI DUP5 DUP2 DUP5 PUSH1 0x40 MLOAD PUSH32 0xE450D38C00000000000000000000000000000000000000000000000000000000 DUP2 MSTORE PUSH1 0x4 ADD PUSH2 0x2EDA SWAP4 SWAP3 SWAP2 SWAP1 PUSH2 0x3C33 JUMP JUMPDEST PUSH1 0x40 MLOAD DUP1 SWAP2 SUB SWAP1 REVERT JUMPDEST DUP3 DUP2 SUB DUP3 PUSH0 ADD PUSH0 DUP8 PUSH20 0xFFFFFFFFFFFFFFFFFFFFFFFFFFFFFFFFFFFFFFFF AND PUSH20 0xFFFFFFFFFFFFFFFFFFFFFFFFFFFFFFFFFFFFFFFF AND DUP2 MSTORE PUSH1 0x20 ADD SWAP1 DUP2 MSTORE PUSH1 0x20 ADD PUSH0 KECCAK256 DUP2 SWAP1 SSTORE POP POP JUMPDEST PUSH0 PUSH20 0xFFFFFFFFFFFFFFFFFFFFFFFFFFFFFFFFFFFFFFFF AND DUP4 PUSH20 0xFFFFFFFFFFFFFFFFFFFFFFFFFFFFFFFFFFFFFFFF AND SUB PUSH2 0x2F73 JUMPI DUP2 DUP2 PUSH1 0x2 ADD PUSH0 DUP3 DUP3 SLOAD SUB SWAP3 POP POP DUP2 SWAP1 SSTORE POP PUSH2 0x2FBF JUMP JUMPDEST DUP2 DUP2 PUSH0 ADD PUSH0 DUP6 PUSH20 0xFFFFFFFFFFFFFFFFFFFFFFFFFFFFFFFFFFFFFFFF AND PUSH20 0xFFFFFFFFFFFFFFFFFFFFFFFFFFFFFFFFFFFFFFFF AND DUP2 MSTORE PUSH1 0x20 ADD SWAP1 DUP2 MSTORE PUSH1 0x20 ADD PUSH0 KECCAK256 PUSH0 DUP3 DUP3 SLOAD ADD SWAP3 POP POP DUP2 SWAP1 SSTORE POP JUMPDEST DUP3 PUSH20 0xFFFFFFFFFFFFFFFFFFFFFFFFFFFFFFFFFFFFFFFF AND DUP5 PUSH20 0xFFFFFFFFFFFFFFFFFFFFFFFFFFFFFFFFFFFFFFFF AND PUSH32 0xDDF252AD1BE2C89B69C2B068FC378DAA952BA7F163C4A11628F55A4DF523B3EF DUP5 PUSH1 0x40 MLOAD PUSH2 0x301C SWAP2 SWAP1 PUSH2 0x32CC JUMP JUMPDEST PUSH1 0x40 MLOAD DUP1 SWAP2 SUB SWAP1 LOG3 POP POP POP POP JUMP JUMPDEST PUSH0 PUSH0 PUSH0 DUP4 MLOAD PUSH1 0x20 DUP6 ADD DUP7 GAS DELEGATECALL SWAP1 POP SWAP3 SWAP2 POP POP JUMP JUMPDEST PUSH0 RETURNDATASIZE SWAP1 POP SWAP1 JUMP JUMPDEST PUSH1 0x60 PUSH1 0x40 MLOAD SWAP1 POP RETURNDATASIZE DUP2 MSTORE RETURNDATASIZE PUSH0 PUSH1 0x20 DUP4 ADD RETURNDATACOPY RETURNDATASIZE PUSH1 0x20 ADD DUP2 ADD PUSH1 0x40 MSTORE SWAP1 JUMP JUMPDEST PUSH1 0x40 MLOAD RETURNDATASIZE PUSH0 DUP3 RETURNDATACOPY RETURNDATASIZE DUP2 REVERT JUMPDEST PUSH0 PUSH1 0x40 MLOAD SWAP1 POP SWAP1 JUMP JUMPDEST PUSH0 PUSH0 REVERT JUMPDEST PUSH0 PUSH0 REVERT JUMPDEST PUSH0 PUSH32 0xFFFFFFFF00000000000000000000000000000000000000000000000000000000 DUP3 AND SWAP1 POP SWAP2 SWAP1 POP JUMP JUMPDEST PUSH2 0x30B2 DUP2 PUSH2 0x307E JUMP JUMPDEST DUP2 EQ PUSH2 0x30BC JUMPI PUSH0 PUSH0 REVERT JUMPDEST POP JUMP JUMPDEST PUSH0 DUP2 CALLDATALOAD SWAP1 POP PUSH2 0x30CD DUP2 PUSH2 0x30A9 JUMP JUMPDEST SWAP3 SWAP2 POP POP JUMP JUMPDEST PUSH0 PUSH1 0x20 DUP3 DUP5 SUB SLT ISZERO PUSH2 0x30E8 JUMPI PUSH2 0x30E7 PUSH2 0x3076 JUMP JUMPDEST JUMPDEST PUSH0 PUSH2 0x30F5 DUP5 DUP3 DUP6 ADD PUSH2 0x30BF JUMP JUMPDEST SWAP2 POP POP SWAP3 SWAP2 POP POP JUMP JUMPDEST PUSH0 DUP2 ISZERO ISZERO SWAP1 POP SWAP2 SWAP1 POP JUMP JUMPDEST PUSH2 0x3112 DUP2 PUSH2 0x30FE JUMP JUMPDEST DUP3 MSTORE POP POP JUMP JUMPDEST PUSH0 PUSH1 0x20 DUP3 ADD SWAP1 POP PUSH2 0x312B PUSH0 DUP4 ADD DUP5 PUSH2 0x3109 JUMP JUMPDEST SWAP3 SWAP2 POP POP JUMP JUMPDEST PUSH0 DUP2 SWAP1 POP SWAP2 SWAP1 POP JUMP JUMPDEST PUSH2 0x3143 DUP2 PUSH2 0x3131 JUMP JUMPDEST DUP3 MSTORE POP POP JUMP JUMPDEST PUSH0 PUSH1 0x20 DUP3 ADD SWAP1 POP PUSH2 0x315C PUSH0 DUP4 ADD DUP5 PUSH2 0x313A JUMP JUMPDEST SWAP3 SWAP2 POP POP JUMP JUMPDEST PUSH0 DUP2 MLOAD SWAP1 POP SWAP2 SWAP1 POP JUMP JUMPDEST PUSH0 DUP3 DUP3 MSTORE PUSH1 0x20 DUP3 ADD SWAP1 POP SWAP3 SWAP2 POP POP JUMP JUMPDEST DUP3 DUP2 DUP4 MCOPY PUSH0 DUP4 DUP4 ADD MSTORE POP POP POP JUMP JUMPDEST PUSH0 PUSH1 0x1F NOT PUSH1 0x1F DUP4 ADD AND SWAP1 POP SWAP2 SWAP1 POP JUMP JUMPDEST PUSH0 PUSH2 0x31A4 DUP3 PUSH2 0x3162 JUMP JUMPDEST PUSH2 0x31AE DUP2 DUP6 PUSH2 0x316C JUMP JUMPDEST SWAP4 POP PUSH2 0x31BE DUP2 DUP6 PUSH1 0x20 DUP7 ADD PUSH2 0x317C JUMP JUMPDEST PUSH2 0x31C7 DUP2 PUSH2 0x318A JUMP JUMPDEST DUP5 ADD SWAP2 POP POP SWAP3 SWAP2 POP POP JUMP JUMPDEST PUSH0 PUSH1 0x20 DUP3 ADD SWAP1 POP DUP2 DUP2 SUB PUSH0 DUP4 ADD MSTORE PUSH2 0x31EA DUP2 DUP5 PUSH2 0x319A JUMP JUMPDEST SWAP1 POP SWAP3 SWAP2 POP POP JUMP JUMPDEST PUSH0 PUSH20 0xFFFFFFFFFFFFFFFFFFFFFFFFFFFFFFFFFFFFFFFF DUP3 AND SWAP1 POP SWAP2 SWAP1 POP JUMP JUMPDEST PUSH0 PUSH2 0x321B DUP3 PUSH2 0x31F2 JUMP JUMPDEST SWAP1 POP SWAP2 SWAP1 POP JUMP JUMPDEST PUSH2 0x322B DUP2 PUSH2 0x3211 JUMP JUMPDEST DUP2 EQ PUSH2 0x3235 JUMPI PUSH0 PUSH0 REVERT JUMPDEST POP JUMP JUMPDEST PUSH0 DUP2 CALLDATALOAD SWAP1 POP PUSH2 0x3246 DUP2 PUSH2 0x3222 JUMP JUMPDEST SWAP3 SWAP2 POP POP JUMP JUMPDEST PUSH0 DUP2 SWAP1 POP SWAP2 SWAP1 POP JUMP JUMPDEST PUSH2 0x325E DUP2 PUSH2 0x324C JUMP JUMPDEST DUP2 EQ PUSH2 0x3268 JUMPI PUSH0 PUSH0 REVERT JUMPDEST POP JUMP JUMPDEST PUSH0 DUP2 CALLDATALOAD SWAP1 POP PUSH2 0x3279 DUP2 PUSH2 0x3255 JUMP JUMPDEST SWAP3 SWAP2 POP POP JUMP JUMPDEST PUSH0 PUSH0 PUSH1 0x40 DUP4 DUP6 SUB SLT ISZERO PUSH2 0x3295 JUMPI PUSH2 0x3294 PUSH2 0x3076 JUMP JUMPDEST JUMPDEST PUSH0 PUSH2 0x32A2 DUP6 DUP3 DUP7 ADD PUSH2 0x3238 JUMP JUMPDEST SWAP3 POP POP PUSH1 0x20 PUSH2 0x32B3 DUP6 DUP3 DUP7 ADD PUSH2 0x326B JUMP JUMPDEST SWAP2 POP POP SWAP3 POP SWAP3 SWAP1 POP JUMP JUMPDEST PUSH2 0x32C6 DUP2 PUSH2 0x324C JUMP JUMPDEST DUP3 MSTORE POP POP JUMP JUMPDEST PUSH0 PUSH1 0x20 DUP3 ADD SWAP1 POP PUSH2 0x32DF PUSH0 DUP4 ADD DUP5 PUSH2 0x32BD JUMP JUMPDEST SWAP3 SWAP2 POP POP JUMP JUMPDEST PUSH0 PUSH0 PUSH0 PUSH1 0x60 DUP5 DUP7 SUB SLT ISZERO PUSH2 0x32FC JUMPI PUSH2 0x32FB PUSH2 0x3076 JUMP JUMPDEST JUMPDEST PUSH0 PUSH2 0x3309 DUP7 DUP3 DUP8 ADD PUSH2 0x3238 JUMP JUMPDEST SWAP4 POP POP PUSH1 0x20 PUSH2 0x331A DUP7 DUP3 DUP8 ADD PUSH2 0x3238 JUMP JUMPDEST SWAP3 POP POP PUSH1 0x40 PUSH2 0x332B DUP7 DUP3 DUP8 ADD PUSH2 0x326B JUMP JUMPDEST SWAP2 POP POP SWAP3 POP SWAP3 POP SWAP3 JUMP JUMPDEST PUSH2 0x333E DUP2 PUSH2 0x3131 JUMP JUMPDEST DUP2 EQ PUSH2 0x3348 JUMPI PUSH0 PUSH0 REVERT JUMPDEST POP JUMP JUMPDEST PUSH0 DUP2 CALLDATALOAD SWAP1 POP PUSH2 0x3359 DUP2 PUSH2 0x3335 JUMP JUMPDEST SWAP3 SWAP2 POP POP JUMP JUMPDEST PUSH0 PUSH1 0x20 DUP3 DUP5 SUB SLT ISZERO PUSH2 0x3374 JUMPI PUSH2 0x3373 PUSH2 0x3076 JUMP JUMPDEST JUMPDEST PUSH0 PUSH2 0x3381 DUP5 DUP3 DUP6 ADD PUSH2 0x334B JUMP JUMPDEST SWAP2 POP POP SWAP3 SWAP2 POP POP JUMP JUMPDEST PUSH2 0x3393 DUP2 PUSH2 0x30FE JUMP JUMPDEST DUP2 EQ PUSH2 0x339D JUMPI PUSH0 PUSH0 REVERT JUMPDEST POP JUMP JUMPDEST PUSH0 DUP2 CALLDATALOAD SWAP1 POP PUSH2 0x33AE DUP2 PUSH2 0x338A JUMP JUMPDEST SWAP3 SWAP2 POP POP JUMP JUMPDEST PUSH0 PUSH1 0x20 DUP3 DUP5 SUB SLT ISZERO PUSH2 0x33C9 JUMPI PUSH2 0x33C8 PUSH2 0x3076 JUMP JUMPDEST JUMPDEST PUSH0 PUSH2 0x33D6 DUP5 DUP3 DUP6 ADD PUSH2 0x33A0 JUMP JUMPDEST SWAP2 POP POP SWAP3 SWAP2 POP POP JUMP JUMPDEST PUSH0 PUSH0 PUSH1 0x40 DUP4 DUP6 SUB SLT ISZERO PUSH2 0x33F5 JUMPI PUSH2 0x33F4 PUSH2 0x3076 JUMP JUMPDEST JUMPDEST PUSH0 PUSH2 0x3402 DUP6 DUP3 DUP7 ADD PUSH2 0x334B JUMP JUMPDEST SWAP3 POP POP PUSH1 0x20 PUSH2 0x3413 DUP6 DUP3 DUP7 ADD PUSH2 0x3238 JUMP JUMPDEST SWAP2 POP POP SWAP3 POP SWAP3 SWAP1 POP JUMP JUMPDEST PUSH0 PUSH1 0xFF DUP3 AND SWAP1 POP SWAP2 SWAP1 POP JUMP JUMPDEST PUSH2 0x3432 DUP2 PUSH2 0x341D JUMP JUMPDEST DUP3 MSTORE POP POP JUMP JUMPDEST PUSH0 PUSH1 0x20 DUP3 ADD SWAP1 POP PUSH2 0x344B PUSH0 DUP4 ADD DUP5 PUSH2 0x3429 JUMP JUMPDEST SWAP3 SWAP2 POP POP JUMP JUMPDEST PUSH0 PUSH0 REVERT JUMPDEST PUSH0 PUSH0 REVERT JUMPDEST PUSH0 PUSH0 REVERT JUMPDEST PUSH0 PUSH0 DUP4 PUSH1 0x1F DUP5 ADD SLT PUSH2 0x3472 JUMPI PUSH2 0x3471 PUSH2 0x3451 JUMP JUMPDEST JUMPDEST DUP3 CALLDATALOAD SWAP1 POP PUSH8 0xFFFFFFFFFFFFFFFF DUP2 GT ISZERO PUSH2 0x348F JUMPI PUSH2 0x348E PUSH2 0x3455 JUMP JUMPDEST JUMPDEST PUSH1 0x20 DUP4 ADD SWAP2 POP DUP4 PUSH1 0x1 DUP3 MUL DUP4 ADD GT ISZERO PUSH2 0x34AB JUMPI PUSH2 0x34AA PUSH2 0x3459 JUMP JUMPDEST JUMPDEST SWAP3 POP SWAP3 SWAP1 POP JUMP JUMPDEST PUSH0 PUSH0 PUSH0 PUSH0 PUSH1 0x40 DUP6 DUP8 SUB SLT ISZERO PUSH2 0x34CA JUMPI PUSH2 0x34C9 PUSH2 0x3076 JUMP JUMPDEST JUMPDEST PUSH0 DUP6 ADD CALLDATALOAD PUSH8 0xFFFFFFFFFFFFFFFF DUP2 GT ISZERO PUSH2 0x34E7 JUMPI PUSH2 0x34E6 PUSH2 0x307A JUMP JUMPDEST JUMPDEST PUSH2 0x34F3 DUP8 DUP3 DUP9 ADD PUSH2 0x345D JUMP JUMPDEST SWAP5 POP SWAP5 POP POP PUSH1 0x20 DUP6 ADD CALLDATALOAD PUSH8 0xFFFFFFFFFFFFFFFF DUP2 GT ISZERO PUSH2 0x3516 JUMPI PUSH2 0x3515 PUSH2 0x307A JUMP JUMPDEST JUMPDEST PUSH2 0x3522 DUP8 DUP3 DUP9 ADD PUSH2 0x345D JUMP JUMPDEST SWAP3 POP SWAP3 POP POP SWAP3 SWAP6 SWAP2 SWAP5 POP SWAP3 POP JUMP JUMPDEST PUSH0 PUSH0 REVERT JUMPDEST PUSH32 0x4E487B7100000000000000000000000000000000000000000000000000000000 PUSH0 MSTORE PUSH1 0x41 PUSH1 0x4 MSTORE PUSH1 0x24 PUSH0 REVERT JUMPDEST PUSH2 0x356A DUP3 PUSH2 0x318A JUMP JUMPDEST DUP2 ADD DUP2 DUP2 LT PUSH8 0xFFFFFFFFFFFFFFFF DUP3 GT OR ISZERO PUSH2 0x3589 JUMPI PUSH2 0x3588 PUSH2 0x3534 JUMP JUMPDEST JUMPDEST DUP1 PUSH1 0x40 MSTORE POP POP POP JUMP JUMPDEST PUSH0 PUSH2 0x359B PUSH2 0x306D JUMP JUMPDEST SWAP1 POP PUSH2 0x35A7 DUP3 DUP3 PUSH2 0x3561 JUMP JUMPDEST SWAP2 SWAP1 POP JUMP JUMPDEST PUSH0 PUSH8 0xFFFFFFFFFFFFFFFF DUP3 GT ISZERO PUSH2 0x35C6 JUMPI PUSH2 0x35C5 PUSH2 0x3534 JUMP JUMPDEST JUMPDEST PUSH2 0x35CF DUP3 PUSH2 0x318A JUMP JUMPDEST SWAP1 POP PUSH1 0x20 DUP2 ADD SWAP1 POP SWAP2 SWAP1 POP JUMP JUMPDEST DUP3 DUP2 DUP4 CALLDATACOPY PUSH0 DUP4 DUP4 ADD MSTORE POP POP POP JUMP JUMPDEST PUSH0 PUSH2 0x35FC PUSH2 0x35F7 DUP5 PUSH2 0x35AC JUMP JUMPDEST PUSH2 0x3592 JUMP JUMPDEST SWAP1 POP DUP3 DUP2 MSTORE PUSH1 0x20 DUP2 ADD DUP5 DUP5 DUP5 ADD GT ISZERO PUSH2 0x3618 JUMPI PUSH2 0x3617 PUSH2 0x3530 JUMP JUMPDEST JUMPDEST PUSH2 0x3623 DUP5 DUP3 DUP6 PUSH2 0x35DC JUMP JUMPDEST POP SWAP4 SWAP3 POP POP POP JUMP JUMPDEST PUSH0 DUP3 PUSH1 0x1F DUP4 ADD SLT PUSH2 0x363F JUMPI PUSH2 0x363E PUSH2 0x3451 JUMP JUMPDEST JUMPDEST DUP2 CALLDATALOAD PUSH2 0x364F DUP5 DUP3 PUSH1 0x20 DUP7 ADD PUSH2 0x35EA JUMP JUMPDEST SWAP2 POP POP SWAP3 SWAP2 POP POP JUMP JUMPDEST PUSH0 PUSH0 PUSH1 0x40 DUP4 DUP6 SUB SLT ISZERO PUSH2 0x366E JUMPI PUSH2 0x366D PUSH2 0x3076 JUMP JUMPDEST JUMPDEST PUSH0 PUSH2 0x367B DUP6 DUP3 DUP7 ADD PUSH2 0x3238 JUMP JUMPDEST SWAP3 POP POP PUSH1 0x20 DUP4 ADD CALLDATALOAD PUSH8 0xFFFFFFFFFFFFFFFF DUP2 GT ISZERO PUSH2 0x369C JUMPI PUSH2 0x369B PUSH2 0x307A JUMP JUMPDEST JUMPDEST PUSH2 0x36A8 DUP6 DUP3 DUP7 ADD PUSH2 0x362B JUMP JUMPDEST SWAP2 POP POP SWAP3 POP SWAP3 SWAP1 POP JUMP JUMPDEST PUSH0 PUSH1 0x20 DUP3 DUP5 SUB SLT ISZERO PUSH2 0x36C7 JUMPI PUSH2 0x36C6 PUSH2 0x3076 JUMP JUMPDEST JUMPDEST PUSH0 PUSH2 0x36D4 DUP5 DUP3 DUP6 ADD PUSH2 0x3238 JUMP JUMPDEST SWAP2 POP POP SWAP3 SWAP2 POP POP JUMP JUMPDEST PUSH2 0x36E6 DUP2 PUSH2 0x3211 JUMP JUMPDEST DUP3 MSTORE POP POP JUMP JUMPDEST PUSH0 PUSH1 0x20 DUP3 ADD SWAP1 POP PUSH2 0x36FF PUSH0 DUP4 ADD DUP5 PUSH2 0x36DD JUMP JUMPDEST SWAP3 SWAP2 POP POP JUMP JUMPDEST PUSH0 PUSH0 PUSH1 0x20 DUP4 DUP6 SUB SLT ISZERO PUSH2 0x371B JUMPI PUSH2 0x371A PUSH2 0x3076 JUMP JUMPDEST JUMPDEST PUSH0 DUP4 ADD CALLDATALOAD PUSH8 0xFFFFFFFFFFFFFFFF DUP2 GT ISZERO PUSH2 0x3738 JUMPI PUSH2 0x3737 PUSH2 0x307A JUMP JUMPDEST JUMPDEST PUSH2 0x3744 DUP6 DUP3 DUP7 ADD PUSH2 0x345D JUMP JUMPDEST SWAP3 POP SWAP3 POP POP SWAP3 POP SWAP3 SWAP1 POP JUMP JUMPDEST PUSH0 PUSH0 PUSH1 0x40 DUP4 DUP6 SUB SLT ISZERO PUSH2 0x3766 JUMPI PUSH2 0x3765 PUSH2 0x3076 JUMP JUMPDEST JUMPDEST PUSH0 PUSH2 0x3773 DUP6 DUP3 DUP7 ADD PUSH2 0x3238 JUMP JUMPDEST SWAP3 POP POP PUSH1 0x20 PUSH2 0x3784 DUP6 DUP3 DUP7 ADD PUSH2 0x3238 JUMP JUMPDEST SWAP2 POP POP SWAP3 POP SWAP3 SWAP1 POP JUMP JUMPDEST PUSH32 0x4E487B7100000000000000000000000000000000000000000000000000000000 PUSH0 MSTORE PUSH1 0x22 PUSH1 0x4 MSTORE PUSH1 0x24 PUSH0 REVERT JUMPDEST PUSH0 PUSH1 0x2 DUP3 DIV SWAP1 POP PUSH1 0x1 DUP3 AND DUP1 PUSH2 0x37D2 JUMPI PUSH1 0x7F DUP3 AND SWAP2 POP JUMPDEST PUSH1 0x20 DUP3 LT DUP2 SUB PUSH2 0x37E5 JUMPI PUSH2 0x37E4 PUSH2 0x378E JUMP JUMPDEST JUMPDEST POP SWAP2 SWAP1 POP JUMP JUMPDEST PUSH0 DUP3 SWAP1 POP SWAP3 SWAP2 POP POP JUMP JUMPDEST PUSH0 DUP2 SWAP1 POP DUP2 PUSH0 MSTORE PUSH1 0x20 PUSH0 KECCAK256 SWAP1 POP SWAP2 SWAP1 POP JUMP JUMPDEST PUSH0 PUSH1 0x20 PUSH1 0x1F DUP4 ADD DIV SWAP1 POP SWAP2 SWAP1 POP JUMP JUMPDEST PUSH0 DUP3 DUP3 SHL SWAP1 POP SWAP3 SWAP2 POP POP JUMP JUMPDEST PUSH0 PUSH1 0x8 DUP4 MUL PUSH2 0x3851 PUSH32 0xFFFFFFFFFFFFFFFFFFFFFFFFFFFFFFFFFFFFFFFFFFFFFFFFFFFFFFFFFFFFFFFF DUP3 PUSH2 0x3816 JUMP JUMPDEST PUSH2 0x385B DUP7 DUP4 PUSH2 0x3816 JUMP JUMPDEST SWAP6 POP DUP1 NOT DUP5 AND SWAP4 POP DUP1 DUP7 AND DUP5 OR SWAP3 POP POP POP SWAP4 SWAP3 POP POP POP JUMP JUMPDEST PUSH0 DUP2 SWAP1 POP SWAP2 SWAP1 POP JUMP JUMPDEST PUSH0 PUSH2 0x3896 PUSH2 0x3891 PUSH2 0x388C DUP5 PUSH2 0x324C JUMP JUMPDEST PUSH2 0x3873 JUMP JUMPDEST PUSH2 0x324C JUMP JUMPDEST SWAP1 POP SWAP2 SWAP1 POP JUMP JUMPDEST PUSH0 DUP2 SWAP1 POP SWAP2 SWAP1 POP JUMP JUMPDEST PUSH2 0x38AF DUP4 PUSH2 0x387C JUMP JUMPDEST PUSH2 0x38C3 PUSH2 0x38BB DUP3 PUSH2 0x389D JUMP JUMPDEST DUP5 DUP5 SLOAD PUSH2 0x3822 JUMP JUMPDEST DUP3 SSTORE POP POP POP POP JUMP JUMPDEST PUSH0 PUSH0 SWAP1 POP SWAP1 JUMP JUMPDEST PUSH2 0x38DA PUSH2 0x38CB JUMP JUMPDEST PUSH2 0x38E5 DUP2 DUP5 DUP5 PUSH2 0x38A6 JUMP JUMPDEST POP POP POP JUMP JUMPDEST PUSH0 JUMPDEST DUP3 DUP2 LT ISZERO PUSH2 0x390B JUMPI PUSH2 0x3900 PUSH0 DUP3 DUP5 ADD PUSH2 0x38D2 JUMP JUMPDEST PUSH1 0x1 DUP2 ADD SWAP1 POP PUSH2 0x38EC JUMP JUMPDEST POP POP POP JUMP JUMPDEST PUSH1 0x1F DUP3 GT ISZERO PUSH2 0x395E JUMPI DUP3 DUP3 GT ISZERO PUSH2 0x395D JUMPI PUSH2 0x392A DUP2 PUSH2 0x37F5 JUMP JUMPDEST PUSH2 0x3933 DUP4 PUSH2 0x3807 JUMP JUMPDEST PUSH2 0x393C DUP6 PUSH2 0x3807 JUMP JUMPDEST PUSH1 0x20 DUP7 LT ISZERO PUSH2 0x3949 JUMPI PUSH0 SWAP1 POP JUMPDEST DUP1 DUP4 ADD PUSH2 0x3958 DUP3 DUP5 SUB DUP3 PUSH2 0x38EA JUMP JUMPDEST POP POP POP POP JUMPDEST JUMPDEST POP POP POP JUMP JUMPDEST PUSH0 DUP3 DUP3 SHR SWAP1 POP SWAP3 SWAP2 POP POP JUMP JUMPDEST PUSH0 PUSH2 0x397E PUSH0 NOT DUP5 PUSH1 0x8 MUL PUSH2 0x3963 JUMP JUMPDEST NOT DUP1 DUP4 AND SWAP2 POP POP SWAP3 SWAP2 POP POP JUMP JUMPDEST PUSH0 PUSH2 0x3996 DUP4 DUP4 PUSH2 0x396F JUMP JUMPDEST SWAP2 POP DUP3 PUSH1 0x2 MUL DUP3 OR SWAP1 POP SWAP3 SWAP2 POP POP JUMP JUMPDEST PUSH2 0x39B0 DUP4 DUP4 PUSH2 0x37EB JUMP JUMPDEST PUSH8 0xFFFFFFFFFFFFFFFF DUP2 GT ISZERO PUSH2 0x39C9 JUMPI PUSH2 0x39C8 PUSH2 0x3534 JUMP JUMPDEST JUMPDEST PUSH2 0x39D3 DUP3 SLOAD PUSH2 0x37BB JUMP JUMPDEST PUSH2 0x39DE DUP3 DUP3 DUP6 PUSH2 0x3910 JUMP JUMPDEST PUSH0 PUSH1 0x1F DUP4 GT PUSH1 0x1 DUP2 EQ PUSH2 0x3A0B JUMPI PUSH0 DUP5 ISZERO PUSH2 0x39F9 JUMPI DUP3 DUP8 ADD CALLDATALOAD SWAP1 POP JUMPDEST PUSH2 0x3A03 DUP6 DUP3 PUSH2 0x398B JUMP JUMPDEST DUP7 SSTORE POP PUSH2 0x3A6A JUMP JUMPDEST PUSH1 0x1F NOT DUP5 AND PUSH2 0x3A19 DUP7 PUSH2 0x37F5 JUMP JUMPDEST PUSH0 JUMPDEST DUP3 DUP2 LT ISZERO PUSH2 0x3A40 JUMPI DUP5 DUP10 ADD CALLDATALOAD DUP3 SSTORE PUSH1 0x1 DUP3 ADD SWAP2 POP PUSH1 0x20 DUP6 ADD SWAP5 POP PUSH1 0x20 DUP2 ADD SWAP1 POP PUSH2 0x3A1B JUMP JUMPDEST DUP7 DUP4 LT ISZERO PUSH2 0x3A5D JUMPI DUP5 DUP10 ADD CALLDATALOAD PUSH2 0x3A59 PUSH1 0x1F DUP10 AND DUP3 PUSH2 0x396F JUMP JUMPDEST DUP4 SSTORE POP JUMPDEST PUSH1 0x1 PUSH1 0x2 DUP9 MUL ADD DUP9 SSTORE POP POP POP JUMPDEST POP POP POP POP POP POP POP JUMP JUMPDEST PUSH0 DUP2 SWAP1 POP SWAP2 SWAP1 POP JUMP JUMPDEST PUSH0 PUSH8 0xFFFFFFFFFFFFFFFF DUP3 AND SWAP1 POP SWAP2 SWAP1 POP JUMP JUMPDEST PUSH0 PUSH2 0x3AA9 PUSH2 0x3AA4 PUSH2 0x3A9F DUP5 PUSH2 0x3A73 JUMP JUMPDEST PUSH2 0x3873 JUMP JUMPDEST PUSH2 0x3A7C JUMP JUMPDEST SWAP1 POP SWAP2 SWAP1 POP JUMP JUMPDEST PUSH2 0x3AB9 DUP2 PUSH2 0x3A8F JUMP JUMPDEST DUP3 MSTORE POP POP JUMP JUMPDEST PUSH0 PUSH1 0x20 DUP3 ADD SWAP1 POP PUSH2 0x3AD2 PUSH0 DUP4 ADD DUP5 PUSH2 0x3AB0 JUMP JUMPDEST SWAP3 SWAP2 POP POP JUMP JUMPDEST PUSH2 0x3AE1 DUP2 PUSH2 0x3A7C JUMP JUMPDEST DUP3 MSTORE POP POP JUMP JUMPDEST PUSH0 PUSH1 0x20 DUP3 ADD SWAP1 POP PUSH2 0x3AFA PUSH0 DUP4 ADD DUP5 PUSH2 0x3AD8 JUMP JUMPDEST SWAP3 SWAP2 POP POP JUMP JUMPDEST PUSH32 0x4E6F742066726F7A656E00000000000000000000000000000000000000000000 PUSH0 DUP3 ADD MSTORE POP JUMP JUMPDEST PUSH0 PUSH2 0x3B34 PUSH1 0xA DUP4 PUSH2 0x316C JUMP JUMPDEST SWAP2 POP PUSH2 0x3B3F DUP3 PUSH2 0x3B00 JUMP JUMPDEST PUSH1 0x20 DUP3 ADD SWAP1 POP SWAP2 SWAP1 POP JUMP JUMPDEST PUSH0 PUSH1 0x20 DUP3 ADD SWAP1 POP DUP2 DUP2 SUB PUSH0 DUP4 ADD MSTORE PUSH2 0x3B61 DUP2 PUSH2 0x3B28 JUMP JUMPDEST SWAP1 POP SWAP2 SWAP1 POP JUMP JUMPDEST PUSH32 0x416C72656164792066726F7A656E000000000000000000000000000000000000 PUSH0 DUP3 ADD MSTORE POP JUMP JUMPDEST PUSH0 PUSH2 0x3B9C PUSH1 0xE DUP4 PUSH2 0x316C JUMP JUMPDEST SWAP2 POP PUSH2 0x3BA7 DUP3 PUSH2 0x3B68 JUMP JUMPDEST PUSH1 0x20 DUP3 ADD SWAP1 POP SWAP2 SWAP1 POP JUMP JUMPDEST PUSH0 PUSH1 0x20 DUP3 ADD SWAP1 POP DUP2 DUP2 SUB PUSH0 DUP4 ADD MSTORE PUSH2 0x3BC9 DUP2 PUSH2 0x3B90 JUMP JUMPDEST SWAP1 POP SWAP2 SWAP1 POP JUMP JUMPDEST PUSH0 PUSH2 0x3BDB DUP4 DUP6 PUSH2 0x316C JUMP JUMPDEST SWAP4 POP PUSH2 0x3BE8 DUP4 DUP6 DUP5 PUSH2 0x35DC JUMP JUMPDEST PUSH2 0x3BF1 DUP4 PUSH2 0x318A JUMP JUMPDEST DUP5 ADD SWAP1 POP SWAP4 SWAP3 POP POP POP JUMP JUMPDEST PUSH0 PUSH1 0x40 DUP3 ADD SWAP1 POP DUP2 DUP2 SUB PUSH0 DUP4 ADD MSTORE PUSH2 0x3C14 DUP2 DUP7 PUSH2 0x319A JUMP JUMPDEST SWAP1 POP DUP2 DUP2 SUB PUSH1 0x20 DUP4 ADD MSTORE PUSH2 0x3C29 DUP2 DUP5 DUP7 PUSH2 0x3BD0 JUMP JUMPDEST SWAP1 POP SWAP5 SWAP4 POP POP POP POP JUMP JUMPDEST PUSH0 PUSH1 0x60 DUP3 ADD SWAP1 POP PUSH2 0x3C46 PUSH0 DUP4 ADD DUP7 PUSH2 0x36DD JUMP JUMPDEST PUSH2 0x3C53 PUSH1 0x20 DUP4 ADD DUP6 PUSH2 0x32BD JUMP JUMPDEST PUSH2 0x3C60 PUSH1 0x40 DUP4 ADD DUP5 PUSH2 0x32BD JUMP JUMPDEST SWAP5 SWAP4 POP POP POP POP JUMP JUMPDEST PUSH0 DUP2 MLOAD SWAP1 POP PUSH2 0x3C76 DUP2 PUSH2 0x3335 JUMP JUMPDEST SWAP3 SWAP2 POP POP JUMP JUMPDEST PUSH0 PUSH1 0x20 DUP3 DUP5 SUB SLT ISZERO PUSH2 0x3C91 JUMPI PUSH2 0x3C90 PUSH2 0x3076 JUMP JUMPDEST JUMPDEST PUSH0 PUSH2 0x3C9E DUP5 DUP3 DUP6 ADD PUSH2 0x3C68 JUMP JUMPDEST SWAP2 POP POP SWAP3 SWAP2 POP POP JUMP JUMPDEST PUSH32 0x57616C6C65742069732066726F7A656E00000000000000000000000000000000 PUSH0 DUP3 ADD MSTORE POP JUMP JUMPDEST PUSH0 PUSH2 0x3CDB PUSH1 0x10 DUP4 PUSH2 0x316C JUMP JUMPDEST SWAP2 POP PUSH2 0x3CE6 DUP3 PUSH2 0x3CA7 JUMP JUMPDEST PUSH1 0x20 DUP3 ADD SWAP1 POP SWAP2 SWAP1 POP JUMP JUMPDEST PUSH0 PUSH1 0x20 DUP3 ADD SWAP1 POP DUP2 DUP2 SUB PUSH0 DUP4 ADD MSTORE PUSH2 0x3D08 DUP2 PUSH2 0x3CCF JUMP JUMPDEST SWAP1 POP SWAP2 SWAP1 POP JUMP JUMPDEST PUSH32 0x53656E646572206C61636B73205452414445525F524F4C450000000000000000 PUSH0 DUP3 ADD MSTORE POP JUMP JUMPDEST PUSH0 PUSH2 0x3D43 PUSH1 0x18 DUP4 PUSH2 0x316C JUMP JUMPDEST SWAP2 POP PUSH2 0x3D4E DUP3 PUSH2 0x3D0F JUMP JUMPDEST PUSH1 0x20 DUP3 ADD SWAP1 POP SWAP2 SWAP1 POP JUMP JUMPDEST PUSH0 PUSH1 0x20 DUP3 ADD SWAP1 POP DUP2 DUP2 SUB PUSH0 DUP4 ADD MSTORE PUSH2 0x3D70 DUP2 PUSH2 0x3D37 JUMP JUMPDEST SWAP1 POP SWAP2 SWAP1 POP JUMP JUMPDEST PUSH32 0x5265636569766572206861732062616C616E636520627574206C61636B732054 PUSH0 DUP3 ADD MSTORE PUSH32 0x52414445525F524F4C4500000000000000000000000000000000000000000000 PUSH1 0x20 DUP3 ADD MSTORE POP JUMP JUMPDEST PUSH0 PUSH2 0x3DD1 PUSH1 0x2A DUP4 PUSH2 0x316C JUMP JUMPDEST SWAP2 POP PUSH2 0x3DDC DUP3 PUSH2 0x3D77 JUMP JUMPDEST PUSH1 0x40 DUP3 ADD SWAP1 POP SWAP2 SWAP1 POP JUMP JUMPDEST PUSH0 PUSH1 0x20 DUP3 ADD SWAP1 POP DUP2 DUP2 SUB PUSH0 DUP4 ADD MSTORE PUSH2 0x3DFE DUP2 PUSH2 0x3DC5 JUMP JUMPDEST SWAP1 POP SWAP2 SWAP1 POP JUMP JUMPDEST PUSH0 PUSH1 0x40 DUP3 ADD SWAP1 POP PUSH2 0x3E18 PUSH0 DUP4 ADD DUP6 PUSH2 0x36DD JUMP JUMPDEST PUSH2 0x3E25 PUSH1 0x20 DUP4 ADD DUP5 PUSH2 0x313A JUMP JUMPDEST SWAP4 SWAP3 POP POP POP JUMP JUMPDEST PUSH2 0x3E35 DUP3 PUSH2 0x3162 JUMP JUMPDEST PUSH8 0xFFFFFFFFFFFFFFFF DUP2 GT ISZERO PUSH2 0x3E4E JUMPI PUSH2 0x3E4D PUSH2 0x3534 JUMP JUMPDEST JUMPDEST PUSH2 0x3E58 DUP3 SLOAD PUSH2 0x37BB JUMP JUMPDEST PUSH2 0x3E63 DUP3 DUP3 DUP6 PUSH2 0x3910 JUMP JUMPDEST PUSH0 PUSH1 0x20 SWAP1 POP PUSH1 0x1F DUP4 GT PUSH1 0x1 DUP2 EQ PUSH2 0x3E94 JUMPI PUSH0 DUP5 ISZERO PUSH2 0x3E82 JUMPI DUP3 DUP8 ADD MLOAD SWAP1 POP JUMPDEST PUSH2 0x3E8C DUP6 DUP3 PUSH2 0x398B JUMP JUMPDEST DUP7 SSTORE POP PUSH2 0x3EF3 JUMP JUMPDEST PUSH1 0x1F NOT DUP5 AND PUSH2 0x3EA2 DUP7 PUSH2 0x37F5 JUMP JUMPDEST PUSH0 JUMPDEST DUP3 DUP2 LT ISZERO PUSH2 0x3EC9 JUMPI DUP5 DUP10 ADD MLOAD DUP3 SSTORE PUSH1 0x1 DUP3 ADD SWAP2 POP PUSH1 0x20 DUP6 ADD SWAP5 POP PUSH1 0x20 DUP2 ADD SWAP1 POP PUSH2 0x3EA4 JUMP JUMPDEST DUP7 DUP4 LT ISZERO PUSH2 0x3EE6 JUMPI DUP5 DUP10 ADD MLOAD PUSH2 0x3EE2 PUSH1 0x1F DUP10 AND DUP3 PUSH2 0x396F JUMP JUMPDEST DUP4 SSTORE POP JUMPDEST PUSH1 0x1 PUSH1 0x2 DUP9 MUL ADD DUP9 SSTORE POP POP POP JUMPDEST POP POP POP POP POP POP JUMP JUMPDEST PUSH32 0x4E487B7100000000000000000000000000000000000000000000000000000000 PUSH0 MSTORE PUSH1 0x11 PUSH1 0x4 MSTORE PUSH1 0x24 PUSH0 REVERT JUMPDEST PUSH0 PUSH2 0x3F32 DUP3 PUSH2 0x324C JUMP JUMPDEST SWAP2 POP PUSH2 0x3F3D DUP4 PUSH2 0x324C JUMP JUMPDEST SWAP3 POP DUP3 DUP3 ADD SWAP1 POP DUP1 DUP3 GT ISZERO PUSH2 0x3F55 JUMPI PUSH2 0x3F54 PUSH2 0x3EFB JUMP JUMPDEST JUMPDEST SWAP3 SWAP2 POP POP JUMP INVALID LOG2 PUSH5 0x6970667358 0x22 SLT KECCAK256 PREVRANDAO MSTORE8 PUSH31 0xAB296B1CDAD4DFE093E3072FF52B98D2AF540D7D661DF14C64DECC695F6473 PUSH16 0x6C634300082200330000000000000000 "
	},
	"Assembly": ".code\n  PUSH A0\t\t\tcontract RinanzeV2 is\\n    Ini...\n  PUSH 40\t\t\tcontract RinanzeV2 is\\n    Ini...\n  MSTORE \t\t\tcontract RinanzeV2 is\\n    Ini...\n  ADDRESS \t\t\tstri\n  PUSH FFFFFFFFFFFFFFFFFFFFFFFFFFFFFFFFFFFFFFFF\t\t\tame & symbol\\n    string priva...\n  AND \t\t\tame & symbol\\n    string priva...\n  PUSH 80\t\t\tame & symbol\\n    string priva...\n  SWAP1 \t\t\tame & symbol\\n    string priva...\n  PUSH FFFFFFFFFFFFFFFFFFFFFFFFFFFFFFFFFFFFFFFF\t\t\tame & symbol\\n    string priva...\n  AND \t\t\tame & symbol\\n    string priva...\n  DUP2 \t\t\tame & symbol\\n    string priva...\n  MSTORE \t\t\tame & symbol\\n    string priva...\n  POP \t\t\tame & symbol\\n    string priva...\n  CALLVALUE \t\t\tconstructor() {\\n        _disa...\n  DUP1 \t\t\tconstructor() {\\n        _disa...\n  ISZERO \t\t\tconstructor() {\\n        _disa...\n  PUSH [tag] 1\t\t\tconstructor() {\\n        _disa...\n  JUMPI \t\t\tconstructor() {\\n        _disa...\n  PUSH 0\t\t\tconstructor() {\\n        _disa...\n  PUSH 0\t\t\tconstructor() {\\n        _disa...\n  REVERT \t\t\tconstructor() {\\n        _disa...\ntag 1\t\t\tconstructor() {\\n        _disa...\n  JUMPDEST \t\t\tconstructor() {\\n        _disa...\n  POP \t\t\tconstructor() {\\n        _disa...\n  PUSH [tag] 4\t\t\t_disableInitializers()\n  PUSH [tag] 5\t\t\t_disableInitializers\n  PUSH 20\t\t\t_disableInitializers\n  SHL \t\t\t_disableInitializers\n  PUSH 20\t\t\t_disableInitializers()\n  SHR \t\t\t_disableInitializers()\n  JUMP \t\t\t_disableInitializers()\ntag 4\t\t\t_disableInitializers()\n  JUMPDEST \t\t\t_disableInitializers()\n  PUSH [tag] 6\t\t\tcontract RinanzeV2 is\\n    Ini...\n  JUMP \t\t\tcontract RinanzeV2 is\\n    Ini...\ntag 5\t\t\t\n  JUMPDEST \t\t\t\n  PUSH 0\t\t\t\n  PUSH [tag] 8\t\t\t\n  PUSH [tag] 9\t\t\t\n  PUSH 20\t\t\t\n  SHL \t\t\t\n  PUSH 20\t\t\t\n  SHR \t\t\t\n  JUMP \t\t\t\ntag 8\t\t\t\n  JUMPDEST \t\t\t\n  SWAP1 \t\t\t\n  POP \t\t\t\n  DUP1 \t\t\t\n  PUSH 0\t\t\t\n  ADD \t\t\t\n  PUSH 8\t\t\t\n  SWAP1 \t\t\t\n  SLOAD \t\t\t\n  SWAP1 \t\t\t\n  PUSH 100\t\t\t\n  EXP \t\t\t\n  SWAP1 \t\t\t\n  DIV \t\t\t\n  PUSH FF\t\t\t\n  AND \t\t\t\n  ISZERO \t\t\t\n  PUSH [tag] 10\t\t\t\n  JUMPI \t\t\t\n  PUSH 40\t\t\t\n  MLOAD \t\t\t\n  PUSH F92EE8A900000000000000000000000000000000000000000000000000000000\t\t\t\n  DUP2 \t\t\t\n  MSTORE \t\t\t\n  PUSH 4\t\t\t\n  ADD \t\t\t\n  PUSH 40\t\t\t\n  MLOAD \t\t\t\n  DUP1 \t\t\t\n  SWAP2 \t\t\t\n  SUB \t\t\t\n  SWAP1 \t\t\t\n  REVERT \t\t\t\ntag 10\t\t\t\n  JUMPDEST \t\t\t\n  PUSH FFFFFFFFFFFFFFFF\t\t\t\n  DUP1 \t\t\t\n  AND \t\t\t\n  DUP2 \t\t\t\n  PUSH 0\t\t\t\n  ADD \t\t\t\n  PUSH 0\t\t\t\n  SWAP1 \t\t\t\n  SLOAD \t\t\t\n  SWAP1 \t\t\t\n  PUSH 100\t\t\t\n  EXP \t\t\t\n  SWAP1 \t\t\t\n  DIV \t\t\t\n  PUSH FFFFFFFFFFFFFFFF\t\t\t\n  AND \t\t\t\n  PUSH FFFFFFFFFFFFFFFF\t\t\t\n  AND \t\t\t\n  EQ \t\t\t\n  PUSH [tag] 11\t\t\t\n  JUMPI \t\t\t\n  PUSH FFFFFFFFFFFFFFFF\t\t\t\n  DUP2 \t\t\t\n  PUSH 0\t\t\t\n  ADD \t\t\t\n  PUSH 0\t\t\t\n  PUSH 100\t\t\t\n  EXP \t\t\t\n  DUP2 \t\t\t\n  SLOAD \t\t\t\n  DUP2 \t\t\t\n  PUSH FFFFFFFFFFFFFFFF\t\t\t\n  MUL \t\t\t\n  NOT \t\t\t\n  AND \t\t\t\n  SWAP1 \t\t\t\n  DUP4 \t\t\t\n  PUSH FFFFFFFFFFFFFFFF\t\t\t\n  AND \t\t\t\n  MUL \t\t\t\n  OR \t\t\t\n  SWAP1 \t\t\t\n  SSTORE \t\t\t\n  POP \t\t\t\n  PUSH C7F505B2F371AE2175EE4913F4499E1F2633A7B5936321EED1CDAEB6115181D2\t\t\t\n  PUSH FFFFFFFFFFFFFFFF\t\t\t\n  PUSH 40\t\t\t\n  MLOAD \t\t\t\n  PUSH [tag] 12\t\t\t\n  SWAP2 \t\t\t\n  SWAP1 \t\t\t\n  PUSH [tag] 13\t\t\t\n  JUMP \t\t\t\ntag 12\t\t\t\n  JUMPDEST \t\t\t\n  PUSH 40\t\t\t\n  MLOAD \t\t\t\n  DUP1 \t\t\t\n  SWAP2 \t\t\t\n  SUB \t\t\t\n  SWAP1 \t\t\t\n  LOG1 \t\t\t\ntag 11\t\t\t\n  JUMPDEST \t\t\t\n  POP \t\t\t\n  JUMP \t\t\t\ntag 9\t\t\t\n  JUMPDEST \t\t\t\n  PUSH 0\t\t\t\n  PUSH 0\t\t\t\n  PUSH [tag] 15\t\t\t\n  PUSH [tag] 16\t\t\t\n  PUSH 20\t\t\t\n  SHL \t\t\t\n  PUSH 20\t\t\t\n  SHR \t\t\t\n  JUMP \t\t\t\ntag 15\t\t\t\n  JUMPDEST \t\t\t\n  SWAP1 \t\t\t\n  POP \t\t\t\n  DUP1 \t\t\t\n  SWAP2 \t\t\t\n  POP \t\t\t\n  POP \t\t\t\n  SWAP1 \t\t\t\n  JUMP \t\t\t\ntag 16\t\t\t\n  JUMPDEST \t\t\t\n  PUSH 0\t\t\t\n  PUSH F0C57E16840DF040F15088DC2F81FE391C3923BEC73E23A9662EFC9C229C6A00\t\t\told, newSymbol);\\n    }\\n\\n   ...\n  PUSH 0\t\t\t\n  SHL \t\t\t\n  SWAP1 \t\t\t\n  POP \t\t\t\n  SWAP1 \t\t\t\n  JUMP \t\t\t\ntag 18\t\t\t-License-Identifier: MIT\\nprag...\n  JUMPDEST \t\t\t-License-Identifier: MIT\\nprag...\n  PUSH 0\t\t\tdity ^0\n  PUSH FFFFFFFFFFFFFFFF\t\t\tracts-upgradeable/\n  DUP3 \t\t\tin/co\n  AND \t\t\tppelin/contracts-upgradeable/t\n  SWAP1 \t\t\trt \"@openzeppelin/contracts-up...\n  POP \t\t\trt \"@openzeppelin/contracts-up...\n  SWAP2 \t\t\t-License-Identifier: MIT\\nprag...\n  SWAP1 \t\t\t-License-Identifier: MIT\\nprag...\n  POP \t\t\t-License-Identifier: MIT\\nprag...\n  JUMP \t\t\t-License-Identifier: MIT\\nprag...\ntag 19\t\t\tRC20Upgradeable.sol\";\\nimport ...\n  JUMPDEST \t\t\tRC20Upgradeable.sol\";\\nimport ...\n  PUSH [tag] 23\t\t\tons/ERC20PausableUpgrad\n  DUP2 \t\t\tUpgra\n  PUSH [tag] 18\t\t\tons/ERC20PausableUpgrad\n  JUMP \t\t\tons/ERC20PausableUpgrad\ntag 23\t\t\tons/ERC20PausableUpgrad\n  JUMPDEST \t\t\tons/ERC20PausableUpgrad\n  DUP3 \t\t\tten\n  MSTORE \t\t\tRC20/extensions/ERC20PausableU...\n  POP \t\t\tRC20Upgradeable.sol\";\\nimport ...\n  POP \t\t\tRC20Upgradeable.sol\";\\nimport ...\n  JUMP \t\t\tRC20Upgradeable.sol\";\\nimport ...\ntag 13\t\t\tmport \"@openzeppelin/contracts...\n  JUMPDEST \t\t\tmport \"@openzeppelin/contracts...\n  PUSH 0\t\t\tenze\n  PUSH 20\t\t\ts/\n  DUP3 \t\t\teable/acc\n  ADD \t\t\tgradeable/access/A\n  SWAP1 \t\t\tracts-upgradeable/access/A\n  POP \t\t\tracts-upgradeable/access/A\n  PUSH [tag] 25\t\t\tolUpgradeable.sol\";\\nimport \"@...\n  PUSH 0\t\t\to\n  DUP4 \t\t\tradeable/\n  ADD \t\t\t-upgradeable/prox\n  DUP5 \t\t\tcontra\n  PUSH [tag] 19\t\t\tolUpgradeable.sol\";\\nimport \"@...\n  JUMP \t\t\tolUpgradeable.sol\";\\nimport \"@...\ntag 25\t\t\tolUpgradeable.sol\";\\nimport \"@...\n  JUMPDEST \t\t\tolUpgradeable.sol\";\\nimport \"@...\n  SWAP3 \t\t\tmport \"@openzeppelin/contracts...\n  SWAP2 \t\t\tmport \"@openzeppelin/contracts...\n  POP \t\t\tmport \"@openzeppelin/contracts...\n  POP \t\t\tmport \"@openzeppelin/contracts...\n  JUMP \t\t\tmport \"@openzeppelin/contracts...\ntag 6\t\t\tcontract RinanzeV2 is\\n    Ini...\n  JUMPDEST \t\t\tcontract RinanzeV2 is\\n    Ini...\n  PUSH 80\t\t\tcontract RinanzeV2 is\\n    Ini...\n  MLOAD \t\t\tcontract RinanzeV2 is\\n    Ini...\n  PUSH #[$] 0000000000000000000000000000000000000000000000000000000000000000\t\t\tcontract RinanzeV2 is\\n    Ini...\n  PUSH [$] 0000000000000000000000000000000000000000000000000000000000000000\t\t\tcontract RinanzeV2 is\\n    Ini...\n  PUSH 0\t\t\tcontract RinanzeV2 is\\n    Ini...\n  CODECOPY \t\t\tcontract RinanzeV2 is\\n    Ini...\n  PUSH 0\t\t\tcontract RinanzeV2 is\\n    Ini...\n  ASSIGNIMMUTABLE 2454\t\t\tcontract RinanzeV2 is\\n    Ini...\n  PUSH #[$] 0000000000000000000000000000000000000000000000000000000000000000\t\t\tcontract RinanzeV2 is\\n    Ini...\n  PUSH 0\t\t\tcontract RinanzeV2 is\\n    Ini...\n  RETURN \t\t\tcontract RinanzeV2 is\\n    Ini...\n.data\n  0:\n    .code\n      PUSH 80\t\t\tcontract RinanzeV2 is\\n    Ini...\n      PUSH 40\t\t\tcontract RinanzeV2 is\\n    Ini...\n      MSTORE \t\t\tcontract RinanzeV2 is\\n    Ini...\n      PUSH 4\t\t\tcontract RinanzeV2 is\\n    Ini...\n      CALLDATASIZE \t\t\tcontract RinanzeV2 is\\n    Ini...\n      LT \t\t\tcontract RinanzeV2 is\\n    Ini...\n      PUSH [tag] 1\t\t\tcontract RinanzeV2 is\\n    Ini...\n      JUMPI \t\t\tcontract RinanzeV2 is\\n    Ini...\n      PUSH 0\t\t\tcontract RinanzeV2 is\\n    Ini...\n      CALLDATALOAD \t\t\tcontract RinanzeV2 is\\n    Ini...\n      PUSH E0\t\t\tcontract RinanzeV2 is\\n    Ini...\n      SHR \t\t\tcontract RinanzeV2 is\\n    Ini...\n      DUP1 \t\t\tcontract RinanzeV2 is\\n    Ini...\n      PUSH 70A08231\t\t\tcontract RinanzeV2 is\\n    Ini...\n      GT \t\t\tcontract RinanzeV2 is\\n    Ini...\n      PUSH [tag] 42\t\t\tcontract RinanzeV2 is\\n    Ini...\n      JUMPI \t\t\tcontract RinanzeV2 is\\n    Ini...\n      DUP1 \t\t\tcontract RinanzeV2 is\\n    Ini...\n      PUSH AD3CB1CC\t\t\tcontract RinanzeV2 is\\n    Ini...\n      GT \t\t\tcontract RinanzeV2 is\\n    Ini...\n      PUSH [tag] 43\t\t\tcontract RinanzeV2 is\\n    Ini...\n      JUMPI \t\t\tcontract RinanzeV2 is\\n    Ini...\n      DUP1 \t\t\tcontract RinanzeV2 is\\n    Ini...\n      PUSH DD62ED3E\t\t\tcontract RinanzeV2 is\\n    Ini...\n      GT \t\t\tcontract RinanzeV2 is\\n    Ini...\n      PUSH [tag] 44\t\t\tcontract RinanzeV2 is\\n    Ini...\n      JUMPI \t\t\tcontract RinanzeV2 is\\n    Ini...\n      DUP1 \t\t\tcontract RinanzeV2 is\\n    Ini...\n      PUSH DD62ED3E\t\t\tcontract RinanzeV2 is\\n    Ini...\n      EQ \t\t\tcontract RinanzeV2 is\\n    Ini...\n      PUSH [tag] 37\t\t\tcontract RinanzeV2 is\\n    Ini...\n      JUMPI \t\t\tcontract RinanzeV2 is\\n    Ini...\n      DUP1 \t\t\tcontract RinanzeV2 is\\n    Ini...\n      PUSH E30C3978\t\t\tcontract RinanzeV2 is\\n    Ini...\n      EQ \t\t\tcontract RinanzeV2 is\\n    Ini...\n      PUSH [tag] 38\t\t\tcontract RinanzeV2 is\\n    Ini...\n      JUMPI \t\t\tcontract RinanzeV2 is\\n    Ini...\n      DUP1 \t\t\tcontract RinanzeV2 is\\n    Ini...\n      PUSH E63AB1E9\t\t\tcontract RinanzeV2 is\\n    Ini...\n      EQ \t\t\tcontract RinanzeV2 is\\n    Ini...\n      PUSH [tag] 39\t\t\tcontract RinanzeV2 is\\n    Ini...\n      JUMPI \t\t\tcontract RinanzeV2 is\\n    Ini...\n      DUP1 \t\t\tcontract RinanzeV2 is\\n    Ini...\n      PUSH F0A56FC8\t\t\tcontract RinanzeV2 is\\n    Ini...\n      EQ \t\t\tcontract RinanzeV2 is\\n    Ini...\n      PUSH [tag] 40\t\t\tcontract RinanzeV2 is\\n    Ini...\n      JUMPI \t\t\tcontract RinanzeV2 is\\n    Ini...\n      DUP1 \t\t\tcontract RinanzeV2 is\\n    Ini...\n      PUSH F2FDE38B\t\t\tcontract RinanzeV2 is\\n    Ini...\n      EQ \t\t\tcontract RinanzeV2 is\\n    Ini...\n      PUSH [tag] 41\t\t\tcontract RinanzeV2 is\\n    Ini...\n      JUMPI \t\t\tcontract RinanzeV2 is\\n    Ini...\n      PUSH [tag] 1\t\t\tcontract RinanzeV2 is\\n    Ini...\n      JUMP \t\t\tcontract RinanzeV2 is\\n    Ini...\n    tag 44\t\t\tcontract RinanzeV2 is\\n    Ini...\n      JUMPDEST \t\t\tcontract RinanzeV2 is\\n    Ini...\n      DUP1 \t\t\tcontract RinanzeV2 is\\n    Ini...\n      PUSH AD3CB1CC\t\t\tcontract RinanzeV2 is\\n    Ini...\n      EQ \t\t\tcontract RinanzeV2 is\\n    Ini...\n      PUSH [tag] 32\t\t\tcontract RinanzeV2 is\\n    Ini...\n      JUMPI \t\t\tcontract RinanzeV2 is\\n    Ini...\n      DUP1 \t\t\tcontract RinanzeV2 is\\n    Ini...\n      PUSH B84C8246\t\t\tcontract RinanzeV2 is\\n    Ini...\n      EQ \t\t\tcontract RinanzeV2 is\\n    Ini...\n      PUSH [tag] 33\t\t\tcontract RinanzeV2 is\\n    Ini...\n      JUMPI \t\t\tcontract RinanzeV2 is\\n    Ini...\n      DUP1 \t\t\tcontract RinanzeV2 is\\n    Ini...\n      PUSH C47F0027\t\t\tcontract RinanzeV2 is\\n    Ini...\n      EQ \t\t\tcontract RinanzeV2 is\\n    Ini...\n      PUSH [tag] 34\t\t\tcontract RinanzeV2 is\\n    Ini...\n      JUMPI \t\t\tcontract RinanzeV2 is\\n    Ini...\n      DUP1 \t\t\tcontract RinanzeV2 is\\n    Ini...\n      PUSH D5391393\t\t\tcontract RinanzeV2 is\\n    Ini...\n      EQ \t\t\tcontract RinanzeV2 is\\n    Ini...\n      PUSH [tag] 35\t\t\tcontract RinanzeV2 is\\n    Ini...\n      JUMPI \t\t\tcontract RinanzeV2 is\\n    Ini...\n      DUP1 \t\t\tcontract RinanzeV2 is\\n    Ini...\n      PUSH D547741F\t\t\tcontract RinanzeV2 is\\n    Ini...\n      EQ \t\t\tcontract RinanzeV2 is\\n    Ini...\n      PUSH [tag] 36\t\t\tcontract RinanzeV2 is\\n    Ini...\n      JUMPI \t\t\tcontract RinanzeV2 is\\n    Ini...\n      PUSH [tag] 1\t\t\tcontract RinanzeV2 is\\n    Ini...\n      JUMP \t\t\tcontract RinanzeV2 is\\n    Ini...\n    tag 43\t\t\tcontract RinanzeV2 is\\n    Ini...\n      JUMPDEST \t\t\tcontract RinanzeV2 is\\n    Ini...\n      DUP1 \t\t\tcontract RinanzeV2 is\\n    Ini...\n      PUSH 91D14854\t\t\tcontract RinanzeV2 is\\n    Ini...\n      GT \t\t\tcontract RinanzeV2 is\\n    Ini...\n      PUSH [tag] 45\t\t\tcontract RinanzeV2 is\\n    Ini...\n      JUMPI \t\t\tcontract RinanzeV2 is\\n    Ini...\n      DUP1 \t\t\tcontract RinanzeV2 is\\n    Ini...\n      PUSH 91D14854\t\t\tcontract RinanzeV2 is\\n    Ini...\n      EQ \t\t\tcontract RinanzeV2 is\\n    Ini...\n      PUSH [tag] 27\t\t\tcontract RinanzeV2 is\\n    Ini...\n      JUMPI \t\t\tcontract RinanzeV2 is\\n    Ini...\n      DUP1 \t\t\tcontract RinanzeV2 is\\n    Ini...\n      PUSH 95D89B41\t\t\tcontract RinanzeV2 is\\n    Ini...\n      EQ \t\t\tcontract RinanzeV2 is\\n    Ini...\n      PUSH [tag] 28\t\t\tcontract RinanzeV2 is\\n    Ini...\n      JUMPI \t\t\tcontract RinanzeV2 is\\n    Ini...\n      DUP1 \t\t\tcontract RinanzeV2 is\\n    Ini...\n      PUSH 9F001169\t\t\tcontract RinanzeV2 is\\n    Ini...\n      EQ \t\t\tcontract RinanzeV2 is\\n    Ini...\n      PUSH [tag] 29\t\t\tcontract RinanzeV2 is\\n    Ini...\n      JUMPI \t\t\tcontract RinanzeV2 is\\n    Ini...\n      DUP1 \t\t\tcontract RinanzeV2 is\\n    Ini...\n      PUSH A217FDDF\t\t\tcontract RinanzeV2 is\\n    Ini...\n      EQ \t\t\tcontract RinanzeV2 is\\n    Ini...\n      PUSH [tag] 30\t\t\tcontract RinanzeV2 is\\n    Ini...\n      JUMPI \t\t\tcontract RinanzeV2 is\\n    Ini...\n      DUP1 \t\t\tcontract RinanzeV2 is\\n    Ini...\n      PUSH A9059CBB\t\t\tcontract RinanzeV2 is\\n    Ini...\n      EQ \t\t\tcontract RinanzeV2 is\\n    Ini...\n      PUSH [tag] 31\t\t\tcontract RinanzeV2 is\\n    Ini...\n      JUMPI \t\t\tcontract RinanzeV2 is\\n    Ini...\n      PUSH [tag] 1\t\t\tcontract RinanzeV2 is\\n    Ini...\n      JUMP \t\t\tcontract RinanzeV2 is\\n    Ini...\n    tag 45\t\t\tcontract RinanzeV2 is\\n    Ini...\n      JUMPDEST \t\t\tcontract RinanzeV2 is\\n    Ini...\n      DUP1 \t\t\tcontract RinanzeV2 is\\n    Ini...\n      PUSH 70A08231\t\t\tcontract RinanzeV2 is\\n    Ini...\n      EQ \t\t\tcontract RinanzeV2 is\\n    Ini...\n      PUSH [tag] 22\t\t\tcontract RinanzeV2 is\\n    Ini...\n      JUMPI \t\t\tcontract RinanzeV2 is\\n    Ini...\n      DUP1 \t\t\tcontract RinanzeV2 is\\n    Ini...\n      PUSH 715018A6\t\t\tcontract RinanzeV2 is\\n    Ini...\n      EQ \t\t\tcontract RinanzeV2 is\\n    Ini...\n      PUSH [tag] 23\t\t\tcontract RinanzeV2 is\\n    Ini...\n      JUMPI \t\t\tcontract RinanzeV2 is\\n    Ini...\n      DUP1 \t\t\tcontract RinanzeV2 is\\n    Ini...\n      PUSH 79BA5097\t\t\tcontract RinanzeV2 is\\n    Ini...\n      EQ \t\t\tcontract RinanzeV2 is\\n    Ini...\n      PUSH [tag] 24\t\t\tcontract RinanzeV2 is\\n    Ini...\n      JUMPI \t\t\tcontract RinanzeV2 is\\n    Ini...\n      DUP1 \t\t\tcontract RinanzeV2 is\\n    Ini...\n      PUSH 8456CB59\t\t\tcontract RinanzeV2 is\\n    Ini...\n      EQ \t\t\tcontract RinanzeV2 is\\n    Ini...\n      PUSH [tag] 25\t\t\tcontract RinanzeV2 is\\n    Ini...\n      JUMPI \t\t\tcontract RinanzeV2 is\\n    Ini...\n      DUP1 \t\t\tcontract RinanzeV2 is\\n    Ini...\n      PUSH 8DA5CB5B\t\t\tcontract RinanzeV2 is\\n    Ini...\n      EQ \t\t\tcontract RinanzeV2 is\\n    Ini...\n      PUSH [tag] 26\t\t\tcontract RinanzeV2 is\\n    Ini...\n      JUMPI \t\t\tcontract RinanzeV2 is\\n    Ini...\n      PUSH [tag] 1\t\t\tcontract RinanzeV2 is\\n    Ini...\n      JUMP \t\t\tcontract RinanzeV2 is\\n    Ini...\n    tag 42\t\t\tcontract RinanzeV2 is\\n    Ini...\n      JUMPDEST \t\t\tcontract RinanzeV2 is\\n    Ini...\n      DUP1 \t\t\tcontract RinanzeV2 is\\n    Ini...\n      PUSH 313CE567\t\t\tcontract RinanzeV2 is\\n    Ini...\n      GT \t\t\tcontract RinanzeV2 is\\n    Ini...\n      PUSH [tag] 46\t\t\tcontract RinanzeV2 is\\n    Ini...\n      JUMPI \t\t\tcontract RinanzeV2 is\\n    Ini...\n      DUP1 \t\t\tcontract RinanzeV2 is\\n    Ini...\n      PUSH 4F1EF286\t\t\tcontract RinanzeV2 is\\n    Ini...\n      GT \t\t\tcontract RinanzeV2 is\\n    Ini...\n      PUSH [tag] 47\t\t\tcontract RinanzeV2 is\\n    Ini...\n      JUMPI \t\t\tcontract RinanzeV2 is\\n    Ini...\n      DUP1 \t\t\tcontract RinanzeV2 is\\n    Ini...\n      PUSH 4F1EF286\t\t\tcontract RinanzeV2 is\\n    Ini...\n      EQ \t\t\tcontract RinanzeV2 is\\n    Ini...\n      PUSH [tag] 17\t\t\tcontract RinanzeV2 is\\n    Ini...\n      JUMPI \t\t\tcontract RinanzeV2 is\\n    Ini...\n      DUP1 \t\t\tcontract RinanzeV2 is\\n    Ini...\n      PUSH 52D1902D\t\t\tcontract RinanzeV2 is\\n    Ini...\n      EQ \t\t\tcontract RinanzeV2 is\\n    Ini...\n      PUSH [tag] 18\t\t\tcontract RinanzeV2 is\\n    Ini...\n      JUMPI \t\t\tcontract RinanzeV2 is\\n    Ini...\n      DUP1 \t\t\tcontract RinanzeV2 is\\n    Ini...\n      PUSH 5C975ABB\t\t\tcontract RinanzeV2 is\\n    Ini...\n      EQ \t\t\tcontract RinanzeV2 is\\n    Ini...\n      PUSH [tag] 19\t\t\tcontract RinanzeV2 is\\n    Ini...\n      JUMPI \t\t\tcontract RinanzeV2 is\\n    Ini...\n      DUP1 \t\t\tcontract RinanzeV2 is\\n    Ini...\n      PUSH 5CD8A76B\t\t\tcontract RinanzeV2 is\\n    Ini...\n      EQ \t\t\tcontract RinanzeV2 is\\n    Ini...\n      PUSH [tag] 20\t\t\tcontract RinanzeV2 is\\n    Ini...\n      JUMPI \t\t\tcontract RinanzeV2 is\\n    Ini...\n      DUP1 \t\t\tcontract RinanzeV2 is\\n    Ini...\n      PUSH 60F588B7\t\t\tcontract RinanzeV2 is\\n    Ini...\n      EQ \t\t\tcontract RinanzeV2 is\\n    Ini...\n      PUSH [tag] 21\t\t\tcontract RinanzeV2 is\\n    Ini...\n      JUMPI \t\t\tcontract RinanzeV2 is\\n    Ini...\n      PUSH [tag] 1\t\t\tcontract RinanzeV2 is\\n    Ini...\n      JUMP \t\t\tcontract RinanzeV2 is\\n    Ini...\n    tag 47\t\t\tcontract RinanzeV2 is\\n    Ini...\n      JUMPDEST \t\t\tcontract RinanzeV2 is\\n    Ini...\n      DUP1 \t\t\tcontract RinanzeV2 is\\n    Ini...\n      PUSH 313CE567\t\t\tcontract RinanzeV2 is\\n    Ini...\n      EQ \t\t\tcontract RinanzeV2 is\\n    Ini...\n      PUSH [tag] 12\t\t\tcontract RinanzeV2 is\\n    Ini...\n      JUMPI \t\t\tcontract RinanzeV2 is\\n    Ini...\n      DUP1 \t\t\tcontract RinanzeV2 is\\n    Ini...\n      PUSH 36568ABE\t\t\tcontract RinanzeV2 is\\n    Ini...\n      EQ \t\t\tcontract RinanzeV2 is\\n    Ini...\n      PUSH [tag] 13\t\t\tcontract RinanzeV2 is\\n    Ini...\n      JUMPI \t\t\tcontract RinanzeV2 is\\n    Ini...\n      DUP1 \t\t\tcontract RinanzeV2 is\\n    Ini...\n      PUSH 3F4BA83A\t\t\tcontract RinanzeV2 is\\n    Ini...\n      EQ \t\t\tcontract RinanzeV2 is\\n    Ini...\n      PUSH [tag] 14\t\t\tcontract RinanzeV2 is\\n    Ini...\n      JUMPI \t\t\tcontract RinanzeV2 is\\n    Ini...\n      DUP1 \t\t\tcontract RinanzeV2 is\\n    Ini...\n      PUSH 40C10F19\t\t\tcontract RinanzeV2 is\\n    Ini...\n      EQ \t\t\tcontract RinanzeV2 is\\n    Ini...\n      PUSH [tag] 15\t\t\tcontract RinanzeV2 is\\n    Ini...\n      JUMPI \t\t\tcontract RinanzeV2 is\\n    Ini...\n      DUP1 \t\t\tcontract RinanzeV2 is\\n    Ini...\n      PUSH 4CD88B76\t\t\tcontract RinanzeV2 is\\n    Ini...\n      EQ \t\t\tcontract RinanzeV2 is\\n    Ini...\n      PUSH [tag] 16\t\t\tcontract RinanzeV2 is\\n    Ini...\n      JUMPI \t\t\tcontract RinanzeV2 is\\n    Ini...\n      PUSH [tag] 1\t\t\tcontract RinanzeV2 is\\n    Ini...\n      JUMP \t\t\tcontract RinanzeV2 is\\n    Ini...\n    tag 46\t\t\tcontract RinanzeV2 is\\n    Ini...\n      JUMPDEST \t\t\tcontract RinanzeV2 is\\n    Ini...\n      DUP1 \t\t\tcontract RinanzeV2 is\\n    Ini...\n      PUSH 23B872DD\t\t\tcontract RinanzeV2 is\\n    Ini...\n      GT \t\t\tcontract RinanzeV2 is\\n    Ini...\n      PUSH [tag] 48\t\t\tcontract RinanzeV2 is\\n    Ini...\n      JUMPI \t\t\tcontract RinanzeV2 is\\n    Ini...\n      DUP1 \t\t\tcontract RinanzeV2 is\\n    Ini...\n      PUSH 23B872DD\t\t\tcontract RinanzeV2 is\\n    Ini...\n      EQ \t\t\tcontract RinanzeV2 is\\n    Ini...\n      PUSH [tag] 7\t\t\tcontract RinanzeV2 is\\n    Ini...\n      JUMPI \t\t\tcontract RinanzeV2 is\\n    Ini...\n      DUP1 \t\t\tcontract RinanzeV2 is\\n    Ini...\n      PUSH 248A9CA3\t\t\tcontract RinanzeV2 is\\n    Ini...\n      EQ \t\t\tcontract RinanzeV2 is\\n    Ini...\n      PUSH [tag] 8\t\t\tcontract RinanzeV2 is\\n    Ini...\n      JUMPI \t\t\tcontract RinanzeV2 is\\n    Ini...\n      DUP1 \t\t\tcontract RinanzeV2 is\\n    Ini...\n      PUSH 252400DA\t\t\tcontract RinanzeV2 is\\n    Ini...\n      EQ \t\t\tcontract RinanzeV2 is\\n    Ini...\n      PUSH [tag] 9\t\t\tcontract RinanzeV2 is\\n    Ini...\n      JUMPI \t\t\tcontract RinanzeV2 is\\n    Ini...\n      DUP1 \t\t\tcontract RinanzeV2 is\\n    Ini...\n      PUSH 2E5B15CE\t\t\tcontract RinanzeV2 is\\n    Ini...\n      EQ \t\t\tcontract RinanzeV2 is\\n    Ini...\n      PUSH [tag] 10\t\t\tcontract RinanzeV2 is\\n    Ini...\n      JUMPI \t\t\tcontract RinanzeV2 is\\n    Ini...\n      DUP1 \t\t\tcontract RinanzeV2 is\\n    Ini...\n      PUSH 2F2FF15D\t\t\tcontract RinanzeV2 is\\n    Ini...\n      EQ \t\t\tcontract RinanzeV2 is\\n    Ini...\n      PUSH [tag] 11\t\t\tcontract RinanzeV2 is\\n    Ini...\n      JUMPI \t\t\tcontract RinanzeV2 is\\n    Ini...\n      PUSH [tag] 1\t\t\tcontract RinanzeV2 is\\n    Ini...\n      JUMP \t\t\tcontract RinanzeV2 is\\n    Ini...\n    tag 48\t\t\tcontract RinanzeV2 is\\n    Ini...\n      JUMPDEST \t\t\tcontract RinanzeV2 is\\n    Ini...\n      DUP1 \t\t\tcontract RinanzeV2 is\\n    Ini...\n      PUSH 1FFC9A7\t\t\tcontract RinanzeV2 is\\n    Ini...\n      EQ \t\t\tcontract RinanzeV2 is\\n    Ini...\n      PUSH [tag] 2\t\t\tcontract RinanzeV2 is\\n    Ini...\n      JUMPI \t\t\tcontract RinanzeV2 is\\n    Ini...\n      DUP1 \t\t\tcontract RinanzeV2 is\\n    Ini...\n      PUSH 6A85F0F\t\t\tcontract RinanzeV2 is\\n    Ini...\n      EQ \t\t\tcontract RinanzeV2 is\\n    Ini...\n      PUSH [tag] 3\t\t\tcontract RinanzeV2 is\\n    Ini...\n      JUMPI \t\t\tcontract RinanzeV2 is\\n    Ini...\n      DUP1 \t\t\tcontract RinanzeV2 is\\n    Ini...\n      PUSH 6FDDE03\t\t\tcontract RinanzeV2 is\\n    Ini...\n      EQ \t\t\tcontract RinanzeV2 is\\n    Ini...\n      PUSH [tag] 4\t\t\tcontract RinanzeV2 is\\n    Ini...\n      JUMPI \t\t\tcontract RinanzeV2 is\\n    Ini...\n      DUP1 \t\t\tcontract RinanzeV2 is\\n    Ini...\n      PUSH 95EA7B3\t\t\tcontract RinanzeV2 is\\n    Ini...\n      EQ \t\t\tcontract RinanzeV2 is\\n    Ini...\n      PUSH [tag] 5\t\t\tcontract RinanzeV2 is\\n    Ini...\n      JUMPI \t\t\tcontract RinanzeV2 is\\n    Ini...\n      DUP1 \t\t\tcontract RinanzeV2 is\\n    Ini...\n      PUSH 18160DDD\t\t\tcontract RinanzeV2 is\\n    Ini...\n      EQ \t\t\tcontract RinanzeV2 is\\n    Ini...\n      PUSH [tag] 6\t\t\tcontract RinanzeV2 is\\n    Ini...\n      JUMPI \t\t\tcontract RinanzeV2 is\\n    Ini...\n    tag 1\t\t\tcontract RinanzeV2 is\\n    Ini...\n      JUMPDEST \t\t\tcontract RinanzeV2 is\\n    Ini...\n      PUSH 0\t\t\tcontract RinanzeV2 is\\n    Ini...\n      PUSH 0\t\t\tcontract RinanzeV2 is\\n    Ini...\n      REVERT \t\t\tcontract RinanzeV2 is\\n    Ini...\n    tag 2\t\t\tt(address to, uint256 amount) ...\n      JUMPDEST \t\t\tt(address to, uint256 amount) ...\n      CALLVALUE \t\t\tt(address to, uint256 amount) ...\n      DUP1 \t\t\tt(address to, uint256 amount) ...\n      ISZERO \t\t\tt(address to, uint256 amount) ...\n      PUSH [tag] 49\t\t\tt(address to, uint256 amount) ...\n      JUMPI \t\t\tt(address to, uint256 amount) ...\n      PUSH 0\t\t\tt(address to, uint256 amount) ...\n      PUSH 0\t\t\tt(address to, uint256 amount) ...\n      REVERT \t\t\tt(address to, uint256 amount) ...\n    tag 49\t\t\tt(address to, uint256 amount) ...\n      JUMPDEST \t\t\tt(address to, uint256 amount) ...\n      POP \t\t\tt(address to, uint256 amount) ...\n      PUSH [tag] 50\t\t\tt(address to, uint256 amount) ...\n      PUSH 4\t\t\tt(address to, uint256 amount) ...\n      DUP1 \t\t\tt(address to, uint256 amount) ...\n      CALLDATASIZE \t\t\tt(address to, uint256 amount) ...\n      SUB \t\t\tt(address to, uint256 amount) ...\n      DUP2 \t\t\tt(address to, uint256 amount) ...\n      ADD \t\t\tt(address to, uint256 amount) ...\n      SWAP1 \t\t\tt(address to, uint256 amount) ...\n      PUSH [tag] 51\t\t\tt(address to, uint256 amount) ...\n      SWAP2 \t\t\tt(address to, uint256 amount) ...\n      SWAP1 \t\t\tt(address to, uint256 amount) ...\n      PUSH [tag] 52\t\t\tt(address to, uint256 amount) ...\n      JUMP \t\t\tt(address to, uint256 amount) ...\n    tag 51\t\t\tt(address to, uint256 amount) ...\n      JUMPDEST \t\t\tt(address to, uint256 amount) ...\n      PUSH [tag] 53\t\t\tt(address to, uint256 amount) ...\n      JUMP \t\t\tt(address to, uint256 amount) ...\n    tag 50\t\t\tt(address to, uint256 amount) ...\n      JUMPDEST \t\t\tt(address to, uint256 amount) ...\n      PUSH 40\t\t\tt(address to, uint256 amount) ...\n      MLOAD \t\t\tt(address to, uint256 amount) ...\n      PUSH [tag] 54\t\t\tt(address to, uint256 amount) ...\n      SWAP2 \t\t\tt(address to, uint256 amount) ...\n      SWAP1 \t\t\tt(address to, uint256 amount) ...\n      PUSH [tag] 55\t\t\tt(address to, uint256 amount) ...\n      JUMP \t\t\tt(address to, uint256 amount) ...\n    tag 54\t\t\tt(address to, uint256 amount) ...\n      JUMPDEST \t\t\tt(address to, uint256 amount) ...\n      PUSH 40\t\t\tt(address to, uint256 amount) ...\n      MLOAD \t\t\tt(address to, uint256 amount) ...\n      DUP1 \t\t\tt(address to, uint256 amount) ...\n      SWAP2 \t\t\tt(address to, uint256 amount) ...\n      SUB \t\t\tt(address to, uint256 amount) ...\n      SWAP1 \t\t\tt(address to, uint256 amount) ...\n      RETURN \t\t\tt(address to, uint256 amount) ...\n    tag 3\t\t\tbytes32 public constant FREEZE...\n      JUMPDEST \t\t\tbytes32 public constant FREEZE...\n      CALLVALUE \t\t\tbytes32 public constant FREEZE...\n      DUP1 \t\t\tbytes32 public constant FREEZE...\n      ISZERO \t\t\tbytes32 public constant FREEZE...\n      PUSH [tag] 56\t\t\tbytes32 public constant FREEZE...\n      JUMPI \t\t\tbytes32 public constant FREEZE...\n      PUSH 0\t\t\tbytes32 public constant FREEZE...\n      PUSH 0\t\t\tbytes32 public constant FREEZE...\n      REVERT \t\t\tbytes32 public constant FREEZE...\n    tag 56\t\t\tbytes32 public constant FREEZE...\n      JUMPDEST \t\t\tbytes32 public constant FREEZE...\n      POP \t\t\tbytes32 public constant FREEZE...\n      PUSH [tag] 57\t\t\tbytes32 public constant FREEZE...\n      PUSH [tag] 58\t\t\tbytes32 public constant FREEZE...\n      JUMP \t\t\tbytes32 public constant FREEZE...\n    tag 57\t\t\tbytes32 public constant FREEZE...\n      JUMPDEST \t\t\tbytes32 public constant FREEZE...\n      PUSH 40\t\t\tbytes32 public constant FREEZE...\n      MLOAD \t\t\tbytes32 public constant FREEZE...\n      PUSH [tag] 59\t\t\tbytes32 public constant FREEZE...\n      SWAP2 \t\t\tbytes32 public constant FREEZE...\n      SWAP1 \t\t\tbytes32 public constant FREEZE...\n      PUSH [tag] 60\t\t\tbytes32 public constant FREEZE...\n      JUMP \t\t\tbytes32 public constant FREEZE...\n    tag 59\t\t\tbytes32 public constant FREEZE...\n      JUMPDEST \t\t\tbytes32 public constant FREEZE...\n      PUSH 40\t\t\tbytes32 public constant FREEZE...\n      MLOAD \t\t\tbytes32 public constant FREEZE...\n      DUP1 \t\t\tbytes32 public constant FREEZE...\n      SWAP2 \t\t\tbytes32 public constant FREEZE...\n      SUB \t\t\tbytes32 public constant FREEZE...\n      SWAP1 \t\t\tbytes32 public constant FREEZE...\n      RETURN \t\t\tbytes32 public constant FREEZE...\n    tag 4\t\t\tnction name() public view virt...\n      JUMPDEST \t\t\tnction name() public view virt...\n      CALLVALUE \t\t\tnction name() public view virt...\n      DUP1 \t\t\tnction name() public view virt...\n      ISZERO \t\t\tnction name() public view virt...\n      PUSH [tag] 61\t\t\tnction name() public view virt...\n      JUMPI \t\t\tnction name() public view virt...\n      PUSH 0\t\t\tnction name() public view virt...\n      PUSH 0\t\t\tnction name() public view virt...\n      REVERT \t\t\tnction name() public view virt...\n    tag 61\t\t\tnction name() public view virt...\n      JUMPDEST \t\t\tnction name() public view virt...\n      POP \t\t\tnction name() public view virt...\n      PUSH [tag] 62\t\t\tnction name() public view virt...\n      PUSH [tag] 63\t\t\tnction name() public view virt...\n      JUMP \t\t\tnction name() public view virt...\n    tag 62\t\t\tnction name() public view virt...\n      JUMPDEST \t\t\tnction name() public view virt...\n      PUSH 40\t\t\tnction name() public view virt...\n      MLOAD \t\t\tnction name() public view virt...\n      PUSH [tag] 64\t\t\tnction name() public view virt...\n      SWAP2 \t\t\tnction name() public view virt...\n      SWAP1 \t\t\tnction name() public view virt...\n      PUSH [tag] 65\t\t\tnction name() public view virt...\n      JUMP \t\t\tnction name() public view virt...\n    tag 64\t\t\tnction name() public view virt...\n      JUMPDEST \t\t\tnction name() public view virt...\n      PUSH 40\t\t\tnction name() public view virt...\n      MLOAD \t\t\tnction name() public view virt...\n      DUP1 \t\t\tnction name() public view virt...\n      SWAP2 \t\t\tnction name() public view virt...\n      SUB \t\t\tnction name() public view virt...\n      SWAP1 \t\t\tnction name() public view virt...\n      RETURN \t\t\tnction name() public view virt...\n    tag 5\t\t\tPausable handle pause check an...\n      JUMPDEST \t\t\tPausable handle pause check an...\n      CALLVALUE \t\t\tPausable handle pause check an...\n      DUP1 \t\t\tPausable handle pause check an...\n      ISZERO \t\t\tPausable handle pause check an...\n      PUSH [tag] 66\t\t\tPausable handle pause check an...\n      JUMPI \t\t\tPausable handle pause check an...\n      PUSH 0\t\t\tPausable handle pause check an...\n      PUSH 0\t\t\tPausable handle pause check an...\n      REVERT \t\t\tPausable handle pause check an...\n    tag 66\t\t\tPausable handle pause check an...\n      JUMPDEST \t\t\tPausable handle pause check an...\n      POP \t\t\tPausable handle pause check an...\n      PUSH [tag] 67\t\t\tPausable handle pause check an...\n      PUSH 4\t\t\tPausable handle pause check an...\n      DUP1 \t\t\tPausable handle pause check an...\n      CALLDATASIZE \t\t\tPausable handle pause check an...\n      SUB \t\t\tPausable handle pause check an...\n      DUP2 \t\t\tPausable handle pause check an...\n      ADD \t\t\tPausable handle pause check an...\n      SWAP1 \t\t\tPausable handle pause check an...\n      PUSH [tag] 68\t\t\tPausable handle pause check an...\n      SWAP2 \t\t\tPausable handle pause check an...\n      SWAP1 \t\t\tPausable handle pause check an...\n      PUSH [tag] 69\t\t\tPausable handle pause check an...\n      JUMP \t\t\tPausable handle pause check an...\n    tag 68\t\t\tPausable handle pause check an...\n      JUMPDEST \t\t\tPausable handle pause check an...\n      PUSH [tag] 70\t\t\tPausable handle pause check an...\n      JUMP \t\t\tPausable handle pause check an...\n    tag 67\t\t\tPausable handle pause check an...\n      JUMPDEST \t\t\tPausable handle pause check an...\n      PUSH 40\t\t\tPausable handle pause check an...\n      MLOAD \t\t\tPausable handle pause check an...\n      PUSH [tag] 71\t\t\tPausable handle pause check an...\n      SWAP2 \t\t\tPausable handle pause check an...\n      SWAP1 \t\t\tPausable handle pause check an...\n      PUSH [tag] 55\t\t\tPausable handle pause check an...\n      JUMP \t\t\tPausable handle pause check an...\n    tag 71\t\t\tPausable handle pause check an...\n      JUMPDEST \t\t\tPausable handle pause check an...\n      PUSH 40\t\t\tPausable handle pause check an...\n      MLOAD \t\t\tPausable handle pause check an...\n      DUP1 \t\t\tPausable handle pause check an...\n      SWAP2 \t\t\tPausable handle pause check an...\n      SUB \t\t\tPausable handle pause check an...\n      SWAP1 \t\t\tPausable handle pause check an...\n      RETURN \t\t\tPausable handle pause check an...\n    tag 6\t\t\t {\\n        require(_frozenWal...\n      JUMPDEST \t\t\t {\\n        require(_frozenWal...\n      CALLVALUE \t\t\t {\\n        require(_frozenWal...\n      DUP1 \t\t\t {\\n        require(_frozenWal...\n      ISZERO \t\t\t {\\n        require(_frozenWal...\n      PUSH [tag] 72\t\t\t {\\n        require(_frozenWal...\n      JUMPI \t\t\t {\\n        require(_frozenWal...\n      PUSH 0\t\t\t {\\n        require(_frozenWal...\n      PUSH 0\t\t\t {\\n        require(_frozenWal...\n      REVERT \t\t\t {\\n        require(_frozenWal...\n    tag 72\t\t\t {\\n        require(_frozenWal...\n      JUMPDEST \t\t\t {\\n        require(_frozenWal...\n      POP \t\t\t {\\n        require(_frozenWal...\n      PUSH [tag] 73\t\t\t {\\n        require(_frozenWal...\n      PUSH [tag] 74\t\t\t {\\n        require(_frozenWal...\n      JUMP \t\t\t {\\n        require(_frozenWal...\n    tag 73\t\t\t {\\n        require(_frozenWal...\n      JUMPDEST \t\t\t {\\n        require(_frozenWal...\n      PUSH 40\t\t\t {\\n        require(_frozenWal...\n      MLOAD \t\t\t {\\n        require(_frozenWal...\n      PUSH [tag] 75\t\t\t {\\n        require(_frozenWal...\n      SWAP2 \t\t\t {\\n        require(_frozenWal...\n      SWAP1 \t\t\t {\\n        require(_frozenWal...\n      PUSH [tag] 76\t\t\t {\\n        require(_frozenWal...\n      JUMP \t\t\t {\\n        require(_frozenWal...\n    tag 75\t\t\t {\\n        require(_frozenWal...\n      JUMPDEST \t\t\t {\\n        require(_frozenWal...\n      PUSH 40\t\t\t {\\n        require(_frozenWal...\n      MLOAD \t\t\t {\\n        require(_frozenWal...\n      DUP1 \t\t\t {\\n        require(_frozenWal...\n      SWAP2 \t\t\t {\\n        require(_frozenWal...\n      SUB \t\t\t {\\n        require(_frozenWal...\n      SWAP1 \t\t\t {\\n        require(_frozenWal...\n      RETURN \t\t\t {\\n        require(_frozenWal...\n    tag 7\t\t\t\n      JUMPDEST \t\t\t\n      CALLVALUE \t\t\t\n      DUP1 \t\t\t\n      ISZERO \t\t\t\n      PUSH [tag] 77\t\t\t\n      JUMPI \t\t\t\n      PUSH 0\t\t\t\n      PUSH 0\t\t\t\n      REVERT \t\t\t\n    tag 77\t\t\t\n      JUMPDEST \t\t\t\n      POP \t\t\t\n      PUSH [tag] 78\t\t\t\n      PUSH 4\t\t\t\n      DUP1 \t\t\t\n      CALLDATASIZE \t\t\t\n      SUB \t\t\t\n      DUP2 \t\t\t\n      ADD \t\t\t\n      SWAP1 \t\t\t\n      PUSH [tag] 79\t\t\t\n      SWAP2 \t\t\t\n      SWAP1 \t\t\t\n      PUSH [tag] 80\t\t\t\n      JUMP \t\t\t\n    tag 79\t\t\t\n      JUMPDEST \t\t\t\n      PUSH [tag] 81\t\t\t\n      JUMP \t\t\t\n    tag 78\t\t\t\n      JUMPDEST \t\t\t\n      PUSH 40\t\t\t\n      MLOAD \t\t\t\n      PUSH [tag] 82\t\t\t\n      SWAP2 \t\t\t\n      SWAP1 \t\t\t\n      PUSH [tag] 55\t\t\t\n      JUMP \t\t\t\n    tag 82\t\t\t\n      JUMPDEST \t\t\t\n      PUSH 40\t\t\t\n      MLOAD \t\t\t\n      DUP1 \t\t\t\n      SWAP2 \t\t\t\n      SUB \t\t\t\n      SWAP1 \t\t\t\n      RETURN \t\t\t\n    tag 8\t\t\ttraderRestrictionActive is tru...\n      JUMPDEST \t\t\ttraderRestrictionActive is tru...\n      CALLVALUE \t\t\ttraderRestrictionActive is tru...\n      DUP1 \t\t\ttraderRestrictionActive is tru...\n      ISZERO \t\t\ttraderRestrictionActive is tru...\n      PUSH [tag] 83\t\t\ttraderRestrictionActive is tru...\n      JUMPI \t\t\ttraderRestrictionActive is tru...\n      PUSH 0\t\t\ttraderRestrictionActive is tru...\n      PUSH 0\t\t\ttraderRestrictionActive is tru...\n      REVERT \t\t\ttraderRestrictionActive is tru...\n    tag 83\t\t\ttraderRestrictionActive is tru...\n      JUMPDEST \t\t\ttraderRestrictionActive is tru...\n      POP \t\t\ttraderRestrictionActive is tru...\n      PUSH [tag] 84\t\t\ttraderRestrictionActive is tru...\n      PUSH 4\t\t\ttraderRestrictionActive is tru...\n      DUP1 \t\t\ttraderRestrictionActive is tru...\n      CALLDATASIZE \t\t\ttraderRestrictionActive is tru...\n      SUB \t\t\ttraderRestrictionActive is tru...\n      DUP2 \t\t\ttraderRestrictionActive is tru...\n      ADD \t\t\ttraderRestrictionActive is tru...\n      SWAP1 \t\t\ttraderRestrictionActive is tru...\n      PUSH [tag] 85\t\t\ttraderRestrictionActive is tru...\n      SWAP2 \t\t\ttraderRestrictionActive is tru...\n      SWAP1 \t\t\ttraderRestrictionActive is tru...\n      PUSH [tag] 86\t\t\ttraderRestrictionActive is tru...\n      JUMP \t\t\ttraderRestrictionActive is tru...\n    tag 85\t\t\ttraderRestrictionActive is tru...\n      JUMPDEST \t\t\ttraderRestrictionActive is tru...\n      PUSH [tag] 87\t\t\ttraderRestrictionActive is tru...\n      JUMP \t\t\ttraderRestrictionActive is tru...\n    tag 84\t\t\ttraderRestrictionActive is tru...\n      JUMPDEST \t\t\ttraderRestrictionActive is tru...\n      PUSH 40\t\t\ttraderRestrictionActive is tru...\n      MLOAD \t\t\ttraderRestrictionActive is tru...\n      PUSH [tag] 88\t\t\ttraderRestrictionActive is tru...\n      SWAP2 \t\t\ttraderRestrictionActive is tru...\n      SWAP1 \t\t\ttraderRestrictionActive is tru...\n      PUSH [tag] 60\t\t\ttraderRestrictionActive is tru...\n      JUMP \t\t\ttraderRestrictionActive is tru...\n    tag 88\t\t\ttraderRestrictionActive is tru...\n      JUMPDEST \t\t\ttraderRestrictionActive is tru...\n      PUSH 40\t\t\ttraderRestrictionActive is tru...\n      MLOAD \t\t\ttraderRestrictionActive is tru...\n      DUP1 \t\t\ttraderRestrictionActive is tru...\n      SWAP2 \t\t\ttraderRestrictionActive is tru...\n      SUB \t\t\ttraderRestrictionActive is tru...\n      SWAP1 \t\t\ttraderRestrictionActive is tru...\n      RETURN \t\t\ttraderRestrictionActive is tru...\n    tag 9\t\t\tnction setTraderRestriction(bo...\n      JUMPDEST \t\t\tnction setTraderRestriction(bo...\n      CALLVALUE \t\t\tnction setTraderRestriction(bo...\n      DUP1 \t\t\tnction setTraderRestriction(bo...\n      ISZERO \t\t\tnction setTraderRestriction(bo...\n      PUSH [tag] 89\t\t\tnction setTraderRestriction(bo...\n      JUMPI \t\t\tnction setTraderRestriction(bo...\n      PUSH 0\t\t\tnction setTraderRestriction(bo...\n      PUSH 0\t\t\tnction setTraderRestriction(bo...\n      REVERT \t\t\tnction setTraderRestriction(bo...\n    tag 89\t\t\tnction setTraderRestriction(bo...\n      JUMPDEST \t\t\tnction setTraderRestriction(bo...\n      POP \t\t\tnction setTraderRestriction(bo...\n      PUSH [tag] 90\t\t\tnction setTraderRestriction(bo...\n      PUSH 4\t\t\tnction setTraderRestriction(bo...\n      DUP1 \t\t\tnction setTraderRestriction(bo...\n      CALLDATASIZE \t\t\tnction setTraderRestriction(bo...\n      SUB \t\t\tnction setTraderRestriction(bo...\n      DUP2 \t\t\tnction setTraderRestriction(bo...\n      ADD \t\t\tnction setTraderRestriction(bo...\n      SWAP1 \t\t\tnction setTraderRestriction(bo...\n      PUSH [tag] 91\t\t\tnction setTraderRestriction(bo...\n      SWAP2 \t\t\tnction setTraderRestriction(bo...\n      SWAP1 \t\t\tnction setTraderRestriction(bo...\n      PUSH [tag] 92\t\t\tnction setTraderRestriction(bo...\n      JUMP \t\t\tnction setTraderRestriction(bo...\n    tag 91\t\t\tnction setTraderRestriction(bo...\n      JUMPDEST \t\t\tnction setTraderRestriction(bo...\n      PUSH [tag] 93\t\t\tnction setTraderRestriction(bo...\n      JUMP \t\t\tnction setTraderRestriction(bo...\n    tag 90\t\t\tnction setTraderRestriction(bo...\n      JUMPDEST \t\t\tnction setTraderRestriction(bo...\n      STOP \t\t\tnction setTraderRestriction(bo...\n    tag 10\t\t\tbool public traderRestrictionA...\n      JUMPDEST \t\t\tbool public traderRestrictionA...\n      CALLVALUE \t\t\tbool public traderRestrictionA...\n      DUP1 \t\t\tbool public traderRestrictionA...\n      ISZERO \t\t\tbool public traderRestrictionA...\n      PUSH [tag] 94\t\t\tbool public traderRestrictionA...\n      JUMPI \t\t\tbool public traderRestrictionA...\n      PUSH 0\t\t\tbool public traderRestrictionA...\n      PUSH 0\t\t\tbool public traderRestrictionA...\n      REVERT \t\t\tbool public traderRestrictionA...\n    tag 94\t\t\tbool public traderRestrictionA...\n      JUMPDEST \t\t\tbool public traderRestrictionA...\n      POP \t\t\tbool public traderRestrictionA...\n      PUSH [tag] 95\t\t\tbool public traderRestrictionA...\n      PUSH [tag] 96\t\t\tbool public traderRestrictionA...\n      JUMP \t\t\tbool public traderRestrictionA...\n    tag 95\t\t\tbool public traderRestrictionA...\n      JUMPDEST \t\t\tbool public traderRestrictionA...\n      PUSH 40\t\t\tbool public traderRestrictionA...\n      MLOAD \t\t\tbool public traderRestrictionA...\n      PUSH [tag] 97\t\t\tbool public traderRestrictionA...\n      SWAP2 \t\t\tbool public traderRestrictionA...\n      SWAP1 \t\t\tbool public traderRestrictionA...\n      PUSH [tag] 55\t\t\tbool public traderRestrictionA...\n      JUMP \t\t\tbool public traderRestrictionA...\n    tag 97\t\t\tbool public traderRestrictionA...\n      JUMPDEST \t\t\tbool public traderRestrictionA...\n      PUSH 40\t\t\tbool public traderRestrictionA...\n      MLOAD \t\t\tbool public traderRestrictionA...\n      DUP1 \t\t\tbool public traderRestrictionA...\n      SWAP2 \t\t\tbool public traderRestrictionA...\n      SUB \t\t\tbool public traderRestrictionA...\n      SWAP1 \t\t\tbool public traderRestrictionA...\n      RETURN \t\t\tbool public traderRestrictionA...\n    tag 11\t\t\t Upgrade Authorization (only o...\n      JUMPDEST \t\t\t Upgrade Authorization (only o...\n      CALLVALUE \t\t\t Upgrade Authorization (only o...\n      DUP1 \t\t\t Upgrade Authorization (only o...\n      ISZERO \t\t\t Upgrade Authorization (only o...\n      PUSH [tag] 98\t\t\t Upgrade Authorization (only o...\n      JUMPI \t\t\t Upgrade Authorization (only o...\n      PUSH 0\t\t\t Upgrade Authorization (only o...\n      PUSH 0\t\t\t Upgrade Authorization (only o...\n      REVERT \t\t\t Upgrade Authorization (only o...\n    tag 98\t\t\t Upgrade Authorization (only o...\n      JUMPDEST \t\t\t Upgrade Authorization (only o...\n      POP \t\t\t Upgrade Authorization (only o...\n      PUSH [tag] 99\t\t\t Upgrade Authorization (only o...\n      PUSH 4\t\t\t Upgrade Authorization (only o...\n      DUP1 \t\t\t Upgrade Authorization (only o...\n      CALLDATASIZE \t\t\t Upgrade Authorization (only o...\n      SUB \t\t\t Upgrade Authorization (only o...\n      DUP2 \t\t\t Upgrade Authorization (only o...\n      ADD \t\t\t Upgrade Authorization (only o...\n      SWAP1 \t\t\t Upgrade Authorization (only o...\n      PUSH [tag] 100\t\t\t Upgrade Authorization (only o...\n      SWAP2 \t\t\t Upgrade Authorization (only o...\n      SWAP1 \t\t\t Upgrade Authorization (only o...\n      PUSH [tag] 101\t\t\t Upgrade Authorization (only o...\n      JUMP \t\t\t Upgrade Authorization (only o...\n    tag 100\t\t\t Upgrade Authorization (only o...\n      JUMPDEST \t\t\t Upgrade Authorization (only o...\n      PUSH [tag] 102\t\t\t Upgrade Authorization (only o...\n      JUMP \t\t\t Upgrade Authorization (only o...\n    tag 99\t\t\t Upgrade Authorization (only o...\n      JUMPDEST \t\t\t Upgrade Authorization (only o...\n      STOP \t\t\t Upgrade Authorization (only o...\n    tag 12\t\t\t    emit WalletFrozen(account)...\n      JUMPDEST \t\t\t    emit WalletFrozen(account)...\n      CALLVALUE \t\t\t    emit WalletFrozen(account)...\n      DUP1 \t\t\t    emit WalletFrozen(account)...\n      ISZERO \t\t\t    emit WalletFrozen(account)...\n      PUSH [tag] 103\t\t\t    emit WalletFrozen(account)...\n      JUMPI \t\t\t    emit WalletFrozen(account)...\n      PUSH 0\t\t\t    emit WalletFrozen(account)...\n      PUSH 0\t\t\t    emit WalletFrozen(account)...\n      REVERT \t\t\t    emit WalletFrozen(account)...\n    tag 103\t\t\t    emit WalletFrozen(account)...\n      JUMPDEST \t\t\t    emit WalletFrozen(account)...\n      POP \t\t\t    emit WalletFrozen(account)...\n      PUSH [tag] 104\t\t\t    emit WalletFrozen(account)...\n      PUSH [tag] 105\t\t\t    emit WalletFrozen(account)...\n      JUMP \t\t\t    emit WalletFrozen(account)...\n    tag 104\t\t\t    emit WalletFrozen(account)...\n      JUMPDEST \t\t\t    emit WalletFrozen(account)...\n      PUSH 40\t\t\t    emit WalletFrozen(account)...\n      MLOAD \t\t\t    emit WalletFrozen(account)...\n      PUSH [tag] 106\t\t\t    emit WalletFrozen(account)...\n      SWAP2 \t\t\t    emit WalletFrozen(account)...\n      SWAP1 \t\t\t    emit WalletFrozen(account)...\n      PUSH [tag] 107\t\t\t    emit WalletFrozen(account)...\n      JUMP \t\t\t    emit WalletFrozen(account)...\n    tag 106\t\t\t    emit WalletFrozen(account)...\n      JUMPDEST \t\t\t    emit WalletFrozen(account)...\n      PUSH 40\t\t\t    emit WalletFrozen(account)...\n      MLOAD \t\t\t    emit WalletFrozen(account)...\n      DUP1 \t\t\t    emit WalletFrozen(account)...\n      SWAP2 \t\t\t    emit WalletFrozen(account)...\n      SUB \t\t\t    emit WalletFrozen(account)...\n      SWAP1 \t\t\t    emit WalletFrozen(account)...\n      RETURN \t\t\t    emit WalletFrozen(account)...\n    tag 13\t\t\t\n      JUMPDEST \t\t\t\n      CALLVALUE \t\t\t\n      DUP1 \t\t\t\n      ISZERO \t\t\t\n      PUSH [tag] 108\t\t\t\n      JUMPI \t\t\t\n      PUSH 0\t\t\t\n      PUSH 0\t\t\t\n      REVERT \t\t\t\n    tag 108\t\t\t\n      JUMPDEST \t\t\t\n      POP \t\t\t\n      PUSH [tag] 109\t\t\t\n      PUSH 4\t\t\t\n      DUP1 \t\t\t\n      CALLDATASIZE \t\t\t\n      SUB \t\t\t\n      DUP2 \t\t\t\n      ADD \t\t\t\n      SWAP1 \t\t\t\n      PUSH [tag] 110\t\t\t\n      SWAP2 \t\t\t\n      SWAP1 \t\t\t\n      PUSH [tag] 101\t\t\t\n      JUMP \t\t\t\n    tag 110\t\t\t\n      JUMPDEST \t\t\t\n      PUSH [tag] 111\t\t\t\n      JUMP \t\t\t\n    tag 109\t\t\t\n      JUMPDEST \t\t\t\n      STOP \t\t\t\n    tag 14\t\t\tnction unpause() external only...\n      JUMPDEST \t\t\tnction unpause() external only...\n      CALLVALUE \t\t\tnction unpause() external only...\n      DUP1 \t\t\tnction unpause() external only...\n      ISZERO \t\t\tnction unpause() external only...\n      PUSH [tag] 112\t\t\tnction unpause() external only...\n      JUMPI \t\t\tnction unpause() external only...\n      PUSH 0\t\t\tnction unpause() external only...\n      PUSH 0\t\t\tnction unpause() external only...\n      REVERT \t\t\tnction unpause() external only...\n    tag 112\t\t\tnction unpause() external only...\n      JUMPDEST \t\t\tnction unpause() external only...\n      POP \t\t\tnction unpause() external only...\n      PUSH [tag] 113\t\t\tnction unpause() external only...\n      PUSH [tag] 114\t\t\tnction unpause() external only...\n      JUMP \t\t\tnction unpause() external only...\n    tag 113\t\t\tnction unpause() external only...\n      JUMPDEST \t\t\tnction unpause() external only...\n      STOP \t\t\tnction unpause() external only...\n    tag 15\t\t\tnction mint(address to, uint25...\n      JUMPDEST \t\t\tnction mint(address to, uint25...\n      CALLVALUE \t\t\tnction mint(address to, uint25...\n      DUP1 \t\t\tnction mint(address to, uint25...\n      ISZERO \t\t\tnction mint(address to, uint25...\n      PUSH [tag] 115\t\t\tnction mint(address to, uint25...\n      JUMPI \t\t\tnction mint(address to, uint25...\n      PUSH 0\t\t\tnction mint(address to, uint25...\n      PUSH 0\t\t\tnction mint(address to, uint25...\n      REVERT \t\t\tnction mint(address to, uint25...\n    tag 115\t\t\tnction mint(address to, uint25...\n      JUMPDEST \t\t\tnction mint(address to, uint25...\n      POP \t\t\tnction mint(address to, uint25...\n      PUSH [tag] 116\t\t\tnction mint(address to, uint25...\n      PUSH 4\t\t\tnction mint(address to, uint25...\n      DUP1 \t\t\tnction mint(address to, uint25...\n      CALLDATASIZE \t\t\tnction mint(address to, uint25...\n      SUB \t\t\tnction mint(address to, uint25...\n      DUP2 \t\t\tnction mint(address to, uint25...\n      ADD \t\t\tnction mint(address to, uint25...\n      SWAP1 \t\t\tnction mint(address to, uint25...\n      PUSH [tag] 117\t\t\tnction mint(address to, uint25...\n      SWAP2 \t\t\tnction mint(address to, uint25...\n      SWAP1 \t\t\tnction mint(address to, uint25...\n      PUSH [tag] 69\t\t\tnction mint(address to, uint25...\n      JUMP \t\t\tnction mint(address to, uint25...\n    tag 117\t\t\tnction mint(address to, uint25...\n      JUMPDEST \t\t\tnction mint(address to, uint25...\n      PUSH [tag] 118\t\t\tnction mint(address to, uint25...\n      JUMP \t\t\tnction mint(address to, uint25...\n    tag 116\t\t\tnction mint(address to, uint25...\n      JUMPDEST \t\t\tnction mint(address to, uint25...\n      STOP \t\t\tnction mint(address to, uint25...\n    tag 16\t\t\tfunction initialize(\\n        ...\n      JUMPDEST \t\t\tfunction initialize(\\n        ...\n      CALLVALUE \t\t\tfunction initialize(\\n        ...\n      DUP1 \t\t\tfunction initialize(\\n        ...\n      ISZERO \t\t\tfunction initialize(\\n        ...\n      PUSH [tag] 119\t\t\tfunction initialize(\\n        ...\n      JUMPI \t\t\tfunction initialize(\\n        ...\n      PUSH 0\t\t\tfunction initialize(\\n        ...\n      PUSH 0\t\t\tfunction initialize(\\n        ...\n      REVERT \t\t\tfunction initialize(\\n        ...\n    tag 119\t\t\tfunction initialize(\\n        ...\n      JUMPDEST \t\t\tfunction initialize(\\n        ...\n      POP \t\t\tfunction initialize(\\n        ...\n      PUSH [tag] 120\t\t\tfunction initialize(\\n        ...\n      PUSH 4\t\t\tfunction initialize(\\n        ...\n      DUP1 \t\t\tfunction initialize(\\n        ...\n      CALLDATASIZE \t\t\tfunction initialize(\\n        ...\n      SUB \t\t\tfunction initialize(\\n        ...\n      DUP2 \t\t\tfunction initialize(\\n        ...\n      ADD \t\t\tfunction initialize(\\n        ...\n      SWAP1 \t\t\tfunction initialize(\\n        ...\n      PUSH [tag] 121\t\t\tfunction initialize(\\n        ...\n      SWAP2 \t\t\tfunction initialize(\\n        ...\n      SWAP1 \t\t\tfunction initialize(\\n        ...\n      PUSH [tag] 122\t\t\tfunction initialize(\\n        ...\n      JUMP \t\t\tfunction initialize(\\n        ...\n    tag 121\t\t\tfunction initialize(\\n        ...\n      JUMPDEST \t\t\tfunction initialize(\\n        ...\n      PUSH [tag] 123\t\t\tfunction initialize(\\n        ...\n      JUMP \t\t\tfunction initialize(\\n        ...\n    tag 120\t\t\tfunction initialize(\\n        ...\n      JUMPDEST \t\t\tfunction initialize(\\n        ...\n      STOP \t\t\tfunction initialize(\\n        ...\n    tag 17\t\t\t \"Not frozen\");\\n        _froz...\n      JUMPDEST \t\t\t \"Not frozen\");\\n        _froz...\n      PUSH [tag] 124\t\t\t \"Not frozen\");\\n        _froz...\n      PUSH 4\t\t\t \"Not frozen\");\\n        _froz...\n      DUP1 \t\t\t \"Not frozen\");\\n        _froz...\n      CALLDATASIZE \t\t\t \"Not frozen\");\\n        _froz...\n      SUB \t\t\t \"Not frozen\");\\n        _froz...\n      DUP2 \t\t\t \"Not frozen\");\\n        _froz...\n      ADD \t\t\t \"Not frozen\");\\n        _froz...\n      SWAP1 \t\t\t \"Not frozen\");\\n        _froz...\n      PUSH [tag] 125\t\t\t \"Not frozen\");\\n        _froz...\n      SWAP2 \t\t\t \"Not frozen\");\\n        _froz...\n      SWAP1 \t\t\t \"Not frozen\");\\n        _froz...\n      PUSH [tag] 126\t\t\t \"Not frozen\");\\n        _froz...\n      JUMP \t\t\t \"Not frozen\");\\n        _froz...\n    tag 125\t\t\t \"Not frozen\");\\n        _froz...\n      JUMPDEST \t\t\t \"Not frozen\");\\n        _froz...\n      PUSH [tag] 127\t\t\t \"Not frozen\");\\n        _froz...\n      JUMP \t\t\t \"Not frozen\");\\n        _froz...\n    tag 124\t\t\t \"Not frozen\");\\n        _froz...\n      JUMPDEST \t\t\t \"Not frozen\");\\n        _froz...\n      STOP \t\t\t \"Not frozen\");\\n        _froz...\n    tag 18\t\t\tunt) external onlyRole(MINTER_...\n      JUMPDEST \t\t\tunt) external onlyRole(MINTER_...\n      CALLVALUE \t\t\tunt) external onlyRole(MINTER_...\n      DUP1 \t\t\tunt) external onlyRole(MINTER_...\n      ISZERO \t\t\tunt) external onlyRole(MINTER_...\n      PUSH [tag] 128\t\t\tunt) external onlyRole(MINTER_...\n      JUMPI \t\t\tunt) external onlyRole(MINTER_...\n      PUSH 0\t\t\tunt) external onlyRole(MINTER_...\n      PUSH 0\t\t\tunt) external onlyRole(MINTER_...\n      REVERT \t\t\tunt) external onlyRole(MINTER_...\n    tag 128\t\t\tunt) external onlyRole(MINTER_...\n      JUMPDEST \t\t\tunt) external onlyRole(MINTER_...\n      POP \t\t\tunt) external onlyRole(MINTER_...\n      PUSH [tag] 129\t\t\tunt) external onlyRole(MINTER_...\n      PUSH [tag] 130\t\t\tunt) external onlyRole(MINTER_...\n      JUMP \t\t\tunt) external onlyRole(MINTER_...\n    tag 129\t\t\tunt) external onlyRole(MINTER_...\n      JUMPDEST \t\t\tunt) external onlyRole(MINTER_...\n      PUSH 40\t\t\tunt) external onlyRole(MINTER_...\n      MLOAD \t\t\tunt) external onlyRole(MINTER_...\n      PUSH [tag] 131\t\t\tunt) external onlyRole(MINTER_...\n      SWAP2 \t\t\tunt) external onlyRole(MINTER_...\n      SWAP1 \t\t\tunt) external onlyRole(MINTER_...\n      PUSH [tag] 60\t\t\tunt) external onlyRole(MINTER_...\n      JUMP \t\t\tunt) external onlyRole(MINTER_...\n    tag 131\t\t\tunt) external onlyRole(MINTER_...\n      JUMPDEST \t\t\tunt) external onlyRole(MINTER_...\n      PUSH 40\t\t\tunt) external onlyRole(MINTER_...\n      MLOAD \t\t\tunt) external onlyRole(MINTER_...\n      DUP1 \t\t\tunt) external onlyRole(MINTER_...\n      SWAP2 \t\t\tunt) external onlyRole(MINTER_...\n      SUB \t\t\tunt) external onlyRole(MINTER_...\n      SWAP1 \t\t\tunt) external onlyRole(MINTER_...\n      RETURN \t\t\tunt) external onlyRole(MINTER_...\n    tag 19\t\t\tole(FREEZER_ROLE, msg.sender);...\n      JUMPDEST \t\t\tole(FREEZER_ROLE, msg.sender);...\n      CALLVALUE \t\t\tole(FREEZER_ROLE, msg.sender);...\n      DUP1 \t\t\tole(FREEZER_ROLE, msg.sender);...\n      ISZERO \t\t\tole(FREEZER_ROLE, msg.sender);...\n      PUSH [tag] 132\t\t\tole(FREEZER_ROLE, msg.sender);...\n      JUMPI \t\t\tole(FREEZER_ROLE, msg.sender);...\n      PUSH 0\t\t\tole(FREEZER_ROLE, msg.sender);...\n      PUSH 0\t\t\tole(FREEZER_ROLE, msg.sender);...\n      REVERT \t\t\tole(FREEZER_ROLE, msg.sender);...\n    tag 132\t\t\tole(FREEZER_ROLE, msg.sender);...\n      JUMPDEST \t\t\tole(FREEZER_ROLE, msg.sender);...\n      POP \t\t\tole(FREEZER_ROLE, msg.sender);...\n      PUSH [tag] 133\t\t\tole(FREEZER_ROLE, msg.sender);...\n      PUSH [tag] 134\t\t\tole(FREEZER_ROLE, msg.sender);...\n      JUMP \t\t\tole(FREEZER_ROLE, msg.sender);...\n    tag 133\t\t\tole(FREEZER_ROLE, msg.sender);...\n      JUMPDEST \t\t\tole(FREEZER_ROLE, msg.sender);...\n      PUSH 40\t\t\tole(FREEZER_ROLE, msg.sender);...\n      MLOAD \t\t\tole(FREEZER_ROLE, msg.sender);...\n      PUSH [tag] 135\t\t\tole(FREEZER_ROLE, msg.sender);...\n      SWAP2 \t\t\tole(FREEZER_ROLE, msg.sender);...\n      SWAP1 \t\t\tole(FREEZER_ROLE, msg.sender);...\n      PUSH [tag] 55\t\t\tole(FREEZER_ROLE, msg.sender);...\n      JUMP \t\t\tole(FREEZER_ROLE, msg.sender);...\n    tag 135\t\t\tole(FREEZER_ROLE, msg.sender);...\n      JUMPDEST \t\t\tole(FREEZER_ROLE, msg.sender);...\n      PUSH 40\t\t\tole(FREEZER_ROLE, msg.sender);...\n      MLOAD \t\t\tole(FREEZER_ROLE, msg.sender);...\n      DUP1 \t\t\tole(FREEZER_ROLE, msg.sender);...\n      SWAP2 \t\t\tole(FREEZER_ROLE, msg.sender);...\n      SUB \t\t\tole(FREEZER_ROLE, msg.sender);...\n      SWAP1 \t\t\tole(FREEZER_ROLE, msg.sender);...\n      RETURN \t\t\tole(FREEZER_ROLE, msg.sender);...\n    tag 20\t\t\tnction initializeV2() external...\n      JUMPDEST \t\t\tnction initializeV2() external...\n      CALLVALUE \t\t\tnction initializeV2() external...\n      DUP1 \t\t\tnction initializeV2() external...\n      ISZERO \t\t\tnction initializeV2() external...\n      PUSH [tag] 136\t\t\tnction initializeV2() external...\n      JUMPI \t\t\tnction initializeV2() external...\n      PUSH 0\t\t\tnction initializeV2() external...\n      PUSH 0\t\t\tnction initializeV2() external...\n      REVERT \t\t\tnction initializeV2() external...\n    tag 136\t\t\tnction initializeV2() external...\n      JUMPDEST \t\t\tnction initializeV2() external...\n      POP \t\t\tnction initializeV2() external...\n      PUSH [tag] 137\t\t\tnction initializeV2() external...\n      PUSH [tag] 138\t\t\tnction initializeV2() external...\n      JUMP \t\t\tnction initializeV2() external...\n    tag 137\t\t\tnction initializeV2() external...\n      JUMPDEST \t\t\tnction initializeV2() external...\n      STOP \t\t\tnction initializeV2() external...\n    tag 21\t\t\tnction unfreezeWallet(address ...\n      JUMPDEST \t\t\tnction unfreezeWallet(address ...\n      CALLVALUE \t\t\tnction unfreezeWallet(address ...\n      DUP1 \t\t\tnction unfreezeWallet(address ...\n      ISZERO \t\t\tnction unfreezeWallet(address ...\n      PUSH [tag] 139\t\t\tnction unfreezeWallet(address ...\n      JUMPI \t\t\tnction unfreezeWallet(address ...\n      PUSH 0\t\t\tnction unfreezeWallet(address ...\n      PUSH 0\t\t\tnction unfreezeWallet(address ...\n      REVERT \t\t\tnction unfreezeWallet(address ...\n    tag 139\t\t\tnction unfreezeWallet(address ...\n      JUMPDEST \t\t\tnction unfreezeWallet(address ...\n      POP \t\t\tnction unfreezeWallet(address ...\n      PUSH [tag] 140\t\t\tnction unfreezeWallet(address ...\n      PUSH 4\t\t\tnction unfreezeWallet(address ...\n      DUP1 \t\t\tnction unfreezeWallet(address ...\n      CALLDATASIZE \t\t\tnction unfreezeWallet(address ...\n      SUB \t\t\tnction unfreezeWallet(address ...\n      DUP2 \t\t\tnction unfreezeWallet(address ...\n      ADD \t\t\tnction unfreezeWallet(address ...\n      SWAP1 \t\t\tnction unfreezeWallet(address ...\n      PUSH [tag] 141\t\t\tnction unfreezeWallet(address ...\n      SWAP2 \t\t\tnction unfreezeWallet(address ...\n      SWAP1 \t\t\tnction unfreezeWallet(address ...\n      PUSH [tag] 142\t\t\tnction unfreezeWallet(address ...\n      JUMP \t\t\tnction unfreezeWallet(address ...\n    tag 141\t\t\tnction unfreezeWallet(address ...\n      JUMPDEST \t\t\tnction unfreezeWallet(address ...\n      PUSH [tag] 143\t\t\tnction unfreezeWallet(address ...\n      JUMP \t\t\tnction unfreezeWallet(address ...\n    tag 140\t\t\tnction unfreezeWallet(address ...\n      JUMPDEST \t\t\tnction unfreezeWallet(address ...\n      STOP \t\t\tnction unfreezeWallet(address ...\n    tag 22\t\t\tAUSER_ROLE) {\\n        _pause(...\n      JUMPDEST \t\t\tAUSER_ROLE) {\\n        _pause(...\n      CALLVALUE \t\t\tAUSER_ROLE) {\\n        _pause(...\n      DUP1 \t\t\tAUSER_ROLE) {\\n        _pause(...\n      ISZERO \t\t\tAUSER_ROLE) {\\n        _pause(...\n      PUSH [tag] 144\t\t\tAUSER_ROLE) {\\n        _pause(...\n      JUMPI \t\t\tAUSER_ROLE) {\\n        _pause(...\n      PUSH 0\t\t\tAUSER_ROLE) {\\n        _pause(...\n      PUSH 0\t\t\tAUSER_ROLE) {\\n        _pause(...\n      REVERT \t\t\tAUSER_ROLE) {\\n        _pause(...\n    tag 144\t\t\tAUSER_ROLE) {\\n        _pause(...\n      JUMPDEST \t\t\tAUSER_ROLE) {\\n        _pause(...\n      POP \t\t\tAUSER_ROLE) {\\n        _pause(...\n      PUSH [tag] 145\t\t\tAUSER_ROLE) {\\n        _pause(...\n      PUSH 4\t\t\tAUSER_ROLE) {\\n        _pause(...\n      DUP1 \t\t\tAUSER_ROLE) {\\n        _pause(...\n      CALLDATASIZE \t\t\tAUSER_ROLE) {\\n        _pause(...\n      SUB \t\t\tAUSER_ROLE) {\\n        _pause(...\n      DUP2 \t\t\tAUSER_ROLE) {\\n        _pause(...\n      ADD \t\t\tAUSER_ROLE) {\\n        _pause(...\n      SWAP1 \t\t\tAUSER_ROLE) {\\n        _pause(...\n      PUSH [tag] 146\t\t\tAUSER_ROLE) {\\n        _pause(...\n      SWAP2 \t\t\tAUSER_ROLE) {\\n        _pause(...\n      SWAP1 \t\t\tAUSER_ROLE) {\\n        _pause(...\n      PUSH [tag] 142\t\t\tAUSER_ROLE) {\\n        _pause(...\n      JUMP \t\t\tAUSER_ROLE) {\\n        _pause(...\n    tag 146\t\t\tAUSER_ROLE) {\\n        _pause(...\n      JUMPDEST \t\t\tAUSER_ROLE) {\\n        _pause(...\n      PUSH [tag] 147\t\t\tAUSER_ROLE) {\\n        _pause(...\n      JUMP \t\t\tAUSER_ROLE) {\\n        _pause(...\n    tag 145\t\t\tAUSER_ROLE) {\\n        _pause(...\n      JUMPDEST \t\t\tAUSER_ROLE) {\\n        _pause(...\n      PUSH 40\t\t\tAUSER_ROLE) {\\n        _pause(...\n      MLOAD \t\t\tAUSER_ROLE) {\\n        _pause(...\n      PUSH [tag] 148\t\t\tAUSER_ROLE) {\\n        _pause(...\n      SWAP2 \t\t\tAUSER_ROLE) {\\n        _pause(...\n      SWAP1 \t\t\tAUSER_ROLE) {\\n        _pause(...\n      PUSH [tag] 76\t\t\tAUSER_ROLE) {\\n        _pause(...\n      JUMP \t\t\tAUSER_ROLE) {\\n        _pause(...\n    tag 148\t\t\tAUSER_ROLE) {\\n        _pause(...\n      JUMPDEST \t\t\tAUSER_ROLE) {\\n        _pause(...\n      PUSH 40\t\t\tAUSER_ROLE) {\\n        _pause(...\n      MLOAD \t\t\tAUSER_ROLE) {\\n        _pause(...\n      DUP1 \t\t\tAUSER_ROLE) {\\n        _pause(...\n      SWAP2 \t\t\tAUSER_ROLE) {\\n        _pause(...\n      SUB \t\t\tAUSER_ROLE) {\\n        _pause(...\n      SWAP1 \t\t\tAUSER_ROLE) {\\n        _pause(...\n      RETURN \t\t\tAUSER_ROLE) {\\n        _pause(...\n    tag 23\t\t\tunction name() public view vir...\n      JUMPDEST \t\t\tunction name() public view vir...\n      CALLVALUE \t\t\tunction name() public view vir...\n      DUP1 \t\t\tunction name() public view vir...\n      ISZERO \t\t\tunction name() public view vir...\n      PUSH [tag] 149\t\t\tunction name() public view vir...\n      JUMPI \t\t\tunction name() public view vir...\n      PUSH 0\t\t\tunction name() public view vir...\n      PUSH 0\t\t\tunction name() public view vir...\n      REVERT \t\t\tunction name() public view vir...\n    tag 149\t\t\tunction name() public view vir...\n      JUMPDEST \t\t\tunction name() public view vir...\n      POP \t\t\tunction name() public view vir...\n      PUSH [tag] 150\t\t\tunction name() public view vir...\n      PUSH [tag] 151\t\t\tunction name() public view vir...\n      JUMP \t\t\tunction name() public view vir...\n    tag 150\t\t\tunction name() public view vir...\n      JUMPDEST \t\t\tunction name() public view vir...\n      STOP \t\t\tunction name() public view vir...\n    tag 24\t\t\t function symbol() public view...\n      JUMPDEST \t\t\t function symbol() public view...\n      CALLVALUE \t\t\t function symbol() public view...\n      DUP1 \t\t\t function symbol() public view...\n      ISZERO \t\t\t function symbol() public view...\n      PUSH [tag] 152\t\t\t function symbol() public view...\n      JUMPI \t\t\t function symbol() public view...\n      PUSH 0\t\t\t function symbol() public view...\n      PUSH 0\t\t\t function symbol() public view...\n      REVERT \t\t\t function symbol() public view...\n    tag 152\t\t\t function symbol() public view...\n      JUMPDEST \t\t\t function symbol() public view...\n      POP \t\t\t function symbol() public view...\n      PUSH [tag] 153\t\t\t function symbol() public view...\n      PUSH [tag] 154\t\t\t function symbol() public view...\n      JUMP \t\t\t function symbol() public view...\n    tag 153\t\t\t function symbol() public view...\n      JUMPDEST \t\t\t function symbol() public view...\n      STOP \t\t\t function symbol() public view...\n    tag 25\t\t\tnction pause() external onlyRo...\n      JUMPDEST \t\t\tnction pause() external onlyRo...\n      CALLVALUE \t\t\tnction pause() external onlyRo...\n      DUP1 \t\t\tnction pause() external onlyRo...\n      ISZERO \t\t\tnction pause() external onlyRo...\n      PUSH [tag] 155\t\t\tnction pause() external onlyRo...\n      JUMPI \t\t\tnction pause() external onlyRo...\n      PUSH 0\t\t\tnction pause() external onlyRo...\n      PUSH 0\t\t\tnction pause() external onlyRo...\n      REVERT \t\t\tnction pause() external onlyRo...\n    tag 155\t\t\tnction pause() external onlyRo...\n      JUMPDEST \t\t\tnction pause() external onlyRo...\n      POP \t\t\tnction pause() external onlyRo...\n      PUSH [tag] 156\t\t\tnction pause() external onlyRo...\n      PUSH [tag] 157\t\t\tnction pause() external onlyRo...\n      JUMP \t\t\tnction pause() external onlyRo...\n    tag 156\t\t\tnction pause() external onlyRo...\n      JUMPDEST \t\t\tnction pause() external onlyRo...\n      STOP \t\t\tnction pause() external onlyRo...\n    tag 26\t\t\t   _grantRole(MINTER_ROLE, msg...\n      JUMPDEST \t\t\t   _grantRole(MINTER_ROLE, msg...\n      CALLVALUE \t\t\t   _grantRole(MINTER_ROLE, msg...\n      DUP1 \t\t\t   _grantRole(MINTER_ROLE, msg...\n      ISZERO \t\t\t   _grantRole(MINTER_ROLE, msg...\n      PUSH [tag] 158\t\t\t   _grantRole(MINTER_ROLE, msg...\n      JUMPI \t\t\t   _grantRole(MINTER_ROLE, msg...\n      PUSH 0\t\t\t   _grantRole(MINTER_ROLE, msg...\n      PUSH 0\t\t\t   _grantRole(MINTER_ROLE, msg...\n      REVERT \t\t\t   _grantRole(MINTER_ROLE, msg...\n    tag 158\t\t\t   _grantRole(MINTER_ROLE, msg...\n      JUMPDEST \t\t\t   _grantRole(MINTER_ROLE, msg...\n      POP \t\t\t   _grantRole(MINTER_ROLE, msg...\n      PUSH [tag] 159\t\t\t   _grantRole(MINTER_ROLE, msg...\n      PUSH [tag] 160\t\t\t   _grantRole(MINTER_ROLE, msg...\n      JUMP \t\t\t   _grantRole(MINTER_ROLE, msg...\n    tag 159\t\t\t   _grantRole(MINTER_ROLE, msg...\n      JUMPDEST \t\t\t   _grantRole(MINTER_ROLE, msg...\n      PUSH 40\t\t\t   _grantRole(MINTER_ROLE, msg...\n      MLOAD \t\t\t   _grantRole(MINTER_ROLE, msg...\n      PUSH [tag] 161\t\t\t   _grantRole(MINTER_ROLE, msg...\n      SWAP2 \t\t\t   _grantRole(MINTER_ROLE, msg...\n      SWAP1 \t\t\t   _grantRole(MINTER_ROLE, msg...\n      PUSH [tag] 162\t\t\t   _grantRole(MINTER_ROLE, msg...\n      JUMP \t\t\t   _grantRole(MINTER_ROLE, msg...\n    tag 161\t\t\t   _grantRole(MINTER_ROLE, msg...\n      JUMPDEST \t\t\t   _grantRole(MINTER_ROLE, msg...\n      PUSH 40\t\t\t   _grantRole(MINTER_ROLE, msg...\n      MLOAD \t\t\t   _grantRole(MINTER_ROLE, msg...\n      DUP1 \t\t\t   _grantRole(MINTER_ROLE, msg...\n      SWAP2 \t\t\t   _grantRole(MINTER_ROLE, msg...\n      SUB \t\t\t   _grantRole(MINTER_ROLE, msg...\n      SWAP1 \t\t\t   _grantRole(MINTER_ROLE, msg...\n      RETURN \t\t\t   _grantRole(MINTER_ROLE, msg...\n    tag 27\t\t\ts[account] = true;\\n        em...\n      JUMPDEST \t\t\ts[account] = true;\\n        em...\n      CALLVALUE \t\t\ts[account] = true;\\n        em...\n      DUP1 \t\t\ts[account] = true;\\n        em...\n      ISZERO \t\t\ts[account] = true;\\n        em...\n      PUSH [tag] 163\t\t\ts[account] = true;\\n        em...\n      JUMPI \t\t\ts[account] = true;\\n        em...\n      PUSH 0\t\t\ts[account] = true;\\n        em...\n      PUSH 0\t\t\ts[account] = true;\\n        em...\n      REVERT \t\t\ts[account] = true;\\n        em...\n    tag 163\t\t\ts[account] = true;\\n        em...\n      JUMPDEST \t\t\ts[account] = true;\\n        em...\n      POP \t\t\ts[account] = true;\\n        em...\n      PUSH [tag] 164\t\t\ts[account] = true;\\n        em...\n      PUSH 4\t\t\ts[account] = true;\\n        em...\n      DUP1 \t\t\ts[account] = true;\\n        em...\n      CALLDATASIZE \t\t\ts[account] = true;\\n        em...\n      SUB \t\t\ts[account] = true;\\n        em...\n      DUP2 \t\t\ts[account] = true;\\n        em...\n      ADD \t\t\ts[account] = true;\\n        em...\n      SWAP1 \t\t\ts[account] = true;\\n        em...\n      PUSH [tag] 165\t\t\ts[account] = true;\\n        em...\n      SWAP2 \t\t\ts[account] = true;\\n        em...\n      SWAP1 \t\t\ts[account] = true;\\n        em...\n      PUSH [tag] 101\t\t\ts[account] = true;\\n        em...\n      JUMP \t\t\ts[account] = true;\\n        em...\n    tag 165\t\t\ts[account] = true;\\n        em...\n      JUMPDEST \t\t\ts[account] = true;\\n        em...\n      PUSH [tag] 166\t\t\ts[account] = true;\\n        em...\n      JUMP \t\t\ts[account] = true;\\n        em...\n    tag 164\t\t\ts[account] = true;\\n        em...\n      JUMPDEST \t\t\ts[account] = true;\\n        em...\n      PUSH 40\t\t\ts[account] = true;\\n        em...\n      MLOAD \t\t\ts[account] = true;\\n        em...\n      PUSH [tag] 167\t\t\ts[account] = true;\\n        em...\n      SWAP2 \t\t\ts[account] = true;\\n        em...\n      SWAP1 \t\t\ts[account] = true;\\n        em...\n      PUSH [tag] 55\t\t\ts[account] = true;\\n        em...\n      JUMP \t\t\ts[account] = true;\\n        em...\n    tag 167\t\t\ts[account] = true;\\n        em...\n      JUMPDEST \t\t\ts[account] = true;\\n        em...\n      PUSH 40\t\t\ts[account] = true;\\n        em...\n      MLOAD \t\t\ts[account] = true;\\n        em...\n      DUP1 \t\t\ts[account] = true;\\n        em...\n      SWAP2 \t\t\ts[account] = true;\\n        em...\n      SUB \t\t\ts[account] = true;\\n        em...\n      SWAP1 \t\t\ts[account] = true;\\n        em...\n      RETURN \t\t\ts[account] = true;\\n        em...\n    tag 28\t\t\tnction symbol() public view vi...\n      JUMPDEST \t\t\tnction symbol() public view vi...\n      CALLVALUE \t\t\tnction symbol() public view vi...\n      DUP1 \t\t\tnction symbol() public view vi...\n      ISZERO \t\t\tnction symbol() public view vi...\n      PUSH [tag] 168\t\t\tnction symbol() public view vi...\n      JUMPI \t\t\tnction symbol() public view vi...\n      PUSH 0\t\t\tnction symbol() public view vi...\n      PUSH 0\t\t\tnction symbol() public view vi...\n      REVERT \t\t\tnction symbol() public view vi...\n    tag 168\t\t\tnction symbol() public view vi...\n      JUMPDEST \t\t\tnction symbol() public view vi...\n      POP \t\t\tnction symbol() public view vi...\n      PUSH [tag] 169\t\t\tnction symbol() public view vi...\n      PUSH [tag] 170\t\t\tnction symbol() public view vi...\n      JUMP \t\t\tnction symbol() public view vi...\n    tag 169\t\t\tnction symbol() public view vi...\n      JUMPDEST \t\t\tnction symbol() public view vi...\n      PUSH 40\t\t\tnction symbol() public view vi...\n      MLOAD \t\t\tnction symbol() public view vi...\n      PUSH [tag] 171\t\t\tnction symbol() public view vi...\n      SWAP2 \t\t\tnction symbol() public view vi...\n      SWAP1 \t\t\tnction symbol() public view vi...\n      PUSH [tag] 65\t\t\tnction symbol() public view vi...\n      JUMP \t\t\tnction symbol() public view vi...\n    tag 171\t\t\tnction symbol() public view vi...\n      JUMPDEST \t\t\tnction symbol() public view vi...\n      PUSH 40\t\t\tnction symbol() public view vi...\n      MLOAD \t\t\tnction symbol() public view vi...\n      DUP1 \t\t\tnction symbol() public view vi...\n      SWAP2 \t\t\tnction symbol() public view vi...\n      SUB \t\t\tnction symbol() public view vi...\n      SWAP1 \t\t\tnction symbol() public view vi...\n      RETURN \t\t\tnction symbol() public view vi...\n    tag 29\t\t\tnction freezeWallet(address ac...\n      JUMPDEST \t\t\tnction freezeWallet(address ac...\n      CALLVALUE \t\t\tnction freezeWallet(address ac...\n      DUP1 \t\t\tnction freezeWallet(address ac...\n      ISZERO \t\t\tnction freezeWallet(address ac...\n      PUSH [tag] 172\t\t\tnction freezeWallet(address ac...\n      JUMPI \t\t\tnction freezeWallet(address ac...\n      PUSH 0\t\t\tnction freezeWallet(address ac...\n      PUSH 0\t\t\tnction freezeWallet(address ac...\n      REVERT \t\t\tnction freezeWallet(address ac...\n    tag 172\t\t\tnction freezeWallet(address ac...\n      JUMPDEST \t\t\tnction freezeWallet(address ac...\n      POP \t\t\tnction freezeWallet(address ac...\n      PUSH [tag] 173\t\t\tnction freezeWallet(address ac...\n      PUSH 4\t\t\tnction freezeWallet(address ac...\n      DUP1 \t\t\tnction freezeWallet(address ac...\n      CALLDATASIZE \t\t\tnction freezeWallet(address ac...\n      SUB \t\t\tnction freezeWallet(address ac...\n      DUP2 \t\t\tnction freezeWallet(address ac...\n      ADD \t\t\tnction freezeWallet(address ac...\n      SWAP1 \t\t\tnction freezeWallet(address ac...\n      PUSH [tag] 174\t\t\tnction freezeWallet(address ac...\n      SWAP2 \t\t\tnction freezeWallet(address ac...\n      SWAP1 \t\t\tnction freezeWallet(address ac...\n      PUSH [tag] 142\t\t\tnction freezeWallet(address ac...\n      JUMP \t\t\tnction freezeWallet(address ac...\n    tag 174\t\t\tnction freezeWallet(address ac...\n      JUMPDEST \t\t\tnction freezeWallet(address ac...\n      PUSH [tag] 175\t\t\tnction freezeWallet(address ac...\n      JUMP \t\t\tnction freezeWallet(address ac...\n    tag 173\t\t\tnction freezeWallet(address ac...\n      JUMPDEST \t\t\tnction freezeWallet(address ac...\n      STOP \t\t\tnction freezeWallet(address ac...\n    tag 30\t\t\tot exist in v5\\n\\n        _nam...\n      JUMPDEST \t\t\tot exist in v5\\n\\n        _nam...\n      CALLVALUE \t\t\tot exist in v5\\n\\n        _nam...\n      DUP1 \t\t\tot exist in v5\\n\\n        _nam...\n      ISZERO \t\t\tot exist in v5\\n\\n        _nam...\n      PUSH [tag] 176\t\t\tot exist in v5\\n\\n        _nam...\n      JUMPI \t\t\tot exist in v5\\n\\n        _nam...\n      PUSH 0\t\t\tot exist in v5\\n\\n        _nam...\n      PUSH 0\t\t\tot exist in v5\\n\\n        _nam...\n      REVERT \t\t\tot exist in v5\\n\\n        _nam...\n    tag 176\t\t\tot exist in v5\\n\\n        _nam...\n      JUMPDEST \t\t\tot exist in v5\\n\\n        _nam...\n      POP \t\t\tot exist in v5\\n\\n        _nam...\n      PUSH [tag] 177\t\t\tot exist in v5\\n\\n        _nam...\n      PUSH [tag] 178\t\t\tot exist in v5\\n\\n        _nam...\n      JUMP \t\t\tot exist in v5\\n\\n        _nam...\n    tag 177\t\t\tot exist in v5\\n\\n        _nam...\n      JUMPDEST \t\t\tot exist in v5\\n\\n        _nam...\n      PUSH 40\t\t\tot exist in v5\\n\\n        _nam...\n      MLOAD \t\t\tot exist in v5\\n\\n        _nam...\n      PUSH [tag] 179\t\t\tot exist in v5\\n\\n        _nam...\n      SWAP2 \t\t\tot exist in v5\\n\\n        _nam...\n      SWAP1 \t\t\tot exist in v5\\n\\n        _nam...\n      PUSH [tag] 60\t\t\tot exist in v5\\n\\n        _nam...\n      JUMP \t\t\tot exist in v5\\n\\n        _nam...\n    tag 179\t\t\tot exist in v5\\n\\n        _nam...\n      JUMPDEST \t\t\tot exist in v5\\n\\n        _nam...\n      PUSH 40\t\t\tot exist in v5\\n\\n        _nam...\n      MLOAD \t\t\tot exist in v5\\n\\n        _nam...\n      DUP1 \t\t\tot exist in v5\\n\\n        _nam...\n      SWAP2 \t\t\tot exist in v5\\n\\n        _nam...\n      SUB \t\t\tot exist in v5\\n\\n        _nam...\n      SWAP1 \t\t\tot exist in v5\\n\\n        _nam...\n      RETURN \t\t\tot exist in v5\\n\\n        _nam...\n    tag 31\t\t\t-- Internal Overrides -----\\n ...\n      JUMPDEST \t\t\t-- Internal Overrides -----\\n ...\n      CALLVALUE \t\t\t-- Internal Overrides -----\\n ...\n      DUP1 \t\t\t-- Internal Overrides -----\\n ...\n      ISZERO \t\t\t-- Internal Overrides -----\\n ...\n      PUSH [tag] 180\t\t\t-- Internal Overrides -----\\n ...\n      JUMPI \t\t\t-- Internal Overrides -----\\n ...\n      PUSH 0\t\t\t-- Internal Overrides -----\\n ...\n      PUSH 0\t\t\t-- Internal Overrides -----\\n ...\n      REVERT \t\t\t-- Internal Overrides -----\\n ...\n    tag 180\t\t\t-- Internal Overrides -----\\n ...\n      JUMPDEST \t\t\t-- Internal Overrides -----\\n ...\n      POP \t\t\t-- Internal Overrides -----\\n ...\n      PUSH [tag] 181\t\t\t-- Internal Overrides -----\\n ...\n      PUSH 4\t\t\t-- Internal Overrides -----\\n ...\n      DUP1 \t\t\t-- Internal Overrides -----\\n ...\n      CALLDATASIZE \t\t\t-- Internal Overrides -----\\n ...\n      SUB \t\t\t-- Internal Overrides -----\\n ...\n      DUP2 \t\t\t-- Internal Overrides -----\\n ...\n      ADD \t\t\t-- Internal Overrides -----\\n ...\n      SWAP1 \t\t\t-- Internal Overrides -----\\n ...\n      PUSH [tag] 182\t\t\t-- Internal Overrides -----\\n ...\n      SWAP2 \t\t\t-- Internal Overrides -----\\n ...\n      SWAP1 \t\t\t-- Internal Overrides -----\\n ...\n      PUSH [tag] 69\t\t\t-- Internal Overrides -----\\n ...\n      JUMP \t\t\t-- Internal Overrides -----\\n ...\n    tag 182\t\t\t-- Internal Overrides -----\\n ...\n      JUMPDEST \t\t\t-- Internal Overrides -----\\n ...\n      PUSH [tag] 183\t\t\t-- Internal Overrides -----\\n ...\n      JUMP \t\t\t-- Internal Overrides -----\\n ...\n    tag 181\t\t\t-- Internal Overrides -----\\n ...\n      JUMPDEST \t\t\t-- Internal Overrides -----\\n ...\n      PUSH 40\t\t\t-- Internal Overrides -----\\n ...\n      MLOAD \t\t\t-- Internal Overrides -----\\n ...\n      PUSH [tag] 184\t\t\t-- Internal Overrides -----\\n ...\n      SWAP2 \t\t\t-- Internal Overrides -----\\n ...\n      SWAP1 \t\t\t-- Internal Overrides -----\\n ...\n      PUSH [tag] 55\t\t\t-- Internal Overrides -----\\n ...\n      JUMP \t\t\t-- Internal Overrides -----\\n ...\n    tag 184\t\t\t-- Internal Overrides -----\\n ...\n      JUMPDEST \t\t\t-- Internal Overrides -----\\n ...\n      PUSH 40\t\t\t-- Internal Overrides -----\\n ...\n      MLOAD \t\t\t-- Internal Overrides -----\\n ...\n      DUP1 \t\t\t-- Internal Overrides -----\\n ...\n      SWAP2 \t\t\t-- Internal Overrides -----\\n ...\n      SUB \t\t\t-- Internal Overrides -----\\n ...\n      SWAP1 \t\t\t-- Internal Overrides -----\\n ...\n      RETURN \t\t\t-- Internal Overrides -----\\n ...\n    tag 32\t\t\t   _disableInitializers();\\n  ...\n      JUMPDEST \t\t\t   _disableInitializers();\\n  ...\n      CALLVALUE \t\t\t   _disableInitializers();\\n  ...\n      DUP1 \t\t\t   _disableInitializers();\\n  ...\n      ISZERO \t\t\t   _disableInitializers();\\n  ...\n      PUSH [tag] 185\t\t\t   _disableInitializers();\\n  ...\n      JUMPI \t\t\t   _disableInitializers();\\n  ...\n      PUSH 0\t\t\t   _disableInitializers();\\n  ...\n      PUSH 0\t\t\t   _disableInitializers();\\n  ...\n      REVERT \t\t\t   _disableInitializers();\\n  ...\n    tag 185\t\t\t   _disableInitializers();\\n  ...\n      JUMPDEST \t\t\t   _disableInitializers();\\n  ...\n      POP \t\t\t   _disableInitializers();\\n  ...\n      PUSH [tag] 186\t\t\t   _disableInitializers();\\n  ...\n      PUSH [tag] 187\t\t\t   _disableInitializers();\\n  ...\n      JUMP \t\t\t   _disableInitializers();\\n  ...\n    tag 186\t\t\t   _disableInitializers();\\n  ...\n      JUMPDEST \t\t\t   _disableInitializers();\\n  ...\n      PUSH 40\t\t\t   _disableInitializers();\\n  ...\n      MLOAD \t\t\t   _disableInitializers();\\n  ...\n      PUSH [tag] 188\t\t\t   _disableInitializers();\\n  ...\n      SWAP2 \t\t\t   _disableInitializers();\\n  ...\n      SWAP1 \t\t\t   _disableInitializers();\\n  ...\n      PUSH [tag] 65\t\t\t   _disableInitializers();\\n  ...\n      JUMP \t\t\t   _disableInitializers();\\n  ...\n    tag 188\t\t\t   _disableInitializers();\\n  ...\n      JUMPDEST \t\t\t   _disableInitializers();\\n  ...\n      PUSH 40\t\t\t   _disableInitializers();\\n  ...\n      MLOAD \t\t\t   _disableInitializers();\\n  ...\n      DUP1 \t\t\t   _disableInitializers();\\n  ...\n      SWAP2 \t\t\t   _disableInitializers();\\n  ...\n      SUB \t\t\t   _disableInitializers();\\n  ...\n      SWAP1 \t\t\t   _disableInitializers();\\n  ...\n      RETURN \t\t\t   _disableInitializers();\\n  ...\n    tag 33\t\t\tnction setSymbol(string callda...\n      JUMPDEST \t\t\tnction setSymbol(string callda...\n      CALLVALUE \t\t\tnction setSymbol(string callda...\n      DUP1 \t\t\tnction setSymbol(string callda...\n      ISZERO \t\t\tnction setSymbol(string callda...\n      PUSH [tag] 189\t\t\tnction setSymbol(string callda...\n      JUMPI \t\t\tnction setSymbol(string callda...\n      PUSH 0\t\t\tnction setSymbol(string callda...\n      PUSH 0\t\t\tnction setSymbol(string callda...\n      REVERT \t\t\tnction setSymbol(string callda...\n    tag 189\t\t\tnction setSymbol(string callda...\n      JUMPDEST \t\t\tnction setSymbol(string callda...\n      POP \t\t\tnction setSymbol(string callda...\n      PUSH [tag] 190\t\t\tnction setSymbol(string callda...\n      PUSH 4\t\t\tnction setSymbol(string callda...\n      DUP1 \t\t\tnction setSymbol(string callda...\n      CALLDATASIZE \t\t\tnction setSymbol(string callda...\n      SUB \t\t\tnction setSymbol(string callda...\n      DUP2 \t\t\tnction setSymbol(string callda...\n      ADD \t\t\tnction setSymbol(string callda...\n      SWAP1 \t\t\tnction setSymbol(string callda...\n      PUSH [tag] 191\t\t\tnction setSymbol(string callda...\n      SWAP2 \t\t\tnction setSymbol(string callda...\n      SWAP1 \t\t\tnction setSymbol(string callda...\n      PUSH [tag] 192\t\t\tnction setSymbol(string callda...\n      JUMP \t\t\tnction setSymbol(string callda...\n    tag 191\t\t\tnction setSymbol(string callda...\n      JUMPDEST \t\t\tnction setSymbol(string callda...\n      PUSH [tag] 193\t\t\tnction setSymbol(string callda...\n      JUMP \t\t\tnction setSymbol(string callda...\n    tag 190\t\t\tnction setSymbol(string callda...\n      JUMPDEST \t\t\tnction setSymbol(string callda...\n      STOP \t\t\tnction setSymbol(string callda...\n    tag 34\t\t\tnction setName(string calldata...\n      JUMPDEST \t\t\tnction setName(string calldata...\n      CALLVALUE \t\t\tnction setName(string calldata...\n      DUP1 \t\t\tnction setName(string calldata...\n      ISZERO \t\t\tnction setName(string calldata...\n      PUSH [tag] 194\t\t\tnction setName(string calldata...\n      JUMPI \t\t\tnction setName(string calldata...\n      PUSH 0\t\t\tnction setName(string calldata...\n      PUSH 0\t\t\tnction setName(string calldata...\n      REVERT \t\t\tnction setName(string calldata...\n    tag 194\t\t\tnction setName(string calldata...\n      JUMPDEST \t\t\tnction setName(string calldata...\n      POP \t\t\tnction setName(string calldata...\n      PUSH [tag] 195\t\t\tnction setName(string calldata...\n      PUSH 4\t\t\tnction setName(string calldata...\n      DUP1 \t\t\tnction setName(string calldata...\n      CALLDATASIZE \t\t\tnction setName(string calldata...\n      SUB \t\t\tnction setName(string calldata...\n      DUP2 \t\t\tnction setName(string calldata...\n      ADD \t\t\tnction setName(string calldata...\n      SWAP1 \t\t\tnction setName(string calldata...\n      PUSH [tag] 196\t\t\tnction setName(string calldata...\n      SWAP2 \t\t\tnction setName(string calldata...\n      SWAP1 \t\t\tnction setName(string calldata...\n      PUSH [tag] 192\t\t\tnction setName(string calldata...\n      JUMP \t\t\tnction setName(string calldata...\n    tag 196\t\t\tnction setName(string calldata...\n      JUMPDEST \t\t\tnction setName(string calldata...\n      PUSH [tag] 197\t\t\tnction setName(string calldata...\n      JUMP \t\t\tnction setName(string calldata...\n    tag 195\t\t\tnction setName(string calldata...\n      JUMPDEST \t\t\tnction setName(string calldata...\n      STOP \t\t\tnction setName(string calldata...\n    tag 35\t\t\tbytes32 public constant MINTER...\n      JUMPDEST \t\t\tbytes32 public constant MINTER...\n      CALLVALUE \t\t\tbytes32 public constant MINTER...\n      DUP1 \t\t\tbytes32 public constant MINTER...\n      ISZERO \t\t\tbytes32 public constant MINTER...\n      PUSH [tag] 198\t\t\tbytes32 public constant MINTER...\n      JUMPI \t\t\tbytes32 public constant MINTER...\n      PUSH 0\t\t\tbytes32 public constant MINTER...\n      PUSH 0\t\t\tbytes32 public constant MINTER...\n      REVERT \t\t\tbytes32 public constant MINTER...\n    tag 198\t\t\tbytes32 public constant MINTER...\n      JUMPDEST \t\t\tbytes32 public constant MINTER...\n      POP \t\t\tbytes32 public constant MINTER...\n      PUSH [tag] 199\t\t\tbytes32 public constant MINTER...\n      PUSH [tag] 200\t\t\tbytes32 public constant MINTER...\n      JUMP \t\t\tbytes32 public constant MINTER...\n    tag 199\t\t\tbytes32 public constant MINTER...\n      JUMPDEST \t\t\tbytes32 public constant MINTER...\n      PUSH 40\t\t\tbytes32 public constant MINTER...\n      MLOAD \t\t\tbytes32 public constant MINTER...\n      PUSH [tag] 201\t\t\tbytes32 public constant MINTER...\n      SWAP2 \t\t\tbytes32 public constant MINTER...\n      SWAP1 \t\t\tbytes32 public constant MINTER...\n      PUSH [tag] 60\t\t\tbytes32 public constant MINTER...\n      JUMP \t\t\tbytes32 public constant MINTER...\n    tag 201\t\t\tbytes32 public constant MINTER...\n      JUMPDEST \t\t\tbytes32 public constant MINTER...\n      PUSH 40\t\t\tbytes32 public constant MINTER...\n      MLOAD \t\t\tbytes32 public constant MINTER...\n      DUP1 \t\t\tbytes32 public constant MINTER...\n      SWAP2 \t\t\tbytes32 public constant MINTER...\n      SUB \t\t\tbytes32 public constant MINTER...\n      SWAP1 \t\t\tbytes32 public constant MINTER...\n      RETURN \t\t\tbytes32 public constant MINTER...\n    tag 36\t\t\t\n      JUMPDEST \t\t\t\n      CALLVALUE \t\t\t\n      DUP1 \t\t\t\n      ISZERO \t\t\t\n      PUSH [tag] 202\t\t\t\n      JUMPI \t\t\t\n      PUSH 0\t\t\t\n      PUSH 0\t\t\t\n      REVERT \t\t\t\n    tag 202\t\t\t\n      JUMPDEST \t\t\t\n      POP \t\t\t\n      PUSH [tag] 203\t\t\t\n      PUSH 4\t\t\t\n      DUP1 \t\t\t\n      CALLDATASIZE \t\t\t\n      SUB \t\t\t\n      DUP2 \t\t\t\n      ADD \t\t\t\n      SWAP1 \t\t\t\n      PUSH [tag] 204\t\t\t\n      SWAP2 \t\t\t\n      SWAP1 \t\t\t\n      PUSH [tag] 101\t\t\t\n      JUMP \t\t\t\n    tag 204\t\t\t\n      JUMPDEST \t\t\t\n      PUSH [tag] 205\t\t\t\n      JUMP \t\t\t\n    tag 203\t\t\t\n      JUMPDEST \t\t\t\n      STOP \t\t\t\n    tag 37\t\t\tquire(!_frozenWallets[from] &&...\n      JUMPDEST \t\t\tquire(!_frozenWallets[from] &&...\n      CALLVALUE \t\t\tquire(!_frozenWallets[from] &&...\n      DUP1 \t\t\tquire(!_frozenWallets[from] &&...\n      ISZERO \t\t\tquire(!_frozenWallets[from] &&...\n      PUSH [tag] 206\t\t\tquire(!_frozenWallets[from] &&...\n      JUMPI \t\t\tquire(!_frozenWallets[from] &&...\n      PUSH 0\t\t\tquire(!_frozenWallets[from] &&...\n      PUSH 0\t\t\tquire(!_frozenWallets[from] &&...\n      REVERT \t\t\tquire(!_frozenWallets[from] &&...\n    tag 206\t\t\tquire(!_frozenWallets[from] &&...\n      JUMPDEST \t\t\tquire(!_frozenWallets[from] &&...\n      POP \t\t\tquire(!_frozenWallets[from] &&...\n      PUSH [tag] 207\t\t\tquire(!_frozenWallets[from] &&...\n      PUSH 4\t\t\tquire(!_frozenWallets[from] &&...\n      DUP1 \t\t\tquire(!_frozenWallets[from] &&...\n      CALLDATASIZE \t\t\tquire(!_frozenWallets[from] &&...\n      SUB \t\t\tquire(!_frozenWallets[from] &&...\n      DUP2 \t\t\tquire(!_frozenWallets[from] &&...\n      ADD \t\t\tquire(!_frozenWallets[from] &&...\n      SWAP1 \t\t\tquire(!_frozenWallets[from] &&...\n      PUSH [tag] 208\t\t\tquire(!_frozenWallets[from] &&...\n      SWAP2 \t\t\tquire(!_frozenWallets[from] &&...\n      SWAP1 \t\t\tquire(!_frozenWallets[from] &&...\n      PUSH [tag] 209\t\t\tquire(!_frozenWallets[from] &&...\n      JUMP \t\t\tquire(!_frozenWallets[from] &&...\n    tag 208\t\t\tquire(!_frozenWallets[from] &&...\n      JUMPDEST \t\t\tquire(!_frozenWallets[from] &&...\n      PUSH [tag] 210\t\t\tquire(!_frozenWallets[from] &&...\n      JUMP \t\t\tquire(!_frozenWallets[from] &&...\n    tag 207\t\t\tquire(!_frozenWallets[from] &&...\n      JUMPDEST \t\t\tquire(!_frozenWallets[from] &&...\n      PUSH 40\t\t\tquire(!_frozenWallets[from] &&...\n      MLOAD \t\t\tquire(!_frozenWallets[from] &&...\n      PUSH [tag] 211\t\t\tquire(!_frozenWallets[from] &&...\n      SWAP2 \t\t\tquire(!_frozenWallets[from] &&...\n      SWAP1 \t\t\tquire(!_frozenWallets[from] &&...\n      PUSH [tag] 76\t\t\tquire(!_frozenWallets[from] &&...\n      JUMP \t\t\tquire(!_frozenWallets[from] &&...\n    tag 211\t\t\tquire(!_frozenWallets[from] &&...\n      JUMPDEST \t\t\tquire(!_frozenWallets[from] &&...\n      PUSH 40\t\t\tquire(!_frozenWallets[from] &&...\n      MLOAD \t\t\tquire(!_frozenWallets[from] &&...\n      DUP1 \t\t\tquire(!_frozenWallets[from] &&...\n      SWAP2 \t\t\tquire(!_frozenWallets[from] &&...\n      SUB \t\t\tquire(!_frozenWallets[from] &&...\n      SWAP1 \t\t\tquire(!_frozenWallets[from] &&...\n      RETURN \t\t\tquire(!_frozenWallets[from] &&...\n    tag 38\t\t\town init takes no args (no ext...\n      JUMPDEST \t\t\town init takes no args (no ext...\n      CALLVALUE \t\t\town init takes no args (no ext...\n      DUP1 \t\t\town init takes no args (no ext...\n      ISZERO \t\t\town init takes no args (no ext...\n      PUSH [tag] 212\t\t\town init takes no args (no ext...\n      JUMPI \t\t\town init takes no args (no ext...\n      PUSH 0\t\t\town init takes no args (no ext...\n      PUSH 0\t\t\town init takes no args (no ext...\n      REVERT \t\t\town init takes no args (no ext...\n    tag 212\t\t\town init takes no args (no ext...\n      JUMPDEST \t\t\town init takes no args (no ext...\n      POP \t\t\town init takes no args (no ext...\n      PUSH [tag] 213\t\t\town init takes no args (no ext...\n      PUSH [tag] 214\t\t\town init takes no args (no ext...\n      JUMP \t\t\town init takes no args (no ext...\n    tag 213\t\t\town init takes no args (no ext...\n      JUMPDEST \t\t\town init takes no args (no ext...\n      PUSH 40\t\t\town init takes no args (no ext...\n      MLOAD \t\t\town init takes no args (no ext...\n      PUSH [tag] 215\t\t\town init takes no args (no ext...\n      SWAP2 \t\t\town init takes no args (no ext...\n      SWAP1 \t\t\town init takes no args (no ext...\n      PUSH [tag] 162\t\t\town init takes no args (no ext...\n      JUMP \t\t\town init takes no args (no ext...\n    tag 215\t\t\town init takes no args (no ext...\n      JUMPDEST \t\t\town init takes no args (no ext...\n      PUSH 40\t\t\town init takes no args (no ext...\n      MLOAD \t\t\town init takes no args (no ext...\n      DUP1 \t\t\town init takes no args (no ext...\n      SWAP2 \t\t\town init takes no args (no ext...\n      SUB \t\t\town init takes no args (no ext...\n      SWAP1 \t\t\town init takes no args (no ext...\n      RETURN \t\t\town init takes no args (no ext...\n    tag 39\t\t\tbytes32 public constant PAUSER...\n      JUMPDEST \t\t\tbytes32 public constant PAUSER...\n      CALLVALUE \t\t\tbytes32 public constant PAUSER...\n      DUP1 \t\t\tbytes32 public constant PAUSER...\n      ISZERO \t\t\tbytes32 public constant PAUSER...\n      PUSH [tag] 216\t\t\tbytes32 public constant PAUSER...\n      JUMPI \t\t\tbytes32 public constant PAUSER...\n      PUSH 0\t\t\tbytes32 public constant PAUSER...\n      PUSH 0\t\t\tbytes32 public constant PAUSER...\n      REVERT \t\t\tbytes32 public constant PAUSER...\n    tag 216\t\t\tbytes32 public constant PAUSER...\n      JUMPDEST \t\t\tbytes32 public constant PAUSER...\n      POP \t\t\tbytes32 public constant PAUSER...\n      PUSH [tag] 217\t\t\tbytes32 public constant PAUSER...\n      PUSH [tag] 218\t\t\tbytes32 public constant PAUSER...\n      JUMP \t\t\tbytes32 public constant PAUSER...\n    tag 217\t\t\tbytes32 public constant PAUSER...\n      JUMPDEST \t\t\tbytes32 public constant PAUSER...\n      PUSH 40\t\t\tbytes32 public constant PAUSER...\n      MLOAD \t\t\tbytes32 public constant PAUSER...\n      PUSH [tag] 219\t\t\tbytes32 public constant PAUSER...\n      SWAP2 \t\t\tbytes32 public constant PAUSER...\n      SWAP1 \t\t\tbytes32 public constant PAUSER...\n      PUSH [tag] 60\t\t\tbytes32 public constant PAUSER...\n      JUMP \t\t\tbytes32 public constant PAUSER...\n    tag 219\t\t\tbytes32 public constant PAUSER...\n      JUMPDEST \t\t\tbytes32 public constant PAUSER...\n      PUSH 40\t\t\tbytes32 public constant PAUSER...\n      MLOAD \t\t\tbytes32 public constant PAUSER...\n      DUP1 \t\t\tbytes32 public constant PAUSER...\n      SWAP2 \t\t\tbytes32 public constant PAUSER...\n      SUB \t\t\tbytes32 public constant PAUSER...\n      SWAP1 \t\t\tbytes32 public constant PAUSER...\n      RETURN \t\t\tbytes32 public constant PAUSER...\n    tag 40\t\t\tbytes32 public constant TRADER...\n      JUMPDEST \t\t\tbytes32 public constant TRADER...\n      CALLVALUE \t\t\tbytes32 public constant TRADER...\n      DUP1 \t\t\tbytes32 public constant TRADER...\n      ISZERO \t\t\tbytes32 public constant TRADER...\n      PUSH [tag] 220\t\t\tbytes32 public constant TRADER...\n      JUMPI \t\t\tbytes32 public constant TRADER...\n      PUSH 0\t\t\tbytes32 public constant TRADER...\n      PUSH 0\t\t\tbytes32 public constant TRADER...\n      REVERT \t\t\tbytes32 public constant TRADER...\n    tag 220\t\t\tbytes32 public constant TRADER...\n      JUMPDEST \t\t\tbytes32 public constant TRADER...\n      POP \t\t\tbytes32 public constant TRADER...\n      PUSH [tag] 221\t\t\tbytes32 public constant TRADER...\n      PUSH [tag] 222\t\t\tbytes32 public constant TRADER...\n      JUMP \t\t\tbytes32 public constant TRADER...\n    tag 221\t\t\tbytes32 public constant TRADER...\n      JUMPDEST \t\t\tbytes32 public constant TRADER...\n      PUSH 40\t\t\tbytes32 public constant TRADER...\n      MLOAD \t\t\tbytes32 public constant TRADER...\n      PUSH [tag] 223\t\t\tbytes32 public constant TRADER...\n      SWAP2 \t\t\tbytes32 public constant TRADER...\n      SWAP1 \t\t\tbytes32 public constant TRADER...\n      PUSH [tag] 60\t\t\tbytes32 public constant TRADER...\n      JUMP \t\t\tbytes32 public constant TRADER...\n    tag 223\t\t\tbytes32 public constant TRADER...\n      JUMPDEST \t\t\tbytes32 public constant TRADER...\n      PUSH 40\t\t\tbytes32 public constant TRADER...\n      MLOAD \t\t\tbytes32 public constant TRADER...\n      DUP1 \t\t\tbytes32 public constant TRADER...\n      SWAP2 \t\t\tbytes32 public constant TRADER...\n      SUB \t\t\tbytes32 public constant TRADER...\n      SWAP1 \t\t\tbytes32 public constant TRADER...\n      RETURN \t\t\tbytes32 public constant TRADER...\n    tag 41\t\t\t);\\n        _grantRole(PAUSER_...\n      JUMPDEST \t\t\t);\\n        _grantRole(PAUSER_...\n      CALLVALUE \t\t\t);\\n        _grantRole(PAUSER_...\n      DUP1 \t\t\t);\\n        _grantRole(PAUSER_...\n      ISZERO \t\t\t);\\n        _grantRole(PAUSER_...\n      PUSH [tag] 224\t\t\t);\\n        _grantRole(PAUSER_...\n      JUMPI \t\t\t);\\n        _grantRole(PAUSER_...\n      PUSH 0\t\t\t);\\n        _grantRole(PAUSER_...\n      PUSH 0\t\t\t);\\n        _grantRole(PAUSER_...\n      REVERT \t\t\t);\\n        _grantRole(PAUSER_...\n    tag 224\t\t\t);\\n        _grantRole(PAUSER_...\n      JUMPDEST \t\t\t);\\n        _grantRole(PAUSER_...\n      POP \t\t\t);\\n        _grantRole(PAUSER_...\n      PUSH [tag] 225\t\t\t);\\n        _grantRole(PAUSER_...\n      PUSH 4\t\t\t);\\n        _grantRole(PAUSER_...\n      DUP1 \t\t\t);\\n        _grantRole(PAUSER_...\n      CALLDATASIZE \t\t\t);\\n        _grantRole(PAUSER_...\n      SUB \t\t\t);\\n        _grantRole(PAUSER_...\n      DUP2 \t\t\t);\\n        _grantRole(PAUSER_...\n      ADD \t\t\t);\\n        _grantRole(PAUSER_...\n      SWAP1 \t\t\t);\\n        _grantRole(PAUSER_...\n      PUSH [tag] 226\t\t\t);\\n        _grantRole(PAUSER_...\n      SWAP2 \t\t\t);\\n        _grantRole(PAUSER_...\n      SWAP1 \t\t\t);\\n        _grantRole(PAUSER_...\n      PUSH [tag] 142\t\t\t);\\n        _grantRole(PAUSER_...\n      JUMP \t\t\t);\\n        _grantRole(PAUSER_...\n    tag 226\t\t\t);\\n        _grantRole(PAUSER_...\n      JUMPDEST \t\t\t);\\n        _grantRole(PAUSER_...\n      PUSH [tag] 227\t\t\t);\\n        _grantRole(PAUSER_...\n      JUMP \t\t\t);\\n        _grantRole(PAUSER_...\n    tag 225\t\t\t);\\n        _grantRole(PAUSER_...\n      JUMPDEST \t\t\t);\\n        _grantRole(PAUSER_...\n      STOP \t\t\t);\\n        _grantRole(PAUSER_...\n    tag 53\t\t\tt(address to, uint256 amount) ...\n      JUMPDEST \t\t\tt(address to, uint256 amount) ...\n      PUSH 0\t\t\tnt);\n      PUSH 7965DB0B00000000000000000000000000000000000000000000000000000000\t\t\t    }\\n\\n    function freezeWa...\n      PUSH FFFFFFFFFFFFFFFFFFFFFFFFFFFFFFFFFFFFFFFFFFFFFFFFFFFFFFFF\t\t\td(to, amount);\\n    }\\n\\n    f...\n      NOT \t\t\td(to, amount);\\n    }\\n\\n    f...\n      AND \t\t\td(to, amount);\\n    }\\n\\n    f...\n      DUP3 \t\t\td(to, amoun\n      PUSH FFFFFFFFFFFFFFFFFFFFFFFFFFFFFFFFFFFFFFFFFFFFFFFFFFFFFFFF\t\t\td(to, amount);\\n    }\\n\\n    f...\n      NOT \t\t\td(to, amount);\\n    }\\n\\n    f...\n      AND \t\t\td(to, amount);\\n    }\\n\\n    f...\n      EQ \t\t\td(to, amount);\\n    }\\n\\n    f...\n      DUP1 \t\t\td(to, amount);\\n    }\\n\\n    f...\n      PUSH [tag] 229\t\t\td(to, amount);\\n    }\\n\\n    f...\n      JUMPI \t\t\td(to, amount);\\n    }\\n\\n    f...\n      POP \t\t\td(to, amount);\\n    }\\n\\n    f...\n      PUSH [tag] 230\t\t\tress account) external onlyRol...\n      DUP3 \t\t\tnlyRole(FRE\n      PUSH [tag] 231\t\t\tress account) external \n      JUMP \t\t\tress account) external onlyRol...\n    tag 230\t\t\tress account) external onlyRol...\n      JUMPDEST \t\t\tress account) external onlyRol...\n    tag 229\t\t\td(to, amount);\\n    }\\n\\n    f...\n      JUMPDEST \t\t\td(to, amount);\\n    }\\n\\n    f...\n      SWAP1 \t\t\tt Minted(to, amount);\\n    }\\n...\n      POP \t\t\tt Minted(to, amount);\\n    }\\n...\n      SWAP2 \t\t\tt(address to, uint256 amount) ...\n      SWAP1 \t\t\tt(address to, uint256 amount) ...\n      POP \t\t\tt(address to, uint256 amount) ...\n      JUMP \t\t\tt(address to, uint256 amount) ...\n    tag 58\t\t\tbytes32 public constant FREEZE...\n      JUMPDEST \t\t\tbytes32 public constant FREEZE...\n      PUSH 92DE27771F92D6942691D73358B3A4673E4880DE8356F8F2CF452BE87E02D363\t\t\tkeccak256(\"FREEZER_ROLE\")\n      DUP2 \t\t\tbytes32 public constant FREEZE...\n      JUMP \t\t\tbytes32 public constant FREEZE...\n    tag 63\t\t\tnction name() public view virt...\n      JUMPDEST \t\t\tnction name() public view virt...\n      PUSH 60\t\t\tring memory) \n      PUSH 0\t\t\tame;\\n\n      DUP1 \t\t\tturn _name;\\n\n      SLOAD \t\t\tturn _name;\\n\n      PUSH [tag] 233\t\t\tturn _name;\\n\n      SWAP1 \t\t\tturn _name;\\n\n      PUSH [tag] 234\t\t\tturn _name;\\n\n      JUMP \t\t\tturn _name;\\n\n    tag 233\t\t\tturn _name;\\n\n      JUMPDEST \t\t\tturn _name;\\n\n      DUP1 \t\t\tturn _name;\\n\n      PUSH 1F\t\t\tturn _name;\\n\n      ADD \t\t\tturn _name;\\n\n      PUSH 20\t\t\tturn _name;\\n\n      DUP1 \t\t\tturn _name;\\n\n      SWAP2 \t\t\tturn _name;\\n\n      DIV \t\t\tturn _name;\\n\n      MUL \t\t\tturn _name;\\n\n      PUSH 20\t\t\tturn _name;\\n\n      ADD \t\t\tturn _name;\\n\n      PUSH 40\t\t\tturn _name;\\n\n      MLOAD \t\t\tturn _name;\\n\n      SWAP1 \t\t\tturn _name;\\n\n      DUP2 \t\t\tturn _name;\\n\n      ADD \t\t\tturn _name;\\n\n      PUSH 40\t\t\tturn _name;\\n\n      MSTORE \t\t\tturn _name;\\n\n      DUP1 \t\t\tturn _name;\\n\n      SWAP3 \t\t\tturn _name;\\n\n      SWAP2 \t\t\tturn _name;\\n\n      SWAP1 \t\t\tturn _name;\\n\n      DUP2 \t\t\tturn _name;\\n\n      DUP2 \t\t\tturn _name;\\n\n      MSTORE \t\t\tturn _name;\\n\n      PUSH 20\t\t\tturn _name;\\n\n      ADD \t\t\tturn _name;\\n\n      DUP3 \t\t\tturn _name;\\n\n      DUP1 \t\t\tturn _name;\\n\n      SLOAD \t\t\tturn _name;\\n\n      PUSH [tag] 235\t\t\tturn _name;\\n\n      SWAP1 \t\t\tturn _name;\\n\n      PUSH [tag] 234\t\t\tturn _name;\\n\n      JUMP \t\t\tturn _name;\\n\n    tag 235\t\t\tturn _name;\\n\n      JUMPDEST \t\t\tturn _name;\\n\n      DUP1 \t\t\tturn _name;\\n\n      ISZERO \t\t\tturn _name;\\n\n      PUSH [tag] 236\t\t\tturn _name;\\n\n      JUMPI \t\t\tturn _name;\\n\n      DUP1 \t\t\tturn _name;\\n\n      PUSH 1F\t\t\tturn _name;\\n\n      LT \t\t\tturn _name;\\n\n      PUSH [tag] 237\t\t\tturn _name;\\n\n      JUMPI \t\t\tturn _name;\\n\n      PUSH 100\t\t\tturn _name;\\n\n      DUP1 \t\t\tturn _name;\\n\n      DUP4 \t\t\tturn _name;\\n\n      SLOAD \t\t\tturn _name;\\n\n      DIV \t\t\tturn _name;\\n\n      MUL \t\t\tturn _name;\\n\n      DUP4 \t\t\tturn _name;\\n\n      MSTORE \t\t\tturn _name;\\n\n      SWAP2 \t\t\tturn _name;\\n\n      PUSH 20\t\t\tturn _name;\\n\n      ADD \t\t\tturn _name;\\n\n      SWAP2 \t\t\tturn _name;\\n\n      PUSH [tag] 236\t\t\tturn _name;\\n\n      JUMP \t\t\tturn _name;\\n\n    tag 237\t\t\tturn _name;\\n\n      JUMPDEST \t\t\tturn _name;\\n\n      DUP3 \t\t\tturn _name;\\n\n      ADD \t\t\tturn _name;\\n\n      SWAP2 \t\t\tturn _name;\\n\n      SWAP1 \t\t\tturn _name;\\n\n      PUSH 0\t\t\tturn _name;\\n\n      MSTORE \t\t\tturn _name;\\n\n      PUSH 20\t\t\tturn _name;\\n\n      PUSH 0\t\t\tturn _name;\\n\n      KECCAK256 \t\t\tturn _name;\\n\n      SWAP1 \t\t\tturn _name;\\n\n    tag 238\t\t\tturn _name;\\n\n      JUMPDEST \t\t\tturn _name;\\n\n      DUP2 \t\t\tturn _name;\\n\n      SLOAD \t\t\tturn _name;\\n\n      DUP2 \t\t\tturn _name;\\n\n      MSTORE \t\t\tturn _name;\\n\n      SWAP1 \t\t\tturn _name;\\n\n      PUSH 1\t\t\tturn _name;\\n\n      ADD \t\t\tturn _name;\\n\n      SWAP1 \t\t\tturn _name;\\n\n      PUSH 20\t\t\tturn _name;\\n\n      ADD \t\t\tturn _name;\\n\n      DUP1 \t\t\tturn _name;\\n\n      DUP4 \t\t\tturn _name;\\n\n      GT \t\t\tturn _name;\\n\n      PUSH [tag] 238\t\t\tturn _name;\\n\n      JUMPI \t\t\tturn _name;\\n\n      DUP3 \t\t\tturn _name;\\n\n      SWAP1 \t\t\tturn _name;\\n\n      SUB \t\t\tturn _name;\\n\n      PUSH 1F\t\t\tturn _name;\\n\n      AND \t\t\tturn _name;\\n\n      DUP3 \t\t\tturn _name;\\n\n      ADD \t\t\tturn _name;\\n\n      SWAP2 \t\t\tturn _name;\\n\n    tag 236\t\t\tturn _name;\\n\n      JUMPDEST \t\t\tturn _name;\\n\n      POP \t\t\tturn _name;\\n\n      POP \t\t\tturn _name;\\n\n      POP \t\t\tturn _name;\\n\n      POP \t\t\tturn _name;\\n\n      POP \t\t\tturn _name;\\n\n      SWAP1 \t\t\tturn _name;\\n\n      POP \t\t\tturn _name;\\n\n      SWAP1 \t\t\tnction name() public view virt...\n      JUMP \t\t\tnction name() public view virt...\n    tag 70\t\t\tPausable handle pause check an...\n      JUMPDEST \t\t\tPausable handle pause check an...\n      PUSH 0\t\t\tm, t\n      PUSH 0\t\t\t   }\\n\\n    // \n      PUSH [tag] 240\t\t\t-- UUPS Upgr\n      PUSH [tag] 241\t\t\t-- UUPS Up\n      JUMP \t\t\t-- UUPS Upgr\n    tag 240\t\t\t-- UUPS Upgr\n      JUMPDEST \t\t\t-- UUPS Upgr\n      SWAP1 \t\t\t   }\\n\\n    // ----- UUPS Upgr\n      POP \t\t\t   }\\n\\n    // ----- UUPS Upgr\n      PUSH [tag] 242\t\t\tization (only owner) -----\\n  ...\n      DUP2 \t\t\tonly \n      DUP6 \t\t\tner) --\n      DUP6 \t\t\t-\\n   \n      PUSH [tag] 243\t\t\tization \n      JUMP \t\t\tization (only owner) -----\\n  ...\n    tag 242\t\t\tization (only owner) -----\\n  ...\n      JUMPDEST \t\t\tization (only owner) -----\\n  ...\n      PUSH 1\t\t\tzeUp\n      SWAP2 \t\t\tauthorizeUp\n      POP \t\t\tauthorizeUp\n      POP \t\t\tauthorizeUp\n      SWAP3 \t\t\tPausable handle pause check an...\n      SWAP2 \t\t\tPausable handle pause check an...\n      POP \t\t\tPausable handle pause check an...\n      POP \t\t\tPausable handle pause check an...\n      JUMP \t\t\tPausable handle pause check an...\n    tag 74\t\t\t {\\n        require(_frozenWal...\n      JUMPDEST \t\t\t {\\n        require(_frozenWal...\n      PUSH 0\t\t\tzen\");\\n\n      PUSH 0\t\t\tzenWallets[account] = \n      PUSH [tag] 245\t\t\tse;\\n        emit W\n      PUSH [tag] 246\t\t\tse;\\n        emit\n      JUMP \t\t\tse;\\n        emit W\n    tag 245\t\t\tse;\\n        emit W\n      JUMPDEST \t\t\tse;\\n        emit W\n      SWAP1 \t\t\tzenWallets[account] = false;\\n...\n      POP \t\t\tzenWallets[account] = false;\\n...\n      DUP1 \t\t\to\n      PUSH 2\t\t\tount);\\n    }\\n\\n\n      ADD \t\t\tount);\\n    }\\n\\n\n      SLOAD \t\t\tount);\\n    }\\n\\n\n      SWAP2 \t\t\tzen(account);\\n    }\\n\\n\n      POP \t\t\tzen(account);\\n    }\\n\\n\n      POP \t\t\tzen(account);\\n    }\\n\\n\n      SWAP1 \t\t\t {\\n        require(_frozenWal...\n      JUMP \t\t\t {\\n        require(_frozenWal...\n    tag 81\t\t\t\n      JUMPDEST \t\t\t\n      PUSH 0\t\t\t\n      PUSH 0\t\t\t\n      PUSH [tag] 248\t\t\t\n      PUSH [tag] 241\t\t\t\n      JUMP \t\t\t\n    tag 248\t\t\t\n      JUMPDEST \t\t\t\n      SWAP1 \t\t\t\n      POP \t\t\t\n      PUSH [tag] 249\t\t\t\n      DUP6 \t\t\t\n      DUP3 \t\t\t\n      DUP6 \t\t\t\n      PUSH [tag] 250\t\t\t\n      JUMP \t\t\t\n    tag 249\t\t\t\n      JUMPDEST \t\t\t\n      PUSH [tag] 251\t\t\t\n      DUP6 \t\t\t\n      DUP6 \t\t\t\n      DUP6 \t\t\t\n      PUSH [tag] 252\t\t\t\n      JUMP \t\t\t\n    tag 251\t\t\t\n      JUMPDEST \t\t\t\n      PUSH 1\t\t\t\n      SWAP2 \t\t\t\n      POP \t\t\t\n      POP \t\t\t\n      SWAP4 \t\t\t\n      SWAP3 \t\t\t\n      POP \t\t\t\n      POP \t\t\t\n      POP \t\t\t\n      JUMP \t\t\t\n    tag 87\t\t\ttraderRestrictionActive is tru...\n      JUMPDEST \t\t\ttraderRestrictionActive is tru...\n      PUSH 0\t\t\tve && f\n      PUSH 0\t\t\tss(0) && to != address(0)) {\\n...\n      PUSH [tag] 254\t\t\t        require(hasRole(TR\n      PUSH [tag] 255\t\t\t        require(hasRole(\n      JUMP \t\t\t        require(hasRole(TR\n    tag 254\t\t\t        require(hasRole(TR\n      JUMPDEST \t\t\t        require(hasRole(TR\n      SWAP1 \t\t\tss(0) && to != address(0)) {\\n...\n      POP \t\t\tss(0) && to != address(0)) {\\n...\n      DUP1 \t\t\t \n      PUSH 0\t\t\t \"Sender\n      ADD \t\t\t \"Sender\n      PUSH 0\t\t\t \"Sender lacks\n      DUP5 \t\t\tlack\n      DUP2 \t\t\t \"Sender lacks\n      MSTORE \t\t\t \"Sender lacks\n      PUSH 20\t\t\t \"Sender lacks\n      ADD \t\t\t \"Sender lacks\n      SWAP1 \t\t\t \"Sender lacks\n      DUP2 \t\t\t \"Sender lacks\n      MSTORE \t\t\t \"Sender lacks\n      PUSH 20\t\t\t \"Sender lacks\n      ADD \t\t\t \"Sender lacks\n      PUSH 0\t\t\t \"Sender lacks\n      KECCAK256 \t\t\t \"Sender lacks\n      PUSH 1\t\t\t \"Sender lacks TRADER_RO\n      ADD \t\t\t \"Sender lacks TRADER_RO\n      SLOAD \t\t\t \"Sender lacks TRADER_RO\n      SWAP2 \t\t\t from), \"Sender lacks TRADER_R...\n      POP \t\t\t from), \"Sender lacks TRADER_R...\n      POP \t\t\t from), \"Sender lacks TRADER_R...\n      SWAP2 \t\t\ttraderRestrictionActive is tru...\n      SWAP1 \t\t\ttraderRestrictionActive is tru...\n      POP \t\t\ttraderRestrictionActive is tru...\n      JUMP \t\t\ttraderRestrictionActive is tru...\n    tag 93\t\t\tnction setTraderRestriction(bo...\n      JUMPDEST \t\t\tnction setTraderRestriction(bo...\n      PUSH 0\t\t\t  _s\n      PUSH 0\t\t\tFAULT_ADMIN_ROLE) \n      SHL \t\t\tFAULT_ADMIN_ROLE) \n      PUSH [tag] 257\t\t\tverride returns \n      DUP2 \t\t\turns\n      PUSH [tag] 258\t\t\tverride re\n      JUMP \t\t\tverride returns \n    tag 257\t\t\tverride returns \n      JUMPDEST \t\t\tverride returns \n      DUP2 \t\t\ttive;\\n\n      PUSH 3\t\t\taderRestrictionActive =\n      PUSH 0\t\t\taderRestrictionActive =\n      PUSH 100\t\t\taderRestrictionActive = active...\n      EXP \t\t\taderRestrictionActive = active...\n      DUP2 \t\t\taderRestrictionActive = active...\n      SLOAD \t\t\taderRestrictionActive = active...\n      DUP2 \t\t\taderRestrictionActive = active...\n      PUSH FF\t\t\taderRestrictionActive = active...\n      MUL \t\t\taderRestrictionActive = active...\n      NOT \t\t\taderRestrictionActive = active...\n      AND \t\t\taderRestrictionActive = active...\n      SWAP1 \t\t\taderRestrictionActive = active...\n      DUP4 \t\t\taderRestrictionActive = active...\n      ISZERO \t\t\taderRestrictionActive = active...\n      ISZERO \t\t\taderRestrictionActive = active...\n      MUL \t\t\taderRestrictionActive = active...\n      OR \t\t\taderRestrictionActive = active...\n      SWAP1 \t\t\taderRestrictionActive = active...\n      SSTORE \t\t\taderRestrictionActive = active...\n      POP \t\t\taderRestrictionActive = active...\n      PUSH 24B29EE845E0E3F55662A5CCBBD026629D29229DE2A98B6C12F968D8D0C3E24E\t\t\taderRestrictionUpdated(active)...\n      DUP3 \t\t\ttive);\n      PUSH 40\t\t\taderRestrictionUpdated(active)...\n      MLOAD \t\t\taderRestrictionUpdated(active)...\n      PUSH [tag] 260\t\t\taderRestrictionUpdated(active)...\n      SWAP2 \t\t\taderRestrictionUpdated(active)...\n      SWAP1 \t\t\taderRestrictionUpdated(active)...\n      PUSH [tag] 55\t\t\taderRestrictionUpdated(active)...\n      JUMP \t\t\taderRestrictionUpdated(active)...\n    tag 260\t\t\taderRestrictionUpdated(active)...\n      JUMPDEST \t\t\taderRestrictionUpdated(active)...\n      PUSH 40\t\t\taderRestrictionUpdated(active)...\n      MLOAD \t\t\taderRestrictionUpdated(active)...\n      DUP1 \t\t\taderRestrictionUpdated(active)...\n      SWAP2 \t\t\taderRestrictionUpdated(active)...\n      SUB \t\t\taderRestrictionUpdated(active)...\n      SWAP1 \t\t\taderRestrictionUpdated(active)...\n      LOG1 \t\t\taderRestrictionUpdated(active)...\n      POP \t\t\tnction setTraderRestriction(bo...\n      POP \t\t\tnction setTraderRestriction(bo...\n      JUMP \t\t\tnction setTraderRestriction(bo...\n    tag 96\t\t\tbool public traderRestrictionA...\n      JUMPDEST \t\t\tbool public traderRestrictionA...\n      PUSH 3\t\t\tbool public traderRestrictionA...\n      PUSH 0\t\t\tbool public traderRestrictionA...\n      SWAP1 \t\t\tbool public traderRestrictionA...\n      SLOAD \t\t\tbool public traderRestrictionA...\n      SWAP1 \t\t\tbool public traderRestrictionA...\n      PUSH 100\t\t\tbool public traderRestrictionA...\n      EXP \t\t\tbool public traderRestrictionA...\n      SWAP1 \t\t\tbool public traderRestrictionA...\n      DIV \t\t\tbool public traderRestrictionA...\n      PUSH FF\t\t\tbool public traderRestrictionA...\n      AND \t\t\tbool public traderRestrictionA...\n      DUP2 \t\t\tbool public traderRestrictionA...\n      JUMP \t\t\tbool public traderRestrictionA...\n    tag 102\t\t\t Upgrade Authorization (only o...\n      JUMPDEST \t\t\t Upgrade Authorization (only o...\n      PUSH [tag] 261\t\t\tddress newImplemen\n      DUP3 \t\t\tleme\n      PUSH [tag] 87\t\t\tddress newIm\n      JUMP \t\t\tddress newImplemen\n    tag 261\t\t\tddress newImplemen\n      JUMPDEST \t\t\tddress newImplemen\n      PUSH [tag] 263\t\t\tverride returns \n      DUP2 \t\t\turns\n      PUSH [tag] 258\t\t\tverride re\n      JUMP \t\t\tverride returns \n    tag 263\t\t\tverride returns \n      JUMPDEST \t\t\tverride returns \n      PUSH [tag] 265\t\t\t    internal\\n        over\n      DUP4 \t\t\tl\\n  \n      DUP4 \t\t\t    ove\n      PUSH [tag] 266\t\t\t    intern\n      JUMP \t\t\t    internal\\n        over\n    tag 265\t\t\t    internal\\n        over\n      JUMPDEST \t\t\t    internal\\n        over\n      POP \t\t\t    internal\\n        over\n      POP \t\t\t Upgrade Authorization (only o...\n      POP \t\t\t Upgrade Authorization (only o...\n      POP \t\t\t Upgrade Authorization (only o...\n      JUMP \t\t\t Upgrade Authorization (only o...\n    tag 105\t\t\t    emit WalletFrozen(account)...\n      JUMPDEST \t\t\t    emit WalletFrozen(account)...\n      PUSH 0\t\t\ton un\n      PUSH 12\t\t\ts \n      SWAP1 \t\t\t(address \n      POP \t\t\t(address \n      SWAP1 \t\t\t    emit WalletFrozen(account)...\n      JUMP \t\t\t    emit WalletFrozen(account)...\n    tag 111\t\t\t\n      JUMPDEST \t\t\t\n      PUSH [tag] 269\t\t\t\n      PUSH [tag] 241\t\t\t\n      JUMP \t\t\t\n    tag 269\t\t\t\n      JUMPDEST \t\t\t\n      PUSH FFFFFFFFFFFFFFFFFFFFFFFFFFFFFFFFFFFFFFFF\t\t\t\n      AND \t\t\t\n      DUP2 \t\t\t\n      PUSH FFFFFFFFFFFFFFFFFFFFFFFFFFFFFFFFFFFFFFFF\t\t\t\n      AND \t\t\t\n      EQ \t\t\t\n      PUSH [tag] 270\t\t\t\n      JUMPI \t\t\t\n      PUSH 40\t\t\t\n      MLOAD \t\t\t\n      PUSH 6697B23200000000000000000000000000000000000000000000000000000000\t\t\t\n      DUP2 \t\t\t\n      MSTORE \t\t\t\n      PUSH 4\t\t\t\n      ADD \t\t\t\n      PUSH 40\t\t\t\n      MLOAD \t\t\t\n      DUP1 \t\t\t\n      SWAP2 \t\t\t\n      SUB \t\t\t\n      SWAP1 \t\t\t\n      REVERT \t\t\t\n    tag 270\t\t\t\n      JUMPDEST \t\t\t\n      PUSH [tag] 271\t\t\t\n      DUP3 \t\t\t\n      DUP3 \t\t\t\n      PUSH [tag] 272\t\t\t\n      JUMP \t\t\t\n    tag 271\t\t\t\n      JUMPDEST \t\t\t\n      POP \t\t\t\n      POP \t\t\t\n      POP \t\t\t\n      JUMP \t\t\t\n    tag 114\t\t\tnction unpause() external only...\n      JUMPDEST \t\t\tnction unpause() external only...\n      PUSH 65D7A28E3265B37A6474929F336521B332C1681B933F6CB9F3376673440D862A\t\t\tkeccak256(\"PAUSER_ROLE\")\n      PUSH [tag] 274\t\t\tverride returns \n      DUP2 \t\t\turns\n      PUSH [tag] 258\t\t\tverride re\n      JUMP \t\t\tverride returns \n    tag 274\t\t\tverride returns \n      JUMPDEST \t\t\tverride returns \n      PUSH [tag] 276\t\t\tnpause();\\n\n      PUSH [tag] 277\t\t\tnpause()\n      JUMP \t\t\tnpause();\\n\n    tag 276\t\t\tnpause();\\n\n      JUMPDEST \t\t\tnpause();\\n\n      POP \t\t\tnction unpause() external only...\n      JUMP \t\t\tnction unpause() external only...\n    tag 118\t\t\tnction mint(address to, uint25...\n      JUMPDEST \t\t\tnction mint(address to, uint25...\n      PUSH 9F2DF0FED2C77648DE5860A4CC508CD0818C85B8B8A1AB4CEEEF8D981C8956A6\t\t\tkeccak256(\"MINTER_ROLE\")\n      PUSH [tag] 279\t\t\tverride returns \n      DUP2 \t\t\turns\n      PUSH [tag] 258\t\t\tverride re\n      JUMP \t\t\tverride returns \n    tag 279\t\t\tverride returns \n      JUMPDEST \t\t\tverride returns \n      PUSH [tag] 281\t\t\tint(to, amount);\\n\n      DUP4 \t\t\t, \n      DUP4 \t\t\tount);\n      PUSH [tag] 282\t\t\tint(t\n      JUMP \t\t\tint(to, amount);\\n\n    tag 281\t\t\tint(to, amount);\\n\n      JUMPDEST \t\t\tint(to, amount);\\n\n      DUP3 \t\t\t, \n      PUSH FFFFFFFFFFFFFFFFFFFFFFFFFFFFFFFFFFFFFFFF\t\t\tnted(to, amount);\\n\n      AND \t\t\tnted(to, amount);\\n\n      PUSH 30385C845B448A36257A6A1716E6AD2E1BC2CBE333CDE1E69FE849AD6511ADFE\t\t\tnted(to, amount);\\n\n      DUP4 \t\t\tount);\n      PUSH 40\t\t\tnted(to, amount);\\n\n      MLOAD \t\t\tnted(to, amount);\\n\n      PUSH [tag] 283\t\t\tnted(to, amount);\\n\n      SWAP2 \t\t\tnted(to, amount);\\n\n      SWAP1 \t\t\tnted(to, amount);\\n\n      PUSH [tag] 76\t\t\tnted(to, amount);\\n\n      JUMP \t\t\tnted(to, amount);\\n\n    tag 283\t\t\tnted(to, amount);\\n\n      JUMPDEST \t\t\tnted(to, amount);\\n\n      PUSH 40\t\t\tnted(to, amount);\\n\n      MLOAD \t\t\tnted(to, amount);\\n\n      DUP1 \t\t\tnted(to, amount);\\n\n      SWAP2 \t\t\tnted(to, amount);\\n\n      SUB \t\t\tnted(to, amount);\\n\n      SWAP1 \t\t\tnted(to, amount);\\n\n      LOG2 \t\t\tnted(to, amount);\\n\n      POP \t\t\tnction mint(address to, uint25...\n      POP \t\t\tnction mint(address to, uint25...\n      POP \t\t\tnction mint(address to, uint25...\n      JUMP \t\t\tnction mint(address to, uint25...\n    tag 123\t\t\tfunction initialize(\\n        ...\n      JUMPDEST \t\t\tfunction initialize(\\n        ...\n      PUSH 0\t\t\tnpause();\\n    }\\n\\n    // NEW...\n      PUSH [tag] 285\t\t\tION: Toggle the trader res\n      PUSH [tag] 286\t\t\tION: Toggle the trader r\n      JUMP \t\t\tION: Toggle the trader res\n    tag 285\t\t\tION: Toggle the trader res\n      JUMPDEST \t\t\tION: Toggle the trader res\n      SWAP1 \t\t\tnpause();\\n    }\\n\\n    // NEW...\n      POP \t\t\tnpause();\\n    }\\n\\n    // NEW...\n      PUSH 0\t\t\tal onlyRole(DEFAULT\n      DUP2 \t\t\tI\n      PUSH 0\t\t\tIN_ROLE) {\\n    \n      ADD \t\t\tIN_ROLE) {\\n    \n      PUSH 8\t\t\tIN_ROLE) {\\n    \n      SWAP1 \t\t\tIN_ROLE) {\\n    \n      SLOAD \t\t\tIN_ROLE) {\\n    \n      SWAP1 \t\t\tIN_ROLE) {\\n    \n      PUSH 100\t\t\tIN_ROLE) {\\n    \n      EXP \t\t\tIN_ROLE) {\\n    \n      SWAP1 \t\t\tIN_ROLE) {\\n    \n      DIV \t\t\tIN_ROLE) {\\n    \n      PUSH FF\t\t\tIN_ROLE) {\\n    \n      AND \t\t\tIN_ROLE) {\\n    \n      ISZERO \t\t\tMIN_ROLE) {\\n    \n      SWAP1 \t\t\tal onlyRole(DEFAULT_ADMIN_ROLE...\n      POP \t\t\tal onlyRole(DEFAULT_ADMIN_ROLE...\n      PUSH 0\t\t\tRestrictionActive \n      DUP3 \t\t\tc\n      PUSH 0\t\t\tctive;\\n       \n      ADD \t\t\tctive;\\n       \n      PUSH 0\t\t\tctive;\\n       \n      SWAP1 \t\t\tctive;\\n       \n      SLOAD \t\t\tctive;\\n       \n      SWAP1 \t\t\tctive;\\n       \n      PUSH 100\t\t\tctive;\\n       \n      EXP \t\t\tctive;\\n       \n      SWAP1 \t\t\tctive;\\n       \n      DIV \t\t\tctive;\\n       \n      PUSH FFFFFFFFFFFFFFFF\t\t\tctive;\\n       \n      AND \t\t\tctive;\\n       \n      SWAP1 \t\t\tRestrictionActive = active;\\n ...\n      POP \t\t\tRestrictionActive = active;\\n ...\n      PUSH 0\t\t\t        // 2. Tra\n      PUSH 0\t\t\t–\n      DUP3 \t\t\ter restrict\n      PUSH FFFFFFFFFFFFFFFF\t\t\ter restriction –\n      AND \t\t\ter restriction –\n      EQ \t\t\ter restriction –\n      DUP1 \t\t\ter restriction – Applied ONLY ...\n      ISZERO \t\t\ter restriction – Applied ONLY ...\n      PUSH [tag] 287\t\t\ter restriction – Applied ONLY ...\n      JUMPI \t\t\ter restriction – Applied ONLY ...\n      POP \t\t\ter restriction – Applied ONLY ...\n      DUP3 \t\t\tlied ONLY if t\n    tag 287\t\t\ter restriction – Applied ONLY ...\n      JUMPDEST \t\t\ter restriction – Applied ONLY ...\n      SWAP1 \t\t\t        // 2. Transfer restric...\n      POP \t\t\t        // 2. Transfer restric...\n      PUSH 0\t\t\tictionActive is t\n      PUSH 1\t\t\ta\n      DUP4 \t\t\t\\n        if\n      PUSH FFFFFFFFFFFFFFFF\t\t\t\\n        if (tra\n      AND \t\t\t\\n        if (tra\n      EQ \t\t\t\\n        if (tra\n      DUP1 \t\t\t\\n        if (traderRestrictio...\n      ISZERO \t\t\t\\n        if (traderRestrictio...\n      PUSH [tag] 288\t\t\t\\n        if (traderRestrictio...\n      JUMPI \t\t\t\\n        if (traderRestrictio...\n      POP \t\t\t\\n        if (traderRestrictio...\n      PUSH 0\t\t\td\n      ADDRESS \t\t\tonAc\n      PUSH FFFFFFFFFFFFFFFFFFFFFFFFFFFFFFFFFFFFFFFF\t\t\testrictionActive && from \n      AND \t\t\testrictionActive && from \n      EXTCODESIZE \t\t\testrictionActive && from \n      EQ \t\t\testrictionActive && from != ad\n    tag 288\t\t\t\\n        if (traderRestrictio...\n      JUMPDEST \t\t\t\\n        if (traderRestrictio...\n      SWAP1 \t\t\tictionActive is true\\n        ...\n      POP \t\t\tictionActive is true\\n        ...\n      DUP2 \t\t\t= address(0)\n      ISZERO \t\t\t!= address(0)\n      DUP1 \t\t\t!= address(0)) {\\n            ...\n      ISZERO \t\t\t!= address(0)) {\\n            ...\n      PUSH [tag] 289\t\t\t!= address(0)) {\\n            ...\n      JUMPI \t\t\t!= address(0)) {\\n            ...\n      POP \t\t\t!= address(0)) {\\n            ...\n      DUP1 \t\t\t           r\n      ISZERO \t\t\t            r\n    tag 289\t\t\t!= address(0)) {\\n            ...\n      JUMPDEST \t\t\t!= address(0)) {\\n            ...\n      ISZERO \t\t\t to != address(0)) {\\n        ...\n      PUSH [tag] 290\t\t\t to != address(0)) {\\n        ...\n      JUMPI \t\t\t to != address(0)) {\\n        ...\n      PUSH 40\t\t\tOLE, from), \"Sender lac\n      MLOAD \t\t\tOLE, from), \"Sender lac\n      PUSH F92EE8A900000000000000000000000000000000000000000000000000000000\t\t\tOLE, from), \"Sender lac\n      DUP2 \t\t\tOLE, from), \"Sender lac\n      MSTORE \t\t\tOLE, from), \"Sender lac\n      PUSH 4\t\t\tOLE, from), \"Sender lac\n      ADD \t\t\tOLE, from), \"Sender lac\n      PUSH 40\t\t\tOLE, from), \"Sender lac\n      MLOAD \t\t\tOLE, from), \"Sender lac\n      DUP1 \t\t\tOLE, from), \"Sender lac\n      SWAP2 \t\t\tOLE, from), \"Sender lac\n      SUB \t\t\tOLE, from), \"Sender lac\n      SWAP1 \t\t\tOLE, from), \"Sender lac\n      REVERT \t\t\tOLE, from), \"Sender lac\n    tag 290\t\t\t to != address(0)) {\\n        ...\n      JUMPDEST \t\t\t to != address(0)) {\\n        ...\n      PUSH 1\t\t\ta\n      DUP6 \t\t\t \n      PUSH 0\t\t\t           if \n      ADD \t\t\t           if \n      PUSH 0\t\t\t           if \n      PUSH 100\t\t\t           if (!ha\n      EXP \t\t\t           if (!ha\n      DUP2 \t\t\t           if (!ha\n      SLOAD \t\t\t           if (!ha\n      DUP2 \t\t\t           if (!ha\n      PUSH FFFFFFFFFFFFFFFF\t\t\t           if (!ha\n      MUL \t\t\t           if (!ha\n      NOT \t\t\t           if (!ha\n      AND \t\t\t           if (!ha\n      SWAP1 \t\t\t           if (!ha\n      DUP4 \t\t\t           if (!ha\n      PUSH FFFFFFFFFFFFFFFF\t\t\t           if (!ha\n      AND \t\t\t           if (!ha\n      MUL \t\t\t           if (!ha\n      OR \t\t\t           if (!ha\n      SWAP1 \t\t\t           if (!ha\n      SSTORE \t\t\t           if (!ha\n      POP \t\t\t           if (!ha\n      DUP4 \t\t\tOLE, to)) {\\n  \n      ISZERO \t\t\tER_ROLE, to)) {\\n             ...\n      PUSH [tag] 291\t\t\tER_ROLE, to)) {\\n             ...\n      JUMPI \t\t\tER_ROLE, to)) {\\n             ...\n      PUSH 1\t\t\t) ==\n      DUP6 \t\t\tq\n      PUSH 0\t\t\tquire(balanceOf\n      ADD \t\t\tquire(balanceOf\n      PUSH 8\t\t\tquire(balanceOf\n      PUSH 100\t\t\tquire(balanceOf(to) ==\n      EXP \t\t\tquire(balanceOf(to) ==\n      DUP2 \t\t\tquire(balanceOf(to) ==\n      SLOAD \t\t\tquire(balanceOf(to) ==\n      DUP2 \t\t\tquire(balanceOf(to) ==\n      PUSH FF\t\t\tquire(balanceOf(to) ==\n      MUL \t\t\tquire(balanceOf(to) ==\n      NOT \t\t\tquire(balanceOf(to) ==\n      AND \t\t\tquire(balanceOf(to) ==\n      SWAP1 \t\t\tquire(balanceOf(to) ==\n      DUP4 \t\t\tquire(balanceOf(to) ==\n      ISZERO \t\t\tquire(balanceOf(to) ==\n      ISZERO \t\t\tquire(balanceOf(to) ==\n      MUL \t\t\tquire(balanceOf(to) ==\n      OR \t\t\tquire(balanceOf(to) ==\n      SWAP1 \t\t\tquire(balanceOf(to) ==\n      SSTORE \t\t\tquire(balanceOf(to) ==\n      POP \t\t\tquire(balanceOf(to) ==\n    tag 291\t\t\tER_ROLE, to)) {\\n             ...\n      JUMPDEST \t\t\tER_ROLE, to)) {\\n             ...\n      PUSH [tag] 293\t\t\t__ERC20_init(name_, symbol_)\n      DUP10 \t\t\tname_\n      DUP10 \t\t\tname_\n      DUP1 \t\t\t__ERC20_init(name_, symbol_)\n      DUP1 \t\t\t__ERC20_init(name_, symbol_)\n      PUSH 1F\t\t\t__ERC20_init(name_, symbol_)\n      ADD \t\t\t__ERC20_init(name_, symbol_)\n      PUSH 20\t\t\t__ERC20_init(name_, symbol_)\n      DUP1 \t\t\t__ERC20_init(name_, symbol_)\n      SWAP2 \t\t\t__ERC20_init(name_, symbol_)\n      DIV \t\t\t__ERC20_init(name_, symbol_)\n      MUL \t\t\t__ERC20_init(name_, symbol_)\n      PUSH 20\t\t\t__ERC20_init(name_, symbol_)\n      ADD \t\t\t__ERC20_init(name_, symbol_)\n      PUSH 40\t\t\t__ERC20_init(name_, symbol_)\n      MLOAD \t\t\t__ERC20_init(name_, symbol_)\n      SWAP1 \t\t\t__ERC20_init(name_, symbol_)\n      DUP2 \t\t\t__ERC20_init(name_, symbol_)\n      ADD \t\t\t__ERC20_init(name_, symbol_)\n      PUSH 40\t\t\t__ERC20_init(name_, symbol_)\n      MSTORE \t\t\t__ERC20_init(name_, symbol_)\n      DUP1 \t\t\t__ERC20_init(name_, symbol_)\n      SWAP4 \t\t\t__ERC20_init(name_, symbol_)\n      SWAP3 \t\t\t__ERC20_init(name_, symbol_)\n      SWAP2 \t\t\t__ERC20_init(name_, symbol_)\n      SWAP1 \t\t\t__ERC20_init(name_, symbol_)\n      DUP2 \t\t\t__ERC20_init(name_, symbol_)\n      DUP2 \t\t\t__ERC20_init(name_, symbol_)\n      MSTORE \t\t\t__ERC20_init(name_, symbol_)\n      PUSH 20\t\t\t__ERC20_init(name_, symbol_)\n      ADD \t\t\t__ERC20_init(name_, symbol_)\n      DUP4 \t\t\t__ERC20_init(name_, symbol_)\n      DUP4 \t\t\t__ERC20_init(name_, symbol_)\n      DUP1 \t\t\t__ERC20_init(name_, symbol_)\n      DUP3 \t\t\t__ERC20_init(name_, symbol_)\n      DUP5 \t\t\t__ERC20_init(name_, symbol_)\n      CALLDATACOPY \t\t\t__ERC20_init(name_, symbol_)\n      PUSH 0\t\t\t__ERC20_init(name_, symbol_)\n      DUP2 \t\t\t__ERC20_init(name_, symbol_)\n      DUP5 \t\t\t__ERC20_init(name_, symbol_)\n      ADD \t\t\t__ERC20_init(name_, symbol_)\n      MSTORE \t\t\t__ERC20_init(name_, symbol_)\n      PUSH 1F\t\t\t__ERC20_init(name_, symbol_)\n      NOT \t\t\t__ERC20_init(name_, symbol_)\n      PUSH 1F\t\t\t__ERC20_init(name_, symbol_)\n      DUP3 \t\t\t__ERC20_init(name_, symbol_)\n      ADD \t\t\t__ERC20_init(name_, symbol_)\n      AND \t\t\t__ERC20_init(name_, symbol_)\n      SWAP1 \t\t\t__ERC20_init(name_, symbol_)\n      POP \t\t\t__ERC20_init(name_, symbol_)\n      DUP1 \t\t\t__ERC20_init(name_, symbol_)\n      DUP4 \t\t\t__ERC20_init(name_, symbol_)\n      ADD \t\t\t__ERC20_init(name_, symbol_)\n      SWAP3 \t\t\t__ERC20_init(name_, symbol_)\n      POP \t\t\t__ERC20_init(name_, symbol_)\n      POP \t\t\t__ERC20_init(name_, symbol_)\n      POP \t\t\t__ERC20_init(name_, symbol_)\n      POP \t\t\t__ERC20_init(name_, symbol_)\n      POP \t\t\t__ERC20_init(name_, symbol_)\n      POP \t\t\t__ERC20_init(name_, symbol_)\n      POP \t\t\t__ERC20_init(name_, symbol_)\n      DUP9 \t\t\tsymbol_\n      DUP9 \t\t\tsymbol_\n      DUP1 \t\t\t__ERC20_init(name_, symbol_)\n      DUP1 \t\t\t__ERC20_init(name_, symbol_)\n      PUSH 1F\t\t\t__ERC20_init(name_, symbol_)\n      ADD \t\t\t__ERC20_init(name_, symbol_)\n      PUSH 20\t\t\t__ERC20_init(name_, symbol_)\n      DUP1 \t\t\t__ERC20_init(name_, symbol_)\n      SWAP2 \t\t\t__ERC20_init(name_, symbol_)\n      DIV \t\t\t__ERC20_init(name_, symbol_)\n      MUL \t\t\t__ERC20_init(name_, symbol_)\n      PUSH 20\t\t\t__ERC20_init(name_, symbol_)\n      ADD \t\t\t__ERC20_init(name_, symbol_)\n      PUSH 40\t\t\t__ERC20_init(name_, symbol_)\n      MLOAD \t\t\t__ERC20_init(name_, symbol_)\n      SWAP1 \t\t\t__ERC20_init(name_, symbol_)\n      DUP2 \t\t\t__ERC20_init(name_, symbol_)\n      ADD \t\t\t__ERC20_init(name_, symbol_)\n      PUSH 40\t\t\t__ERC20_init(name_, symbol_)\n      MSTORE \t\t\t__ERC20_init(name_, symbol_)\n      DUP1 \t\t\t__ERC20_init(name_, symbol_)\n      SWAP4 \t\t\t__ERC20_init(name_, symbol_)\n      SWAP3 \t\t\t__ERC20_init(name_, symbol_)\n      SWAP2 \t\t\t__ERC20_init(name_, symbol_)\n      SWAP1 \t\t\t__ERC20_init(name_, symbol_)\n      DUP2 \t\t\t__ERC20_init(name_, symbol_)\n      DUP2 \t\t\t__ERC20_init(name_, symbol_)\n      MSTORE \t\t\t__ERC20_init(name_, symbol_)\n      PUSH 20\t\t\t__ERC20_init(name_, symbol_)\n      ADD \t\t\t__ERC20_init(name_, symbol_)\n      DUP4 \t\t\t__ERC20_init(name_, symbol_)\n      DUP4 \t\t\t__ERC20_init(name_, symbol_)\n      DUP1 \t\t\t__ERC20_init(name_, symbol_)\n      DUP3 \t\t\t__ERC20_init(name_, symbol_)\n      DUP5 \t\t\t__ERC20_init(name_, symbol_)\n      CALLDATACOPY \t\t\t__ERC20_init(name_, symbol_)\n      PUSH 0\t\t\t__ERC20_init(name_, symbol_)\n      DUP2 \t\t\t__ERC20_init(name_, symbol_)\n      DUP5 \t\t\t__ERC20_init(name_, symbol_)\n      ADD \t\t\t__ERC20_init(name_, symbol_)\n      MSTORE \t\t\t__ERC20_init(name_, symbol_)\n      PUSH 1F\t\t\t__ERC20_init(name_, symbol_)\n      NOT \t\t\t__ERC20_init(name_, symbol_)\n      PUSH 1F\t\t\t__ERC20_init(name_, symbol_)\n      DUP3 \t\t\t__ERC20_init(name_, symbol_)\n      ADD \t\t\t__ERC20_init(name_, symbol_)\n      AND \t\t\t__ERC20_init(name_, symbol_)\n      SWAP1 \t\t\t__ERC20_init(name_, symbol_)\n      POP \t\t\t__ERC20_init(name_, symbol_)\n      DUP1 \t\t\t__ERC20_init(name_, symbol_)\n      DUP4 \t\t\t__ERC20_init(name_, symbol_)\n      ADD \t\t\t__ERC20_init(name_, symbol_)\n      SWAP3 \t\t\t__ERC20_init(name_, symbol_)\n      POP \t\t\t__ERC20_init(name_, symbol_)\n      POP \t\t\t__ERC20_init(name_, symbol_)\n      POP \t\t\t__ERC20_init(name_, symbol_)\n      POP \t\t\t__ERC20_init(name_, symbol_)\n      POP \t\t\t__ERC20_init(name_, symbol_)\n      POP \t\t\t__ERC20_init(name_, symbol_)\n      POP \t\t\t__ERC20_init(name_, symbol_)\n      PUSH [tag] 294\t\t\t__ERC20_init\n      JUMP \t\t\t__ERC20_init(name_, symbol_)\n    tag 293\t\t\t__ERC20_init(name_, symbol_)\n      JUMPDEST \t\t\t__ERC20_init(name_, symbol_)\n      PUSH [tag] 295\t\t\t__ERC20Pausable_init()\n      PUSH [tag] 296\t\t\t__ERC20Pausable_init\n      JUMP \t\t\t__ERC20Pausable_init()\n    tag 295\t\t\t__ERC20Pausable_init()\n      JUMPDEST \t\t\t__ERC20Pausable_init()\n      PUSH [tag] 297\t\t\t__Ownable_init(msg.sender)\n      CALLER \t\t\tmsg.sender\n      PUSH [tag] 298\t\t\t__Ownable_init\n      JUMP \t\t\t__Ownable_init(msg.sender)\n    tag 297\t\t\t__Ownable_init(msg.sender)\n      JUMPDEST \t\t\t__Ownable_init(msg.sender)\n      PUSH [tag] 299\t\t\t__Ownable2Step_init()\n      PUSH [tag] 300\t\t\t__Ownable2Step_init\n      JUMP \t\t\t__Ownable2Step_init()\n    tag 299\t\t\t__Ownable2Step_init()\n      JUMPDEST \t\t\t__Ownable2Step_init()\n      PUSH [tag] 301\t\t\t__AccessControl_init()\n      PUSH [tag] 302\t\t\t__AccessControl_init\n      JUMP \t\t\t__AccessControl_init()\n    tag 301\t\t\t__AccessControl_init()\n      JUMPDEST \t\t\t__AccessControl_init()\n      DUP9 \t\t\tme_;\\n\n      DUP9 \t\t\tme_;\\n\n      PUSH 0\t\t\tame =\n      SWAP2 \t\t\tame = name_;\\n\n      DUP3 \t\t\tame = name_;\\n\n      PUSH [tag] 303\t\t\tame = name_;\\n\n      SWAP3 \t\t\tame = name_;\\n\n      SWAP2 \t\t\tame = name_;\\n\n      SWAP1 \t\t\tame = name_;\\n\n      PUSH [tag] 304\t\t\tame = name_;\\n\n      JUMP \t\t\tame = name_;\\n\n    tag 303\t\t\tame = name_;\\n\n      JUMPDEST \t\t\tame = name_;\\n\n      POP \t\t\tame = name_;\\n\n      DUP7 \t\t\tmbol_;\\n\n      DUP7 \t\t\tmbol_;\\n\n      PUSH 1\t\t\tymbol =\n      SWAP2 \t\t\tymbol = symbol_;\\n\n      DUP3 \t\t\tymbol = symbol_;\\n\n      PUSH [tag] 305\t\t\tymbol = symbol_;\\n\n      SWAP3 \t\t\tymbol = symbol_;\\n\n      SWAP2 \t\t\tymbol = symbol_;\\n\n      SWAP1 \t\t\tymbol = symbol_;\\n\n      PUSH [tag] 304\t\t\tymbol = symbol_;\\n\n      JUMP \t\t\tymbol = symbol_;\\n\n    tag 305\t\t\tymbol = symbol_;\\n\n      JUMPDEST \t\t\tymbol = symbol_;\\n\n      POP \t\t\tymbol = symbol_;\\n\n      PUSH [tag] 306\t\t\trantRole(DEFAULT_ADMIN_ROLE, m...\n      PUSH 0\t\t\t  _s\n      PUSH 0\t\t\tFAULT_ADMIN_ROLE, \n      SHL \t\t\tFAULT_ADMIN_ROLE, \n      CALLER \t\t\tg.sender);\n      PUSH [tag] 266\t\t\trantRole(D\n      JUMP \t\t\trantRole(DEFAULT_ADMIN_ROLE, m...\n    tag 306\t\t\trantRole(DEFAULT_ADMIN_ROLE, m...\n      JUMPDEST \t\t\trantRole(DEFAULT_ADMIN_ROLE, m...\n      POP \t\t\trantRole(DEFAULT_ADMIN_ROLE, m...\n      PUSH [tag] 307\t\t\trantRole(MINTER_ROLE, msg.send...\n      PUSH 9F2DF0FED2C77648DE5860A4CC508CD0818C85B8B8A1AB4CEEEF8D981C8956A6\t\t\tkeccak256(\"MINTER_ROLE\")\n      CALLER \t\t\tg.sender);\n      PUSH [tag] 266\t\t\trantRole(M\n      JUMP \t\t\trantRole(MINTER_ROLE, msg.send...\n    tag 307\t\t\trantRole(MINTER_ROLE, msg.send...\n      JUMPDEST \t\t\trantRole(MINTER_ROLE, msg.send...\n      POP \t\t\trantRole(MINTER_ROLE, msg.send...\n      PUSH [tag] 308\t\t\trantRole(FREEZER_ROLE, msg.sen...\n      PUSH 92DE27771F92D6942691D73358B3A4673E4880DE8356F8F2CF452BE87E02D363\t\t\tkeccak256(\"FREEZER_ROLE\")\n      CALLER \t\t\tg.sender);\n      PUSH [tag] 266\t\t\trantRole(F\n      JUMP \t\t\trantRole(FREEZER_ROLE, msg.sen...\n    tag 308\t\t\trantRole(FREEZER_ROLE, msg.sen...\n      JUMPDEST \t\t\trantRole(FREEZER_ROLE, msg.sen...\n      POP \t\t\trantRole(FREEZER_ROLE, msg.sen...\n      PUSH [tag] 309\t\t\trantRole(PAUSER_ROLE, msg.send...\n      PUSH 65D7A28E3265B37A6474929F336521B332C1681B933F6CB9F3376673440D862A\t\t\tkeccak256(\"PAUSER_ROLE\")\n      CALLER \t\t\tg.sender);\n      PUSH [tag] 266\t\t\trantRole(P\n      JUMP \t\t\trantRole(PAUSER_ROLE, msg.send...\n    tag 309\t\t\trantRole(PAUSER_ROLE, msg.send...\n      JUMPDEST \t\t\trantRole(PAUSER_ROLE, msg.send...\n      POP \t\t\trantRole(PAUSER_ROLE, msg.send...\n      DUP4 \t\t\t TRADER_ROLE\")\n      ISZERO \t\t\tacks TRADER_ROLE\");\\n         ...\n      PUSH [tag] 310\t\t\tacks TRADER_ROLE\");\\n         ...\n      JUMPI \t\t\tacks TRADER_ROLE\");\\n         ...\n      PUSH 0\t\t\t // 3\n      DUP6 \t\t\t \n      PUSH 0\t\t\t        }\\n\\n    \n      ADD \t\t\t        }\\n\\n    \n      PUSH 8\t\t\t        }\\n\\n    \n      PUSH 100\t\t\t        }\\n\\n        // 3\n      EXP \t\t\t        }\\n\\n        // 3\n      DUP2 \t\t\t        }\\n\\n        // 3\n      SLOAD \t\t\t        }\\n\\n        // 3\n      DUP2 \t\t\t        }\\n\\n        // 3\n      PUSH FF\t\t\t        }\\n\\n        // 3\n      MUL \t\t\t        }\\n\\n        // 3\n      NOT \t\t\t        }\\n\\n        // 3\n      AND \t\t\t        }\\n\\n        // 3\n      SWAP1 \t\t\t        }\\n\\n        // 3\n      DUP4 \t\t\t        }\\n\\n        // 3\n      ISZERO \t\t\t        }\\n\\n        // 3\n      ISZERO \t\t\t        }\\n\\n        // 3\n      MUL \t\t\t        }\\n\\n        // 3\n      OR \t\t\t        }\\n\\n        // 3\n      SWAP1 \t\t\t        }\\n\\n        // 3\n      SSTORE \t\t\t        }\\n\\n        // 3\n      POP \t\t\t        }\\n\\n        // 3\n      PUSH C7F505B2F371AE2175EE4913F4499E1F2633A7B5936321EED1CDAEB6115181D2\t\t\t handle pause \n      PUSH 1\t\t\te\n      PUSH 40\t\t\t handle pause \n      MLOAD \t\t\t handle pause \n      PUSH [tag] 311\t\t\t handle pause \n      SWAP2 \t\t\t handle pause \n      SWAP1 \t\t\t handle pause \n      PUSH [tag] 312\t\t\t handle pause \n      JUMP \t\t\t handle pause \n    tag 311\t\t\t handle pause \n      JUMPDEST \t\t\t handle pause \n      PUSH 40\t\t\t handle pause \n      MLOAD \t\t\t handle pause \n      DUP1 \t\t\t handle pause \n      SWAP2 \t\t\t handle pause \n      SUB \t\t\t handle pause \n      SWAP1 \t\t\t handle pause \n      LOG1 \t\t\t handle pause \n    tag 310\t\t\tacks TRADER_ROLE\");\\n         ...\n      JUMPDEST \t\t\tacks TRADER_ROLE\");\\n         ...\n      POP \t\t\t    function unpause() externa...\n      POP \t\t\t    function unpause() externa...\n      POP \t\t\t    function unpause() externa...\n      POP \t\t\t    function unpause() externa...\n      POP \t\t\t    function unpause() externa...\n      POP \t\t\tfunction initialize(\\n        ...\n      POP \t\t\tfunction initialize(\\n        ...\n      POP \t\t\tfunction initialize(\\n        ...\n      POP \t\t\tfunction initialize(\\n        ...\n      JUMP \t\t\tfunction initialize(\\n        ...\n    tag 127\t\t\t \"Not frozen\");\\n        _froz...\n      JUMPDEST \t\t\t \"Not frozen\");\\n        _froz...\n      PUSH [tag] 314\t\t\tAUSER_ROLE, m\n      PUSH [tag] 315\t\t\tAUSER_ROLE,\n      JUMP \t\t\tAUSER_ROLE, m\n    tag 314\t\t\tAUSER_ROLE, m\n      JUMPDEST \t\t\tAUSER_ROLE, m\n      PUSH [tag] 317\t\t\tpause() external onlyRole(PAUS...\n      DUP3 \t\t\tnlyRole(PAUSER_RO\n      PUSH [tag] 318\t\t\tpause() external \n      JUMP \t\t\tpause() external onlyRole(PAUS...\n    tag 317\t\t\tpause() external onlyRole(PAUS...\n      JUMPDEST \t\t\tpause() external onlyRole(PAUS...\n      PUSH [tag] 319\t\t\t   _pause();\\n    }\\n\\n    fun...\n      DUP3 \t\t\t  function unpaus\n      DUP3 \t\t\t) ex\n      PUSH [tag] 320\t\t\t   _pause();\\n    }\\n\\n \n      JUMP \t\t\t   _pause();\\n    }\\n\\n    fun...\n    tag 319\t\t\t   _pause();\\n    }\\n\\n    fun...\n      JUMPDEST \t\t\t   _pause();\\n    }\\n\\n    fun...\n      POP \t\t\t \"Not frozen\");\\n        _froz...\n      POP \t\t\t \"Not frozen\");\\n        _froz...\n      JUMP \t\t\t \"Not frozen\");\\n        _froz...\n    tag 130\t\t\tunt) external onlyRole(MINTER_...\n      JUMPDEST \t\t\tunt) external onlyRole(MINTER_...\n      PUSH 0\t\t\tt);\\n   \n      PUSH [tag] 322\t\t\tlldata newName) exte\n      PUSH [tag] 323\t\t\tlldata newName) ex\n      JUMP \t\t\tlldata newName) exte\n    tag 322\t\t\tlldata newName) exte\n      JUMPDEST \t\t\tlldata newName) exte\n      PUSH 360894A13BA1A3210667C828492DB98DCA3E2076CC3735A920A3CA505D382BBC\t\t\tOLE\");\\n    bytes32 public con...\n      PUSH 0\t\t\t, amount);\\n    }\\n\\n    funct...\n      SHL \t\t\t, amount);\\n    }\\n\\n    funct...\n      SWAP1 \t\t\tnted(to, amount);\\n    }\\n\\n  ...\n      POP \t\t\tnted(to, amount);\\n    }\\n\\n  ...\n      SWAP1 \t\t\tunt) external onlyRole(MINTER_...\n      JUMP \t\t\tunt) external onlyRole(MINTER_...\n    tag 134\t\t\tole(FREEZER_ROLE, msg.sender);...\n      JUMPDEST \t\t\tole(FREEZER_ROLE, msg.sender);...\n      PUSH 0\t\t\tle(P\n      PUSH 0\t\t\tmsg.sender);\\n    }\\n\\n    /\n      PUSH [tag] 326\t\t\tEW V2 INITIALIZER: Se\n      PUSH [tag] 327\t\t\tEW V2 INITIALIZER: \n      JUMP \t\t\tEW V2 INITIALIZER: Se\n    tag 326\t\t\tEW V2 INITIALIZER: Se\n      JUMPDEST \t\t\tEW V2 INITIALIZER: Se\n      SWAP1 \t\t\tmsg.sender);\\n    }\\n\\n    // ...\n      POP \t\t\tmsg.sender);\\n    }\\n\\n    // ...\n      DUP1 \t\t\tl\n      PUSH 0\t\t\tlly\\n    f\n      ADD \t\t\tlly\\n    f\n      PUSH 0\t\t\tlly\\n    f\n      SWAP1 \t\t\tlly\\n    f\n      SLOAD \t\t\tlly\\n    f\n      SWAP1 \t\t\tlly\\n    f\n      PUSH 100\t\t\tlly\\n    f\n      EXP \t\t\tlly\\n    f\n      SWAP1 \t\t\tlly\\n    f\n      DIV \t\t\tlly\\n    f\n      PUSH FF\t\t\tlly\\n    f\n      AND \t\t\tlly\\n    f\n      SWAP2 \t\t\t initially\\n    f\n      POP \t\t\t initially\\n    f\n      POP \t\t\t initially\\n    f\n      SWAP1 \t\t\tole(FREEZER_ROLE, msg.sender);...\n      JUMP \t\t\tole(FREEZER_ROLE, msg.sender);...\n    tag 138\t\t\tnction initializeV2() external...\n      JUMPDEST \t\t\tnction initializeV2() external...\n      PUSH 2\t\t\t \n      PUSH 0\t\t\t\n      PUSH [tag] 329\t\t\t\n      PUSH [tag] 286\t\t\t\n      JUMP \t\t\t\n    tag 329\t\t\t\n      JUMPDEST \t\t\t\n      SWAP1 \t\t\t\n      POP \t\t\t\n      DUP1 \t\t\t\n      PUSH 0\t\t\t\n      ADD \t\t\t\n      PUSH 8\t\t\t\n      SWAP1 \t\t\t\n      SLOAD \t\t\t\n      SWAP1 \t\t\t\n      PUSH 100\t\t\t\n      EXP \t\t\t\n      SWAP1 \t\t\t\n      DIV \t\t\t\n      PUSH FF\t\t\t\n      AND \t\t\t\n      DUP1 \t\t\t\n      PUSH [tag] 330\t\t\t\n      JUMPI \t\t\t\n      POP \t\t\t\n      DUP2 \t\t\t\n      PUSH FFFFFFFFFFFFFFFF\t\t\t\n      AND \t\t\t\n      DUP2 \t\t\t\n      PUSH 0\t\t\t\n      ADD \t\t\t\n      PUSH 0\t\t\t\n      SWAP1 \t\t\t\n      SLOAD \t\t\t\n      SWAP1 \t\t\t\n      PUSH 100\t\t\t\n      EXP \t\t\t\n      SWAP1 \t\t\t\n      DIV \t\t\t\n      PUSH FFFFFFFFFFFFFFFF\t\t\t\n      AND \t\t\t\n      PUSH FFFFFFFFFFFFFFFF\t\t\t\n      AND \t\t\t\n      LT \t\t\t\n      ISZERO \t\t\t\n    tag 330\t\t\t\n      JUMPDEST \t\t\t\n      ISZERO \t\t\t\n      PUSH [tag] 331\t\t\t\n      JUMPI \t\t\t\n      PUSH 40\t\t\t\n      MLOAD \t\t\t\n      PUSH F92EE8A900000000000000000000000000000000000000000000000000000000\t\t\t\n      DUP2 \t\t\t\n      MSTORE \t\t\t\n      PUSH 4\t\t\t\n      ADD \t\t\t\n      PUSH 40\t\t\t\n      MLOAD \t\t\t\n      DUP1 \t\t\t\n      SWAP2 \t\t\t\n      SUB \t\t\t\n      SWAP1 \t\t\t\n      REVERT \t\t\t\n    tag 331\t\t\t\n      JUMPDEST \t\t\t\n      DUP2 \t\t\t\n      DUP2 \t\t\t\n      PUSH 0\t\t\t\n      ADD \t\t\t\n      PUSH 0\t\t\t\n      PUSH 100\t\t\t\n      EXP \t\t\t\n      DUP2 \t\t\t\n      SLOAD \t\t\t\n      DUP2 \t\t\t\n      PUSH FFFFFFFFFFFFFFFF\t\t\t\n      MUL \t\t\t\n      NOT \t\t\t\n      AND \t\t\t\n      SWAP1 \t\t\t\n      DUP4 \t\t\t\n      PUSH FFFFFFFFFFFFFFFF\t\t\t\n      AND \t\t\t\n      MUL \t\t\t\n      OR \t\t\t\n      SWAP1 \t\t\t\n      SSTORE \t\t\t\n      POP \t\t\t\n      PUSH 1\t\t\t\n      DUP2 \t\t\t\n      PUSH 0\t\t\t\n      ADD \t\t\t\n      PUSH 8\t\t\t\n      PUSH 100\t\t\t\n      EXP \t\t\t\n      DUP2 \t\t\t\n      SLOAD \t\t\t\n      DUP2 \t\t\t\n      PUSH FF\t\t\t\n      MUL \t\t\t\n      NOT \t\t\t\n      AND \t\t\t\n      SWAP1 \t\t\t\n      DUP4 \t\t\t\n      ISZERO \t\t\t\n      ISZERO \t\t\t\n      MUL \t\t\t\n      OR \t\t\t\n      SWAP1 \t\t\t\n      SSTORE \t\t\t\n      POP \t\t\t\n      PUSH 0\t\t\tlse;\\n\n      PUSH 3\t\t\taderRestrictionActive =\n      PUSH 0\t\t\taderRestrictionActive =\n      PUSH 100\t\t\taderRestrictionActive = false;...\n      EXP \t\t\taderRestrictionActive = false;...\n      DUP2 \t\t\taderRestrictionActive = false;...\n      SLOAD \t\t\taderRestrictionActive = false;...\n      DUP2 \t\t\taderRestrictionActive = false;...\n      PUSH FF\t\t\taderRestrictionActive = false;...\n      MUL \t\t\taderRestrictionActive = false;...\n      NOT \t\t\taderRestrictionActive = false;...\n      AND \t\t\taderRestrictionActive = false;...\n      SWAP1 \t\t\taderRestrictionActive = false;...\n      DUP4 \t\t\taderRestrictionActive = false;...\n      ISZERO \t\t\taderRestrictionActive = false;...\n      ISZERO \t\t\taderRestrictionActive = false;...\n      MUL \t\t\taderRestrictionActive = false;...\n      OR \t\t\taderRestrictionActive = false;...\n      SWAP1 \t\t\taderRestrictionActive = false;...\n      SSTORE \t\t\taderRestrictionActive = false;...\n      POP \t\t\taderRestrictionActive = false;...\n      PUSH 0\t\t\t\n      DUP2 \t\t\t\n      PUSH 0\t\t\t\n      ADD \t\t\t\n      PUSH 8\t\t\t\n      PUSH 100\t\t\t\n      EXP \t\t\t\n      DUP2 \t\t\t\n      SLOAD \t\t\t\n      DUP2 \t\t\t\n      PUSH FF\t\t\t\n      MUL \t\t\t\n      NOT \t\t\t\n      AND \t\t\t\n      SWAP1 \t\t\t\n      DUP4 \t\t\t\n      ISZERO \t\t\t\n      ISZERO \t\t\t\n      MUL \t\t\t\n      OR \t\t\t\n      SWAP1 \t\t\t\n      SSTORE \t\t\t\n      POP \t\t\t\n      PUSH C7F505B2F371AE2175EE4913F4499E1F2633A7B5936321EED1CDAEB6115181D2\t\t\t\n      DUP3 \t\t\t\n      PUSH 40\t\t\t\n      MLOAD \t\t\t\n      PUSH [tag] 333\t\t\t\n      SWAP2 \t\t\t\n      SWAP1 \t\t\t\n      PUSH [tag] 334\t\t\t\n      JUMP \t\t\t\n    tag 333\t\t\t\n      JUMPDEST \t\t\t\n      PUSH 40\t\t\t\n      MLOAD \t\t\t\n      DUP1 \t\t\t\n      SWAP2 \t\t\t\n      SUB \t\t\t\n      SWAP1 \t\t\t\n      LOG1 \t\t\t\n      POP \t\t\t\n      POP \t\t\tnction initializeV2() external...\n      JUMP \t\t\tnction initializeV2() external...\n    tag 143\t\t\tnction unfreezeWallet(address ...\n      JUMPDEST \t\t\tnction unfreezeWallet(address ...\n      PUSH 92DE27771F92D6942691D73358B3A4673E4880DE8356F8F2CF452BE87E02D363\t\t\tkeccak256(\"FREEZER_ROLE\")\n      PUSH [tag] 336\t\t\tverride returns \n      DUP2 \t\t\turns\n      PUSH [tag] 258\t\t\tverride re\n      JUMP \t\t\tverride returns \n    tag 336\t\t\tverride returns \n      JUMPDEST \t\t\tverride returns \n      PUSH 2\t\t\trozenWallets[a\n      PUSH 0\t\t\trozenWallets[account], \n      DUP4 \t\t\tcount],\n      PUSH FFFFFFFFFFFFFFFFFFFFFFFFFFFFFFFFFFFFFFFF\t\t\trozenWallets[account], \n      AND \t\t\trozenWallets[account], \n      PUSH FFFFFFFFFFFFFFFFFFFFFFFFFFFFFFFFFFFFFFFF\t\t\trozenWallets[account], \n      AND \t\t\trozenWallets[account], \n      DUP2 \t\t\trozenWallets[account], \n      MSTORE \t\t\trozenWallets[account], \n      PUSH 20\t\t\trozenWallets[account], \n      ADD \t\t\trozenWallets[account], \n      SWAP1 \t\t\trozenWallets[account], \n      DUP2 \t\t\trozenWallets[account], \n      MSTORE \t\t\trozenWallets[account], \n      PUSH 20\t\t\trozenWallets[account], \n      ADD \t\t\trozenWallets[account], \n      PUSH 0\t\t\trozenWallets[account], \n      KECCAK256 \t\t\trozenWallets[account], \n      PUSH 0\t\t\trozenWallets[account], \n      SWAP1 \t\t\trozenWallets[account], \n      SLOAD \t\t\trozenWallets[account], \n      SWAP1 \t\t\trozenWallets[account], \n      PUSH 100\t\t\trozenWallets[account], \n      EXP \t\t\trozenWallets[account], \n      SWAP1 \t\t\trozenWallets[account], \n      DIV \t\t\trozenWallets[account], \n      PUSH FF\t\t\trozenWallets[account], \n      AND \t\t\trozenWallets[account], \n      PUSH [tag] 338\t\t\tquire(_frozenWallets[account],...\n      JUMPI \t\t\tquire(_frozenWallets[account],...\n      PUSH 40\t\t\tquire(_frozenWallets[account],...\n      MLOAD \t\t\tquire(_frozenWallets[account],...\n      PUSH 8C379A000000000000000000000000000000000000000000000000000000000\t\t\tquire(_frozenWallets[account],...\n      DUP2 \t\t\tquire(_frozenWallets[account],...\n      MSTORE \t\t\tquire(_frozenWallets[account],...\n      PUSH 4\t\t\tquire(_frozenWallets[account],...\n      ADD \t\t\tquire(_frozenWallets[account],...\n      PUSH [tag] 339\t\t\tquire(_frozenWallets[account],...\n      SWAP1 \t\t\tquire(_frozenWallets[account],...\n      PUSH [tag] 340\t\t\tquire(_frozenWallets[account],...\n      JUMP \t\t\tquire(_frozenWallets[account],...\n    tag 339\t\t\tquire(_frozenWallets[account],...\n      JUMPDEST \t\t\tquire(_frozenWallets[account],...\n      PUSH 40\t\t\tquire(_frozenWallets[account],...\n      MLOAD \t\t\tquire(_frozenWallets[account],...\n      DUP1 \t\t\tquire(_frozenWallets[account],...\n      SWAP2 \t\t\tquire(_frozenWallets[account],...\n      SUB \t\t\tquire(_frozenWallets[account],...\n      SWAP1 \t\t\tquire(_frozenWallets[account],...\n      REVERT \t\t\tquire(_frozenWallets[account],...\n    tag 338\t\t\tquire(_frozenWallets[account],...\n      JUMPDEST \t\t\tquire(_frozenWallets[account],...\n      PUSH 0\t\t\tlse;\\n\n      PUSH 2\t\t\trozenWallets[a\n      PUSH 0\t\t\trozenWallets[account] =\n      DUP5 \t\t\tcount] \n      PUSH FFFFFFFFFFFFFFFFFFFFFFFFFFFFFFFFFFFFFFFF\t\t\trozenWallets[account] =\n      AND \t\t\trozenWallets[account] =\n      PUSH FFFFFFFFFFFFFFFFFFFFFFFFFFFFFFFFFFFFFFFF\t\t\trozenWallets[account] =\n      AND \t\t\trozenWallets[account] =\n      DUP2 \t\t\trozenWallets[account] =\n      MSTORE \t\t\trozenWallets[account] =\n      PUSH 20\t\t\trozenWallets[account] =\n      ADD \t\t\trozenWallets[account] =\n      SWAP1 \t\t\trozenWallets[account] =\n      DUP2 \t\t\trozenWallets[account] =\n      MSTORE \t\t\trozenWallets[account] =\n      PUSH 20\t\t\trozenWallets[account] =\n      ADD \t\t\trozenWallets[account] =\n      PUSH 0\t\t\trozenWallets[account] =\n      KECCAK256 \t\t\trozenWallets[account] =\n      PUSH 0\t\t\trozenWallets[account] =\n      PUSH 100\t\t\trozenWallets[account] = false;...\n      EXP \t\t\trozenWallets[account] = false;...\n      DUP2 \t\t\trozenWallets[account] = false;...\n      SLOAD \t\t\trozenWallets[account] = false;...\n      DUP2 \t\t\trozenWallets[account] = false;...\n      PUSH FF\t\t\trozenWallets[account] = false;...\n      MUL \t\t\trozenWallets[account] = false;...\n      NOT \t\t\trozenWallets[account] = false;...\n      AND \t\t\trozenWallets[account] = false;...\n      SWAP1 \t\t\trozenWallets[account] = false;...\n      DUP4 \t\t\trozenWallets[account] = false;...\n      ISZERO \t\t\trozenWallets[account] = false;...\n      ISZERO \t\t\trozenWallets[account] = false;...\n      MUL \t\t\trozenWallets[account] = false;...\n      OR \t\t\trozenWallets[account] = false;...\n      SWAP1 \t\t\trozenWallets[account] = false;...\n      SSTORE \t\t\trozenWallets[account] = false;...\n      POP \t\t\trozenWallets[account] = false;...\n      DUP2 \t\t\tcount);\n      PUSH FFFFFFFFFFFFFFFFFFFFFFFFFFFFFFFFFFFFFFFF\t\t\tlletUnfrozen(account);\\n\n      AND \t\t\tlletUnfrozen(account);\\n\n      PUSH D247131FABB99DC3BA793524F53F05A77EEEF38F12B30119655EE340810B1210\t\t\tlletUnfrozen(account);\\n\n      PUSH 40\t\t\tlletUnfrozen(account);\\n\n      MLOAD \t\t\tlletUnfrozen(account);\\n\n      PUSH 40\t\t\tlletUnfrozen(account);\\n\n      MLOAD \t\t\tlletUnfrozen(account);\\n\n      DUP1 \t\t\tlletUnfrozen(account);\\n\n      SWAP2 \t\t\tlletUnfrozen(account);\\n\n      SUB \t\t\tlletUnfrozen(account);\\n\n      SWAP1 \t\t\tlletUnfrozen(account);\\n\n      LOG2 \t\t\tlletUnfrozen(account);\\n\n      POP \t\t\tnction unfreezeWallet(address ...\n      POP \t\t\tnction unfreezeWallet(address ...\n      JUMP \t\t\tnction unfreezeWallet(address ...\n    tag 147\t\t\tAUSER_ROLE) {\\n        _pause(...\n      JUMPDEST \t\t\tAUSER_ROLE) {\\n        _pause(...\n      PUSH 0\t\t\ternal o\n      PUSH 0\t\t\tER_ROLE) {\\n        _un\n      PUSH [tag] 342\t\t\tse();\\n    }\\n\\n    /\n      PUSH [tag] 246\t\t\tse();\\n    }\\n\\n   \n      JUMP \t\t\tse();\\n    }\\n\\n    /\n    tag 342\t\t\tse();\\n    }\\n\\n    /\n      JUMPDEST \t\t\tse();\\n    }\\n\\n    /\n      SWAP1 \t\t\tER_ROLE) {\\n        _unpause()...\n      POP \t\t\tER_ROLE) {\\n        _unpause()...\n      DUP1 \t\t\to\n      PUSH 0\t\t\toggle the t\n      ADD \t\t\toggle the t\n      PUSH 0\t\t\toggle the trader res\n      DUP5 \t\t\tader re\n      PUSH FFFFFFFFFFFFFFFFFFFFFFFFFFFFFFFFFFFFFFFF\t\t\toggle the trader res\n      AND \t\t\toggle the trader res\n      PUSH FFFFFFFFFFFFFFFFFFFFFFFFFFFFFFFFFFFFFFFF\t\t\toggle the trader res\n      AND \t\t\toggle the trader res\n      DUP2 \t\t\toggle the trader res\n      MSTORE \t\t\toggle the trader res\n      PUSH 20\t\t\toggle the trader res\n      ADD \t\t\toggle the trader res\n      SWAP1 \t\t\toggle the trader res\n      DUP2 \t\t\toggle the trader res\n      MSTORE \t\t\toggle the trader res\n      PUSH 20\t\t\toggle the trader res\n      ADD \t\t\toggle the trader res\n      PUSH 0\t\t\toggle the trader res\n      KECCAK256 \t\t\toggle the trader res\n      SLOAD \t\t\toggle the trader res\n      SWAP2 \t\t\tTION: Toggle the trader res\n      POP \t\t\tTION: Toggle the trader res\n      POP \t\t\tTION: Toggle the trader res\n      SWAP2 \t\t\tAUSER_ROLE) {\\n        _pause(...\n      SWAP1 \t\t\tAUSER_ROLE) {\\n        _pause(...\n      POP \t\t\tAUSER_ROLE) {\\n        _pause(...\n      JUMP \t\t\tAUSER_ROLE) {\\n        _pause(...\n    tag 151\t\t\tunction name() public view vir...\n      JUMPDEST \t\t\tunction name() public view vir...\n      PUSH [tag] 344\t\t\t       _name \n      PUSH [tag] 345\t\t\t       _nam\n      JUMP \t\t\t       _name \n    tag 344\t\t\t       _name \n      JUMPDEST \t\t\t       _name \n      PUSH [tag] 347\t\t\try) {\\n        return _name;\\n...\n      PUSH 0\t\t\t\\n\n      PUSH [tag] 348\t\t\try) {\\n        retu\n      JUMP \t\t\try) {\\n        return _name;\\n...\n    tag 347\t\t\try) {\\n        return _name;\\n...\n      JUMPDEST \t\t\try) {\\n        return _name;\\n...\n      JUMP \t\t\tunction name() public view vir...\n    tag 154\t\t\t function symbol() public view...\n      JUMPDEST \t\t\t function symbol() public view...\n      PUSH 0\t\t\trns (string me\n      PUSH [tag] 350\t\t\ty) {\\n       \n      PUSH [tag] 241\t\t\ty) {\\n     \n      JUMP \t\t\ty) {\\n       \n    tag 350\t\t\ty) {\\n       \n      JUMPDEST \t\t\ty) {\\n       \n      SWAP1 \t\t\trns (string memory) {\\n       \n      POP \t\t\trns (string memory) {\\n       \n      DUP1 \t\t\t---- A\n      PUSH FFFFFFFFFFFFFFFFFFFFFFFFFFFFFFFFFFFFFFFF\t\t\tl;\\n    }\\n\\n    // ----- A\n      AND \t\t\tl;\\n    }\\n\\n    // ----- A\n      PUSH [tag] 351\t\t\tl;\\n    }\\n\\n    \n      PUSH [tag] 214\t\t\tl;\\n    }\\n\\n  \n      JUMP \t\t\tl;\\n    }\\n\\n    \n    tag 351\t\t\tl;\\n    }\\n\\n    \n      JUMPDEST \t\t\tl;\\n    }\\n\\n    \n      PUSH FFFFFFFFFFFFFFFFFFFFFFFFFFFFFFFFFFFFFFFF\t\t\tl;\\n    }\\n\\n    // ----- A\n      AND \t\t\tl;\\n    }\\n\\n    // ----- A\n      EQ \t\t\tl;\\n    }\\n\\n    // ----- A\n      PUSH [tag] 352\t\t\tymbol;\\n    }\\n\\n    // ----- ...\n      JUMPI \t\t\tymbol;\\n    }\\n\\n    // ----- ...\n      DUP1 \t\t\tess to\n      PUSH 40\t\t\t----\\n    function mint(addres...\n      MLOAD \t\t\t----\\n    function mint(addres...\n      PUSH 118CDAA700000000000000000000000000000000000000000000000000000000\t\t\t----\\n    function mint(addres...\n      DUP2 \t\t\t----\\n    function mint(addres...\n      MSTORE \t\t\t----\\n    function mint(addres...\n      PUSH 4\t\t\t----\\n    function mint(addres...\n      ADD \t\t\t----\\n    function mint(addres...\n      PUSH [tag] 353\t\t\t----\\n    function mint(addres...\n      SWAP2 \t\t\t----\\n    function mint(addres...\n      SWAP1 \t\t\t----\\n    function mint(addres...\n      PUSH [tag] 162\t\t\t----\\n    function mint(addres...\n      JUMP \t\t\t----\\n    function mint(addres...\n    tag 353\t\t\t----\\n    function mint(addres...\n      JUMPDEST \t\t\t----\\n    function mint(addres...\n      PUSH 40\t\t\t----\\n    function mint(addres...\n      MLOAD \t\t\t----\\n    function mint(addres...\n      DUP1 \t\t\t----\\n    function mint(addres...\n      SWAP2 \t\t\t----\\n    function mint(addres...\n      SUB \t\t\t----\\n    function mint(addres...\n      SWAP1 \t\t\t----\\n    function mint(addres...\n      REVERT \t\t\t----\\n    function mint(addres...\n    tag 352\t\t\tymbol;\\n    }\\n\\n    // ----- ...\n      JUMPDEST \t\t\tymbol;\\n    }\\n\\n    // ----- ...\n      PUSH [tag] 354\t\t\ternal onlyRole(MINTER_ROLE\n      DUP2 \t\t\tER_ROL\n      PUSH [tag] 348\t\t\ternal onlyRole(MIN\n      JUMP \t\t\ternal onlyRole(MINTER_ROLE\n    tag 354\t\t\ternal onlyRole(MINTER_ROLE\n      JUMPDEST \t\t\ternal onlyRole(MINTER_ROLE\n      POP \t\t\trride returns (string memory) ...\n      JUMP \t\t\t function symbol() public view...\n    tag 157\t\t\tnction pause() external onlyRo...\n      JUMPDEST \t\t\tnction pause() external onlyRo...\n      PUSH 65D7A28E3265B37A6474929F336521B332C1681B933F6CB9F3376673440D862A\t\t\tkeccak256(\"PAUSER_ROLE\")\n      PUSH [tag] 356\t\t\tverride returns \n      DUP2 \t\t\turns\n      PUSH [tag] 258\t\t\tverride re\n      JUMP \t\t\tverride returns \n    tag 356\t\t\tverride returns \n      JUMPDEST \t\t\tverride returns \n      PUSH [tag] 358\t\t\tause();\\n\n      PUSH [tag] 359\t\t\tause()\n      JUMP \t\t\tause();\\n\n    tag 358\t\t\tause();\\n\n      JUMPDEST \t\t\tause();\\n\n      POP \t\t\tnction pause() external onlyRo...\n      JUMP \t\t\tnction pause() external onlyRo...\n    tag 160\t\t\t   _grantRole(MINTER_ROLE, msg...\n      JUMPDEST \t\t\t   _grantRole(MINTER_ROLE, msg...\n      PUSH 0\t\t\t  _gran\n      PUSH 0\t\t\tR_ROLE, msg.sender);\\n   \n      PUSH [tag] 361\t\t\t  _grantRole(PAUSER_\n      PUSH [tag] 362\t\t\t  _grantRole(PAUSE\n      JUMP \t\t\t  _grantRole(PAUSER_\n    tag 361\t\t\t  _grantRole(PAUSER_\n      JUMPDEST \t\t\t  _grantRole(PAUSER_\n      SWAP1 \t\t\tR_ROLE, msg.sender);\\n        ...\n      POP \t\t\tR_ROLE, msg.sender);\\n        ...\n      DUP1 \t\t\t;\n      PUSH 0\t\t\t;\\n    }\\n\n      ADD \t\t\t;\\n    }\\n\n      PUSH 0\t\t\t;\\n    }\\n\n      SWAP1 \t\t\t;\\n    }\\n\n      SLOAD \t\t\t;\\n    }\\n\n      SWAP1 \t\t\t;\\n    }\\n\n      PUSH 100\t\t\t;\\n    }\\n\n      EXP \t\t\t;\\n    }\\n\n      SWAP1 \t\t\t;\\n    }\\n\n      DIV \t\t\t;\\n    }\\n\n      PUSH FFFFFFFFFFFFFFFFFFFFFFFFFFFFFFFFFFFFFFFF\t\t\t;\\n    }\\n\n      AND \t\t\t;\\n    }\\n\n      SWAP2 \t\t\tsender);\\n    }\\n\n      POP \t\t\tsender);\\n    }\\n\n      POP \t\t\tsender);\\n    }\\n\n      SWAP1 \t\t\t   _grantRole(MINTER_ROLE, msg...\n      JUMP \t\t\t   _grantRole(MINTER_ROLE, msg...\n    tag 166\t\t\ts[account] = true;\\n        em...\n      JUMPDEST \t\t\ts[account] = true;\\n        em...\n      PUSH 0\t\t\tfree\n      PUSH 0\t\t\tress account) external onlyRol\n      PUSH [tag] 364\t\t\tREEZER_ROLE) {\\n        req\n      PUSH [tag] 255\t\t\tREEZER_ROLE) {\\n        r\n      JUMP \t\t\tREEZER_ROLE) {\\n        req\n    tag 364\t\t\tREEZER_ROLE) {\\n        req\n      JUMPDEST \t\t\tREEZER_ROLE) {\\n        req\n      SWAP1 \t\t\tress account) external onlyRol...\n      POP \t\t\tress account) external onlyRol...\n      DUP1 \t\t\tt\n      PUSH 0\t\t\tts[accou\n      ADD \t\t\tts[accou\n      PUSH 0\t\t\tts[account], \"\n      DUP6 \t\t\tt], \n      DUP2 \t\t\tts[account], \"\n      MSTORE \t\t\tts[account], \"\n      PUSH 20\t\t\tts[account], \"\n      ADD \t\t\tts[account], \"\n      SWAP1 \t\t\tts[account], \"\n      DUP2 \t\t\tts[account], \"\n      MSTORE \t\t\tts[account], \"\n      PUSH 20\t\t\tts[account], \"\n      ADD \t\t\tts[account], \"\n      PUSH 0\t\t\tts[account], \"\n      KECCAK256 \t\t\tts[account], \"\n      PUSH 0\t\t\tts[account], \"Not froz\n      ADD \t\t\tts[account], \"Not froz\n      PUSH 0\t\t\tts[account], \"Not frozen\");\\n ...\n      DUP5 \t\t\tn\");\\n  \n      PUSH FFFFFFFFFFFFFFFFFFFFFFFFFFFFFFFFFFFFFFFF\t\t\tts[account], \"Not frozen\");\\n ...\n      AND \t\t\tts[account], \"Not frozen\");\\n ...\n      PUSH FFFFFFFFFFFFFFFFFFFFFFFFFFFFFFFFFFFFFFFF\t\t\tts[account], \"Not frozen\");\\n ...\n      AND \t\t\tts[account], \"Not frozen\");\\n ...\n      DUP2 \t\t\tts[account], \"Not frozen\");\\n ...\n      MSTORE \t\t\tts[account], \"Not frozen\");\\n ...\n      PUSH 20\t\t\tts[account], \"Not frozen\");\\n ...\n      ADD \t\t\tts[account], \"Not frozen\");\\n ...\n      SWAP1 \t\t\tts[account], \"Not frozen\");\\n ...\n      DUP2 \t\t\tts[account], \"Not frozen\");\\n ...\n      MSTORE \t\t\tts[account], \"Not frozen\");\\n ...\n      PUSH 20\t\t\tts[account], \"Not frozen\");\\n ...\n      ADD \t\t\tts[account], \"Not frozen\");\\n ...\n      PUSH 0\t\t\tts[account], \"Not frozen\");\\n ...\n      KECCAK256 \t\t\tts[account], \"Not frozen\");\\n ...\n      PUSH 0\t\t\tts[account], \"Not frozen\");\\n ...\n      SWAP1 \t\t\tts[account], \"Not frozen\");\\n ...\n      SLOAD \t\t\tts[account], \"Not frozen\");\\n ...\n      SWAP1 \t\t\tts[account], \"Not frozen\");\\n ...\n      PUSH 100\t\t\tts[account], \"Not frozen\");\\n ...\n      EXP \t\t\tts[account], \"Not frozen\");\\n ...\n      SWAP1 \t\t\tts[account], \"Not frozen\");\\n ...\n      DIV \t\t\tts[account], \"Not frozen\");\\n ...\n      PUSH FF\t\t\tts[account], \"Not frozen\");\\n ...\n      AND \t\t\tts[account], \"Not frozen\");\\n ...\n      SWAP2 \t\t\tenWallets[account], \"Not froze...\n      POP \t\t\tenWallets[account], \"Not froze...\n      POP \t\t\tenWallets[account], \"Not froze...\n      SWAP3 \t\t\ts[account] = true;\\n        em...\n      SWAP2 \t\t\ts[account] = true;\\n        em...\n      POP \t\t\ts[account] = true;\\n        em...\n      POP \t\t\ts[account] = true;\\n        em...\n      JUMP \t\t\ts[account] = true;\\n        em...\n    tag 170\t\t\tnction symbol() public view vi...\n      JUMPDEST \t\t\tnction symbol() public view vi...\n      PUSH 60\t\t\tring memory) \n      PUSH 1\t\t\tymbol;\\n\n      DUP1 \t\t\tturn _symbol;\\n\n      SLOAD \t\t\tturn _symbol;\\n\n      PUSH [tag] 366\t\t\tturn _symbol;\\n\n      SWAP1 \t\t\tturn _symbol;\\n\n      PUSH [tag] 234\t\t\tturn _symbol;\\n\n      JUMP \t\t\tturn _symbol;\\n\n    tag 366\t\t\tturn _symbol;\\n\n      JUMPDEST \t\t\tturn _symbol;\\n\n      DUP1 \t\t\tturn _symbol;\\n\n      PUSH 1F\t\t\tturn _symbol;\\n\n      ADD \t\t\tturn _symbol;\\n\n      PUSH 20\t\t\tturn _symbol;\\n\n      DUP1 \t\t\tturn _symbol;\\n\n      SWAP2 \t\t\tturn _symbol;\\n\n      DIV \t\t\tturn _symbol;\\n\n      MUL \t\t\tturn _symbol;\\n\n      PUSH 20\t\t\tturn _symbol;\\n\n      ADD \t\t\tturn _symbol;\\n\n      PUSH 40\t\t\tturn _symbol;\\n\n      MLOAD \t\t\tturn _symbol;\\n\n      SWAP1 \t\t\tturn _symbol;\\n\n      DUP2 \t\t\tturn _symbol;\\n\n      ADD \t\t\tturn _symbol;\\n\n      PUSH 40\t\t\tturn _symbol;\\n\n      MSTORE \t\t\tturn _symbol;\\n\n      DUP1 \t\t\tturn _symbol;\\n\n      SWAP3 \t\t\tturn _symbol;\\n\n      SWAP2 \t\t\tturn _symbol;\\n\n      SWAP1 \t\t\tturn _symbol;\\n\n      DUP2 \t\t\tturn _symbol;\\n\n      DUP2 \t\t\tturn _symbol;\\n\n      MSTORE \t\t\tturn _symbol;\\n\n      PUSH 20\t\t\tturn _symbol;\\n\n      ADD \t\t\tturn _symbol;\\n\n      DUP3 \t\t\tturn _symbol;\\n\n      DUP1 \t\t\tturn _symbol;\\n\n      SLOAD \t\t\tturn _symbol;\\n\n      PUSH [tag] 367\t\t\tturn _symbol;\\n\n      SWAP1 \t\t\tturn _symbol;\\n\n      PUSH [tag] 234\t\t\tturn _symbol;\\n\n      JUMP \t\t\tturn _symbol;\\n\n    tag 367\t\t\tturn _symbol;\\n\n      JUMPDEST \t\t\tturn _symbol;\\n\n      DUP1 \t\t\tturn _symbol;\\n\n      ISZERO \t\t\tturn _symbol;\\n\n      PUSH [tag] 368\t\t\tturn _symbol;\\n\n      JUMPI \t\t\tturn _symbol;\\n\n      DUP1 \t\t\tturn _symbol;\\n\n      PUSH 1F\t\t\tturn _symbol;\\n\n      LT \t\t\tturn _symbol;\\n\n      PUSH [tag] 369\t\t\tturn _symbol;\\n\n      JUMPI \t\t\tturn _symbol;\\n\n      PUSH 100\t\t\tturn _symbol;\\n\n      DUP1 \t\t\tturn _symbol;\\n\n      DUP4 \t\t\tturn _symbol;\\n\n      SLOAD \t\t\tturn _symbol;\\n\n      DIV \t\t\tturn _symbol;\\n\n      MUL \t\t\tturn _symbol;\\n\n      DUP4 \t\t\tturn _symbol;\\n\n      MSTORE \t\t\tturn _symbol;\\n\n      SWAP2 \t\t\tturn _symbol;\\n\n      PUSH 20\t\t\tturn _symbol;\\n\n      ADD \t\t\tturn _symbol;\\n\n      SWAP2 \t\t\tturn _symbol;\\n\n      PUSH [tag] 368\t\t\tturn _symbol;\\n\n      JUMP \t\t\tturn _symbol;\\n\n    tag 369\t\t\tturn _symbol;\\n\n      JUMPDEST \t\t\tturn _symbol;\\n\n      DUP3 \t\t\tturn _symbol;\\n\n      ADD \t\t\tturn _symbol;\\n\n      SWAP2 \t\t\tturn _symbol;\\n\n      SWAP1 \t\t\tturn _symbol;\\n\n      PUSH 0\t\t\tturn _symbol;\\n\n      MSTORE \t\t\tturn _symbol;\\n\n      PUSH 20\t\t\tturn _symbol;\\n\n      PUSH 0\t\t\tturn _symbol;\\n\n      KECCAK256 \t\t\tturn _symbol;\\n\n      SWAP1 \t\t\tturn _symbol;\\n\n    tag 370\t\t\tturn _symbol;\\n\n      JUMPDEST \t\t\tturn _symbol;\\n\n      DUP2 \t\t\tturn _symbol;\\n\n      SLOAD \t\t\tturn _symbol;\\n\n      DUP2 \t\t\tturn _symbol;\\n\n      MSTORE \t\t\tturn _symbol;\\n\n      SWAP1 \t\t\tturn _symbol;\\n\n      PUSH 1\t\t\tturn _symbol;\\n\n      ADD \t\t\tturn _symbol;\\n\n      SWAP1 \t\t\tturn _symbol;\\n\n      PUSH 20\t\t\tturn _symbol;\\n\n      ADD \t\t\tturn _symbol;\\n\n      DUP1 \t\t\tturn _symbol;\\n\n      DUP4 \t\t\tturn _symbol;\\n\n      GT \t\t\tturn _symbol;\\n\n      PUSH [tag] 370\t\t\tturn _symbol;\\n\n      JUMPI \t\t\tturn _symbol;\\n\n      DUP3 \t\t\tturn _symbol;\\n\n      SWAP1 \t\t\tturn _symbol;\\n\n      SUB \t\t\tturn _symbol;\\n\n      PUSH 1F\t\t\tturn _symbol;\\n\n      AND \t\t\tturn _symbol;\\n\n      DUP3 \t\t\tturn _symbol;\\n\n      ADD \t\t\tturn _symbol;\\n\n      SWAP2 \t\t\tturn _symbol;\\n\n    tag 368\t\t\tturn _symbol;\\n\n      JUMPDEST \t\t\tturn _symbol;\\n\n      POP \t\t\tturn _symbol;\\n\n      POP \t\t\tturn _symbol;\\n\n      POP \t\t\tturn _symbol;\\n\n      POP \t\t\tturn _symbol;\\n\n      POP \t\t\tturn _symbol;\\n\n      SWAP1 \t\t\tturn _symbol;\\n\n      POP \t\t\tturn _symbol;\\n\n      SWAP1 \t\t\tnction symbol() public view vi...\n      JUMP \t\t\tnction symbol() public view vi...\n    tag 175\t\t\tnction freezeWallet(address ac...\n      JUMPDEST \t\t\tnction freezeWallet(address ac...\n      PUSH 92DE27771F92D6942691D73358B3A4673E4880DE8356F8F2CF452BE87E02D363\t\t\tkeccak256(\"FREEZER_ROLE\")\n      PUSH [tag] 372\t\t\tverride returns \n      DUP2 \t\t\turns\n      PUSH [tag] 258\t\t\tverride re\n      JUMP \t\t\tverride returns \n    tag 372\t\t\tverride returns \n      JUMPDEST \t\t\tverride returns \n      PUSH 2\t\t\trozenWallets[a\n      PUSH 0\t\t\trozenWallets[account], \n      DUP4 \t\t\tcount],\n      PUSH FFFFFFFFFFFFFFFFFFFFFFFFFFFFFFFFFFFFFFFF\t\t\trozenWallets[account], \n      AND \t\t\trozenWallets[account], \n      PUSH FFFFFFFFFFFFFFFFFFFFFFFFFFFFFFFFFFFFFFFF\t\t\trozenWallets[account], \n      AND \t\t\trozenWallets[account], \n      DUP2 \t\t\trozenWallets[account], \n      MSTORE \t\t\trozenWallets[account], \n      PUSH 20\t\t\trozenWallets[account], \n      ADD \t\t\trozenWallets[account], \n      SWAP1 \t\t\trozenWallets[account], \n      DUP2 \t\t\trozenWallets[account], \n      MSTORE \t\t\trozenWallets[account], \n      PUSH 20\t\t\trozenWallets[account], \n      ADD \t\t\trozenWallets[account], \n      PUSH 0\t\t\trozenWallets[account], \n      KECCAK256 \t\t\trozenWallets[account], \n      PUSH 0\t\t\trozenWallets[account], \n      SWAP1 \t\t\trozenWallets[account], \n      SLOAD \t\t\trozenWallets[account], \n      SWAP1 \t\t\trozenWallets[account], \n      PUSH 100\t\t\trozenWallets[account], \n      EXP \t\t\trozenWallets[account], \n      SWAP1 \t\t\trozenWallets[account], \n      DIV \t\t\trozenWallets[account], \n      PUSH FF\t\t\trozenWallets[account], \n      AND \t\t\trozenWallets[account], \n      ISZERO \t\t\tfrozenWallets[account], \n      PUSH [tag] 374\t\t\tquire(!_frozenWallets[account]...\n      JUMPI \t\t\tquire(!_frozenWallets[account]...\n      PUSH 40\t\t\tquire(!_frozenWallets[account]...\n      MLOAD \t\t\tquire(!_frozenWallets[account]...\n      PUSH 8C379A000000000000000000000000000000000000000000000000000000000\t\t\tquire(!_frozenWallets[account]...\n      DUP2 \t\t\tquire(!_frozenWallets[account]...\n      MSTORE \t\t\tquire(!_frozenWallets[account]...\n      PUSH 4\t\t\tquire(!_frozenWallets[account]...\n      ADD \t\t\tquire(!_frozenWallets[account]...\n      PUSH [tag] 375\t\t\tquire(!_frozenWallets[account]...\n      SWAP1 \t\t\tquire(!_frozenWallets[account]...\n      PUSH [tag] 376\t\t\tquire(!_frozenWallets[account]...\n      JUMP \t\t\tquire(!_frozenWallets[account]...\n    tag 375\t\t\tquire(!_frozenWallets[account]...\n      JUMPDEST \t\t\tquire(!_frozenWallets[account]...\n      PUSH 40\t\t\tquire(!_frozenWallets[account]...\n      MLOAD \t\t\tquire(!_frozenWallets[account]...\n      DUP1 \t\t\tquire(!_frozenWallets[account]...\n      SWAP2 \t\t\tquire(!_frozenWallets[account]...\n      SUB \t\t\tquire(!_frozenWallets[account]...\n      SWAP1 \t\t\tquire(!_frozenWallets[account]...\n      REVERT \t\t\tquire(!_frozenWallets[account]...\n    tag 374\t\t\tquire(!_frozenWallets[account]...\n      JUMPDEST \t\t\tquire(!_frozenWallets[account]...\n      PUSH 1\t\t\tue;\\n\n      PUSH 2\t\t\trozenWallets[a\n      PUSH 0\t\t\trozenWallets[account] =\n      DUP5 \t\t\tcount] \n      PUSH FFFFFFFFFFFFFFFFFFFFFFFFFFFFFFFFFFFFFFFF\t\t\trozenWallets[account] =\n      AND \t\t\trozenWallets[account] =\n      PUSH FFFFFFFFFFFFFFFFFFFFFFFFFFFFFFFFFFFFFFFF\t\t\trozenWallets[account] =\n      AND \t\t\trozenWallets[account] =\n      DUP2 \t\t\trozenWallets[account] =\n      MSTORE \t\t\trozenWallets[account] =\n      PUSH 20\t\t\trozenWallets[account] =\n      ADD \t\t\trozenWallets[account] =\n      SWAP1 \t\t\trozenWallets[account] =\n      DUP2 \t\t\trozenWallets[account] =\n      MSTORE \t\t\trozenWallets[account] =\n      PUSH 20\t\t\trozenWallets[account] =\n      ADD \t\t\trozenWallets[account] =\n      PUSH 0\t\t\trozenWallets[account] =\n      KECCAK256 \t\t\trozenWallets[account] =\n      PUSH 0\t\t\trozenWallets[account] =\n      PUSH 100\t\t\trozenWallets[account] = true;\\...\n      EXP \t\t\trozenWallets[account] = true;\\...\n      DUP2 \t\t\trozenWallets[account] = true;\\...\n      SLOAD \t\t\trozenWallets[account] = true;\\...\n      DUP2 \t\t\trozenWallets[account] = true;\\...\n      PUSH FF\t\t\trozenWallets[account] = true;\\...\n      MUL \t\t\trozenWallets[account] = true;\\...\n      NOT \t\t\trozenWallets[account] = true;\\...\n      AND \t\t\trozenWallets[account] = true;\\...\n      SWAP1 \t\t\trozenWallets[account] = true;\\...\n      DUP4 \t\t\trozenWallets[account] = true;\\...\n      ISZERO \t\t\trozenWallets[account] = true;\\...\n      ISZERO \t\t\trozenWallets[account] = true;\\...\n      MUL \t\t\trozenWallets[account] = true;\\...\n      OR \t\t\trozenWallets[account] = true;\\...\n      SWAP1 \t\t\trozenWallets[account] = true;\\...\n      SSTORE \t\t\trozenWallets[account] = true;\\...\n      POP \t\t\trozenWallets[account] = true;\\...\n      DUP2 \t\t\tcount);\n      PUSH FFFFFFFFFFFFFFFFFFFFFFFFFFFFFFFFFFFFFFFF\t\t\tlletFrozen(account);\\n\n      AND \t\t\tlletFrozen(account);\\n\n      PUSH C9710D20BDBF99CA92A03644A5A8F85EA6BADB387FF0ABCA08EEBDFBFF50B77F\t\t\tlletFrozen(account);\\n\n      PUSH 40\t\t\tlletFrozen(account);\\n\n      MLOAD \t\t\tlletFrozen(account);\\n\n      PUSH 40\t\t\tlletFrozen(account);\\n\n      MLOAD \t\t\tlletFrozen(account);\\n\n      DUP1 \t\t\tlletFrozen(account);\\n\n      SWAP2 \t\t\tlletFrozen(account);\\n\n      SUB \t\t\tlletFrozen(account);\\n\n      SWAP1 \t\t\tlletFrozen(account);\\n\n      LOG2 \t\t\tlletFrozen(account);\\n\n      POP \t\t\tnction freezeWallet(address ac...\n      POP \t\t\tnction freezeWallet(address ac...\n      JUMP \t\t\tnction freezeWallet(address ac...\n    tag 178\t\t\tot exist in v5\\n\\n        _nam...\n      JUMPDEST \t\t\tot exist in v5\\n\\n        _nam...\n      PUSH 0\t\t\t  _s\n      PUSH 0\t\t\tot exist in v5\\n\\n        _nam...\n      SHL \t\t\tot exist in v5\\n\\n        _nam...\n      DUP2 \t\t\tot exist in v5\\n\\n        _nam...\n      JUMP \t\t\tot exist in v5\\n\\n        _nam...\n    tag 183\t\t\t-- Internal Overrides -----\\n ...\n      JUMPDEST \t\t\t-- Internal Overrides -----\\n ...\n      PUSH 0\t\t\ts to\n      PUSH 0\t\t\tlue)\\n        \n      PUSH [tag] 378\t\t\ternal\\n      \n      PUSH [tag] 241\t\t\ternal\\n    \n      JUMP \t\t\ternal\\n      \n    tag 378\t\t\ternal\\n      \n      JUMPDEST \t\t\ternal\\n      \n      SWAP1 \t\t\tlue)\\n        internal\\n      \n      POP \t\t\tlue)\\n        internal\\n      \n      PUSH [tag] 379\t\t\t(ERC20Upgradeable, ERC20Pau\n      DUP2 \t\t\tadeab\n      DUP6 \t\t\t, \n      DUP6 \t\t\tC20Pa\n      PUSH [tag] 252\t\t\t(ERC20Upg\n      JUMP \t\t\t(ERC20Upgradeable, ERC20Pau\n    tag 379\t\t\t(ERC20Upgradeable, ERC20Pau\n      JUMPDEST \t\t\t(ERC20Upgradeable, ERC20Pau\n      PUSH 1\t\t\t\\n   \n      SWAP2 \t\t\tdeable)\\n   \n      POP \t\t\tdeable)\\n   \n      POP \t\t\tdeable)\\n   \n      SWAP3 \t\t\t-- Internal Overrides -----\\n ...\n      SWAP2 \t\t\t-- Internal Overrides -----\\n ...\n      POP \t\t\t-- Internal Overrides -----\\n ...\n      POP \t\t\t-- Internal Overrides -----\\n ...\n      JUMP \t\t\t-- Internal Overrides -----\\n ...\n    tag 187\t\t\t   _disableInitializers();\\n  ...\n      JUMPDEST \t\t\t   _disableInitializers();\\n  ...\n      PUSH 40\t\t\t   _disableInitializers();\\n  ...\n      MLOAD \t\t\t   _disableInitializers();\\n  ...\n      DUP1 \t\t\t   _disableInitializers();\\n  ...\n      PUSH 40\t\t\t   _disableInitializers();\\n  ...\n      ADD \t\t\t   _disableInitializers();\\n  ...\n      PUSH 40\t\t\t   _disableInitializers();\\n  ...\n      MSTORE \t\t\t   _disableInitializers();\\n  ...\n      DUP1 \t\t\t   _disableInitializers();\\n  ...\n      PUSH 5\t\t\t   _disableInitializers();\\n  ...\n      DUP2 \t\t\t   _disableInitializers();\\n  ...\n      MSTORE \t\t\t   _disableInitializers();\\n  ...\n      PUSH 20\t\t\t   _disableInitializers();\\n  ...\n      ADD \t\t\t   _disableInitializers();\\n  ...\n      PUSH 352E302E30000000000000000000000000000000000000000000000000000000\t\t\t   _disableInitializers();\\n  ...\n      DUP2 \t\t\t   _disableInitializers();\\n  ...\n      MSTORE \t\t\t   _disableInitializers();\\n  ...\n      POP \t\t\t   _disableInitializers();\\n  ...\n      DUP2 \t\t\t   _disableInitializers();\\n  ...\n      JUMP \t\t\t   _disableInitializers();\\n  ...\n    tag 193\t\t\tnction setSymbol(string callda...\n      JUMPDEST \t\t\tnction setSymbol(string callda...\n      PUSH [tag] 381\t\t\t       _name \n      PUSH [tag] 345\t\t\t       _nam\n      JUMP \t\t\t       _name \n    tag 381\t\t\t       _name \n      JUMPDEST \t\t\t       _name \n      PUSH 0\t\t\tring memory old =\n      PUSH 1\t\t\tymbol;\\n\n      DUP1 \t\t\tring memory old = _symbol;\\n\n      SLOAD \t\t\tring memory old = _symbol;\\n\n      PUSH [tag] 383\t\t\tring memory old = _symbol;\\n\n      SWAP1 \t\t\tring memory old = _symbol;\\n\n      PUSH [tag] 234\t\t\tring memory old = _symbol;\\n\n      JUMP \t\t\tring memory old = _symbol;\\n\n    tag 383\t\t\tring memory old = _symbol;\\n\n      JUMPDEST \t\t\tring memory old = _symbol;\\n\n      DUP1 \t\t\tring memory old = _symbol;\\n\n      PUSH 1F\t\t\tring memory old = _symbol;\\n\n      ADD \t\t\tring memory old = _symbol;\\n\n      PUSH 20\t\t\tring memory old = _symbol;\\n\n      DUP1 \t\t\tring memory old = _symbol;\\n\n      SWAP2 \t\t\tring memory old = _symbol;\\n\n      DIV \t\t\tring memory old = _symbol;\\n\n      MUL \t\t\tring memory old = _symbol;\\n\n      PUSH 20\t\t\tring memory old = _symbol;\\n\n      ADD \t\t\tring memory old = _symbol;\\n\n      PUSH 40\t\t\tring memory old = _symbol;\\n\n      MLOAD \t\t\tring memory old = _symbol;\\n\n      SWAP1 \t\t\tring memory old = _symbol;\\n\n      DUP2 \t\t\tring memory old = _symbol;\\n\n      ADD \t\t\tring memory old = _symbol;\\n\n      PUSH 40\t\t\tring memory old = _symbol;\\n\n      MSTORE \t\t\tring memory old = _symbol;\\n\n      DUP1 \t\t\tring memory old = _symbol;\\n\n      SWAP3 \t\t\tring memory old = _symbol;\\n\n      SWAP2 \t\t\tring memory old = _symbol;\\n\n      SWAP1 \t\t\tring memory old = _symbol;\\n\n      DUP2 \t\t\tring memory old = _symbol;\\n\n      DUP2 \t\t\tring memory old = _symbol;\\n\n      MSTORE \t\t\tring memory old = _symbol;\\n\n      PUSH 20\t\t\tring memory old = _symbol;\\n\n      ADD \t\t\tring memory old = _symbol;\\n\n      DUP3 \t\t\tring memory old = _symbol;\\n\n      DUP1 \t\t\tring memory old = _symbol;\\n\n      SLOAD \t\t\tring memory old = _symbol;\\n\n      PUSH [tag] 384\t\t\tring memory old = _symbol;\\n\n      SWAP1 \t\t\tring memory old = _symbol;\\n\n      PUSH [tag] 234\t\t\tring memory old = _symbol;\\n\n      JUMP \t\t\tring memory old = _symbol;\\n\n    tag 384\t\t\tring memory old = _symbol;\\n\n      JUMPDEST \t\t\tring memory old = _symbol;\\n\n      DUP1 \t\t\tring memory old = _symbol;\\n\n      ISZERO \t\t\tring memory old = _symbol;\\n\n      PUSH [tag] 385\t\t\tring memory old = _symbol;\\n\n      JUMPI \t\t\tring memory old = _symbol;\\n\n      DUP1 \t\t\tring memory old = _symbol;\\n\n      PUSH 1F\t\t\tring memory old = _symbol;\\n\n      LT \t\t\tring memory old = _symbol;\\n\n      PUSH [tag] 386\t\t\tring memory old = _symbol;\\n\n      JUMPI \t\t\tring memory old = _symbol;\\n\n      PUSH 100\t\t\tring memory old = _symbol;\\n\n      DUP1 \t\t\tring memory old = _symbol;\\n\n      DUP4 \t\t\tring memory old = _symbol;\\n\n      SLOAD \t\t\tring memory old = _symbol;\\n\n      DIV \t\t\tring memory old = _symbol;\\n\n      MUL \t\t\tring memory old = _symbol;\\n\n      DUP4 \t\t\tring memory old = _symbol;\\n\n      MSTORE \t\t\tring memory old = _symbol;\\n\n      SWAP2 \t\t\tring memory old = _symbol;\\n\n      PUSH 20\t\t\tring memory old = _symbol;\\n\n      ADD \t\t\tring memory old = _symbol;\\n\n      SWAP2 \t\t\tring memory old = _symbol;\\n\n      PUSH [tag] 385\t\t\tring memory old = _symbol;\\n\n      JUMP \t\t\tring memory old = _symbol;\\n\n    tag 386\t\t\tring memory old = _symbol;\\n\n      JUMPDEST \t\t\tring memory old = _symbol;\\n\n      DUP3 \t\t\tring memory old = _symbol;\\n\n      ADD \t\t\tring memory old = _symbol;\\n\n      SWAP2 \t\t\tring memory old = _symbol;\\n\n      SWAP1 \t\t\tring memory old = _symbol;\\n\n      PUSH 0\t\t\tring memory old = _symbol;\\n\n      MSTORE \t\t\tring memory old = _symbol;\\n\n      PUSH 20\t\t\tring memory old = _symbol;\\n\n      PUSH 0\t\t\tring memory old = _symbol;\\n\n      KECCAK256 \t\t\tring memory old = _symbol;\\n\n      SWAP1 \t\t\tring memory old = _symbol;\\n\n    tag 387\t\t\tring memory old = _symbol;\\n\n      JUMPDEST \t\t\tring memory old = _symbol;\\n\n      DUP2 \t\t\tring memory old = _symbol;\\n\n      SLOAD \t\t\tring memory old = _symbol;\\n\n      DUP2 \t\t\tring memory old = _symbol;\\n\n      MSTORE \t\t\tring memory old = _symbol;\\n\n      SWAP1 \t\t\tring memory old = _symbol;\\n\n      PUSH 1\t\t\tring memory old = _symbol;\\n\n      ADD \t\t\tring memory old = _symbol;\\n\n      SWAP1 \t\t\tring memory old = _symbol;\\n\n      PUSH 20\t\t\tring memory old = _symbol;\\n\n      ADD \t\t\tring memory old = _symbol;\\n\n      DUP1 \t\t\tring memory old = _symbol;\\n\n      DUP4 \t\t\tring memory old = _symbol;\\n\n      GT \t\t\tring memory old = _symbol;\\n\n      PUSH [tag] 387\t\t\tring memory old = _symbol;\\n\n      JUMPI \t\t\tring memory old = _symbol;\\n\n      DUP3 \t\t\tring memory old = _symbol;\\n\n      SWAP1 \t\t\tring memory old = _symbol;\\n\n      SUB \t\t\tring memory old = _symbol;\\n\n      PUSH 1F\t\t\tring memory old = _symbol;\\n\n      AND \t\t\tring memory old = _symbol;\\n\n      DUP3 \t\t\tring memory old = _symbol;\\n\n      ADD \t\t\tring memory old = _symbol;\\n\n      SWAP2 \t\t\tring memory old = _symbol;\\n\n    tag 385\t\t\tring memory old = _symbol;\\n\n      JUMPDEST \t\t\tring memory old = _symbol;\\n\n      POP \t\t\tring memory old = _symbol;\\n\n      POP \t\t\tring memory old = _symbol;\\n\n      POP \t\t\tring memory old = _symbol;\\n\n      POP \t\t\tring memory old = _symbol;\\n\n      POP \t\t\tring memory old = _symbol;\\n\n      SWAP1 \t\t\tring memory old = _symbol;\\n\n      POP \t\t\tring memory old = _symbol;\\n\n      DUP3 \t\t\twSymbol;\\n\n      DUP3 \t\t\twSymbol;\\n\n      PUSH 1\t\t\tymbol =\n      SWAP2 \t\t\tymbol = newSymbol;\\n\n      DUP3 \t\t\tymbol = newSymbol;\\n\n      PUSH [tag] 388\t\t\tymbol = newSymbol;\\n\n      SWAP3 \t\t\tymbol = newSymbol;\\n\n      SWAP2 \t\t\tymbol = newSymbol;\\n\n      SWAP1 \t\t\tymbol = newSymbol;\\n\n      PUSH [tag] 304\t\t\tymbol = newSymbol;\\n\n      JUMP \t\t\tymbol = newSymbol;\\n\n    tag 388\t\t\tymbol = newSymbol;\\n\n      JUMPDEST \t\t\tymbol = newSymbol;\\n\n      POP \t\t\tymbol = newSymbol;\\n\n      PUSH D7AD744CC76EBAD190995130EEC8BA506B3605612D23B5B9CEF8E27F14D138B4\t\t\tmbolChanged(old, newSymbol);\\n\n      DUP2 \t\t\td, \n      DUP5 \t\t\twSymbol);\n      DUP5 \t\t\twSymbol);\n      PUSH 40\t\t\tmbolChanged(old, newSymbol);\\n\n      MLOAD \t\t\tmbolChanged(old, newSymbol);\\n\n      PUSH [tag] 389\t\t\tmbolChanged(old, newSymbol);\\n\n      SWAP4 \t\t\tmbolChanged(old, newSymbol);\\n\n      SWAP3 \t\t\tmbolChanged(old, newSymbol);\\n\n      SWAP2 \t\t\tmbolChanged(old, newSymbol);\\n\n      SWAP1 \t\t\tmbolChanged(old, newSymbol);\\n\n      PUSH [tag] 390\t\t\tmbolChanged(old, newSymbol);\\n\n      JUMP \t\t\tmbolChanged(old, newSymbol);\\n\n    tag 389\t\t\tmbolChanged(old, newSymbol);\\n\n      JUMPDEST \t\t\tmbolChanged(old, newSymbol);\\n\n      PUSH 40\t\t\tmbolChanged(old, newSymbol);\\n\n      MLOAD \t\t\tmbolChanged(old, newSymbol);\\n\n      DUP1 \t\t\tmbolChanged(old, newSymbol);\\n\n      SWAP2 \t\t\tmbolChanged(old, newSymbol);\\n\n      SUB \t\t\tmbolChanged(old, newSymbol);\\n\n      SWAP1 \t\t\tmbolChanged(old, newSymbol);\\n\n      LOG1 \t\t\tmbolChanged(old, newSymbol);\\n\n      POP \t\t\t        string memory old = _s...\n      POP \t\t\tnction setSymbol(string callda...\n      POP \t\t\tnction setSymbol(string callda...\n      JUMP \t\t\tnction setSymbol(string callda...\n    tag 197\t\t\tnction setName(string calldata...\n      JUMPDEST \t\t\tnction setName(string calldata...\n      PUSH [tag] 392\t\t\t       _name \n      PUSH [tag] 345\t\t\t       _nam\n      JUMP \t\t\t       _name \n    tag 392\t\t\t       _name \n      JUMPDEST \t\t\t       _name \n      PUSH 0\t\t\tring memory old =\n      PUSH 0\t\t\tame;\\n\n      DUP1 \t\t\tring memory old = _name;\\n\n      SLOAD \t\t\tring memory old = _name;\\n\n      PUSH [tag] 394\t\t\tring memory old = _name;\\n\n      SWAP1 \t\t\tring memory old = _name;\\n\n      PUSH [tag] 234\t\t\tring memory old = _name;\\n\n      JUMP \t\t\tring memory old = _name;\\n\n    tag 394\t\t\tring memory old = _name;\\n\n      JUMPDEST \t\t\tring memory old = _name;\\n\n      DUP1 \t\t\tring memory old = _name;\\n\n      PUSH 1F\t\t\tring memory old = _name;\\n\n      ADD \t\t\tring memory old = _name;\\n\n      PUSH 20\t\t\tring memory old = _name;\\n\n      DUP1 \t\t\tring memory old = _name;\\n\n      SWAP2 \t\t\tring memory old = _name;\\n\n      DIV \t\t\tring memory old = _name;\\n\n      MUL \t\t\tring memory old = _name;\\n\n      PUSH 20\t\t\tring memory old = _name;\\n\n      ADD \t\t\tring memory old = _name;\\n\n      PUSH 40\t\t\tring memory old = _name;\\n\n      MLOAD \t\t\tring memory old = _name;\\n\n      SWAP1 \t\t\tring memory old = _name;\\n\n      DUP2 \t\t\tring memory old = _name;\\n\n      ADD \t\t\tring memory old = _name;\\n\n      PUSH 40\t\t\tring memory old = _name;\\n\n      MSTORE \t\t\tring memory old = _name;\\n\n      DUP1 \t\t\tring memory old = _name;\\n\n      SWAP3 \t\t\tring memory old = _name;\\n\n      SWAP2 \t\t\tring memory old = _name;\\n\n      SWAP1 \t\t\tring memory old = _name;\\n\n      DUP2 \t\t\tring memory old = _name;\\n\n      DUP2 \t\t\tring memory old = _name;\\n\n      MSTORE \t\t\tring memory old = _name;\\n\n      PUSH 20\t\t\tring memory old = _name;\\n\n      ADD \t\t\tring memory old = _name;\\n\n      DUP3 \t\t\tring memory old = _name;\\n\n      DUP1 \t\t\tring memory old = _name;\\n\n      SLOAD \t\t\tring memory old = _name;\\n\n      PUSH [tag] 395\t\t\tring memory old = _name;\\n\n      SWAP1 \t\t\tring memory old = _name;\\n\n      PUSH [tag] 234\t\t\tring memory old = _name;\\n\n      JUMP \t\t\tring memory old = _name;\\n\n    tag 395\t\t\tring memory old = _name;\\n\n      JUMPDEST \t\t\tring memory old = _name;\\n\n      DUP1 \t\t\tring memory old = _name;\\n\n      ISZERO \t\t\tring memory old = _name;\\n\n      PUSH [tag] 396\t\t\tring memory old = _name;\\n\n      JUMPI \t\t\tring memory old = _name;\\n\n      DUP1 \t\t\tring memory old = _name;\\n\n      PUSH 1F\t\t\tring memory old = _name;\\n\n      LT \t\t\tring memory old = _name;\\n\n      PUSH [tag] 397\t\t\tring memory old = _name;\\n\n      JUMPI \t\t\tring memory old = _name;\\n\n      PUSH 100\t\t\tring memory old = _name;\\n\n      DUP1 \t\t\tring memory old = _name;\\n\n      DUP4 \t\t\tring memory old = _name;\\n\n      SLOAD \t\t\tring memory old = _name;\\n\n      DIV \t\t\tring memory old = _name;\\n\n      MUL \t\t\tring memory old = _name;\\n\n      DUP4 \t\t\tring memory old = _name;\\n\n      MSTORE \t\t\tring memory old = _name;\\n\n      SWAP2 \t\t\tring memory old = _name;\\n\n      PUSH 20\t\t\tring memory old = _name;\\n\n      ADD \t\t\tring memory old = _name;\\n\n      SWAP2 \t\t\tring memory old = _name;\\n\n      PUSH [tag] 396\t\t\tring memory old = _name;\\n\n      JUMP \t\t\tring memory old = _name;\\n\n    tag 397\t\t\tring memory old = _name;\\n\n      JUMPDEST \t\t\tring memory old = _name;\\n\n      DUP3 \t\t\tring memory old = _name;\\n\n      ADD \t\t\tring memory old = _name;\\n\n      SWAP2 \t\t\tring memory old = _name;\\n\n      SWAP1 \t\t\tring memory old = _name;\\n\n      PUSH 0\t\t\tring memory old = _name;\\n\n      MSTORE \t\t\tring memory old = _name;\\n\n      PUSH 20\t\t\tring memory old = _name;\\n\n      PUSH 0\t\t\tring memory old = _name;\\n\n      KECCAK256 \t\t\tring memory old = _name;\\n\n      SWAP1 \t\t\tring memory old = _name;\\n\n    tag 398\t\t\tring memory old = _name;\\n\n      JUMPDEST \t\t\tring memory old = _name;\\n\n      DUP2 \t\t\tring memory old = _name;\\n\n      SLOAD \t\t\tring memory old = _name;\\n\n      DUP2 \t\t\tring memory old = _name;\\n\n      MSTORE \t\t\tring memory old = _name;\\n\n      SWAP1 \t\t\tring memory old = _name;\\n\n      PUSH 1\t\t\tring memory old = _name;\\n\n      ADD \t\t\tring memory old = _name;\\n\n      SWAP1 \t\t\tring memory old = _name;\\n\n      PUSH 20\t\t\tring memory old = _name;\\n\n      ADD \t\t\tring memory old = _name;\\n\n      DUP1 \t\t\tring memory old = _name;\\n\n      DUP4 \t\t\tring memory old = _name;\\n\n      GT \t\t\tring memory old = _name;\\n\n      PUSH [tag] 398\t\t\tring memory old = _name;\\n\n      JUMPI \t\t\tring memory old = _name;\\n\n      DUP3 \t\t\tring memory old = _name;\\n\n      SWAP1 \t\t\tring memory old = _name;\\n\n      SUB \t\t\tring memory old = _name;\\n\n      PUSH 1F\t\t\tring memory old = _name;\\n\n      AND \t\t\tring memory old = _name;\\n\n      DUP3 \t\t\tring memory old = _name;\\n\n      ADD \t\t\tring memory old = _name;\\n\n      SWAP2 \t\t\tring memory old = _name;\\n\n    tag 396\t\t\tring memory old = _name;\\n\n      JUMPDEST \t\t\tring memory old = _name;\\n\n      POP \t\t\tring memory old = _name;\\n\n      POP \t\t\tring memory old = _name;\\n\n      POP \t\t\tring memory old = _name;\\n\n      POP \t\t\tring memory old = _name;\\n\n      POP \t\t\tring memory old = _name;\\n\n      SWAP1 \t\t\tring memory old = _name;\\n\n      POP \t\t\tring memory old = _name;\\n\n      DUP3 \t\t\twName;\\n\n      DUP3 \t\t\twName;\\n\n      PUSH 0\t\t\tame =\n      SWAP2 \t\t\tame = newName;\\n\n      DUP3 \t\t\tame = newName;\\n\n      PUSH [tag] 399\t\t\tame = newName;\\n\n      SWAP3 \t\t\tame = newName;\\n\n      SWAP2 \t\t\tame = newName;\\n\n      SWAP1 \t\t\tame = newName;\\n\n      PUSH [tag] 304\t\t\tame = newName;\\n\n      JUMP \t\t\tame = newName;\\n\n    tag 399\t\t\tame = newName;\\n\n      JUMPDEST \t\t\tame = newName;\\n\n      POP \t\t\tame = newName;\\n\n      PUSH 6C20B91D1723B78732EBA64FF11EBD7966A6E4AF568A00FA4F6B72C20F58B02A\t\t\tmeChanged(old, newName);\\n\n      DUP2 \t\t\td, \n      DUP5 \t\t\twName);\n      DUP5 \t\t\twName);\n      PUSH 40\t\t\tmeChanged(old, newName);\\n\n      MLOAD \t\t\tmeChanged(old, newName);\\n\n      PUSH [tag] 400\t\t\tmeChanged(old, newName);\\n\n      SWAP4 \t\t\tmeChanged(old, newName);\\n\n      SWAP3 \t\t\tmeChanged(old, newName);\\n\n      SWAP2 \t\t\tmeChanged(old, newName);\\n\n      SWAP1 \t\t\tmeChanged(old, newName);\\n\n      PUSH [tag] 390\t\t\tmeChanged(old, newName);\\n\n      JUMP \t\t\tmeChanged(old, newName);\\n\n    tag 400\t\t\tmeChanged(old, newName);\\n\n      JUMPDEST \t\t\tmeChanged(old, newName);\\n\n      PUSH 40\t\t\tmeChanged(old, newName);\\n\n      MLOAD \t\t\tmeChanged(old, newName);\\n\n      DUP1 \t\t\tmeChanged(old, newName);\\n\n      SWAP2 \t\t\tmeChanged(old, newName);\\n\n      SUB \t\t\tmeChanged(old, newName);\\n\n      SWAP1 \t\t\tmeChanged(old, newName);\\n\n      LOG1 \t\t\tmeChanged(old, newName);\\n\n      POP \t\t\t        string memory old = _n...\n      POP \t\t\tnction setName(string calldata...\n      POP \t\t\tnction setName(string calldata...\n      JUMP \t\t\tnction setName(string calldata...\n    tag 200\t\t\tbytes32 public constant MINTER...\n      JUMPDEST \t\t\tbytes32 public constant MINTER...\n      PUSH 9F2DF0FED2C77648DE5860A4CC508CD0818C85B8B8A1AB4CEEEF8D981C8956A6\t\t\tkeccak256(\"MINTER_ROLE\")\n      DUP2 \t\t\tbytes32 public constant MINTER...\n      JUMP \t\t\tbytes32 public constant MINTER...\n    tag 205\t\t\t\n      JUMPDEST \t\t\t\n      PUSH [tag] 401\t\t\t\n      DUP3 \t\t\t\n      PUSH [tag] 87\t\t\t\n      JUMP \t\t\t\n    tag 401\t\t\t\n      JUMPDEST \t\t\t\n      PUSH [tag] 403\t\t\tverride returns \n      DUP2 \t\t\turns\n      PUSH [tag] 258\t\t\tverride re\n      JUMP \t\t\tverride returns \n    tag 403\t\t\tverride returns \n      JUMPDEST \t\t\tverride returns \n      PUSH [tag] 405\t\t\t\n      DUP4 \t\t\t\n      DUP4 \t\t\t\n      PUSH [tag] 272\t\t\t\n      JUMP \t\t\t\n    tag 405\t\t\t\n      JUMPDEST \t\t\t\n      POP \t\t\t\n      POP \t\t\t\n      POP \t\t\t\n      POP \t\t\t\n      JUMP \t\t\t\n    tag 210\t\t\tquire(!_frozenWallets[from] &&...\n      JUMPDEST \t\t\tquire(!_frozenWallets[from] &&...\n      PUSH 0\t\t\t  // 2.\n      PUSH 0\t\t\tstriction – Applied ON\n      PUSH [tag] 407\t\t\tif traderRestricti\n      PUSH [tag] 246\t\t\tif traderRestric\n      JUMP \t\t\tif traderRestricti\n    tag 407\t\t\tif traderRestricti\n      JUMPDEST \t\t\tif traderRestricti\n      SWAP1 \t\t\tstriction – Applied ONLY if tr...\n      POP \t\t\tstriction – Applied ONLY if tr...\n      DUP1 \t\t\t \n      PUSH 1\t\t\t        if (t\n      ADD \t\t\t        if (t\n      PUSH 0\t\t\t        if (traderRe\n      DUP6 \t\t\taderR\n      PUSH FFFFFFFFFFFFFFFFFFFFFFFFFFFFFFFFFFFFFFFF\t\t\t        if (traderRe\n      AND \t\t\t        if (traderRe\n      PUSH FFFFFFFFFFFFFFFFFFFFFFFFFFFFFFFFFFFFFFFF\t\t\t        if (traderRe\n      AND \t\t\t        if (traderRe\n      DUP2 \t\t\t        if (traderRe\n      MSTORE \t\t\t        if (traderRe\n      PUSH 20\t\t\t        if (traderRe\n      ADD \t\t\t        if (traderRe\n      SWAP1 \t\t\t        if (traderRe\n      DUP2 \t\t\t        if (traderRe\n      MSTORE \t\t\t        if (traderRe\n      PUSH 20\t\t\t        if (traderRe\n      ADD \t\t\t        if (traderRe\n      PUSH 0\t\t\t        if (traderRe\n      KECCAK256 \t\t\t        if (traderRe\n      PUSH 0\t\t\t        if (traderRestriction\n      DUP5 \t\t\ttrictio\n      PUSH FFFFFFFFFFFFFFFFFFFFFFFFFFFFFFFFFFFFFFFF\t\t\t        if (traderRestriction\n      AND \t\t\t        if (traderRestriction\n      PUSH FFFFFFFFFFFFFFFFFFFFFFFFFFFFFFFFFFFFFFFF\t\t\t        if (traderRestriction\n      AND \t\t\t        if (traderRestriction\n      DUP2 \t\t\t        if (traderRestriction\n      MSTORE \t\t\t        if (traderRestriction\n      PUSH 20\t\t\t        if (traderRestriction\n      ADD \t\t\t        if (traderRestriction\n      SWAP1 \t\t\t        if (traderRestriction\n      DUP2 \t\t\t        if (traderRestriction\n      MSTORE \t\t\t        if (traderRestriction\n      PUSH 20\t\t\t        if (traderRestriction\n      ADD \t\t\t        if (traderRestriction\n      PUSH 0\t\t\t        if (traderRestriction\n      KECCAK256 \t\t\t        if (traderRestriction\n      SLOAD \t\t\t        if (traderRestriction\n      SWAP2 \t\t\ts true\\n        if (traderRest...\n      POP \t\t\ts true\\n        if (traderRest...\n      POP \t\t\ts true\\n        if (traderRest...\n      SWAP3 \t\t\tquire(!_frozenWallets[from] &&...\n      SWAP2 \t\t\tquire(!_frozenWallets[from] &&...\n      POP \t\t\tquire(!_frozenWallets[from] &&...\n      POP \t\t\tquire(!_frozenWallets[from] &&...\n      JUMP \t\t\tquire(!_frozenWallets[from] &&...\n    tag 214\t\t\town init takes no args (no ext...\n      JUMPDEST \t\t\town init takes no args (no ext...\n      PUSH 0\t\t\t     __\n      PUSH 0\t\t\t(msg.sender);\\n        __Ownab\n      PUSH [tag] 409\t\t\tStep_init();\\n\\n        __A\n      PUSH [tag] 410\t\t\tStep_init();\\n\\n        _\n      JUMP \t\t\tStep_init();\\n\\n        __A\n    tag 409\t\t\tStep_init();\\n\\n        __A\n      JUMPDEST \t\t\tStep_init();\\n\\n        __A\n      SWAP1 \t\t\t(msg.sender);\\n        __Ownab...\n      POP \t\t\t(msg.sender);\\n        __Ownab...\n      DUP1 \t\t\t(\n      PUSH 0\t\t\t();\\n\\n        //\n      ADD \t\t\t();\\n\\n        //\n      PUSH 0\t\t\t();\\n\\n        //\n      SWAP1 \t\t\t();\\n\\n        //\n      SLOAD \t\t\t();\\n\\n        //\n      SWAP1 \t\t\t();\\n\\n        //\n      PUSH 100\t\t\t();\\n\\n        //\n      EXP \t\t\t();\\n\\n        //\n      SWAP1 \t\t\t();\\n\\n        //\n      DIV \t\t\t();\\n\\n        //\n      PUSH FFFFFFFFFFFFFFFFFFFFFFFFFFFFFFFFFFFFFFFF\t\t\t();\\n\\n        //\n      AND \t\t\t();\\n\\n        //\n      SWAP2 \t\t\tol_init();\\n\\n        //\n      POP \t\t\tol_init();\\n\\n        //\n      POP \t\t\tol_init();\\n\\n        //\n      SWAP1 \t\t\town init takes no args (no ext...\n      JUMP \t\t\town init takes no args (no ext...\n    tag 218\t\t\tbytes32 public constant PAUSER...\n      JUMPDEST \t\t\tbytes32 public constant PAUSER...\n      PUSH 65D7A28E3265B37A6474929F336521B332C1681B933F6CB9F3376673440D862A\t\t\tkeccak256(\"PAUSER_ROLE\")\n      DUP2 \t\t\tbytes32 public constant PAUSER...\n      JUMP \t\t\tbytes32 public constant PAUSER...\n    tag 222\t\t\tbytes32 public constant TRADER...\n      JUMPDEST \t\t\tbytes32 public constant TRADER...\n      PUSH FACAF2747A7486CF5730E9265973FB54447D3ACE6E7E4711F6360826B0731941\t\t\tkeccak256(\"TRADER_ROLE\")\n      DUP2 \t\t\tbytes32 public constant TRADER...\n      JUMP \t\t\tbytes32 public constant TRADER...\n    tag 227\t\t\t);\\n        _grantRole(PAUSER_...\n      JUMPDEST \t\t\t);\\n        _grantRole(PAUSER_...\n      PUSH [tag] 412\t\t\t       _name \n      PUSH [tag] 345\t\t\t       _nam\n      JUMP \t\t\t       _name \n    tag 412\t\t\t       _name \n      JUMPDEST \t\t\t       _name \n      PUSH 0\t\t\tfalse initially\\n    function \n      PUSH [tag] 414\t\t\ttializeV2() external rein\n      PUSH [tag] 410\t\t\ttializeV2() external re\n      JUMP \t\t\ttializeV2() external rein\n    tag 414\t\t\ttializeV2() external rein\n      JUMPDEST \t\t\ttializeV2() external rein\n      SWAP1 \t\t\tfalse initially\\n    function ...\n      POP \t\t\tfalse initially\\n    function ...\n      DUP2 \t\t\trRestric\n      DUP2 \t\t\t2\n      PUSH 0\t\t\t2) {\\n        tr\n      ADD \t\t\t2) {\\n        tr\n      PUSH 0\t\t\t2) {\\n        tr\n      PUSH 100\t\t\t2) {\\n        traderRestric\n      EXP \t\t\t2) {\\n        traderRestric\n      DUP2 \t\t\t2) {\\n        traderRestric\n      SLOAD \t\t\t2) {\\n        traderRestric\n      DUP2 \t\t\t2) {\\n        traderRestric\n      PUSH FFFFFFFFFFFFFFFFFFFFFFFFFFFFFFFFFFFFFFFF\t\t\t2) {\\n        traderRestric\n      MUL \t\t\t2) {\\n        traderRestric\n      NOT \t\t\t2) {\\n        traderRestric\n      AND \t\t\t2) {\\n        traderRestric\n      SWAP1 \t\t\t2) {\\n        traderRestric\n      DUP4 \t\t\t2) {\\n        traderRestric\n      PUSH FFFFFFFFFFFFFFFFFFFFFFFFFFFFFFFFFFFFFFFF\t\t\t2) {\\n        traderRestric\n      AND \t\t\t2) {\\n        traderRestric\n      MUL \t\t\t2) {\\n        traderRestric\n      OR \t\t\t2) {\\n        traderRestric\n      SWAP1 \t\t\t2) {\\n        traderRestric\n      SSTORE \t\t\t2) {\\n        traderRestric\n      POP \t\t\t2) {\\n        traderRestric\n      DUP2 \t\t\tmbol upd\n      PUSH FFFFFFFFFFFFFFFFFFFFFFFFFFFFFFFFFFFFFFFF\t\t\tlse;\\n    }\\n\\n    // ----- Na...\n      AND \t\t\tlse;\\n    }\\n\\n    // ----- Na...\n      PUSH [tag] 415\t\t\tName & \n      PUSH [tag] 160\t\t\tName \n      JUMP \t\t\tName & \n    tag 415\t\t\tName & \n      JUMPDEST \t\t\tName & \n      PUSH FFFFFFFFFFFFFFFFFFFFFFFFFFFFFFFFFFFFFFFF\t\t\tlse;\\n    }\\n\\n    // ----- Na...\n      AND \t\t\tlse;\\n    }\\n\\n    // ----- Na...\n      PUSH 38D16B8CAC22D99FC7C124B9CD0DE2D3FA1FAEF420BFE791D8C362D765E22700\t\t\tlse;\\n    }\\n\\n    // ----- Na...\n      PUSH 40\t\t\tlse;\\n    }\\n\\n    // ----- Na...\n      MLOAD \t\t\tlse;\\n    }\\n\\n    // ----- Na...\n      PUSH 40\t\t\tlse;\\n    }\\n\\n    // ----- Na...\n      MLOAD \t\t\tlse;\\n    }\\n\\n    // ----- Na...\n      DUP1 \t\t\tlse;\\n    }\\n\\n    // ----- Na...\n      SWAP2 \t\t\tlse;\\n    }\\n\\n    // ----- Na...\n      SUB \t\t\tlse;\\n    }\\n\\n    // ----- Na...\n      SWAP1 \t\t\tlse;\\n    }\\n\\n    // ----- Na...\n      LOG3 \t\t\tlse;\\n    }\\n\\n    // ----- Na...\n      POP \t\t\tR: Set to false initially\\n   ...\n      POP \t\t\t);\\n        _grantRole(PAUSER_...\n      JUMP \t\t\t);\\n        _grantRole(PAUSER_...\n    tag 231\t\t\t\");\\n\\n    // Mutable name & s...\n      JUMPDEST \t\t\t\");\\n\\n    // Mutable name & s...\n      PUSH 0\t\t\tte _\n      PUSH 1FFC9A700000000000000000000000000000000000000000000000000000000\t\t\t wallets\\n    mapping(addr\n      PUSH FFFFFFFFFFFFFFFFFFFFFFFFFFFFFFFFFFFFFFFFFFFFFFFFFFFFFFFF\t\t\trage for frozen wallets\\n    m...\n      NOT \t\t\trage for frozen wallets\\n    m...\n      AND \t\t\trage for frozen wallets\\n    m...\n      DUP3 \t\t\trage for fr\n      PUSH FFFFFFFFFFFFFFFFFFFFFFFFFFFFFFFFFFFFFFFFFFFFFFFFFFFFFFFF\t\t\trage for frozen wallets\\n    m...\n      NOT \t\t\trage for frozen wallets\\n    m...\n      AND \t\t\trage for frozen wallets\\n    m...\n      EQ \t\t\trage for frozen wallets\\n    m...\n      SWAP1 \t\t\t // Storage for frozen wallets...\n      POP \t\t\t // Storage for frozen wallets...\n      SWAP2 \t\t\t\");\\n\\n    // Mutable name & s...\n      SWAP1 \t\t\t\");\\n\\n    // Mutable name & s...\n      POP \t\t\t\");\\n\\n    // Mutable name & s...\n      JUMP \t\t\t\");\\n\\n    // Mutable name & s...\n    tag 241\t\t\tonstant PAUSER_ROLE = keccak25...\n      JUMPDEST \t\t\tonstant PAUSER_ROLE = keccak25...\n      PUSH 0\t\t\tytes32 \n      CALLER \t\t\tDER_ROLE =\n      SWAP1 \t\t\tant TRADER_ROLE =\n      POP \t\t\tant TRADER_ROLE =\n      SWAP1 \t\t\tonstant PAUSER_ROLE = keccak25...\n      JUMP \t\t\tonstant PAUSER_ROLE = keccak25...\n    tag 243\t\t\t\n      JUMPDEST \t\t\t\n      PUSH [tag] 419\t\t\t\n      DUP4 \t\t\t\n      DUP4 \t\t\t\n      DUP4 \t\t\t\n      PUSH 1\t\t\t\n      PUSH [tag] 420\t\t\t\n      JUMP \t\t\t\n    tag 419\t\t\t\n      JUMPDEST \t\t\t\n      POP \t\t\t\n      POP \t\t\t\n      POP \t\t\t\n      JUMP \t\t\t\n    tag 246\t\t\tOZ v5: Ownable now requires an...\n      JUMPDEST \t\t\tOZ v5: Ownable now requires an...\n      PUSH 0\t\t\tner argument,\\n        \n      PUSH 52C63247E1F47DB19D5CE0460030C497F067CA4CEBF71BA98EEADABE20BACE00\t\t\t(no extra storage to\n      SWAP1 \t\t\ts no args (no extra storage to\n      POP \t\t\ts no args (no extra storage to\n      SWAP1 \t\t\tOZ v5: Ownable now requires an...\n      JUMP \t\t\tOZ v5: Ownable now requires an...\n    tag 250\t\t\t\n      JUMPDEST \t\t\t\n      PUSH 0\t\t\t\n      PUSH [tag] 423\t\t\t\n      DUP5 \t\t\t\n      DUP5 \t\t\t\n      PUSH [tag] 210\t\t\t\n      JUMP \t\t\t\n    tag 423\t\t\t\n      JUMPDEST \t\t\t\n      SWAP1 \t\t\t\n      POP \t\t\t\n      PUSH FFFFFFFFFFFFFFFFFFFFFFFFFFFFFFFFFFFFFFFFFFFFFFFFFFFFFFFFFFFFFFFF\t\t\t\n      DUP2 \t\t\t\n      LT \t\t\t\n      ISZERO \t\t\t\n      PUSH [tag] 424\t\t\t\n      JUMPI \t\t\t\n      DUP2 \t\t\t\n      DUP2 \t\t\t\n      LT \t\t\t\n      ISZERO \t\t\t\n      PUSH [tag] 425\t\t\t\n      JUMPI \t\t\t\n      DUP3 \t\t\t\n      DUP2 \t\t\t\n      DUP4 \t\t\t\n      PUSH 40\t\t\t\n      MLOAD \t\t\t\n      PUSH FB8F41B200000000000000000000000000000000000000000000000000000000\t\t\t\n      DUP2 \t\t\t\n      MSTORE \t\t\t\n      PUSH 4\t\t\t\n      ADD \t\t\t\n      PUSH [tag] 426\t\t\t\n      SWAP4 \t\t\t\n      SWAP3 \t\t\t\n      SWAP2 \t\t\t\n      SWAP1 \t\t\t\n      PUSH [tag] 427\t\t\t\n      JUMP \t\t\t\n    tag 426\t\t\t\n      JUMPDEST \t\t\t\n      PUSH 40\t\t\t\n      MLOAD \t\t\t\n      DUP1 \t\t\t\n      SWAP2 \t\t\t\n      SUB \t\t\t\n      SWAP1 \t\t\t\n      REVERT \t\t\t\n    tag 425\t\t\t\n      JUMPDEST \t\t\t\n      PUSH [tag] 428\t\t\t\n      DUP5 \t\t\t\n      DUP5 \t\t\t\n      DUP5 \t\t\t\n      DUP5 \t\t\t\n      SUB \t\t\t\n      PUSH 0\t\t\t\n      PUSH [tag] 420\t\t\t\n      JUMP \t\t\t\n    tag 428\t\t\t\n      JUMPDEST \t\t\t\n    tag 424\t\t\t\n      JUMPDEST \t\t\t\n      POP \t\t\t\n      POP \t\t\t\n      POP \t\t\t\n      POP \t\t\t\n      JUMP \t\t\t\n    tag 252\t\t\t\n      JUMPDEST \t\t\t\n      PUSH 0\t\t\t\n      PUSH FFFFFFFFFFFFFFFFFFFFFFFFFFFFFFFFFFFFFFFF\t\t\t\n      AND \t\t\t\n      DUP4 \t\t\t\n      PUSH FFFFFFFFFFFFFFFFFFFFFFFFFFFFFFFFFFFFFFFF\t\t\t\n      AND \t\t\t\n      SUB \t\t\t\n      PUSH [tag] 430\t\t\t\n      JUMPI \t\t\t\n      PUSH 0\t\t\t\n      PUSH 40\t\t\t\n      MLOAD \t\t\t\n      PUSH 96C6FD1E00000000000000000000000000000000000000000000000000000000\t\t\t\n      DUP2 \t\t\t\n      MSTORE \t\t\t\n      PUSH 4\t\t\t\n      ADD \t\t\t\n      PUSH [tag] 431\t\t\t\n      SWAP2 \t\t\t\n      SWAP1 \t\t\t\n      PUSH [tag] 162\t\t\t\n      JUMP \t\t\t\n    tag 431\t\t\t\n      JUMPDEST \t\t\t\n      PUSH 40\t\t\t\n      MLOAD \t\t\t\n      DUP1 \t\t\t\n      SWAP2 \t\t\t\n      SUB \t\t\t\n      SWAP1 \t\t\t\n      REVERT \t\t\t\n    tag 430\t\t\t\n      JUMPDEST \t\t\t\n      PUSH 0\t\t\t\n      PUSH FFFFFFFFFFFFFFFFFFFFFFFFFFFFFFFFFFFFFFFF\t\t\t\n      AND \t\t\t\n      DUP3 \t\t\t\n      PUSH FFFFFFFFFFFFFFFFFFFFFFFFFFFFFFFFFFFFFFFF\t\t\t\n      AND \t\t\t\n      SUB \t\t\t\n      PUSH [tag] 432\t\t\t\n      JUMPI \t\t\t\n      PUSH 0\t\t\t\n      PUSH 40\t\t\t\n      MLOAD \t\t\t\n      PUSH EC442F0500000000000000000000000000000000000000000000000000000000\t\t\t\n      DUP2 \t\t\t\n      MSTORE \t\t\t\n      PUSH 4\t\t\t\n      ADD \t\t\t\n      PUSH [tag] 433\t\t\t\n      SWAP2 \t\t\t\n      SWAP1 \t\t\t\n      PUSH [tag] 162\t\t\t\n      JUMP \t\t\t\n    tag 433\t\t\t\n      JUMPDEST \t\t\t\n      PUSH 40\t\t\t\n      MLOAD \t\t\t\n      DUP1 \t\t\t\n      SWAP2 \t\t\t\n      SUB \t\t\t\n      SWAP1 \t\t\t\n      REVERT \t\t\t\n    tag 432\t\t\t\n      JUMPDEST \t\t\t\n      PUSH [tag] 434\t\t\t\n      DUP4 \t\t\t\n      DUP4 \t\t\t\n      DUP4 \t\t\t\n      PUSH [tag] 435\t\t\t\n      JUMP \t\t\t\n    tag 434\t\t\t\n      JUMPDEST \t\t\t\n      POP \t\t\t\n      POP \t\t\t\n      POP \t\t\t\n      JUMP \t\t\t\n    tag 255\t\t\t\\n    function setName(string ...\n      JUMPDEST \t\t\t\\n    function setName(string ...\n      PUSH 0\t\t\tlyOwner {\\n        string memo...\n      PUSH 2DD7BC7DEC4DCEEDDA775E58DD541E08A116C6C53815C0BD028192F7B626800\t\t\t   emit NameChanged(old, new\n      SWAP1 \t\t\tame;\\n        emit NameChanged...\n      POP \t\t\tame;\\n        emit NameChanged...\n      SWAP1 \t\t\t\\n    function setName(string ...\n      JUMP \t\t\t\\n    function setName(string ...\n    tag 258\t\t\t{\\n        _unpause();\\n    }\\...\n      JUMPDEST \t\t\t{\\n        _unpause();\\n    }\\...\n      PUSH [tag] 438\t\t\tr restriction\\n    function se...\n      DUP2 \t\t\ton\\n \n      PUSH [tag] 439\t\t\t function se\n      PUSH [tag] 241\t\t\t function \n      JUMP \t\t\t function se\n    tag 439\t\t\t function se\n      JUMPDEST \t\t\t function se\n      PUSH [tag] 440\t\t\tr restrict\n      JUMP \t\t\tr restriction\\n    function se...\n    tag 438\t\t\tr restriction\\n    function se...\n      JUMPDEST \t\t\tr restriction\\n    function se...\n      POP \t\t\t{\\n        _unpause();\\n    }\\...\n      JUMP \t\t\t{\\n        _unpause();\\n    }\\...\n    tag 266\t\t\t\n      JUMPDEST \t\t\t\n      PUSH 0\t\t\t\n      PUSH 0\t\t\t\n      PUSH [tag] 442\t\t\t\n      PUSH [tag] 255\t\t\t\n      JUMP \t\t\t\n    tag 442\t\t\t\n      JUMPDEST \t\t\t\n      SWAP1 \t\t\t\n      POP \t\t\t\n      PUSH [tag] 443\t\t\t\n      DUP5 \t\t\t\n      DUP5 \t\t\t\n      PUSH [tag] 166\t\t\t\n      JUMP \t\t\t\n    tag 443\t\t\t\n      JUMPDEST \t\t\t\n      PUSH [tag] 444\t\t\t\n      JUMPI \t\t\t\n      PUSH 1\t\t\t\n      DUP2 \t\t\t\n      PUSH 0\t\t\t\n      ADD \t\t\t\n      PUSH 0\t\t\t\n      DUP7 \t\t\t\n      DUP2 \t\t\t\n      MSTORE \t\t\t\n      PUSH 20\t\t\t\n      ADD \t\t\t\n      SWAP1 \t\t\t\n      DUP2 \t\t\t\n      MSTORE \t\t\t\n      PUSH 20\t\t\t\n      ADD \t\t\t\n      PUSH 0\t\t\t\n      KECCAK256 \t\t\t\n      PUSH 0\t\t\t\n      ADD \t\t\t\n      PUSH 0\t\t\t\n      DUP6 \t\t\t\n      PUSH FFFFFFFFFFFFFFFFFFFFFFFFFFFFFFFFFFFFFFFF\t\t\t\n      AND \t\t\t\n      PUSH FFFFFFFFFFFFFFFFFFFFFFFFFFFFFFFFFFFFFFFF\t\t\t\n      AND \t\t\t\n      DUP2 \t\t\t\n      MSTORE \t\t\t\n      PUSH 20\t\t\t\n      ADD \t\t\t\n      SWAP1 \t\t\t\n      DUP2 \t\t\t\n      MSTORE \t\t\t\n      PUSH 20\t\t\t\n      ADD \t\t\t\n      PUSH 0\t\t\t\n      KECCAK256 \t\t\t\n      PUSH 0\t\t\t\n      PUSH 100\t\t\t\n      EXP \t\t\t\n      DUP2 \t\t\t\n      SLOAD \t\t\t\n      DUP2 \t\t\t\n      PUSH FF\t\t\t\n      MUL \t\t\t\n      NOT \t\t\t\n      AND \t\t\t\n      SWAP1 \t\t\t\n      DUP4 \t\t\t\n      ISZERO \t\t\t\n      ISZERO \t\t\t\n      MUL \t\t\t\n      OR \t\t\t\n      SWAP1 \t\t\t\n      SSTORE \t\t\t\n      POP \t\t\t\n      PUSH [tag] 445\t\t\t\n      PUSH [tag] 241\t\t\t\n      JUMP \t\t\t\n    tag 445\t\t\t\n      JUMPDEST \t\t\t\n      PUSH FFFFFFFFFFFFFFFFFFFFFFFFFFFFFFFFFFFFFFFF\t\t\t\n      AND \t\t\t\n      DUP4 \t\t\t\n      PUSH FFFFFFFFFFFFFFFFFFFFFFFFFFFFFFFFFFFFFFFF\t\t\t\n      AND \t\t\t\n      DUP6 \t\t\t\n      PUSH 2F8788117E7EFF1D82E926EC794901D17C78024A50270940304540A733656F0D\t\t\t\n      PUSH 40\t\t\t\n      MLOAD \t\t\t\n      PUSH 40\t\t\t\n      MLOAD \t\t\t\n      DUP1 \t\t\t\n      SWAP2 \t\t\t\n      SUB \t\t\t\n      SWAP1 \t\t\t\n      LOG4 \t\t\t\n      PUSH 1\t\t\t\n      SWAP2 \t\t\t\n      POP \t\t\t\n      POP \t\t\t\n      PUSH [tag] 441\t\t\t\n      JUMP \t\t\t\n    tag 444\t\t\t\n      JUMPDEST \t\t\t\n      PUSH 0\t\t\t\n      SWAP2 \t\t\t\n      POP \t\t\t\n      POP \t\t\t\n    tag 441\t\t\t\n      JUMPDEST \t\t\t\n      SWAP3 \t\t\t\n      SWAP2 \t\t\t\n      POP \t\t\t\n      POP \t\t\t\n      JUMP \t\t\t\n    tag 272\t\t\t\n      JUMPDEST \t\t\t\n      PUSH 0\t\t\t\n      PUSH 0\t\t\t\n      PUSH [tag] 448\t\t\t\n      PUSH [tag] 255\t\t\t\n      JUMP \t\t\t\n    tag 448\t\t\t\n      JUMPDEST \t\t\t\n      SWAP1 \t\t\t\n      POP \t\t\t\n      PUSH [tag] 449\t\t\t\n      DUP5 \t\t\t\n      DUP5 \t\t\t\n      PUSH [tag] 166\t\t\t\n      JUMP \t\t\t\n    tag 449\t\t\t\n      JUMPDEST \t\t\t\n      ISZERO \t\t\t\n      PUSH [tag] 450\t\t\t\n      JUMPI \t\t\t\n      PUSH 0\t\t\t\n      DUP2 \t\t\t\n      PUSH 0\t\t\t\n      ADD \t\t\t\n      PUSH 0\t\t\t\n      DUP7 \t\t\t\n      DUP2 \t\t\t\n      MSTORE \t\t\t\n      PUSH 20\t\t\t\n      ADD \t\t\t\n      SWAP1 \t\t\t\n      DUP2 \t\t\t\n      MSTORE \t\t\t\n      PUSH 20\t\t\t\n      ADD \t\t\t\n      PUSH 0\t\t\t\n      KECCAK256 \t\t\t\n      PUSH 0\t\t\t\n      ADD \t\t\t\n      PUSH 0\t\t\t\n      DUP6 \t\t\t\n      PUSH FFFFFFFFFFFFFFFFFFFFFFFFFFFFFFFFFFFFFFFF\t\t\t\n      AND \t\t\t\n      PUSH FFFFFFFFFFFFFFFFFFFFFFFFFFFFFFFFFFFFFFFF\t\t\t\n      AND \t\t\t\n      DUP2 \t\t\t\n      MSTORE \t\t\t\n      PUSH 20\t\t\t\n      ADD \t\t\t\n      SWAP1 \t\t\t\n      DUP2 \t\t\t\n      MSTORE \t\t\t\n      PUSH 20\t\t\t\n      ADD \t\t\t\n      PUSH 0\t\t\t\n      KECCAK256 \t\t\t\n      PUSH 0\t\t\t\n      PUSH 100\t\t\t\n      EXP \t\t\t\n      DUP2 \t\t\t\n      SLOAD \t\t\t\n      DUP2 \t\t\t\n      PUSH FF\t\t\t\n      MUL \t\t\t\n      NOT \t\t\t\n      AND \t\t\t\n      SWAP1 \t\t\t\n      DUP4 \t\t\t\n      ISZERO \t\t\t\n      ISZERO \t\t\t\n      MUL \t\t\t\n      OR \t\t\t\n      SWAP1 \t\t\t\n      SSTORE \t\t\t\n      POP \t\t\t\n      PUSH [tag] 451\t\t\t\n      PUSH [tag] 241\t\t\t\n      JUMP \t\t\t\n    tag 451\t\t\t\n      JUMPDEST \t\t\t\n      PUSH FFFFFFFFFFFFFFFFFFFFFFFFFFFFFFFFFFFFFFFF\t\t\t\n      AND \t\t\t\n      DUP4 \t\t\t\n      PUSH FFFFFFFFFFFFFFFFFFFFFFFFFFFFFFFFFFFFFFFF\t\t\t\n      AND \t\t\t\n      DUP6 \t\t\t\n      PUSH F6391F5C32D9C69D2A47EA670B442974B53935D1EDC7FD64EB21E047A839171B\t\t\t\n      PUSH 40\t\t\t\n      MLOAD \t\t\t\n      PUSH 40\t\t\t\n      MLOAD \t\t\t\n      DUP1 \t\t\t\n      SWAP2 \t\t\t\n      SUB \t\t\t\n      SWAP1 \t\t\t\n      LOG4 \t\t\t\n      PUSH 1\t\t\t\n      SWAP2 \t\t\t\n      POP \t\t\t\n      POP \t\t\t\n      PUSH [tag] 447\t\t\t\n      JUMP \t\t\t\n    tag 450\t\t\t\n      JUMPDEST \t\t\t\n      PUSH 0\t\t\t\n      SWAP2 \t\t\t\n      POP \t\t\t\n      POP \t\t\t\n    tag 447\t\t\t\n      JUMPDEST \t\t\t\n      SWAP3 \t\t\t\n      SWAP2 \t\t\t\n      POP \t\t\t\n      POP \t\t\t\n      JUMP \t\t\t\n    tag 277\t\t\tE) {\\n        _mint(to, amount...\n      JUMPDEST \t\t\tE) {\\n        _mint(to, amount...\n      PUSH [tag] 454\t\t\t no storage/init\n      PUSH [tag] 455\t\t\t no storage/in\n      JUMP \t\t\t no storage/init\n    tag 454\t\t\t no storage/init\n      JUMPDEST \t\t\t no storage/init\n      PUSH 0\t\t\tount);\\n    }\\n\\n    functio\n      PUSH [tag] 457\t\t\treezeWallet(address a\n      PUSH [tag] 327\t\t\treezeWallet(address\n      JUMP \t\t\treezeWallet(address a\n    tag 457\t\t\treezeWallet(address a\n      JUMPDEST \t\t\treezeWallet(address a\n      SWAP1 \t\t\tount);\\n    }\\n\\n    function ...\n      POP \t\t\tount);\\n    }\\n\\n    function ...\n      PUSH 0\t\t\tole(F\n      DUP2 \t\t\tt\n      PUSH 0\t\t\tternal on\n      ADD \t\t\tternal on\n      PUSH 0\t\t\tternal on\n      PUSH 100\t\t\tternal onlyRole(F\n      EXP \t\t\tternal onlyRole(F\n      DUP2 \t\t\tternal onlyRole(F\n      SLOAD \t\t\tternal onlyRole(F\n      DUP2 \t\t\tternal onlyRole(F\n      PUSH FF\t\t\tternal onlyRole(F\n      MUL \t\t\tternal onlyRole(F\n      NOT \t\t\tternal onlyRole(F\n      AND \t\t\tternal onlyRole(F\n      SWAP1 \t\t\tternal onlyRole(F\n      DUP4 \t\t\tternal onlyRole(F\n      ISZERO \t\t\tternal onlyRole(F\n      ISZERO \t\t\tternal onlyRole(F\n      MUL \t\t\tternal onlyRole(F\n      OR \t\t\tternal onlyRole(F\n      SWAP1 \t\t\tternal onlyRole(F\n      SSTORE \t\t\tternal onlyRole(F\n      POP \t\t\tternal onlyRole(F\n      PUSH 5DB9EE0A495BF2E6FF9C91A7834C1BA4FDD244A5E8AA4E537BD38AEAE4B073AA\t\t\t        require(!_froz\n      PUSH [tag] 458\t\t\tequire(!_fro\n      PUSH [tag] 241\t\t\tequire(!_f\n      JUMP \t\t\tequire(!_fro\n    tag 458\t\t\tequire(!_fro\n      JUMPDEST \t\t\tequire(!_fro\n      PUSH 40\t\t\t        require(!_froz\n      MLOAD \t\t\t        require(!_froz\n      PUSH [tag] 459\t\t\t        require(!_froz\n      SWAP2 \t\t\t        require(!_froz\n      SWAP1 \t\t\t        require(!_froz\n      PUSH [tag] 162\t\t\t        require(!_froz\n      JUMP \t\t\t        require(!_froz\n    tag 459\t\t\t        require(!_froz\n      JUMPDEST \t\t\t        require(!_froz\n      PUSH 40\t\t\t        require(!_froz\n      MLOAD \t\t\t        require(!_froz\n      DUP1 \t\t\t        require(!_froz\n      SWAP2 \t\t\t        require(!_froz\n      SUB \t\t\t        require(!_froz\n      SWAP1 \t\t\t        require(!_froz\n      LOG1 \t\t\t        require(!_froz\n      POP \t\t\tted(to, amount);\\n    }\\n\\n   ...\n      JUMP \t\t\tE) {\\n        _mint(to, amount...\n    tag 282\t\t\t\n      JUMPDEST \t\t\t\n      PUSH 0\t\t\t\n      PUSH FFFFFFFFFFFFFFFFFFFFFFFFFFFFFFFFFFFFFFFF\t\t\t\n      AND \t\t\t\n      DUP3 \t\t\t\n      PUSH FFFFFFFFFFFFFFFFFFFFFFFFFFFFFFFFFFFFFFFF\t\t\t\n      AND \t\t\t\n      SUB \t\t\t\n      PUSH [tag] 461\t\t\t\n      JUMPI \t\t\t\n      PUSH 0\t\t\t\n      PUSH 40\t\t\t\n      MLOAD \t\t\t\n      PUSH EC442F0500000000000000000000000000000000000000000000000000000000\t\t\t\n      DUP2 \t\t\t\n      MSTORE \t\t\t\n      PUSH 4\t\t\t\n      ADD \t\t\t\n      PUSH [tag] 462\t\t\t\n      SWAP2 \t\t\t\n      SWAP1 \t\t\t\n      PUSH [tag] 162\t\t\t\n      JUMP \t\t\t\n    tag 462\t\t\t\n      JUMPDEST \t\t\t\n      PUSH 40\t\t\t\n      MLOAD \t\t\t\n      DUP1 \t\t\t\n      SWAP2 \t\t\t\n      SUB \t\t\t\n      SWAP1 \t\t\t\n      REVERT \t\t\t\n    tag 461\t\t\t\n      JUMPDEST \t\t\t\n      PUSH [tag] 463\t\t\t\n      PUSH 0\t\t\t\n      DUP4 \t\t\t\n      DUP4 \t\t\t\n      PUSH [tag] 435\t\t\t\n      JUMP \t\t\t\n    tag 463\t\t\t\n      JUMPDEST \t\t\t\n      POP \t\t\t\n      POP \t\t\t\n      JUMP \t\t\t\n    tag 286\t\t\t\n      JUMPDEST \t\t\t\n      PUSH 0\t\t\t\n      PUSH 0\t\t\t\n      PUSH [tag] 465\t\t\t\n      PUSH [tag] 466\t\t\t\n      JUMP \t\t\t\n    tag 465\t\t\t\n      JUMPDEST \t\t\t\n      SWAP1 \t\t\t\n      POP \t\t\t\n      DUP1 \t\t\t\n      SWAP2 \t\t\t\n      POP \t\t\t\n      POP \t\t\t\n      SWAP1 \t\t\t\n      JUMP \t\t\t\n    tag 294\t\t\t\\n        // __UUPSUpgradeable...\n      JUMPDEST \t\t\t\\n        // __UUPSUpgradeable...\n      PUSH [tag] 468\t\t\t\n      PUSH [tag] 469\t\t\t\n      JUMP \t\t\t\n    tag 468\t\t\t\n      JUMPDEST \t\t\t\n      PUSH [tag] 471\t\t\t  _symbol = symbol_;\\n\\n      ...\n      DUP3 \t\t\t     \n      DUP3 \t\t\t_grantR\n      PUSH [tag] 472\t\t\t  _symbol = symbol_;\\n\\n\n      JUMP \t\t\t  _symbol = symbol_;\\n\\n      ...\n    tag 471\t\t\t  _symbol = symbol_;\\n\\n      ...\n      JUMPDEST \t\t\t  _symbol = symbol_;\\n\\n      ...\n      POP \t\t\t\\n        // __UUPSUpgradeable...\n      POP \t\t\t\\n        // __UUPSUpgradeable...\n      JUMP \t\t\t\\n        // __UUPSUpgradeable...\n    tag 296\t\t\t> bool) private _frozenWallets...\n      JUMPDEST \t\t\t> bool) private _frozenWallets...\n      PUSH [tag] 474\t\t\t\n      PUSH [tag] 469\t\t\t\n      JUMP \t\t\t\n    tag 474\t\t\t\n      JUMPDEST \t\t\t\n      JUMP \t\t\t> bool) private _frozenWallets...\n    tag 298\t\t\t initializer {\\n        __ERC2...\n      JUMPDEST \t\t\t initializer {\\n        __ERC2...\n      PUSH [tag] 477\t\t\t\n      PUSH [tag] 469\t\t\t\n      JUMP \t\t\t\n    tag 477\t\t\t\n      JUMPDEST \t\t\t\n      PUSH [tag] 479\t\t\t);\\n\\n        // OZ v5: Ownabl...\n      DUP2 \t\t\table now req\n      PUSH [tag] 480\t\t\t);\\n\\n        // OZ v5: Ow\n      JUMP \t\t\t);\\n\\n        // OZ v5: Ownabl...\n    tag 479\t\t\t);\\n\\n        // OZ v5: Ownabl...\n      JUMPDEST \t\t\t);\\n\\n        // OZ v5: Ownabl...\n      POP \t\t\t initializer {\\n        __ERC2...\n      JUMP \t\t\t initializer {\\n        __ERC2...\n    tag 300\t\t\tldata symbol_\\n    ) external ...\n      JUMPDEST \t\t\tldata symbol_\\n    ) external ...\n      PUSH [tag] 482\t\t\t\n      PUSH [tag] 469\t\t\t\n      JUMP \t\t\t\n    tag 482\t\t\t\n      JUMPDEST \t\t\t\n      JUMP \t\t\tldata symbol_\\n    ) external ...\n    tag 302\t\t\t  return _name;\\n    }\\n\\n    ...\n      JUMPDEST \t\t\t  return _name;\\n    }\\n\\n    ...\n      PUSH [tag] 485\t\t\t\n      PUSH [tag] 469\t\t\t\n      JUMP \t\t\t\n    tag 485\t\t\t\n      JUMPDEST \t\t\t\n      JUMP \t\t\t  return _name;\\n    }\\n\\n    ...\n    tag 315\t\t\testrictionActive = active;\\n  ...\n      JUMPDEST \t\t\testrictionActive = active;\\n  ...\n      PUSHIMMUTABLE 2454\t\t\t---- I\n      PUSH FFFFFFFFFFFFFFFFFFFFFFFFFFFFFFFFFFFFFFFF\t\t\t;\\n    }\\n\\n    // ----- I\n      AND \t\t\t;\\n    }\\n\\n    // ----- I\n      ADDRESS \t\t\t\\n   \n      PUSH FFFFFFFFFFFFFFFFFFFFFFFFFFFFFFFFFFFFFFFF\t\t\t;\\n    }\\n\\n    // ----- I\n      AND \t\t\t;\\n    }\\n\\n    // ----- I\n      EQ \t\t\t;\\n    }\\n\\n    // ----- I\n      DUP1 \t\t\t;\\n    }\\n\\n    // ----- Inter...\n      PUSH [tag] 488\t\t\t;\\n    }\\n\\n    // ----- Inter...\n      JUMPI \t\t\t;\\n    }\\n\\n    // ----- Inter...\n      POP \t\t\t;\\n    }\\n\\n    // ----- Inter...\n      PUSHIMMUTABLE 2454\t\t\t   int\n      PUSH FFFFFFFFFFFFFFFFFFFFFFFFFFFFFFFFFFFFFFFF\t\t\tom, address to, uint256 value)...\n      AND \t\t\tom, address to, uint256 value)...\n      PUSH [tag] 489\t\t\tom, address to, uint256 value)...\n      PUSH [tag] 490\t\t\tom, address to, uint256 value)\n      JUMP \t\t\tom, address to, uint256 value)...\n    tag 489\t\t\tom, address to, uint256 value)...\n      JUMPDEST \t\t\tom, address to, uint256 value)...\n      PUSH FFFFFFFFFFFFFFFFFFFFFFFFFFFFFFFFFFFFFFFF\t\t\tom, address to, uint256 value)...\n      AND \t\t\tom, address to, uint256 value)...\n      EQ \t\t\tom, address to, uint256 value)...\n      ISZERO \t\t\tom, address to, uint256 value)...\n    tag 488\t\t\t;\\n    }\\n\\n    // ----- Inter...\n      JUMPDEST \t\t\t;\\n    }\\n\\n    // ----- Inter...\n      ISZERO \t\t\tonUpdated(active);\\n    }\\n\\n ...\n      PUSH [tag] 491\t\t\tonUpdated(active);\\n    }\\n\\n ...\n      JUMPI \t\t\tonUpdated(active);\\n    }\\n\\n ...\n      PUSH 40\t\t\t       // 1. Freeze check\\n   \n      MLOAD \t\t\t       // 1. Freeze check\\n   \n      PUSH E07C8DBA00000000000000000000000000000000000000000000000000000000\t\t\t       // 1. Freeze check\\n   \n      DUP2 \t\t\t       // 1. Freeze check\\n   \n      MSTORE \t\t\t       // 1. Freeze check\\n   \n      PUSH 4\t\t\t       // 1. Freeze check\\n   \n      ADD \t\t\t       // 1. Freeze check\\n   \n      PUSH 40\t\t\t       // 1. Freeze check\\n   \n      MLOAD \t\t\t       // 1. Freeze check\\n   \n      DUP1 \t\t\t       // 1. Freeze check\\n   \n      SWAP2 \t\t\t       // 1. Freeze check\\n   \n      SUB \t\t\t       // 1. Freeze check\\n   \n      SWAP1 \t\t\t       // 1. Freeze check\\n   \n      REVERT \t\t\t       // 1. Freeze check\\n   \n    tag 491\t\t\tonUpdated(active);\\n    }\\n\\n ...\n      JUMPDEST \t\t\tonUpdated(active);\\n    }\\n\\n ...\n      JUMP \t\t\testrictionActive = active;\\n  ...\n    tag 318\t\t\ttion _authorizeUpgrade(address...\n      JUMPDEST \t\t\ttion _authorizeUpgrade(address...\n      PUSH [tag] 493\t\t\t       _name \n      PUSH [tag] 345\t\t\t       _nam\n      JUMP \t\t\t       _name \n    tag 493\t\t\t       _name \n      JUMPDEST \t\t\t       _name \n      POP \t\t\ttion _authorizeUpgrade(address...\n      JUMP \t\t\ttion _authorizeUpgrade(address...\n    tag 320\t\t\t\n      JUMPDEST \t\t\t\n      DUP2 \t\t\t\n      PUSH FFFFFFFFFFFFFFFFFFFFFFFFFFFFFFFFFFFFFFFF\t\t\t\n      AND \t\t\t\n      PUSH 52D1902D\t\t\t\n      PUSH 40\t\t\t\n      MLOAD \t\t\t\n      DUP2 \t\t\t\n      PUSH FFFFFFFF\t\t\t\n      AND \t\t\t\n      PUSH E0\t\t\t\n      SHL \t\t\t\n      DUP2 \t\t\t\n      MSTORE \t\t\t\n      PUSH 4\t\t\t\n      ADD \t\t\t\n      PUSH 20\t\t\t\n      PUSH 40\t\t\t\n      MLOAD \t\t\t\n      DUP1 \t\t\t\n      DUP4 \t\t\t\n      SUB \t\t\t\n      DUP2 \t\t\t\n      DUP7 \t\t\t\n      GAS \t\t\t\n      STATICCALL \t\t\t\n      SWAP3 \t\t\t\n      POP \t\t\t\n      POP \t\t\t\n      POP \t\t\t\n      DUP1 \t\t\t\n      ISZERO \t\t\t\n      PUSH [tag] 496\t\t\t\n      JUMPI \t\t\t\n      POP \t\t\t\n      PUSH 40\t\t\t\n      MLOAD \t\t\t\n      RETURNDATASIZE \t\t\t\n      PUSH 1F\t\t\t\n      NOT \t\t\t\n      PUSH 1F\t\t\t\n      DUP3 \t\t\t\n      ADD \t\t\t\n      AND \t\t\t\n      DUP3 \t\t\t\n      ADD \t\t\t\n      DUP1 \t\t\t\n      PUSH 40\t\t\t\n      MSTORE \t\t\t\n      POP \t\t\t\n      DUP2 \t\t\t\n      ADD \t\t\t\n      SWAP1 \t\t\t\n      PUSH [tag] 497\t\t\t\n      SWAP2 \t\t\t\n      SWAP1 \t\t\t\n      PUSH [tag] 498\t\t\t\n      JUMP \t\t\t\n    tag 497\t\t\t\n      JUMPDEST \t\t\t\n      PUSH 1\t\t\t\n    tag 496\t\t\t\n      JUMPDEST \t\t\t\n      PUSH [tag] 499\t\t\t\n      JUMPI \t\t\t\n      DUP2 \t\t\t\n      PUSH 40\t\t\t\n      MLOAD \t\t\t\n      PUSH 4C9C8CE300000000000000000000000000000000000000000000000000000000\t\t\t\n      DUP2 \t\t\t\n      MSTORE \t\t\t\n      PUSH 4\t\t\t\n      ADD \t\t\t\n      PUSH [tag] 503\t\t\t\n      SWAP2 \t\t\t\n      SWAP1 \t\t\t\n      PUSH [tag] 162\t\t\t\n      JUMP \t\t\t\n    tag 503\t\t\t\n      JUMPDEST \t\t\t\n      PUSH 40\t\t\t\n      MLOAD \t\t\t\n      DUP1 \t\t\t\n      SWAP2 \t\t\t\n      SUB \t\t\t\n      SWAP1 \t\t\t\n      REVERT \t\t\t\n    tag 499\t\t\t\n      JUMPDEST \t\t\t\n      PUSH 360894A13BA1A3210667C828492DB98DCA3E2076CC3735A920A3CA505D382BBC\t\t\tOLE\");\\n    bytes32 public con...\n      PUSH 0\t\t\t\n      SHL \t\t\t\n      DUP2 \t\t\t\n      EQ \t\t\t\n      PUSH [tag] 505\t\t\t\n      JUMPI \t\t\t\n      DUP1 \t\t\t\n      PUSH 40\t\t\t\n      MLOAD \t\t\t\n      PUSH AA1D49A400000000000000000000000000000000000000000000000000000000\t\t\t\n      DUP2 \t\t\t\n      MSTORE \t\t\t\n      PUSH 4\t\t\t\n      ADD \t\t\t\n      PUSH [tag] 506\t\t\t\n      SWAP2 \t\t\t\n      SWAP1 \t\t\t\n      PUSH [tag] 60\t\t\t\n      JUMP \t\t\t\n    tag 506\t\t\t\n      JUMPDEST \t\t\t\n      PUSH 40\t\t\t\n      MLOAD \t\t\t\n      DUP1 \t\t\t\n      SWAP2 \t\t\t\n      SUB \t\t\t\n      SWAP1 \t\t\t\n      REVERT \t\t\t\n    tag 505\t\t\t\n      JUMPDEST \t\t\t\n      PUSH [tag] 507\t\t\t\n      DUP4 \t\t\t\n      DUP4 \t\t\t\n      PUSH [tag] 508\t\t\t\n      JUMP \t\t\t\n    tag 507\t\t\t\n      JUMPDEST \t\t\t\n      POP \t\t\t\n      POP \t\t\t\n      POP \t\t\t\n      JUMP \t\t\t\n    tag 323\t\t\ttraderRestrictionActive is tru...\n      JUMPDEST \t\t\ttraderRestrictionActive is tru...\n      PUSHIMMUTABLE 2454\t\t\tess(0)\n      PUSH FFFFFFFFFFFFFFFFFFFFFFFFFFFFFFFFFFFFFFFF\t\t\te && from != address(0)\n      AND \t\t\te && from != address(0)\n      ADDRESS \t\t\tm !=\n      PUSH FFFFFFFFFFFFFFFFFFFFFFFFFFFFFFFFFFFFFFFF\t\t\te && from != address(0)\n      AND \t\t\te && from != address(0)\n      EQ \t\t\te && from != address(0)\n      PUSH [tag] 510\t\t\tctive && from != address(0) &&...\n      JUMPI \t\t\tctive && from != address(0) &&...\n      PUSH 40\t\t\tr lacks TRADER_ROLE\");\\n\\n    ...\n      MLOAD \t\t\tr lacks TRADER_ROLE\");\\n\\n    ...\n      PUSH E07C8DBA00000000000000000000000000000000000000000000000000000000\t\t\tr lacks TRADER_ROLE\");\\n\\n    ...\n      DUP2 \t\t\tr lacks TRADER_ROLE\");\\n\\n    ...\n      MSTORE \t\t\tr lacks TRADER_ROLE\");\\n\\n    ...\n      PUSH 4\t\t\tr lacks TRADER_ROLE\");\\n\\n    ...\n      ADD \t\t\tr lacks TRADER_ROLE\");\\n\\n    ...\n      PUSH 40\t\t\tr lacks TRADER_ROLE\");\\n\\n    ...\n      MLOAD \t\t\tr lacks TRADER_ROLE\");\\n\\n    ...\n      DUP1 \t\t\tr lacks TRADER_ROLE\");\\n\\n    ...\n      SWAP2 \t\t\tr lacks TRADER_ROLE\");\\n\\n    ...\n      SUB \t\t\tr lacks TRADER_ROLE\");\\n\\n    ...\n      SWAP1 \t\t\tr lacks TRADER_ROLE\");\\n\\n    ...\n      REVERT \t\t\tr lacks TRADER_ROLE\");\\n\\n    ...\n    tag 510\t\t\tctive && from != address(0) &&...\n      JUMPDEST \t\t\tctive && from != address(0) &&...\n      JUMP \t\t\ttraderRestrictionActive is tru...\n    tag 327\t\t\tol) private _frozenWallets;\\n\\...\n      JUMPDEST \t\t\tol) private _frozenWallets;\\n\\...\n      PUSH 0\t\t\t be appended after existi\n      PUSH CD5ED15C6E187E77E9AEE88184C21F4F2182AB5827CB3B7E07FBEDCD63F03300\t\t\tic traderRestrictionAct\n      SWAP1 \t\t\t bool public traderRestriction...\n      POP \t\t\t bool public traderRestriction...\n      SWAP1 \t\t\tol) private _frozenWallets;\\n\\...\n      JUMP \t\t\tol) private _frozenWallets;\\n\\...\n    tag 345\t\t\txternal reinitializer(2) {\\n  ...\n      JUMPDEST \t\t\txternal reinitializer(2) {\\n  ...\n      PUSH [tag] 513\t\t\t  }\\n\\n    // \n      PUSH [tag] 241\t\t\t  }\\n\\n    /\n      JUMP \t\t\t  }\\n\\n    // \n    tag 513\t\t\t  }\\n\\n    // \n      JUMPDEST \t\t\t  }\\n\\n    // \n      PUSH FFFFFFFFFFFFFFFFFFFFFFFFFFFFFFFFFFFFFFFF\t\t\t= false;\\n    }\\n\\n    // \n      AND \t\t\t= false;\\n    }\\n\\n    // \n      PUSH [tag] 514\t\t\t= false\n      PUSH [tag] 160\t\t\t= fal\n      JUMP \t\t\t= false\n    tag 514\t\t\t= false\n      JUMPDEST \t\t\t= false\n      PUSH FFFFFFFFFFFFFFFFFFFFFFFFFFFFFFFFFFFFFFFF\t\t\t= false;\\n    }\\n\\n    // \n      AND \t\t\t= false;\\n    }\\n\\n    // \n      EQ \t\t\t= false;\\n    }\\n\\n    // \n      PUSH [tag] 515\t\t\tive = false;\\n    }\\n\\n    // ...\n      JUMPI \t\t\tive = false;\\n    }\\n\\n    // ...\n      PUSH [tag] 516\t\t\t  function s\n      PUSH [tag] 241\t\t\t  function\n      JUMP \t\t\t  function s\n    tag 516\t\t\t  function s\n      JUMPDEST \t\t\t  function s\n      PUSH 40\t\t\taters (only owner) -----\\n    ...\n      MLOAD \t\t\taters (only owner) -----\\n    ...\n      PUSH 118CDAA700000000000000000000000000000000000000000000000000000000\t\t\taters (only owner) -----\\n    ...\n      DUP2 \t\t\taters (only owner) -----\\n    ...\n      MSTORE \t\t\taters (only owner) -----\\n    ...\n      PUSH 4\t\t\taters (only owner) -----\\n    ...\n      ADD \t\t\taters (only owner) -----\\n    ...\n      PUSH [tag] 517\t\t\taters (only owner) -----\\n    ...\n      SWAP2 \t\t\taters (only owner) -----\\n    ...\n      SWAP1 \t\t\taters (only owner) -----\\n    ...\n      PUSH [tag] 162\t\t\taters (only owner) -----\\n    ...\n      JUMP \t\t\taters (only owner) -----\\n    ...\n    tag 517\t\t\taters (only owner) -----\\n    ...\n      JUMPDEST \t\t\taters (only owner) -----\\n    ...\n      PUSH 40\t\t\taters (only owner) -----\\n    ...\n      MLOAD \t\t\taters (only owner) -----\\n    ...\n      DUP1 \t\t\taters (only owner) -----\\n    ...\n      SWAP2 \t\t\taters (only owner) -----\\n    ...\n      SUB \t\t\taters (only owner) -----\\n    ...\n      SWAP1 \t\t\taters (only owner) -----\\n    ...\n      REVERT \t\t\taters (only owner) -----\\n    ...\n    tag 515\t\t\tive = false;\\n    }\\n\\n    // ...\n      JUMPDEST \t\t\tive = false;\\n    }\\n\\n    // ...\n      JUMP \t\t\txternal reinitializer(2) {\\n  ...\n    tag 348\t\t\t    }\\n\\n    function setSymbo...\n      JUMPDEST \t\t\t    }\\n\\n    function setSymbo...\n      PUSH 0\t\t\t    string memory old = _symb\n      PUSH [tag] 519\t\t\t\\n        _symbol = newSym\n      PUSH [tag] 410\t\t\t\\n        _symbol = newS\n      JUMP \t\t\t\\n        _symbol = newSym\n    tag 519\t\t\t\\n        _symbol = newSym\n      JUMPDEST \t\t\t\\n        _symbol = newSym\n      SWAP1 \t\t\t    string memory old = _symbo...\n      POP \t\t\t    string memory old = _symbo...\n      DUP1 \t\t\t \n      PUSH 0\t\t\t SymbolChanged(\n      ADD \t\t\t SymbolChanged(\n      PUSH 0\t\t\t SymbolChanged(\n      PUSH 100\t\t\t   emit SymbolChanged(\n      EXP \t\t\t   emit SymbolChanged(\n      DUP2 \t\t\t   emit SymbolChanged(\n      SLOAD \t\t\t   emit SymbolChanged(\n      SWAP1 \t\t\t   emit SymbolChanged(\n      PUSH FFFFFFFFFFFFFFFFFFFFFFFFFFFFFFFFFFFFFFFF\t\t\t   emit SymbolChanged(\n      MUL \t\t\t   emit SymbolChanged(\n      NOT \t\t\t   emit SymbolChanged(\n      AND \t\t\t   emit SymbolChanged(\n      SWAP1 \t\t\t   emit SymbolChanged(\n      SSTORE \t\t\t   emit SymbolChanged(\n      PUSH [tag] 520\t\t\tmbol);\\n    }\\n\\n    function ...\n      DUP3 \t\t\tn name()\n      PUSH [tag] 521\t\t\tmbol);\\n    }\\n\\n    functi\n      JUMP \t\t\tmbol);\\n    }\\n\\n    function ...\n    tag 520\t\t\tmbol);\\n    }\\n\\n    function ...\n      JUMPDEST \t\t\tmbol);\\n    }\\n\\n    function ...\n      POP \t\t\tner {\\n        string memory o...\n      POP \t\t\t    }\\n\\n    function setSymbo...\n      JUMP \t\t\t    }\\n\\n    function setSymbo...\n    tag 359\t\t\tpublic view virtual override r...\n      JUMPDEST \t\t\tpublic view virtual override r...\n      PUSH [tag] 523\t\t\ticit initial owner \n      PUSH [tag] 524\t\t\ticit initial owne\n      JUMP \t\t\ticit initial owner \n    tag 523\t\t\ticit initial owner \n      JUMPDEST \t\t\ticit initial owner \n      PUSH 0\t\t\t    return _name;\\n    }\\n\\n\n      PUSH [tag] 526\t\t\t function symbol() pu\n      PUSH [tag] 327\t\t\t function symbol() \n      JUMP \t\t\t function symbol() pu\n    tag 526\t\t\t function symbol() pu\n      JUMPDEST \t\t\t function symbol() pu\n      SWAP1 \t\t\t    return _name;\\n    }\\n\\n  ...\n      POP \t\t\t    return _name;\\n    }\\n\\n  ...\n      PUSH 1\t\t\tride\n      DUP2 \t\t\tv\n      PUSH 0\t\t\tvirtual o\n      ADD \t\t\tvirtual o\n      PUSH 0\t\t\tvirtual o\n      PUSH 100\t\t\tvirtual override\n      EXP \t\t\tvirtual override\n      DUP2 \t\t\tvirtual override\n      SLOAD \t\t\tvirtual override\n      DUP2 \t\t\tvirtual override\n      PUSH FF\t\t\tvirtual override\n      MUL \t\t\tvirtual override\n      NOT \t\t\tvirtual override\n      AND \t\t\tvirtual override\n      SWAP1 \t\t\tvirtual override\n      DUP4 \t\t\tvirtual override\n      ISZERO \t\t\tvirtual override\n      ISZERO \t\t\tvirtual override\n      MUL \t\t\tvirtual override\n      OR \t\t\tvirtual override\n      SWAP1 \t\t\tvirtual override\n      SSTORE \t\t\tvirtual override\n      POP \t\t\tvirtual override\n      PUSH 62E78CEA01BEE320CD4E420270B5EA74000D11B0C9F74754EBDBFC544B05A258\t\t\tg memory) {\\n        \n      PUSH [tag] 527\t\t\ty) {\\n       \n      PUSH [tag] 241\t\t\ty) {\\n     \n      JUMP \t\t\ty) {\\n       \n    tag 527\t\t\ty) {\\n       \n      JUMPDEST \t\t\ty) {\\n       \n      PUSH 40\t\t\tg memory) {\\n        \n      MLOAD \t\t\tg memory) {\\n        \n      PUSH [tag] 528\t\t\tg memory) {\\n        \n      SWAP2 \t\t\tg memory) {\\n        \n      SWAP1 \t\t\tg memory) {\\n        \n      PUSH [tag] 162\t\t\tg memory) {\\n        \n      JUMP \t\t\tg memory) {\\n        \n    tag 528\t\t\tg memory) {\\n        \n      JUMPDEST \t\t\tg memory) {\\n        \n      PUSH 40\t\t\tg memory) {\\n        \n      MLOAD \t\t\tg memory) {\\n        \n      DUP1 \t\t\tg memory) {\\n        \n      SWAP2 \t\t\tg memory) {\\n        \n      SUB \t\t\tg memory) {\\n        \n      SWAP1 \t\t\tg memory) {\\n        \n      LOG1 \t\t\tg memory) {\\n        \n      POP \t\t\try) {\\n        return _name;\\n...\n      JUMP \t\t\tpublic view virtual override r...\n    tag 362\t\t\tGE: Must be appended after exi...\n      JUMPDEST \t\t\tGE: Must be appended after exi...\n      PUSH 0\t\t\tnt collision\\n    bool pu\n      PUSH 9016D09D72D40FDAE2FD8CEAC6B6234C7706214FD39C1CD1E609A0528C199300\t\t\t    event WalletFrozen\n      SWAP1 \t\t\t// Events\\n    event WalletFro...\n      POP \t\t\t// Events\\n    event WalletFro...\n      SWAP1 \t\t\tGE: Must be appended after exi...\n      JUMP \t\t\tGE: Must be appended after exi...\n    tag 410\t\t\t(string oldSymbol, string newS...\n      JUMPDEST \t\t\t(string oldSymbol, string newS...\n      PUSH 0\t\t\ttrictionUpdated(bool active);\n      PUSH 237E158222E3E6968B72B9DB0D8043AACF074AD9F650F0D1606B4D82EE432C00\t\t\tnstructor\\n    constructor()\n      SWAP1 \t\t\te-allow constructor\\n    const...\n      POP \t\t\te-allow constructor\\n    const...\n      SWAP1 \t\t\t(string oldSymbol, string newS...\n      JUMP \t\t\t(string oldSymbol, string newS...\n    tag 420\t\t\t\n      JUMPDEST \t\t\t\n      PUSH 0\t\t\t\n      PUSH [tag] 532\t\t\t\n      PUSH [tag] 246\t\t\t\n      JUMP \t\t\t\n    tag 532\t\t\t\n      JUMPDEST \t\t\t\n      SWAP1 \t\t\t\n      POP \t\t\t\n      PUSH 0\t\t\t\n      PUSH FFFFFFFFFFFFFFFFFFFFFFFFFFFFFFFFFFFFFFFF\t\t\t\n      AND \t\t\t\n      DUP6 \t\t\t\n      PUSH FFFFFFFFFFFFFFFFFFFFFFFFFFFFFFFFFFFFFFFF\t\t\t\n      AND \t\t\t\n      SUB \t\t\t\n      PUSH [tag] 533\t\t\t\n      JUMPI \t\t\t\n      PUSH 0\t\t\t\n      PUSH 40\t\t\t\n      MLOAD \t\t\t\n      PUSH E602DF0500000000000000000000000000000000000000000000000000000000\t\t\t\n      DUP2 \t\t\t\n      MSTORE \t\t\t\n      PUSH 4\t\t\t\n      ADD \t\t\t\n      PUSH [tag] 534\t\t\t\n      SWAP2 \t\t\t\n      SWAP1 \t\t\t\n      PUSH [tag] 162\t\t\t\n      JUMP \t\t\t\n    tag 534\t\t\t\n      JUMPDEST \t\t\t\n      PUSH 40\t\t\t\n      MLOAD \t\t\t\n      DUP1 \t\t\t\n      SWAP2 \t\t\t\n      SUB \t\t\t\n      SWAP1 \t\t\t\n      REVERT \t\t\t\n    tag 533\t\t\t\n      JUMPDEST \t\t\t\n      PUSH 0\t\t\t\n      PUSH FFFFFFFFFFFFFFFFFFFFFFFFFFFFFFFFFFFFFFFF\t\t\t\n      AND \t\t\t\n      DUP5 \t\t\t\n      PUSH FFFFFFFFFFFFFFFFFFFFFFFFFFFFFFFFFFFFFFFF\t\t\t\n      AND \t\t\t\n      SUB \t\t\t\n      PUSH [tag] 535\t\t\t\n      JUMPI \t\t\t\n      PUSH 0\t\t\t\n      PUSH 40\t\t\t\n      MLOAD \t\t\t\n      PUSH 94280D6200000000000000000000000000000000000000000000000000000000\t\t\t\n      DUP2 \t\t\t\n      MSTORE \t\t\t\n      PUSH 4\t\t\t\n      ADD \t\t\t\n      PUSH [tag] 536\t\t\t\n      SWAP2 \t\t\t\n      SWAP1 \t\t\t\n      PUSH [tag] 162\t\t\t\n      JUMP \t\t\t\n    tag 536\t\t\t\n      JUMPDEST \t\t\t\n      PUSH 40\t\t\t\n      MLOAD \t\t\t\n      DUP1 \t\t\t\n      SWAP2 \t\t\t\n      SUB \t\t\t\n      SWAP1 \t\t\t\n      REVERT \t\t\t\n    tag 535\t\t\t\n      JUMPDEST \t\t\t\n      DUP3 \t\t\t\n      DUP2 \t\t\t\n      PUSH 1\t\t\t\n      ADD \t\t\t\n      PUSH 0\t\t\t\n      DUP8 \t\t\t\n      PUSH FFFFFFFFFFFFFFFFFFFFFFFFFFFFFFFFFFFFFFFF\t\t\t\n      AND \t\t\t\n      PUSH FFFFFFFFFFFFFFFFFFFFFFFFFFFFFFFFFFFFFFFF\t\t\t\n      AND \t\t\t\n      DUP2 \t\t\t\n      MSTORE \t\t\t\n      PUSH 20\t\t\t\n      ADD \t\t\t\n      SWAP1 \t\t\t\n      DUP2 \t\t\t\n      MSTORE \t\t\t\n      PUSH 20\t\t\t\n      ADD \t\t\t\n      PUSH 0\t\t\t\n      KECCAK256 \t\t\t\n      PUSH 0\t\t\t\n      DUP7 \t\t\t\n      PUSH FFFFFFFFFFFFFFFFFFFFFFFFFFFFFFFFFFFFFFFF\t\t\t\n      AND \t\t\t\n      PUSH FFFFFFFFFFFFFFFFFFFFFFFFFFFFFFFFFFFFFFFF\t\t\t\n      AND \t\t\t\n      DUP2 \t\t\t\n      MSTORE \t\t\t\n      PUSH 20\t\t\t\n      ADD \t\t\t\n      SWAP1 \t\t\t\n      DUP2 \t\t\t\n      MSTORE \t\t\t\n      PUSH 20\t\t\t\n      ADD \t\t\t\n      PUSH 0\t\t\t\n      KECCAK256 \t\t\t\n      DUP2 \t\t\t\n      SWAP1 \t\t\t\n      SSTORE \t\t\t\n      POP \t\t\t\n      DUP2 \t\t\t\n      ISZERO \t\t\t\n      PUSH [tag] 537\t\t\t\n      JUMPI \t\t\t\n      DUP4 \t\t\t\n      PUSH FFFFFFFFFFFFFFFFFFFFFFFFFFFFFFFFFFFFFFFF\t\t\t\n      AND \t\t\t\n      DUP6 \t\t\t\n      PUSH FFFFFFFFFFFFFFFFFFFFFFFFFFFFFFFFFFFFFFFF\t\t\t\n      AND \t\t\t\n      PUSH 8C5BE1E5EBEC7D5BD14F71427D1E84F3DD0314C0F7B2291E5B200AC8C7C3B925\t\t\t\n      DUP6 \t\t\t\n      PUSH 40\t\t\t\n      MLOAD \t\t\t\n      PUSH [tag] 538\t\t\t\n      SWAP2 \t\t\t\n      SWAP1 \t\t\t\n      PUSH [tag] 76\t\t\t\n      JUMP \t\t\t\n    tag 538\t\t\t\n      JUMPDEST \t\t\t\n      PUSH 40\t\t\t\n      MLOAD \t\t\t\n      DUP1 \t\t\t\n      SWAP2 \t\t\t\n      SUB \t\t\t\n      SWAP1 \t\t\t\n      LOG3 \t\t\t\n    tag 537\t\t\t\n      JUMPDEST \t\t\t\n      POP \t\t\t\n      POP \t\t\t\n      POP \t\t\t\n      POP \t\t\t\n      POP \t\t\t\n      JUMP \t\t\t\n    tag 435\t\t\tnction _update(address from, a...\n      JUMPDEST \t\t\tnction _update(address from, a...\n      PUSH 2\t\t\trozenWallets[f\n      PUSH 0\t\t\trozenWallets[from] &\n      DUP5 \t\t\tom] \n      PUSH FFFFFFFFFFFFFFFFFFFFFFFFFFFFFFFFFFFFFFFF\t\t\trozenWallets[from] &\n      AND \t\t\trozenWallets[from] &\n      PUSH FFFFFFFFFFFFFFFFFFFFFFFFFFFFFFFFFFFFFFFF\t\t\trozenWallets[from] &\n      AND \t\t\trozenWallets[from] &\n      DUP2 \t\t\trozenWallets[from] &\n      MSTORE \t\t\trozenWallets[from] &\n      PUSH 20\t\t\trozenWallets[from] &\n      ADD \t\t\trozenWallets[from] &\n      SWAP1 \t\t\trozenWallets[from] &\n      DUP2 \t\t\trozenWallets[from] &\n      MSTORE \t\t\trozenWallets[from] &\n      PUSH 20\t\t\trozenWallets[from] &\n      ADD \t\t\trozenWallets[from] &\n      PUSH 0\t\t\trozenWallets[from] &\n      KECCAK256 \t\t\trozenWallets[from] &\n      PUSH 0\t\t\trozenWallets[from] &\n      SWAP1 \t\t\trozenWallets[from] &\n      SLOAD \t\t\trozenWallets[from] &\n      SWAP1 \t\t\trozenWallets[from] &\n      PUSH 100\t\t\trozenWallets[from] &\n      EXP \t\t\trozenWallets[from] &\n      SWAP1 \t\t\trozenWallets[from] &\n      DIV \t\t\trozenWallets[from] &\n      PUSH FF\t\t\trozenWallets[from] &\n      AND \t\t\trozenWallets[from] &\n      ISZERO \t\t\tfrozenWallets[from] &\n      DUP1 \t\t\tfrozenWallets[from] && !_froze...\n      ISZERO \t\t\tfrozenWallets[from] && !_froze...\n      PUSH [tag] 540\t\t\tfrozenWallets[from] && !_froze...\n      JUMPI \t\t\tfrozenWallets[from] && !_froze...\n      POP \t\t\tfrozenWallets[from] && !_froze...\n      PUSH 2\t\t\trozenWallets[t\n      PUSH 0\t\t\trozenWallets[to], \n      DUP4 \t\t\t],\n      PUSH FFFFFFFFFFFFFFFFFFFFFFFFFFFFFFFFFFFFFFFF\t\t\trozenWallets[to], \n      AND \t\t\trozenWallets[to], \n      PUSH FFFFFFFFFFFFFFFFFFFFFFFFFFFFFFFFFFFFFFFF\t\t\trozenWallets[to], \n      AND \t\t\trozenWallets[to], \n      DUP2 \t\t\trozenWallets[to], \n      MSTORE \t\t\trozenWallets[to], \n      PUSH 20\t\t\trozenWallets[to], \n      ADD \t\t\trozenWallets[to], \n      SWAP1 \t\t\trozenWallets[to], \n      DUP2 \t\t\trozenWallets[to], \n      MSTORE \t\t\trozenWallets[to], \n      PUSH 20\t\t\trozenWallets[to], \n      ADD \t\t\trozenWallets[to], \n      PUSH 0\t\t\trozenWallets[to], \n      KECCAK256 \t\t\trozenWallets[to], \n      PUSH 0\t\t\trozenWallets[to], \n      SWAP1 \t\t\trozenWallets[to], \n      SLOAD \t\t\trozenWallets[to], \n      SWAP1 \t\t\trozenWallets[to], \n      PUSH 100\t\t\trozenWallets[to], \n      EXP \t\t\trozenWallets[to], \n      SWAP1 \t\t\trozenWallets[to], \n      DIV \t\t\trozenWallets[to], \n      PUSH FF\t\t\trozenWallets[to], \n      AND \t\t\trozenWallets[to], \n      ISZERO \t\t\tfrozenWallets[to], \n    tag 540\t\t\tfrozenWallets[from] && !_froze...\n      JUMPDEST \t\t\tfrozenWallets[from] && !_froze...\n      PUSH [tag] 541\t\t\tquire(!_frozenWallets[from] &&...\n      JUMPI \t\t\tquire(!_frozenWallets[from] &&...\n      PUSH 40\t\t\tquire(!_frozenWallets[from] &&...\n      MLOAD \t\t\tquire(!_frozenWallets[from] &&...\n      PUSH 8C379A000000000000000000000000000000000000000000000000000000000\t\t\tquire(!_frozenWallets[from] &&...\n      DUP2 \t\t\tquire(!_frozenWallets[from] &&...\n      MSTORE \t\t\tquire(!_frozenWallets[from] &&...\n      PUSH 4\t\t\tquire(!_frozenWallets[from] &&...\n      ADD \t\t\tquire(!_frozenWallets[from] &&...\n      PUSH [tag] 542\t\t\tquire(!_frozenWallets[from] &&...\n      SWAP1 \t\t\tquire(!_frozenWallets[from] &&...\n      PUSH [tag] 543\t\t\tquire(!_frozenWallets[from] &&...\n      JUMP \t\t\tquire(!_frozenWallets[from] &&...\n    tag 542\t\t\tquire(!_frozenWallets[from] &&...\n      JUMPDEST \t\t\tquire(!_frozenWallets[from] &&...\n      PUSH 40\t\t\tquire(!_frozenWallets[from] &&...\n      MLOAD \t\t\tquire(!_frozenWallets[from] &&...\n      DUP1 \t\t\tquire(!_frozenWallets[from] &&...\n      SWAP2 \t\t\tquire(!_frozenWallets[from] &&...\n      SUB \t\t\tquire(!_frozenWallets[from] &&...\n      SWAP1 \t\t\tquire(!_frozenWallets[from] &&...\n      REVERT \t\t\tquire(!_frozenWallets[from] &&...\n    tag 541\t\t\tquire(!_frozenWallets[from] &&...\n      JUMPDEST \t\t\tquire(!_frozenWallets[from] &&...\n      PUSH 3\t\t\terRestrictionActive && \n      PUSH 0\t\t\terRestrictionActive && \n      SWAP1 \t\t\terRestrictionActive && \n      SLOAD \t\t\terRestrictionActive && \n      SWAP1 \t\t\terRestrictionActive && \n      PUSH 100\t\t\terRestrictionActive && \n      EXP \t\t\terRestrictionActive && \n      SWAP1 \t\t\terRestrictionActive && \n      DIV \t\t\terRestrictionActive && \n      PUSH FF\t\t\terRestrictionActive && \n      AND \t\t\terRestrictionActive && \n      DUP1 \t\t\terRestrictionActive && from !=...\n      ISZERO \t\t\terRestrictionActive && from !=...\n      PUSH [tag] 544\t\t\terRestrictionActive && from !=...\n      JUMPI \t\t\terRestrictionActive && from !=...\n      POP \t\t\terRestrictionActive && from !=...\n      PUSH 0\t\t\t&\n      PUSH FFFFFFFFFFFFFFFFFFFFFFFFFFFFFFFFFFFFFFFF\t\t\t != address(0) && \n      AND \t\t\t != address(0) && \n      DUP4 \t\t\t != \n      PUSH FFFFFFFFFFFFFFFFFFFFFFFFFFFFFFFFFFFFFFFF\t\t\t != address(0) && \n      AND \t\t\t != address(0) && \n      EQ \t\t\t != address(0) && \n      ISZERO \t\t\t != address(0) && \n    tag 544\t\t\terRestrictionActive && from !=...\n      JUMPDEST \t\t\terRestrictionActive && from !=...\n      DUP1 \t\t\terRestrictionActive && from !=...\n      ISZERO \t\t\terRestrictionActive && from !=...\n      PUSH [tag] 545\t\t\terRestrictionActive && from !=...\n      JUMPI \t\t\terRestrictionActive && from !=...\n      POP \t\t\terRestrictionActive && from !=...\n      PUSH 0\t\t\t{\n      PUSH FFFFFFFFFFFFFFFFFFFFFFFFFFFFFFFFFFFFFFFF\t\t\t= address(0)) {\\n\n      AND \t\t\t= address(0)) {\\n\n      DUP3 \t\t\t= \n      PUSH FFFFFFFFFFFFFFFFFFFFFFFFFFFFFFFFFFFFFFFF\t\t\t= address(0)) {\\n\n      AND \t\t\t= address(0)) {\\n\n      EQ \t\t\t= address(0)) {\\n\n      ISZERO \t\t\t= address(0)) {\\n\n    tag 545\t\t\terRestrictionActive && from !=...\n      JUMPDEST \t\t\terRestrictionActive && from !=...\n      ISZERO \t\t\ttraderRestrictionActive && fro...\n      PUSH [tag] 546\t\t\ttraderRestrictionActive && fro...\n      JUMPI \t\t\ttraderRestrictionActive && fro...\n      PUSH [tag] 547\t\t\tole(TRADER_ROLE, from), \"S\n      PUSH FACAF2747A7486CF5730E9265973FB54447D3ACE6E7E4711F6360826B0731941\t\t\tkeccak256(\"TRADER_ROLE\")\n      DUP5 \t\t\t), \"\n      PUSH [tag] 166\t\t\tole(TRA\n      JUMP \t\t\tole(TRADER_ROLE, from), \"S\n    tag 547\t\t\tole(TRADER_ROLE, from), \"S\n      JUMPDEST \t\t\tole(TRADER_ROLE, from), \"S\n      PUSH [tag] 548\t\t\tire(hasRole(TRADER_ROLE, from)...\n      JUMPI \t\t\tire(hasRole(TRADER_ROLE, from)...\n      PUSH 40\t\t\tire(hasRole(TRADER_ROLE, from)...\n      MLOAD \t\t\tire(hasRole(TRADER_ROLE, from)...\n      PUSH 8C379A000000000000000000000000000000000000000000000000000000000\t\t\tire(hasRole(TRADER_ROLE, from)...\n      DUP2 \t\t\tire(hasRole(TRADER_ROLE, from)...\n      MSTORE \t\t\tire(hasRole(TRADER_ROLE, from)...\n      PUSH 4\t\t\tire(hasRole(TRADER_ROLE, from)...\n      ADD \t\t\tire(hasRole(TRADER_ROLE, from)...\n      PUSH [tag] 549\t\t\tire(hasRole(TRADER_ROLE, from)...\n      SWAP1 \t\t\tire(hasRole(TRADER_ROLE, from)...\n      PUSH [tag] 550\t\t\tire(hasRole(TRADER_ROLE, from)...\n      JUMP \t\t\tire(hasRole(TRADER_ROLE, from)...\n    tag 549\t\t\tire(hasRole(TRADER_ROLE, from)...\n      JUMPDEST \t\t\tire(hasRole(TRADER_ROLE, from)...\n      PUSH 40\t\t\tire(hasRole(TRADER_ROLE, from)...\n      MLOAD \t\t\tire(hasRole(TRADER_ROLE, from)...\n      DUP1 \t\t\tire(hasRole(TRADER_ROLE, from)...\n      SWAP2 \t\t\tire(hasRole(TRADER_ROLE, from)...\n      SUB \t\t\tire(hasRole(TRADER_ROLE, from)...\n      SWAP1 \t\t\tire(hasRole(TRADER_ROLE, from)...\n      REVERT \t\t\tire(hasRole(TRADER_ROLE, from)...\n    tag 548\t\t\tire(hasRole(TRADER_ROLE, from)...\n      JUMPDEST \t\t\tire(hasRole(TRADER_ROLE, from)...\n      PUSH [tag] 551\t\t\tole(TRADER_ROLE, to)) {\\n\n      PUSH FACAF2747A7486CF5730E9265973FB54447D3ACE6E7E4711F6360826B0731941\t\t\tkeccak256(\"TRADER_ROLE\")\n      DUP4 \t\t\t {\n      PUSH [tag] 166\t\t\tole(TRA\n      JUMP \t\t\tole(TRADER_ROLE, to)) {\\n\n    tag 551\t\t\tole(TRADER_ROLE, to)) {\\n\n      JUMPDEST \t\t\tole(TRADER_ROLE, to)) {\\n\n      PUSH [tag] 552\t\t\t!hasRole(TRADER_ROLE, to)) {\\n...\n      JUMPI \t\t\t!hasRole(TRADER_ROLE, to)) {\\n...\n      PUSH 0\t\t\tR\n      PUSH [tag] 553\t\t\tnceOf(to) == \n      DUP4 \t\t\t==\n      PUSH [tag] 147\t\t\tnceOf(to)\n      JUMP \t\t\tnceOf(to) == \n    tag 553\t\t\tnceOf(to) == \n      JUMPDEST \t\t\tnceOf(to) == \n      EQ \t\t\tnceOf(to) == 0, \"R\n      PUSH [tag] 554\t\t\tire(balanceOf(to) == 0, \"Recei...\n      JUMPI \t\t\tire(balanceOf(to) == 0, \"Recei...\n      PUSH 40\t\t\tire(balanceOf(to) == 0, \"Recei...\n      MLOAD \t\t\tire(balanceOf(to) == 0, \"Recei...\n      PUSH 8C379A000000000000000000000000000000000000000000000000000000000\t\t\tire(balanceOf(to) == 0, \"Recei...\n      DUP2 \t\t\tire(balanceOf(to) == 0, \"Recei...\n      MSTORE \t\t\tire(balanceOf(to) == 0, \"Recei...\n      PUSH 4\t\t\tire(balanceOf(to) == 0, \"Recei...\n      ADD \t\t\tire(balanceOf(to) == 0, \"Recei...\n      PUSH [tag] 555\t\t\tire(balanceOf(to) == 0, \"Recei...\n      SWAP1 \t\t\tire(balanceOf(to) == 0, \"Recei...\n      PUSH [tag] 556\t\t\tire(balanceOf(to) == 0, \"Recei...\n      JUMP \t\t\tire(balanceOf(to) == 0, \"Recei...\n    tag 555\t\t\tire(balanceOf(to) == 0, \"Recei...\n      JUMPDEST \t\t\tire(balanceOf(to) == 0, \"Recei...\n      PUSH 40\t\t\tire(balanceOf(to) == 0, \"Recei...\n      MLOAD \t\t\tire(balanceOf(to) == 0, \"Recei...\n      DUP1 \t\t\tire(balanceOf(to) == 0, \"Recei...\n      SWAP2 \t\t\tire(balanceOf(to) == 0, \"Recei...\n      SUB \t\t\tire(balanceOf(to) == 0, \"Recei...\n      SWAP1 \t\t\tire(balanceOf(to) == 0, \"Recei...\n      REVERT \t\t\tire(balanceOf(to) == 0, \"Recei...\n    tag 554\t\t\tire(balanceOf(to) == 0, \"Recei...\n      JUMPDEST \t\t\tire(balanceOf(to) == 0, \"Recei...\n    tag 552\t\t\t!hasRole(TRADER_ROLE, to)) {\\n...\n      JUMPDEST \t\t\t!hasRole(TRADER_ROLE, to)) {\\n...\n    tag 546\t\t\ttraderRestrictionActive && fro...\n      JUMPDEST \t\t\ttraderRestrictionActive && fro...\n      PUSH [tag] 557\t\t\tr._update(from, to, value);\\n ...\n      DUP4 \t\t\t, to\n      DUP4 \t\t\tva\n      DUP4 \t\t\te);\\n \n      PUSH [tag] 558\t\t\tr._update(fro\n      JUMP \t\t\tr._update(from, to, value);\\n ...\n    tag 557\t\t\tr._update(from, to, value);\\n ...\n      JUMPDEST \t\t\tr._update(from, to, value);\\n ...\n      POP \t\t\tnction _update(address from, a...\n      POP \t\t\tnction _update(address from, a...\n      POP \t\t\tnction _update(address from, a...\n      JUMP \t\t\tnction _update(address from, a...\n    tag 440\t\t\tictionUpdated(active);\\n    }\\...\n      JUMPDEST \t\t\tictionUpdated(active);\\n    }\\...\n      PUSH [tag] 560\t\t\t(address from, address\n      DUP3 \t\t\t fro\n      DUP3 \t\t\t addres\n      PUSH [tag] 166\t\t\t(addres\n      JUMP \t\t\t(address from, address\n    tag 560\t\t\t(address from, address\n      JUMPDEST \t\t\t(address from, address\n      PUSH [tag] 561\t\t\tpdate(address from, address to...\n      JUMPI \t\t\tpdate(address from, address to...\n      DUP1 \t\t\tC20Upgr\n      DUP3 \t\t\teabl\n      PUSH 40\t\t\t     internal\\n        overrid...\n      MLOAD \t\t\t     internal\\n        overrid...\n      PUSH E2517D3F00000000000000000000000000000000000000000000000000000000\t\t\t     internal\\n        overrid...\n      DUP2 \t\t\t     internal\\n        overrid...\n      MSTORE \t\t\t     internal\\n        overrid...\n      PUSH 4\t\t\t     internal\\n        overrid...\n      ADD \t\t\t     internal\\n        overrid...\n      PUSH [tag] 562\t\t\t     internal\\n        overrid...\n      SWAP3 \t\t\t     internal\\n        overrid...\n      SWAP2 \t\t\t     internal\\n        overrid...\n      SWAP1 \t\t\t     internal\\n        overrid...\n      PUSH [tag] 563\t\t\t     internal\\n        overrid...\n      JUMP \t\t\t     internal\\n        overrid...\n    tag 562\t\t\t     internal\\n        overrid...\n      JUMPDEST \t\t\t     internal\\n        overrid...\n      PUSH 40\t\t\t     internal\\n        overrid...\n      MLOAD \t\t\t     internal\\n        overrid...\n      DUP1 \t\t\t     internal\\n        overrid...\n      SWAP2 \t\t\t     internal\\n        overrid...\n      SUB \t\t\t     internal\\n        overrid...\n      SWAP1 \t\t\t     internal\\n        overrid...\n      REVERT \t\t\t     internal\\n        overrid...\n    tag 561\t\t\tpdate(address from, address to...\n      JUMPDEST \t\t\tpdate(address from, address to...\n      POP \t\t\tictionUpdated(active);\\n    }\\...\n      POP \t\t\tictionUpdated(active);\\n    }\\...\n      JUMP \t\t\tictionUpdated(active);\\n    }\\...\n    tag 455\t\t\tName;\\n        emit NameChange...\n      JUMPDEST \t\t\tName;\\n        emit NameChange...\n      PUSH [tag] 565\t\t\ton setSy\n      PUSH [tag] 134\t\t\ton set\n      JUMP \t\t\ton setSy\n    tag 565\t\t\ton setSy\n      JUMPDEST \t\t\ton setSy\n      PUSH [tag] 566\t\t\tunction setSymbol(string calld...\n      JUMPI \t\t\tunction setSymbol(string calld...\n      PUSH 40\t\t\twSymbol) extern\n      MLOAD \t\t\twSymbol) extern\n      PUSH 8DFC202B00000000000000000000000000000000000000000000000000000000\t\t\twSymbol) extern\n      DUP2 \t\t\twSymbol) extern\n      MSTORE \t\t\twSymbol) extern\n      PUSH 4\t\t\twSymbol) extern\n      ADD \t\t\twSymbol) extern\n      PUSH 40\t\t\twSymbol) extern\n      MLOAD \t\t\twSymbol) extern\n      DUP1 \t\t\twSymbol) extern\n      SWAP2 \t\t\twSymbol) extern\n      SUB \t\t\twSymbol) extern\n      SWAP1 \t\t\twSymbol) extern\n      REVERT \t\t\twSymbol) extern\n    tag 566\t\t\tunction setSymbol(string calld...\n      JUMPDEST \t\t\tunction setSymbol(string calld...\n      JUMP \t\t\tName;\\n        emit NameChange...\n    tag 466\t\t\t\n      JUMPDEST \t\t\t\n      PUSH 0\t\t\t\n      PUSH F0C57E16840DF040F15088DC2F81FE391C3923BEC73E23A9662EFC9C229C6A00\t\t\told, newSymbol);\\n    }\\n\\n   ...\n      PUSH 0\t\t\t\n      SHL \t\t\t\n      SWAP1 \t\t\t\n      POP \t\t\t\n      SWAP1 \t\t\t\n      JUMP \t\t\t\n    tag 469\t\t\t\n      JUMPDEST \t\t\t\n      PUSH [tag] 569\t\t\t\n      PUSH [tag] 570\t\t\t\n      JUMP \t\t\t\n    tag 569\t\t\t\n      JUMPDEST \t\t\t\n      PUSH [tag] 571\t\t\t\n      JUMPI \t\t\t\n      PUSH 40\t\t\t\n      MLOAD \t\t\t\n      PUSH D7E6BCF800000000000000000000000000000000000000000000000000000000\t\t\t\n      DUP2 \t\t\t\n      MSTORE \t\t\t\n      PUSH 4\t\t\t\n      ADD \t\t\t\n      PUSH 40\t\t\t\n      MLOAD \t\t\t\n      DUP1 \t\t\t\n      SWAP2 \t\t\t\n      SUB \t\t\t\n      SWAP1 \t\t\t\n      REVERT \t\t\t\n    tag 571\t\t\t\n      JUMPDEST \t\t\t\n      JUMP \t\t\t\n    tag 472\t\t\tMIN_ROLE, msg.sender);\\n      ...\n      JUMPDEST \t\t\tMIN_ROLE, msg.sender);\\n      ...\n      PUSH [tag] 573\t\t\t\n      PUSH [tag] 469\t\t\t\n      JUMP \t\t\t\n    tag 573\t\t\t\n      JUMPDEST \t\t\t\n      PUSH 0\t\t\t;\\n        _grantRole(P\n      PUSH [tag] 575\t\t\tER_ROLE, msg.sende\n      PUSH [tag] 246\t\t\tER_ROLE, msg.sen\n      JUMP \t\t\tER_ROLE, msg.sende\n    tag 575\t\t\tER_ROLE, msg.sende\n      JUMPDEST \t\t\tER_ROLE, msg.sende\n      SWAP1 \t\t\t;\\n        _grantRole(PAUSER_R...\n      POP \t\t\t;\\n        _grantRole(PAUSER_R...\n      DUP3 \t\t\tW V2 \n      DUP2 \t\t\t\\n\n      PUSH 3\t\t\t\\n    //\n      ADD \t\t\t\\n    //\n      SWAP1 \t\t\t\\n    // NEW V2 \n      DUP2 \t\t\t\\n    // NEW V2 \n      PUSH [tag] 576\t\t\t\\n    // NEW V2 \n      SWAP2 \t\t\t\\n    // NEW V2 \n      SWAP1 \t\t\t\\n    // NEW V2 \n      PUSH [tag] 577\t\t\t\\n    // NEW V2 \n      JUMP \t\t\t\\n    // NEW V2 \n    tag 576\t\t\t\\n    // NEW V2 \n      JUMPDEST \t\t\t\\n    // NEW V2 \n      POP \t\t\t\\n    // NEW V2 \n      DUP2 \t\t\tlse ini\n      DUP2 \t\t\tR\n      PUSH 4\t\t\tR: Set to\n      ADD \t\t\tR: Set to\n      SWAP1 \t\t\tR: Set to false ini\n      DUP2 \t\t\tR: Set to false ini\n      PUSH [tag] 578\t\t\tR: Set to false ini\n      SWAP2 \t\t\tR: Set to false ini\n      SWAP1 \t\t\tR: Set to false ini\n      PUSH [tag] 577\t\t\tR: Set to false ini\n      JUMP \t\t\tR: Set to false ini\n    tag 578\t\t\tR: Set to false ini\n      JUMPDEST \t\t\tR: Set to false ini\n      POP \t\t\tR: Set to false ini\n      POP \t\t\tsg.sender);\\n        _grantRol...\n      POP \t\t\tMIN_ROLE, msg.sender);\\n      ...\n      POP \t\t\tMIN_ROLE, msg.sender);\\n      ...\n      JUMP \t\t\tMIN_ROLE, msg.sender);\\n      ...\n    tag 480\t\t\tcit initial owner argument,\\n ...\n      JUMPDEST \t\t\tcit initial owner argument,\\n ...\n      PUSH [tag] 580\t\t\t\n      PUSH [tag] 469\t\t\t\n      JUMP \t\t\t\n    tag 580\t\t\t\n      JUMPDEST \t\t\t\n      PUSH 0\t\t\tn\n      PUSH FFFFFFFFFFFFFFFFFFFFFFFFFFFFFFFFFFFFFFFF\t\t\tge to set).\\n        __Owna\n      AND \t\t\tge to set).\\n        __Owna\n      DUP2 \t\t\tge to set).\\n\n      PUSH FFFFFFFFFFFFFFFFFFFFFFFFFFFFFFFFFFFFFFFF\t\t\tge to set).\\n        __Owna\n      AND \t\t\tge to set).\\n        __Owna\n      SUB \t\t\tge to set).\\n        __Owna\n      PUSH [tag] 582\t\t\ttorage to set).\\n        __Own...\n      JUMPI \t\t\ttorage to set).\\n        __Own...\n      PUSH 0\t\t\t;\n      PUSH 40\t\t\t       __Ownable2Step_init();\\...\n      MLOAD \t\t\t       __Ownable2Step_init();\\...\n      PUSH 1E4FBDF700000000000000000000000000000000000000000000000000000000\t\t\t       __Ownable2Step_init();\\...\n      DUP2 \t\t\t       __Ownable2Step_init();\\...\n      MSTORE \t\t\t       __Ownable2Step_init();\\...\n      PUSH 4\t\t\t       __Ownable2Step_init();\\...\n      ADD \t\t\t       __Ownable2Step_init();\\...\n      PUSH [tag] 583\t\t\t       __Ownable2Step_init();\\...\n      SWAP2 \t\t\t       __Ownable2Step_init();\\...\n      SWAP1 \t\t\t       __Ownable2Step_init();\\...\n      PUSH [tag] 162\t\t\t       __Ownable2Step_init();\\...\n      JUMP \t\t\t       __Ownable2Step_init();\\...\n    tag 583\t\t\t       __Ownable2Step_init();\\...\n      JUMPDEST \t\t\t       __Ownable2Step_init();\\...\n      PUSH 40\t\t\t       __Ownable2Step_init();\\...\n      MLOAD \t\t\t       __Ownable2Step_init();\\...\n      DUP1 \t\t\t       __Ownable2Step_init();\\...\n      SWAP2 \t\t\t       __Ownable2Step_init();\\...\n      SUB \t\t\t       __Ownable2Step_init();\\...\n      SWAP1 \t\t\t       __Ownable2Step_init();\\...\n      REVERT \t\t\t       __Ownable2Step_init();\\...\n    tag 582\t\t\ttorage to set).\\n        __Own...\n      JUMPDEST \t\t\ttorage to set).\\n        __Own...\n      PUSH [tag] 584\t\t\trol_init();\\n\\n        // OZ v...\n      DUP2 \t\t\t  // OZ v5: \n      PUSH [tag] 348\t\t\trol_init();\\n\\n     \n      JUMP \t\t\trol_init();\\n\\n        // OZ v...\n    tag 584\t\t\trol_init();\\n\\n        // OZ v...\n      JUMPDEST \t\t\trol_init();\\n\\n        // OZ v...\n      POP \t\t\tcit initial owner argument,\\n ...\n      JUMP \t\t\tcit initial owner argument,\\n ...\n    tag 490\t\t\tnt Minted(address indexed to, ...\n      JUMPDEST \t\t\tnt Minted(address indexed to, ...\n      PUSH 0\t\t\tvent Na\n      PUSH [tag] 586\t\t\tdName, string newName);\\n    e...\n      PUSH 360894A13BA1A3210667C828492DB98DCA3E2076CC3735A920A3CA505D382BBC\t\t\tOLE\");\\n    bytes32 public con...\n      PUSH 0\t\t\t event SymbolChange\n      SHL \t\t\t event SymbolChange\n      PUSH [tag] 587\t\t\tdName, string newName);\\n  \n      JUMP \t\t\tdName, string newName);\\n    e...\n    tag 586\t\t\tdName, string newName);\\n    e...\n      JUMPDEST \t\t\tdName, string newName);\\n    e...\n      PUSH 0\t\t\tdName, string newName);\\n    e...\n      ADD \t\t\tdName, string newName);\\n    e...\n      PUSH 0\t\t\tdName, string newName);\\n    e...\n      SWAP1 \t\t\tdName, string newName);\\n    e...\n      SLOAD \t\t\tdName, string newName);\\n    e...\n      SWAP1 \t\t\tdName, string newName);\\n    e...\n      PUSH 100\t\t\tdName, string newName);\\n    e...\n      EXP \t\t\tdName, string newName);\\n    e...\n      SWAP1 \t\t\tdName, string newName);\\n    e...\n      DIV \t\t\tdName, string newName);\\n    e...\n      PUSH FFFFFFFFFFFFFFFFFFFFFFFFFFFFFFFFFFFFFFFF\t\t\tdName, string newName);\\n    e...\n      AND \t\t\tdName, string newName);\\n    e...\n      SWAP1 \t\t\tring oldName, string newName);...\n      POP \t\t\tring oldName, string newName);...\n      SWAP1 \t\t\tnt Minted(address indexed to, ...\n      JUMP \t\t\tnt Minted(address indexed to, ...\n    tag 508\t\t\tfunction anymore.\\n        // ...\n      JUMPDEST \t\t\tfunction anymore.\\n        // ...\n      PUSH [tag] 589\t\t\t       _name = name_;\\n       ...\n      DUP3 \t\t\t_;\\n        _symbo\n      PUSH [tag] 590\t\t\t       _name = nam\n      JUMP \t\t\t       _name = name_;\\n       ...\n    tag 589\t\t\t       _name = name_;\\n       ...\n      JUMPDEST \t\t\t       _name = name_;\\n       ...\n      DUP2 \t\t\tEFAULT_ADMIN_ROLE\n      PUSH FFFFFFFFFFFFFFFFFFFFFFFFFFFFFFFFFFFFFFFF\t\t\t      _grantRole(DEFAULT_ADMIN...\n      AND \t\t\t      _grantRole(DEFAULT_ADMIN...\n      PUSH BC7CD75A20EE27FD9ADEBAB32041F755214DBC6BFFA90CC0225B39DA2E5C2D3B\t\t\t      _grantRole(DEFAULT_ADMIN...\n      PUSH 40\t\t\t      _grantRole(DEFAULT_ADMIN...\n      MLOAD \t\t\t      _grantRole(DEFAULT_ADMIN...\n      PUSH 40\t\t\t      _grantRole(DEFAULT_ADMIN...\n      MLOAD \t\t\t      _grantRole(DEFAULT_ADMIN...\n      DUP1 \t\t\t      _grantRole(DEFAULT_ADMIN...\n      SWAP2 \t\t\t      _grantRole(DEFAULT_ADMIN...\n      SUB \t\t\t      _grantRole(DEFAULT_ADMIN...\n      SWAP1 \t\t\t      _grantRole(DEFAULT_ADMIN...\n      LOG2 \t\t\t      _grantRole(DEFAULT_ADMIN...\n      PUSH 0\t\t\to\n      DUP2 \t\t\t    \n      MLOAD \t\t\t       _gra\n      GT \t\t\t       _grantRo\n      ISZERO \t\t\t);\\n        _grantRole(MINTER_...\n      PUSH [tag] 591\t\t\t);\\n        _grantRole(MINTER_...\n      JUMPI \t\t\t);\\n        _grantRole(MINTER_...\n      PUSH [tag] 592\t\t\tmsg.sender);\\n        _grantRo...\n      DUP3 \t\t\tle(FREEZER_ROLE, \n      DUP3 \t\t\tg.se\n      PUSH [tag] 593\t\t\tmsg.sender);\\n        _grantR\n      JUMP \t\t\tmsg.sender);\\n        _grantRo...\n    tag 592\t\t\tmsg.sender);\\n        _grantRo...\n      JUMPDEST \t\t\tmsg.sender);\\n        _grantRo...\n      POP \t\t\tmsg.sender);\\n        _grantRo...\n      PUSH [tag] 594\t\t\t);\\n        _grantRole(MINTER_...\n      JUMP \t\t\t);\\n        _grantRole(MINTER_...\n    tag 591\t\t\t);\\n        _grantRole(MINTER_...\n      JUMPDEST \t\t\t);\\n        _grantRole(MINTER_...\n      PUSH [tag] 595\t\t\t_ROLE, msg.sender)\n      PUSH [tag] 596\t\t\t_ROLE, msg.sende\n      JUMP \t\t\t_ROLE, msg.sender)\n    tag 595\t\t\t_ROLE, msg.sender)\n      JUMPDEST \t\t\t_ROLE, msg.sender)\n    tag 594\t\t\t);\\n        _grantRole(MINTER_...\n      JUMPDEST \t\t\t);\\n        _grantRole(MINTER_...\n      POP \t\t\tfunction anymore.\\n        // ...\n      POP \t\t\tfunction anymore.\\n        // ...\n      JUMP \t\t\tfunction anymore.\\n        // ...\n    tag 521\t\t\t function unfreezeWallet(addre...\n      JUMPDEST \t\t\t function unfreezeWallet(addre...\n      PUSH 0\t\t\t {\\n        require(_froz\n      PUSH [tag] 598\t\t\tallets[account], \"No\n      PUSH [tag] 362\t\t\tallets[account], \"\n      JUMP \t\t\tallets[account], \"No\n    tag 598\t\t\tallets[account], \"No\n      JUMPDEST \t\t\tallets[account], \"No\n      SWAP1 \t\t\t {\\n        require(_frozenWal...\n      POP \t\t\t {\\n        require(_frozenWal...\n      PUSH 0\t\t\t;\\n        _froze\n      DUP2 \t\t\tl\n      PUSH 0\t\t\tllets[ac\n      ADD \t\t\tllets[ac\n      PUSH 0\t\t\tllets[ac\n      SWAP1 \t\t\tllets[ac\n      SLOAD \t\t\tllets[ac\n      SWAP1 \t\t\tllets[ac\n      PUSH 100\t\t\tllets[ac\n      EXP \t\t\tllets[ac\n      SWAP1 \t\t\tllets[ac\n      DIV \t\t\tllets[ac\n      PUSH FFFFFFFFFFFFFFFFFFFFFFFFFFFFFFFFFFFFFFFF\t\t\tllets[ac\n      AND \t\t\tllets[ac\n      SWAP1 \t\t\t;\\n        _frozenWallets[ac\n      POP \t\t\t;\\n        _frozenWallets[ac\n      DUP3 \t\t\t   emit \n      DUP3 \t\t\ta\n      PUSH 0\t\t\talse;\\n  \n      ADD \t\t\talse;\\n  \n      PUSH 0\t\t\talse;\\n  \n      PUSH 100\t\t\talse;\\n        emit \n      EXP \t\t\talse;\\n        emit \n      DUP2 \t\t\talse;\\n        emit \n      SLOAD \t\t\talse;\\n        emit \n      DUP2 \t\t\talse;\\n        emit \n      PUSH FFFFFFFFFFFFFFFFFFFFFFFFFFFFFFFFFFFFFFFF\t\t\talse;\\n        emit \n      MUL \t\t\talse;\\n        emit \n      NOT \t\t\talse;\\n        emit \n      AND \t\t\talse;\\n        emit \n      SWAP1 \t\t\talse;\\n        emit \n      DUP4 \t\t\talse;\\n        emit \n      PUSH FFFFFFFFFFFFFFFFFFFFFFFFFFFFFFFFFFFFFFFF\t\t\talse;\\n        emit \n      AND \t\t\talse;\\n        emit \n      MUL \t\t\talse;\\n        emit \n      OR \t\t\talse;\\n        emit \n      SWAP1 \t\t\talse;\\n        emit \n      SSTORE \t\t\talse;\\n        emit \n      POP \t\t\talse;\\n        emit \n      DUP3 \t\t\tause() e\n      PUSH FFFFFFFFFFFFFFFFFFFFFFFFFFFFFFFFFFFFFFFF\t\t\taccount);\\n    }\\n\\n    functi...\n      AND \t\t\taccount);\\n    }\\n\\n    functi...\n      DUP2 \t\t\tfunction\n      PUSH FFFFFFFFFFFFFFFFFFFFFFFFFFFFFFFFFFFFFFFF\t\t\taccount);\\n    }\\n\\n    functi...\n      AND \t\t\taccount);\\n    }\\n\\n    functi...\n      PUSH 8BE0079C531659141344CD1FD0A4F28419497F9722A3DAAFE3B4186F6B6457E0\t\t\taccount);\\n    }\\n\\n    functi...\n      PUSH 40\t\t\taccount);\\n    }\\n\\n    functi...\n      MLOAD \t\t\taccount);\\n    }\\n\\n    functi...\n      PUSH 40\t\t\taccount);\\n    }\\n\\n    functi...\n      MLOAD \t\t\taccount);\\n    }\\n\\n    functi...\n      DUP1 \t\t\taccount);\\n    }\\n\\n    functi...\n      SWAP2 \t\t\taccount);\\n    }\\n\\n    functi...\n      SUB \t\t\taccount);\\n    }\\n\\n    functi...\n      SWAP1 \t\t\taccount);\\n    }\\n\\n    functi...\n      LOG3 \t\t\taccount);\\n    }\\n\\n    functi...\n      POP \t\t\tEZER_ROLE) {\\n        require(...\n      POP \t\t\tEZER_ROLE) {\\n        require(...\n      POP \t\t\t function unfreezeWallet(addre...\n      JUMP \t\t\t function unfreezeWallet(addre...\n    tag 524\t\t\tnActive = false;\\n    }\\n\\n   ...\n      JUMPDEST \t\t\tnActive = false;\\n    }\\n\\n   ...\n      PUSH [tag] 600\t\t\t owner) \n      PUSH [tag] 134\t\t\t owner\n      JUMP \t\t\t owner) \n    tag 600\t\t\t owner) \n      JUMPDEST \t\t\t owner) \n      ISZERO \t\t\tonly owner) -----\\n    functio...\n      PUSH [tag] 601\t\t\tonly owner) -----\\n    functio...\n      JUMPI \t\t\tonly owner) -----\\n    functio...\n      PUSH 40\t\t\tame(string call\n      MLOAD \t\t\tame(string call\n      PUSH D93C066500000000000000000000000000000000000000000000000000000000\t\t\tame(string call\n      DUP2 \t\t\tame(string call\n      MSTORE \t\t\tame(string call\n      PUSH 4\t\t\tame(string call\n      ADD \t\t\tame(string call\n      PUSH 40\t\t\tame(string call\n      MLOAD \t\t\tame(string call\n      DUP1 \t\t\tame(string call\n      SWAP2 \t\t\tame(string call\n      SUB \t\t\tame(string call\n      SWAP1 \t\t\tame(string call\n      REVERT \t\t\tame(string call\n    tag 601\t\t\tonly owner) -----\\n    functio...\n      JUMPDEST \t\t\tonly owner) -----\\n    functio...\n      JUMP \t\t\tnActive = false;\\n    }\\n\\n   ...\n    tag 558\t\t\tnt Minted(address indexed to, ...\n      JUMPDEST \t\t\tnt Minted(address indexed to, ...\n      PUSH [tag] 603\t\t\ticit initial owner \n      PUSH [tag] 524\t\t\ticit initial owne\n      JUMP \t\t\ticit initial owner \n    tag 603\t\t\ticit initial owner \n      JUMPDEST \t\t\ticit initial owner \n      PUSH [tag] 605\t\t\tent SymbolChanged(string oldSy\n      DUP4 \t\t\tged(\n      DUP4 \t\t\tri\n      DUP4 \t\t\t oldS\n      PUSH [tag] 606\t\t\tent SymbolCha\n      JUMP \t\t\tent SymbolChanged(string oldSy\n    tag 605\t\t\tent SymbolChanged(string oldSy\n      JUMPDEST \t\t\tent SymbolChanged(string oldSy\n      POP \t\t\tnt Minted(address indexed to, ...\n      POP \t\t\tnt Minted(address indexed to, ...\n      POP \t\t\tnt Minted(address indexed to, ...\n      JUMP \t\t\tnt Minted(address indexed to, ...\n    tag 570\t\t\t\n      JUMPDEST \t\t\t\n      PUSH 0\t\t\t\n      PUSH [tag] 608\t\t\t\n      PUSH [tag] 286\t\t\t\n      JUMP \t\t\t\n    tag 608\t\t\t\n      JUMPDEST \t\t\t\n      PUSH 0\t\t\t\n      ADD \t\t\t\n      PUSH 8\t\t\t\n      SWAP1 \t\t\t\n      SLOAD \t\t\t\n      SWAP1 \t\t\t\n      PUSH 100\t\t\t\n      EXP \t\t\t\n      SWAP1 \t\t\t\n      DIV \t\t\t\n      PUSH FF\t\t\t\n      AND \t\t\t\n      SWAP1 \t\t\t\n      POP \t\t\t\n      SWAP1 \t\t\t\n      JUMP \t\t\t\n    tag 587\t\t\tinit(name_, symbol_);\\n       ...\n      JUMPDEST \t\t\tinit(name_, symbol_);\\n       ...\n      PUSH 0\t\t\t  // OZ v5: Ownable n\n      DUP2 \t\t\td Ow\n      SWAP1 \t\t\t     // and Ow\n      POP \t\t\t     // and Ow\n      SWAP2 \t\t\tinit(name_, symbol_);\\n       ...\n      SWAP1 \t\t\tinit(name_, symbol_);\\n       ...\n      POP \t\t\tinit(name_, symbol_);\\n       ...\n      JUMP \t\t\tinit(name_, symbol_);\\n       ...\n    tag 590\t\t\tz-upgrades-unsafe-allow constr...\n      JUMPDEST \t\t\tz-upgrades-unsafe-allow constr...\n      PUSH 0\t\t\ti\n      DUP2 \t\t\talizers();\\n    }\\n\n      PUSH FFFFFFFFFFFFFFFFFFFFFFFFFFFFFFFFFFFFFFFF\t\t\talizers();\\n    }\\n\\n    funct...\n      AND \t\t\talizers();\\n    }\\n\\n    funct...\n      EXTCODESIZE \t\t\talizers();\\n    }\\n\\n    funct...\n      SUB \t\t\talizers();\\n    }\\n\\n    funct...\n      PUSH [tag] 611\t\t\tnitializers();\\n    }\\n\\n    f...\n      JUMPI \t\t\tnitializers();\\n    }\\n\\n    f...\n      DUP1 \t\t\tng calldata symbo\n      PUSH 40\t\t\t calldata name_,\\n        stri...\n      MLOAD \t\t\t calldata name_,\\n        stri...\n      PUSH 4C9C8CE300000000000000000000000000000000000000000000000000000000\t\t\t calldata name_,\\n        stri...\n      DUP2 \t\t\t calldata name_,\\n        stri...\n      MSTORE \t\t\t calldata name_,\\n        stri...\n      PUSH 4\t\t\t calldata name_,\\n        stri...\n      ADD \t\t\t calldata name_,\\n        stri...\n      PUSH [tag] 612\t\t\t calldata name_,\\n        stri...\n      SWAP2 \t\t\t calldata name_,\\n        stri...\n      SWAP1 \t\t\t calldata name_,\\n        stri...\n      PUSH [tag] 162\t\t\t calldata name_,\\n        stri...\n      JUMP \t\t\t calldata name_,\\n        stri...\n    tag 612\t\t\t calldata name_,\\n        stri...\n      JUMPDEST \t\t\t calldata name_,\\n        stri...\n      PUSH 40\t\t\t calldata name_,\\n        stri...\n      MLOAD \t\t\t calldata name_,\\n        stri...\n      DUP1 \t\t\t calldata name_,\\n        stri...\n      SWAP2 \t\t\t calldata name_,\\n        stri...\n      SUB \t\t\t calldata name_,\\n        stri...\n      SWAP1 \t\t\t calldata name_,\\n        stri...\n      REVERT \t\t\t calldata name_,\\n        stri...\n    tag 611\t\t\tnitializers();\\n    }\\n\\n    f...\n      JUMPDEST \t\t\tnitializers();\\n    }\\n\\n    f...\n      DUP1 \t\t\t __ERC20Pausable_\n      PUSH [tag] 613\t\t\ttializer {\\n        __ERC20_in...\n      PUSH 360894A13BA1A3210667C828492DB98DCA3E2076CC3735A920A3CA505D382BBC\t\t\tOLE\");\\n    bytes32 public con...\n      PUSH 0\t\t\tinit(name_, symbol_\n      SHL \t\t\tinit(name_, symbol_\n      PUSH [tag] 587\t\t\ttializer {\\n        __ERC20\n      JUMP \t\t\ttializer {\\n        __ERC20_in...\n    tag 613\t\t\ttializer {\\n        __ERC20_in...\n      JUMPDEST \t\t\ttializer {\\n        __ERC20_in...\n      PUSH 0\t\t\ttializer {\\n        __ERC20_in...\n      ADD \t\t\ttializer {\\n        __ERC20_in...\n      PUSH 0\t\t\ttializer {\\n        __ERC20_in...\n      PUSH 100\t\t\ttializer {\\n        __ERC20_in...\n      EXP \t\t\ttializer {\\n        __ERC20_in...\n      DUP2 \t\t\ttializer {\\n        __ERC20_in...\n      SLOAD \t\t\ttializer {\\n        __ERC20_in...\n      DUP2 \t\t\ttializer {\\n        __ERC20_in...\n      PUSH FFFFFFFFFFFFFFFFFFFFFFFFFFFFFFFFFFFFFFFF\t\t\ttializer {\\n        __ERC20_in...\n      MUL \t\t\ttializer {\\n        __ERC20_in...\n      NOT \t\t\ttializer {\\n        __ERC20_in...\n      AND \t\t\ttializer {\\n        __ERC20_in...\n      SWAP1 \t\t\ttializer {\\n        __ERC20_in...\n      DUP4 \t\t\ttializer {\\n        __ERC20_in...\n      PUSH FFFFFFFFFFFFFFFFFFFFFFFFFFFFFFFFFFFFFFFF\t\t\ttializer {\\n        __ERC20_in...\n      AND \t\t\ttializer {\\n        __ERC20_in...\n      MUL \t\t\ttializer {\\n        __ERC20_in...\n      OR \t\t\ttializer {\\n        __ERC20_in...\n      SWAP1 \t\t\ttializer {\\n        __ERC20_in...\n      SSTORE \t\t\ttializer {\\n        __ERC20_in...\n      POP \t\t\ttializer {\\n        __ERC20_in...\n      POP \t\t\tz-upgrades-unsafe-allow constr...\n      JUMP \t\t\tz-upgrades-unsafe-allow constr...\n    tag 593\t\t\ts frozen\");\\n\\n        // 2. T...\n      JUMPDEST \t\t\ts frozen\");\\n\\n        // 2. T...\n      PUSH 60\t\t\tActive is tr\n      PUSH 0\t\t\tf (traderRes\n      PUSH [tag] 615\t\t\tctionActive && from != address...\n      DUP5 \t\t\t&& to \n      DUP5 \t\t\t add\n      PUSH [tag] 616\t\t\tctionActive && from != address...\n      JUMP \t\t\tctionActive && from != address...\n    tag 615\t\t\tctionActive && from != address...\n      JUMPDEST \t\t\tctionActive && from != address...\n      SWAP1 \t\t\tf (traderRestrictionActive && ...\n      POP \t\t\tf (traderRestrictionActive && ...\n      DUP1 \t\t\t       \n      DUP1 \t\t\t        require(hasRole(TRADER...\n      ISZERO \t\t\t        require(hasRole(TRADER...\n      PUSH [tag] 617\t\t\t        require(hasRole(TRADER...\n      JUMPI \t\t\t        require(hasRole(TRADER...\n      POP \t\t\t        require(hasRole(TRADER...\n      PUSH 0\t\t\t\"\n      PUSH [tag] 618\t\t\tire(hasRole(TRADER_ROLE, from\n      PUSH [tag] 619\t\t\tire(hasRole(TRADER_ROLE, fr\n      JUMP \t\t\tire(hasRole(TRADER_ROLE, from\n    tag 618\t\t\tire(hasRole(TRADER_ROLE, from\n      JUMPDEST \t\t\tire(hasRole(TRADER_ROLE, from\n      GT \t\t\tire(hasRole(TRADER_ROLE, from)...\n      DUP1 \t\t\tire(hasRole(TRADER_ROLE, from)...\n      PUSH [tag] 620\t\t\tire(hasRole(TRADER_ROLE, from)...\n      JUMPI \t\t\tire(hasRole(TRADER_ROLE, from)...\n      POP \t\t\tire(hasRole(TRADER_ROLE, from)...\n      PUSH 0\t\t\t)\n      DUP5 \t\t\ter lac\n      PUSH FFFFFFFFFFFFFFFFFFFFFFFFFFFFFFFFFFFFFFFF\t\t\ter lacks TRADER_RO\n      AND \t\t\ter lacks TRADER_RO\n      EXTCODESIZE \t\t\ter lacks TRADER_RO\n      GT \t\t\ter lacks TRADER_ROLE\")\n    tag 620\t\t\tire(hasRole(TRADER_ROLE, from)...\n      JUMPDEST \t\t\tire(hasRole(TRADER_ROLE, from)...\n    tag 617\t\t\t        require(hasRole(TRADER...\n      JUMPDEST \t\t\t        require(hasRole(TRADER...\n      ISZERO \t\t\t            require(hasRole(TR...\n      PUSH [tag] 621\t\t\t            require(hasRole(TR...\n      JUMPI \t\t\t            require(hasRole(TR...\n      PUSH [tag] 622\t\t\tole(TRADER_ROLE, to)) {\\n \n      PUSH [tag] 623\t\t\tole(TRADER_ROLE, to)) {\n      JUMP \t\t\tole(TRADER_ROLE, to)) {\\n \n    tag 622\t\t\tole(TRADER_ROLE, to)) {\\n \n      JUMPDEST \t\t\tole(TRADER_ROLE, to)) {\\n \n      SWAP2 \t\t\t (!hasRole(TRADER_ROLE, to)) {...\n      POP \t\t\t (!hasRole(TRADER_ROLE, to)) {...\n      POP \t\t\t (!hasRole(TRADER_ROLE, to)) {...\n      PUSH [tag] 614\t\t\t (!hasRole(TRADER_ROLE, to)) {...\n      JUMP \t\t\t (!hasRole(TRADER_ROLE, to)) {...\n    tag 621\t\t\t            require(hasRole(TR...\n      JUMPDEST \t\t\t            require(hasRole(TR...\n      DUP1 \t\t\te(balan\n      ISZERO \t\t\tquire(balanceOf(to) == 0, \"Rec...\n      PUSH [tag] 625\t\t\tquire(balanceOf(to) == 0, \"Rec...\n      JUMPI \t\t\tquire(balanceOf(to) == 0, \"Rec...\n      DUP4 \t\t\t lacks\n      PUSH 40\t\t\tr has balance but lacks \n      MLOAD \t\t\tr has balance but lacks \n      PUSH 9996B31500000000000000000000000000000000000000000000000000000000\t\t\tr has balance but lacks \n      DUP2 \t\t\tr has balance but lacks \n      MSTORE \t\t\tr has balance but lacks \n      PUSH 4\t\t\tr has balance but lacks \n      ADD \t\t\tr has balance but lacks \n      PUSH [tag] 626\t\t\tr has balance but lacks \n      SWAP2 \t\t\tr has balance but lacks \n      SWAP1 \t\t\tr has balance but lacks \n      PUSH [tag] 162\t\t\tr has balance but lacks \n      JUMP \t\t\tr has balance but lacks \n    tag 626\t\t\tr has balance but lacks \n      JUMPDEST \t\t\tr has balance but lacks \n      PUSH 40\t\t\tr has balance but lacks \n      MLOAD \t\t\tr has balance but lacks \n      DUP1 \t\t\tr has balance but lacks \n      SWAP2 \t\t\tr has balance but lacks \n      SUB \t\t\tr has balance but lacks \n      SWAP1 \t\t\tr has balance but lacks \n      REVERT \t\t\tr has balance but lacks \n    tag 625\t\t\tquire(balanceOf(to) == 0, \"Rec...\n      JUMPDEST \t\t\tquire(balanceOf(to) == 0, \"Rec...\n      PUSH 0\t\t\t \n      PUSH [tag] 628\t\t\t      }\\n        }\\n\\n        ...\n      PUSH [tag] 619\t\t\t      }\\n        }\\n\\n        \n      JUMP \t\t\t      }\\n        }\\n\\n        ...\n    tag 628\t\t\t      }\\n        }\\n\\n        ...\n      JUMPDEST \t\t\t      }\\n        }\\n\\n        ...\n      GT \t\t\t      }\\n        }\\n\\n        ...\n      ISZERO \t\t\t          }\\n        }\\n\\n    ...\n      PUSH [tag] 629\t\t\t          }\\n        }\\n\\n    ...\n      JUMPI \t\t\t          }\\n        }\\n\\n    ...\n      PUSH [tag] 630\t\t\te handle pause check and ac\n      PUSH [tag] 631\t\t\te handle pause check and \n      JUMP \t\t\te handle pause check and ac\n    tag 630\t\t\te handle pause check and ac\n      JUMPDEST \t\t\te handle pause check and ac\n      PUSH [tag] 632\t\t\t          }\\n        }\\n\\n    ...\n      JUMP \t\t\t          }\\n        }\\n\\n    ...\n    tag 629\t\t\t          }\\n        }\\n\\n    ...\n      JUMPDEST \t\t\t          }\\n        }\\n\\n    ...\n      PUSH 40\t\t\tom, to, value);\\n   \n      MLOAD \t\t\tom, to, value);\\n   \n      PUSH D6BDA27500000000000000000000000000000000000000000000000000000000\t\t\tom, to, value);\\n   \n      DUP2 \t\t\tom, to, value);\\n   \n      MSTORE \t\t\tom, to, value);\\n   \n      PUSH 4\t\t\tom, to, value);\\n   \n      ADD \t\t\tom, to, value);\\n   \n      PUSH 40\t\t\tom, to, value);\\n   \n      MLOAD \t\t\tom, to, value);\\n   \n      DUP1 \t\t\tom, to, value);\\n   \n      SWAP2 \t\t\tom, to, value);\\n   \n      SUB \t\t\tom, to, value);\\n   \n      SWAP1 \t\t\tom, to, value);\\n   \n      REVERT \t\t\tom, to, value);\\n   \n    tag 632\t\t\t          }\\n        }\\n\\n    ...\n      JUMPDEST \t\t\t          }\\n        }\\n\\n    ...\n      POP \t\t\t\\n        if (traderRestrictio...\n    tag 614\t\t\ts frozen\");\\n\\n        // 2. T...\n      JUMPDEST \t\t\ts frozen\");\\n\\n        // 2. T...\n      SWAP3 \t\t\ts frozen\");\\n\\n        // 2. T...\n      SWAP2 \t\t\ts frozen\");\\n\\n        // 2. T...\n      POP \t\t\ts frozen\");\\n\\n        // 2. T...\n      POP \t\t\ts frozen\");\\n\\n        // 2. T...\n      JUMP \t\t\ts frozen\");\\n\\n        // 2. T...\n    tag 596\t\t\t\n      JUMPDEST \t\t\t\n      PUSH 0\t\t\t\n      CALLVALUE \t\t\t\n      GT \t\t\t\n      ISZERO \t\t\t\n      PUSH [tag] 634\t\t\t\n      JUMPI \t\t\t\n      PUSH 40\t\t\t\n      MLOAD \t\t\t\n      PUSH B398979F00000000000000000000000000000000000000000000000000000000\t\t\t\n      DUP2 \t\t\t\n      MSTORE \t\t\t\n      PUSH 4\t\t\t\n      ADD \t\t\t\n      PUSH 40\t\t\t\n      MLOAD \t\t\t\n      DUP1 \t\t\t\n      SWAP2 \t\t\t\n      SUB \t\t\t\n      SWAP1 \t\t\t\n      REVERT \t\t\t\n    tag 634\t\t\t\n      JUMPDEST \t\t\t\n      JUMP \t\t\t\n    tag 606\t\t\t\n      JUMPDEST \t\t\t\n      PUSH 0\t\t\t\n      PUSH [tag] 636\t\t\t\n      PUSH [tag] 246\t\t\t\n      JUMP \t\t\t\n    tag 636\t\t\t\n      JUMPDEST \t\t\t\n      SWAP1 \t\t\t\n      POP \t\t\t\n      PUSH 0\t\t\t\n      PUSH FFFFFFFFFFFFFFFFFFFFFFFFFFFFFFFFFFFFFFFF\t\t\t\n      AND \t\t\t\n      DUP5 \t\t\t\n      PUSH FFFFFFFFFFFFFFFFFFFFFFFFFFFFFFFFFFFFFFFF\t\t\t\n      AND \t\t\t\n      SUB \t\t\t\n      PUSH [tag] 637\t\t\t\n      JUMPI \t\t\t\n      DUP2 \t\t\t\n      DUP2 \t\t\t\n      PUSH 2\t\t\t\n      ADD \t\t\t\n      PUSH 0\t\t\t\n      DUP3 \t\t\t\n      DUP3 \t\t\t\n      SLOAD \t\t\t\n      PUSH [tag] 638\t\t\t\n      SWAP2 \t\t\t\n      SWAP1 \t\t\t\n      PUSH [tag] 639\t\t\t\n      JUMP \t\t\t\n    tag 638\t\t\t\n      JUMPDEST \t\t\t\n      SWAP3 \t\t\t\n      POP \t\t\t\n      POP \t\t\t\n      DUP2 \t\t\t\n      SWAP1 \t\t\t\n      SSTORE \t\t\t\n      POP \t\t\t\n      PUSH [tag] 640\t\t\t\n      JUMP \t\t\t\n    tag 637\t\t\t\n      JUMPDEST \t\t\t\n      PUSH 0\t\t\t\n      DUP2 \t\t\t\n      PUSH 0\t\t\t\n      ADD \t\t\t\n      PUSH 0\t\t\t\n      DUP7 \t\t\t\n      PUSH FFFFFFFFFFFFFFFFFFFFFFFFFFFFFFFFFFFFFFFF\t\t\t\n      AND \t\t\t\n      PUSH FFFFFFFFFFFFFFFFFFFFFFFFFFFFFFFFFFFFFFFF\t\t\t\n      AND \t\t\t\n      DUP2 \t\t\t\n      MSTORE \t\t\t\n      PUSH 20\t\t\t\n      ADD \t\t\t\n      SWAP1 \t\t\t\n      DUP2 \t\t\t\n      MSTORE \t\t\t\n      PUSH 20\t\t\t\n      ADD \t\t\t\n      PUSH 0\t\t\t\n      KECCAK256 \t\t\t\n      SLOAD \t\t\t\n      SWAP1 \t\t\t\n      POP \t\t\t\n      DUP3 \t\t\t\n      DUP2 \t\t\t\n      LT \t\t\t\n      ISZERO \t\t\t\n      PUSH [tag] 641\t\t\t\n      JUMPI \t\t\t\n      DUP5 \t\t\t\n      DUP2 \t\t\t\n      DUP5 \t\t\t\n      PUSH 40\t\t\t\n      MLOAD \t\t\t\n      PUSH E450D38C00000000000000000000000000000000000000000000000000000000\t\t\t\n      DUP2 \t\t\t\n      MSTORE \t\t\t\n      PUSH 4\t\t\t\n      ADD \t\t\t\n      PUSH [tag] 642\t\t\t\n      SWAP4 \t\t\t\n      SWAP3 \t\t\t\n      SWAP2 \t\t\t\n      SWAP1 \t\t\t\n      PUSH [tag] 427\t\t\t\n      JUMP \t\t\t\n    tag 642\t\t\t\n      JUMPDEST \t\t\t\n      PUSH 40\t\t\t\n      MLOAD \t\t\t\n      DUP1 \t\t\t\n      SWAP2 \t\t\t\n      SUB \t\t\t\n      SWAP1 \t\t\t\n      REVERT \t\t\t\n    tag 641\t\t\t\n      JUMPDEST \t\t\t\n      DUP3 \t\t\t\n      DUP2 \t\t\t\n      SUB \t\t\t\n      DUP3 \t\t\t\n      PUSH 0\t\t\t\n      ADD \t\t\t\n      PUSH 0\t\t\t\n      DUP8 \t\t\t\n      PUSH FFFFFFFFFFFFFFFFFFFFFFFFFFFFFFFFFFFFFFFF\t\t\t\n      AND \t\t\t\n      PUSH FFFFFFFFFFFFFFFFFFFFFFFFFFFFFFFFFFFFFFFF\t\t\t\n      AND \t\t\t\n      DUP2 \t\t\t\n      MSTORE \t\t\t\n      PUSH 20\t\t\t\n      ADD \t\t\t\n      SWAP1 \t\t\t\n      DUP2 \t\t\t\n      MSTORE \t\t\t\n      PUSH 20\t\t\t\n      ADD \t\t\t\n      PUSH 0\t\t\t\n      KECCAK256 \t\t\t\n      DUP2 \t\t\t\n      SWAP1 \t\t\t\n      SSTORE \t\t\t\n      POP \t\t\t\n      POP \t\t\t\n    tag 640\t\t\t\n      JUMPDEST \t\t\t\n      PUSH 0\t\t\t\n      PUSH FFFFFFFFFFFFFFFFFFFFFFFFFFFFFFFFFFFFFFFF\t\t\t\n      AND \t\t\t\n      DUP4 \t\t\t\n      PUSH FFFFFFFFFFFFFFFFFFFFFFFFFFFFFFFFFFFFFFFF\t\t\t\n      AND \t\t\t\n      SUB \t\t\t\n      PUSH [tag] 643\t\t\t\n      JUMPI \t\t\t\n      DUP2 \t\t\t\n      DUP2 \t\t\t\n      PUSH 2\t\t\t\n      ADD \t\t\t\n      PUSH 0\t\t\t\n      DUP3 \t\t\t\n      DUP3 \t\t\t\n      SLOAD \t\t\t\n      SUB \t\t\t\n      SWAP3 \t\t\t\n      POP \t\t\t\n      POP \t\t\t\n      DUP2 \t\t\t\n      SWAP1 \t\t\t\n      SSTORE \t\t\t\n      POP \t\t\t\n      PUSH [tag] 644\t\t\t\n      JUMP \t\t\t\n    tag 643\t\t\t\n      JUMPDEST \t\t\t\n      DUP2 \t\t\t\n      DUP2 \t\t\t\n      PUSH 0\t\t\t\n      ADD \t\t\t\n      PUSH 0\t\t\t\n      DUP6 \t\t\t\n      PUSH FFFFFFFFFFFFFFFFFFFFFFFFFFFFFFFFFFFFFFFF\t\t\t\n      AND \t\t\t\n      PUSH FFFFFFFFFFFFFFFFFFFFFFFFFFFFFFFFFFFFFFFF\t\t\t\n      AND \t\t\t\n      DUP2 \t\t\t\n      MSTORE \t\t\t\n      PUSH 20\t\t\t\n      ADD \t\t\t\n      SWAP1 \t\t\t\n      DUP2 \t\t\t\n      MSTORE \t\t\t\n      PUSH 20\t\t\t\n      ADD \t\t\t\n      PUSH 0\t\t\t\n      KECCAK256 \t\t\t\n      PUSH 0\t\t\t\n      DUP3 \t\t\t\n      DUP3 \t\t\t\n      SLOAD \t\t\t\n      ADD \t\t\t\n      SWAP3 \t\t\t\n      POP \t\t\t\n      POP \t\t\t\n      DUP2 \t\t\t\n      SWAP1 \t\t\t\n      SSTORE \t\t\t\n      POP \t\t\t\n    tag 644\t\t\t\n      JUMPDEST \t\t\t\n      DUP3 \t\t\t\n      PUSH FFFFFFFFFFFFFFFFFFFFFFFFFFFFFFFFFFFFFFFF\t\t\t\n      AND \t\t\t\n      DUP5 \t\t\t\n      PUSH FFFFFFFFFFFFFFFFFFFFFFFFFFFFFFFFFFFFFFFF\t\t\t\n      AND \t\t\t\n      PUSH DDF252AD1BE2C89B69C2B068FC378DAA952BA7F163C4A11628F55A4DF523B3EF\t\t\t\n      DUP5 \t\t\t\n      PUSH 40\t\t\t\n      MLOAD \t\t\t\n      PUSH [tag] 645\t\t\t\n      SWAP2 \t\t\t\n      SWAP1 \t\t\t\n      PUSH [tag] 76\t\t\t\n      JUMP \t\t\t\n    tag 645\t\t\t\n      JUMPDEST \t\t\t\n      PUSH 40\t\t\t\n      MLOAD \t\t\t\n      DUP1 \t\t\t\n      SWAP2 \t\t\t\n      SUB \t\t\t\n      SWAP1 \t\t\t\n      LOG3 \t\t\t\n      POP \t\t\t\n      POP \t\t\t\n      POP \t\t\t\n      POP \t\t\t\n      JUMP \t\t\t\n    tag 616\t\t\t-----\\n    function mint(addre...\n      JUMPDEST \t\t\t-----\\n    function mint(addre...\n      PUSH 0\t\t\t{\\n        _m\n      PUSH 0\t\t\tROLE\n      PUSH 0\t\t\tEEZE\n      DUP4 \t\t\tRole\n      MLOAD \t\t\tl onlyRole(\n      PUSH 20\t\t\texte\n      DUP6 \t\t\tount\n      ADD \t\t\t account) exter\n      DUP7 \t\t\t(addre\n      GAS \t\t\teWall\n      DELEGATECALL \t\t\tunction freezeWallet(address a...\n      SWAP1 \t\t\t   }\\n\\n    function freezeWal...\n      POP \t\t\t   }\\n\\n    function freezeWal...\n      SWAP3 \t\t\t-----\\n    function mint(addre...\n      SWAP2 \t\t\t-----\\n    function mint(addre...\n      POP \t\t\t-----\\n    function mint(addre...\n      POP \t\t\t-----\\n    function mint(addre...\n      JUMP \t\t\t-----\\n    function mint(addre...\n    tag 619\t\t\tue)\\n        internal\\n       ...\n      JUMPDEST \t\t\tue)\\n        internal\\n       ...\n      PUSH 0\t\t\teable, ERC20\n      RETURNDATASIZE \t\t\t   require(!_fro\n      SWAP1 \t\t\tck\\n        require(!_fro\n      POP \t\t\tck\\n        require(!_fro\n      SWAP1 \t\t\tue)\\n        internal\\n       ...\n      JUMP \t\t\tue)\\n        internal\\n       ...\n    tag 623\t\t\t Applied ONLY if traderRestric...\n      JUMPDEST \t\t\t Applied ONLY if traderRestric...\n      PUSH 60\t\t\true\\n        if (tra\n      PUSH 40\t\t\t    \n      MLOAD \t\t\t)) {\\n      \n      SWAP1 \t\t\t address(0)) {\\n      \n      POP \t\t\t address(0)) {\\n      \n      RETURNDATASIZE \t\t\t_ROLE, from), \"S\n      DUP2 \t\t\te(TRAD\n      MSTORE \t\t\t(hasRole(TRADER_ROLE, from), \"...\n      RETURNDATASIZE \t\t\tRADER_ROLE, to))\n      PUSH 0\t\t\tRole\n      PUSH 20\t\t\tf (!\n      DUP4 \t\t\t      \n      ADD \t\t\t           if (!h\n      RETURNDATACOPY \t\t\tADER_ROLE\");\\n\\n            if...\n      RETURNDATASIZE \t\t\teceiver has bala\n      PUSH 20\t\t\t 0, \n      ADD \t\t\t) == 0, \"Receiver has balan\n      DUP2 \t\t\tnceOf(\n      ADD \t\t\tbalanceOf(to) == 0, \"Receiver ...\n      PUSH 40\t\t\tquir\n      MSTORE \t\t\t     require(balanceOf(to) == ...\n      SWAP1 \t\t\t Applied ONLY if traderRestric...\n      JUMP \t\t\t Applied ONLY if traderRestric...\n    tag 631\t\t\thandle pause check and actual ...\n      JUMPDEST \t\t\thandle pause check and actual ...\n      PUSH 40\t\t\tUpgr\n      MLOAD \t\t\t UUPS Upgra\n      RETURNDATASIZE \t\t\t function _autho\n      PUSH 0\t\t\t--\\n \n      DUP3 \t\t\t) -\n      RETURNDATACOPY \t\t\tion (only owner) -----\\n    fu...\n      RETURNDATASIZE \t\t\tlementation)\\n   \n      DUP2 \t\t\tewI\n      REVERT \t\t\tdress newImplementation)\\n    \n    tag 650\t\t\t-License-Identifier: MIT\\nprag...\n      JUMPDEST \t\t\t-License-Identifier: MIT\\nprag...\n      PUSH 0\t\t\tolidit\n      PUSH 40\t\t\tpe\n      MLOAD \t\t\tpenzeppel\n      SWAP1 \t\t\timport \"@openzeppel\n      POP \t\t\timport \"@openzeppel\n      SWAP1 \t\t\t-License-Identifier: MIT\\nprag...\n      JUMP \t\t\t-License-Identifier: MIT\\nprag...\n    tag 651\t\t\t-upgradeable/token/ERC20/ERC20...\n      JUMPDEST \t\t\t-upgradeable/token/ERC20/ERC20...\n      PUSH 0\t\t\ts\n      PUSH 0\t\t\tt\n      REVERT \t\t\tRC20/extensi\n    tag 652\t\t\tsableUpgradeable.sol\";\\nimport...\n      JUMPDEST \t\t\tsableUpgradeable.sol\";\\nimport...\n      PUSH 0\t\t\tt\n      PUSH 0\t\t\tp\n      REVERT \t\t\tol\";\\nimport \n    tag 653\t\t\tin/contracts-upgradeable/acces...\n      JUMPDEST \t\t\tin/contracts-upgradeable/acces...\n      PUSH 0\t\t\tssContr\n      PUSH FFFFFFFF00000000000000000000000000000000000000000000000000000000\t\t\tzeppelin/contracts-upgradeable...\n      DUP3 \t\t\t \"@op\n      AND \t\t\tport \"@openzeppelin/contracts-...\n      SWAP1 \t\t\tle.sol\";\\nimport \"@openzeppeli...\n      POP \t\t\tle.sol\";\\nimport \"@openzeppeli...\n      SWAP2 \t\t\tin/contracts-upgradeable/acces...\n      SWAP1 \t\t\tin/contracts-upgradeable/acces...\n      POP \t\t\tin/contracts-upgradeable/acces...\n      JUMP \t\t\tin/contracts-upgradeable/acces...\n    tag 654\t\t\tpelin/contracts-upgradeable/pr...\n      JUMPDEST \t\t\tpelin/contracts-upgradeable/pr...\n      PUSH [tag] 733\t\t\tRinanzeV2 is\\n    Initia\n      DUP2 \t\t\tIniti\n      PUSH [tag] 653\t\t\tRinanzeV2 is\\n    Initia\n      JUMP \t\t\tRinanzeV2 is\\n    Initia\n    tag 733\t\t\tRinanzeV2 is\\n    Initia\n      JUMPDEST \t\t\tRinanzeV2 is\\n    Initia\n      DUP2 \t\t\tntrac\n      EQ \t\t\t\\ncontract RinanzeV2 is\\n    I...\n      PUSH [tag] 734\t\t\tble.sol\";\\n\\ncontract RinanzeV...\n      JUMPI \t\t\tble.sol\";\\n\\ncontract RinanzeV...\n      PUSH 0\t\t\tC\n      PUSH 0\t\t\t \n      REVERT \t\t\tle,\\n    ERC2\n    tag 734\t\t\tble.sol\";\\n\\ncontract RinanzeV...\n      JUMPDEST \t\t\tble.sol\";\\n\\ncontract RinanzeV...\n      POP \t\t\tpelin/contracts-upgradeable/pr...\n      JUMP \t\t\tpelin/contracts-upgradeable/pr...\n    tag 655\t\t\t    ERC20PausableUpgradeable,\\...\n      JUMPDEST \t\t\t    ERC20PausableUpgradeable,\\...\n      PUSH 0\t\t\tpUpgr\n      DUP2 \t\t\table,\\n\n      CALLDATALOAD \t\t\tontrolUpgradeable,\\n \n      SWAP1 \t\t\t  AccessControlUpgradeable,\\n \n      POP \t\t\t  AccessControlUpgradeable,\\n \n      PUSH [tag] 736\t\t\tgradeable\\n{\\n    // Role iden...\n      DUP2 \t\t\tentif\n      PUSH [tag] 654\t\t\tgradeable\\n{\\n    // Role iden...\n      JUMP \t\t\tgradeable\\n{\\n    // Role iden...\n    tag 736\t\t\tgradeable\\n{\\n    // Role iden...\n      JUMPDEST \t\t\tgradeable\\n{\\n    // Role iden...\n      SWAP3 \t\t\t    ERC20PausableUpgradeable,\\...\n      SWAP2 \t\t\t    ERC20PausableUpgradeable,\\...\n      POP \t\t\t    ERC20PausableUpgradeable,\\...\n      POP \t\t\t    ERC20PausableUpgradeable,\\...\n      JUMP \t\t\t    ERC20PausableUpgradeable,\\...\n    tag 52\t\t\ts32 public constant MINTER_ROL...\n      JUMPDEST \t\t\ts32 public constant MINTER_ROL...\n      PUSH 0\t\t\t;\\n    \n      PUSH 20\t\t\tak\n      DUP3 \t\t\t_ROLE = k\n      DUP5 \t\t\tt FREEZ\n      SUB \t\t\tstant FREEZER_ROLE = ke\n      SLT \t\t\t constant FREEZER_ROLE = kecca...\n      ISZERO \t\t\tlic constant FREEZER_ROLE = ke...\n      PUSH [tag] 738\t\t\tlic constant FREEZER_ROLE = ke...\n      JUMPI \t\t\tlic constant FREEZER_ROLE = ke...\n      PUSH [tag] 739\t\t\t\"FREEZER_ROLE\");\\n    bytes32 ...\n      PUSH [tag] 651\t\t\t\"FREEZER_ROLE\");\\n    bytes32 ...\n      JUMP \t\t\t\"FREEZER_ROLE\");\\n    bytes32 ...\n    tag 739\t\t\t\"FREEZER_ROLE\");\\n    bytes32 ...\n      JUMPDEST \t\t\t\"FREEZER_ROLE\");\\n    bytes32 ...\n    tag 738\t\t\tlic constant FREEZER_ROLE = ke...\n      JUMPDEST \t\t\tlic constant FREEZER_ROLE = ke...\n      PUSH 0\t\t\tR\n      PUSH [tag] 740\t\t\tROLE\");\\n\\n    // Mutable name...\n      DUP5 \t\t\tring pr\n      DUP3 \t\t\tol\\n   \n      DUP6 \t\t\tname & sy\n      ADD \t\t\tble name & symbol\\n    \n      PUSH [tag] 655\t\t\tROLE\");\\n\\n    // Mutable name...\n      JUMP \t\t\tROLE\");\\n\\n    // Mutable name...\n    tag 740\t\t\tROLE\");\\n\\n    // Mutable name...\n      JUMPDEST \t\t\tROLE\");\\n\\n    // Mutable name...\n      SWAP2 \t\t\t6(\"TRADER_ROLE\");\\n\\n    // Mu...\n      POP \t\t\t6(\"TRADER_ROLE\");\\n\\n    // Mu...\n      POP \t\t\ttes32 public constant TRADER_R...\n      SWAP3 \t\t\ts32 public constant MINTER_ROL...\n      SWAP2 \t\t\ts32 public constant MINTER_ROL...\n      POP \t\t\ts32 public constant MINTER_ROL...\n      POP \t\t\ts32 public constant MINTER_ROL...\n      JUMP \t\t\ts32 public constant MINTER_ROL...\n    tag 656\t\t\tprivate _symbol;\\n\\n    // Sto...\n      JUMPDEST \t\t\tprivate _symbol;\\n\\n    // Sto...\n      PUSH 0\t\t\tor froz\n      DUP2 \t\t\tol) p\n      ISZERO \t\t\ts => bool) pr\n      ISZERO \t\t\t(address => bool) pri\n      SWAP1 \t\t\t    mapping(address => bool) p...\n      POP \t\t\t    mapping(address => bool) p...\n      SWAP2 \t\t\tprivate _symbol;\\n\\n    // Sto...\n      SWAP1 \t\t\tprivate _symbol;\\n\\n    // Sto...\n      POP \t\t\tprivate _symbol;\\n\\n    // Sto...\n      JUMP \t\t\tprivate _symbol;\\n\\n    // Sto...\n    tag 657\t\t\tWallets;\\n\\n    // NEW STORAGE...\n      JUMPDEST \t\t\tWallets;\\n\\n    // NEW STORAGE...\n      PUSH [tag] 743\t\t\tcollision\\n    bool pu\n      DUP2 \t\t\tool p\n      PUSH [tag] 656\t\t\tcollision\\n    bool pu\n      JUMP \t\t\tcollision\\n    bool pu\n    tag 743\t\t\tcollision\\n    bool pu\n      JUMPDEST \t\t\tcollision\\n    bool pu\n      DUP3 \t\t\tven\n      MSTORE \t\t\t to prevent collision\\n    boo...\n      POP \t\t\tWallets;\\n\\n    // NEW STORAGE...\n      POP \t\t\tWallets;\\n\\n    // NEW STORAGE...\n      JUMP \t\t\tWallets;\\n\\n    // NEW STORAGE...\n    tag 55\t\t\tstrictionActive;\\n\\n    // Eve...\n      JUMPDEST \t\t\tstrictionActive;\\n\\n    // Eve...\n      PUSH 0\t\t\tent \n      PUSH 20\t\t\tou\n      DUP3 \t\t\tindexed a\n      ADD \t\t\tess indexed accoun\n      SWAP1 \t\t\tzen(address indexed accoun\n      POP \t\t\tzen(address indexed accoun\n      PUSH [tag] 745\t\t\tent Minted(address indexed to,...\n      PUSH 0\t\t\tC\n      DUP4 \t\t\t event Na\n      ADD \t\t\t\\n    event NameCh\n      DUP5 \t\t\t amoun\n      PUSH [tag] 657\t\t\tent Minted(address indexed to,...\n      JUMP \t\t\tent Minted(address indexed to,...\n    tag 745\t\t\tent Minted(address indexed to,...\n      JUMPDEST \t\t\tent Minted(address indexed to,...\n      SWAP3 \t\t\tstrictionActive;\\n\\n    // Eve...\n      SWAP2 \t\t\tstrictionActive;\\n\\n    // Eve...\n      POP \t\t\tstrictionActive;\\n\\n    // Eve...\n      POP \t\t\tstrictionActive;\\n\\n    // Eve...\n      JUMP \t\t\tstrictionActive;\\n\\n    // Eve...\n    tag 658\t\t\tldName, string newName);\\n    ...\n      JUMPDEST \t\t\tldName, string newName);\\n    ...\n      PUSH 0\t\t\tmbolCha\n      DUP2 \t\t\t stri\n      SWAP1 \t\t\t oldSymbol, stri\n      POP \t\t\t oldSymbol, stri\n      SWAP2 \t\t\tldName, string newName);\\n    ...\n      SWAP1 \t\t\tldName, string newName);\\n    ...\n      POP \t\t\tldName, string newName);\\n    ...\n      JUMP \t\t\tldName, string newName);\\n    ...\n    tag 659\t\t\t);\\n    event TraderRestrictio...\n      JUMPDEST \t\t\t);\\n    event TraderRestrictio...\n      PUSH [tag] 748\t\t\t-allow constructor\\n    c\n      DUP2 \t\t\t\\n    \n      PUSH [tag] 658\t\t\t-allow constructor\\n    c\n      JUMP \t\t\t-allow constructor\\n    c\n    tag 748\t\t\t-allow constructor\\n    c\n      JUMPDEST \t\t\t-allow constructor\\n    c\n      DUP3 \t\t\tnsa\n      MSTORE \t\t\trades-unsafe-allow constructor...\n      POP \t\t\t);\\n    event TraderRestrictio...\n      POP \t\t\t);\\n    event TraderRestrictio...\n      JUMP \t\t\t);\\n    event TraderRestrictio...\n    tag 60\t\t\t{\\n        _disableInitializer...\n      JUMPDEST \t\t\t{\\n        _disableInitializer...\n      PUSH 0\t\t\te_,\\n\n      PUSH 20\t\t\t  \n      DUP3 \t\t\t symbol_\\n\n      ADD \t\t\tdata symbol_\\n    )\n      SWAP1 \t\t\ting calldata symbol_\\n    )\n      POP \t\t\ting calldata symbol_\\n    )\n      PUSH [tag] 750\t\t\tinitializer {\\n        __ERC20...\n      PUSH 0\t\t\ta\n      DUP4 \t\t\t   __ERC2\n      ADD \t\t\t       __ERC20Pau\n      DUP5 \t\t\tmbol_)\n      PUSH [tag] 659\t\t\tinitializer {\\n        __ERC20...\n      JUMP \t\t\tinitializer {\\n        __ERC20...\n    tag 750\t\t\tinitializer {\\n        __ERC20...\n      JUMPDEST \t\t\tinitializer {\\n        __ERC20...\n      SWAP3 \t\t\t{\\n        _disableInitializer...\n      SWAP2 \t\t\t{\\n        _disableInitializer...\n      POP \t\t\t{\\n        _disableInitializer...\n      POP \t\t\t{\\n        _disableInitializer...\n      JUMP \t\t\t{\\n        _disableInitializer...\n    tag 660\t\t\t\\n        // OZ v5: Ownable no...\n      JUMPDEST \t\t\t\\n        // OZ v5: Ownable no...\n      PUSH 0\t\t\tinitia\n      DUP2 \t\t\t and \n      MLOAD \t\t\t    // and O\n      SWAP1 \t\t\tment,\\n        // and O\n      POP \t\t\tment,\\n        // and O\n      SWAP2 \t\t\t\\n        // OZ v5: Ownable no...\n      SWAP1 \t\t\t\\n        // OZ v5: Ownable no...\n      POP \t\t\t\\n        // OZ v5: Ownable no...\n      JUMP \t\t\t\\n        // OZ v5: Ownable no...\n    tag 661\t\t\t own init takes no args (no ex...\n      JUMPDEST \t\t\t own init takes no args (no ex...\n      PUSH 0\t\t\t);\\n        \n      DUP3 \t\t\t\\n     \n      DUP3 \t\t\tt()\n      MSTORE \t\t\ttep_init();\\n\\n      \n      PUSH 20\t\t\t  //\n      DUP3 \t\t\t   \n      ADD \t\t\t;\\n\\n        // \n      SWAP1 \t\t\tsControl_init();\\n\\n        //...\n      POP \t\t\tsControl_init();\\n\\n        //...\n      SWAP3 \t\t\t own init takes no args (no ex...\n      SWAP2 \t\t\t own init takes no args (no ex...\n      POP \t\t\t own init takes no args (no ex...\n      POP \t\t\t own init takes no args (no ex...\n      JUMP \t\t\t own init takes no args (no ex...\n    tag 662\t\t\tpgradeable has no storage/init...\n      JUMPDEST \t\t\tpgradeable has no storage/init...\n      DUP3 \t\t\tremove\n      DUP2 \t\t\t; /\n      DUP4 \t\t\tnit\n      MCOPY \t\t\table_init(); // removed\n      PUSH 0\t\t\tn\n      DUP4 \t\t\t      \n      DUP4 \t\t\t v5\n      ADD \t\t\tt in v5\\n\\n       \n      MSTORE \t\t\tot exist in v5\\n\\n        _na\n      POP \t\t\tpgradeable has no storage/init...\n      POP \t\t\tpgradeable has no storage/init...\n      POP \t\t\tpgradeable has no storage/init...\n      JUMP \t\t\tpgradeable has no storage/init...\n    tag 663\t\t\t       _symbol = symbol_;\\n\\n ...\n      JUMPDEST \t\t\t       _symbol = symbol_;\\n\\n ...\n      PUSH 0\t\t\tRole(D\n      PUSH 1F\t\t\ttR\n      NOT \t\t\tgrantRo\n      PUSH 1F\t\t\t  \n      DUP4 \t\t\t);\\n  \n      ADD \t\t\tnder);\\n       \n      AND \t\t\tg.sender);\\n        _grantRol\n      SWAP1 \t\t\tN_ROLE, msg.sender);\\n        ...\n      POP \t\t\tN_ROLE, msg.sender);\\n        ...\n      SWAP2 \t\t\t       _symbol = symbol_;\\n\\n ...\n      SWAP1 \t\t\t       _symbol = symbol_;\\n\\n ...\n      POP \t\t\t       _symbol = symbol_;\\n\\n ...\n      JUMP \t\t\t       _symbol = symbol_;\\n\\n ...\n    tag 664\t\t\tE, msg.sender);\\n        _gran...\n      JUMPDEST \t\t\tE, msg.sender);\\n        _gran...\n      PUSH 0\t\t\tROL\n      PUSH [tag] 756\t\t\t  // NEW V2 INITIALIZER: Set t...\n      DUP3 \t\t\talse \n      PUSH [tag] 660\t\t\t  // NEW V2 INITIALIZER: Set t...\n      JUMP \t\t\t  // NEW V2 INITIALIZER: Set t...\n    tag 756\t\t\t  // NEW V2 INITIALIZER: Set t...\n      JUMPDEST \t\t\t  // NEW V2 INITIALIZER: Set t...\n      PUSH [tag] 757\t\t\tction initializeV2() external ...\n      DUP2 \t\t\testric\n      DUP6 \t\t\tade\n      PUSH [tag] 661\t\t\tction initializeV2() external ...\n      JUMP \t\t\tction initializeV2() external ...\n    tag 757\t\t\tction initializeV2() external ...\n      JUMPDEST \t\t\tction initializeV2() external ...\n      SWAP4 \t\t\t    function initializeV2() ex...\n      POP \t\t\t    function initializeV2() ex...\n      PUSH [tag] 758\t\t\t = false;\\n    }\\n\\n    // ---...\n      DUP2 \t\t\t owner\n      DUP6 \t\t\t(on\n      PUSH 20\t\t\tdate\n      DUP7 \t\t\tmbol \n      ADD \t\t\t& Symbol updater\n      PUSH [tag] 662\t\t\t = false;\\n    }\\n\\n    // ---...\n      JUMP \t\t\t = false;\\n    }\\n\\n    // ---...\n    tag 758\t\t\t = false;\\n    }\\n\\n    // ---...\n      JUMPDEST \t\t\t = false;\\n    }\\n\\n    // ---...\n      PUSH [tag] 759\t\t\tme(string calldata newName) e\n      DUP2 \t\t\tName) \n      PUSH [tag] 663\t\t\tme(string calldata newName) e\n      JUMP \t\t\tme(string calldata newName) e\n    tag 759\t\t\tme(string calldata newName) e\n      JUMPDEST \t\t\tme(string calldata newName) e\n      DUP5 \t\t\tset\n      ADD \t\t\tion setName(string calldata ne...\n      SWAP2 \t\t\t  function setName(string call...\n      POP \t\t\t  function setName(string call...\n      POP \t\t\t, msg.sender);\\n    }\\n\\n    /...\n      SWAP3 \t\t\tE, msg.sender);\\n        _gran...\n      SWAP2 \t\t\tE, msg.sender);\\n        _gran...\n      POP \t\t\tE, msg.sender);\\n        _gran...\n      POP \t\t\tE, msg.sender);\\n        _gran...\n      JUMP \t\t\tE, msg.sender);\\n        _gran...\n    tag 65\t\t\twner {\\n        string memory ...\n      JUMPDEST \t\t\twner {\\n        string memory ...\n      PUSH 0\t\t\t\\n   \n      PUSH 20\t\t\ta \n      DUP3 \t\t\ting calld\n      ADD \t\t\t(string calldata n\n      SWAP1 \t\t\tetSymbol(string calldata n\n      POP \t\t\tetSymbol(string calldata n\n      DUP2 \t\t\tmemory ol\n      DUP2 \t\t\ttrin\n      SUB \t\t\t   string memory old\n      PUSH 0\t\t\t \n      DUP4 \t\t\tlyOwner {\n      ADD \t\t\tl onlyOwner {\\n   \n      MSTORE \t\t\texternal onlyOwner {\\n        ...\n      PUSH [tag] 761\t\t\t  _symbol = newSymbol;\\n      ...\n      DUP2 \t\t\t\\n   \n      DUP5 \t\t\t);\\n   \n      PUSH [tag] 664\t\t\t  _symbol = newSymbol;\\n      ...\n      JUMP \t\t\t  _symbol = newSymbol;\\n      ...\n    tag 761\t\t\t  _symbol = newSymbol;\\n      ...\n      JUMPDEST \t\t\t  _symbol = newSymbol;\\n      ...\n      SWAP1 \t\t\t;\\n        _symbol = newSymbol...\n      POP \t\t\t;\\n        _symbol = newSymbol...\n      SWAP3 \t\t\twner {\\n        string memory ...\n      SWAP2 \t\t\twner {\\n        string memory ...\n      POP \t\t\twner {\\n        string memory ...\n      POP \t\t\twner {\\n        string memory ...\n      JUMP \t\t\twner {\\n        string memory ...\n    tag 665\t\t\t() public view virtual overrid...\n      JUMPDEST \t\t\t() public view virtual overrid...\n      PUSH 0\t\t\tns (str\n      PUSH FFFFFFFFFFFFFFFFFFFFFFFFFFFFFFFFFFFFFFFF\t\t\te;\\n    }\\n\\n    function symb...\n      DUP3 \t\t\trn _n\n      AND \t\t\treturn _name;\\n    }\\n\\n    fu...\n      SWAP1 \t\t\t {\\n        return _name;\\n   ...\n      POP \t\t\t {\\n        return _name;\\n   ...\n      SWAP2 \t\t\t() public view virtual overrid...\n      SWAP1 \t\t\t() public view virtual overrid...\n      POP \t\t\t() public view virtual overrid...\n      JUMP \t\t\t() public view virtual overrid...\n    tag 666\t\t\trride returns (string memory) ...\n      JUMPDEST \t\t\trride returns (string memory) ...\n      PUSH 0\t\t\t   retu\n      PUSH [tag] 764\t\t\t // ----- Admin / Role F\n      DUP3 \t\t\tRole \n      PUSH [tag] 665\t\t\t // ----- Admin / Role F\n      JUMP \t\t\t // ----- Admin / Role F\n    tag 764\t\t\t // ----- Admin / Role F\n      JUMPDEST \t\t\t // ----- Admin / Role F\n      SWAP1 \t\t\t\\n    }\\n\\n    // ----- Admin ...\n      POP \t\t\t\\n    }\\n\\n    // ----- Admin ...\n      SWAP2 \t\t\trride returns (string memory) ...\n      SWAP1 \t\t\trride returns (string memory) ...\n      POP \t\t\trride returns (string memory) ...\n      JUMP \t\t\trride returns (string memory) ...\n    tag 667\t\t\t--\\n    function mint(address ...\n      JUMPDEST \t\t\t--\\n    function mint(address ...\n      PUSH [tag] 766\t\t\t_ROLE) {\\n        _mint(t\n      DUP2 \t\t\tmint(\n      PUSH [tag] 666\t\t\t_ROLE) {\\n        _mint(t\n      JUMP \t\t\t_ROLE) {\\n        _mint(t\n    tag 766\t\t\t_ROLE) {\\n        _mint(t\n      JUMPDEST \t\t\t_ROLE) {\\n        _mint(t\n      DUP2 \t\t\t(MINT\n      EQ \t\t\tole(MINTER_ROLE) {\\n        _m...\n      PUSH [tag] 767\t\t\trnal onlyRole(MINTER_ROLE) {\\n...\n      JUMPI \t\t\trnal onlyRole(MINTER_ROLE) {\\n...\n      PUSH 0\t\t\t \n      PUSH 0\t\t\t \n      REVERT \t\t\tount);\\n     \n    tag 767\t\t\trnal onlyRole(MINTER_ROLE) {\\n...\n      JUMPDEST \t\t\trnal onlyRole(MINTER_ROLE) {\\n...\n      POP \t\t\t--\\n    function mint(address ...\n      JUMP \t\t\t--\\n    function mint(address ...\n    tag 668\t\t\t(to, amount);\\n    }\\n\\n    fu...\n      JUMPDEST \t\t\t(to, amount);\\n    }\\n\\n    fu...\n      PUSH 0\t\t\t(addr\n      DUP2 \t\t\tEEZER_\n      CALLDATALOAD \t\t\tl onlyRole(FREEZER_R\n      SWAP1 \t\t\t) external onlyRole(FREEZER_R\n      POP \t\t\t) external onlyRole(FREEZER_R\n      PUSH [tag] 769\t\t\t      require(!_frozenWallets[...\n      DUP2 \t\t\tts[ac\n      PUSH [tag] 667\t\t\t      require(!_frozenWallets[...\n      JUMP \t\t\t      require(!_frozenWallets[...\n    tag 769\t\t\t      require(!_frozenWallets[...\n      JUMPDEST \t\t\t      require(!_frozenWallets[...\n      SWAP3 \t\t\t(to, amount);\\n    }\\n\\n    fu...\n      SWAP2 \t\t\t(to, amount);\\n    }\\n\\n    fu...\n      POP \t\t\t(to, amount);\\n    }\\n\\n    fu...\n      POP \t\t\t(to, amount);\\n    }\\n\\n    fu...\n      JUMP \t\t\t(to, amount);\\n    }\\n\\n    fu...\n    tag 669\t\t\tady frozen\");\\n        _frozen...\n      JUMPDEST \t\t\tady frozen\");\\n        _frozen...\n      PUSH 0\t\t\taccount\n      DUP2 \t\t\t Wall\n      SWAP1 \t\t\t       emit Wall\n      POP \t\t\t       emit Wall\n      SWAP2 \t\t\tady frozen\");\\n        _frozen...\n      SWAP1 \t\t\tady frozen\");\\n        _frozen...\n      POP \t\t\tady frozen\");\\n        _frozen...\n      JUMP \t\t\tady frozen\");\\n        _frozen...\n    tag 670\t\t\tount);\\n    }\\n\\n    function ...\n      JUMPDEST \t\t\tount);\\n    }\\n\\n    function ...\n      PUSH [tag] 772\t\t\tole(FREEZER_ROLE) {\\n    \n      DUP2 \t\t\t{\\n   \n      PUSH [tag] 669\t\t\tole(FREEZER_ROLE) {\\n    \n      JUMP \t\t\tole(FREEZER_ROLE) {\\n    \n    tag 772\t\t\tole(FREEZER_ROLE) {\\n    \n      JUMPDEST \t\t\tole(FREEZER_ROLE) {\\n    \n      DUP2 \t\t\tl onl\n      EQ \t\t\trnal onlyRole(FREEZER_ROLE) {\\...\n      PUSH [tag] 773\t\t\tount) external onlyRole(FREEZE...\n      JUMPI \t\t\tount) external onlyRole(FREEZE...\n      PUSH 0\t\t\to\n      PUSH 0\t\t\t_\n      REVERT \t\t\tequire(_froz\n    tag 773\t\t\tount) external onlyRole(FREEZE...\n      JUMPDEST \t\t\tount) external onlyRole(FREEZE...\n      POP \t\t\tount);\\n    }\\n\\n    function ...\n      JUMP \t\t\tount);\\n    }\\n\\n    function ...\n    tag 671\t\t\tunt], \"Not frozen\");\\n        ...\n      JUMPDEST \t\t\tunt], \"Not frozen\");\\n        ...\n      PUSH 0\t\t\tcount\n      DUP2 \t\t\trozen(\n      CALLDATALOAD \t\t\tmit WalletUnfrozen(a\n      SWAP1 \t\t\t        emit WalletUnfrozen(a\n      POP \t\t\t        emit WalletUnfrozen(a\n      PUSH [tag] 775\t\t\t    }\\n\\n    function pause() ...\n      DUP2 \t\t\t exte\n      PUSH [tag] 670\t\t\t    }\\n\\n    function pause() ...\n      JUMP \t\t\t    }\\n\\n    function pause() ...\n    tag 775\t\t\t    }\\n\\n    function pause() ...\n      JUMPDEST \t\t\t    }\\n\\n    function pause() ...\n      SWAP3 \t\t\tunt], \"Not frozen\");\\n        ...\n      SWAP2 \t\t\tunt], \"Not frozen\");\\n        ...\n      POP \t\t\tunt], \"Not frozen\");\\n        ...\n      POP \t\t\tunt], \"Not frozen\");\\n        ...\n      JUMP \t\t\tunt], \"Not frozen\");\\n        ...\n    tag 69\t\t\t(PAUSER_ROLE) {\\n        _paus...\n      JUMPDEST \t\t\t(PAUSER_ROLE) {\\n        _paus...\n      PUSH 0\t\t\trnal o\n      PUSH 0\t\t\tyRole(\n      PUSH 40\t\t\t  \n      DUP4 \t\t\t();\\n    }\n      DUP6 \t\t\t _unpau\n      SUB \t\t\t     _unpause();\\n    }\\n\n      SLT \t\t\t\\n        _unpause();\\n    }\\n...\n      ISZERO \t\t\t) {\\n        _unpause();\\n    ...\n      PUSH [tag] 777\t\t\t) {\\n        _unpause();\\n    ...\n      JUMPI \t\t\t) {\\n        _unpause();\\n    ...\n      PUSH [tag] 778\t\t\tNEW FUNCTION: Toggle the trade...\n      PUSH [tag] 651\t\t\tNEW FUNCTION: Toggle the trade...\n      JUMP \t\t\tNEW FUNCTION: Toggle the trade...\n    tag 778\t\t\tNEW FUNCTION: Toggle the trade...\n      JUMPDEST \t\t\tNEW FUNCTION: Toggle the trade...\n    tag 777\t\t\t) {\\n        _unpause();\\n    ...\n      JUMPDEST \t\t\t) {\\n        _unpause();\\n    ...\n      PUSH 0\t\t\tI\n      PUSH [tag] 779\t\t\tRestrictionActive = active;\\n ...\n      DUP6 \t\t\terRestr\n      DUP3 \t\t\temit T\n      DUP7 \t\t\te;\\n      \n      ADD \t\t\tctive;\\n        emit Tr\n      PUSH [tag] 668\t\t\tRestrictionActive = active;\\n ...\n      JUMP \t\t\tRestrictionActive = active;\\n ...\n    tag 779\t\t\tRestrictionActive = active;\\n ...\n      JUMPDEST \t\t\tRestrictionActive = active;\\n ...\n      SWAP3 \t\t\t    traderRestrictionActive = ...\n      POP \t\t\t    traderRestrictionActive = ...\n      POP \t\t\texternal onlyRole(DEFAULT_ADMI...\n      PUSH 20\t\t\tl \n      PUSH [tag] 780\t\t\ttion _update(address from, add...\n      DUP6 \t\t\t6 value\n      DUP3 \t\t\to, uin\n      DUP7 \t\t\t, address\n      ADD \t\t\tfrom, address to, uint\n      PUSH [tag] 671\t\t\ttion _update(address from, add...\n      JUMP \t\t\ttion _update(address from, add...\n    tag 780\t\t\ttion _update(address from, add...\n      JUMPDEST \t\t\ttion _update(address from, add...\n      SWAP2 \t\t\t-\\n    function _update(addres...\n      POP \t\t\t-\\n    function _update(addres...\n      POP \t\t\t;\\n    }\\n\\n    // ----- Inter...\n      SWAP3 \t\t\t(PAUSER_ROLE) {\\n        _paus...\n      POP \t\t\t(PAUSER_ROLE) {\\n        _paus...\n      SWAP3 \t\t\t(PAUSER_ROLE) {\\n        _paus...\n      SWAP1 \t\t\t(PAUSER_ROLE) {\\n        _paus...\n      POP \t\t\t(PAUSER_ROLE) {\\n        _paus...\n      JUMP \t\t\t(PAUSER_ROLE) {\\n        _paus...\n    tag 672\t\t\t   override(ERC20Upgradeable, ...\n      JUMPDEST \t\t\t   override(ERC20Upgradeable, ...\n      PUSH [tag] 782\t\t\tk\\n        require(!_froz\n      DUP2 \t\t\t!_fro\n      PUSH [tag] 669\t\t\tk\\n        require(!_froz\n      JUMP \t\t\tk\\n        require(!_froz\n    tag 782\t\t\tk\\n        require(!_froz\n      JUMPDEST \t\t\tk\\n        require(!_froz\n      DUP3 \t\t\t ch\n      MSTORE \t\t\t Freeze check\\n        require...\n      POP \t\t\t   override(ERC20Upgradeable, ...\n      POP \t\t\t   override(ERC20Upgradeable, ...\n      JUMP \t\t\t   override(ERC20Upgradeable, ...\n    tag 76\t\t\tm] && !_frozenWallets[to], \"Wa...\n      JUMPDEST \t\t\tm] && !_frozenWallets[to], \"Wa...\n      PUSH 0\t\t\t ONL\n      PUSH 20\t\t\tue\n      DUP3 \t\t\tctive is \n      ADD \t\t\tionActive is true\\n\n      SWAP1 \t\t\tRestrictionActive is true\\n\n      POP \t\t\tRestrictionActive is true\\n\n      PUSH [tag] 784\t\t\t (traderRestrictionActive && f...\n      PUSH 0\t\t\t \n      DUP4 \t\t\taddress(0\n      ADD \t\t\t != address(0)) {\n      DUP5 \t\t\t(0) &&\n      PUSH [tag] 672\t\t\t (traderRestrictionActive && f...\n      JUMP \t\t\t (traderRestrictionActive && f...\n    tag 784\t\t\t (traderRestrictionActive && f...\n      JUMPDEST \t\t\t (traderRestrictionActive && f...\n      SWAP3 \t\t\tm] && !_frozenWallets[to], \"Wa...\n      SWAP2 \t\t\tm] && !_frozenWallets[to], \"Wa...\n      POP \t\t\tm] && !_frozenWallets[to], \"Wa...\n      POP \t\t\tm] && !_frozenWallets[to], \"Wa...\n      JUMP \t\t\tm] && !_frozenWallets[to], \"Wa...\n    tag 80\t\t\tequire(hasRole(TRADER_ROLE, fr...\n      JUMPDEST \t\t\tequire(hasRole(TRADER_ROLE, fr...\n      PUSH 0\t\t\tif (!h\n      PUSH 0\t\t\tRole(T\n      PUSH 0\t\t\tDER_RO\n      PUSH 60\t\t\tf(\n      DUP5 \t\t\tire(balan\n      DUP7 \t\t\t     re\n      SUB \t\t\t         require(balanc\n      SLT \t\t\t             require(balanceOf...\n      ISZERO \t\t\t                require(balanc...\n      PUSH [tag] 786\t\t\t                require(balanc...\n      JUMPI \t\t\t                require(balanc...\n      PUSH [tag] 787\t\t\t== 0, \"Receiver has balance bu...\n      PUSH [tag] 651\t\t\t== 0, \"Receiver has balance bu...\n      JUMP \t\t\t== 0, \"Receiver has balance bu...\n    tag 787\t\t\t== 0, \"Receiver has balance bu...\n      JUMPDEST \t\t\t== 0, \"Receiver has balance bu...\n    tag 786\t\t\t                require(balanc...\n      JUMPDEST \t\t\t                require(balanc...\n      PUSH 0\t\t\ts\n      PUSH [tag] 788\t\t\tfer\\n        super._update(fro...\n      DUP7 \t\t\t   }\\n\\n \n      DUP3 \t\t\tvalue)\n      DUP8 \t\t\t(from, to\n      ADD \t\t\tdate(from, to, value);\n      PUSH [tag] 668\t\t\tfer\\n        super._update(fro...\n      JUMP \t\t\tfer\\n        super._update(fro...\n    tag 788\t\t\tfer\\n        super._update(fro...\n      JUMPDEST \t\t\tfer\\n        super._update(fro...\n      SWAP4 \t\t\ttual transfer\\n        super._...\n      POP \t\t\ttual transfer\\n        super._...\n      POP \t\t\t Let ERC20Pausable handle paus...\n      PUSH 20\t\t\t) \n      PUSH [tag] 789\t\t\torizeUpgrade(address newImplem...\n      DUP7 \t\t\t   inte\n      DUP3 \t\t\ton)\\n  \n      DUP8 \t\t\tmplementa\n      ADD \t\t\tnewImplementation)\\n   \n      PUSH [tag] 668\t\t\torizeUpgrade(address newImplem...\n      JUMP \t\t\torizeUpgrade(address newImplem...\n    tag 789\t\t\torizeUpgrade(address newImplem...\n      JUMPDEST \t\t\torizeUpgrade(address newImplem...\n      SWAP3 \t\t\ttion _authorizeUpgrade(address...\n      POP \t\t\ttion _authorizeUpgrade(address...\n      POP \t\t\tade Authorization (only owner)...\n      PUSH 40\t\t\t\n      PUSH [tag] 790\t\t\t\n      DUP7 \t\t\t\n      DUP3 \t\t\t\n      DUP8 \t\t\t\n      ADD \t\t\t\n      PUSH [tag] 671\t\t\t\n      JUMP \t\t\t\n    tag 790\t\t\t\n      JUMPDEST \t\t\t\n      SWAP2 \t\t\t\n      POP \t\t\t\n      POP \t\t\t\\n        onlyOwner\\n    {}\\n}...\n      SWAP3 \t\t\tequire(hasRole(TRADER_ROLE, fr...\n      POP \t\t\tequire(hasRole(TRADER_ROLE, fr...\n      SWAP3 \t\t\tequire(hasRole(TRADER_ROLE, fr...\n      POP \t\t\tequire(hasRole(TRADER_ROLE, fr...\n      SWAP3 \t\t\tequire(hasRole(TRADER_ROLE, fr...\n      JUMP \t\t\tequire(hasRole(TRADER_ROLE, fr...\n    tag 673\t\t\t\n      JUMPDEST \t\t\t\n      PUSH [tag] 792\t\t\t\n      DUP2 \t\t\t\n      PUSH [tag] 658\t\t\t\n      JUMP \t\t\t\n    tag 792\t\t\t\n      JUMPDEST \t\t\t\n      DUP2 \t\t\t\n      EQ \t\t\t\n      PUSH [tag] 793\t\t\t\n      JUMPI \t\t\t\n      PUSH 0\t\t\t\n      PUSH 0\t\t\t\n      REVERT \t\t\t\n    tag 793\t\t\t\n      JUMPDEST \t\t\t\n      POP \t\t\t\n      JUMP \t\t\t\n    tag 674\t\t\t\n      JUMPDEST \t\t\t\n      PUSH 0\t\t\t\n      DUP2 \t\t\t\n      CALLDATALOAD \t\t\t\n      SWAP1 \t\t\t\n      POP \t\t\t\n      PUSH [tag] 795\t\t\t\n      DUP2 \t\t\t\n      PUSH [tag] 673\t\t\t\n      JUMP \t\t\t\n    tag 795\t\t\t\n      JUMPDEST \t\t\t\n      SWAP3 \t\t\t\n      SWAP2 \t\t\t\n      POP \t\t\t\n      POP \t\t\t\n      JUMP \t\t\t\n    tag 86\t\t\t\n      JUMPDEST \t\t\t\n      PUSH 0\t\t\t\n      PUSH 20\t\t\t\n      DUP3 \t\t\t\n      DUP5 \t\t\t\n      SUB \t\t\t\n      SLT \t\t\t\n      ISZERO \t\t\t\n      PUSH [tag] 797\t\t\t\n      JUMPI \t\t\t\n      PUSH [tag] 798\t\t\t\n      PUSH [tag] 651\t\t\t\n      JUMP \t\t\t\n    tag 798\t\t\t\n      JUMPDEST \t\t\t\n    tag 797\t\t\t\n      JUMPDEST \t\t\t\n      PUSH 0\t\t\t\n      PUSH [tag] 799\t\t\t\n      DUP5 \t\t\t\n      DUP3 \t\t\t\n      DUP6 \t\t\t\n      ADD \t\t\t\n      PUSH [tag] 674\t\t\t\n      JUMP \t\t\t\n    tag 799\t\t\t\n      JUMPDEST \t\t\t\n      SWAP2 \t\t\t\n      POP \t\t\t\n      POP \t\t\t\n      SWAP3 \t\t\t\n      SWAP2 \t\t\t\n      POP \t\t\t\n      POP \t\t\t\n      JUMP \t\t\t\n    tag 675\t\t\t\n      JUMPDEST \t\t\t\n      PUSH [tag] 801\t\t\t\n      DUP2 \t\t\t\n      PUSH [tag] 656\t\t\t\n      JUMP \t\t\t\n    tag 801\t\t\t\n      JUMPDEST \t\t\t\n      DUP2 \t\t\t\n      EQ \t\t\t\n      PUSH [tag] 802\t\t\t\n      JUMPI \t\t\t\n      PUSH 0\t\t\t\n      PUSH 0\t\t\t\n      REVERT \t\t\t\n    tag 802\t\t\t\n      JUMPDEST \t\t\t\n      POP \t\t\t\n      JUMP \t\t\t\n    tag 676\t\t\t\n      JUMPDEST \t\t\t\n      PUSH 0\t\t\t\n      DUP2 \t\t\t\n      CALLDATALOAD \t\t\t\n      SWAP1 \t\t\t\n      POP \t\t\t\n      PUSH [tag] 804\t\t\t\n      DUP2 \t\t\t\n      PUSH [tag] 675\t\t\t\n      JUMP \t\t\t\n    tag 804\t\t\t\n      JUMPDEST \t\t\t\n      SWAP3 \t\t\t\n      SWAP2 \t\t\t\n      POP \t\t\t\n      POP \t\t\t\n      JUMP \t\t\t\n    tag 92\t\t\t\n      JUMPDEST \t\t\t\n      PUSH 0\t\t\t\n      PUSH 20\t\t\t\n      DUP3 \t\t\t\n      DUP5 \t\t\t\n      SUB \t\t\t\n      SLT \t\t\t\n      ISZERO \t\t\t\n      PUSH [tag] 806\t\t\t\n      JUMPI \t\t\t\n      PUSH [tag] 807\t\t\t\n      PUSH [tag] 651\t\t\t\n      JUMP \t\t\t\n    tag 807\t\t\t\n      JUMPDEST \t\t\t\n    tag 806\t\t\t\n      JUMPDEST \t\t\t\n      PUSH 0\t\t\t\n      PUSH [tag] 808\t\t\t\n      DUP5 \t\t\t\n      DUP3 \t\t\t\n      DUP6 \t\t\t\n      ADD \t\t\t\n      PUSH [tag] 676\t\t\t\n      JUMP \t\t\t\n    tag 808\t\t\t\n      JUMPDEST \t\t\t\n      SWAP2 \t\t\t\n      POP \t\t\t\n      POP \t\t\t\n      SWAP3 \t\t\t\n      SWAP2 \t\t\t\n      POP \t\t\t\n      POP \t\t\t\n      JUMP \t\t\t\n    tag 101\t\t\t\n      JUMPDEST \t\t\t\n      PUSH 0\t\t\t\n      PUSH 0\t\t\t\n      PUSH 40\t\t\t\n      DUP4 \t\t\t\n      DUP6 \t\t\t\n      SUB \t\t\t\n      SLT \t\t\t\n      ISZERO \t\t\t\n      PUSH [tag] 810\t\t\t\n      JUMPI \t\t\t\n      PUSH [tag] 811\t\t\t\n      PUSH [tag] 651\t\t\t\n      JUMP \t\t\t\n    tag 811\t\t\t\n      JUMPDEST \t\t\t\n    tag 810\t\t\t\n      JUMPDEST \t\t\t\n      PUSH 0\t\t\t\n      PUSH [tag] 812\t\t\t\n      DUP6 \t\t\t\n      DUP3 \t\t\t\n      DUP7 \t\t\t\n      ADD \t\t\t\n      PUSH [tag] 674\t\t\t\n      JUMP \t\t\t\n    tag 812\t\t\t\n      JUMPDEST \t\t\t\n      SWAP3 \t\t\t\n      POP \t\t\t\n      POP \t\t\t\n      PUSH 20\t\t\t\n      PUSH [tag] 813\t\t\t\n      DUP6 \t\t\t\n      DUP3 \t\t\t\n      DUP7 \t\t\t\n      ADD \t\t\t\n      PUSH [tag] 668\t\t\t\n      JUMP \t\t\t\n    tag 813\t\t\t\n      JUMPDEST \t\t\t\n      SWAP2 \t\t\t\n      POP \t\t\t\n      POP \t\t\t\n      SWAP3 \t\t\t\n      POP \t\t\t\n      SWAP3 \t\t\t\n      SWAP1 \t\t\t\n      POP \t\t\t\n      JUMP \t\t\t\n    tag 677\t\t\t\n      JUMPDEST \t\t\t\n      PUSH 0\t\t\t\n      PUSH FF\t\t\t\n      DUP3 \t\t\t\n      AND \t\t\t\n      SWAP1 \t\t\t\n      POP \t\t\t\n      SWAP2 \t\t\t\n      SWAP1 \t\t\t\n      POP \t\t\t\n      JUMP \t\t\t\n    tag 678\t\t\t\n      JUMPDEST \t\t\t\n      PUSH [tag] 816\t\t\t\n      DUP2 \t\t\t\n      PUSH [tag] 677\t\t\t\n      JUMP \t\t\t\n    tag 816\t\t\t\n      JUMPDEST \t\t\t\n      DUP3 \t\t\t\n      MSTORE \t\t\t\n      POP \t\t\t\n      POP \t\t\t\n      JUMP \t\t\t\n    tag 107\t\t\t\n      JUMPDEST \t\t\t\n      PUSH 0\t\t\t\n      PUSH 20\t\t\t\n      DUP3 \t\t\t\n      ADD \t\t\t\n      SWAP1 \t\t\t\n      POP \t\t\t\n      PUSH [tag] 818\t\t\t\n      PUSH 0\t\t\t\n      DUP4 \t\t\t\n      ADD \t\t\t\n      DUP5 \t\t\t\n      PUSH [tag] 678\t\t\t\n      JUMP \t\t\t\n    tag 818\t\t\t\n      JUMPDEST \t\t\t\n      SWAP3 \t\t\t\n      SWAP2 \t\t\t\n      POP \t\t\t\n      POP \t\t\t\n      JUMP \t\t\t\n    tag 679\t\t\t\n      JUMPDEST \t\t\t\n      PUSH 0\t\t\t\n      PUSH 0\t\t\t\n      REVERT \t\t\t\n    tag 680\t\t\t\n      JUMPDEST \t\t\t\n      PUSH 0\t\t\t\n      PUSH 0\t\t\t\n      REVERT \t\t\t\n    tag 681\t\t\t\n      JUMPDEST \t\t\t\n      PUSH 0\t\t\t\n      PUSH 0\t\t\t\n      REVERT \t\t\t\n    tag 682\t\t\t\n      JUMPDEST \t\t\t\n      PUSH 0\t\t\t\n      PUSH 0\t\t\t\n      DUP4 \t\t\t\n      PUSH 1F\t\t\t\n      DUP5 \t\t\t\n      ADD \t\t\t\n      SLT \t\t\t\n      PUSH [tag] 823\t\t\t\n      JUMPI \t\t\t\n      PUSH [tag] 824\t\t\t\n      PUSH [tag] 679\t\t\t\n      JUMP \t\t\t\n    tag 824\t\t\t\n      JUMPDEST \t\t\t\n    tag 823\t\t\t\n      JUMPDEST \t\t\t\n      DUP3 \t\t\t\n      CALLDATALOAD \t\t\t\n      SWAP1 \t\t\t\n      POP \t\t\t\n      PUSH FFFFFFFFFFFFFFFF\t\t\t\n      DUP2 \t\t\t\n      GT \t\t\t\n      ISZERO \t\t\t\n      PUSH [tag] 825\t\t\t\n      JUMPI \t\t\t\n      PUSH [tag] 826\t\t\t\n      PUSH [tag] 680\t\t\t\n      JUMP \t\t\t\n    tag 826\t\t\t\n      JUMPDEST \t\t\t\n    tag 825\t\t\t\n      JUMPDEST \t\t\t\n      PUSH 20\t\t\t\n      DUP4 \t\t\t\n      ADD \t\t\t\n      SWAP2 \t\t\t\n      POP \t\t\t\n      DUP4 \t\t\t\n      PUSH 1\t\t\t\n      DUP3 \t\t\t\n      MUL \t\t\t\n      DUP4 \t\t\t\n      ADD \t\t\t\n      GT \t\t\t\n      ISZERO \t\t\t\n      PUSH [tag] 827\t\t\t\n      JUMPI \t\t\t\n      PUSH [tag] 828\t\t\t\n      PUSH [tag] 681\t\t\t\n      JUMP \t\t\t\n    tag 828\t\t\t\n      JUMPDEST \t\t\t\n    tag 827\t\t\t\n      JUMPDEST \t\t\t\n      SWAP3 \t\t\t\n      POP \t\t\t\n      SWAP3 \t\t\t\n      SWAP1 \t\t\t\n      POP \t\t\t\n      JUMP \t\t\t\n    tag 122\t\t\t\n      JUMPDEST \t\t\t\n      PUSH 0\t\t\t\n      PUSH 0\t\t\t\n      PUSH 0\t\t\t\n      PUSH 0\t\t\t\n      PUSH 40\t\t\t\n      DUP6 \t\t\t\n      DUP8 \t\t\t\n      SUB \t\t\t\n      SLT \t\t\t\n      ISZERO \t\t\t\n      PUSH [tag] 830\t\t\t\n      JUMPI \t\t\t\n      PUSH [tag] 831\t\t\t\n      PUSH [tag] 651\t\t\t\n      JUMP \t\t\t\n    tag 831\t\t\t\n      JUMPDEST \t\t\t\n    tag 830\t\t\t\n      JUMPDEST \t\t\t\n      PUSH 0\t\t\t\n      DUP6 \t\t\t\n      ADD \t\t\t\n      CALLDATALOAD \t\t\t\n      PUSH FFFFFFFFFFFFFFFF\t\t\t\n      DUP2 \t\t\t\n      GT \t\t\t\n      ISZERO \t\t\t\n      PUSH [tag] 832\t\t\t\n      JUMPI \t\t\t\n      PUSH [tag] 833\t\t\t\n      PUSH [tag] 652\t\t\t\n      JUMP \t\t\t\n    tag 833\t\t\t\n      JUMPDEST \t\t\t\n    tag 832\t\t\t\n      JUMPDEST \t\t\t\n      PUSH [tag] 834\t\t\t\n      DUP8 \t\t\t\n      DUP3 \t\t\t\n      DUP9 \t\t\t\n      ADD \t\t\t\n      PUSH [tag] 682\t\t\t\n      JUMP \t\t\t\n    tag 834\t\t\t\n      JUMPDEST \t\t\t\n      SWAP5 \t\t\t\n      POP \t\t\t\n      SWAP5 \t\t\t\n      POP \t\t\t\n      POP \t\t\t\n      PUSH 20\t\t\t\n      DUP6 \t\t\t\n      ADD \t\t\t\n      CALLDATALOAD \t\t\t\n      PUSH FFFFFFFFFFFFFFFF\t\t\t\n      DUP2 \t\t\t\n      GT \t\t\t\n      ISZERO \t\t\t\n      PUSH [tag] 835\t\t\t\n      JUMPI \t\t\t\n      PUSH [tag] 836\t\t\t\n      PUSH [tag] 652\t\t\t\n      JUMP \t\t\t\n    tag 836\t\t\t\n      JUMPDEST \t\t\t\n    tag 835\t\t\t\n      JUMPDEST \t\t\t\n      PUSH [tag] 837\t\t\t\n      DUP8 \t\t\t\n      DUP3 \t\t\t\n      DUP9 \t\t\t\n      ADD \t\t\t\n      PUSH [tag] 682\t\t\t\n      JUMP \t\t\t\n    tag 837\t\t\t\n      JUMPDEST \t\t\t\n      SWAP3 \t\t\t\n      POP \t\t\t\n      SWAP3 \t\t\t\n      POP \t\t\t\n      POP \t\t\t\n      SWAP3 \t\t\t\n      SWAP6 \t\t\t\n      SWAP2 \t\t\t\n      SWAP5 \t\t\t\n      POP \t\t\t\n      SWAP3 \t\t\t\n      POP \t\t\t\n      JUMP \t\t\t\n    tag 683\t\t\t\n      JUMPDEST \t\t\t\n      PUSH 0\t\t\t\n      PUSH 0\t\t\t\n      REVERT \t\t\t\n    tag 684\t\t\t\n      JUMPDEST \t\t\t\n      PUSH 4E487B7100000000000000000000000000000000000000000000000000000000\t\t\t\n      PUSH 0\t\t\t\n      MSTORE \t\t\t\n      PUSH 41\t\t\t\n      PUSH 4\t\t\t\n      MSTORE \t\t\t\n      PUSH 24\t\t\t\n      PUSH 0\t\t\t\n      REVERT \t\t\t\n    tag 685\t\t\t\n      JUMPDEST \t\t\t\n      PUSH [tag] 841\t\t\t\n      DUP3 \t\t\t\n      PUSH [tag] 663\t\t\t\n      JUMP \t\t\t\n    tag 841\t\t\t\n      JUMPDEST \t\t\t\n      DUP2 \t\t\t\n      ADD \t\t\t\n      DUP2 \t\t\t\n      DUP2 \t\t\t\n      LT \t\t\t\n      PUSH FFFFFFFFFFFFFFFF\t\t\t\n      DUP3 \t\t\t\n      GT \t\t\t\n      OR \t\t\t\n      ISZERO \t\t\t\n      PUSH [tag] 842\t\t\t\n      JUMPI \t\t\t\n      PUSH [tag] 843\t\t\t\n      PUSH [tag] 684\t\t\t\n      JUMP \t\t\t\n    tag 843\t\t\t\n      JUMPDEST \t\t\t\n    tag 842\t\t\t\n      JUMPDEST \t\t\t\n      DUP1 \t\t\t\n      PUSH 40\t\t\t\n      MSTORE \t\t\t\n      POP \t\t\t\n      POP \t\t\t\n      POP \t\t\t\n      JUMP \t\t\t\n    tag 686\t\t\t\n      JUMPDEST \t\t\t\n      PUSH 0\t\t\t\n      PUSH [tag] 845\t\t\t\n      PUSH [tag] 650\t\t\t\n      JUMP \t\t\t\n    tag 845\t\t\t\n      JUMPDEST \t\t\t\n      SWAP1 \t\t\t\n      POP \t\t\t\n      PUSH [tag] 846\t\t\t\n      DUP3 \t\t\t\n      DUP3 \t\t\t\n      PUSH [tag] 685\t\t\t\n      JUMP \t\t\t\n    tag 846\t\t\t\n      JUMPDEST \t\t\t\n      SWAP2 \t\t\t\n      SWAP1 \t\t\t\n      POP \t\t\t\n      JUMP \t\t\t\n    tag 687\t\t\t\n      JUMPDEST \t\t\t\n      PUSH 0\t\t\t\n      PUSH FFFFFFFFFFFFFFFF\t\t\t\n      DUP3 \t\t\t\n      GT \t\t\t\n      ISZERO \t\t\t\n      PUSH [tag] 848\t\t\t\n      JUMPI \t\t\t\n      PUSH [tag] 849\t\t\t\n      PUSH [tag] 684\t\t\t\n      JUMP \t\t\t\n    tag 849\t\t\t\n      JUMPDEST \t\t\t\n    tag 848\t\t\t\n      JUMPDEST \t\t\t\n      PUSH [tag] 850\t\t\t\n      DUP3 \t\t\t\n      PUSH [tag] 663\t\t\t\n      JUMP \t\t\t\n    tag 850\t\t\t\n      JUMPDEST \t\t\t\n      SWAP1 \t\t\t\n      POP \t\t\t\n      PUSH 20\t\t\t\n      DUP2 \t\t\t\n      ADD \t\t\t\n      SWAP1 \t\t\t\n      POP \t\t\t\n      SWAP2 \t\t\t\n      SWAP1 \t\t\t\n      POP \t\t\t\n      JUMP \t\t\t\n    tag 688\t\t\t\n      JUMPDEST \t\t\t\n      DUP3 \t\t\t\n      DUP2 \t\t\t\n      DUP4 \t\t\t\n      CALLDATACOPY \t\t\t\n      PUSH 0\t\t\t\n      DUP4 \t\t\t\n      DUP4 \t\t\t\n      ADD \t\t\t\n      MSTORE \t\t\t\n      POP \t\t\t\n      POP \t\t\t\n      POP \t\t\t\n      JUMP \t\t\t\n    tag 689\t\t\t\n      JUMPDEST \t\t\t\n      PUSH 0\t\t\t\n      PUSH [tag] 853\t\t\t\n      PUSH [tag] 854\t\t\t\n      DUP5 \t\t\t\n      PUSH [tag] 687\t\t\t\n      JUMP \t\t\t\n    tag 854\t\t\t\n      JUMPDEST \t\t\t\n      PUSH [tag] 686\t\t\t\n      JUMP \t\t\t\n    tag 853\t\t\t\n      JUMPDEST \t\t\t\n      SWAP1 \t\t\t\n      POP \t\t\t\n      DUP3 \t\t\t\n      DUP2 \t\t\t\n      MSTORE \t\t\t\n      PUSH 20\t\t\t\n      DUP2 \t\t\t\n      ADD \t\t\t\n      DUP5 \t\t\t\n      DUP5 \t\t\t\n      DUP5 \t\t\t\n      ADD \t\t\t\n      GT \t\t\t\n      ISZERO \t\t\t\n      PUSH [tag] 855\t\t\t\n      JUMPI \t\t\t\n      PUSH [tag] 856\t\t\t\n      PUSH [tag] 683\t\t\t\n      JUMP \t\t\t\n    tag 856\t\t\t\n      JUMPDEST \t\t\t\n    tag 855\t\t\t\n      JUMPDEST \t\t\t\n      PUSH [tag] 857\t\t\t\n      DUP5 \t\t\t\n      DUP3 \t\t\t\n      DUP6 \t\t\t\n      PUSH [tag] 688\t\t\t\n      JUMP \t\t\t\n    tag 857\t\t\t\n      JUMPDEST \t\t\t\n      POP \t\t\t\n      SWAP4 \t\t\t\n      SWAP3 \t\t\t\n      POP \t\t\t\n      POP \t\t\t\n      POP \t\t\t\n      JUMP \t\t\t\n    tag 690\t\t\t\n      JUMPDEST \t\t\t\n      PUSH 0\t\t\t\n      DUP3 \t\t\t\n      PUSH 1F\t\t\t\n      DUP4 \t\t\t\n      ADD \t\t\t\n      SLT \t\t\t\n      PUSH [tag] 859\t\t\t\n      JUMPI \t\t\t\n      PUSH [tag] 860\t\t\t\n      PUSH [tag] 679\t\t\t\n      JUMP \t\t\t\n    tag 860\t\t\t\n      JUMPDEST \t\t\t\n    tag 859\t\t\t\n      JUMPDEST \t\t\t\n      DUP2 \t\t\t\n      CALLDATALOAD \t\t\t\n      PUSH [tag] 861\t\t\t\n      DUP5 \t\t\t\n      DUP3 \t\t\t\n      PUSH 20\t\t\t\n      DUP7 \t\t\t\n      ADD \t\t\t\n      PUSH [tag] 689\t\t\t\n      JUMP \t\t\t\n    tag 861\t\t\t\n      JUMPDEST \t\t\t\n      SWAP2 \t\t\t\n      POP \t\t\t\n      POP \t\t\t\n      SWAP3 \t\t\t\n      SWAP2 \t\t\t\n      POP \t\t\t\n      POP \t\t\t\n      JUMP \t\t\t\n    tag 126\t\t\t\n      JUMPDEST \t\t\t\n      PUSH 0\t\t\t\n      PUSH 0\t\t\t\n      PUSH 40\t\t\t\n      DUP4 \t\t\t\n      DUP6 \t\t\t\n      SUB \t\t\t\n      SLT \t\t\t\n      ISZERO \t\t\t\n      PUSH [tag] 863\t\t\t\n      JUMPI \t\t\t\n      PUSH [tag] 864\t\t\t\n      PUSH [tag] 651\t\t\t\n      JUMP \t\t\t\n    tag 864\t\t\t\n      JUMPDEST \t\t\t\n    tag 863\t\t\t\n      JUMPDEST \t\t\t\n      PUSH 0\t\t\t\n      PUSH [tag] 865\t\t\t\n      DUP6 \t\t\t\n      DUP3 \t\t\t\n      DUP7 \t\t\t\n      ADD \t\t\t\n      PUSH [tag] 668\t\t\t\n      JUMP \t\t\t\n    tag 865\t\t\t\n      JUMPDEST \t\t\t\n      SWAP3 \t\t\t\n      POP \t\t\t\n      POP \t\t\t\n      PUSH 20\t\t\t\n      DUP4 \t\t\t\n      ADD \t\t\t\n      CALLDATALOAD \t\t\t\n      PUSH FFFFFFFFFFFFFFFF\t\t\t\n      DUP2 \t\t\t\n      GT \t\t\t\n      ISZERO \t\t\t\n      PUSH [tag] 866\t\t\t\n      JUMPI \t\t\t\n      PUSH [tag] 867\t\t\t\n      PUSH [tag] 652\t\t\t\n      JUMP \t\t\t\n    tag 867\t\t\t\n      JUMPDEST \t\t\t\n    tag 866\t\t\t\n      JUMPDEST \t\t\t\n      PUSH [tag] 868\t\t\t\n      DUP6 \t\t\t\n      DUP3 \t\t\t\n      DUP7 \t\t\t\n      ADD \t\t\t\n      PUSH [tag] 690\t\t\t\n      JUMP \t\t\t\n    tag 868\t\t\t\n      JUMPDEST \t\t\t\n      SWAP2 \t\t\t\n      POP \t\t\t\n      POP \t\t\t\n      SWAP3 \t\t\t\n      POP \t\t\t\n      SWAP3 \t\t\t\n      SWAP1 \t\t\t\n      POP \t\t\t\n      JUMP \t\t\t\n    tag 142\t\t\t\n      JUMPDEST \t\t\t\n      PUSH 0\t\t\t\n      PUSH 20\t\t\t\n      DUP3 \t\t\t\n      DUP5 \t\t\t\n      SUB \t\t\t\n      SLT \t\t\t\n      ISZERO \t\t\t\n      PUSH [tag] 870\t\t\t\n      JUMPI \t\t\t\n      PUSH [tag] 871\t\t\t\n      PUSH [tag] 651\t\t\t\n      JUMP \t\t\t\n    tag 871\t\t\t\n      JUMPDEST \t\t\t\n    tag 870\t\t\t\n      JUMPDEST \t\t\t\n      PUSH 0\t\t\t\n      PUSH [tag] 872\t\t\t\n      DUP5 \t\t\t\n      DUP3 \t\t\t\n      DUP6 \t\t\t\n      ADD \t\t\t\n      PUSH [tag] 668\t\t\t\n      JUMP \t\t\t\n    tag 872\t\t\t\n      JUMPDEST \t\t\t\n      SWAP2 \t\t\t\n      POP \t\t\t\n      POP \t\t\t\n      SWAP3 \t\t\t\n      SWAP2 \t\t\t\n      POP \t\t\t\n      POP \t\t\t\n      JUMP \t\t\t\n    tag 691\t\t\t\n      JUMPDEST \t\t\t\n      PUSH [tag] 874\t\t\t\n      DUP2 \t\t\t\n      PUSH [tag] 666\t\t\t\n      JUMP \t\t\t\n    tag 874\t\t\t\n      JUMPDEST \t\t\t\n      DUP3 \t\t\t\n      MSTORE \t\t\t\n      POP \t\t\t\n      POP \t\t\t\n      JUMP \t\t\t\n    tag 162\t\t\t\n      JUMPDEST \t\t\t\n      PUSH 0\t\t\t\n      PUSH 20\t\t\t\n      DUP3 \t\t\t\n      ADD \t\t\t\n      SWAP1 \t\t\t\n      POP \t\t\t\n      PUSH [tag] 876\t\t\t\n      PUSH 0\t\t\t\n      DUP4 \t\t\t\n      ADD \t\t\t\n      DUP5 \t\t\t\n      PUSH [tag] 691\t\t\t\n      JUMP \t\t\t\n    tag 876\t\t\t\n      JUMPDEST \t\t\t\n      SWAP3 \t\t\t\n      SWAP2 \t\t\t\n      POP \t\t\t\n      POP \t\t\t\n      JUMP \t\t\t\n    tag 192\t\t\t\n      JUMPDEST \t\t\t\n      PUSH 0\t\t\t\n      PUSH 0\t\t\t\n      PUSH 20\t\t\t\n      DUP4 \t\t\t\n      DUP6 \t\t\t\n      SUB \t\t\t\n      SLT \t\t\t\n      ISZERO \t\t\t\n      PUSH [tag] 878\t\t\t\n      JUMPI \t\t\t\n      PUSH [tag] 879\t\t\t\n      PUSH [tag] 651\t\t\t\n      JUMP \t\t\t\n    tag 879\t\t\t\n      JUMPDEST \t\t\t\n    tag 878\t\t\t\n      JUMPDEST \t\t\t\n      PUSH 0\t\t\t\n      DUP4 \t\t\t\n      ADD \t\t\t\n      CALLDATALOAD \t\t\t\n      PUSH FFFFFFFFFFFFFFFF\t\t\t\n      DUP2 \t\t\t\n      GT \t\t\t\n      ISZERO \t\t\t\n      PUSH [tag] 880\t\t\t\n      JUMPI \t\t\t\n      PUSH [tag] 881\t\t\t\n      PUSH [tag] 652\t\t\t\n      JUMP \t\t\t\n    tag 881\t\t\t\n      JUMPDEST \t\t\t\n    tag 880\t\t\t\n      JUMPDEST \t\t\t\n      PUSH [tag] 882\t\t\t\n      DUP6 \t\t\t\n      DUP3 \t\t\t\n      DUP7 \t\t\t\n      ADD \t\t\t\n      PUSH [tag] 682\t\t\t\n      JUMP \t\t\t\n    tag 882\t\t\t\n      JUMPDEST \t\t\t\n      SWAP3 \t\t\t\n      POP \t\t\t\n      SWAP3 \t\t\t\n      POP \t\t\t\n      POP \t\t\t\n      SWAP3 \t\t\t\n      POP \t\t\t\n      SWAP3 \t\t\t\n      SWAP1 \t\t\t\n      POP \t\t\t\n      JUMP \t\t\t\n    tag 209\t\t\t\n      JUMPDEST \t\t\t\n      PUSH 0\t\t\t\n      PUSH 0\t\t\t\n      PUSH 40\t\t\t\n      DUP4 \t\t\t\n      DUP6 \t\t\t\n      SUB \t\t\t\n      SLT \t\t\t\n      ISZERO \t\t\t\n      PUSH [tag] 884\t\t\t\n      JUMPI \t\t\t\n      PUSH [tag] 885\t\t\t\n      PUSH [tag] 651\t\t\t\n      JUMP \t\t\t\n    tag 885\t\t\t\n      JUMPDEST \t\t\t\n    tag 884\t\t\t\n      JUMPDEST \t\t\t\n      PUSH 0\t\t\t\n      PUSH [tag] 886\t\t\t\n      DUP6 \t\t\t\n      DUP3 \t\t\t\n      DUP7 \t\t\t\n      ADD \t\t\t\n      PUSH [tag] 668\t\t\t\n      JUMP \t\t\t\n    tag 886\t\t\t\n      JUMPDEST \t\t\t\n      SWAP3 \t\t\t\n      POP \t\t\t\n      POP \t\t\t\n      PUSH 20\t\t\t\n      PUSH [tag] 887\t\t\t\n      DUP6 \t\t\t\n      DUP3 \t\t\t\n      DUP7 \t\t\t\n      ADD \t\t\t\n      PUSH [tag] 668\t\t\t\n      JUMP \t\t\t\n    tag 887\t\t\t\n      JUMPDEST \t\t\t\n      SWAP2 \t\t\t\n      POP \t\t\t\n      POP \t\t\t\n      SWAP3 \t\t\t\n      POP \t\t\t\n      SWAP3 \t\t\t\n      SWAP1 \t\t\t\n      POP \t\t\t\n      JUMP \t\t\t\n    tag 692\t\t\t\n      JUMPDEST \t\t\t\n      PUSH 4E487B7100000000000000000000000000000000000000000000000000000000\t\t\t\n      PUSH 0\t\t\t\n      MSTORE \t\t\t\n      PUSH 22\t\t\t\n      PUSH 4\t\t\t\n      MSTORE \t\t\t\n      PUSH 24\t\t\t\n      PUSH 0\t\t\t\n      REVERT \t\t\t\n    tag 234\t\t\t\n      JUMPDEST \t\t\t\n      PUSH 0\t\t\t\n      PUSH 2\t\t\t\n      DUP3 \t\t\t\n      DIV \t\t\t\n      SWAP1 \t\t\t\n      POP \t\t\t\n      PUSH 1\t\t\t\n      DUP3 \t\t\t\n      AND \t\t\t\n      DUP1 \t\t\t\n      PUSH [tag] 890\t\t\t\n      JUMPI \t\t\t\n      PUSH 7F\t\t\t\n      DUP3 \t\t\t\n      AND \t\t\t\n      SWAP2 \t\t\t\n      POP \t\t\t\n    tag 890\t\t\t\n      JUMPDEST \t\t\t\n      PUSH 20\t\t\t\n      DUP3 \t\t\t\n      LT \t\t\t\n      DUP2 \t\t\t\n      SUB \t\t\t\n      PUSH [tag] 891\t\t\t\n      JUMPI \t\t\t\n      PUSH [tag] 892\t\t\t\n      PUSH [tag] 692\t\t\t\n      JUMP \t\t\t\n    tag 892\t\t\t\n      JUMPDEST \t\t\t\n    tag 891\t\t\t\n      JUMPDEST \t\t\t\n      POP \t\t\t\n      SWAP2 \t\t\t\n      SWAP1 \t\t\t\n      POP \t\t\t\n      JUMP \t\t\t\n    tag 693\t\t\t\n      JUMPDEST \t\t\t\n      PUSH 0\t\t\t\n      DUP3 \t\t\t\n      SWAP1 \t\t\t\n      POP \t\t\t\n      SWAP3 \t\t\t\n      SWAP2 \t\t\t\n      POP \t\t\t\n      POP \t\t\t\n      JUMP \t\t\t\n    tag 694\t\t\t\n      JUMPDEST \t\t\t\n      PUSH 0\t\t\t\n      DUP2 \t\t\t\n      SWAP1 \t\t\t\n      POP \t\t\t\n      DUP2 \t\t\t\n      PUSH 0\t\t\t\n      MSTORE \t\t\t\n      PUSH 20\t\t\t\n      PUSH 0\t\t\t\n      KECCAK256 \t\t\t\n      SWAP1 \t\t\t\n      POP \t\t\t\n      SWAP2 \t\t\t\n      SWAP1 \t\t\t\n      POP \t\t\t\n      JUMP \t\t\t\n    tag 695\t\t\t\n      JUMPDEST \t\t\t\n      PUSH 0\t\t\t\n      PUSH 20\t\t\t\n      PUSH 1F\t\t\t\n      DUP4 \t\t\t\n      ADD \t\t\t\n      DIV \t\t\t\n      SWAP1 \t\t\t\n      POP \t\t\t\n      SWAP2 \t\t\t\n      SWAP1 \t\t\t\n      POP \t\t\t\n      JUMP \t\t\t\n    tag 696\t\t\t\n      JUMPDEST \t\t\t\n      PUSH 0\t\t\t\n      DUP3 \t\t\t\n      DUP3 \t\t\t\n      SHL \t\t\t\n      SWAP1 \t\t\t\n      POP \t\t\t\n      SWAP3 \t\t\t\n      SWAP2 \t\t\t\n      POP \t\t\t\n      POP \t\t\t\n      JUMP \t\t\t\n    tag 697\t\t\t\n      JUMPDEST \t\t\t\n      PUSH 0\t\t\t\n      PUSH 8\t\t\t\n      DUP4 \t\t\t\n      MUL \t\t\t\n      PUSH [tag] 898\t\t\t\n      PUSH FFFFFFFFFFFFFFFFFFFFFFFFFFFFFFFFFFFFFFFFFFFFFFFFFFFFFFFFFFFFFFFF\t\t\t\n      DUP3 \t\t\t\n      PUSH [tag] 696\t\t\t\n      JUMP \t\t\t\n    tag 898\t\t\t\n      JUMPDEST \t\t\t\n      PUSH [tag] 899\t\t\t\n      DUP7 \t\t\t\n      DUP4 \t\t\t\n      PUSH [tag] 696\t\t\t\n      JUMP \t\t\t\n    tag 899\t\t\t\n      JUMPDEST \t\t\t\n      SWAP6 \t\t\t\n      POP \t\t\t\n      DUP1 \t\t\t\n      NOT \t\t\t\n      DUP5 \t\t\t\n      AND \t\t\t\n      SWAP4 \t\t\t\n      POP \t\t\t\n      DUP1 \t\t\t\n      DUP7 \t\t\t\n      AND \t\t\t\n      DUP5 \t\t\t\n      OR \t\t\t\n      SWAP3 \t\t\t\n      POP \t\t\t\n      POP \t\t\t\n      POP \t\t\t\n      SWAP4 \t\t\t\n      SWAP3 \t\t\t\n      POP \t\t\t\n      POP \t\t\t\n      POP \t\t\t\n      JUMP \t\t\t\n    tag 698\t\t\t\n      JUMPDEST \t\t\t\n      PUSH 0\t\t\t\n      DUP2 \t\t\t\n      SWAP1 \t\t\t\n      POP \t\t\t\n      SWAP2 \t\t\t\n      SWAP1 \t\t\t\n      POP \t\t\t\n      JUMP \t\t\t\n    tag 699\t\t\t\n      JUMPDEST \t\t\t\n      PUSH 0\t\t\t\n      PUSH [tag] 902\t\t\t\n      PUSH [tag] 903\t\t\t\n      PUSH [tag] 904\t\t\t\n      DUP5 \t\t\t\n      PUSH [tag] 669\t\t\t\n      JUMP \t\t\t\n    tag 904\t\t\t\n      JUMPDEST \t\t\t\n      PUSH [tag] 698\t\t\t\n      JUMP \t\t\t\n    tag 903\t\t\t\n      JUMPDEST \t\t\t\n      PUSH [tag] 669\t\t\t\n      JUMP \t\t\t\n    tag 902\t\t\t\n      JUMPDEST \t\t\t\n      SWAP1 \t\t\t\n      POP \t\t\t\n      SWAP2 \t\t\t\n      SWAP1 \t\t\t\n      POP \t\t\t\n      JUMP \t\t\t\n    tag 700\t\t\t\n      JUMPDEST \t\t\t\n      PUSH 0\t\t\t\n      DUP2 \t\t\t\n      SWAP1 \t\t\t\n      POP \t\t\t\n      SWAP2 \t\t\t\n      SWAP1 \t\t\t\n      POP \t\t\t\n      JUMP \t\t\t\n    tag 701\t\t\t\n      JUMPDEST \t\t\t\n      PUSH [tag] 907\t\t\t\n      DUP4 \t\t\t\n      PUSH [tag] 699\t\t\t\n      JUMP \t\t\t\n    tag 907\t\t\t\n      JUMPDEST \t\t\t\n      PUSH [tag] 908\t\t\t\n      PUSH [tag] 909\t\t\t\n      DUP3 \t\t\t\n      PUSH [tag] 700\t\t\t\n      JUMP \t\t\t\n    tag 909\t\t\t\n      JUMPDEST \t\t\t\n      DUP5 \t\t\t\n      DUP5 \t\t\t\n      SLOAD \t\t\t\n      PUSH [tag] 697\t\t\t\n      JUMP \t\t\t\n    tag 908\t\t\t\n      JUMPDEST \t\t\t\n      DUP3 \t\t\t\n      SSTORE \t\t\t\n      POP \t\t\t\n      POP \t\t\t\n      POP \t\t\t\n      POP \t\t\t\n      JUMP \t\t\t\n    tag 702\t\t\t\n      JUMPDEST \t\t\t\n      PUSH 0\t\t\t\n      PUSH 0\t\t\t\n      SWAP1 \t\t\t\n      POP \t\t\t\n      SWAP1 \t\t\t\n      JUMP \t\t\t\n    tag 703\t\t\t\n      JUMPDEST \t\t\t\n      PUSH [tag] 912\t\t\t\n      PUSH [tag] 702\t\t\t\n      JUMP \t\t\t\n    tag 912\t\t\t\n      JUMPDEST \t\t\t\n      PUSH [tag] 913\t\t\t\n      DUP2 \t\t\t\n      DUP5 \t\t\t\n      DUP5 \t\t\t\n      PUSH [tag] 701\t\t\t\n      JUMP \t\t\t\n    tag 913\t\t\t\n      JUMPDEST \t\t\t\n      POP \t\t\t\n      POP \t\t\t\n      POP \t\t\t\n      JUMP \t\t\t\n    tag 704\t\t\t\n      JUMPDEST \t\t\t\n      PUSH 0\t\t\t\n    tag 915\t\t\t\n      JUMPDEST \t\t\t\n      DUP3 \t\t\t\n      DUP2 \t\t\t\n      LT \t\t\t\n      ISZERO \t\t\t\n      PUSH [tag] 917\t\t\t\n      JUMPI \t\t\t\n      PUSH [tag] 918\t\t\t\n      PUSH 0\t\t\t\n      DUP3 \t\t\t\n      DUP5 \t\t\t\n      ADD \t\t\t\n      PUSH [tag] 703\t\t\t\n      JUMP \t\t\t\n    tag 918\t\t\t\n      JUMPDEST \t\t\t\n      PUSH 1\t\t\t\n      DUP2 \t\t\t\n      ADD \t\t\t\n      SWAP1 \t\t\t\n      POP \t\t\t\n      PUSH [tag] 915\t\t\t\n      JUMP \t\t\t\n    tag 917\t\t\t\n      JUMPDEST \t\t\t\n      POP \t\t\t\n      POP \t\t\t\n      POP \t\t\t\n      JUMP \t\t\t\n    tag 705\t\t\t\n      JUMPDEST \t\t\t\n      PUSH 1F\t\t\t\n      DUP3 \t\t\t\n      GT \t\t\t\n      ISZERO \t\t\t\n      PUSH [tag] 920\t\t\t\n      JUMPI \t\t\t\n      DUP3 \t\t\t\n      DUP3 \t\t\t\n      GT \t\t\t\n      ISZERO \t\t\t\n      PUSH [tag] 921\t\t\t\n      JUMPI \t\t\t\n      PUSH [tag] 922\t\t\t\n      DUP2 \t\t\t\n      PUSH [tag] 694\t\t\t\n      JUMP \t\t\t\n    tag 922\t\t\t\n      JUMPDEST \t\t\t\n      PUSH [tag] 923\t\t\t\n      DUP4 \t\t\t\n      PUSH [tag] 695\t\t\t\n      JUMP \t\t\t\n    tag 923\t\t\t\n      JUMPDEST \t\t\t\n      PUSH [tag] 924\t\t\t\n      DUP6 \t\t\t\n      PUSH [tag] 695\t\t\t\n      JUMP \t\t\t\n    tag 924\t\t\t\n      JUMPDEST \t\t\t\n      PUSH 20\t\t\t\n      DUP7 \t\t\t\n      LT \t\t\t\n      ISZERO \t\t\t\n      PUSH [tag] 925\t\t\t\n      JUMPI \t\t\t\n      PUSH 0\t\t\t\n      SWAP1 \t\t\t\n      POP \t\t\t\n    tag 925\t\t\t\n      JUMPDEST \t\t\t\n      DUP1 \t\t\t\n      DUP4 \t\t\t\n      ADD \t\t\t\n      PUSH [tag] 926\t\t\t\n      DUP3 \t\t\t\n      DUP5 \t\t\t\n      SUB \t\t\t\n      DUP3 \t\t\t\n      PUSH [tag] 704\t\t\t\n      JUMP \t\t\t\n    tag 926\t\t\t\n      JUMPDEST \t\t\t\n      POP \t\t\t\n      POP \t\t\t\n      POP \t\t\t\n      POP \t\t\t\n    tag 921\t\t\t\n      JUMPDEST \t\t\t\n    tag 920\t\t\t\n      JUMPDEST \t\t\t\n      POP \t\t\t\n      POP \t\t\t\n      POP \t\t\t\n      JUMP \t\t\t\n    tag 706\t\t\t\n      JUMPDEST \t\t\t\n      PUSH 0\t\t\t\n      DUP3 \t\t\t\n      DUP3 \t\t\t\n      SHR \t\t\t\n      SWAP1 \t\t\t\n      POP \t\t\t\n      SWAP3 \t\t\t\n      SWAP2 \t\t\t\n      POP \t\t\t\n      POP \t\t\t\n      JUMP \t\t\t\n    tag 707\t\t\t\n      JUMPDEST \t\t\t\n      PUSH 0\t\t\t\n      PUSH [tag] 929\t\t\t\n      PUSH 0\t\t\t\n      NOT \t\t\t\n      DUP5 \t\t\t\n      PUSH 8\t\t\t\n      MUL \t\t\t\n      PUSH [tag] 706\t\t\t\n      JUMP \t\t\t\n    tag 929\t\t\t\n      JUMPDEST \t\t\t\n      NOT \t\t\t\n      DUP1 \t\t\t\n      DUP4 \t\t\t\n      AND \t\t\t\n      SWAP2 \t\t\t\n      POP \t\t\t\n      POP \t\t\t\n      SWAP3 \t\t\t\n      SWAP2 \t\t\t\n      POP \t\t\t\n      POP \t\t\t\n      JUMP \t\t\t\n    tag 708\t\t\t\n      JUMPDEST \t\t\t\n      PUSH 0\t\t\t\n      PUSH [tag] 931\t\t\t\n      DUP4 \t\t\t\n      DUP4 \t\t\t\n      PUSH [tag] 707\t\t\t\n      JUMP \t\t\t\n    tag 931\t\t\t\n      JUMPDEST \t\t\t\n      SWAP2 \t\t\t\n      POP \t\t\t\n      DUP3 \t\t\t\n      PUSH 2\t\t\t\n      MUL \t\t\t\n      DUP3 \t\t\t\n      OR \t\t\t\n      SWAP1 \t\t\t\n      POP \t\t\t\n      SWAP3 \t\t\t\n      SWAP2 \t\t\t\n      POP \t\t\t\n      POP \t\t\t\n      JUMP \t\t\t\n    tag 304\t\t\t\n      JUMPDEST \t\t\t\n      PUSH [tag] 933\t\t\t\n      DUP4 \t\t\t\n      DUP4 \t\t\t\n      PUSH [tag] 693\t\t\t\n      JUMP \t\t\t\n    tag 933\t\t\t\n      JUMPDEST \t\t\t\n      PUSH FFFFFFFFFFFFFFFF\t\t\t\n      DUP2 \t\t\t\n      GT \t\t\t\n      ISZERO \t\t\t\n      PUSH [tag] 934\t\t\t\n      JUMPI \t\t\t\n      PUSH [tag] 935\t\t\t\n      PUSH [tag] 684\t\t\t\n      JUMP \t\t\t\n    tag 935\t\t\t\n      JUMPDEST \t\t\t\n    tag 934\t\t\t\n      JUMPDEST \t\t\t\n      PUSH [tag] 936\t\t\t\n      DUP3 \t\t\t\n      SLOAD \t\t\t\n      PUSH [tag] 234\t\t\t\n      JUMP \t\t\t\n    tag 936\t\t\t\n      JUMPDEST \t\t\t\n      PUSH [tag] 937\t\t\t\n      DUP3 \t\t\t\n      DUP3 \t\t\t\n      DUP6 \t\t\t\n      PUSH [tag] 705\t\t\t\n      JUMP \t\t\t\n    tag 937\t\t\t\n      JUMPDEST \t\t\t\n      PUSH 0\t\t\t\n      PUSH 1F\t\t\t\n      DUP4 \t\t\t\n      GT \t\t\t\n      PUSH 1\t\t\t\n      DUP2 \t\t\t\n      EQ \t\t\t\n      PUSH [tag] 939\t\t\t\n      JUMPI \t\t\t\n      PUSH 0\t\t\t\n      DUP5 \t\t\t\n      ISZERO \t\t\t\n      PUSH [tag] 940\t\t\t\n      JUMPI \t\t\t\n      DUP3 \t\t\t\n      DUP8 \t\t\t\n      ADD \t\t\t\n      CALLDATALOAD \t\t\t\n      SWAP1 \t\t\t\n      POP \t\t\t\n    tag 940\t\t\t\n      JUMPDEST \t\t\t\n      PUSH [tag] 941\t\t\t\n      DUP6 \t\t\t\n      DUP3 \t\t\t\n      PUSH [tag] 708\t\t\t\n      JUMP \t\t\t\n    tag 941\t\t\t\n      JUMPDEST \t\t\t\n      DUP7 \t\t\t\n      SSTORE \t\t\t\n      POP \t\t\t\n      PUSH [tag] 938\t\t\t\n      JUMP \t\t\t\n    tag 939\t\t\t\n      JUMPDEST \t\t\t\n      PUSH 1F\t\t\t\n      NOT \t\t\t\n      DUP5 \t\t\t\n      AND \t\t\t\n      PUSH [tag] 942\t\t\t\n      DUP7 \t\t\t\n      PUSH [tag] 694\t\t\t\n      JUMP \t\t\t\n    tag 942\t\t\t\n      JUMPDEST \t\t\t\n      PUSH 0\t\t\t\n    tag 943\t\t\t\n      JUMPDEST \t\t\t\n      DUP3 \t\t\t\n      DUP2 \t\t\t\n      LT \t\t\t\n      ISZERO \t\t\t\n      PUSH [tag] 945\t\t\t\n      JUMPI \t\t\t\n      DUP5 \t\t\t\n      DUP10 \t\t\t\n      ADD \t\t\t\n      CALLDATALOAD \t\t\t\n      DUP3 \t\t\t\n      SSTORE \t\t\t\n      PUSH 1\t\t\t\n      DUP3 \t\t\t\n      ADD \t\t\t\n      SWAP2 \t\t\t\n      POP \t\t\t\n      PUSH 20\t\t\t\n      DUP6 \t\t\t\n      ADD \t\t\t\n      SWAP5 \t\t\t\n      POP \t\t\t\n      PUSH 20\t\t\t\n      DUP2 \t\t\t\n      ADD \t\t\t\n      SWAP1 \t\t\t\n      POP \t\t\t\n      PUSH [tag] 943\t\t\t\n      JUMP \t\t\t\n    tag 945\t\t\t\n      JUMPDEST \t\t\t\n      DUP7 \t\t\t\n      DUP4 \t\t\t\n      LT \t\t\t\n      ISZERO \t\t\t\n      PUSH [tag] 946\t\t\t\n      JUMPI \t\t\t\n      DUP5 \t\t\t\n      DUP10 \t\t\t\n      ADD \t\t\t\n      CALLDATALOAD \t\t\t\n      PUSH [tag] 947\t\t\t\n      PUSH 1F\t\t\t\n      DUP10 \t\t\t\n      AND \t\t\t\n      DUP3 \t\t\t\n      PUSH [tag] 707\t\t\t\n      JUMP \t\t\t\n    tag 947\t\t\t\n      JUMPDEST \t\t\t\n      DUP4 \t\t\t\n      SSTORE \t\t\t\n      POP \t\t\t\n    tag 946\t\t\t\n      JUMPDEST \t\t\t\n      PUSH 1\t\t\t\n      PUSH 2\t\t\t\n      DUP9 \t\t\t\n      MUL \t\t\t\n      ADD \t\t\t\n      DUP9 \t\t\t\n      SSTORE \t\t\t\n      POP \t\t\t\n      POP \t\t\t\n      POP \t\t\t\n    tag 938\t\t\t\n      JUMPDEST \t\t\t\n      POP \t\t\t\n      POP \t\t\t\n      POP \t\t\t\n      POP \t\t\t\n      POP \t\t\t\n      POP \t\t\t\n      POP \t\t\t\n      JUMP \t\t\t\n    tag 709\t\t\t\n      JUMPDEST \t\t\t\n      PUSH 0\t\t\t\n      DUP2 \t\t\t\n      SWAP1 \t\t\t\n      POP \t\t\t\n      SWAP2 \t\t\t\n      SWAP1 \t\t\t\n      POP \t\t\t\n      JUMP \t\t\t\n    tag 710\t\t\t\n      JUMPDEST \t\t\t\n      PUSH 0\t\t\t\n      PUSH FFFFFFFFFFFFFFFF\t\t\t\n      DUP3 \t\t\t\n      AND \t\t\t\n      SWAP1 \t\t\t\n      POP \t\t\t\n      SWAP2 \t\t\t\n      SWAP1 \t\t\t\n      POP \t\t\t\n      JUMP \t\t\t\n    tag 711\t\t\t\n      JUMPDEST \t\t\t\n      PUSH 0\t\t\t\n      PUSH [tag] 951\t\t\t\n      PUSH [tag] 952\t\t\t\n      PUSH [tag] 953\t\t\t\n      DUP5 \t\t\t\n      PUSH [tag] 709\t\t\t\n      JUMP \t\t\t\n    tag 953\t\t\t\n      JUMPDEST \t\t\t\n      PUSH [tag] 698\t\t\t\n      JUMP \t\t\t\n    tag 952\t\t\t\n      JUMPDEST \t\t\t\n      PUSH [tag] 710\t\t\t\n      JUMP \t\t\t\n    tag 951\t\t\t\n      JUMPDEST \t\t\t\n      SWAP1 \t\t\t\n      POP \t\t\t\n      SWAP2 \t\t\t\n      SWAP1 \t\t\t\n      POP \t\t\t\n      JUMP \t\t\t\n    tag 712\t\t\t\n      JUMPDEST \t\t\t\n      PUSH [tag] 955\t\t\t\n      DUP2 \t\t\t\n      PUSH [tag] 711\t\t\t\n      JUMP \t\t\t\n    tag 955\t\t\t\n      JUMPDEST \t\t\t\n      DUP3 \t\t\t\n      MSTORE \t\t\t\n      POP \t\t\t\n      POP \t\t\t\n      JUMP \t\t\t\n    tag 312\t\t\t\n      JUMPDEST \t\t\t\n      PUSH 0\t\t\t\n      PUSH 20\t\t\t\n      DUP3 \t\t\t\n      ADD \t\t\t\n      SWAP1 \t\t\t\n      POP \t\t\t\n      PUSH [tag] 957\t\t\t\n      PUSH 0\t\t\t\n      DUP4 \t\t\t\n      ADD \t\t\t\n      DUP5 \t\t\t\n      PUSH [tag] 712\t\t\t\n      JUMP \t\t\t\n    tag 957\t\t\t\n      JUMPDEST \t\t\t\n      SWAP3 \t\t\t\n      SWAP2 \t\t\t\n      POP \t\t\t\n      POP \t\t\t\n      JUMP \t\t\t\n    tag 713\t\t\t\n      JUMPDEST \t\t\t\n      PUSH [tag] 959\t\t\t\n      DUP2 \t\t\t\n      PUSH [tag] 710\t\t\t\n      JUMP \t\t\t\n    tag 959\t\t\t\n      JUMPDEST \t\t\t\n      DUP3 \t\t\t\n      MSTORE \t\t\t\n      POP \t\t\t\n      POP \t\t\t\n      JUMP \t\t\t\n    tag 334\t\t\t\n      JUMPDEST \t\t\t\n      PUSH 0\t\t\t\n      PUSH 20\t\t\t\n      DUP3 \t\t\t\n      ADD \t\t\t\n      SWAP1 \t\t\t\n      POP \t\t\t\n      PUSH [tag] 961\t\t\t\n      PUSH 0\t\t\t\n      DUP4 \t\t\t\n      ADD \t\t\t\n      DUP5 \t\t\t\n      PUSH [tag] 713\t\t\t\n      JUMP \t\t\t\n    tag 961\t\t\t\n      JUMPDEST \t\t\t\n      SWAP3 \t\t\t\n      SWAP2 \t\t\t\n      POP \t\t\t\n      POP \t\t\t\n      JUMP \t\t\t\n    tag 714\t\t\t\n      JUMPDEST \t\t\t\n      PUSH 4E6F742066726F7A656E00000000000000000000000000000000000000000000\t\t\t\n      PUSH 0\t\t\t\n      DUP3 \t\t\t\n      ADD \t\t\t\n      MSTORE \t\t\t\n      POP \t\t\t\n      JUMP \t\t\t\n    tag 715\t\t\t\n      JUMPDEST \t\t\t\n      PUSH 0\t\t\t\n      PUSH [tag] 964\t\t\t\n      PUSH A\t\t\t\n      DUP4 \t\t\t\n      PUSH [tag] 661\t\t\t\n      JUMP \t\t\t\n    tag 964\t\t\t\n      JUMPDEST \t\t\t\n      SWAP2 \t\t\t\n      POP \t\t\t\n      PUSH [tag] 965\t\t\t\n      DUP3 \t\t\t\n      PUSH [tag] 714\t\t\t\n      JUMP \t\t\t\n    tag 965\t\t\t\n      JUMPDEST \t\t\t\n      PUSH 20\t\t\t\n      DUP3 \t\t\t\n      ADD \t\t\t\n      SWAP1 \t\t\t\n      POP \t\t\t\n      SWAP2 \t\t\t\n      SWAP1 \t\t\t\n      POP \t\t\t\n      JUMP \t\t\t\n    tag 340\t\t\t\n      JUMPDEST \t\t\t\n      PUSH 0\t\t\t\n      PUSH 20\t\t\t\n      DUP3 \t\t\t\n      ADD \t\t\t\n      SWAP1 \t\t\t\n      POP \t\t\t\n      DUP2 \t\t\t\n      DUP2 \t\t\t\n      SUB \t\t\t\n      PUSH 0\t\t\t\n      DUP4 \t\t\t\n      ADD \t\t\t\n      MSTORE \t\t\t\n      PUSH [tag] 967\t\t\t\n      DUP2 \t\t\t\n      PUSH [tag] 715\t\t\t\n      JUMP \t\t\t\n    tag 967\t\t\t\n      JUMPDEST \t\t\t\n      SWAP1 \t\t\t\n      POP \t\t\t\n      SWAP2 \t\t\t\n      SWAP1 \t\t\t\n      POP \t\t\t\n      JUMP \t\t\t\n    tag 716\t\t\t\n      JUMPDEST \t\t\t\n      PUSH 416C72656164792066726F7A656E000000000000000000000000000000000000\t\t\t\n      PUSH 0\t\t\t\n      DUP3 \t\t\t\n      ADD \t\t\t\n      MSTORE \t\t\t\n      POP \t\t\t\n      JUMP \t\t\t\n    tag 717\t\t\t\n      JUMPDEST \t\t\t\n      PUSH 0\t\t\t\n      PUSH [tag] 970\t\t\t\n      PUSH E\t\t\t\n      DUP4 \t\t\t\n      PUSH [tag] 661\t\t\t\n      JUMP \t\t\t\n    tag 970\t\t\t\n      JUMPDEST \t\t\t\n      SWAP2 \t\t\t\n      POP \t\t\t\n      PUSH [tag] 971\t\t\t\n      DUP3 \t\t\t\n      PUSH [tag] 716\t\t\t\n      JUMP \t\t\t\n    tag 971\t\t\t\n      JUMPDEST \t\t\t\n      PUSH 20\t\t\t\n      DUP3 \t\t\t\n      ADD \t\t\t\n      SWAP1 \t\t\t\n      POP \t\t\t\n      SWAP2 \t\t\t\n      SWAP1 \t\t\t\n      POP \t\t\t\n      JUMP \t\t\t\n    tag 376\t\t\t\n      JUMPDEST \t\t\t\n      PUSH 0\t\t\t\n      PUSH 20\t\t\t\n      DUP3 \t\t\t\n      ADD \t\t\t\n      SWAP1 \t\t\t\n      POP \t\t\t\n      DUP2 \t\t\t\n      DUP2 \t\t\t\n      SUB \t\t\t\n      PUSH 0\t\t\t\n      DUP4 \t\t\t\n      ADD \t\t\t\n      MSTORE \t\t\t\n      PUSH [tag] 973\t\t\t\n      DUP2 \t\t\t\n      PUSH [tag] 717\t\t\t\n      JUMP \t\t\t\n    tag 973\t\t\t\n      JUMPDEST \t\t\t\n      SWAP1 \t\t\t\n      POP \t\t\t\n      SWAP2 \t\t\t\n      SWAP1 \t\t\t\n      POP \t\t\t\n      JUMP \t\t\t\n    tag 718\t\t\t\n      JUMPDEST \t\t\t\n      PUSH 0\t\t\t\n      PUSH [tag] 975\t\t\t\n      DUP4 \t\t\t\n      DUP6 \t\t\t\n      PUSH [tag] 661\t\t\t\n      JUMP \t\t\t\n    tag 975\t\t\t\n      JUMPDEST \t\t\t\n      SWAP4 \t\t\t\n      POP \t\t\t\n      PUSH [tag] 976\t\t\t\n      DUP4 \t\t\t\n      DUP6 \t\t\t\n      DUP5 \t\t\t\n      PUSH [tag] 688\t\t\t\n      JUMP \t\t\t\n    tag 976\t\t\t\n      JUMPDEST \t\t\t\n      PUSH [tag] 977\t\t\t\n      DUP4 \t\t\t\n      PUSH [tag] 663\t\t\t\n      JUMP \t\t\t\n    tag 977\t\t\t\n      JUMPDEST \t\t\t\n      DUP5 \t\t\t\n      ADD \t\t\t\n      SWAP1 \t\t\t\n      POP \t\t\t\n      SWAP4 \t\t\t\n      SWAP3 \t\t\t\n      POP \t\t\t\n      POP \t\t\t\n      POP \t\t\t\n      JUMP \t\t\t\n    tag 390\t\t\t\n      JUMPDEST \t\t\t\n      PUSH 0\t\t\t\n      PUSH 40\t\t\t\n      DUP3 \t\t\t\n      ADD \t\t\t\n      SWAP1 \t\t\t\n      POP \t\t\t\n      DUP2 \t\t\t\n      DUP2 \t\t\t\n      SUB \t\t\t\n      PUSH 0\t\t\t\n      DUP4 \t\t\t\n      ADD \t\t\t\n      MSTORE \t\t\t\n      PUSH [tag] 979\t\t\t\n      DUP2 \t\t\t\n      DUP7 \t\t\t\n      PUSH [tag] 664\t\t\t\n      JUMP \t\t\t\n    tag 979\t\t\t\n      JUMPDEST \t\t\t\n      SWAP1 \t\t\t\n      POP \t\t\t\n      DUP2 \t\t\t\n      DUP2 \t\t\t\n      SUB \t\t\t\n      PUSH 20\t\t\t\n      DUP4 \t\t\t\n      ADD \t\t\t\n      MSTORE \t\t\t\n      PUSH [tag] 980\t\t\t\n      DUP2 \t\t\t\n      DUP5 \t\t\t\n      DUP7 \t\t\t\n      PUSH [tag] 718\t\t\t\n      JUMP \t\t\t\n    tag 980\t\t\t\n      JUMPDEST \t\t\t\n      SWAP1 \t\t\t\n      POP \t\t\t\n      SWAP5 \t\t\t\n      SWAP4 \t\t\t\n      POP \t\t\t\n      POP \t\t\t\n      POP \t\t\t\n      POP \t\t\t\n      JUMP \t\t\t\n    tag 427\t\t\t\n      JUMPDEST \t\t\t\n      PUSH 0\t\t\t\n      PUSH 60\t\t\t\n      DUP3 \t\t\t\n      ADD \t\t\t\n      SWAP1 \t\t\t\n      POP \t\t\t\n      PUSH [tag] 982\t\t\t\n      PUSH 0\t\t\t\n      DUP4 \t\t\t\n      ADD \t\t\t\n      DUP7 \t\t\t\n      PUSH [tag] 691\t\t\t\n      JUMP \t\t\t\n    tag 982\t\t\t\n      JUMPDEST \t\t\t\n      PUSH [tag] 983\t\t\t\n      PUSH 20\t\t\t\n      DUP4 \t\t\t\n      ADD \t\t\t\n      DUP6 \t\t\t\n      PUSH [tag] 672\t\t\t\n      JUMP \t\t\t\n    tag 983\t\t\t\n      JUMPDEST \t\t\t\n      PUSH [tag] 984\t\t\t\n      PUSH 40\t\t\t\n      DUP4 \t\t\t\n      ADD \t\t\t\n      DUP5 \t\t\t\n      PUSH [tag] 672\t\t\t\n      JUMP \t\t\t\n    tag 984\t\t\t\n      JUMPDEST \t\t\t\n      SWAP5 \t\t\t\n      SWAP4 \t\t\t\n      POP \t\t\t\n      POP \t\t\t\n      POP \t\t\t\n      POP \t\t\t\n      JUMP \t\t\t\n    tag 719\t\t\t\n      JUMPDEST \t\t\t\n      PUSH 0\t\t\t\n      DUP2 \t\t\t\n      MLOAD \t\t\t\n      SWAP1 \t\t\t\n      POP \t\t\t\n      PUSH [tag] 986\t\t\t\n      DUP2 \t\t\t\n      PUSH [tag] 673\t\t\t\n      JUMP \t\t\t\n    tag 986\t\t\t\n      JUMPDEST \t\t\t\n      SWAP3 \t\t\t\n      SWAP2 \t\t\t\n      POP \t\t\t\n      POP \t\t\t\n      JUMP \t\t\t\n    tag 498\t\t\t\n      JUMPDEST \t\t\t\n      PUSH 0\t\t\t\n      PUSH 20\t\t\t\n      DUP3 \t\t\t\n      DUP5 \t\t\t\n      SUB \t\t\t\n      SLT \t\t\t\n      ISZERO \t\t\t\n      PUSH [tag] 988\t\t\t\n      JUMPI \t\t\t\n      PUSH [tag] 989\t\t\t\n      PUSH [tag] 651\t\t\t\n      JUMP \t\t\t\n    tag 989\t\t\t\n      JUMPDEST \t\t\t\n    tag 988\t\t\t\n      JUMPDEST \t\t\t\n      PUSH 0\t\t\t\n      PUSH [tag] 990\t\t\t\n      DUP5 \t\t\t\n      DUP3 \t\t\t\n      DUP6 \t\t\t\n      ADD \t\t\t\n      PUSH [tag] 719\t\t\t\n      JUMP \t\t\t\n    tag 990\t\t\t\n      JUMPDEST \t\t\t\n      SWAP2 \t\t\t\n      POP \t\t\t\n      POP \t\t\t\n      SWAP3 \t\t\t\n      SWAP2 \t\t\t\n      POP \t\t\t\n      POP \t\t\t\n      JUMP \t\t\t\n    tag 720\t\t\t\n      JUMPDEST \t\t\t\n      PUSH 57616C6C65742069732066726F7A656E00000000000000000000000000000000\t\t\t\n      PUSH 0\t\t\t\n      DUP3 \t\t\t\n      ADD \t\t\t\n      MSTORE \t\t\t\n      POP \t\t\t\n      JUMP \t\t\t\n    tag 721\t\t\t\n      JUMPDEST \t\t\t\n      PUSH 0\t\t\t\n      PUSH [tag] 993\t\t\t\n      PUSH 10\t\t\t\n      DUP4 \t\t\t\n      PUSH [tag] 661\t\t\t\n      JUMP \t\t\t\n    tag 993\t\t\t\n      JUMPDEST \t\t\t\n      SWAP2 \t\t\t\n      POP \t\t\t\n      PUSH [tag] 994\t\t\t\n      DUP3 \t\t\t\n      PUSH [tag] 720\t\t\t\n      JUMP \t\t\t\n    tag 994\t\t\t\n      JUMPDEST \t\t\t\n      PUSH 20\t\t\t\n      DUP3 \t\t\t\n      ADD \t\t\t\n      SWAP1 \t\t\t\n      POP \t\t\t\n      SWAP2 \t\t\t\n      SWAP1 \t\t\t\n      POP \t\t\t\n      JUMP \t\t\t\n    tag 543\t\t\t\n      JUMPDEST \t\t\t\n      PUSH 0\t\t\t\n      PUSH 20\t\t\t\n      DUP3 \t\t\t\n      ADD \t\t\t\n      SWAP1 \t\t\t\n      POP \t\t\t\n      DUP2 \t\t\t\n      DUP2 \t\t\t\n      SUB \t\t\t\n      PUSH 0\t\t\t\n      DUP4 \t\t\t\n      ADD \t\t\t\n      MSTORE \t\t\t\n      PUSH [tag] 996\t\t\t\n      DUP2 \t\t\t\n      PUSH [tag] 721\t\t\t\n      JUMP \t\t\t\n    tag 996\t\t\t\n      JUMPDEST \t\t\t\n      SWAP1 \t\t\t\n      POP \t\t\t\n      SWAP2 \t\t\t\n      SWAP1 \t\t\t\n      POP \t\t\t\n      JUMP \t\t\t\n    tag 722\t\t\t\n      JUMPDEST \t\t\t\n      PUSH 53656E646572206C61636B73205452414445525F524F4C450000000000000000\t\t\t\n      PUSH 0\t\t\t\n      DUP3 \t\t\t\n      ADD \t\t\t\n      MSTORE \t\t\t\n      POP \t\t\t\n      JUMP \t\t\t\n    tag 723\t\t\t\n      JUMPDEST \t\t\t\n      PUSH 0\t\t\t\n      PUSH [tag] 999\t\t\t\n      PUSH 18\t\t\t\n      DUP4 \t\t\t\n      PUSH [tag] 661\t\t\t\n      JUMP \t\t\t\n    tag 999\t\t\t\n      JUMPDEST \t\t\t\n      SWAP2 \t\t\t\n      POP \t\t\t\n      PUSH [tag] 1000\t\t\t\n      DUP3 \t\t\t\n      PUSH [tag] 722\t\t\t\n      JUMP \t\t\t\n    tag 1000\t\t\t\n      JUMPDEST \t\t\t\n      PUSH 20\t\t\t\n      DUP3 \t\t\t\n      ADD \t\t\t\n      SWAP1 \t\t\t\n      POP \t\t\t\n      SWAP2 \t\t\t\n      SWAP1 \t\t\t\n      POP \t\t\t\n      JUMP \t\t\t\n    tag 550\t\t\t\n      JUMPDEST \t\t\t\n      PUSH 0\t\t\t\n      PUSH 20\t\t\t\n      DUP3 \t\t\t\n      ADD \t\t\t\n      SWAP1 \t\t\t\n      POP \t\t\t\n      DUP2 \t\t\t\n      DUP2 \t\t\t\n      SUB \t\t\t\n      PUSH 0\t\t\t\n      DUP4 \t\t\t\n      ADD \t\t\t\n      MSTORE \t\t\t\n      PUSH [tag] 1002\t\t\t\n      DUP2 \t\t\t\n      PUSH [tag] 723\t\t\t\n      JUMP \t\t\t\n    tag 1002\t\t\t\n      JUMPDEST \t\t\t\n      SWAP1 \t\t\t\n      POP \t\t\t\n      SWAP2 \t\t\t\n      SWAP1 \t\t\t\n      POP \t\t\t\n      JUMP \t\t\t\n    tag 724\t\t\t\n      JUMPDEST \t\t\t\n      PUSH 5265636569766572206861732062616C616E636520627574206C61636B732054\t\t\t\n      PUSH 0\t\t\t\n      DUP3 \t\t\t\n      ADD \t\t\t\n      MSTORE \t\t\t\n      PUSH 52414445525F524F4C4500000000000000000000000000000000000000000000\t\t\t\n      PUSH 20\t\t\t\n      DUP3 \t\t\t\n      ADD \t\t\t\n      MSTORE \t\t\t\n      POP \t\t\t\n      JUMP \t\t\t\n    tag 725\t\t\t\n      JUMPDEST \t\t\t\n      PUSH 0\t\t\t\n      PUSH [tag] 1005\t\t\t\n      PUSH 2A\t\t\t\n      DUP4 \t\t\t\n      PUSH [tag] 661\t\t\t\n      JUMP \t\t\t\n    tag 1005\t\t\t\n      JUMPDEST \t\t\t\n      SWAP2 \t\t\t\n      POP \t\t\t\n      PUSH [tag] 1006\t\t\t\n      DUP3 \t\t\t\n      PUSH [tag] 724\t\t\t\n      JUMP \t\t\t\n    tag 1006\t\t\t\n      JUMPDEST \t\t\t\n      PUSH 40\t\t\t\n      DUP3 \t\t\t\n      ADD \t\t\t\n      SWAP1 \t\t\t\n      POP \t\t\t\n      SWAP2 \t\t\t\n      SWAP1 \t\t\t\n      POP \t\t\t\n      JUMP \t\t\t\n    tag 556\t\t\t\n      JUMPDEST \t\t\t\n      PUSH 0\t\t\t\n      PUSH 20\t\t\t\n      DUP3 \t\t\t\n      ADD \t\t\t\n      SWAP1 \t\t\t\n      POP \t\t\t\n      DUP2 \t\t\t\n      DUP2 \t\t\t\n      SUB \t\t\t\n      PUSH 0\t\t\t\n      DUP4 \t\t\t\n      ADD \t\t\t\n      MSTORE \t\t\t\n      PUSH [tag] 1008\t\t\t\n      DUP2 \t\t\t\n      PUSH [tag] 725\t\t\t\n      JUMP \t\t\t\n    tag 1008\t\t\t\n      JUMPDEST \t\t\t\n      SWAP1 \t\t\t\n      POP \t\t\t\n      SWAP2 \t\t\t\n      SWAP1 \t\t\t\n      POP \t\t\t\n      JUMP \t\t\t\n    tag 563\t\t\t\n      JUMPDEST \t\t\t\n      PUSH 0\t\t\t\n      PUSH 40\t\t\t\n      DUP3 \t\t\t\n      ADD \t\t\t\n      SWAP1 \t\t\t\n      POP \t\t\t\n      PUSH [tag] 1010\t\t\t\n      PUSH 0\t\t\t\n      DUP4 \t\t\t\n      ADD \t\t\t\n      DUP6 \t\t\t\n      PUSH [tag] 691\t\t\t\n      JUMP \t\t\t\n    tag 1010\t\t\t\n      JUMPDEST \t\t\t\n      PUSH [tag] 1011\t\t\t\n      PUSH 20\t\t\t\n      DUP4 \t\t\t\n      ADD \t\t\t\n      DUP5 \t\t\t\n      PUSH [tag] 659\t\t\t\n      JUMP \t\t\t\n    tag 1011\t\t\t\n      JUMPDEST \t\t\t\n      SWAP4 \t\t\t\n      SWAP3 \t\t\t\n      POP \t\t\t\n      POP \t\t\t\n      POP \t\t\t\n      JUMP \t\t\t\n    tag 577\t\t\t\n      JUMPDEST \t\t\t\n      PUSH [tag] 1013\t\t\t\n      DUP3 \t\t\t\n      PUSH [tag] 660\t\t\t\n      JUMP \t\t\t\n    tag 1013\t\t\t\n      JUMPDEST \t\t\t\n      PUSH FFFFFFFFFFFFFFFF\t\t\t\n      DUP2 \t\t\t\n      GT \t\t\t\n      ISZERO \t\t\t\n      PUSH [tag] 1014\t\t\t\n      JUMPI \t\t\t\n      PUSH [tag] 1015\t\t\t\n      PUSH [tag] 684\t\t\t\n      JUMP \t\t\t\n    tag 1015\t\t\t\n      JUMPDEST \t\t\t\n    tag 1014\t\t\t\n      JUMPDEST \t\t\t\n      PUSH [tag] 1016\t\t\t\n      DUP3 \t\t\t\n      SLOAD \t\t\t\n      PUSH [tag] 234\t\t\t\n      JUMP \t\t\t\n    tag 1016\t\t\t\n      JUMPDEST \t\t\t\n      PUSH [tag] 1017\t\t\t\n      DUP3 \t\t\t\n      DUP3 \t\t\t\n      DUP6 \t\t\t\n      PUSH [tag] 705\t\t\t\n      JUMP \t\t\t\n    tag 1017\t\t\t\n      JUMPDEST \t\t\t\n      PUSH 0\t\t\t\n      PUSH 20\t\t\t\n      SWAP1 \t\t\t\n      POP \t\t\t\n      PUSH 1F\t\t\t\n      DUP4 \t\t\t\n      GT \t\t\t\n      PUSH 1\t\t\t\n      DUP2 \t\t\t\n      EQ \t\t\t\n      PUSH [tag] 1019\t\t\t\n      JUMPI \t\t\t\n      PUSH 0\t\t\t\n      DUP5 \t\t\t\n      ISZERO \t\t\t\n      PUSH [tag] 1020\t\t\t\n      JUMPI \t\t\t\n      DUP3 \t\t\t\n      DUP8 \t\t\t\n      ADD \t\t\t\n      MLOAD \t\t\t\n      SWAP1 \t\t\t\n      POP \t\t\t\n    tag 1020\t\t\t\n      JUMPDEST \t\t\t\n      PUSH [tag] 1021\t\t\t\n      DUP6 \t\t\t\n      DUP3 \t\t\t\n      PUSH [tag] 708\t\t\t\n      JUMP \t\t\t\n    tag 1021\t\t\t\n      JUMPDEST \t\t\t\n      DUP7 \t\t\t\n      SSTORE \t\t\t\n      POP \t\t\t\n      PUSH [tag] 1018\t\t\t\n      JUMP \t\t\t\n    tag 1019\t\t\t\n      JUMPDEST \t\t\t\n      PUSH 1F\t\t\t\n      NOT \t\t\t\n      DUP5 \t\t\t\n      AND \t\t\t\n      PUSH [tag] 1022\t\t\t\n      DUP7 \t\t\t\n      PUSH [tag] 694\t\t\t\n      JUMP \t\t\t\n    tag 1022\t\t\t\n      JUMPDEST \t\t\t\n      PUSH 0\t\t\t\n    tag 1023\t\t\t\n      JUMPDEST \t\t\t\n      DUP3 \t\t\t\n      DUP2 \t\t\t\n      LT \t\t\t\n      ISZERO \t\t\t\n      PUSH [tag] 1025\t\t\t\n      JUMPI \t\t\t\n      DUP5 \t\t\t\n      DUP10 \t\t\t\n      ADD \t\t\t\n      MLOAD \t\t\t\n      DUP3 \t\t\t\n      SSTORE \t\t\t\n      PUSH 1\t\t\t\n      DUP3 \t\t\t\n      ADD \t\t\t\n      SWAP2 \t\t\t\n      POP \t\t\t\n      PUSH 20\t\t\t\n      DUP6 \t\t\t\n      ADD \t\t\t\n      SWAP5 \t\t\t\n      POP \t\t\t\n      PUSH 20\t\t\t\n      DUP2 \t\t\t\n      ADD \t\t\t\n      SWAP1 \t\t\t\n      POP \t\t\t\n      PUSH [tag] 1023\t\t\t\n      JUMP \t\t\t\n    tag 1025\t\t\t\n      JUMPDEST \t\t\t\n      DUP7 \t\t\t\n      DUP4 \t\t\t\n      LT \t\t\t\n      ISZERO \t\t\t\n      PUSH [tag] 1026\t\t\t\n      JUMPI \t\t\t\n      DUP5 \t\t\t\n      DUP10 \t\t\t\n      ADD \t\t\t\n      MLOAD \t\t\t\n      PUSH [tag] 1027\t\t\t\n      PUSH 1F\t\t\t\n      DUP10 \t\t\t\n      AND \t\t\t\n      DUP3 \t\t\t\n      PUSH [tag] 707\t\t\t\n      JUMP \t\t\t\n    tag 1027\t\t\t\n      JUMPDEST \t\t\t\n      DUP4 \t\t\t\n      SSTORE \t\t\t\n      POP \t\t\t\n    tag 1026\t\t\t\n      JUMPDEST \t\t\t\n      PUSH 1\t\t\t\n      PUSH 2\t\t\t\n      DUP9 \t\t\t\n      MUL \t\t\t\n      ADD \t\t\t\n      DUP9 \t\t\t\n      SSTORE \t\t\t\n      POP \t\t\t\n      POP \t\t\t\n      POP \t\t\t\n    tag 1018\t\t\t\n      JUMPDEST \t\t\t\n      POP \t\t\t\n      POP \t\t\t\n      POP \t\t\t\n      POP \t\t\t\n      POP \t\t\t\n      POP \t\t\t\n      JUMP \t\t\t\n    tag 726\t\t\t\n      JUMPDEST \t\t\t\n      PUSH 4E487B7100000000000000000000000000000000000000000000000000000000\t\t\t\n      PUSH 0\t\t\t\n      MSTORE \t\t\t\n      PUSH 11\t\t\t\n      PUSH 4\t\t\t\n      MSTORE \t\t\t\n      PUSH 24\t\t\t\n      PUSH 0\t\t\t\n      REVERT \t\t\t\n    tag 639\t\t\t\n      JUMPDEST \t\t\t\n      PUSH 0\t\t\t\n      PUSH [tag] 1030\t\t\t\n      DUP3 \t\t\t\n      PUSH [tag] 669\t\t\t\n      JUMP \t\t\t\n    tag 1030\t\t\t\n      JUMPDEST \t\t\t\n      SWAP2 \t\t\t\n      POP \t\t\t\n      PUSH [tag] 1031\t\t\t\n      DUP4 \t\t\t\n      PUSH [tag] 669\t\t\t\n      JUMP \t\t\t\n    tag 1031\t\t\t\n      JUMPDEST \t\t\t\n      SWAP3 \t\t\t\n      POP \t\t\t\n      DUP3 \t\t\t\n      DUP3 \t\t\t\n      ADD \t\t\t\n      SWAP1 \t\t\t\n      POP \t\t\t\n      DUP1 \t\t\t\n      DUP3 \t\t\t\n      GT \t\t\t\n      ISZERO \t\t\t\n      PUSH [tag] 1032\t\t\t\n      JUMPI \t\t\t\n      PUSH [tag] 1033\t\t\t\n      PUSH [tag] 726\t\t\t\n      JUMP \t\t\t\n    tag 1033\t\t\t\n      JUMPDEST \t\t\t\n    tag 1032\t\t\t\n      JUMPDEST \t\t\t\n      SWAP3 \t\t\t\n      SWAP2 \t\t\t\n      POP \t\t\t\n      POP \t\t\t\n      JUMP \t\t\t\n    .data\n"
}