{
	"compilerInput": "{\"language\":\"Solidity\",\"sources\":{\"contracts/Rinanze.sol\":{\"content\":\"// SPDX-License-Identifier: MIT\\npragma solidity ^0.8.0;\\n\\nimport \\\"@openzeppelin/contracts/token/ERC20/ERC20.sol\\\";\\nimport \\\"@openzeppelin/contracts/token/ERC20/extensions/ERC20Pausable.sol\\\";\\nimport \\\"@openzeppelin/contracts/access/AccessControl.sol\\\";\\n\\ncontract Rinanze is ERC20, ERC20Pausable, AccessControl {\\n    // Role identifiers\\n    bytes32 public constant MINTER_ROLE = keccak256(\\\"MINTER_ROLE\\\");\\n    bytes32 public constant FREEZER_ROLE = keccak256(\\\"FREEZER_ROLE\\\");\\n    bytes32 public constant PAUSER_ROLE = keccak256(\\\"PAUSER_ROLE\\\");\\n    bytes32 public constant TRADER_ROLE = keccak256(\\\"TRADER_ROLE\\\");   // NEW\\n\\n    // Storage for frozen wallets\\n    mapping(address => bool) private _frozenWallets;\\n\\n    // Events\\n    event WalletFrozen(address indexed account);\\n    event WalletUnfrozen(address indexed account);\\n    event Minted(address indexed to, uint256 amount);\\n\\n    constructor() ERC20(\\\"RINANZE\\\", \\\"RIN\\\") {\\n        // Grant governance roles to deployer\\n        _grantRole(DEFAULT_ADMIN_ROLE, msg.sender);\\n        _grantRole(MINTER_ROLE, msg.sender);\\n        _grantRole(FREEZER_ROLE, msg.sender);\\n        _grantRole(PAUSER_ROLE, msg.sender);\\n\\n        // Grant TRADER_ROLE to the deployer so they can move tokens\\n        _grantRole(TRADER_ROLE, msg.sender);\\n    }\\n\\n    // ----- Admin Functions -----\\n\\n    function mint(address to, uint256 amount) external onlyRole(MINTER_ROLE) {\\n        _mint(to, amount);\\n        emit Minted(to, amount);\\n    }\\n\\n    function freezeWallet(address account) external onlyRole(FREEZER_ROLE) {\\n        require(!_frozenWallets[account], \\\"Already frozen\\\");\\n        _frozenWallets[account] = true;\\n        emit WalletFrozen(account);\\n    }\\n\\n    function unfreezeWallet(address account) external onlyRole(FREEZER_ROLE) {\\n        require(_frozenWallets[account], \\\"Not frozen\\\");\\n        _frozenWallets[account] = false;\\n        emit WalletUnfrozen(account);\\n    }\\n\\n    function pause() external onlyRole(PAUSER_ROLE) {\\n        _pause();\\n    }\\n\\n    function unpause() external onlyRole(PAUSER_ROLE) {\\n        _unpause();\\n    }\\n\\n    // ----- Internal Override -----\\n\\n    function _update(address from, address to, uint256 value)\\n        internal\\n        override(ERC20, ERC20Pausable)\\n    {\\n        // 1. Freeze check\\n        require(!_frozenWallets[from] && !_frozenWallets[to], \\\"Wallet is frozen\\\");\\n\\n        // 2. Transfer restriction\\n        if (from != address(0) && to != address(0)) {\\n            // Sender MUST have TRADER_ROLE\\n            require(hasRole(TRADER_ROLE, from), \\\"Sender lacks TRADER_ROLE\\\");\\n\\n            // Receiver must have TRADER_ROLE, EXCEPT if it currently holds 0 tokens\\n            // (this allows the initial seeding of a brand new liquidity pool)\\n            if (!hasRole(TRADER_ROLE, to)) {\\n                require(balanceOf(to) == 0, \\\"Receiver has balance but lacks TRADER_ROLE\\\");\\n            }\\n        }\\n\\n        // 3. Let ERC20Pausable handle pause check and actual transfer\\n        super._update(from, to, value);\\n    }\\n}\\n\"},\"@openzeppelin/contracts/token/ERC20/ERC20.sol\":{\"content\":\"// SPDX-License-Identifier: MIT\\n// OpenZeppelin Contracts (last updated v5.5.0) (token/ERC20/ERC20.sol)\\n\\npragma solidity ^0.8.20;\\n\\nimport {IERC20} from \\\"./IERC20.sol\\\";\\nimport {IERC20Metadata} from \\\"./extensions/IERC20Metadata.sol\\\";\\nimport {Context} from \\\"../../utils/Context.sol\\\";\\nimport {IERC20Errors} from \\\"../../interfaces/draft-IERC6093.sol\\\";\\n\\n/**\\n * @dev Implementation of the {IERC20} interface.\\n *\\n * This implementation is agnostic to the way tokens are created. This means\\n * that a supply mechanism has to be added in a derived contract using {_mint}.\\n *\\n * TIP: For a detailed writeup see our guide\\n * https://forum.openzeppelin.com/t/how-to-implement-erc20-supply-mechanisms/226[How\\n * to implement supply mechanisms].\\n *\\n * The default value of {decimals} is 18. To change this, you should override\\n * this function so it returns a different value.\\n *\\n * We have followed general OpenZeppelin Contracts guidelines: functions revert\\n * instead returning `false` on failure. This behavior is nonetheless\\n * conventional and does not conflict with the expectations of ERC-20\\n * applications.\\n */\\nabstract contract ERC20 is Context, IERC20, IERC20Metadata, IERC20Errors {\\n    mapping(address account => uint256) private _balances;\\n\\n    mapping(address account => mapping(address spender => uint256)) private _allowances;\\n\\n    uint256 private _totalSupply;\\n\\n    string private _name;\\n    string private _symbol;\\n\\n    /**\\n     * @dev Sets the values for {name} and {symbol}.\\n     *\\n     * Both values are immutable: they can only be set once during construction.\\n     */\\n    constructor(string memory name_, string memory symbol_) {\\n        _name = name_;\\n        _symbol = symbol_;\\n    }\\n\\n    /**\\n     * @dev Returns the name of the token.\\n     */\\n    function name() public view virtual returns (string memory) {\\n        return _name;\\n    }\\n\\n    /**\\n     * @dev Returns the symbol of the token, usually a shorter version of the\\n     * name.\\n     */\\n    function symbol() public view virtual returns (string memory) {\\n        return _symbol;\\n    }\\n\\n    /**\\n     * @dev Returns the number of decimals used to get its user representation.\\n     * For example, if `decimals` equals `2`, a balance of `505` tokens should\\n     * be displayed to a user as `5.05` (`505 / 10 ** 2`).\\n     *\\n     * Tokens usually opt for a value of 18, imitating the relationship between\\n     * Ether and Wei. This is the default value returned by this function, unless\\n     * it's overridden.\\n     *\\n     * NOTE: This information is only used for _display_ purposes: it in\\n     * no way affects any of the arithmetic of the contract, including\\n     * {IERC20-balanceOf} and {IERC20-transfer}.\\n     */\\n    function decimals() public view virtual returns (uint8) {\\n        return 18;\\n    }\\n\\n    /// @inheritdoc IERC20\\n    function totalSupply() public view virtual returns (uint256) {\\n        return _totalSupply;\\n    }\\n\\n    /// @inheritdoc IERC20\\n    function balanceOf(address account) public view virtual returns (uint256) {\\n        return _balances[account];\\n    }\\n\\n    /**\\n     * @dev See {IERC20-transfer}.\\n     *\\n     * Requirements:\\n     *\\n     * - `to` cannot be the zero address.\\n     * - the caller must have a balance of at least `value`.\\n     */\\n    function transfer(address to, uint256 value) public virtual returns (bool) {\\n        address owner = _msgSender();\\n        _transfer(owner, to, value);\\n        return true;\\n    }\\n\\n    /// @inheritdoc IERC20\\n    function allowance(address owner, address spender) public view virtual returns (uint256) {\\n        return _allowances[owner][spender];\\n    }\\n\\n    /**\\n     * @dev See {IERC20-approve}.\\n     *\\n     * NOTE: If `value` is the maximum `uint256`, the allowance is not updated on\\n     * `transferFrom`. This is semantically equivalent to an infinite approval.\\n     *\\n     * Requirements:\\n     *\\n     * - `spender` cannot be the zero address.\\n     */\\n    function approve(address spender, uint256 value) public virtual returns (bool) {\\n        address owner = _msgSender();\\n        _approve(owner, spender, value);\\n        return true;\\n    }\\n\\n    /**\\n     * @dev See {IERC20-transferFrom}.\\n     *\\n     * Skips emitting an {Approval} event indicating an allowance update. This is not\\n     * required by the ERC. See {xref-ERC20-_approve-address-address-uint256-bool-}[_approve].\\n     *\\n     * NOTE: Does not update the allowance if the current allowance\\n     * is the maximum `uint256`.\\n     *\\n     * Requirements:\\n     *\\n     * - `from` and `to` cannot be the zero address.\\n     * - `from` must have a balance of at least `value`.\\n     * - the caller must have allowance for ``from``'s tokens of at least\\n     * `value`.\\n     */\\n    function transferFrom(address from, address to, uint256 value) public virtual returns (bool) {\\n        address spender = _msgSender();\\n        _spendAllowance(from, spender, value);\\n        _transfer(from, to, value);\\n        return true;\\n    }\\n\\n    /**\\n     * @dev Moves a `value` amount of tokens from `from` to `to`.\\n     *\\n     * This internal function is equivalent to {transfer}, and can be used to\\n     * e.g. implement automatic token fees, slashing mechanisms, etc.\\n     *\\n     * Emits a {Transfer} event.\\n     *\\n     * NOTE: This function is not virtual, {_update} should be overridden instead.\\n     */\\n    function _transfer(address from, address to, uint256 value) internal {\\n        if (from == address(0)) {\\n            revert ERC20InvalidSender(address(0));\\n        }\\n        if (to == address(0)) {\\n            revert ERC20InvalidReceiver(address(0));\\n        }\\n        _update(from, to, value);\\n    }\\n\\n    /**\\n     * @dev Transfers a `value` amount of tokens from `from` to `to`, or alternatively mints (or burns) if `from`\\n     * (or `to`) is the zero address. All customizations to transfers, mints, and burns should be done by overriding\\n     * this function.\\n     *\\n     * Emits a {Transfer} event.\\n     */\\n    function _update(address from, address to, uint256 value) internal virtual {\\n        if (from == address(0)) {\\n            // Overflow check required: The rest of the code assumes that totalSupply never overflows\\n            _totalSupply += value;\\n        } else {\\n            uint256 fromBalance = _balances[from];\\n            if (fromBalance < value) {\\n                revert ERC20InsufficientBalance(from, fromBalance, value);\\n            }\\n            unchecked {\\n                // Overflow not possible: value <= fromBalance <= totalSupply.\\n                _balances[from] = fromBalance - value;\\n            }\\n        }\\n\\n        if (to == address(0)) {\\n            unchecked {\\n                // Overflow not possible: value <= totalSupply or value <= fromBalance <= totalSupply.\\n                _totalSupply -= value;\\n            }\\n        } else {\\n            unchecked {\\n                // Overflow not possible: balance + value is at most totalSupply, which we know fits into a uint256.\\n                _balances[to] += value;\\n            }\\n        }\\n\\n        emit Transfer(from, to, value);\\n    }\\n\\n    /**\\n     * @dev Creates a `value` amount of tokens and assigns them to `account`, by transferring it from address(0).\\n     * Relies on the `_update` mechanism\\n     *\\n     * Emits a {Transfer} event with `from` set to the zero address.\\n     *\\n     * NOTE: This function is not virtual, {_update} should be overridden instead.\\n     */\\n    function _mint(address account, uint256 value) internal {\\n        if (account == address(0)) {\\n            revert ERC20InvalidReceiver(address(0));\\n        }\\n        _update(address(0), account, value);\\n    }\\n\\n    /**\\n     * @dev Destroys a `value` amount of tokens from `account`, lowering the total supply.\\n     * Relies on the `_update` mechanism.\\n     *\\n     * Emits a {Transfer} event with `to` set to the zero address.\\n     *\\n     * NOTE: This function is not virtual, {_update} should be overridden instead\\n     */\\n    function _burn(address account, uint256 value) internal {\\n        if (account == address(0)) {\\n            revert ERC20InvalidSender(address(0));\\n        }\\n        _update(account, address(0), value);\\n    }\\n\\n    /**\\n     * @dev Sets `value` as the allowance of `spender` over the `owner`'s tokens.\\n     *\\n     * This internal function is equivalent to `approve`, and can be used to\\n     * e.g. set automatic allowances for certain subsystems, etc.\\n     *\\n     * Emits an {Approval} event.\\n     *\\n     * Requirements:\\n     *\\n     * - `owner` cannot be the zero address.\\n     * - `spender` cannot be the zero address.\\n     *\\n     * Overrides to this logic should be done to the variant with an additional `bool emitEvent` argument.\\n     */\\n    function _approve(address owner, address spender, uint256 value) internal {\\n        _approve(owner, spender, value, true);\\n    }\\n\\n    /**\\n     * @dev Variant of {_approve} with an optional flag to enable or disable the {Approval} event.\\n     *\\n     * By default (when calling {_approve}) the flag is set to true. On the other hand, approval changes made by\\n     * `_spendAllowance` during the `transferFrom` operation sets the flag to false. This saves gas by not emitting any\\n     * `Approval` event during `transferFrom` operations.\\n     *\\n     * Anyone who wishes to continue emitting `Approval` events on the `transferFrom` operation can force the flag to\\n     * true using the following override:\\n     *\\n     * ```solidity\\n     * function _approve(address owner, address spender, uint256 value, bool) internal virtual override {\\n     *     super._approve(owner, spender, value, true);\\n     * }\\n     * ```\\n     *\\n     * Requirements are the same as {_approve}.\\n     */\\n    function _approve(address owner, address spender, uint256 value, bool emitEvent) internal virtual {\\n        if (owner == address(0)) {\\n            revert ERC20InvalidApprover(address(0));\\n        }\\n        if (spender == address(0)) {\\n            revert ERC20InvalidSpender(address(0));\\n        }\\n        _allowances[owner][spender] = value;\\n        if (emitEvent) {\\n            emit Approval(owner, spender, value);\\n        }\\n    }\\n\\n    /**\\n     * @dev Updates `owner`'s allowance for `spender` based on spent `value`.\\n     *\\n     * Does not update the allowance value in case of infinite allowance.\\n     * Revert if not enough allowance is available.\\n     *\\n     * Does not emit an {Approval} event.\\n     */\\n    function _spendAllowance(address owner, address spender, uint256 value) internal virtual {\\n        uint256 currentAllowance = allowance(owner, spender);\\n        if (currentAllowance < type(uint256).max) {\\n            if (currentAllowance < value) {\\n                revert ERC20InsufficientAllowance(spender, currentAllowance, value);\\n            }\\n            unchecked {\\n                _approve(owner, spender, currentAllowance - value, false);\\n            }\\n        }\\n    }\\n}\\n\"},\"@openzeppelin/contracts/token/ERC20/IERC20.sol\":{\"content\":\"// SPDX-License-Identifier: MIT\\n// OpenZeppelin Contracts (last updated v5.4.0) (token/ERC20/IERC20.sol)\\n\\npragma solidity >=0.4.16;\\n\\n/**\\n * @dev Interface of the ERC-20 standard as defined in the ERC.\\n */\\ninterface IERC20 {\\n    /**\\n     * @dev Emitted when `value` tokens are moved from one account (`from`) to\\n     * another (`to`).\\n     *\\n     * Note that `value` may be zero.\\n     */\\n    event Transfer(address indexed from, address indexed to, uint256 value);\\n\\n    /**\\n     * @dev Emitted when the allowance of a `spender` for an `owner` is set by\\n     * a call to {approve}. `value` is the new allowance.\\n     */\\n    event Approval(address indexed owner, address indexed spender, uint256 value);\\n\\n    /**\\n     * @dev Returns the value of tokens in existence.\\n     */\\n    function totalSupply() external view returns (uint256);\\n\\n    /**\\n     * @dev Returns the value of tokens owned by `account`.\\n     */\\n    function balanceOf(address account) external view returns (uint256);\\n\\n    /**\\n     * @dev Moves a `value` amount of tokens from the caller's account to `to`.\\n     *\\n     * Returns a boolean value indicating whether the operation succeeded.\\n     *\\n     * Emits a {Transfer} event.\\n     */\\n    function transfer(address to, uint256 value) external returns (bool);\\n\\n    /**\\n     * @dev Returns the remaining number of tokens that `spender` will be\\n     * allowed to spend on behalf of `owner` through {transferFrom}. This is\\n     * zero by default.\\n     *\\n     * This value changes when {approve} or {transferFrom} are called.\\n     */\\n    function allowance(address owner, address spender) external view returns (uint256);\\n\\n    /**\\n     * @dev Sets a `value` amount of tokens as the allowance of `spender` over the\\n     * caller's tokens.\\n     *\\n     * Returns a boolean value indicating whether the operation succeeded.\\n     *\\n     * IMPORTANT: Beware that changing an allowance with this method brings the risk\\n     * that someone may use both the old and the new allowance by unfortunate\\n     * transaction ordering. One possible solution to mitigate this race\\n     * condition is to first reduce the spender's allowance to 0 and set the\\n     * desired value afterwards:\\n     * https://github.com/ethereum/EIPs/issues/20#issuecomment-263524729\\n     *\\n     * Emits an {Approval} event.\\n     */\\n    function approve(address spender, uint256 value) external returns (bool);\\n\\n    /**\\n     * @dev Moves a `value` amount of tokens from `from` to `to` using the\\n     * allowance mechanism. `value` is then deducted from the caller's\\n     * allowance.\\n     *\\n     * Returns a boolean value indicating whether the operation succeeded.\\n     *\\n     * Emits a {Transfer} event.\\n     */\\n    function transferFrom(address from, address to, uint256 value) external returns (bool);\\n}\\n\"},\"@openzeppelin/contracts/token/ERC20/extensions/IERC20Metadata.sol\":{\"content\":\"// SPDX-License-Identifier: MIT\\n// OpenZeppelin Contracts (last updated v5.4.0) (token/ERC20/extensions/IERC20Metadata.sol)\\n\\npragma solidity >=0.6.2;\\n\\nimport {IERC20} from \\\"../IERC20.sol\\\";\\n\\n/**\\n * @dev Interface for the optional metadata functions from the ERC-20 standard.\\n */\\ninterface IERC20Metadata is IERC20 {\\n    /**\\n     * @dev Returns the name of the token.\\n     */\\n    function name() external view returns (string memory);\\n\\n    /**\\n     * @dev Returns the symbol of the token.\\n     */\\n    function symbol() external view returns (string memory);\\n\\n    /**\\n     * @dev Returns the decimals places of the token.\\n     */\\n    function decimals() external view returns (uint8);\\n}\\n\"},\"@openzeppelin/contracts/utils/Context.sol\":{\"content\":\"// SPDX-License-Identifier: MIT\\n// OpenZeppelin Contracts (last updated v5.0.1) (utils/Context.sol)\\n\\npragma solidity ^0.8.20;\\n\\n/**\\n * @dev Provides information about the current execution context, including the\\n * sender of the transaction and its data. While these are generally available\\n * via msg.sender and msg.data, they should not be accessed in such a direct\\n * manner, since when dealing with meta-transactions the account sending and\\n * paying for execution may not be the actual sender (as far as an application\\n * is concerned).\\n *\\n * This contract is only required for intermediate, library-like contracts.\\n */\\nabstract contract Context {\\n    function _msgSender() internal view virtual returns (address) {\\n        return msg.sender;\\n    }\\n\\n    function _msgData() internal view virtual returns (bytes calldata) {\\n        return msg.data;\\n    }\\n\\n    function _contextSuffixLength() internal view virtual returns (uint256) {\\n        return 0;\\n    }\\n}\\n\"},\"@openzeppelin/contracts/interfaces/draft-IERC6093.sol\":{\"content\":\"// SPDX-License-Identifier: MIT\\n// OpenZeppelin Contracts (last updated v5.5.0) (interfaces/draft-IERC6093.sol)\\n\\npragma solidity >=0.8.4;\\n\\n/**\\n * @dev Standard ERC-20 Errors\\n * Interface of the https://eips.ethereum.org/EIPS/eip-6093[ERC-6093] custom errors for ERC-20 tokens.\\n */\\ninterface IERC20Errors {\\n    /**\\n     * @dev Indicates an error related to the current `balance` of a `sender`. Used in transfers.\\n     * @param sender Address whose tokens are being transferred.\\n     * @param balance Current balance for the interacting account.\\n     * @param needed Minimum amount required to perform a transfer.\\n     */\\n    error ERC20InsufficientBalance(address sender, uint256 balance, uint256 needed);\\n\\n    /**\\n     * @dev Indicates a failure with the token `sender`. Used in transfers.\\n     * @param sender Address whose tokens are being transferred.\\n     */\\n    error ERC20InvalidSender(address sender);\\n\\n    /**\\n     * @dev Indicates a failure with the token `receiver`. Used in transfers.\\n     * @param receiver Address to which tokens are being transferred.\\n     */\\n    error ERC20InvalidReceiver(address receiver);\\n\\n    /**\\n     * @dev Indicates a failure with the `spender`’s `allowance`. Used in transfers.\\n     * @param spender Address that may be allowed to operate on tokens without being their owner.\\n     * @param allowance Amount of tokens a `spender` is allowed to operate with.\\n     * @param needed Minimum amount required to perform a transfer.\\n     */\\n    error ERC20InsufficientAllowance(address spender, uint256 allowance, uint256 needed);\\n\\n    /**\\n     * @dev Indicates a failure with the `approver` of a token to be approved. Used in approvals.\\n     * @param approver Address initiating an approval operation.\\n     */\\n    error ERC20InvalidApprover(address approver);\\n\\n    /**\\n     * @dev Indicates a failure with the `spender` to be approved. Used in approvals.\\n     * @param spender Address that may be allowed to operate on tokens without being their owner.\\n     */\\n    error ERC20InvalidSpender(address spender);\\n}\\n\\n/**\\n * @dev Standard ERC-721 Errors\\n * Interface of the https://eips.ethereum.org/EIPS/eip-6093[ERC-6093] custom errors for ERC-721 tokens.\\n */\\ninterface IERC721Errors {\\n    /**\\n     * @dev Indicates that an address can't be an owner. For example, `address(0)` is a forbidden owner in ERC-721.\\n     * Used in balance queries.\\n     * @param owner Address of the current owner of a token.\\n     */\\n    error ERC721InvalidOwner(address owner);\\n\\n    /**\\n     * @dev Indicates a `tokenId` whose `owner` is the zero address.\\n     * @param tokenId Identifier number of a token.\\n     */\\n    error ERC721NonexistentToken(uint256 tokenId);\\n\\n    /**\\n     * @dev Indicates an error related to the ownership over a particular token. Used in transfers.\\n     * @param sender Address whose tokens are being transferred.\\n     * @param tokenId Identifier number of a token.\\n     * @param owner Address of the current owner of a token.\\n     */\\n    error ERC721IncorrectOwner(address sender, uint256 tokenId, address owner);\\n\\n    /**\\n     * @dev Indicates a failure with the token `sender`. Used in transfers.\\n     * @param sender Address whose tokens are being transferred.\\n     */\\n    error ERC721InvalidSender(address sender);\\n\\n    /**\\n     * @dev Indicates a failure with the token `receiver`. Used in transfers.\\n     * @param receiver Address to which tokens are being transferred.\\n     */\\n    error ERC721InvalidReceiver(address receiver);\\n\\n    /**\\n     * @dev Indicates a failure with the `operator`’s approval. Used in transfers.\\n     * @param operator Address that may be allowed to operate on tokens without being their owner.\\n     * @param tokenId Identifier number of a token.\\n     */\\n    error ERC721InsufficientApproval(address operator, uint256 tokenId);\\n\\n    /**\\n     * @dev Indicates a failure with the `approver` of a token to be approved. Used in approvals.\\n     * @param approver Address initiating an approval operation.\\n     */\\n    error ERC721InvalidApprover(address approver);\\n\\n    /**\\n     * @dev Indicates a failure with the `operator` to be approved. Used in approvals.\\n     * @param operator Address that may be allowed to operate on tokens without being their owner.\\n     */\\n    error ERC721InvalidOperator(address operator);\\n}\\n\\n/**\\n * @dev Standard ERC-1155 Errors\\n * Interface of the https://eips.ethereum.org/EIPS/eip-6093[ERC-6093] custom errors for ERC-1155 tokens.\\n */\\ninterface IERC1155Errors {\\n    /**\\n     * @dev Indicates an error related to the current `balance` of a `sender`. Used in transfers.\\n     * @param sender Address whose tokens are being transferred.\\n     * @param balance Current balance for the interacting account.\\n     * @param needed Minimum amount required to perform a transfer.\\n     * @param tokenId Identifier number of a token.\\n     */\\n    error ERC1155InsufficientBalance(address sender, uint256 balance, uint256 needed, uint256 tokenId);\\n\\n    /**\\n     * @dev Indicates a failure with the token `sender`. Used in transfers.\\n     * @param sender Address whose tokens are being transferred.\\n     */\\n    error ERC1155InvalidSender(address sender);\\n\\n    /**\\n     * @dev Indicates a failure with the token `receiver`. Used in transfers.\\n     * @param receiver Address to which tokens are being transferred.\\n     */\\n    error ERC1155InvalidReceiver(address receiver);\\n\\n    /**\\n     * @dev Indicates a failure with the `operator`’s approval. Used in transfers.\\n     * @param operator Address that may be allowed to operate on tokens without being their owner.\\n     * @param owner Address of the current owner of a token.\\n     */\\n    error ERC1155MissingApprovalForAll(address operator, address owner);\\n\\n    /**\\n     * @dev Indicates a failure with the `approver` of a token to be approved. Used in approvals.\\n     * @param approver Address initiating an approval operation.\\n     */\\n    error ERC1155InvalidApprover(address approver);\\n\\n    /**\\n     * @dev Indicates a failure with the `operator` to be approved. Used in approvals.\\n     * @param operator Address that may be allowed to operate on tokens without being their owner.\\n     */\\n    error ERC1155InvalidOperator(address operator);\\n\\n    /**\\n     * @dev Indicates an array length mismatch between ids and values in a safeBatchTransferFrom operation.\\n     * Used in batch transfers.\\n     * @param idsLength Length of the array of token identifiers\\n     * @param valuesLength Length of the array of token amounts\\n     */\\n    error ERC1155InvalidArrayLength(uint256 idsLength, uint256 valuesLength);\\n}\\n\"},\"@openzeppelin/contracts/token/ERC20/extensions/ERC20Pausable.sol\":{\"content\":\"// SPDX-License-Identifier: MIT\\n// OpenZeppelin Contracts (last updated v5.1.0) (token/ERC20/extensions/ERC20Pausable.sol)\\n\\npragma solidity ^0.8.20;\\n\\nimport {ERC20} from \\\"../ERC20.sol\\\";\\nimport {Pausable} from \\\"../../../utils/Pausable.sol\\\";\\n\\n/**\\n * @dev ERC-20 token with pausable token transfers, minting and burning.\\n *\\n * Useful for scenarios such as preventing trades until the end of an evaluation\\n * period, or having an emergency switch for freezing all token transfers in the\\n * event of a large bug.\\n *\\n * IMPORTANT: This contract does not include public pause and unpause functions. In\\n * addition to inheriting this contract, you must define both functions, invoking the\\n * {Pausable-_pause} and {Pausable-_unpause} internal functions, with appropriate\\n * access control, e.g. using {AccessControl} or {Ownable}. Not doing so will\\n * make the contract pause mechanism of the contract unreachable, and thus unusable.\\n */\\nabstract contract ERC20Pausable is ERC20, Pausable {\\n    /**\\n     * @dev See {ERC20-_update}.\\n     *\\n     * Requirements:\\n     *\\n     * - the contract must not be paused.\\n     */\\n    function _update(address from, address to, uint256 value) internal virtual override whenNotPaused {\\n        super._update(from, to, value);\\n    }\\n}\\n\"},\"@openzeppelin/contracts/utils/Pausable.sol\":{\"content\":\"// SPDX-License-Identifier: MIT\\n// OpenZeppelin Contracts (last updated v5.3.0) (utils/Pausable.sol)\\n\\npragma solidity ^0.8.20;\\n\\nimport {Context} from \\\"../utils/Context.sol\\\";\\n\\n/**\\n * @dev Contract module which allows children to implement an emergency stop\\n * mechanism that can be triggered by an authorized account.\\n *\\n * This module is used through inheritance. It will make available the\\n * modifiers `whenNotPaused` and `whenPaused`, which can be applied to\\n * the functions of your contract. Note that they will not be pausable by\\n * simply including this module, only once the modifiers are put in place.\\n */\\nabstract contract Pausable is Context {\\n    bool private _paused;\\n\\n    /**\\n     * @dev Emitted when the pause is triggered by `account`.\\n     */\\n    event Paused(address account);\\n\\n    /**\\n     * @dev Emitted when the pause is lifted by `account`.\\n     */\\n    event Unpaused(address account);\\n\\n    /**\\n     * @dev The operation failed because the contract is paused.\\n     */\\n    error EnforcedPause();\\n\\n    /**\\n     * @dev The operation failed because the contract is not paused.\\n     */\\n    error ExpectedPause();\\n\\n    /**\\n     * @dev Modifier to make a function callable only when the contract is not paused.\\n     *\\n     * Requirements:\\n     *\\n     * - The contract must not be paused.\\n     */\\n    modifier whenNotPaused() {\\n        _requireNotPaused();\\n        _;\\n    }\\n\\n    /**\\n     * @dev Modifier to make a function callable only when the contract is paused.\\n     *\\n     * Requirements:\\n     *\\n     * - The contract must be paused.\\n     */\\n    modifier whenPaused() {\\n        _requirePaused();\\n        _;\\n    }\\n\\n    /**\\n     * @dev Returns true if the contract is paused, and false otherwise.\\n     */\\n    function paused() public view virtual returns (bool) {\\n        return _paused;\\n    }\\n\\n    /**\\n     * @dev Throws if the contract is paused.\\n     */\\n    function _requireNotPaused() internal view virtual {\\n        if (paused()) {\\n            revert EnforcedPause();\\n        }\\n    }\\n\\n    /**\\n     * @dev Throws if the contract is not paused.\\n     */\\n    function _requirePaused() internal view virtual {\\n        if (!paused()) {\\n            revert ExpectedPause();\\n        }\\n    }\\n\\n    /**\\n     * @dev Triggers stopped state.\\n     *\\n     * Requirements:\\n     *\\n     * - The contract must not be paused.\\n     */\\n    function _pause() internal virtual whenNotPaused {\\n        _paused = true;\\n        emit Paused(_msgSender());\\n    }\\n\\n    /**\\n     * @dev Returns to normal state.\\n     *\\n     * Requirements:\\n     *\\n     * - The contract must be paused.\\n     */\\n    function _unpause() internal virtual whenPaused {\\n        _paused = false;\\n        emit Unpaused(_msgSender());\\n    }\\n}\\n\"},\"@openzeppelin/contracts/access/AccessControl.sol\":{\"content\":\"// SPDX-License-Identifier: MIT\\n// OpenZeppelin Contracts (last updated v5.6.0) (access/AccessControl.sol)\\n\\npragma solidity ^0.8.20;\\n\\nimport {IAccessControl} from \\\"./IAccessControl.sol\\\";\\nimport {Context} from \\\"../utils/Context.sol\\\";\\nimport {ERC165} from \\\"../utils/introspection/ERC165.sol\\\";\\n\\n/**\\n * @dev Contract module that allows children to implement role-based access\\n * control mechanisms. This is a lightweight version that doesn't allow enumerating role\\n * members except through off-chain means by accessing the contract event logs. Some\\n * applications may benefit from on-chain enumerability, for those cases see\\n * {AccessControlEnumerable}.\\n *\\n * Roles are referred to by their `bytes32` identifier. These should be exposed\\n * in the external API and be unique. The best way to achieve this is by\\n * using `public constant` hash digests:\\n *\\n * ```solidity\\n * bytes32 public constant MY_ROLE = keccak256(\\\"MY_ROLE\\\");\\n * ```\\n *\\n * Roles can be used to represent a set of permissions. To restrict access to a\\n * function call, use {hasRole}:\\n *\\n * ```solidity\\n * function foo() public {\\n *     require(hasRole(MY_ROLE, msg.sender));\\n *     ...\\n * }\\n * ```\\n *\\n * Roles can be granted and revoked dynamically via the {grantRole} and\\n * {revokeRole} functions. Each role has an associated admin role, and only\\n * accounts that have a role's admin role can call {grantRole} and {revokeRole}.\\n *\\n * By default, the admin role for all roles is `DEFAULT_ADMIN_ROLE`, which means\\n * that only accounts with this role will be able to grant or revoke other\\n * roles. More complex role relationships can be created by using\\n * {_setRoleAdmin}.\\n *\\n * WARNING: The `DEFAULT_ADMIN_ROLE` is also its own admin: it has permission to\\n * grant and revoke this role. Extra precautions should be taken to secure\\n * accounts that have been granted it. We recommend using {AccessControlDefaultAdminRules}\\n * to enforce additional security measures for this role.\\n */\\nabstract contract AccessControl is Context, IAccessControl, ERC165 {\\n    struct RoleData {\\n        mapping(address account => bool) hasRole;\\n        bytes32 adminRole;\\n    }\\n\\n    mapping(bytes32 role => RoleData) private _roles;\\n\\n    bytes32 public constant DEFAULT_ADMIN_ROLE = 0x00;\\n\\n    /**\\n     * @dev Modifier that checks that an account has a specific role. Reverts\\n     * with an {AccessControlUnauthorizedAccount} error including the required role.\\n     */\\n    modifier onlyRole(bytes32 role) {\\n        _checkRole(role);\\n        _;\\n    }\\n\\n    /// @inheritdoc ERC165\\n    function supportsInterface(bytes4 interfaceId) public view virtual override returns (bool) {\\n        return interfaceId == type(IAccessControl).interfaceId || super.supportsInterface(interfaceId);\\n    }\\n\\n    /**\\n     * @dev Returns `true` if `account` has been granted `role`.\\n     */\\n    function hasRole(bytes32 role, address account) public view virtual returns (bool) {\\n        return _roles[role].hasRole[account];\\n    }\\n\\n    /**\\n     * @dev Reverts with an {AccessControlUnauthorizedAccount} error if `_msgSender()`\\n     * is missing `role`. Overriding this function changes the behavior of the {onlyRole} modifier.\\n     */\\n    function _checkRole(bytes32 role) internal view virtual {\\n        _checkRole(role, _msgSender());\\n    }\\n\\n    /**\\n     * @dev Reverts with an {AccessControlUnauthorizedAccount} error if `account`\\n     * is missing `role`.\\n     */\\n    function _checkRole(bytes32 role, address account) internal view virtual {\\n        if (!hasRole(role, account)) {\\n            revert AccessControlUnauthorizedAccount(account, role);\\n        }\\n    }\\n\\n    /**\\n     * @dev Returns the admin role that controls `role`. See {grantRole} and\\n     * {revokeRole}.\\n     *\\n     * To change a role's admin, use {_setRoleAdmin}.\\n     */\\n    function getRoleAdmin(bytes32 role) public view virtual returns (bytes32) {\\n        return _roles[role].adminRole;\\n    }\\n\\n    /**\\n     * @dev Grants `role` to `account`.\\n     *\\n     * If `account` had not been already granted `role`, emits a {RoleGranted}\\n     * event.\\n     *\\n     * Requirements:\\n     *\\n     * - the caller must have ``role``'s admin role.\\n     *\\n     * May emit a {RoleGranted} event.\\n     */\\n    function grantRole(bytes32 role, address account) public virtual onlyRole(getRoleAdmin(role)) {\\n        _grantRole(role, account);\\n    }\\n\\n    /**\\n     * @dev Revokes `role` from `account`.\\n     *\\n     * If `account` had been granted `role`, emits a {RoleRevoked} event.\\n     *\\n     * Requirements:\\n     *\\n     * - the caller must have ``role``'s admin role.\\n     *\\n     * May emit a {RoleRevoked} event.\\n     */\\n    function revokeRole(bytes32 role, address account) public virtual onlyRole(getRoleAdmin(role)) {\\n        _revokeRole(role, account);\\n    }\\n\\n    /**\\n     * @dev Revokes `role` from the calling account.\\n     *\\n     * Roles are often managed via {grantRole} and {revokeRole}: this function's\\n     * purpose is to provide a mechanism for accounts to lose their privileges\\n     * if they are compromised (such as when a trusted device is misplaced).\\n     *\\n     * If the calling account had been revoked `role`, emits a {RoleRevoked}\\n     * event.\\n     *\\n     * Requirements:\\n     *\\n     * - the caller must be `callerConfirmation`.\\n     *\\n     * May emit a {RoleRevoked} event.\\n     */\\n    function renounceRole(bytes32 role, address callerConfirmation) public virtual {\\n        if (callerConfirmation != _msgSender()) {\\n            revert AccessControlBadConfirmation();\\n        }\\n\\n        _revokeRole(role, callerConfirmation);\\n    }\\n\\n    /**\\n     * @dev Sets `adminRole` as ``role``'s admin role.\\n     *\\n     * Emits a {RoleAdminChanged} event.\\n     */\\n    function _setRoleAdmin(bytes32 role, bytes32 adminRole) internal virtual {\\n        bytes32 previousAdminRole = getRoleAdmin(role);\\n        _roles[role].adminRole = adminRole;\\n        emit RoleAdminChanged(role, previousAdminRole, adminRole);\\n    }\\n\\n    /**\\n     * @dev Attempts to grant `role` to `account` and returns a boolean indicating if `role` was granted.\\n     *\\n     * Internal function without access restriction.\\n     *\\n     * May emit a {RoleGranted} event.\\n     */\\n    function _grantRole(bytes32 role, address account) internal virtual returns (bool) {\\n        if (!hasRole(role, account)) {\\n            _roles[role].hasRole[account] = true;\\n            emit RoleGranted(role, account, _msgSender());\\n            return true;\\n        } else {\\n            return false;\\n        }\\n    }\\n\\n    /**\\n     * @dev Attempts to revoke `role` from `account` and returns a boolean indicating if `role` was revoked.\\n     *\\n     * Internal function without access restriction.\\n     *\\n     * May emit a {RoleRevoked} event.\\n     */\\n    function _revokeRole(bytes32 role, address account) internal virtual returns (bool) {\\n        if (hasRole(role, account)) {\\n            _roles[role].hasRole[account] = false;\\n            emit RoleRevoked(role, account, _msgSender());\\n            return true;\\n        } else {\\n            return false;\\n        }\\n    }\\n}\\n\"},\"@openzeppelin/contracts/access/IAccessControl.sol\":{\"content\":\"// SPDX-License-Identifier: MIT\\n// OpenZeppelin Contracts (last updated v5.4.0) (access/IAccessControl.sol)\\n\\npragma solidity >=0.8.4;\\n\\n/**\\n * @dev External interface of AccessControl declared to support ERC-165 detection.\\n */\\ninterface IAccessControl {\\n    /**\\n     * @dev The `account` is missing a role.\\n     */\\n    error AccessControlUnauthorizedAccount(address account, bytes32 neededRole);\\n\\n    /**\\n     * @dev The caller of a function is not the expected one.\\n     *\\n     * NOTE: Don't confuse with {AccessControlUnauthorizedAccount}.\\n     */\\n    error AccessControlBadConfirmation();\\n\\n    /**\\n     * @dev Emitted when `newAdminRole` is set as ``role``'s admin role, replacing `previousAdminRole`\\n     *\\n     * `DEFAULT_ADMIN_ROLE` is the starting admin for all roles, despite\\n     * {RoleAdminChanged} not being emitted to signal this.\\n     */\\n    event RoleAdminChanged(bytes32 indexed role, bytes32 indexed previousAdminRole, bytes32 indexed newAdminRole);\\n\\n    /**\\n     * @dev Emitted when `account` is granted `role`.\\n     *\\n     * `sender` is the account that originated the contract call. This account bears the admin role (for the granted role).\\n     * Expected in cases where the role was granted using the internal {AccessControl-_grantRole}.\\n     */\\n    event RoleGranted(bytes32 indexed role, address indexed account, address indexed sender);\\n\\n    /**\\n     * @dev Emitted when `account` is revoked `role`.\\n     *\\n     * `sender` is the account that originated the contract call:\\n     *   - if using `revokeRole`, it is the admin role bearer\\n     *   - if using `renounceRole`, it is the role bearer (i.e. `account`)\\n     */\\n    event RoleRevoked(bytes32 indexed role, address indexed account, address indexed sender);\\n\\n    /**\\n     * @dev Returns `true` if `account` has been granted `role`.\\n     */\\n    function hasRole(bytes32 role, address account) external view returns (bool);\\n\\n    /**\\n     * @dev Returns the admin role that controls `role`. See {grantRole} and\\n     * {revokeRole}.\\n     *\\n     * To change a role's admin, use {AccessControl-_setRoleAdmin}.\\n     */\\n    function getRoleAdmin(bytes32 role) external view returns (bytes32);\\n\\n    /**\\n     * @dev Grants `role` to `account`.\\n     *\\n     * If `account` had not been already granted `role`, emits a {RoleGranted}\\n     * event.\\n     *\\n     * Requirements:\\n     *\\n     * - the caller must have ``role``'s admin role.\\n     */\\n    function grantRole(bytes32 role, address account) external;\\n\\n    /**\\n     * @dev Revokes `role` from `account`.\\n     *\\n     * If `account` had been granted `role`, emits a {RoleRevoked} event.\\n     *\\n     * Requirements:\\n     *\\n     * - the caller must have ``role``'s admin role.\\n     */\\n    function revokeRole(bytes32 role, address account) external;\\n\\n    /**\\n     * @dev Revokes `role` from the calling account.\\n     *\\n     * Roles are often managed via {grantRole} and {revokeRole}: this function's\\n     * purpose is to provide a mechanism for accounts to lose their privileges\\n     * if they are compromised (such as when a trusted device is misplaced).\\n     *\\n     * If the calling account had been granted `role`, emits a {RoleRevoked}\\n     * event.\\n     *\\n     * Requirements:\\n     *\\n     * - the caller must be `callerConfirmation`.\\n     */\\n    function renounceRole(bytes32 role, address callerConfirmation) external;\\n}\\n\"},\"@openzeppelin/contracts/utils/introspection/ERC165.sol\":{\"content\":\"// SPDX-License-Identifier: MIT\\n// OpenZeppelin Contracts (last updated v5.4.0) (utils/introspection/ERC165.sol)\\n\\npragma solidity ^0.8.20;\\n\\nimport {IERC165} from \\\"./IERC165.sol\\\";\\n\\n/**\\n * @dev Implementation of the {IERC165} interface.\\n *\\n * Contracts that want to implement ERC-165 should inherit from this contract and override {supportsInterface} to check\\n * for the additional interface id that will be supported. For example:\\n *\\n * ```solidity\\n * function supportsInterface(bytes4 interfaceId) public view virtual override returns (bool) {\\n *     return interfaceId == type(MyInterface).interfaceId || super.supportsInterface(interfaceId);\\n * }\\n * ```\\n */\\nabstract contract ERC165 is IERC165 {\\n    /// @inheritdoc IERC165\\n    function supportsInterface(bytes4 interfaceId) public view virtual returns (bool) {\\n        return interfaceId == type(IERC165).interfaceId;\\n    }\\n}\\n\"},\"@openzeppelin/contracts/utils/introspection/IERC165.sol\":{\"content\":\"// SPDX-License-Identifier: MIT\\n// OpenZeppelin Contracts (last updated v5.4.0) (utils/introspection/IERC165.sol)\\n\\npragma solidity >=0.4.16;\\n\\n/**\\n * @dev Interface of the ERC-165 standard, as defined in the\\n * https://eips.ethereum.org/EIPS/eip-165[ERC].\\n *\\n * Implementers can declare support of contract interfaces, which can then be\\n * queried by others ({ERC165Checker}).\\n *\\n * For an implementation, see {ERC165}.\\n */\\ninterface IERC165 {\\n    /**\\n     * @dev Returns true if this contract implements the interface defined by\\n     * `interfaceId`. See the corresponding\\n     * https://eips.ethereum.org/EIPS/eip-165#how-interfaces-are-identified[ERC section]\\n     * to learn more about how these ids are created.\\n     *\\n     * This function call must use less than 30 000 gas.\\n     */\\n    function supportsInterface(bytes4 interfaceId) external view returns (bool);\\n}\\n\"}},\"settings\":{\"optimizer\":{\"enabled\":false,\"runs\":200},\"outputSelection\":{\"*\":{\"\":[\"ast\"],\"*\":[\"abi\",\"metadata\",\"devdoc\",\"userdoc\",\"storageLayout\",\"evm.legacyAssembly\",\"evm.bytecode\",\"evm.deployedBytecode\",\"evm.methodIdentifiers\",\"evm.gasEstimates\",\"evm.assembly\"]}},\"remappings\":[]}}",
	"name": "Rinanze",
	"bytecode": {
		"linkReferences": {},
		"object": "608060405234801561000f575f5ffd5b506040518060400160405280600781526020017f52494e414e5a45000000000000000000000000000000000000000000000000008152506040518060400160405280600381526020017f52494e0000000000000000000000000000000000000000000000000000000000815250816003908161008b9190610529565b50806004908161009b9190610529565b5050506100b05f5f1b3361017a60201b60201c565b506100e17f9f2df0fed2c77648de5860a4cc508cd0818c85b8b8a1ab4ceeef8d981c8956a63361017a60201b60201c565b506101127f92de27771f92d6942691d73358b3a4673e4880de8356f8f2cf452be87e02d3633361017a60201b60201c565b506101437f65d7a28e3265b37a6474929f336521b332c1681b933f6cb9f3376673440d862a3361017a60201b60201c565b506101747ffacaf2747a7486cf5730e9265973fb54447d3ace6e7e4711f6360826b07319413361017a60201b60201c565b506105f8565b5f61018b838361027060201b60201c565b61026657600160065f8581526020019081526020015f205f015f8473ffffffffffffffffffffffffffffffffffffffff1673ffffffffffffffffffffffffffffffffffffffff1681526020019081526020015f205f6101000a81548160ff0219169083151502179055506102036102d460201b60201c565b73ffffffffffffffffffffffffffffffffffffffff168273ffffffffffffffffffffffffffffffffffffffff16847f2f8788117e7eff1d82e926ec794901d17c78024a50270940304540a733656f0d60405160405180910390a46001905061026a565b5f90505b92915050565b5f60065f8481526020019081526020015f205f015f8373ffffffffffffffffffffffffffffffffffffffff1673ffffffffffffffffffffffffffffffffffffffff1681526020019081526020015f205f9054906101000a900460ff16905092915050565b5f33905090565b5f81519050919050565b7f4e487b71000000000000000000000000000000000000000000000000000000005f52604160045260245ffd5b7f4e487b71000000000000000000000000000000000000000000000000000000005f52602260045260245ffd5b5f600282049050600182168061035657607f821691505b60208210810361036957610368610312565b5b50919050565b5f819050815f5260205f209050919050565b5f6020601f8301049050919050565b5f82821b905092915050565b5f600883026103cb7fffffffffffffffffffffffffffffffffffffffffffffffffffffffffffffffff82610390565b6103d58683610390565b95508019841693508086168417925050509392505050565b5f819050919050565b5f819050919050565b5f61041961041461040f846103ed565b6103f6565b6103ed565b9050919050565b5f819050919050565b610432836103ff565b61044661043e82610420565b84845461039c565b825550505050565b5f5f905090565b61045d61044e565b610468818484610429565b505050565b5f5b8281101561048e576104835f828401610455565b60018101905061046f565b505050565b601f8211156104e157828211156104e0576104ad8161036f565b6104b683610381565b6104bf85610381565b60208610156104cc575f90505b8083016104db8284038261046d565b505050505b5b505050565b5f82821c905092915050565b5f6105015f19846008026104e6565b1980831691505092915050565b5f61051983836104f2565b9150826002028217905092915050565b610532826102db565b67ffffffffffffffff81111561054b5761054a6102e5565b5b610555825461033f565b610560828285610493565b5f60209050601f831160018114610591575f841561057f578287015190505b610589858261050e565b8655506105f0565b601f19841661059f8661036f565b5f5b828110156105c6578489015182556001820191506020850194506020810190506105a1565b868310156105e357848901516105df601f8916826104f2565b8355505b6001600288020188555050505b505050505050565b612123806106055f395ff3fe608060405234801561000f575f5ffd5b506004361061018c575f3560e01c806360f588b7116100dc578063a217fddf11610095578063d547741f1161006f578063d547741f14610470578063dd62ed3e1461048c578063e63ab1e9146104bc578063f0a56fc8146104da5761018c565b8063a217fddf14610404578063a9059cbb14610422578063d5391393146104525761018c565b806360f588b71461034457806370a08231146103605780638456cb591461039057806391d148541461039a57806395d89b41146103ca5780639f001169146103e85761018c565b8063248a9ca31161014957806336568abe1161012357806336568abe146102e45780633f4ba83a1461030057806340c10f191461030a5780635c975abb146103265761018c565b8063248a9ca31461027a5780632f2ff15d146102aa578063313ce567146102c65761018c565b806301ffc9a71461019057806306a85f0f146101c057806306fdde03146101de578063095ea7b3146101fc57806318160ddd1461022c57806323b872dd1461024a575b5f5ffd5b6101aa60048036038101906101a591906119ec565b6104f8565b6040516101b79190611a31565b60405180910390f35b6101c8610571565b6040516101d59190611a62565b60405180910390f35b6101e6610595565b6040516101f39190611aeb565b60405180910390f35b61021660048036038101906102119190611b98565b610625565b6040516102239190611a31565b60405180910390f35b610234610647565b6040516102419190611be5565b60405180910390f35b610264600480360381019061025f9190611bfe565b610650565b6040516102719190611a31565b60405180910390f35b610294600480360381019061028f9190611c78565b61067e565b6040516102a19190611a62565b60405180910390f35b6102c460048036038101906102bf9190611ca3565b61069b565b005b6102ce6106bd565b6040516102db9190611cfc565b60405180910390f35b6102fe60048036038101906102f99190611ca3565b6106c5565b005b610308610740565b005b610324600480360381019061031f9190611b98565b610775565b005b61032e6107fc565b60405161033b9190611a31565b60405180910390f35b61035e60048036038101906103599190611d15565b610811565b005b61037a60048036038101906103759190611d15565b61095f565b6040516103879190611be5565b60405180910390f35b6103986109a4565b005b6103b460048036038101906103af9190611ca3565b6109d9565b6040516103c19190611a31565b60405180910390f35b6103d2610a3d565b6040516103df9190611aeb565b60405180910390f35b61040260048036038101906103fd9190611d15565b610acd565b005b61040c610c1d565b6040516104199190611a62565b60405180910390f35b61043c60048036038101906104379190611b98565b610c23565b6040516104499190611a31565b60405180910390f35b61045a610c45565b6040516104679190611a62565b60405180910390f35b61048a60048036038101906104859190611ca3565b610c69565b005b6104a660048036038101906104a19190611d40565b610c8b565b6040516104b39190611be5565b60405180910390f35b6104c4610d0d565b6040516104d19190611a62565b60405180910390f35b6104e2610d31565b6040516104ef9190611a62565b60405180910390f35b5f7f7965db0b000000000000000000000000000000000000000000000000000000007bffffffffffffffffffffffffffffffffffffffffffffffffffffffff1916827bffffffffffffffffffffffffffffffffffffffffffffffffffffffff1916148061056a575061056982610d55565b5b9050919050565b7f92de27771f92d6942691d73358b3a4673e4880de8356f8f2cf452be87e02d36381565b6060600380546105a490611dab565b80601f01602080910402602001604051908101604052809291908181526020018280546105d090611dab565b801561061b5780601f106105f25761010080835404028352916020019161061b565b820191905f5260205f20905b8154815290600101906020018083116105fe57829003601f168201915b5050505050905090565b5f5f61062f610dbe565b905061063c818585610dc5565b600191505092915050565b5f600254905090565b5f5f61065a610dbe565b9050610667858285610dd7565b610672858585610e6a565b60019150509392505050565b5f60065f8381526020019081526020015f20600101549050919050565b6106a48261067e565b6106ad81610f5a565b6106b78383610f6e565b50505050565b5f6012905090565b6106cd610dbe565b73ffffffffffffffffffffffffffffffffffffffff168173ffffffffffffffffffffffffffffffffffffffff1614610731576040517f6697b23200000000000000000000000000000000000000000000000000000000815260040160405180910390fd5b61073b8282611058565b505050565b7f65d7a28e3265b37a6474929f336521b332c1681b933f6cb9f3376673440d862a61076a81610f5a565b610772611142565b50565b7f9f2df0fed2c77648de5860a4cc508cd0818c85b8b8a1ab4ceeef8d981c8956a661079f81610f5a565b6107a983836111a3565b8273ffffffffffffffffffffffffffffffffffffffff167f30385c845b448a36257a6a1716e6ad2e1bc2cbe333cde1e69fe849ad6511adfe836040516107ef9190611be5565b60405180910390a2505050565b5f60055f9054906101000a900460ff16905090565b7f92de27771f92d6942691d73358b3a4673e4880de8356f8f2cf452be87e02d36361083b81610f5a565b60075f8373ffffffffffffffffffffffffffffffffffffffff1673ffffffffffffffffffffffffffffffffffffffff1681526020019081526020015f205f9054906101000a900460ff166108c4576040517f08c379a00000000000000000000000000000000000000000000000000000000081526004016108bb90611e25565b60405180910390fd5b5f60075f8473ffffffffffffffffffffffffffffffffffffffff1673ffffffffffffffffffffffffffffffffffffffff1681526020019081526020015f205f6101000a81548160ff0219169083151502179055508173ffffffffffffffffffffffffffffffffffffffff167fd247131fabb99dc3ba793524f53f05a77eeef38f12b30119655ee340810b121060405160405180910390a25050565b5f5f5f8373ffffffffffffffffffffffffffffffffffffffff1673ffffffffffffffffffffffffffffffffffffffff1681526020019081526020015f20549050919050565b7f65d7a28e3265b37a6474929f336521b332c1681b933f6cb9f3376673440d862a6109ce81610f5a565b6109d6611222565b50565b5f60065f8481526020019081526020015f205f015f8373ffffffffffffffffffffffffffffffffffffffff1673ffffffffffffffffffffffffffffffffffffffff1681526020019081526020015f205f9054906101000a900460ff16905092915050565b606060048054610a4c90611dab565b80601f0160208091040260200160405190810160405280929190818152602001828054610a7890611dab565b8015610ac35780601f10610a9a57610100808354040283529160200191610ac3565b820191905f5260205f20905b815481529060010190602001808311610aa657829003601f168201915b5050505050905090565b7f92de27771f92d6942691d73358b3a4673e4880de8356f8f2cf452be87e02d363610af781610f5a565b60075f8373ffffffffffffffffffffffffffffffffffffffff1673ffffffffffffffffffffffffffffffffffffffff1681526020019081526020015f205f9054906101000a900460ff1615610b81576040517f08c379a0000000000000000000000000000000000000000000000000000000008152600401610b7890611e8d565b60405180910390fd5b600160075f8473ffffffffffffffffffffffffffffffffffffffff1673ffffffffffffffffffffffffffffffffffffffff1681526020019081526020015f205f6101000a81548160ff0219169083151502179055508173ffffffffffffffffffffffffffffffffffffffff167fc9710d20bdbf99ca92a03644a5a8f85ea6badb387ff0abca08eebdfbff50b77f60405160405180910390a25050565b5f5f1b81565b5f5f610c2d610dbe565b9050610c3a818585610e6a565b600191505092915050565b7f9f2df0fed2c77648de5860a4cc508cd0818c85b8b8a1ab4ceeef8d981c8956a681565b610c728261067e565b610c7b81610f5a565b610c858383611058565b50505050565b5f60015f8473ffffffffffffffffffffffffffffffffffffffff1673ffffffffffffffffffffffffffffffffffffffff1681526020019081526020015f205f8373ffffffffffffffffffffffffffffffffffffffff1673ffffffffffffffffffffffffffffffffffffffff1681526020019081526020015f2054905092915050565b7f65d7a28e3265b37a6474929f336521b332c1681b933f6cb9f3376673440d862a81565b7ffacaf2747a7486cf5730e9265973fb54447d3ace6e7e4711f6360826b073194181565b5f7f01ffc9a7000000000000000000000000000000000000000000000000000000007bffffffffffffffffffffffffffffffffffffffffffffffffffffffff1916827bffffffffffffffffffffffffffffffffffffffffffffffffffffffff1916149050919050565b5f33905090565b610dd28383836001611284565b505050565b5f610de28484610c8b565b90507fffffffffffffffffffffffffffffffffffffffffffffffffffffffffffffffff811015610e645781811015610e55578281836040517ffb8f41b2000000000000000000000000000000000000000000000000000000008152600401610e4c93929190611eba565b60405180910390fd5b610e6384848484035f611284565b5b50505050565b5f73ffffffffffffffffffffffffffffffffffffffff168373ffffffffffffffffffffffffffffffffffffffff1603610eda575f6040517f96c6fd1e000000000000000000000000000000000000000000000000000000008152600401610ed19190611eef565b60405180910390fd5b5f73ffffffffffffffffffffffffffffffffffffffff168273ffffffffffffffffffffffffffffffffffffffff1603610f4a575f6040517fec442f05000000000000000000000000000000000000000000000000000000008152600401610f419190611eef565b60405180910390fd5b610f55838383611453565b505050565b610f6b81610f66610dbe565b611690565b50565b5f610f7983836109d9565b61104e57600160065f8581526020019081526020015f205f015f8473ffffffffffffffffffffffffffffffffffffffff1673ffffffffffffffffffffffffffffffffffffffff1681526020019081526020015f205f6101000a81548160ff021916908315150217905550610feb610dbe565b73ffffffffffffffffffffffffffffffffffffffff168273ffffffffffffffffffffffffffffffffffffffff16847f2f8788117e7eff1d82e926ec794901d17c78024a50270940304540a733656f0d60405160405180910390a460019050611052565b5f90505b92915050565b5f61106383836109d9565b15611138575f60065f8581526020019081526020015f205f015f8473ffffffffffffffffffffffffffffffffffffffff1673ffffffffffffffffffffffffffffffffffffffff1681526020019081526020015f205f6101000a81548160ff0219169083151502179055506110d5610dbe565b73ffffffffffffffffffffffffffffffffffffffff168273ffffffffffffffffffffffffffffffffffffffff16847ff6391f5c32d9c69d2a47ea670b442974b53935d1edc7fd64eb21e047a839171b60405160405180910390a46001905061113c565b5f90505b92915050565b61114a6116e1565b5f60055f6101000a81548160ff0219169083151502179055507f5db9ee0a495bf2e6ff9c91a7834c1ba4fdd244a5e8aa4e537bd38aeae4b073aa61118c610dbe565b6040516111999190611eef565b60405180910390a1565b5f73ffffffffffffffffffffffffffffffffffffffff168273ffffffffffffffffffffffffffffffffffffffff1603611213575f6040517fec442f0500000000000000000000000000000000000000000000000000000000815260040161120a9190611eef565b60405180910390fd5b61121e5f8383611453565b5050565b61122a611721565b600160055f6101000a81548160ff0219169083151502179055507f62e78cea01bee320cd4e420270b5ea74000d11b0c9f74754ebdbfc544b05a25861126d610dbe565b60405161127a9190611eef565b60405180910390a1565b5f73ffffffffffffffffffffffffffffffffffffffff168473ffffffffffffffffffffffffffffffffffffffff16036112f4575f6040517fe602df050000000000000000000000000000000000000000000000000000000081526004016112eb9190611eef565b60405180910390fd5b5f73ffffffffffffffffffffffffffffffffffffffff168373ffffffffffffffffffffffffffffffffffffffff1603611364575f6040517f94280d6200000000000000000000000000000000000000000000000000000000815260040161135b9190611eef565b60405180910390fd5b8160015f8673ffffffffffffffffffffffffffffffffffffffff1673ffffffffffffffffffffffffffffffffffffffff1681526020019081526020015f205f8573ffffffffffffffffffffffffffffffffffffffff1673ffffffffffffffffffffffffffffffffffffffff1681526020019081526020015f2081905550801561144d578273ffffffffffffffffffffffffffffffffffffffff168473ffffffffffffffffffffffffffffffffffffffff167f8c5be1e5ebec7d5bd14f71427d1e84f3dd0314c0f7b2291e5b200ac8c7c3b925846040516114449190611be5565b60405180910390a35b50505050565b60075f8473ffffffffffffffffffffffffffffffffffffffff1673ffffffffffffffffffffffffffffffffffffffff1681526020019081526020015f205f9054906101000a900460ff161580156114f1575060075f8373ffffffffffffffffffffffffffffffffffffffff1673ffffffffffffffffffffffffffffffffffffffff1681526020019081526020015f205f9054906101000a900460ff16155b611530576040517f08c379a000000000000000000000000000000000000000000000000000000000815260040161152790611f52565b60405180910390fd5b5f73ffffffffffffffffffffffffffffffffffffffff168373ffffffffffffffffffffffffffffffffffffffff161415801561159857505f73ffffffffffffffffffffffffffffffffffffffff168273ffffffffffffffffffffffffffffffffffffffff1614155b15611680576115c77ffacaf2747a7486cf5730e9265973fb54447d3ace6e7e4711f6360826b0731941846109d9565b611606576040517f08c379a00000000000000000000000000000000000000000000000000000000081526004016115fd90611fba565b60405180910390fd5b6116307ffacaf2747a7486cf5730e9265973fb54447d3ace6e7e4711f6360826b0731941836109d9565b61167f575f61163e8361095f565b1461167e576040517f08c379a000000000000000000000000000000000000000000000000000000000815260040161167590612048565b60405180910390fd5b5b5b61168b838383611762565b505050565b61169a82826109d9565b6116dd5780826040517fe2517d3f0000000000000000000000000000000000000000000000000000000081526004016116d4929190612066565b60405180910390fd5b5050565b6116e96107fc565b61171f576040517f8dfc202b00000000000000000000000000000000000000000000000000000000815260040160405180910390fd5b565b6117296107fc565b15611760576040517fd93c066500000000000000000000000000000000000000000000000000000000815260040160405180910390fd5b565b61176a611721565b61177583838361177a565b505050565b5f73ffffffffffffffffffffffffffffffffffffffff168373ffffffffffffffffffffffffffffffffffffffff16036117ca578060025f8282546117be91906120ba565b92505081905550611898565b5f5f5f8573ffffffffffffffffffffffffffffffffffffffff1673ffffffffffffffffffffffffffffffffffffffff1681526020019081526020015f2054905081811015611853578381836040517fe450d38c00000000000000000000000000000000000000000000000000000000815260040161184a93929190611eba565b60405180910390fd5b8181035f5f8673ffffffffffffffffffffffffffffffffffffffff1673ffffffffffffffffffffffffffffffffffffffff1681526020019081526020015f2081905550505b5f73ffffffffffffffffffffffffffffffffffffffff168273ffffffffffffffffffffffffffffffffffffffff16036118df578060025f8282540392505081905550611929565b805f5f8473ffffffffffffffffffffffffffffffffffffffff1673ffffffffffffffffffffffffffffffffffffffff1681526020019081526020015f205f82825401925050819055505b8173ffffffffffffffffffffffffffffffffffffffff168373ffffffffffffffffffffffffffffffffffffffff167fddf252ad1be2c89b69c2b068fc378daa952ba7f163c4a11628f55a4df523b3ef836040516119869190611be5565b60405180910390a3505050565b5f5ffd5b5f7fffffffff0000000000000000000000000000000000000000000000000000000082169050919050565b6119cb81611997565b81146119d5575f5ffd5b50565b5f813590506119e6816119c2565b92915050565b5f60208284031215611a0157611a00611993565b5b5f611a0e848285016119d8565b91505092915050565b5f8115159050919050565b611a2b81611a17565b82525050565b5f602082019050611a445f830184611a22565b92915050565b5f819050919050565b611a5c81611a4a565b82525050565b5f602082019050611a755f830184611a53565b92915050565b5f81519050919050565b5f82825260208201905092915050565b8281835e5f83830152505050565b5f601f19601f8301169050919050565b5f611abd82611a7b565b611ac78185611a85565b9350611ad7818560208601611a95565b611ae081611aa3565b840191505092915050565b5f6020820190508181035f830152611b038184611ab3565b905092915050565b5f73ffffffffffffffffffffffffffffffffffffffff82169050919050565b5f611b3482611b0b565b9050919050565b611b4481611b2a565b8114611b4e575f5ffd5b50565b5f81359050611b5f81611b3b565b92915050565b5f819050919050565b611b7781611b65565b8114611b81575f5ffd5b50565b5f81359050611b9281611b6e565b92915050565b5f5f60408385031215611bae57611bad611993565b5b5f611bbb85828601611b51565b9250506020611bcc85828601611b84565b9150509250929050565b611bdf81611b65565b82525050565b5f602082019050611bf85f830184611bd6565b92915050565b5f5f5f60608486031215611c1557611c14611993565b5b5f611c2286828701611b51565b9350506020611c3386828701611b51565b9250506040611c4486828701611b84565b9150509250925092565b611c5781611a4a565b8114611c61575f5ffd5b50565b5f81359050611c7281611c4e565b92915050565b5f60208284031215611c8d57611c8c611993565b5b5f611c9a84828501611c64565b91505092915050565b5f5f60408385031215611cb957611cb8611993565b5b5f611cc685828601611c64565b9250506020611cd785828601611b51565b9150509250929050565b5f60ff82169050919050565b611cf681611ce1565b82525050565b5f602082019050611d0f5f830184611ced565b92915050565b5f60208284031215611d2a57611d29611993565b5b5f611d3784828501611b51565b91505092915050565b5f5f60408385031215611d5657611d55611993565b5b5f611d6385828601611b51565b9250506020611d7485828601611b51565b9150509250929050565b7f4e487b71000000000000000000000000000000000000000000000000000000005f52602260045260245ffd5b5f6002820490506001821680611dc257607f821691505b602082108103611dd557611dd4611d7e565b5b50919050565b7f4e6f742066726f7a656e000000000000000000000000000000000000000000005f82015250565b5f611e0f600a83611a85565b9150611e1a82611ddb565b602082019050919050565b5f6020820190508181035f830152611e3c81611e03565b9050919050565b7f416c72656164792066726f7a656e0000000000000000000000000000000000005f82015250565b5f611e77600e83611a85565b9150611e8282611e43565b602082019050919050565b5f6020820190508181035f830152611ea481611e6b565b9050919050565b611eb481611b2a565b82525050565b5f606082019050611ecd5f830186611eab565b611eda6020830185611bd6565b611ee76040830184611bd6565b949350505050565b5f602082019050611f025f830184611eab565b92915050565b7f57616c6c65742069732066726f7a656e000000000000000000000000000000005f82015250565b5f611f3c601083611a85565b9150611f4782611f08565b602082019050919050565b5f6020820190508181035f830152611f6981611f30565b9050919050565b7f53656e646572206c61636b73205452414445525f524f4c4500000000000000005f82015250565b5f611fa4601883611a85565b9150611faf82611f70565b602082019050919050565b5f6020820190508181035f830152611fd181611f98565b9050919050565b7f5265636569766572206861732062616c616e636520627574206c61636b7320545f8201527f52414445525f524f4c4500000000000000000000000000000000000000000000602082015250565b5f612032602a83611a85565b915061203d82611fd8565b604082019050919050565b5f6020820190508181035f83015261205f81612026565b9050919050565b5f6040820190506120795f830185611eab565b6120866020830184611a53565b9392505050565b7f4e487b71000000000000000000000000000000000000000000000000000000005f52601160045260245ffd5b5f6120c482611b65565b91506120cf83611b65565b92508282019050808211156120e7576120e661208d565b5b9291505056fea26469706673582212204f6cc2974cfd5e7f59459701f8453580e48c7fcc3e02a8f3f2980201b40fdbe264736f6c63430008220033",
		"opcodes": "PUSH1 0x80 PUSH1 0x40 MSTORE CALLVALUE DUP1 ISZERO PUSH2 0xF JUMPI PUSH0 PUSH0 REVERT JUMPDEST POP PUSH1 0x40 MLOAD DUP1 PUSH1 0x40 ADD PUSH1 0x40 MSTORE DUP1 PUSH1 0x7 DUP2 MSTORE PUSH1 0x20 ADD PUSH32 0x52494E414E5A4500000000000000000000000000000000000000000000000000 DUP2 MSTORE POP PUSH1 0x40 MLOAD DUP1 PUSH1 0x40 ADD PUSH1 0x40 MSTORE DUP1 PUSH1 0x3 DUP2 MSTORE PUSH1 0x20 ADD PUSH32 0x52494E0000000000000000000000000000000000000000000000000000000000 DUP2 MSTORE POP DUP2 PUSH1 0x3 SWAP1 DUP2 PUSH2 0x8B SWAP2 SWAP1 PUSH2 0x529 JUMP JUMPDEST POP DUP1 PUSH1 0x4 SWAP1 DUP2 PUSH2 0x9B SWAP2 SWAP1 PUSH2 0x529 JUMP JUMPDEST POP POP POP PUSH2 0xB0 PUSH0 PUSH0 SHL CALLER PUSH2 0x17A PUSH1 0x20 SHL PUSH1 0x20 SHR JUMP JUMPDEST POP PUSH2 0xE1 PUSH32 0x9F2DF0FED2C77648DE5860A4CC508CD0818C85B8B8A1AB4CEEEF8D981C8956A6 CALLER PUSH2 0x17A PUSH1 0x20 SHL PUSH1 0x20 SHR JUMP JUMPDEST POP PUSH2 0x112 PUSH32 0x92DE27771F92D6942691D73358B3A4673E4880DE8356F8F2CF452BE87E02D363 CALLER PUSH2 0x17A PUSH1 0x20 SHL PUSH1 0x20 SHR JUMP JUMPDEST POP PUSH2 0x143 PUSH32 0x65D7A28E3265B37A6474929F336521B332C1681B933F6CB9F3376673440D862A CALLER PUSH2 0x17A PUSH1 0x20 SHL PUSH1 0x20 SHR JUMP JUMPDEST POP PUSH2 0x174 PUSH32 0xFACAF2747A7486CF5730E9265973FB54447D3ACE6E7E4711F6360826B0731941 CALLER PUSH2 0x17A PUSH1 0x20 SHL PUSH1 0x20 SHR JUMP JUMPDEST POP PUSH2 0x5F8 JUMP JUMPDEST PUSH0 PUSH2 0x18B DUP4 DUP4 PUSH2 0x270 PUSH1 0x20 SHL PUSH1 0x20 SHR JUMP JUMPDEST PUSH2 0x266 JUMPI PUSH1 0x1 PUSH1 0x6 PUSH0 DUP6 DUP2 MSTORE PUSH1 0x20 ADD SWAP1 DUP2 MSTORE PUSH1 0x20 ADD PUSH0 KECCAK256 PUSH0 ADD PUSH0 DUP5 PUSH20 0xFFFFFFFFFFFFFFFFFFFFFFFFFFFFFFFFFFFFFFFF AND PUSH20 0xFFFFFFFFFFFFFFFFFFFFFFFFFFFFFFFFFFFFFFFF AND DUP2 MSTORE PUSH1 0x20 ADD SWAP1 DUP2 MSTORE PUSH1 0x20 ADD PUSH0 KECCAK256 PUSH0 PUSH2 0x100 EXP DUP2 SLOAD DUP2 PUSH1 0xFF MUL NOT AND SWAP1 DUP4 ISZERO ISZERO MUL OR SWAP1 SSTORE POP PUSH2 0x203 PUSH2 0x2D4 PUSH1 0x20 SHL PUSH1 0x20 SHR JUMP JUMPDEST PUSH20 0xFFFFFFFFFFFFFFFFFFFFFFFFFFFFFFFFFFFFFFFF AND DUP3 PUSH20 0xFFFFFFFFFFFFFFFFFFFFFFFFFFFFFFFFFFFFFFFF AND DUP5 PUSH32 0x2F8788117E7EFF1D82E926EC794901D17C78024A50270940304540A733656F0D PUSH1 0x40 MLOAD PUSH1 0x40 MLOAD DUP1 SWAP2 SUB SWAP1 LOG4 PUSH1 0x1 SWAP1 POP PUSH2 0x26A JUMP JUMPDEST PUSH0 SWAP1 POP JUMPDEST SWAP3 SWAP2 POP POP JUMP JUMPDEST PUSH0 PUSH1 0x6 PUSH0 DUP5 DUP2 MSTORE PUSH1 0x20 ADD SWAP1 DUP2 MSTORE PUSH1 0x20 ADD PUSH0 KECCAK256 PUSH0 ADD PUSH0 DUP4 PUSH20 0xFFFFFFFFFFFFFFFFFFFFFFFFFFFFFFFFFFFFFFFF AND PUSH20 0xFFFFFFFFFFFFFFFFFFFFFFFFFFFFFFFFFFFFFFFF AND DUP2 MSTORE PUSH1 0x20 ADD SWAP1 DUP2 MSTORE PUSH1 0x20 ADD PUSH0 KECCAK256 PUSH0 SWAP1 SLOAD SWAP1 PUSH2 0x100 EXP SWAP1 DIV PUSH1 0xFF AND SWAP1 POP SWAP3 SWAP2 POP POP JUMP JUMPDEST PUSH0 CALLER SWAP1 POP SWAP1 JUMP JUMPDEST PUSH0 DUP2 MLOAD SWAP1 POP SWAP2 SWAP1 POP JUMP JUMPDEST PUSH32 0x4E487B7100000000000000000000000000000000000000000000000000000000 PUSH0 MSTORE PUSH1 0x41 PUSH1 0x4 MSTORE PUSH1 0x24 PUSH0 REVERT JUMPDEST PUSH32 0x4E487B7100000000000000000000000000000000000000000000000000000000 PUSH0 MSTORE PUSH1 0x22 PUSH1 0x4 MSTORE PUSH1 0x24 PUSH0 REVERT JUMPDEST PUSH0 PUSH1 0x2 DUP3 DIV SWAP1 POP PUSH1 0x1 DUP3 AND DUP1 PUSH2 0x356 JUMPI PUSH1 0x7F DUP3 AND SWAP2 POP JUMPDEST PUSH1 0x20 DUP3 LT DUP2 SUB PUSH2 0x369 JUMPI PUSH2 0x368 PUSH2 0x312 JUMP JUMPDEST JUMPDEST POP SWAP2 SWAP1 POP JUMP JUMPDEST PUSH0 DUP2 SWAP1 POP DUP2 PUSH0 MSTORE PUSH1 0x20 PUSH0 KECCAK256 SWAP1 POP SWAP2 SWAP1 POP JUMP JUMPDEST PUSH0 PUSH1 0x20 PUSH1 0x1F DUP4 ADD DIV SWAP1 POP SWAP2 SWAP1 POP JUMP JUMPDEST PUSH0 DUP3 DUP3 SHL SWAP1 POP SWAP3 SWAP2 POP POP JUMP JUMPDEST PUSH0 PUSH1 0x8 DUP4 MUL PUSH2 0x3CB PUSH32 0xFFFFFFFFFFFFFFFFFFFFFFFFFFFFFFFFFFFFFFFFFFFFFFFFFFFFFFFFFFFFFFFF DUP3 PUSH2 0x390 JUMP JUMPDEST PUSH2 0x3D5 DUP7 DUP4 PUSH2 0x390 JUMP JUMPDEST SWAP6 POP DUP1 NOT DUP5 AND SWAP4 POP DUP1 DUP7 AND DUP5 OR SWAP3 POP POP POP SWAP4 SWAP3 POP POP POP JUMP JUMPDEST PUSH0 DUP2 SWAP1 POP SWAP2 SWAP1 POP JUMP JUMPDEST PUSH0 DUP2 SWAP1 POP SWAP2 SWAP1 POP JUMP JUMPDEST PUSH0 PUSH2 0x419 PUSH2 0x414 PUSH2 0x40F DUP5 PUSH2 0x3ED JUMP JUMPDEST PUSH2 0x3F6 JUMP JUMPDEST PUSH2 0x3ED JUMP JUMPDEST SWAP1 POP SWAP2 SWAP1 POP JUMP JUMPDEST PUSH0 DUP2 SWAP1 POP SWAP2 SWAP1 POP JUMP JUMPDEST PUSH2 0x432 DUP4 PUSH2 0x3FF JUMP JUMPDEST PUSH2 0x446 PUSH2 0x43E DUP3 PUSH2 0x420 JUMP JUMPDEST DUP5 DUP5 SLOAD PUSH2 0x39C JUMP JUMPDEST DUP3 SSTORE POP POP POP POP JUMP JUMPDEST PUSH0 PUSH0 SWAP1 POP SWAP1 JUMP JUMPDEST PUSH2 0x45D PUSH2 0x44E JUMP JUMPDEST PUSH2 0x468 DUP2 DUP5 DUP5 PUSH2 0x429 JUMP JUMPDEST POP POP POP JUMP JUMPDEST PUSH0 JUMPDEST DUP3 DUP2 LT ISZERO PUSH2 0x48E JUMPI PUSH2 0x483 PUSH0 DUP3 DUP5 ADD PUSH2 0x455 JUMP JUMPDEST PUSH1 0x1 DUP2 ADD SWAP1 POP PUSH2 0x46F JUMP JUMPDEST POP POP POP JUMP JUMPDEST PUSH1 0x1F DUP3 GT ISZERO PUSH2 0x4E1 JUMPI DUP3 DUP3 GT ISZERO PUSH2 0x4E0 JUMPI PUSH2 0x4AD DUP2 PUSH2 0x36F JUMP JUMPDEST PUSH2 0x4B6 DUP4 PUSH2 0x381 JUMP JUMPDEST PUSH2 0x4BF DUP6 PUSH2 0x381 JUMP JUMPDEST PUSH1 0x20 DUP7 LT ISZERO PUSH2 0x4CC JUMPI PUSH0 SWAP1 POP JUMPDEST DUP1 DUP4 ADD PUSH2 0x4DB DUP3 DUP5 SUB DUP3 PUSH2 0x46D JUMP JUMPDEST POP POP POP POP JUMPDEST JUMPDEST POP POP POP JUMP JUMPDEST PUSH0 DUP3 DUP3 SHR SWAP1 POP SWAP3 SWAP2 POP POP JUMP JUMPDEST PUSH0 PUSH2 0x501 PUSH0 NOT DUP5 PUSH1 0x8 MUL PUSH2 0x4E6 JUMP JUMPDEST NOT DUP1 DUP4 AND SWAP2 POP POP SWAP3 SWAP2 POP POP JUMP JUMPDEST PUSH0 PUSH2 0x519 DUP4 DUP4 PUSH2 0x4F2 JUMP JUMPDEST SWAP2 POP DUP3 PUSH1 0x2 MUL DUP3 OR SWAP1 POP SWAP3 SWAP2 POP POP JUMP JUMPDEST PUSH2 0x532 DUP3 PUSH2 0x2DB JUMP JUMPDEST PUSH8 0xFFFFFFFFFFFFFFFF DUP2 GT ISZERO PUSH2 0x54B JUMPI PUSH2 0x54A PUSH2 0x2E5 JUMP JUMPDEST JUMPDEST PUSH2 0x555 DUP3 SLOAD PUSH2 0x33F JUMP JUMPDEST PUSH2 0x560 DUP3 DUP3 DUP6 PUSH2 0x493 JUMP JUMPDEST PUSH0 PUSH1 0x20 SWAP1 POP PUSH1 0x1F DUP4 GT PUSH1 0x1 DUP2 EQ PUSH2 0x591 JUMPI PUSH0 DUP5 ISZERO PUSH2 0x57F JUMPI DUP3 DUP8 ADD MLOAD SWAP1 POP JUMPDEST PUSH2 0x589 DUP6 DUP3 PUSH2 0x50E JUMP JUMPDEST DUP7 SSTORE POP PUSH2 0x5F0 JUMP JUMPDEST PUSH1 0x1F NOT DUP5 AND PUSH2 0x59F DUP7 PUSH2 0x36F JUMP JUMPDEST PUSH0 JUMPDEST DUP3 DUP2 LT ISZERO PUSH2 0x5C6 JUMPI DUP5 DUP10 ADD MLOAD DUP3 SSTORE PUSH1 0x1 DUP3 ADD SWAP2 POP PUSH1 0x20 DUP6 ADD SWAP5 POP PUSH1 0x20 DUP2 ADD SWAP1 POP PUSH2 0x5A1 JUMP JUMPDEST DUP7 DUP4 LT ISZERO PUSH2 0x5E3 JUMPI DUP5 DUP10 ADD MLOAD PUSH2 0x5DF PUSH1 0x1F DUP10 AND DUP3 PUSH2 0x4F2 JUMP JUMPDEST DUP4 SSTORE POP JUMPDEST PUSH1 0x1 PUSH1 0x2 DUP9 MUL ADD DUP9 SSTORE POP POP POP JUMPDEST POP POP POP POP POP POP JUMP JUMPDEST PUSH2 0x2123 DUP1 PUSH2 0x605 PUSH0 CODECOPY PUSH0 RETURN INVALID PUSH1 0x80 PUSH1 0x40 MSTORE CALLVALUE DUP1 ISZERO PUSH2 0xF JUMPI PUSH0 PUSH0 REVERT JUMPDEST POP PUSH1 0x4 CALLDATASIZE LT PUSH2 0x18C JUMPI PUSH0 CALLDATALOAD PUSH1 0xE0 SHR DUP1 PUSH4 0x60F588B7 GT PUSH2 0xDC JUMPI DUP1 PUSH4 0xA217FDDF GT PUSH2 0x95 JUMPI DUP1 PUSH4 0xD547741F GT PUSH2 0x6F JUMPI DUP1 PUSH4 0xD547741F EQ PUSH2 0x470 JUMPI DUP1 PUSH4 0xDD62ED3E EQ PUSH2 0x48C JUMPI DUP1 PUSH4 0xE63AB1E9 EQ PUSH2 0x4BC JUMPI DUP1 PUSH4 0xF0A56FC8 EQ PUSH2 0x4DA JUMPI PUSH2 0x18C JUMP JUMPDEST DUP1 PUSH4 0xA217FDDF EQ PUSH2 0x404 JUMPI DUP1 PUSH4 0xA9059CBB EQ PUSH2 0x422 JUMPI DUP1 PUSH4 0xD5391393 EQ PUSH2 0x452 JUMPI PUSH2 0x18C JUMP JUMPDEST DUP1 PUSH4 0x60F588B7 EQ PUSH2 0x344 JUMPI DUP1 PUSH4 0x70A08231 EQ PUSH2 0x360 JUMPI DUP1 PUSH4 0x8456CB59 EQ PUSH2 0x390 JUMPI DUP1 PUSH4 0x91D14854 EQ PUSH2 0x39A JUMPI DUP1 PUSH4 0x95D89B41 EQ PUSH2 0x3CA JUMPI DUP1 PUSH4 0x9F001169 EQ PUSH2 0x3E8 JUMPI PUSH2 0x18C JUMP JUMPDEST DUP1 PUSH4 0x248A9CA3 GT PUSH2 0x149 JUMPI DUP1 PUSH4 0x36568ABE GT PUSH2 0x123 JUMPI DUP1 PUSH4 0x36568ABE EQ PUSH2 0x2E4 JUMPI DUP1 PUSH4 0x3F4BA83A EQ PUSH2 0x300 JUMPI DUP1 PUSH4 0x40C10F19 EQ PUSH2 0x30A JUMPI DUP1 PUSH4 0x5C975ABB EQ PUSH2 0x326 JUMPI PUSH2 0x18C JUMP JUMPDEST DUP1 PUSH4 0x248A9CA3 EQ PUSH2 0x27A JUMPI DUP1 PUSH4 0x2F2FF15D EQ PUSH2 0x2AA JUMPI DUP1 PUSH4 0x313CE567 EQ PUSH2 0x2C6 JUMPI PUSH2 0x18C JUMP JUMPDEST DUP1 PUSH4 0x1FFC9A7 EQ PUSH2 0x190 JUMPI DUP1 PUSH4 0x6A85F0F EQ PUSH2 0x1C0 JUMPI DUP1 PUSH4 0x6FDDE03 EQ PUSH2 0x1DE JUMPI DUP1 PUSH4 0x95EA7B3 EQ PUSH2 0x1FC JUMPI DUP1 PUSH4 0x18160DDD EQ PUSH2 0x22C JUMPI DUP1 PUSH4 0x23B872DD EQ PUSH2 0x24A JUMPI JUMPDEST PUSH0 PUSH0 REVERT JUMPDEST PUSH2 0x1AA PUSH1 0x4 DUP1 CALLDATASIZE SUB DUP2 ADD SWAP1 PUSH2 0x1A5 SWAP2 SWAP1 PUSH2 0x19EC JUMP JUMPDEST PUSH2 0x4F8 JUMP JUMPDEST PUSH1 0x40 MLOAD PUSH2 0x1B7 SWAP2 SWAP1 PUSH2 0x1A31 JUMP JUMPDEST PUSH1 0x40 MLOAD DUP1 SWAP2 SUB SWAP1 RETURN JUMPDEST PUSH2 0x1C8 PUSH2 0x571 JUMP JUMPDEST PUSH1 0x40 MLOAD PUSH2 0x1D5 SWAP2 SWAP1 PUSH2 0x1A62 JUMP JUMPDEST PUSH1 0x40 MLOAD DUP1 SWAP2 SUB SWAP1 RETURN JUMPDEST PUSH2 0x1E6 PUSH2 0x595 JUMP JUMPDEST PUSH1 0x40 MLOAD PUSH2 0x1F3 SWAP2 SWAP1 PUSH2 0x1AEB JUMP JUMPDEST PUSH1 0x40 MLOAD DUP1 SWAP2 SUB SWAP1 RETURN JUMPDEST PUSH2 0x216 PUSH1 0x4 DUP1 CALLDATASIZE SUB DUP2 ADD SWAP1 PUSH2 0x211 SWAP2 SWAP1 PUSH2 0x1B98 JUMP JUMPDEST PUSH2 0x625 JUMP JUMPDEST PUSH1 0x40 MLOAD PUSH2 0x223 SWAP2 SWAP1 PUSH2 0x1A31 JUMP JUMPDEST PUSH1 0x40 MLOAD DUP1 SWAP2 SUB SWAP1 RETURN JUMPDEST PUSH2 0x234 PUSH2 0x647 JUMP JUMPDEST PUSH1 0x40 MLOAD PUSH2 0x241 SWAP2 SWAP1 PUSH2 0x1BE5 JUMP JUMPDEST PUSH1 0x40 MLOAD DUP1 SWAP2 SUB SWAP1 RETURN JUMPDEST PUSH2 0x264 PUSH1 0x4 DUP1 CALLDATASIZE SUB DUP2 ADD SWAP1 PUSH2 0x25F SWAP2 SWAP1 PUSH2 0x1BFE JUMP JUMPDEST PUSH2 0x650 JUMP JUMPDEST PUSH1 0x40 MLOAD PUSH2 0x271 SWAP2 SWAP1 PUSH2 0x1A31 JUMP JUMPDEST PUSH1 0x40 MLOAD DUP1 SWAP2 SUB SWAP1 RETURN JUMPDEST PUSH2 0x294 PUSH1 0x4 DUP1 CALLDATASIZE SUB DUP2 ADD SWAP1 PUSH2 0x28F SWAP2 SWAP1 PUSH2 0x1C78 JUMP JUMPDEST PUSH2 0x67E JUMP JUMPDEST PUSH1 0x40 MLOAD PUSH2 0x2A1 SWAP2 SWAP1 PUSH2 0x1A62 JUMP JUMPDEST PUSH1 0x40 MLOAD DUP1 SWAP2 SUB SWAP1 RETURN JUMPDEST PUSH2 0x2C4 PUSH1 0x4 DUP1 CALLDATASIZE SUB DUP2 ADD SWAP1 PUSH2 0x2BF SWAP2 SWAP1 PUSH2 0x1CA3 JUMP JUMPDEST PUSH2 0x69B JUMP JUMPDEST STOP JUMPDEST PUSH2 0x2CE PUSH2 0x6BD JUMP JUMPDEST PUSH1 0x40 MLOAD PUSH2 0x2DB SWAP2 SWAP1 PUSH2 0x1CFC JUMP JUMPDEST PUSH1 0x40 MLOAD DUP1 SWAP2 SUB SWAP1 RETURN JUMPDEST PUSH2 0x2FE PUSH1 0x4 DUP1 CALLDATASIZE SUB DUP2 ADD SWAP1 PUSH2 0x2F9 SWAP2 SWAP1 PUSH2 0x1CA3 JUMP JUMPDEST PUSH2 0x6C5 JUMP JUMPDEST STOP JUMPDEST PUSH2 0x308 PUSH2 0x740 JUMP JUMPDEST STOP JUMPDEST PUSH2 0x324 PUSH1 0x4 DUP1 CALLDATASIZE SUB DUP2 ADD SWAP1 PUSH2 0x31F SWAP2 SWAP1 PUSH2 0x1B98 JUMP JUMPDEST PUSH2 0x775 JUMP JUMPDEST STOP JUMPDEST PUSH2 0x32E PUSH2 0x7FC JUMP JUMPDEST PUSH1 0x40 MLOAD PUSH2 0x33B SWAP2 SWAP1 PUSH2 0x1A31 JUMP JUMPDEST PUSH1 0x40 MLOAD DUP1 SWAP2 SUB SWAP1 RETURN JUMPDEST PUSH2 0x35E PUSH1 0x4 DUP1 CALLDATASIZE SUB DUP2 ADD SWAP1 PUSH2 0x359 SWAP2 SWAP1 PUSH2 0x1D15 JUMP JUMPDEST PUSH2 0x811 JUMP JUMPDEST STOP JUMPDEST PUSH2 0x37A PUSH1 0x4 DUP1 CALLDATASIZE SUB DUP2 ADD SWAP1 PUSH2 0x375 SWAP2 SWAP1 PUSH2 0x1D15 JUMP JUMPDEST PUSH2 0x95F JUMP JUMPDEST PUSH1 0x40 MLOAD PUSH2 0x387 SWAP2 SWAP1 PUSH2 0x1BE5 JUMP JUMPDEST PUSH1 0x40 MLOAD DUP1 SWAP2 SUB SWAP1 RETURN JUMPDEST PUSH2 0x398 PUSH2 0x9A4 JUMP JUMPDEST STOP JUMPDEST PUSH2 0x3B4 PUSH1 0x4 DUP1 CALLDATASIZE SUB DUP2 ADD SWAP1 PUSH2 0x3AF SWAP2 SWAP1 PUSH2 0x1CA3 JUMP JUMPDEST PUSH2 0x9D9 JUMP JUMPDEST PUSH1 0x40 MLOAD PUSH2 0x3C1 SWAP2 SWAP1 PUSH2 0x1A31 JUMP JUMPDEST PUSH1 0x40 MLOAD DUP1 SWAP2 SUB SWAP1 RETURN JUMPDEST PUSH2 0x3D2 PUSH2 0xA3D JUMP JUMPDEST PUSH1 0x40 MLOAD PUSH2 0x3DF SWAP2 SWAP1 PUSH2 0x1AEB JUMP JUMPDEST PUSH1 0x40 MLOAD DUP1 SWAP2 SUB SWAP1 RETURN JUMPDEST PUSH2 0x402 PUSH1 0x4 DUP1 CALLDATASIZE SUB DUP2 ADD SWAP1 PUSH2 0x3FD SWAP2 SWAP1 PUSH2 0x1D15 JUMP JUMPDEST PUSH2 0xACD JUMP JUMPDEST STOP JUMPDEST PUSH2 0x40C PUSH2 0xC1D JUMP JUMPDEST PUSH1 0x40 MLOAD PUSH2 0x419 SWAP2 SWAP1 PUSH2 0x1A62 JUMP JUMPDEST PUSH1 0x40 MLOAD DUP1 SWAP2 SUB SWAP1 RETURN JUMPDEST PUSH2 0x43C PUSH1 0x4 DUP1 CALLDATASIZE SUB DUP2 ADD SWAP1 PUSH2 0x437 SWAP2 SWAP1 PUSH2 0x1B98 JUMP JUMPDEST PUSH2 0xC23 JUMP JUMPDEST PUSH1 0x40 MLOAD PUSH2 0x449 SWAP2 SWAP1 PUSH2 0x1A31 JUMP JUMPDEST PUSH1 0x40 MLOAD DUP1 SWAP2 SUB SWAP1 RETURN JUMPDEST PUSH2 0x45A PUSH2 0xC45 JUMP JUMPDEST PUSH1 0x40 MLOAD PUSH2 0x467 SWAP2 SWAP1 PUSH2 0x1A62 JUMP JUMPDEST PUSH1 0x40 MLOAD DUP1 SWAP2 SUB SWAP1 RETURN JUMPDEST PUSH2 0x48A PUSH1 0x4 DUP1 CALLDATASIZE SUB DUP2 ADD SWAP1 PUSH2 0x485 SWAP2 SWAP1 PUSH2 0x1CA3 JUMP JUMPDEST PUSH2 0xC69 JUMP JUMPDEST STOP JUMPDEST PUSH2 0x4A6 PUSH1 0x4 DUP1 CALLDATASIZE SUB DUP2 ADD SWAP1 PUSH2 0x4A1 SWAP2 SWAP1 PUSH2 0x1D40 JUMP JUMPDEST PUSH2 0xC8B JUMP JUMPDEST PUSH1 0x40 MLOAD PUSH2 0x4B3 SWAP2 SWAP1 PUSH2 0x1BE5 JUMP JUMPDEST PUSH1 0x40 MLOAD DUP1 SWAP2 SUB SWAP1 RETURN JUMPDEST PUSH2 0x4C4 PUSH2 0xD0D JUMP JUMPDEST PUSH1 0x40 MLOAD PUSH2 0x4D1 SWAP2 SWAP1 PUSH2 0x1A62 JUMP JUMPDEST PUSH1 0x40 MLOAD DUP1 SWAP2 SUB SWAP1 RETURN JUMPDEST PUSH2 0x4E2 PUSH2 0xD31 JUMP JUMPDEST PUSH1 0x40 MLOAD PUSH2 0x4EF SWAP2 SWAP1 PUSH2 0x1A62 JUMP JUMPDEST PUSH1 0x40 MLOAD DUP1 SWAP2 SUB SWAP1 RETURN JUMPDEST PUSH0 PUSH32 0x7965DB0B00000000000000000000000000000000000000000000000000000000 PUSH28 0xFFFFFFFFFFFFFFFFFFFFFFFFFFFFFFFFFFFFFFFFFFFFFFFFFFFFFFFF NOT AND DUP3 PUSH28 0xFFFFFFFFFFFFFFFFFFFFFFFFFFFFFFFFFFFFFFFFFFFFFFFFFFFFFFFF NOT AND EQ DUP1 PUSH2 0x56A JUMPI POP PUSH2 0x569 DUP3 PUSH2 0xD55 JUMP JUMPDEST JUMPDEST SWAP1 POP SWAP2 SWAP1 POP JUMP JUMPDEST PUSH32 0x92DE27771F92D6942691D73358B3A4673E4880DE8356F8F2CF452BE87E02D363 DUP2 JUMP JUMPDEST PUSH1 0x60 PUSH1 0x3 DUP1 SLOAD PUSH2 0x5A4 SWAP1 PUSH2 0x1DAB JUMP JUMPDEST DUP1 PUSH1 0x1F ADD PUSH1 0x20 DUP1 SWAP2 DIV MUL PUSH1 0x20 ADD PUSH1 0x40 MLOAD SWAP1 DUP2 ADD PUSH1 0x40 MSTORE DUP1 SWAP3 SWAP2 SWAP1 DUP2 DUP2 MSTORE PUSH1 0x20 ADD DUP3 DUP1 SLOAD PUSH2 0x5D0 SWAP1 PUSH2 0x1DAB JUMP JUMPDEST DUP1 ISZERO PUSH2 0x61B JUMPI DUP1 PUSH1 0x1F LT PUSH2 0x5F2 JUMPI PUSH2 0x100 DUP1 DUP4 SLOAD DIV MUL DUP4 MSTORE SWAP2 PUSH1 0x20 ADD SWAP2 PUSH2 0x61B JUMP JUMPDEST DUP3 ADD SWAP2 SWAP1 PUSH0 MSTORE PUSH1 0x20 PUSH0 KECCAK256 SWAP1 JUMPDEST DUP2 SLOAD DUP2 MSTORE SWAP1 PUSH1 0x1 ADD SWAP1 PUSH1 0x20 ADD DUP1 DUP4 GT PUSH2 0x5FE JUMPI DUP3 SWAP1 SUB PUSH1 0x1F AND DUP3 ADD SWAP2 JUMPDEST POP POP POP POP POP SWAP1 POP SWAP1 JUMP JUMPDEST PUSH0 PUSH0 PUSH2 0x62F PUSH2 0xDBE JUMP JUMPDEST SWAP1 POP PUSH2 0x63C DUP2 DUP6 DUP6 PUSH2 0xDC5 JUMP JUMPDEST PUSH1 0x1 SWAP2 POP POP SWAP3 SWAP2 POP POP JUMP JUMPDEST PUSH0 PUSH1 0x2 SLOAD SWAP1 POP SWAP1 JUMP JUMPDEST PUSH0 PUSH0 PUSH2 0x65A PUSH2 0xDBE JUMP JUMPDEST SWAP1 POP PUSH2 0x667 DUP6 DUP3 DUP6 PUSH2 0xDD7 JUMP JUMPDEST PUSH2 0x672 DUP6 DUP6 DUP6 PUSH2 0xE6A JUMP JUMPDEST PUSH1 0x1 SWAP2 POP POP SWAP4 SWAP3 POP POP POP JUMP JUMPDEST PUSH0 PUSH1 0x6 PUSH0 DUP4 DUP2 MSTORE PUSH1 0x20 ADD SWAP1 DUP2 MSTORE PUSH1 0x20 ADD PUSH0 KECCAK256 PUSH1 0x1 ADD SLOAD SWAP1 POP SWAP2 SWAP1 POP JUMP JUMPDEST PUSH2 0x6A4 DUP3 PUSH2 0x67E JUMP JUMPDEST PUSH2 0x6AD DUP2 PUSH2 0xF5A JUMP JUMPDEST PUSH2 0x6B7 DUP4 DUP4 PUSH2 0xF6E JUMP JUMPDEST POP POP POP POP JUMP JUMPDEST PUSH0 PUSH1 0x12 SWAP1 POP SWAP1 JUMP JUMPDEST PUSH2 0x6CD PUSH2 0xDBE JUMP JUMPDEST PUSH20 0xFFFFFFFFFFFFFFFFFFFFFFFFFFFFFFFFFFFFFFFF AND DUP2 PUSH20 0xFFFFFFFFFFFFFFFFFFFFFFFFFFFFFFFFFFFFFFFF AND EQ PUSH2 0x731 JUMPI PUSH1 0x40 MLOAD PUSH32 0x6697B23200000000000000000000000000000000000000000000000000000000 DUP2 MSTORE PUSH1 0x4 ADD PUSH1 0x40 MLOAD DUP1 SWAP2 SUB SWAP1 REVERT JUMPDEST PUSH2 0x73B DUP3 DUP3 PUSH2 0x1058 JUMP JUMPDEST POP POP POP JUMP JUMPDEST PUSH32 0x65D7A28E3265B37A6474929F336521B332C1681B933F6CB9F3376673440D862A PUSH2 0x76A DUP2 PUSH2 0xF5A JUMP JUMPDEST PUSH2 0x772 PUSH2 0x1142 JUMP JUMPDEST POP JUMP JUMPDEST PUSH32 0x9F2DF0FED2C77648DE5860A4CC508CD0818C85B8B8A1AB4CEEEF8D981C8956A6 PUSH2 0x79F DUP2 PUSH2 0xF5A JUMP JUMPDEST PUSH2 0x7A9 DUP4 DUP4 PUSH2 0x11A3 JUMP JUMPDEST DUP3 PUSH20 0xFFFFFFFFFFFFFFFFFFFFFFFFFFFFFFFFFFFFFFFF AND PUSH32 0x30385C845B448A36257A6A1716E6AD2E1BC2CBE333CDE1E69FE849AD6511ADFE DUP4 PUSH1 0x40 MLOAD PUSH2 0x7EF SWAP2 SWAP1 PUSH2 0x1BE5 JUMP JUMPDEST PUSH1 0x40 MLOAD DUP1 SWAP2 SUB SWAP1 LOG2 POP POP POP JUMP JUMPDEST PUSH0 PUSH1 0x5 PUSH0 SWAP1 SLOAD SWAP1 PUSH2 0x100 EXP SWAP1 DIV PUSH1 0xFF AND SWAP1 POP SWAP1 JUMP JUMPDEST PUSH32 0x92DE27771F92D6942691D73358B3A4673E4880DE8356F8F2CF452BE87E02D363 PUSH2 0x83B DUP2 PUSH2 0xF5A JUMP JUMPDEST PUSH1 0x7 PUSH0 DUP4 PUSH20 0xFFFFFFFFFFFFFFFFFFFFFFFFFFFFFFFFFFFFFFFF AND PUSH20 0xFFFFFFFFFFFFFFFFFFFFFFFFFFFFFFFFFFFFFFFF AND DUP2 MSTORE PUSH1 0x20 ADD SWAP1 DUP2 MSTORE PUSH1 0x20 ADD PUSH0 KECCAK256 PUSH0 SWAP1 SLOAD SWAP1 PUSH2 0x100 EXP SWAP1 DIV PUSH1 0xFF AND PUSH2 0x8C4 JUMPI PUSH1 0x40 MLOAD PUSH32 0x8C379A000000000000000000000000000000000000000000000000000000000 DUP2 MSTORE PUSH1 0x4 ADD PUSH2 0x8BB SWAP1 PUSH2 0x1E25 JUMP JUMPDEST PUSH1 0x40 MLOAD DUP1 SWAP2 SUB SWAP1 REVERT JUMPDEST PUSH0 PUSH1 0x7 PUSH0 DUP5 PUSH20 0xFFFFFFFFFFFFFFFFFFFFFFFFFFFFFFFFFFFFFFFF AND PUSH20 0xFFFFFFFFFFFFFFFFFFFFFFFFFFFFFFFFFFFFFFFF AND DUP2 MSTORE PUSH1 0x20 ADD SWAP1 DUP2 MSTORE PUSH1 0x20 ADD PUSH0 KECCAK256 PUSH0 PUSH2 0x100 EXP DUP2 SLOAD DUP2 PUSH1 0xFF MUL NOT AND SWAP1 DUP4 ISZERO ISZERO MUL OR SWAP1 SSTORE POP DUP2 PUSH20 0xFFFFFFFFFFFFFFFFFFFFFFFFFFFFFFFFFFFFFFFF AND PUSH32 0xD247131FABB99DC3BA793524F53F05A77EEEF38F12B30119655EE340810B1210 PUSH1 0x40 MLOAD PUSH1 0x40 MLOAD DUP1 SWAP2 SUB SWAP1 LOG2 POP POP JUMP JUMPDEST PUSH0 PUSH0 PUSH0 DUP4 PUSH20 0xFFFFFFFFFFFFFFFFFFFFFFFFFFFFFFFFFFFFFFFF AND PUSH20 0xFFFFFFFFFFFFFFFFFFFFFFFFFFFFFFFFFFFFFFFF AND DUP2 MSTORE PUSH1 0x20 ADD SWAP1 DUP2 MSTORE PUSH1 0x20 ADD PUSH0 KECCAK256 SLOAD SWAP1 POP SWAP2 SWAP1 POP JUMP JUMPDEST PUSH32 0x65D7A28E3265B37A6474929F336521B332C1681B933F6CB9F3376673440D862A PUSH2 0x9CE DUP2 PUSH2 0xF5A JUMP JUMPDEST PUSH2 0x9D6 PUSH2 0x1222 JUMP JUMPDEST POP JUMP JUMPDEST PUSH0 PUSH1 0x6 PUSH0 DUP5 DUP2 MSTORE PUSH1 0x20 ADD SWAP1 DUP2 MSTORE PUSH1 0x20 ADD PUSH0 KECCAK256 PUSH0 ADD PUSH0 DUP4 PUSH20 0xFFFFFFFFFFFFFFFFFFFFFFFFFFFFFFFFFFFFFFFF AND PUSH20 0xFFFFFFFFFFFFFFFFFFFFFFFFFFFFFFFFFFFFFFFF AND DUP2 MSTORE PUSH1 0x20 ADD SWAP1 DUP2 MSTORE PUSH1 0x20 ADD PUSH0 KECCAK256 PUSH0 SWAP1 SLOAD SWAP1 PUSH2 0x100 EXP SWAP1 DIV PUSH1 0xFF AND SWAP1 POP SWAP3 SWAP2 POP POP JUMP JUMPDEST PUSH1 0x60 PUSH1 0x4 DUP1 SLOAD PUSH2 0xA4C SWAP1 PUSH2 0x1DAB JUMP JUMPDEST DUP1 PUSH1 0x1F ADD PUSH1 0x20 DUP1 SWAP2 DIV MUL PUSH1 0x20 ADD PUSH1 0x40 MLOAD SWAP1 DUP2 ADD PUSH1 0x40 MSTORE DUP1 SWAP3 SWAP2 SWAP1 DUP2 DUP2 MSTORE PUSH1 0x20 ADD DUP3 DUP1 SLOAD PUSH2 0xA78 SWAP1 PUSH2 0x1DAB JUMP JUMPDEST DUP1 ISZERO PUSH2 0xAC3 JUMPI DUP1 PUSH1 0x1F LT PUSH2 0xA9A JUMPI PUSH2 0x100 DUP1 DUP4 SLOAD DIV MUL DUP4 MSTORE SWAP2 PUSH1 0x20 ADD SWAP2 PUSH2 0xAC3 JUMP JUMPDEST DUP3 ADD SWAP2 SWAP1 PUSH0 MSTORE PUSH1 0x20 PUSH0 KECCAK256 SWAP1 JUMPDEST DUP2 SLOAD DUP2 MSTORE SWAP1 PUSH1 0x1 ADD SWAP1 PUSH1 0x20 ADD DUP1 DUP4 GT PUSH2 0xAA6 JUMPI DUP3 SWAP1 SUB PUSH1 0x1F AND DUP3 ADD SWAP2 JUMPDEST POP POP POP POP POP SWAP1 POP SWAP1 JUMP JUMPDEST PUSH32 0x92DE27771F92D6942691D73358B3A4673E4880DE8356F8F2CF452BE87E02D363 PUSH2 0xAF7 DUP2 PUSH2 0xF5A JUMP JUMPDEST PUSH1 0x7 PUSH0 DUP4 PUSH20 0xFFFFFFFFFFFFFFFFFFFFFFFFFFFFFFFFFFFFFFFF AND PUSH20 0xFFFFFFFFFFFFFFFFFFFFFFFFFFFFFFFFFFFFFFFF AND DUP2 MSTORE PUSH1 0x20 ADD SWAP1 DUP2 MSTORE PUSH1 0x20 ADD PUSH0 KECCAK256 PUSH0 SWAP1 SLOAD SWAP1 PUSH2 0x100 EXP SWAP1 DIV PUSH1 0xFF AND ISZERO PUSH2 0xB81 JUMPI PUSH1 0x40 MLOAD PUSH32 0x8C379A000000000000000000000000000000000000000000000000000000000 DUP2 MSTORE PUSH1 0x4 ADD PUSH2 0xB78 SWAP1 PUSH2 0x1E8D JUMP JUMPDEST PUSH1 0x40 MLOAD DUP1 SWAP2 SUB SWAP1 REVERT JUMPDEST PUSH1 0x1 PUSH1 0x7 PUSH0 DUP5 PUSH20 0xFFFFFFFFFFFFFFFFFFFFFFFFFFFFFFFFFFFFFFFF AND PUSH20 0xFFFFFFFFFFFFFFFFFFFFFFFFFFFFFFFFFFFFFFFF AND DUP2 MSTORE PUSH1 0x20 ADD SWAP1 DUP2 MSTORE PUSH1 0x20 ADD PUSH0 KECCAK256 PUSH0 PUSH2 0x100 EXP DUP2 SLOAD DUP2 PUSH1 0xFF MUL NOT AND SWAP1 DUP4 ISZERO ISZERO MUL OR SWAP1 SSTORE POP DUP2 PUSH20 0xFFFFFFFFFFFFFFFFFFFFFFFFFFFFFFFFFFFFFFFF AND PUSH32 0xC9710D20BDBF99CA92A03644A5A8F85EA6BADB387FF0ABCA08EEBDFBFF50B77F PUSH1 0x40 MLOAD PUSH1 0x40 MLOAD DUP1 SWAP2 SUB SWAP1 LOG2 POP POP JUMP JUMPDEST PUSH0 PUSH0 SHL DUP2 JUMP JUMPDEST PUSH0 PUSH0 PUSH2 0xC2D PUSH2 0xDBE JUMP JUMPDEST SWAP1 POP PUSH2 0xC3A DUP2 DUP6 DUP6 PUSH2 0xE6A JUMP JUMPDEST PUSH1 0x1 SWAP2 POP POP SWAP3 SWAP2 POP POP JUMP JUMPDEST PUSH32 0x9F2DF0FED2C77648DE5860A4CC508CD0818C85B8B8A1AB4CEEEF8D981C8956A6 DUP2 JUMP JUMPDEST PUSH2 0xC72 DUP3 PUSH2 0x67E JUMP JUMPDEST PUSH2 0xC7B DUP2 PUSH2 0xF5A JUMP JUMPDEST PUSH2 0xC85 DUP4 DUP4 PUSH2 0x1058 JUMP JUMPDEST POP POP POP POP JUMP JUMPDEST PUSH0 PUSH1 0x1 PUSH0 DUP5 PUSH20 0xFFFFFFFFFFFFFFFFFFFFFFFFFFFFFFFFFFFFFFFF AND PUSH20 0xFFFFFFFFFFFFFFFFFFFFFFFFFFFFFFFFFFFFFFFF AND DUP2 MSTORE PUSH1 0x20 ADD SWAP1 DUP2 MSTORE PUSH1 0x20 ADD PUSH0 KECCAK256 PUSH0 DUP4 PUSH20 0xFFFFFFFFFFFFFFFFFFFFFFFFFFFFFFFFFFFFFFFF AND PUSH20 0xFFFFFFFFFFFFFFFFFFFFFFFFFFFFFFFFFFFFFFFF AND DUP2 MSTORE PUSH1 0x20 ADD SWAP1 DUP2 MSTORE PUSH1 0x20 ADD PUSH0 KECCAK256 SLOAD SWAP1 POP SWAP3 SWAP2 POP POP JUMP JUMPDEST PUSH32 0x65D7A28E3265B37A6474929F336521B332C1681B933F6CB9F3376673440D862A DUP2 JUMP JUMPDEST PUSH32 0xFACAF2747A7486CF5730E9265973FB54447D3ACE6E7E4711F6360826B0731941 DUP2 JUMP JUMPDEST PUSH0 PUSH32 0x1FFC9A700000000000000000000000000000000000000000000000000000000 PUSH28 0xFFFFFFFFFFFFFFFFFFFFFFFFFFFFFFFFFFFFFFFFFFFFFFFFFFFFFFFF NOT AND DUP3 PUSH28 0xFFFFFFFFFFFFFFFFFFFFFFFFFFFFFFFFFFFFFFFFFFFFFFFFFFFFFFFF NOT AND EQ SWAP1 POP SWAP2 SWAP1 POP JUMP JUMPDEST PUSH0 CALLER SWAP1 POP SWAP1 JUMP JUMPDEST PUSH2 0xDD2 DUP4 DUP4 DUP4 PUSH1 0x1 PUSH2 0x1284 JUMP JUMPDEST POP POP POP JUMP JUMPDEST PUSH0 PUSH2 0xDE2 DUP5 DUP5 PUSH2 0xC8B JUMP JUMPDEST SWAP1 POP PUSH32 0xFFFFFFFFFFFFFFFFFFFFFFFFFFFFFFFFFFFFFFFFFFFFFFFFFFFFFFFFFFFFFFFF DUP2 LT ISZERO PUSH2 0xE64 JUMPI DUP2 DUP2 LT ISZERO PUSH2 0xE55 JUMPI DUP3 DUP2 DUP4 PUSH1 0x40 MLOAD PUSH32 0xFB8F41B200000000000000000000000000000000000000000000000000000000 DUP2 MSTORE PUSH1 0x4 ADD PUSH2 0xE4C SWAP4 SWAP3 SWAP2 SWAP1 PUSH2 0x1EBA JUMP JUMPDEST PUSH1 0x40 MLOAD DUP1 SWAP2 SUB SWAP1 REVERT JUMPDEST PUSH2 0xE63 DUP5 DUP5 DUP5 DUP5 SUB PUSH0 PUSH2 0x1284 JUMP JUMPDEST JUMPDEST POP POP POP POP JUMP JUMPDEST PUSH0 PUSH20 0xFFFFFFFFFFFFFFFFFFFFFFFFFFFFFFFFFFFFFFFF AND DUP4 PUSH20 0xFFFFFFFFFFFFFFFFFFFFFFFFFFFFFFFFFFFFFFFF AND SUB PUSH2 0xEDA JUMPI PUSH0 PUSH1 0x40 MLOAD PUSH32 0x96C6FD1E00000000000000000000000000000000000000000000000000000000 DUP2 MSTORE PUSH1 0x4 ADD PUSH2 0xED1 SWAP2 SWAP1 PUSH2 0x1EEF JUMP JUMPDEST PUSH1 0x40 MLOAD DUP1 SWAP2 SUB SWAP1 REVERT JUMPDEST PUSH0 PUSH20 0xFFFFFFFFFFFFFFFFFFFFFFFFFFFFFFFFFFFFFFFF AND DUP3 PUSH20 0xFFFFFFFFFFFFFFFFFFFFFFFFFFFFFFFFFFFFFFFF AND SUB PUSH2 0xF4A JUMPI PUSH0 PUSH1 0x40 MLOAD PUSH32 0xEC442F0500000000000000000000000000000000000000000000000000000000 DUP2 MSTORE PUSH1 0x4 ADD PUSH2 0xF41 SWAP2 SWAP1 PUSH2 0x1EEF JUMP JUMPDEST PUSH1 0x40 MLOAD DUP1 SWAP2 SUB SWAP1 REVERT JUMPDEST PUSH2 0xF55 DUP4 DUP4 DUP4 PUSH2 0x1453 JUMP JUMPDEST POP POP POP JUMP JUMPDEST PUSH2 0xF6B DUP2 PUSH2 0xF66 PUSH2 0xDBE JUMP JUMPDEST PUSH2 0x1690 JUMP JUMPDEST POP JUMP JUMPDEST PUSH0 PUSH2 0xF79 DUP4 DUP4 PUSH2 0x9D9 JUMP JUMPDEST PUSH2 0x104E JUMPI PUSH1 0x1 PUSH1 0x6 PUSH0 DUP6 DUP2 MSTORE PUSH1 0x20 ADD SWAP1 DUP2 MSTORE PUSH1 0x20 ADD PUSH0 KECCAK256 PUSH0 ADD PUSH0 DUP5 PUSH20 0xFFFFFFFFFFFFFFFFFFFFFFFFFFFFFFFFFFFFFFFF AND PUSH20 0xFFFFFFFFFFFFFFFFFFFFFFFFFFFFFFFFFFFFFFFF AND DUP2 MSTORE PUSH1 0x20 ADD SWAP1 DUP2 MSTORE PUSH1 0x20 ADD PUSH0 KECCAK256 PUSH0 PUSH2 0x100 EXP DUP2 SLOAD DUP2 PUSH1 0xFF MUL NOT AND SWAP1 DUP4 ISZERO ISZERO MUL OR SWAP1 SSTORE POP PUSH2 0xFEB PUSH2 0xDBE JUMP JUMPDEST PUSH20 0xFFFFFFFFFFFFFFFFFFFFFFFFFFFFFFFFFFFFFFFF AND DUP3 PUSH20 0xFFFFFFFFFFFFFFFFFFFFFFFFFFFFFFFFFFFFFFFF AND DUP5 PUSH32 0x2F8788117E7EFF1D82E926EC794901D17C78024A50270940304540A733656F0D PUSH1 0x40 MLOAD PUSH1 0x40 MLOAD DUP1 SWAP2 SUB SWAP1 LOG4 PUSH1 0x1 SWAP1 POP PUSH2 0x1052 JUMP JUMPDEST PUSH0 SWAP1 POP JUMPDEST SWAP3 SWAP2 POP POP JUMP JUMPDEST PUSH0 PUSH2 0x1063 DUP4 DUP4 PUSH2 0x9D9 JUMP JUMPDEST ISZERO PUSH2 0x1138 JUMPI PUSH0 PUSH1 0x6 PUSH0 DUP6 DUP2 MSTORE PUSH1 0x20 ADD SWAP1 DUP2 MSTORE PUSH1 0x20 ADD PUSH0 KECCAK256 PUSH0 ADD PUSH0 DUP5 PUSH20 0xFFFFFFFFFFFFFFFFFFFFFFFFFFFFFFFFFFFFFFFF AND PUSH20 0xFFFFFFFFFFFFFFFFFFFFFFFFFFFFFFFFFFFFFFFF AND DUP2 MSTORE PUSH1 0x20 ADD SWAP1 DUP2 MSTORE PUSH1 0x20 ADD PUSH0 KECCAK256 PUSH0 PUSH2 0x100 EXP DUP2 SLOAD DUP2 PUSH1 0xFF MUL NOT AND SWAP1 DUP4 ISZERO ISZERO MUL OR SWAP1 SSTORE POP PUSH2 0x10D5 PUSH2 0xDBE JUMP JUMPDEST PUSH20 0xFFFFFFFFFFFFFFFFFFFFFFFFFFFFFFFFFFFFFFFF AND DUP3 PUSH20 0xFFFFFFFFFFFFFFFFFFFFFFFFFFFFFFFFFFFFFFFF AND DUP5 PUSH32 0xF6391F5C32D9C69D2A47EA670B442974B53935D1EDC7FD64EB21E047A839171B PUSH1 0x40 MLOAD PUSH1 0x40 MLOAD DUP1 SWAP2 SUB SWAP1 LOG4 PUSH1 0x1 SWAP1 POP PUSH2 0x113C JUMP JUMPDEST PUSH0 SWAP1 POP JUMPDEST SWAP3 SWAP2 POP POP JUMP JUMPDEST PUSH2 0x114A PUSH2 0x16E1 JUMP JUMPDEST PUSH0 PUSH1 0x5 PUSH0 PUSH2 0x100 EXP DUP2 SLOAD DUP2 PUSH1 0xFF MUL NOT AND SWAP1 DUP4 ISZERO ISZERO MUL OR SWAP1 SSTORE POP PUSH32 0x5DB9EE0A495BF2E6FF9C91A7834C1BA4FDD244A5E8AA4E537BD38AEAE4B073AA PUSH2 0x118C PUSH2 0xDBE JUMP JUMPDEST PUSH1 0x40 MLOAD PUSH2 0x1199 SWAP2 SWAP1 PUSH2 0x1EEF JUMP JUMPDEST PUSH1 0x40 MLOAD DUP1 SWAP2 SUB SWAP1 LOG1 JUMP JUMPDEST PUSH0 PUSH20 0xFFFFFFFFFFFFFFFFFFFFFFFFFFFFFFFFFFFFFFFF AND DUP3 PUSH20 0xFFFFFFFFFFFFFFFFFFFFFFFFFFFFFFFFFFFFFFFF AND SUB PUSH2 0x1213 JUMPI PUSH0 PUSH1 0x40 MLOAD PUSH32 0xEC442F0500000000000000000000000000000000000000000000000000000000 DUP2 MSTORE PUSH1 0x4 ADD PUSH2 0x120A SWAP2 SWAP1 PUSH2 0x1EEF JUMP JUMPDEST PUSH1 0x40 MLOAD DUP1 SWAP2 SUB SWAP1 REVERT JUMPDEST PUSH2 0x121E PUSH0 DUP4 DUP4 PUSH2 0x1453 JUMP JUMPDEST POP POP JUMP JUMPDEST PUSH2 0x122A PUSH2 0x1721 JUMP JUMPDEST PUSH1 0x1 PUSH1 0x5 PUSH0 PUSH2 0x100 EXP DUP2 SLOAD DUP2 PUSH1 0xFF MUL NOT AND SWAP1 DUP4 ISZERO ISZERO MUL OR SWAP1 SSTORE POP PUSH32 0x62E78CEA01BEE320CD4E420270B5EA74000D11B0C9F74754EBDBFC544B05A258 PUSH2 0x126D PUSH2 0xDBE JUMP JUMPDEST PUSH1 0x40 MLOAD PUSH2 0x127A SWAP2 SWAP1 PUSH2 0x1EEF JUMP JUMPDEST PUSH1 0x40 MLOAD DUP1 SWAP2 SUB SWAP1 LOG1 JUMP JUMPDEST PUSH0 PUSH20 0xFFFFFFFFFFFFFFFFFFFFFFFFFFFFFFFFFFFFFFFF AND DUP5 PUSH20 0xFFFFFFFFFFFFFFFFFFFFFFFFFFFFFFFFFFFFFFFF AND SUB PUSH2 0x12F4 JUMPI PUSH0 PUSH1 0x40 MLOAD PUSH32 0xE602DF0500000000000000000000000000000000000000000000000000000000 DUP2 MSTORE PUSH1 0x4 ADD PUSH2 0x12EB SWAP2 SWAP1 PUSH2 0x1EEF JUMP JUMPDEST PUSH1 0x40 MLOAD DUP1 SWAP2 SUB SWAP1 REVERT JUMPDEST PUSH0 PUSH20 0xFFFFFFFFFFFFFFFFFFFFFFFFFFFFFFFFFFFFFFFF AND DUP4 PUSH20 0xFFFFFFFFFFFFFFFFFFFFFFFFFFFFFFFFFFFFFFFF AND SUB PUSH2 0x1364 JUMPI PUSH0 PUSH1 0x40 MLOAD PUSH32 0x94280D6200000000000000000000000000000000000000000000000000000000 DUP2 MSTORE PUSH1 0x4 ADD PUSH2 0x135B SWAP2 SWAP1 PUSH2 0x1EEF JUMP JUMPDEST PUSH1 0x40 MLOAD DUP1 SWAP2 SUB SWAP1 REVERT JUMPDEST DUP2 PUSH1 0x1 PUSH0 DUP7 PUSH20 0xFFFFFFFFFFFFFFFFFFFFFFFFFFFFFFFFFFFFFFFF AND PUSH20 0xFFFFFFFFFFFFFFFFFFFFFFFFFFFFFFFFFFFFFFFF AND DUP2 MSTORE PUSH1 0x20 ADD SWAP1 DUP2 MSTORE PUSH1 0x20 ADD PUSH0 KECCAK256 PUSH0 DUP6 PUSH20 0xFFFFFFFFFFFFFFFFFFFFFFFFFFFFFFFFFFFFFFFF AND PUSH20 0xFFFFFFFFFFFFFFFFFFFFFFFFFFFFFFFFFFFFFFFF AND DUP2 MSTORE PUSH1 0x20 ADD SWAP1 DUP2 MSTORE PUSH1 0x20 ADD PUSH0 KECCAK256 DUP2 SWAP1 SSTORE POP DUP1 ISZERO PUSH2 0x144D JUMPI DUP3 PUSH20 0xFFFFFFFFFFFFFFFFFFFFFFFFFFFFFFFFFFFFFFFF AND DUP5 PUSH20 0xFFFFFFFFFFFFFFFFFFFFFFFFFFFFFFFFFFFFFFFF AND PUSH32 0x8C5BE1E5EBEC7D5BD14F71427D1E84F3DD0314C0F7B2291E5B200AC8C7C3B925 DUP5 PUSH1 0x40 MLOAD PUSH2 0x1444 SWAP2 SWAP1 PUSH2 0x1BE5 JUMP JUMPDEST PUSH1 0x40 MLOAD DUP1 SWAP2 SUB SWAP1 LOG3 JUMPDEST POP POP POP POP JUMP JUMPDEST PUSH1 0x7 PUSH0 DUP5 PUSH20 0xFFFFFFFFFFFFFFFFFFFFFFFFFFFFFFFFFFFFFFFF AND PUSH20 0xFFFFFFFFFFFFFFFFFFFFFFFFFFFFFFFFFFFFFFFF AND DUP2 MSTORE PUSH1 0x20 ADD SWAP1 DUP2 MSTORE PUSH1 0x20 ADD PUSH0 KECCAK256 PUSH0 SWAP1 SLOAD SWAP1 PUSH2 0x100 EXP SWAP1 DIV PUSH1 0xFF AND ISZERO DUP1 ISZERO PUSH2 0x14F1 JUMPI POP PUSH1 0x7 PUSH0 DUP4 PUSH20 0xFFFFFFFFFFFFFFFFFFFFFFFFFFFFFFFFFFFFFFFF AND PUSH20 0xFFFFFFFFFFFFFFFFFFFFFFFFFFFFFFFFFFFFFFFF AND DUP2 MSTORE PUSH1 0x20 ADD SWAP1 DUP2 MSTORE PUSH1 0x20 ADD PUSH0 KECCAK256 PUSH0 SWAP1 SLOAD SWAP1 PUSH2 0x100 EXP SWAP1 DIV PUSH1 0xFF AND ISZERO JUMPDEST PUSH2 0x1530 JUMPI PUSH1 0x40 MLOAD PUSH32 0x8C379A000000000000000000000000000000000000000000000000000000000 DUP2 MSTORE PUSH1 0x4 ADD PUSH2 0x1527 SWAP1 PUSH2 0x1F52 JUMP JUMPDEST PUSH1 0x40 MLOAD DUP1 SWAP2 SUB SWAP1 REVERT JUMPDEST PUSH0 PUSH20 0xFFFFFFFFFFFFFFFFFFFFFFFFFFFFFFFFFFFFFFFF AND DUP4 PUSH20 0xFFFFFFFFFFFFFFFFFFFFFFFFFFFFFFFFFFFFFFFF AND EQ ISZERO DUP1 ISZERO PUSH2 0x1598 JUMPI POP PUSH0 PUSH20 0xFFFFFFFFFFFFFFFFFFFFFFFFFFFFFFFFFFFFFFFF AND DUP3 PUSH20 0xFFFFFFFFFFFFFFFFFFFFFFFFFFFFFFFFFFFFFFFF AND EQ ISZERO JUMPDEST ISZERO PUSH2 0x1680 JUMPI PUSH2 0x15C7 PUSH32 0xFACAF2747A7486CF5730E9265973FB54447D3ACE6E7E4711F6360826B0731941 DUP5 PUSH2 0x9D9 JUMP JUMPDEST PUSH2 0x1606 JUMPI PUSH1 0x40 MLOAD PUSH32 0x8C379A000000000000000000000000000000000000000000000000000000000 DUP2 MSTORE PUSH1 0x4 ADD PUSH2 0x15FD SWAP1 PUSH2 0x1FBA JUMP JUMPDEST PUSH1 0x40 MLOAD DUP1 SWAP2 SUB SWAP1 REVERT JUMPDEST PUSH2 0x1630 PUSH32 0xFACAF2747A7486CF5730E9265973FB54447D3ACE6E7E4711F6360826B0731941 DUP4 PUSH2 0x9D9 JUMP JUMPDEST PUSH2 0x167F JUMPI PUSH0 PUSH2 0x163E DUP4 PUSH2 0x95F JUMP JUMPDEST EQ PUSH2 0x167E JUMPI PUSH1 0x40 MLOAD PUSH32 0x8C379A000000000000000000000000000000000000000000000000000000000 DUP2 MSTORE PUSH1 0x4 ADD PUSH2 0x1675 SWAP1 PUSH2 0x2048 JUMP JUMPDEST PUSH1 0x40 MLOAD DUP1 SWAP2 SUB SWAP1 REVERT JUMPDEST JUMPDEST JUMPDEST PUSH2 0x168B DUP4 DUP4 DUP4 PUSH2 0x1762 JUMP JUMPDEST POP POP POP JUMP JUMPDEST PUSH2 0x169A DUP3 DUP3 PUSH2 0x9D9 JUMP JUMPDEST PUSH2 0x16DD JUMPI DUP1 DUP3 PUSH1 0x40 MLOAD PUSH32 0xE2517D3F00000000000000000000000000000000000000000000000000000000 DUP2 MSTORE PUSH1 0x4 ADD PUSH2 0x16D4 SWAP3 SWAP2 SWAP1 PUSH2 0x2066 JUMP JUMPDEST PUSH1 0x40 MLOAD DUP1 SWAP2 SUB SWAP1 REVERT JUMPDEST POP POP JUMP JUMPDEST PUSH2 0x16E9 PUSH2 0x7FC JUMP JUMPDEST PUSH2 0x171F JUMPI PUSH1 0x40 MLOAD PUSH32 0x8DFC202B00000000000000000000000000000000000000000000000000000000 DUP2 MSTORE PUSH1 0x4 ADD PUSH1 0x40 MLOAD DUP1 SWAP2 SUB SWAP1 REVERT JUMPDEST JUMP JUMPDEST PUSH2 0x1729 PUSH2 0x7FC JUMP JUMPDEST ISZERO PUSH2 0x1760 JUMPI PUSH1 0x40 MLOAD PUSH32 0xD93C066500000000000000000000000000000000000000000000000000000000 DUP2 MSTORE PUSH1 0x4 ADD PUSH1 0x40 MLOAD DUP1 SWAP2 SUB SWAP1 REVERT JUMPDEST JUMP JUMPDEST PUSH2 0x176A PUSH2 0x1721 JUMP JUMPDEST PUSH2 0x1775 DUP4 DUP4 DUP4 PUSH2 0x177A JUMP JUMPDEST POP POP POP JUMP JUMPDEST PUSH0 PUSH20 0xFFFFFFFFFFFFFFFFFFFFFFFFFFFFFFFFFFFFFFFF AND DUP4 PUSH20 0xFFFFFFFFFFFFFFFFFFFFFFFFFFFFFFFFFFFFFFFF AND SUB PUSH2 0x17CA JUMPI DUP1 PUSH1 0x2 PUSH0 DUP3 DUP3 SLOAD PUSH2 0x17BE SWAP2 SWAP1 PUSH2 0x20BA JUMP JUMPDEST SWAP3 POP POP DUP2 SWAP1 SSTORE POP PUSH2 0x1898 JUMP JUMPDEST PUSH0 PUSH0 PUSH0 DUP6 PUSH20 0xFFFFFFFFFFFFFFFFFFFFFFFFFFFFFFFFFFFFFFFF AND PUSH20 0xFFFFFFFFFFFFFFFFFFFFFFFFFFFFFFFFFFFFFFFF AND DUP2 MSTORE PUSH1 0x20 ADD SWAP1 DUP2 MSTORE PUSH1 0x20 ADD PUSH0 KECCAK256 SLOAD SWAP1 POP DUP2 DUP2 LT ISZERO PUSH2 0x1853 JUMPI DUP4 DUP2 DUP4 PUSH1 0x40 MLOAD PUSH32 0xE450D38C00000000000000000000000000000000000000000000000000000000 DUP2 MSTORE PUSH1 0x4 ADD PUSH2 0x184A SWAP4 SWAP3 SWAP2 SWAP1 PUSH2 0x1EBA JUMP JUMPDEST PUSH1 0x40 MLOAD DUP1 SWAP2 SUB SWAP1 REVERT JUMPDEST DUP2 DUP2 SUB PUSH0 PUSH0 DUP7 PUSH20 0xFFFFFFFFFFFFFFFFFFFFFFFFFFFFFFFFFFFFFFFF AND PUSH20 0xFFFFFFFFFFFFFFFFFFFFFFFFFFFFFFFFFFFFFFFF AND DUP2 MSTORE PUSH1 0x20 ADD SWAP1 DUP2 MSTORE PUSH1 0x20 ADD PUSH0 KECCAK256 DUP2 SWAP1 SSTORE POP POP JUMPDEST PUSH0 PUSH20 0xFFFFFFFFFFFFFFFFFFFFFFFFFFFFFFFFFFFFFFFF AND DUP3 PUSH20 0xFFFFFFFFFFFFFFFFFFFFFFFFFFFFFFFFFFFFFFFF AND SUB PUSH2 0x18DF JUMPI DUP1 PUSH1 0x2 PUSH0 DUP3 DUP3 SLOAD SUB SWAP3 POP POP DUP2 SWAP1 SSTORE POP PUSH2 0x1929 JUMP JUMPDEST DUP1 PUSH0 PUSH0 DUP5 PUSH20 0xFFFFFFFFFFFFFFFFFFFFFFFFFFFFFFFFFFFFFFFF AND PUSH20 0xFFFFFFFFFFFFFFFFFFFFFFFFFFFFFFFFFFFFFFFF AND DUP2 MSTORE PUSH1 0x20 ADD SWAP1 DUP2 MSTORE PUSH1 0x20 ADD PUSH0 KECCAK256 PUSH0 DUP3 DUP3 SLOAD ADD SWAP3 POP POP DUP2 SWAP1 SSTORE POP JUMPDEST DUP2 PUSH20 0xFFFFFFFFFFFFFFFFFFFFFFFFFFFFFFFFFFFFFFFF AND DUP4 PUSH20 0xFFFFFFFFFFFFFFFFFFFFFFFFFFFFFFFFFFFFFFFF AND PUSH32 0xDDF252AD1BE2C89B69C2B068FC378DAA952BA7F163C4A11628F55A4DF523B3EF DUP4 PUSH1 0x40 MLOAD PUSH2 0x1986 SWAP2 SWAP1 PUSH2 0x1BE5 JUMP JUMPDEST PUSH1 0x40 MLOAD DUP1 SWAP2 SUB SWAP1 LOG3 POP POP POP JUMP JUMPDEST PUSH0 PUSH0 REVERT JUMPDEST PUSH0 PUSH32 0xFFFFFFFF00000000000000000000000000000000000000000000000000000000 DUP3 AND SWAP1 POP SWAP2 SWAP1 POP JUMP JUMPDEST PUSH2 0x19CB DUP2 PUSH2 0x1997 JUMP JUMPDEST DUP2 EQ PUSH2 0x19D5 JUMPI PUSH0 PUSH0 REVERT JUMPDEST POP JUMP JUMPDEST PUSH0 DUP2 CALLDATALOAD SWAP1 POP PUSH2 0x19E6 DUP2 PUSH2 0x19C2 JUMP JUMPDEST SWAP3 SWAP2 POP POP JUMP JUMPDEST PUSH0 PUSH1 0x20 DUP3 DUP5 SUB SLT ISZERO PUSH2 0x1A01 JUMPI PUSH2 0x1A00 PUSH2 0x1993 JUMP JUMPDEST JUMPDEST PUSH0 PUSH2 0x1A0E DUP5 DUP3 DUP6 ADD PUSH2 0x19D8 JUMP JUMPDEST SWAP2 POP POP SWAP3 SWAP2 POP POP JUMP JUMPDEST PUSH0 DUP2 ISZERO ISZERO SWAP1 POP SWAP2 SWAP1 POP JUMP JUMPDEST PUSH2 0x1A2B DUP2 PUSH2 0x1A17 JUMP JUMPDEST DUP3 MSTORE POP POP JUMP JUMPDEST PUSH0 PUSH1 0x20 DUP3 ADD SWAP1 POP PUSH2 0x1A44 PUSH0 DUP4 ADD DUP5 PUSH2 0x1A22 JUMP JUMPDEST SWAP3 SWAP2 POP POP JUMP JUMPDEST PUSH0 DUP2 SWAP1 POP SWAP2 SWAP1 POP JUMP JUMPDEST PUSH2 0x1A5C DUP2 PUSH2 0x1A4A JUMP JUMPDEST DUP3 MSTORE POP POP JUMP JUMPDEST PUSH0 PUSH1 0x20 DUP3 ADD SWAP1 POP PUSH2 0x1A75 PUSH0 DUP4 ADD DUP5 PUSH2 0x1A53 JUMP JUMPDEST SWAP3 SWAP2 POP POP JUMP JUMPDEST PUSH0 DUP2 MLOAD SWAP1 POP SWAP2 SWAP1 POP JUMP JUMPDEST PUSH0 DUP3 DUP3 MSTORE PUSH1 0x20 DUP3 ADD SWAP1 POP SWAP3 SWAP2 POP POP JUMP JUMPDEST DUP3 DUP2 DUP4 MCOPY PUSH0 DUP4 DUP4 ADD MSTORE POP POP POP JUMP JUMPDEST PUSH0 PUSH1 0x1F NOT PUSH1 0x1F DUP4 ADD AND SWAP1 POP SWAP2 SWAP1 POP JUMP JUMPDEST PUSH0 PUSH2 0x1ABD DUP3 PUSH2 0x1A7B JUMP JUMPDEST PUSH2 0x1AC7 DUP2 DUP6 PUSH2 0x1A85 JUMP JUMPDEST SWAP4 POP PUSH2 0x1AD7 DUP2 DUP6 PUSH1 0x20 DUP7 ADD PUSH2 0x1A95 JUMP JUMPDEST PUSH2 0x1AE0 DUP2 PUSH2 0x1AA3 JUMP JUMPDEST DUP5 ADD SWAP2 POP POP SWAP3 SWAP2 POP POP JUMP JUMPDEST PUSH0 PUSH1 0x20 DUP3 ADD SWAP1 POP DUP2 DUP2 SUB PUSH0 DUP4 ADD MSTORE PUSH2 0x1B03 DUP2 DUP5 PUSH2 0x1AB3 JUMP JUMPDEST SWAP1 POP SWAP3 SWAP2 POP POP JUMP JUMPDEST PUSH0 PUSH20 0xFFFFFFFFFFFFFFFFFFFFFFFFFFFFFFFFFFFFFFFF DUP3 AND SWAP1 POP SWAP2 SWAP1 POP JUMP JUMPDEST PUSH0 PUSH2 0x1B34 DUP3 PUSH2 0x1B0B JUMP JUMPDEST SWAP1 POP SWAP2 SWAP1 POP JUMP JUMPDEST PUSH2 0x1B44 DUP2 PUSH2 0x1B2A JUMP JUMPDEST DUP2 EQ PUSH2 0x1B4E JUMPI PUSH0 PUSH0 REVERT JUMPDEST POP JUMP JUMPDEST PUSH0 DUP2 CALLDATALOAD SWAP1 POP PUSH2 0x1B5F DUP2 PUSH2 0x1B3B JUMP JUMPDEST SWAP3 SWAP2 POP POP JUMP JUMPDEST PUSH0 DUP2 SWAP1 POP SWAP2 SWAP1 POP JUMP JUMPDEST PUSH2 0x1B77 DUP2 PUSH2 0x1B65 JUMP JUMPDEST DUP2 EQ PUSH2 0x1B81 JUMPI PUSH0 PUSH0 REVERT JUMPDEST POP JUMP JUMPDEST PUSH0 DUP2 CALLDATALOAD SWAP1 POP PUSH2 0x1B92 DUP2 PUSH2 0x1B6E JUMP JUMPDEST SWAP3 SWAP2 POP POP JUMP JUMPDEST PUSH0 PUSH0 PUSH1 0x40 DUP4 DUP6 SUB SLT ISZERO PUSH2 0x1BAE JUMPI PUSH2 0x1BAD PUSH2 0x1993 JUMP JUMPDEST JUMPDEST PUSH0 PUSH2 0x1BBB DUP6 DUP3 DUP7 ADD PUSH2 0x1B51 JUMP JUMPDEST SWAP3 POP POP PUSH1 0x20 PUSH2 0x1BCC DUP6 DUP3 DUP7 ADD PUSH2 0x1B84 JUMP JUMPDEST SWAP2 POP POP SWAP3 POP SWAP3 SWAP1 POP JUMP JUMPDEST PUSH2 0x1BDF DUP2 PUSH2 0x1B65 JUMP JUMPDEST DUP3 MSTORE POP POP JUMP JUMPDEST PUSH0 PUSH1 0x20 DUP3 ADD SWAP1 POP PUSH2 0x1BF8 PUSH0 DUP4 ADD DUP5 PUSH2 0x1BD6 JUMP JUMPDEST SWAP3 SWAP2 POP POP JUMP JUMPDEST PUSH0 PUSH0 PUSH0 PUSH1 0x60 DUP5 DUP7 SUB SLT ISZERO PUSH2 0x1C15 JUMPI PUSH2 0x1C14 PUSH2 0x1993 JUMP JUMPDEST JUMPDEST PUSH0 PUSH2 0x1C22 DUP7 DUP3 DUP8 ADD PUSH2 0x1B51 JUMP JUMPDEST SWAP4 POP POP PUSH1 0x20 PUSH2 0x1C33 DUP7 DUP3 DUP8 ADD PUSH2 0x1B51 JUMP JUMPDEST SWAP3 POP POP PUSH1 0x40 PUSH2 0x1C44 DUP7 DUP3 DUP8 ADD PUSH2 0x1B84 JUMP JUMPDEST SWAP2 POP POP SWAP3 POP SWAP3 POP SWAP3 JUMP JUMPDEST PUSH2 0x1C57 DUP2 PUSH2 0x1A4A JUMP JUMPDEST DUP2 EQ PUSH2 0x1C61 JUMPI PUSH0 PUSH0 REVERT JUMPDEST POP JUMP JUMPDEST PUSH0 DUP2 CALLDATALOAD SWAP1 POP PUSH2 0x1C72 DUP2 PUSH2 0x1C4E JUMP JUMPDEST SWAP3 SWAP2 POP POP JUMP JUMPDEST PUSH0 PUSH1 0x20 DUP3 DUP5 SUB SLT ISZERO PUSH2 0x1C8D JUMPI PUSH2 0x1C8C PUSH2 0x1993 JUMP JUMPDEST JUMPDEST PUSH0 PUSH2 0x1C9A DUP5 DUP3 DUP6 ADD PUSH2 0x1C64 JUMP JUMPDEST SWAP2 POP POP SWAP3 SWAP2 POP POP JUMP JUMPDEST PUSH0 PUSH0 PUSH1 0x40 DUP4 DUP6 SUB SLT ISZERO PUSH2 0x1CB9 JUMPI PUSH2 0x1CB8 PUSH2 0x1993 JUMP JUMPDEST JUMPDEST PUSH0 PUSH2 0x1CC6 DUP6 DUP3 DUP7 ADD PUSH2 0x1C64 JUMP JUMPDEST SWAP3 POP POP PUSH1 0x20 PUSH2 0x1CD7 DUP6 DUP3 DUP7 ADD PUSH2 0x1B51 JUMP JUMPDEST SWAP2 POP POP SWAP3 POP SWAP3 SWAP1 POP JUMP JUMPDEST PUSH0 PUSH1 0xFF DUP3 AND SWAP1 POP SWAP2 SWAP1 POP JUMP JUMPDEST PUSH2 0x1CF6 DUP2 PUSH2 0x1CE1 JUMP JUMPDEST DUP3 MSTORE POP POP JUMP JUMPDEST PUSH0 PUSH1 0x20 DUP3 ADD SWAP1 POP PUSH2 0x1D0F PUSH0 DUP4 ADD DUP5 PUSH2 0x1CED JUMP JUMPDEST SWAP3 SWAP2 POP POP JUMP JUMPDEST PUSH0 PUSH1 0x20 DUP3 DUP5 SUB SLT ISZERO PUSH2 0x1D2A JUMPI PUSH2 0x1D29 PUSH2 0x1993 JUMP JUMPDEST JUMPDEST PUSH0 PUSH2 0x1D37 DUP5 DUP3 DUP6 ADD PUSH2 0x1B51 JUMP JUMPDEST SWAP2 POP POP SWAP3 SWAP2 POP POP JUMP JUMPDEST PUSH0 PUSH0 PUSH1 0x40 DUP4 DUP6 SUB SLT ISZERO PUSH2 0x1D56 JUMPI PUSH2 0x1D55 PUSH2 0x1993 JUMP JUMPDEST JUMPDEST PUSH0 PUSH2 0x1D63 DUP6 DUP3 DUP7 ADD PUSH2 0x1B51 JUMP JUMPDEST SWAP3 POP POP PUSH1 0x20 PUSH2 0x1D74 DUP6 DUP3 DUP7 ADD PUSH2 0x1B51 JUMP JUMPDEST SWAP2 POP POP SWAP3 POP SWAP3 SWAP1 POP JUMP JUMPDEST PUSH32 0x4E487B7100000000000000000000000000000000000000000000000000000000 PUSH0 MSTORE PUSH1 0x22 PUSH1 0x4 MSTORE PUSH1 0x24 PUSH0 REVERT JUMPDEST PUSH0 PUSH1 0x2 DUP3 DIV SWAP1 POP PUSH1 0x1 DUP3 AND DUP1 PUSH2 0x1DC2 JUMPI PUSH1 0x7F DUP3 AND SWAP2 POP JUMPDEST PUSH1 0x20 DUP3 LT DUP2 SUB PUSH2 0x1DD5 JUMPI PUSH2 0x1DD4 PUSH2 0x1D7E JUMP JUMPDEST JUMPDEST POP SWAP2 SWAP1 POP JUMP JUMPDEST PUSH32 0x4E6F742066726F7A656E00000000000000000000000000000000000000000000 PUSH0 DUP3 ADD MSTORE POP JUMP JUMPDEST PUSH0 PUSH2 0x1E0F PUSH1 0xA DUP4 PUSH2 0x1A85 JUMP JUMPDEST SWAP2 POP PUSH2 0x1E1A DUP3 PUSH2 0x1DDB JUMP JUMPDEST PUSH1 0x20 DUP3 ADD SWAP1 POP SWAP2 SWAP1 POP JUMP JUMPDEST PUSH0 PUSH1 0x20 DUP3 ADD SWAP1 POP DUP2 DUP2 SUB PUSH0 DUP4 ADD MSTORE PUSH2 0x1E3C DUP2 PUSH2 0x1E03 JUMP JUMPDEST SWAP1 POP SWAP2 SWAP1 POP JUMP JUMPDEST PUSH32 0x416C72656164792066726F7A656E000000000000000000000000000000000000 PUSH0 DUP3 ADD MSTORE POP JUMP JUMPDEST PUSH0 PUSH2 0x1E77 PUSH1 0xE DUP4 PUSH2 0x1A85 JUMP JUMPDEST SWAP2 POP PUSH2 0x1E82 DUP3 PUSH2 0x1E43 JUMP JUMPDEST PUSH1 0x20 DUP3 ADD SWAP1 POP SWAP2 SWAP1 POP JUMP JUMPDEST PUSH0 PUSH1 0x20 DUP3 ADD SWAP1 POP DUP2 DUP2 SUB PUSH0 DUP4 ADD MSTORE PUSH2 0x1EA4 DUP2 PUSH2 0x1E6B JUMP JUMPDEST SWAP1 POP SWAP2 SWAP1 POP JUMP JUMPDEST PUSH2 0x1EB4 DUP2 PUSH2 0x1B2A JUMP JUMPDEST DUP3 MSTORE POP POP JUMP JUMPDEST PUSH0 PUSH1 0x60 DUP3 ADD SWAP1 POP PUSH2 0x1ECD PUSH0 DUP4 ADD DUP7 PUSH2 0x1EAB JUMP JUMPDEST PUSH2 0x1EDA PUSH1 0x20 DUP4 ADD DUP6 PUSH2 0x1BD6 JUMP JUMPDEST PUSH2 0x1EE7 PUSH1 0x40 DUP4 ADD DUP5 PUSH2 0x1BD6 JUMP JUMPDEST SWAP5 SWAP4 POP POP POP POP JUMP JUMPDEST PUSH0 PUSH1 0x20 DUP3 ADD SWAP1 POP PUSH2 0x1F02 PUSH0 DUP4 ADD DUP5 PUSH2 0x1EAB JUMP JUMPDEST SWAP3 SWAP2 POP POP JUMP JUMPDEST PUSH32 0x57616C6C65742069732066726F7A656E00000000000000000000000000000000 PUSH0 DUP3 ADD MSTORE POP JUMP JUMPDEST PUSH0 PUSH2 0x1F3C PUSH1 0x10 DUP4 PUSH2 0x1A85 JUMP JUMPDEST SWAP2 POP PUSH2 0x1F47 DUP3 PUSH2 0x1F08 JUMP JUMPDEST PUSH1 0x20 DUP3 ADD SWAP1 POP SWAP2 SWAP1 POP JUMP JUMPDEST PUSH0 PUSH1 0x20 DUP3 ADD SWAP1 POP DUP2 DUP2 SUB PUSH0 DUP4 ADD MSTORE PUSH2 0x1F69 DUP2 PUSH2 0x1F30 JUMP JUMPDEST SWAP1 POP SWAP2 SWAP1 POP JUMP JUMPDEST PUSH32 0x53656E646572206C61636B73205452414445525F524F4C450000000000000000 PUSH0 DUP3 ADD MSTORE POP JUMP JUMPDEST PUSH0 PUSH2 0x1FA4 PUSH1 0x18 DUP4 PUSH2 0x1A85 JUMP JUMPDEST SWAP2 POP PUSH2 0x1FAF DUP3 PUSH2 0x1F70 JUMP JUMPDEST PUSH1 0x20 DUP3 ADD SWAP1 POP SWAP2 SWAP1 POP JUMP JUMPDEST PUSH0 PUSH1 0x20 DUP3 ADD SWAP1 POP DUP2 DUP2 SUB PUSH0 DUP4 ADD MSTORE PUSH2 0x1FD1 DUP2 PUSH2 0x1F98 JUMP JUMPDEST SWAP1 POP SWAP2 SWAP1 POP JUMP JUMPDEST PUSH32 0x5265636569766572206861732062616C616E636520627574206C61636B732054 PUSH0 DUP3 ADD MSTORE PUSH32 0x52414445525F524F4C4500000000000000000000000000000000000000000000 PUSH1 0x20 DUP3 ADD MSTORE POP JUMP JUMPDEST PUSH0 PUSH2 0x2032 PUSH1 0x2A DUP4 PUSH2 0x1A85 JUMP JUMPDEST SWAP2 POP PUSH2 0x203D DUP3 PUSH2 0x1FD8 JUMP JUMPDEST PUSH1 0x40 DUP3 ADD SWAP1 POP SWAP2 SWAP1 POP JUMP JUMPDEST PUSH0 PUSH1 0x20 DUP3 ADD SWAP1 POP DUP2 DUP2 SUB PUSH0 DUP4 ADD MSTORE PUSH2 0x205F DUP2 PUSH2 0x2026 JUMP JUMPDEST SWAP1 POP SWAP2 SWAP1 POP JUMP JUMPDEST PUSH0 PUSH1 0x40 DUP3 ADD SWAP1 POP PUSH2 0x2079 PUSH0 DUP4 ADD DUP6 PUSH2 0x1EAB JUMP JUMPDEST PUSH2 0x2086 PUSH1 0x20 DUP4 ADD DUP5 PUSH2 0x1A53 JUMP JUMPDEST SWAP4 SWAP3 POP POP POP JUMP JUMPDEST PUSH32 0x4E487B7100000000000000000000000000000000000000000000000000000000 PUSH0 MSTORE PUSH1 0x11 PUSH1 0x4 MSTORE PUSH1 0x24 PUSH0 REVERT JUMPDEST PUSH0 PUSH2 0x20C4 DUP3 PUSH2 0x1B65 JUMP JUMPDEST SWAP2 POP PUSH2 0x20CF DUP4 PUSH2 0x1B65 JUMP JUMPDEST SWAP3 POP DUP3 DUP3 ADD SWAP1 POP DUP1 DUP3 GT ISZERO PUSH2 0x20E7 JUMPI PUSH2 0x20E6 PUSH2 0x208D JUMP JUMPDEST JUMPDEST SWAP3 SWAP2 POP POP JUMP INVALID LOG2 PUSH5 0x6970667358 0x22 SLT KECCAK256 0x4F PUSH13 0xC2974CFD5E7F59459701F84535 DUP1 RETF DUP13 PUSH32 0xCC3E02A8F3F2980201B40FDBE264736F6C634300082200330000000000000000 "
	},
	"abi": [
		{
			"inputs": [],
			"stateMutability": "nonpayable",
			"type": "constructor"
		},
		{
			"inputs": [],
			"name": "AccessControlBadConfirmation",
			"type": "error"
		},
		{
			"inputs": [
				{
					"internalType": "address",
					"name": "account",
					"type": "address"
				},
				{
					"internalType": "bytes32",
					"name": "neededRole",
					"type": "bytes32"
				}
			],
			"name": "AccessControlUnauthorizedAccount",
			"type": "error"
		},
		{
			"inputs": [
				{
					"internalType": "address",
					"name": "spender",
					"type": "address"
				},
				{
					"internalType": "uint256",
					"name": "allowance",
					"type": "uint256"
				},
				{
					"internalType": "uint256",
					"name": "needed",
					"type": "uint256"
				}
			],
			"name": "ERC20InsufficientAllowance",
			"type": "error"
		},
		{
			"inputs": [
				{
					"internalType": "address",
					"name": "sender",
					"type": "address"
				},
				{
					"internalType": "uint256",
					"name": "balance",
					"type": "uint256"
				},
				{
					"internalType": "uint256",
					"name": "needed",
					"type": "uint256"
				}
			],
			"name": "ERC20InsufficientBalance",
			"type": "error"
		},
		{
			"inputs": [
				{
					"internalType": "address",
					"name": "approver",
					"type": "address"
				}
			],
			"name": "ERC20InvalidApprover",
			"type": "error"
		},
		{
			"inputs": [
				{
					"internalType": "address",
					"name": "receiver",
					"type": "address"
				}
			],
			"name": "ERC20InvalidReceiver",
			"type": "error"
		},
		{
			"inputs": [
				{
					"internalType": "address",
					"name": "sender",
					"type": "address"
				}
			],
			"name": "ERC20InvalidSender",
			"type": "error"
		},
		{
			"inputs": [
				{
					"internalType": "address",
					"name": "spender",
					"type": "address"
				}
			],
			"name": "ERC20InvalidSpender",
			"type": "error"
		},
		{
			"inputs": [],
			"name": "EnforcedPause",
			"type": "error"
		},
		{
			"inputs": [],
			"name": "ExpectedPause",
			"type": "error"
		},
		{
			"anonymous": false,
			"inputs": [
				{
					"indexed": true,
					"internalType": "address",
					"name": "owner",
					"type": "address"
				},
				{
					"indexed": true,
					"internalType": "address",
					"name": "spender",
					"type": "address"
				},
				{
					"indexed": false,
					"internalType": "uint256",
					"name": "value",
					"type": "uint256"
				}
			],
			"name": "Approval",
			"type": "event"
		},
		{
			"anonymous": false,
			"inputs": [
				{
					"indexed": true,
					"internalType": "address",
					"name": "to",
					"type": "address"
				},
				{
					"indexed": false,
					"internalType": "uint256",
					"name": "amount",
					"type": "uint256"
				}
			],
			"name": "Minted",
			"type": "event"
		},
		{
			"anonymous": false,
			"inputs": [
				{
					"indexed": false,
					"internalType": "address",
					"name": "account",
					"type": "address"
				}
			],
			"name": "Paused",
			"type": "event"
		},
		{
			"anonymous": false,
			"inputs": [
				{
					"indexed": true,
					"internalType": "bytes32",
					"name": "role",
					"type": "bytes32"
				},
				{
					"indexed": true,
					"internalType": "bytes32",
					"name": "previousAdminRole",
					"type": "bytes32"
				},
				{
					"indexed": true,
					"internalType": "bytes32",
					"name": "newAdminRole",
					"type": "bytes32"
				}
			],
			"name": "RoleAdminChanged",
			"type": "event"
		},
		{
			"anonymous": false,
			"inputs": [
				{
					"indexed": true,
					"internalType": "bytes32",
					"name": "role",
					"type": "bytes32"
				},
				{
					"indexed": true,
					"internalType": "address",
					"name": "account",
					"type": "address"
				},
				{
					"indexed": true,
					"internalType": "address",
					"name": "sender",
					"type": "address"
				}
			],
			"name": "RoleGranted",
			"type": "event"
		},
		{
			"anonymous": false,
			"inputs": [
				{
					"indexed": true,
					"internalType": "bytes32",
					"name": "role",
					"type": "bytes32"
				},
				{
					"indexed": true,
					"internalType": "address",
					"name": "account",
					"type": "address"
				},
				{
					"indexed": true,
					"internalType": "address",
					"name": "sender",
					"type": "address"
				}
			],
			"name": "RoleRevoked",
			"type": "event"
		},
		{
			"anonymous": false,
			"inputs": [
				{
					"indexed": true,
					"internalType": "address",
					"name": "from",
					"type": "address"
				},
				{
					"indexed": true,
					"internalType": "address",
					"name": "to",
					"type": "address"
				},
				{
					"indexed": false,
					"internalType": "uint256",
					"name": "value",
					"type": "uint256"
				}
			],
			"name": "Transfer",
			"type": "event"
		},
		{
			"anonymous": false,
			"inputs": [
				{
					"indexed": false,
					"internalType": "address",
					"name": "account",
					"type": "address"
				}
			],
			"name": "Unpaused",
			"type": "event"
		},
		{
			"anonymous": false,
			"inputs": [
				{
					"indexed": true,
					"internalType": "address",
					"name": "account",
					"type": "address"
				}
			],
			"name": "WalletFrozen",
			"type": "event"
		},
		{
			"anonymous": false,
			"inputs": [
				{
					"indexed": true,
					"internalType": "address",
					"name": "account",
					"type": "address"
				}
			],
			"name": "WalletUnfrozen",
			"type": "event"
		},
		{
			"inputs": [],
			"name": "DEFAULT_ADMIN_ROLE",
			"outputs": [
				{
					"internalType": "bytes32",
					"name": "",
					"type": "bytes32"
				}
			],
			"stateMutability": "view",
			"type": "function"
		},
		{
			"inputs": [],
			"name": "FREEZER_ROLE",
			"outputs": [
				{
					"internalType": "bytes32",
					"name": "",
					"type": "bytes32"
				}
			],
			"stateMutability": "view",
			"type": "function"
		},
		{
			"inputs": [],
			"name": "MINTER_ROLE",
			"outputs": [
				{
					"internalType": "bytes32",
					"name": "",
					"type": "bytes32"
				}
			],
			"stateMutability": "view",
			"type": "function"
		},
		{
			"inputs": [],
			"name": "PAUSER_ROLE",
			"outputs": [
				{
					"internalType": "bytes32",
					"name": "",
					"type": "bytes32"
				}
			],
			"stateMutability": "view",
			"type": "function"
		},
		{
			"inputs": [],
			"name": "TRADER_ROLE",
			"outputs": [
				{
					"internalType": "bytes32",
					"name": "",
					"type": "bytes32"
				}
			],
			"stateMutability": "view",
			"type": "function"
		},
		{
			"inputs": [
				{
					"internalType": "address",
					"name": "owner",
					"type": "address"
				},
				{
					"internalType": "address",
					"name": "spender",
					"type": "address"
				}
			],
			"name": "allowance",
			"outputs": [
				{
					"internalType": "uint256",
					"name": "",
					"type": "uint256"
				}
			],
			"stateMutability": "view",
			"type": "function"
		},
		{
			"inputs": [
				{
					"internalType": "address",
					"name": "spender",
					"type": "address"
				},
				{
					"internalType": "uint256",
					"name": "value",
					"type": "uint256"
				}
			],
			"name": "approve",
			"outputs": [
				{
					"internalType": "bool",
					"name": "",
					"type": "bool"
				}
			],
			"stateMutability": "nonpayable",
			"type": "function"
		},
		{
			"inputs": [
				{
					"internalType": "address",
					"name": "account",
					"type": "address"
				}
			],
			"name": "balanceOf",
			"outputs": [
				{
					"internalType": "uint256",
					"name": "",
					"type": "uint256"
				}
			],
			"stateMutability": "view",
			"type": "function"
		},
		{
			"inputs": [],
			"name": "decimals",
			"outputs": [
				{
					"internalType": "uint8",
					"name": "",
					"type": "uint8"
				}
			],
			"stateMutability": "view",
			"type": "function"
		},
		{
			"inputs": [
				{
					"internalType": "address",
					"name": "account",
					"type": "address"
				}
			],
			"name": "freezeWallet",
			"outputs": [],
			"stateMutability": "nonpayable",
			"type": "function"
		},
		{
			"inputs": [
				{
					"internalType": "bytes32",
					"name": "role",
					"type": "bytes32"
				}
			],
			"name": "getRoleAdmin",
			"outputs": [
				{
					"internalType": "bytes32",
					"name": "",
					"type": "bytes32"
				}
			],
			"stateMutability": "view",
			"type": "function"
		},
		{
			"inputs": [
				{
					"internalType": "bytes32",
					"name": "role",
					"type": "bytes32"
				},
				{
					"internalType": "address",
					"name": "account",
					"type": "address"
				}
			],
			"name": "grantRole",
			"outputs": [],
			"stateMutability": "nonpayable",
			"type": "function"
		},
		{
			"inputs": [
				{
					"internalType": "bytes32",
					"name": "role",
					"type": "bytes32"
				},
				{
					"internalType": "address",
					"name": "account",
					"type": "address"
				}
			],
			"name": "hasRole",
			"outputs": [
				{
					"internalType": "bool",
					"name": "",
					"type": "bool"
				}
			],
			"stateMutability": "view",
			"type": "function"
		},
		{
			"inputs": [
				{
					"internalType": "address",
					"name": "to",
					"type": "address"
				},
				{
					"internalType": "uint256",
					"name": "amount",
					"type": "uint256"
				}
			],
			"name": "mint",
			"outputs": [],
			"stateMutability": "nonpayable",
			"type": "function"
		},
		{
			"inputs": [],
			"name": "name",
			"outputs": [
				{
					"internalType": "string",
					"name": "",
					"type": "string"
				}
			],
			"stateMutability": "view",
			"type": "function"
		},
		{
			"inputs": [],
			"name": "pause",
			"outputs": [],
			"stateMutability": "nonpayable",
			"type": "function"
		},
		{
			"inputs": [],
			"name": "paused",
			"outputs": [
				{
					"internalType": "bool",
					"name": "",
					"type": "bool"
				}
			],
			"stateMutability": "view",
			"type": "function"
		},
		{
			"inputs": [
				{
					"internalType": "bytes32",
					"name": "role",
					"type": "bytes32"
				},
				{
					"internalType": "address",
					"name": "callerConfirmation",
					"type": "address"
				}
			],
			"name": "renounceRole",
			"outputs": [],
			"stateMutability": "nonpayable",
			"type": "function"
		},
		{
			"inputs": [
				{
					"internalType": "bytes32",
					"name": "role",
					"type": "bytes32"
				},
				{
					"internalType": "address",
					"name": "account",
					"type": "address"
				}
			],
			"name": "revokeRole",
			"outputs": [],
			"stateMutability": "nonpayable",
			"type": "function"
		},
		{
			"inputs": [
				{
					"internalType": "bytes4",
					"name": "interfaceId",
					"type": "bytes4"
				}
			],
			"name": "supportsInterface",
			"outputs": [
				{
					"internalType": "bool",
					"name": "",
					"type": "bool"
				}
			],
			"stateMutability": "view",
			"type": "function"
		},
		{
			"inputs": [],
			"name": "symbol",
			"outputs": [
				{
					"internalType": "string",
					"name": "",
					"type": "string"
				}
			],
			"stateMutability": "view",
			"type": "function"
		},
		{
			"inputs": [],
			"name": "totalSupply",
			"outputs": [
				{
					"internalType": "uint256",
					"name": "",
					"type": "uint256"
				}
			],
			"stateMutability": "view",
			"type": "function"
		},
		{
			"inputs": [
				{
					"internalType": "address",
					"name": "to",
					"type": "address"
				},
				{
					"internalType": "uint256",
					"name": "value",
					"type": "uint256"
				}
			],
			"name": "transfer",
			"outputs": [
				{
					"internalType": "bool",
					"name": "",
					"type": "bool"
				}
			],
			"stateMutability": "nonpayable",
			"type": "function"
		},
		{
			"inputs": [
				{
					"internalType": "address",
					"name": "from",
					"type": "address"
				},
				{
					"internalType": "address",
					"name": "to",
					"type": "address"
				},
				{
					"internalType": "uint256",
					"name": "value",
					"type": "uint256"
				}
			],
			"name": "transferFrom",
			"outputs": [
				{
					"internalType": "bool",
					"name": "",
					"type": "bool"
				}
			],
			"stateMutability": "nonpayable",
			"type": "function"
		},
		{
			"inputs": [
				{
					"internalType": "address",
					"name": "account",
					"type": "address"
				}
			],
			"name": "unfreezeWallet",
			"outputs": [],
			"stateMutability": "nonpayable",
			"type": "function"
		},
		{
			"inputs": [],
			"name": "unpause",
			"outputs": [],
			"stateMutability": "nonpayable",
			"type": "function"
		}
	],
	"storageLayout": {
		"storage": [
			{
				"astId": 538,
				"contract": "contracts/Rinanze.sol:Rinanze",
				"label": "_balances",
				"offset": 0,
				"slot": "0",
				"type": "t_mapping(t_address,t_uint256)"
			},
			{
				"astId": 544,
				"contract": "contracts/Rinanze.sol:Rinanze",
				"label": "_allowances",
				"offset": 0,
				"slot": "1",
				"type": "t_mapping(t_address,t_mapping(t_address,t_uint256))"
			},
			{
				"astId": 546,
				"contract": "contracts/Rinanze.sol:Rinanze",
				"label": "_totalSupply",
				"offset": 0,
				"slot": "2",
				"type": "t_uint256"
			},
			{
				"astId": 548,
				"contract": "contracts/Rinanze.sol:Rinanze",
				"label": "_name",
				"offset": 0,
				"slot": "3",
				"type": "t_string_storage"
			},
			{
				"astId": 550,
				"contract": "contracts/Rinanze.sol:Rinanze",
				"label": "_symbol",
				"offset": 0,
				"slot": "4",
				"type": "t_string_storage"
			},
			{
				"astId": 1207,
				"contract": "contracts/Rinanze.sol:Rinanze",
				"label": "_paused",
				"offset": 0,
				"slot": "5",
				"type": "t_bool"
			},
			{
				"astId": 26,
				"contract": "contracts/Rinanze.sol:Rinanze",
				"label": "_roles",
				"offset": 0,
				"slot": "6",
				"type": "t_mapping(t_bytes32,t_struct(RoleData)21_storage)"
			},
			{
				"astId": 1377,
				"contract": "contracts/Rinanze.sol:Rinanze",
				"label": "_frozenWallets",
				"offset": 0,
				"slot": "7",
				"type": "t_mapping(t_address,t_bool)"
			}
		],
		"types": {
			"t_address": {
				"encoding": "inplace",
				"label": "address",
				"numberOfBytes": "20"
			},
			"t_bool": {
				"encoding": "inplace",
				"label": "bool",
				"numberOfBytes": "1"
			},
			"t_bytes32": {
				"encoding": "inplace",
				"label": "bytes32",
				"numberOfBytes": "32"
			},
			"t_mapping(t_address,t_bool)": {
				"encoding": "mapping",
				"key": "t_address",
				"label": "mapping(address => bool)",
				"numberOfBytes": "32",
				"value": "t_bool"
			},
			"t_mapping(t_address,t_mapping(t_address,t_uint256))": {
				"encoding": "mapping",
				"key": "t_address",
				"label": "mapping(address => mapping(address => uint256))",
				"numberOfBytes": "32",
				"value": "t_mapping(t_address,t_uint256)"
			},
			"t_mapping(t_address,t_uint256)": {
				"encoding": "mapping",
				"key": "t_address",
				"label": "mapping(address => uint256)",
				"numberOfBytes": "32",
				"value": "t_uint256"
			},
			"t_mapping(t_bytes32,t_struct(RoleData)21_storage)": {
				"encoding": "mapping",
				"key": "t_bytes32",
				"label": "mapping(bytes32 => struct AccessControl.RoleData)",
				"numberOfBytes": "32",
				"value": "t_struct(RoleData)21_storage"
			},
			"t_string_storage": {
				"encoding": "bytes",
				"label": "string",
				"numberOfBytes": "32"
			},
			"t_struct(RoleData)21_storage": {
				"encoding": "inplace",
				"label": "struct AccessControl.RoleData",
				"members": [
					{
						"astId": 18,
						"contract": "contracts/Rinanze.sol:Rinanze",
						"label": "hasRole",
						"offset": 0,
						"slot": "0",
						"type": "t_mapping(t_address,t_bool)"
					},
					{
						"astId": 20,
						"contract": "contracts/Rinanze.sol:Rinanze",
						"label": "adminRole",
						"offset": 0,
						"slot": "1",
						"type": "t_bytes32"
					}
				],
				"numberOfBytes": "64"
			},
			"t_uint256": {
				"encoding": "inplace",
				"label": "uint256",
				"numberOfBytes": "32"
			}
		}
	},
	"web3Deploy": "var rinanzeContract = new web3.eth.Contract([{\"inputs\":[],\"stateMutability\":\"nonpayable\",\"type\":\"constructor\"},{\"inputs\":[],\"name\":\"AccessControlBadConfirmation\",\"type\":\"error\"},{\"inputs\":[{\"internalType\":\"address\",\"name\":\"account\",\"type\":\"address\"},{\"internalType\":\"bytes32\",\"name\":\"neededRole\",\"type\":\"bytes32\"}],\"name\":\"AccessControlUnauthorizedAccount\",\"type\":\"error\"},{\"inputs\":[{\"internalType\":\"address\",\"name\":\"spender\",\"type\":\"address\"},{\"internalType\":\"uint256\",\"name\":\"allowance\",\"type\":\"uint256\"},{\"internalType\":\"uint256\",\"name\":\"needed\",\"type\":\"uint256\"}],\"name\":\"ERC20InsufficientAllowance\",\"type\":\"error\"},{\"inputs\":[{\"internalType\":\"address\",\"name\":\"sender\",\"type\":\"address\"},{\"internalType\":\"uint256\",\"name\":\"balance\",\"type\":\"uint256\"},{\"internalType\":\"uint256\",\"name\":\"needed\",\"type\":\"uint256\"}],\"name\":\"ERC20InsufficientBalance\",\"type\":\"error\"},{\"inputs\":[{\"internalType\":\"address\",\"name\":\"approver\",\"type\":\"address\"}],\"name\":\"ERC20InvalidApprover\",\"type\":\"error\"},{\"inputs\":[{\"internalType\":\"address\",\"name\":\"receiver\",\"type\":\"address\"}],\"name\":\"ERC20InvalidReceiver\",\"type\":\"error\"},{\"inputs\":[{\"internalType\":\"address\",\"name\":\"sender\",\"type\":\"address\"}],\"name\":\"ERC20InvalidSender\",\"type\":\"error\"},{\"inputs\":[{\"internalType\":\"address\",\"name\":\"spender\",\"type\":\"address\"}],\"name\":\"ERC20InvalidSpender\",\"type\":\"error\"},{\"inputs\":[],\"name\":\"EnforcedPause\",\"type\":\"error\"},{\"inputs\":[],\"name\":\"ExpectedPause\",\"type\":\"error\"},{\"anonymous\":false,\"inputs\":[{\"indexed\":true,\"internalType\":\"address\",\"name\":\"owner\",\"type\":\"address\"},{\"indexed\":true,\"internalType\":\"address\",\"name\":\"spender\",\"type\":\"address\"},{\"indexed\":false,\"internalType\":\"uint256\",\"name\":\"value\",\"type\":\"uint256\"}],\"name\":\"Approval\",\"type\":\"event\"},{\"anonymous\":false,\"inputs\":[{\"indexed\":true,\"internalType\":\"address\",\"name\":\"to\",\"type\":\"address\"},{\"indexed\":false,\"internalType\":\"uint256\",\"name\":\"amount\",\"type\":\"uint256\"}],\"name\":\"Minted\",\"type\":\"event\"},{\"anonymous\":false,\"inputs\":[{\"indexed\":false,\"internalType\":\"address\",\"name\":\"account\",\"type\":\"address\"}],\"name\":\"Paused\",\"type\":\"event\"},{\"anonymous\":false,\"inputs\":[{\"indexed\":true,\"internalType\":\"bytes32\",\"name\":\"role\",\"type\":\"bytes32\"},{\"indexed\":true,\"internalType\":\"bytes32\",\"name\":\"previousAdminRole\",\"type\":\"bytes32\"},{\"indexed\":true,\"internalType\":\"bytes32\",\"name\":\"newAdminRole\",\"type\":\"bytes32\"}],\"name\":\"RoleAdminChanged\",\"type\":\"event\"},{\"anonymous\":false,\"inputs\":[{\"indexed\":true,\"internalType\":\"bytes32\",\"name\":\"role\",\"type\":\"bytes32\"},{\"indexed\":true,\"internalType\":\"address\",\"name\":\"account\",\"type\":\"address\"},{\"indexed\":true,\"internalType\":\"address\",\"name\":\"sender\",\"type\":\"address\"}],\"name\":\"RoleGranted\",\"type\":\"event\"},{\"anonymous\":false,\"inputs\":[{\"indexed\":true,\"internalType\":\"bytes32\",\"name\":\"role\",\"type\":\"bytes32\"},{\"indexed\":true,\"internalType\":\"address\",\"name\":\"account\",\"type\":\"address\"},{\"indexed\":true,\"internalType\":\"address\",\"name\":\"sender\",\"type\":\"address\"}],\"name\":\"RoleRevoked\",\"type\":\"event\"},{\"anonymous\":false,\"inputs\":[{\"indexed\":true,\"internalType\":\"address\",\"name\":\"from\",\"type\":\"address\"},{\"indexed\":true,\"internalType\":\"address\",\"name\":\"to\",\"type\":\"address\"},{\"indexed\":false,\"internalType\":\"uint256\",\"name\":\"value\",\"type\":\"uint256\"}],\"name\":\"Transfer\",\"type\":\"event\"},{\"anonymous\":false,\"inputs\":[{\"indexed\":false,\"internalType\":\"address\",\"name\":\"account\",\"type\":\"address\"}],\"name\":\"Unpaused\",\"type\":\"event\"},{\"anonymous\":false,\"inputs\":[{\"indexed\":true,\"internalType\":\"address\",\"name\":\"account\",\"type\":\"address\"}],\"name\":\"WalletFrozen\",\"type\":\"event\"},{\"anonymous\":false,\"inputs\":[{\"indexed\":true,\"internalType\":\"address\",\"name\":\"account\",\"type\":\"address\"}],\"name\":\"WalletUnfrozen\",\"type\":\"event\"},{\"inputs\":[],\"name\":\"DEFAULT_ADMIN_ROLE\",\"outputs\":[{\"internalType\":\"bytes32\",\"name\":\"\",\"type\":\"bytes32\"}],\"stateMutability\":\"view\",\"type\":\"function\"},{\"inputs\":[],\"name\":\"FREEZER_ROLE\",\"outputs\":[{\"internalType\":\"bytes32\",\"name\":\"\",\"type\":\"bytes32\"}],\"stateMutability\":\"view\",\"type\":\"function\"},{\"inputs\":[],\"name\":\"MINTER_ROLE\",\"outputs\":[{\"internalType\":\"bytes32\",\"name\":\"\",\"type\":\"bytes32\"}],\"stateMutability\":\"view\",\"type\":\"function\"},{\"inputs\":[],\"name\":\"PAUSER_ROLE\",\"outputs\":[{\"internalType\":\"bytes32\",\"name\":\"\",\"type\":\"bytes32\"}],\"stateMutability\":\"view\",\"type\":\"function\"},{\"inputs\":[],\"name\":\"TRADER_ROLE\",\"outputs\":[{\"internalType\":\"bytes32\",\"name\":\"\",\"type\":\"bytes32\"}],\"stateMutability\":\"view\",\"type\":\"function\"},{\"inputs\":[{\"internalType\":\"address\",\"name\":\"owner\",\"type\":\"address\"},{\"internalType\":\"address\",\"name\":\"spender\",\"type\":\"address\"}],\"name\":\"allowance\",\"outputs\":[{\"internalType\":\"uint256\",\"name\":\"\",\"type\":\"uint256\"}],\"stateMutability\":\"view\",\"type\":\"function\"},{\"inputs\":[{\"internalType\":\"address\",\"name\":\"spender\",\"type\":\"address\"},{\"internalType\":\"uint256\",\"name\":\"value\",\"type\":\"uint256\"}],\"name\":\"approve\",\"outputs\":[{\"internalType\":\"bool\",\"name\":\"\",\"type\":\"bool\"}],\"stateMutability\":\"nonpayable\",\"type\":\"function\"},{\"inputs\":[{\"internalType\":\"address\",\"name\":\"account\",\"type\":\"address\"}],\"name\":\"balanceOf\",\"outputs\":[{\"internalType\":\"uint256\",\"name\":\"\",\"type\":\"uint256\"}],\"stateMutability\":\"view\",\"type\":\"function\"},{\"inputs\":[],\"name\":\"decimals\",\"outputs\":[{\"internalType\":\"uint8\",\"name\":\"\",\"type\":\"uint8\"}],\"stateMutability\":\"view\",\"type\":\"function\"},{\"inputs\":[{\"internalType\":\"address\",\"name\":\"account\",\"type\":\"address\"}],\"name\":\"freezeWallet\",\"outputs\":[],\"stateMutability\":\"nonpayable\",\"type\":\"function\"},{\"inputs\":[{\"internalType\":\"bytes32\",\"name\":\"role\",\"type\":\"bytes32\"}],\"name\":\"getRoleAdmin\",\"outputs\":[{\"internalType\":\"bytes32\",\"name\":\"\",\"type\":\"bytes32\"}],\"stateMutability\":\"view\",\"type\":\"function\"},{\"inputs\":[{\"internalType\":\"bytes32\",\"name\":\"role\",\"type\":\"bytes32\"},{\"internalType\":\"address\",\"name\":\"account\",\"type\":\"address\"}],\"name\":\"grantRole\",\"outputs\":[],\"stateMutability\":\"nonpayable\",\"type\":\"function\"},{\"inputs\":[{\"internalType\":\"bytes32\",\"name\":\"role\",\"type\":\"bytes32\"},{\"internalType\":\"address\",\"name\":\"account\",\"type\":\"address\"}],\"name\":\"hasRole\",\"outputs\":[{\"internalType\":\"bool\",\"name\":\"\",\"type\":\"bool\"}],\"stateMutability\":\"view\",\"type\":\"function\"},{\"inputs\":[{\"internalType\":\"address\",\"name\":\"to\",\"type\":\"address\"},{\"internalType\":\"uint256\",\"name\":\"amount\",\"type\":\"uint256\"}],\"name\":\"mint\",\"outputs\":[],\"stateMutability\":\"nonpayable\",\"type\":\"function\"},{\"inputs\":[],\"name\":\"name\",\"outputs\":[{\"internalType\":\"string\",\"name\":\"\",\"type\":\"string\"}],\"stateMutability\":\"view\",\"type\":\"function\"},{\"inputs\":[],\"name\":\"pause\",\"outputs\":[],\"stateMutability\":\"nonpayable\",\"type\":\"function\"},{\"inputs\":[],\"name\":\"paused\",\"outputs\":[{\"internalType\":\"bool\",\"name\":\"\",\"type\":\"bool\"}],\"stateMutability\":\"view\",\"type\":\"function\"},{\"inputs\":[{\"internalType\":\"bytes32\",\"name\":\"role\",\"type\":\"bytes32\"},{\"internalType\":\"address\",\"name\":\"callerConfirmation\",\"type\":\"address\"}],\"name\":\"renounceRole\",\"outputs\":[],\"stateMutability\":\"nonpayable\",\"type\":\"function\"},{\"inputs\":[{\"internalType\":\"bytes32\",\"name\":\"role\",\"type\":\"bytes32\"},{\"internalType\":\"address\",\"name\":\"account\",\"type\":\"address\"}],\"name\":\"revokeRole\",\"outputs\":[],\"stateMutability\":\"nonpayable\",\"type\":\"function\"},{\"inputs\":[{\"internalType\":\"bytes4\",\"name\":\"interfaceId\",\"type\":\"bytes4\"}],\"name\":\"supportsInterface\",\"outputs\":[{\"internalType\":\"bool\",\"name\":\"\",\"type\":\"bool\"}],\"stateMutability\":\"view\",\"type\":\"function\"},{\"inputs\":[],\"name\":\"symbol\",\"outputs\":[{\"internalType\":\"string\",\"name\":\"\",\"type\":\"string\"}],\"stateMutability\":\"view\",\"type\":\"function\"},{\"inputs\":[],\"name\":\"totalSupply\",\"outputs\":[{\"internalType\":\"uint256\",\"name\":\"\",\"type\":\"uint256\"}],\"stateMutability\":\"view\",\"type\":\"function\"},{\"inputs\":[{\"internalType\":\"address\",\"name\":\"to\",\"type\":\"address\"},{\"internalType\":\"uint256\",\"name\":\"value\",\"type\":\"uint256\"}],\"name\":\"transfer\",\"outputs\":[{\"internalType\":\"bool\",\"name\":\"\",\"type\":\"bool\"}],\"stateMutability\":\"nonpayable\",\"type\":\"function\"},{\"inputs\":[{\"internalType\":\"address\",\"name\":\"from\",\"type\":\"address\"},{\"internalType\":\"address\",\"name\":\"to\",\"type\":\"address\"},{\"internalType\":\"uint256\",\"name\":\"value\",\"type\":\"uint256\"}],\"name\":\"transferFrom\",\"outputs\":[{\"internalType\":\"bool\",\"name\":\"\",\"type\":\"bool\"}],\"stateMutability\":\"nonpayable\",\"type\":\"function\"},{\"inputs\":[{\"internalType\":\"address\",\"name\":\"account\",\"type\":\"address\"}],\"name\":\"unfreezeWallet\",\"outputs\":[],\"stateMutability\":\"nonpayable\",\"type\":\"function\"},{\"inputs\":[],\"name\":\"unpause\",\"outputs\":[],\"stateMutability\":\"nonpayable\",\"type\":\"function\"}]);\nvar rinanze = rinanzeContract.deploy({\n     data: '0x608060405234801561000f575f5ffd5b506040518060400160405280600781526020017f52494e414e5a45000000000000000000000000000000000000000000000000008152506040518060400160405280600381526020017f52494e0000000000000000000000000000000000000000000000000000000000815250816003908161008b9190610529565b50806004908161009b9190610529565b5050506100b05f5f1b3361017a60201b60201c565b506100e17f9f2df0fed2c77648de5860a4cc508cd0818c85b8b8a1ab4ceeef8d981c8956a63361017a60201b60201c565b506101127f92de27771f92d6942691d73358b3a4673e4880de8356f8f2cf452be87e02d3633361017a60201b60201c565b506101437f65d7a28e3265b37a6474929f336521b332c1681b933f6cb9f3376673440d862a3361017a60201b60201c565b506101747ffacaf2747a7486cf5730e9265973fb54447d3ace6e7e4711f6360826b07319413361017a60201b60201c565b506105f8565b5f61018b838361027060201b60201c565b61026657600160065f8581526020019081526020015f205f015f8473ffffffffffffffffffffffffffffffffffffffff1673ffffffffffffffffffffffffffffffffffffffff1681526020019081526020015f205f6101000a81548160ff0219169083151502179055506102036102d460201b60201c565b73ffffffffffffffffffffffffffffffffffffffff168273ffffffffffffffffffffffffffffffffffffffff16847f2f8788117e7eff1d82e926ec794901d17c78024a50270940304540a733656f0d60405160405180910390a46001905061026a565b5f90505b92915050565b5f60065f8481526020019081526020015f205f015f8373ffffffffffffffffffffffffffffffffffffffff1673ffffffffffffffffffffffffffffffffffffffff1681526020019081526020015f205f9054906101000a900460ff16905092915050565b5f33905090565b5f81519050919050565b7f4e487b71000000000000000000000000000000000000000000000000000000005f52604160045260245ffd5b7f4e487b71000000000000000000000000000000000000000000000000000000005f52602260045260245ffd5b5f600282049050600182168061035657607f821691505b60208210810361036957610368610312565b5b50919050565b5f819050815f5260205f209050919050565b5f6020601f8301049050919050565b5f82821b905092915050565b5f600883026103cb7fffffffffffffffffffffffffffffffffffffffffffffffffffffffffffffffff82610390565b6103d58683610390565b95508019841693508086168417925050509392505050565b5f819050919050565b5f819050919050565b5f61041961041461040f846103ed565b6103f6565b6103ed565b9050919050565b5f819050919050565b610432836103ff565b61044661043e82610420565b84845461039c565b825550505050565b5f5f905090565b61045d61044e565b610468818484610429565b505050565b5f5b8281101561048e576104835f828401610455565b60018101905061046f565b505050565b601f8211156104e157828211156104e0576104ad8161036f565b6104b683610381565b6104bf85610381565b60208610156104cc575f90505b8083016104db8284038261046d565b505050505b5b505050565b5f82821c905092915050565b5f6105015f19846008026104e6565b1980831691505092915050565b5f61051983836104f2565b9150826002028217905092915050565b610532826102db565b67ffffffffffffffff81111561054b5761054a6102e5565b5b610555825461033f565b610560828285610493565b5f60209050601f831160018114610591575f841561057f578287015190505b610589858261050e565b8655506105f0565b601f19841661059f8661036f565b5f5b828110156105c6578489015182556001820191506020850194506020810190506105a1565b868310156105e357848901516105df601f8916826104f2565b8355505b6001600288020188555050505b505050505050565b612123806106055f395ff3fe608060405234801561000f575f5ffd5b506004361061018c575f3560e01c806360f588b7116100dc578063a217fddf11610095578063d547741f1161006f578063d547741f14610470578063dd62ed3e1461048c578063e63ab1e9146104bc578063f0a56fc8146104da5761018c565b8063a217fddf14610404578063a9059cbb14610422578063d5391393146104525761018c565b806360f588b71461034457806370a08231146103605780638456cb591461039057806391d148541461039a57806395d89b41146103ca5780639f001169146103e85761018c565b8063248a9ca31161014957806336568abe1161012357806336568abe146102e45780633f4ba83a1461030057806340c10f191461030a5780635c975abb146103265761018c565b8063248a9ca31461027a5780632f2ff15d146102aa578063313ce567146102c65761018c565b806301ffc9a71461019057806306a85f0f146101c057806306fdde03146101de578063095ea7b3146101fc57806318160ddd1461022c57806323b872dd1461024a575b5f5ffd5b6101aa60048036038101906101a591906119ec565b6104f8565b6040516101b79190611a31565b60405180910390f35b6101c8610571565b6040516101d59190611a62565b60405180910390f35b6101e6610595565b6040516101f39190611aeb565b60405180910390f35b61021660048036038101906102119190611b98565b610625565b6040516102239190611a31565b60405180910390f35b610234610647565b6040516102419190611be5565b60405180910390f35b610264600480360381019061025f9190611bfe565b610650565b6040516102719190611a31565b60405180910390f35b610294600480360381019061028f9190611c78565b61067e565b6040516102a19190611a62565b60405180910390f35b6102c460048036038101906102bf9190611ca3565b61069b565b005b6102ce6106bd565b6040516102db9190611cfc565b60405180910390f35b6102fe60048036038101906102f99190611ca3565b6106c5565b005b610308610740565b005b610324600480360381019061031f9190611b98565b610775565b005b61032e6107fc565b60405161033b9190611a31565b60405180910390f35b61035e60048036038101906103599190611d15565b610811565b005b61037a60048036038101906103759190611d15565b61095f565b6040516103879190611be5565b60405180910390f35b6103986109a4565b005b6103b460048036038101906103af9190611ca3565b6109d9565b6040516103c19190611a31565b60405180910390f35b6103d2610a3d565b6040516103df9190611aeb565b60405180910390f35b61040260048036038101906103fd9190611d15565b610acd565b005b61040c610c1d565b6040516104199190611a62565b60405180910390f35b61043c60048036038101906104379190611b98565b610c23565b6040516104499190611a31565b60405180910390f35b61045a610c45565b6040516104679190611a62565b60405180910390f35b61048a60048036038101906104859190611ca3565b610c69565b005b6104a660048036038101906104a19190611d40565b610c8b565b6040516104b39190611be5565b60405180910390f35b6104c4610d0d565b6040516104d19190611a62565b60405180910390f35b6104e2610d31565b6040516104ef9190611a62565b60405180910390f35b5f7f7965db0b000000000000000000000000000000000000000000000000000000007bffffffffffffffffffffffffffffffffffffffffffffffffffffffff1916827bffffffffffffffffffffffffffffffffffffffffffffffffffffffff1916148061056a575061056982610d55565b5b9050919050565b7f92de27771f92d6942691d73358b3a4673e4880de8356f8f2cf452be87e02d36381565b6060600380546105a490611dab565b80601f01602080910402602001604051908101604052809291908181526020018280546105d090611dab565b801561061b5780601f106105f25761010080835404028352916020019161061b565b820191905f5260205f20905b8154815290600101906020018083116105fe57829003601f168201915b5050505050905090565b5f5f61062f610dbe565b905061063c818585610dc5565b600191505092915050565b5f600254905090565b5f5f61065a610dbe565b9050610667858285610dd7565b610672858585610e6a565b60019150509392505050565b5f60065f8381526020019081526020015f20600101549050919050565b6106a48261067e565b6106ad81610f5a565b6106b78383610f6e565b50505050565b5f6012905090565b6106cd610dbe565b73ffffffffffffffffffffffffffffffffffffffff168173ffffffffffffffffffffffffffffffffffffffff1614610731576040517f6697b23200000000000000000000000000000000000000000000000000000000815260040160405180910390fd5b61073b8282611058565b505050565b7f65d7a28e3265b37a6474929f336521b332c1681b933f6cb9f3376673440d862a61076a81610f5a565b610772611142565b50565b7f9f2df0fed2c77648de5860a4cc508cd0818c85b8b8a1ab4ceeef8d981c8956a661079f81610f5a565b6107a983836111a3565b8273ffffffffffffffffffffffffffffffffffffffff167f30385c845b448a36257a6a1716e6ad2e1bc2cbe333cde1e69fe849ad6511adfe836040516107ef9190611be5565b60405180910390a2505050565b5f60055f9054906101000a900460ff16905090565b7f92de27771f92d6942691d73358b3a4673e4880de8356f8f2cf452be87e02d36361083b81610f5a565b60075f8373ffffffffffffffffffffffffffffffffffffffff1673ffffffffffffffffffffffffffffffffffffffff1681526020019081526020015f205f9054906101000a900460ff166108c4576040517f08c379a00000000000000000000000000000000000000000000000000000000081526004016108bb90611e25565b60405180910390fd5b5f60075f8473ffffffffffffffffffffffffffffffffffffffff1673ffffffffffffffffffffffffffffffffffffffff1681526020019081526020015f205f6101000a81548160ff0219169083151502179055508173ffffffffffffffffffffffffffffffffffffffff167fd247131fabb99dc3ba793524f53f05a77eeef38f12b30119655ee340810b121060405160405180910390a25050565b5f5f5f8373ffffffffffffffffffffffffffffffffffffffff1673ffffffffffffffffffffffffffffffffffffffff1681526020019081526020015f20549050919050565b7f65d7a28e3265b37a6474929f336521b332c1681b933f6cb9f3376673440d862a6109ce81610f5a565b6109d6611222565b50565b5f60065f8481526020019081526020015f205f015f8373ffffffffffffffffffffffffffffffffffffffff1673ffffffffffffffffffffffffffffffffffffffff1681526020019081526020015f205f9054906101000a900460ff16905092915050565b606060048054610a4c90611dab565b80601f0160208091040260200160405190810160405280929190818152602001828054610a7890611dab565b8015610ac35780601f10610a9a57610100808354040283529160200191610ac3565b820191905f5260205f20905b815481529060010190602001808311610aa657829003601f168201915b5050505050905090565b7f92de27771f92d6942691d73358b3a4673e4880de8356f8f2cf452be87e02d363610af781610f5a565b60075f8373ffffffffffffffffffffffffffffffffffffffff1673ffffffffffffffffffffffffffffffffffffffff1681526020019081526020015f205f9054906101000a900460ff1615610b81576040517f08c379a0000000000000000000000000000000000000000000000000000000008152600401610b7890611e8d565b60405180910390fd5b600160075f8473ffffffffffffffffffffffffffffffffffffffff1673ffffffffffffffffffffffffffffffffffffffff1681526020019081526020015f205f6101000a81548160ff0219169083151502179055508173ffffffffffffffffffffffffffffffffffffffff167fc9710d20bdbf99ca92a03644a5a8f85ea6badb387ff0abca08eebdfbff50b77f60405160405180910390a25050565b5f5f1b81565b5f5f610c2d610dbe565b9050610c3a818585610e6a565b600191505092915050565b7f9f2df0fed2c77648de5860a4cc508cd0818c85b8b8a1ab4ceeef8d981c8956a681565b610c728261067e565b610c7b81610f5a565b610c858383611058565b50505050565b5f60015f8473ffffffffffffffffffffffffffffffffffffffff1673ffffffffffffffffffffffffffffffffffffffff1681526020019081526020015f205f8373ffffffffffffffffffffffffffffffffffffffff1673ffffffffffffffffffffffffffffffffffffffff1681526020019081526020015f2054905092915050565b7f65d7a28e3265b37a6474929f336521b332c1681b933f6cb9f3376673440d862a81565b7ffacaf2747a7486cf5730e9265973fb54447d3ace6e7e4711f6360826b073194181565b5f7f01ffc9a7000000000000000000000000000000000000000000000000000000007bffffffffffffffffffffffffffffffffffffffffffffffffffffffff1916827bffffffffffffffffffffffffffffffffffffffffffffffffffffffff1916149050919050565b5f33905090565b610dd28383836001611284565b505050565b5f610de28484610c8b565b90507fffffffffffffffffffffffffffffffffffffffffffffffffffffffffffffffff811015610e645781811015610e55578281836040517ffb8f41b2000000000000000000000000000000000000000000000000000000008152600401610e4c93929190611eba565b60405180910390fd5b610e6384848484035f611284565b5b50505050565b5f73ffffffffffffffffffffffffffffffffffffffff168373ffffffffffffffffffffffffffffffffffffffff1603610eda575f6040517f96c6fd1e000000000000000000000000000000000000000000000000000000008152600401610ed19190611eef565b60405180910390fd5b5f73ffffffffffffffffffffffffffffffffffffffff168273ffffffffffffffffffffffffffffffffffffffff1603610f4a575f6040517fec442f05000000000000000000000000000000000000000000000000000000008152600401610f419190611eef565b60405180910390fd5b610f55838383611453565b505050565b610f6b81610f66610dbe565b611690565b50565b5f610f7983836109d9565b61104e57600160065f8581526020019081526020015f205f015f8473ffffffffffffffffffffffffffffffffffffffff1673ffffffffffffffffffffffffffffffffffffffff1681526020019081526020015f205f6101000a81548160ff021916908315150217905550610feb610dbe565b73ffffffffffffffffffffffffffffffffffffffff168273ffffffffffffffffffffffffffffffffffffffff16847f2f8788117e7eff1d82e926ec794901d17c78024a50270940304540a733656f0d60405160405180910390a460019050611052565b5f90505b92915050565b5f61106383836109d9565b15611138575f60065f8581526020019081526020015f205f015f8473ffffffffffffffffffffffffffffffffffffffff1673ffffffffffffffffffffffffffffffffffffffff1681526020019081526020015f205f6101000a81548160ff0219169083151502179055506110d5610dbe565b73ffffffffffffffffffffffffffffffffffffffff168273ffffffffffffffffffffffffffffffffffffffff16847ff6391f5c32d9c69d2a47ea670b442974b53935d1edc7fd64eb21e047a839171b60405160405180910390a46001905061113c565b5f90505b92915050565b61114a6116e1565b5f60055f6101000a81548160ff0219169083151502179055507f5db9ee0a495bf2e6ff9c91a7834c1ba4fdd244a5e8aa4e537bd38aeae4b073aa61118c610dbe565b6040516111999190611eef565b60405180910390a1565b5f73ffffffffffffffffffffffffffffffffffffffff168273ffffffffffffffffffffffffffffffffffffffff1603611213575f6040517fec442f0500000000000000000000000000000000000000000000000000000000815260040161120a9190611eef565b60405180910390fd5b61121e5f8383611453565b5050565b61122a611721565b600160055f6101000a81548160ff0219169083151502179055507f62e78cea01bee320cd4e420270b5ea74000d11b0c9f74754ebdbfc544b05a25861126d610dbe565b60405161127a9190611eef565b60405180910390a1565b5f73ffffffffffffffffffffffffffffffffffffffff168473ffffffffffffffffffffffffffffffffffffffff16036112f4575f6040517fe602df050000000000000000000000000000000000000000000000000000000081526004016112eb9190611eef565b60405180910390fd5b5f73ffffffffffffffffffffffffffffffffffffffff168373ffffffffffffffffffffffffffffffffffffffff1603611364575f6040517f94280d6200000000000000000000000000000000000000000000000000000000815260040161135b9190611eef565b60405180910390fd5b8160015f8673ffffffffffffffffffffffffffffffffffffffff1673ffffffffffffffffffffffffffffffffffffffff1681526020019081526020015f205f8573ffffffffffffffffffffffffffffffffffffffff1673ffffffffffffffffffffffffffffffffffffffff1681526020019081526020015f2081905550801561144d578273ffffffffffffffffffffffffffffffffffffffff168473ffffffffffffffffffffffffffffffffffffffff167f8c5be1e5ebec7d5bd14f71427d1e84f3dd0314c0f7b2291e5b200ac8c7c3b925846040516114449190611be5565b60405180910390a35b50505050565b60075f8473ffffffffffffffffffffffffffffffffffffffff1673ffffffffffffffffffffffffffffffffffffffff1681526020019081526020015f205f9054906101000a900460ff161580156114f1575060075f8373ffffffffffffffffffffffffffffffffffffffff1673ffffffffffffffffffffffffffffffffffffffff1681526020019081526020015f205f9054906101000a900460ff16155b611530576040517f08c379a000000000000000000000000000000000000000000000000000000000815260040161152790611f52565b60405180910390fd5b5f73ffffffffffffffffffffffffffffffffffffffff168373ffffffffffffffffffffffffffffffffffffffff161415801561159857505f73ffffffffffffffffffffffffffffffffffffffff168273ffffffffffffffffffffffffffffffffffffffff1614155b15611680576115c77ffacaf2747a7486cf5730e9265973fb54447d3ace6e7e4711f6360826b0731941846109d9565b611606576040517f08c379a00000000000000000000000000000000000000000000000000000000081526004016115fd90611fba565b60405180910390fd5b6116307ffacaf2747a7486cf5730e9265973fb54447d3ace6e7e4711f6360826b0731941836109d9565b61167f575f61163e8361095f565b1461167e576040517f08c379a000000000000000000000000000000000000000000000000000000000815260040161167590612048565b60405180910390fd5b5b5b61168b838383611762565b505050565b61169a82826109d9565b6116dd5780826040517fe2517d3f0000000000000000000000000000000000000000000000000000000081526004016116d4929190612066565b60405180910390fd5b5050565b6116e96107fc565b61171f576040517f8dfc202b00000000000000000000000000000000000000000000000000000000815260040160405180910390fd5b565b6117296107fc565b15611760576040517fd93c066500000000000000000000000000000000000000000000000000000000815260040160405180910390fd5b565b61176a611721565b61177583838361177a565b505050565b5f73ffffffffffffffffffffffffffffffffffffffff168373ffffffffffffffffffffffffffffffffffffffff16036117ca578060025f8282546117be91906120ba565b92505081905550611898565b5f5f5f8573ffffffffffffffffffffffffffffffffffffffff1673ffffffffffffffffffffffffffffffffffffffff1681526020019081526020015f2054905081811015611853578381836040517fe450d38c00000000000000000000000000000000000000000000000000000000815260040161184a93929190611eba565b60405180910390fd5b8181035f5f8673ffffffffffffffffffffffffffffffffffffffff1673ffffffffffffffffffffffffffffffffffffffff1681526020019081526020015f2081905550505b5f73ffffffffffffffffffffffffffffffffffffffff168273ffffffffffffffffffffffffffffffffffffffff16036118df578060025f8282540392505081905550611929565b805f5f8473ffffffffffffffffffffffffffffffffffffffff1673ffffffffffffffffffffffffffffffffffffffff1681526020019081526020015f205f82825401925050819055505b8173ffffffffffffffffffffffffffffffffffffffff168373ffffffffffffffffffffffffffffffffffffffff167fddf252ad1be2c89b69c2b068fc378daa952ba7f163c4a11628f55a4df523b3ef836040516119869190611be5565b60405180910390a3505050565b5f5ffd5b5f7fffffffff0000000000000000000000000000000000000000000000000000000082169050919050565b6119cb81611997565b81146119d5575f5ffd5b50565b5f813590506119e6816119c2565b92915050565b5f60208284031215611a0157611a00611993565b5b5f611a0e848285016119d8565b91505092915050565b5f8115159050919050565b611a2b81611a17565b82525050565b5f602082019050611a445f830184611a22565b92915050565b5f819050919050565b611a5c81611a4a565b82525050565b5f602082019050611a755f830184611a53565b92915050565b5f81519050919050565b5f82825260208201905092915050565b8281835e5f83830152505050565b5f601f19601f8301169050919050565b5f611abd82611a7b565b611ac78185611a85565b9350611ad7818560208601611a95565b611ae081611aa3565b840191505092915050565b5f6020820190508181035f830152611b038184611ab3565b905092915050565b5f73ffffffffffffffffffffffffffffffffffffffff82169050919050565b5f611b3482611b0b565b9050919050565b611b4481611b2a565b8114611b4e575f5ffd5b50565b5f81359050611b5f81611b3b565b92915050565b5f819050919050565b611b7781611b65565b8114611b81575f5ffd5b50565b5f81359050611b9281611b6e565b92915050565b5f5f60408385031215611bae57611bad611993565b5b5f611bbb85828601611b51565b9250506020611bcc85828601611b84565b9150509250929050565b611bdf81611b65565b82525050565b5f602082019050611bf85f830184611bd6565b92915050565b5f5f5f60608486031215611c1557611c14611993565b5b5f611c2286828701611b51565b9350506020611c3386828701611b51565b9250506040611c4486828701611b84565b9150509250925092565b611c5781611a4a565b8114611c61575f5ffd5b50565b5f81359050611c7281611c4e565b92915050565b5f60208284031215611c8d57611c8c611993565b5b5f611c9a84828501611c64565b91505092915050565b5f5f60408385031215611cb957611cb8611993565b5b5f611cc685828601611c64565b9250506020611cd785828601611b51565b9150509250929050565b5f60ff82169050919050565b611cf681611ce1565b82525050565b5f602082019050611d0f5f830184611ced565b92915050565b5f60208284031215611d2a57611d29611993565b5b5f611d3784828501611b51565b91505092915050565b5f5f60408385031215611d5657611d55611993565b5b5f611d6385828601611b51565b9250506020611d7485828601611b51565b9150509250929050565b7f4e487b71000000000000000000000000000000000000000000000000000000005f52602260045260245ffd5b5f6002820490506001821680611dc257607f821691505b602082108103611dd557611dd4611d7e565b5b50919050565b7f4e6f742066726f7a656e000000000000000000000000000000000000000000005f82015250565b5f611e0f600a83611a85565b9150611e1a82611ddb565b602082019050919050565b5f6020820190508181035f830152611e3c81611e03565b9050919050565b7f416c72656164792066726f7a656e0000000000000000000000000000000000005f82015250565b5f611e77600e83611a85565b9150611e8282611e43565b602082019050919050565b5f6020820190508181035f830152611ea481611e6b565b9050919050565b611eb481611b2a565b82525050565b5f606082019050611ecd5f830186611eab565b611eda6020830185611bd6565b611ee76040830184611bd6565b949350505050565b5f602082019050611f025f830184611eab565b92915050565b7f57616c6c65742069732066726f7a656e000000000000000000000000000000005f82015250565b5f611f3c601083611a85565b9150611f4782611f08565b602082019050919050565b5f6020820190508181035f830152611f6981611f30565b9050919050565b7f53656e646572206c61636b73205452414445525f524f4c4500000000000000005f82015250565b5f611fa4601883611a85565b9150611faf82611f70565b602082019050919050565b5f6020820190508181035f830152611fd181611f98565b9050919050565b7f5265636569766572206861732062616c616e636520627574206c61636b7320545f8201527f52414445525f524f4c4500000000000000000000000000000000000000000000602082015250565b5f612032602a83611a85565b915061203d82611fd8565b604082019050919050565b5f6020820190508181035f83015261205f81612026565b9050919050565b5f6040820190506120795f830185611eab565b6120866020830184611a53565b9392505050565b7f4e487b71000000000000000000000000000000000000000000000000000000005f52601160045260245ffd5b5f6120c482611b65565b91506120cf83611b65565b92508282019050808211156120e7576120e661208d565b5b9291505056fea26469706673582212204f6cc2974cfd5e7f59459701f8453580e48c7fcc3e02a8f3f2980201b40fdbe264736f6c63430008220033', \n     arguments: [\n     ]\n}).send({\n     from: web3.eth.accounts[0], \n     gas: '4700000'\n   }, function (e, contract){\n    console.log(e, contract);\n    if (typeof contract.address !== 'undefined') {\n         console.log('Contract mined! address: ' + contract.address + ' transactionHash: ' + contract.transactionHash);\n    }\n })",
	"functionHashes": {
		"a217fddf": "DEFAULT_ADMIN_ROLE()",
		"06a85f0f": "FREEZER_ROLE()",
		"d5391393": "MINTER_ROLE()",
		"e63ab1e9": "PAUSER_ROLE()",
		"f0a56fc8": "TRADER_ROLE()",
		"dd62ed3e": "allowance(address,address)",
		"095ea7b3": "approve(address,uint256)",
		"70a08231": "balanceOf(address)",
		"313ce567": "decimals()",
		"9f001169": "freezeWallet(address)",
		"248a9ca3": "getRoleAdmin(bytes32)",
		"2f2ff15d": "grantRole(bytes32,address)",
		"91d14854": "hasRole(bytes32,address)",
		"40c10f19": "mint(address,uint256)",
		"06fdde03": "name()",
		"8456cb59": "pause()",
		"5c975abb": "paused()",
		"36568abe": "renounceRole(bytes32,address)",
		"d547741f": "revokeRole(bytes32,address)",
		"01ffc9a7": "supportsInterface(bytes4)",
		"95d89b41": "symbol()",
		"18160ddd": "totalSupply()",
		"a9059cbb": "transfer(address,uint256)",
		"23b872dd": "transferFrom(address,address,uint256)",
		"60f588b7": "unfreezeWallet(address)",
		"3f4ba83a": "unpause()"
	},
	"gasEstimates": {
		"Creation": {
			"codeDepositCost": "1696600",
			"executionCost": "infinite",
			"totalCost": "infinite"
		},
		"External": {
			"DEFAULT_ADMIN_ROLE()": "374",
			"FREEZER_ROLE()": "371",
			"MINTER_ROLE()": "414",
			"PAUSER_ROLE()": "413",
			"TRADER_ROLE()": "435",
			"allowance(address,address)": "infinite",
			"approve(address,uint256)": "infinite",
			"balanceOf(address)": "2873",
			"decimals()": "428",
			"freezeWallet(address)": "infinite",
			"getRoleAdmin(bytes32)": "infinite",
			"grantRole(bytes32,address)": "infinite",
			"hasRole(bytes32,address)": "3210",
			"mint(address,uint256)": "infinite",
			"name()": "infinite",
			"pause()": "infinite",
			"paused()": "2584",
			"renounceRole(bytes32,address)": "infinite",
			"revokeRole(bytes32,address)": "infinite",
			"supportsInterface(bytes4)": "741",
			"symbol()": "infinite",
			"totalSupply()": "2544",
			"transfer(address,uint256)": "infinite",
			"transferFrom(address,address,uint256)": "infinite",
			"unfreezeWallet(address)": "infinite",
			"unpause()": "infinite"
		},
		"Internal": {
			"_update(address,address,uint256)": "infinite"
		}
	},
	"devdoc": {
		"errors": {
			"AccessControlBadConfirmation()": [
				{
					"details": "The caller of a function is not the expected one. NOTE: Don't confuse with {AccessControlUnauthorizedAccount}."
				}
			],
			"AccessControlUnauthorizedAccount(address,bytes32)": [
				{
					"details": "The `account` is missing a role."
				}
			],
			"ERC20InsufficientAllowance(address,uint256,uint256)": [
				{
					"details": "Indicates a failure with the `spender`’s `allowance`. Used in transfers.",
					"params": {
						"allowance": "Amount of tokens a `spender` is allowed to operate with.",
						"needed": "Minimum amount required to perform a transfer.",
						"spender": "Address that may be allowed to operate on tokens without being their owner."
					}
				}
			],
			"ERC20InsufficientBalance(address,uint256,uint256)": [
				{
					"details": "Indicates an error related to the current `balance` of a `sender`. Used in transfers.",
					"params": {
						"balance": "Current balance for the interacting account.",
						"needed": "Minimum amount required to perform a transfer.",
						"sender": "Address whose tokens are being transferred."
					}
				}
			],
			"ERC20InvalidApprover(address)": [
				{
					"details": "Indicates a failure with the `approver` of a token to be approved. Used in approvals.",
					"params": {
						"approver": "Address initiating an approval operation."
					}
				}
			],
			"ERC20InvalidReceiver(address)": [
				{
					"details": "Indicates a failure with the token `receiver`. Used in transfers.",
					"params": {
						"receiver": "Address to which tokens are being transferred."
					}
				}
			],
			"ERC20InvalidSender(address)": [
				{
					"details": "Indicates a failure with the token `sender`. Used in transfers.",
					"params": {
						"sender": "Address whose tokens are being transferred."
					}
				}
			],
			"ERC20InvalidSpender(address)": [
				{
					"details": "Indicates a failure with the `spender` to be approved. Used in approvals.",
					"params": {
						"spender": "Address that may be allowed to operate on tokens without being their owner."
					}
				}
			],
			"EnforcedPause()": [
				{
					"details": "The operation failed because the contract is paused."
				}
			],
			"ExpectedPause()": [
				{
					"details": "The operation failed because the contract is not paused."
				}
			]
		},
		"events": {
			"Approval(address,address,uint256)": {
				"details": "Emitted when the allowance of a `spender` for an `owner` is set by a call to {approve}. `value` is the new allowance."
			},
			"Paused(address)": {
				"details": "Emitted when the pause is triggered by `account`."
			},
			"RoleAdminChanged(bytes32,bytes32,bytes32)": {
				"details": "Emitted when `newAdminRole` is set as ``role``'s admin role, replacing `previousAdminRole` `DEFAULT_ADMIN_ROLE` is the starting admin for all roles, despite {RoleAdminChanged} not being emitted to signal this."
			},
			"RoleGranted(bytes32,address,address)": {
				"details": "Emitted when `account` is granted `role`. `sender` is the account that originated the contract call. This account bears the admin role (for the granted role). Expected in cases where the role was granted using the internal {AccessControl-_grantRole}."
			},
			"RoleRevoked(bytes32,address,address)": {
				"details": "Emitted when `account` is revoked `role`. `sender` is the account that originated the contract call:   - if using `revokeRole`, it is the admin role bearer   - if using `renounceRole`, it is the role bearer (i.e. `account`)"
			},
			"Transfer(address,address,uint256)": {
				"details": "Emitted when `value` tokens are moved from one account (`from`) to another (`to`). Note that `value` may be zero."
			},
			"Unpaused(address)": {
				"details": "Emitted when the pause is lifted by `account`."
			}
		},
		"kind": "dev",
		"methods": {
			"allowance(address,address)": {
				"details": "Returns the remaining number of tokens that `spender` will be allowed to spend on behalf of `owner` through {transferFrom}. This is zero by default. This value changes when {approve} or {transferFrom} are called."
			},
			"approve(address,uint256)": {
				"details": "See {IERC20-approve}. NOTE: If `value` is the maximum `uint256`, the allowance is not updated on `transferFrom`. This is semantically equivalent to an infinite approval. Requirements: - `spender` cannot be the zero address."
			},
			"balanceOf(address)": {
				"details": "Returns the value of tokens owned by `account`."
			},
			"decimals()": {
				"details": "Returns the number of decimals used to get its user representation. For example, if `decimals` equals `2`, a balance of `505` tokens should be displayed to a user as `5.05` (`505 / 10 ** 2`). Tokens usually opt for a value of 18, imitating the relationship between Ether and Wei. This is the default value returned by this function, unless it's overridden. NOTE: This information is only used for _display_ purposes: it in no way affects any of the arithmetic of the contract, including {IERC20-balanceOf} and {IERC20-transfer}."
			},
			"getRoleAdmin(bytes32)": {
				"details": "Returns the admin role that controls `role`. See {grantRole} and {revokeRole}. To change a role's admin, use {_setRoleAdmin}."
			},
			"grantRole(bytes32,address)": {
				"details": "Grants `role` to `account`. If `account` had not been already granted `role`, emits a {RoleGranted} event. Requirements: - the caller must have ``role``'s admin role. May emit a {RoleGranted} event."
			},
			"hasRole(bytes32,address)": {
				"details": "Returns `true` if `account` has been granted `role`."
			},
			"name()": {
				"details": "Returns the name of the token."
			},
			"paused()": {
				"details": "Returns true if the contract is paused, and false otherwise."
			},
			"renounceRole(bytes32,address)": {
				"details": "Revokes `role` from the calling account. Roles are often managed via {grantRole} and {revokeRole}: this function's purpose is to provide a mechanism for accounts to lose their privileges if they are compromised (such as when a trusted device is misplaced). If the calling account had been revoked `role`, emits a {RoleRevoked} event. Requirements: - the caller must be `callerConfirmation`. May emit a {RoleRevoked} event."
			},
			"revokeRole(bytes32,address)": {
				"details": "Revokes `role` from `account`. If `account` had been granted `role`, emits a {RoleRevoked} event. Requirements: - the caller must have ``role``'s admin role. May emit a {RoleRevoked} event."
			},
			"supportsInterface(bytes4)": {
				"details": "Returns true if this contract implements the interface defined by `interfaceId`. See the corresponding https://eips.ethereum.org/EIPS/eip-165#how-interfaces-are-identified[ERC section] to learn more about how these ids are created. This function call must use less than 30 000 gas."
			},
			"symbol()": {
				"details": "Returns the symbol of the token, usually a shorter version of the name."
			},
			"totalSupply()": {
				"details": "Returns the value of tokens in existence."
			},
			"transfer(address,uint256)": {
				"details": "See {IERC20-transfer}. Requirements: - `to` cannot be the zero address. - the caller must have a balance of at least `value`."
			},
			"transferFrom(address,address,uint256)": {
				"details": "See {IERC20-transferFrom}. Skips emitting an {Approval} event indicating an allowance update. This is not required by the ERC. See {xref-ERC20-_approve-address-address-uint256-bool-}[_approve]. NOTE: Does not update the allowance if the current allowance is the maximum `uint256`. Requirements: - `from` and `to` cannot be the zero address. - `from` must have a balance of at least `value`. - the caller must have allowance for ``from``'s tokens of at least `value`."
			}
		},
		"version": 1
	},
	"userdoc": {
		"kind": "user",
		"methods": {},
		"version": 1
	},
	"Runtime Bytecode": {
		"immutableReferences": {},
		"linkReferences": {},
		"object": "608060405234801561000f575f5ffd5b506004361061018c575f3560e01c806360f588b7116100dc578063a217fddf11610095578063d547741f1161006f578063d547741f14610470578063dd62ed3e1461048c578063e63ab1e9146104bc578063f0a56fc8146104da5761018c565b8063a217fddf14610404578063a9059cbb14610422578063d5391393146104525761018c565b806360f588b71461034457806370a08231146103605780638456cb591461039057806391d148541461039a57806395d89b41146103ca5780639f001169146103e85761018c565b8063248a9ca31161014957806336568abe1161012357806336568abe146102e45780633f4ba83a1461030057806340c10f191461030a5780635c975abb146103265761018c565b8063248a9ca31461027a5780632f2ff15d146102aa578063313ce567146102c65761018c565b806301ffc9a71461019057806306a85f0f146101c057806306fdde03146101de578063095ea7b3146101fc57806318160ddd1461022c57806323b872dd1461024a575b5f5ffd5b6101aa60048036038101906101a591906119ec565b6104f8565b6040516101b79190611a31565b60405180910390f35b6101c8610571565b6040516101d59190611a62565b60405180910390f35b6101e6610595565b6040516101f39190611aeb565b60405180910390f35b61021660048036038101906102119190611b98565b610625565b6040516102239190611a31565b60405180910390f35b610234610647565b6040516102419190611be5565b60405180910390f35b610264600480360381019061025f9190611bfe565b610650565b6040516102719190611a31565b60405180910390f35b610294600480360381019061028f9190611c78565b61067e565b6040516102a19190611a62565b60405180910390f35b6102c460048036038101906102bf9190611ca3565b61069b565b005b6102ce6106bd565b6040516102db9190611cfc565b60405180910390f35b6102fe60048036038101906102f99190611ca3565b6106c5565b005b610308610740565b005b610324600480360381019061031f9190611b98565b610775565b005b61032e6107fc565b60405161033b9190611a31565b60405180910390f35b61035e60048036038101906103599190611d15565b610811565b005b61037a60048036038101906103759190611d15565b61095f565b6040516103879190611be5565b60405180910390f35b6103986109a4565b005b6103b460048036038101906103af9190611ca3565b6109d9565b6040516103c19190611a31565b60405180910390f35b6103d2610a3d565b6040516103df9190611aeb565b60405180910390f35b61040260048036038101906103fd9190611d15565b610acd565b005b61040c610c1d565b6040516104199190611a62565b60405180910390f35b61043c60048036038101906104379190611b98565b610c23565b6040516104499190611a31565b60405180910390f35b61045a610c45565b6040516104679190611a62565b60405180910390f35b61048a60048036038101906104859190611ca3565b610c69565b005b6104a660048036038101906104a19190611d40565b610c8b565b6040516104b39190611be5565b60405180910390f35b6104c4610d0d565b6040516104d19190611a62565b60405180910390f35b6104e2610d31565b6040516104ef9190611a62565b60405180910390f35b5f7f7965db0b000000000000000000000000000000000000000000000000000000007bffffffffffffffffffffffffffffffffffffffffffffffffffffffff1916827bffffffffffffffffffffffffffffffffffffffffffffffffffffffff1916148061056a575061056982610d55565b5b9050919050565b7f92de27771f92d6942691d73358b3a4673e4880de8356f8f2cf452be87e02d36381565b6060600380546105a490611dab565b80601f01602080910402602001604051908101604052809291908181526020018280546105d090611dab565b801561061b5780601f106105f25761010080835404028352916020019161061b565b820191905f5260205f20905b8154815290600101906020018083116105fe57829003601f168201915b5050505050905090565b5f5f61062f610dbe565b905061063c818585610dc5565b600191505092915050565b5f600254905090565b5f5f61065a610dbe565b9050610667858285610dd7565b610672858585610e6a565b60019150509392505050565b5f60065f8381526020019081526020015f20600101549050919050565b6106a48261067e565b6106ad81610f5a565b6106b78383610f6e565b50505050565b5f6012905090565b6106cd610dbe565b73ffffffffffffffffffffffffffffffffffffffff168173ffffffffffffffffffffffffffffffffffffffff1614610731576040517f6697b23200000000000000000000000000000000000000000000000000000000815260040160405180910390fd5b61073b8282611058565b505050565b7f65d7a28e3265b37a6474929f336521b332c1681b933f6cb9f3376673440d862a61076a81610f5a565b610772611142565b50565b7f9f2df0fed2c77648de5860a4cc508cd0818c85b8b8a1ab4ceeef8d981c8956a661079f81610f5a565b6107a983836111a3565b8273ffffffffffffffffffffffffffffffffffffffff167f30385c845b448a36257a6a1716e6ad2e1bc2cbe333cde1e69fe849ad6511adfe836040516107ef9190611be5565b60405180910390a2505050565b5f60055f9054906101000a900460ff16905090565b7f92de27771f92d6942691d73358b3a4673e4880de8356f8f2cf452be87e02d36361083b81610f5a565b60075f8373ffffffffffffffffffffffffffffffffffffffff1673ffffffffffffffffffffffffffffffffffffffff1681526020019081526020015f205f9054906101000a900460ff166108c4576040517f08c379a00000000000000000000000000000000000000000000000000000000081526004016108bb90611e25565b60405180910390fd5b5f60075f8473ffffffffffffffffffffffffffffffffffffffff1673ffffffffffffffffffffffffffffffffffffffff1681526020019081526020015f205f6101000a81548160ff0219169083151502179055508173ffffffffffffffffffffffffffffffffffffffff167fd247131fabb99dc3ba793524f53f05a77eeef38f12b30119655ee340810b121060405160405180910390a25050565b5f5f5f8373ffffffffffffffffffffffffffffffffffffffff1673ffffffffffffffffffffffffffffffffffffffff1681526020019081526020015f20549050919050565b7f65d7a28e3265b37a6474929f336521b332c1681b933f6cb9f3376673440d862a6109ce81610f5a565b6109d6611222565b50565b5f60065f8481526020019081526020015f205f015f8373ffffffffffffffffffffffffffffffffffffffff1673ffffffffffffffffffffffffffffffffffffffff1681526020019081526020015f205f9054906101000a900460ff16905092915050565b606060048054610a4c90611dab565b80601f0160208091040260200160405190810160405280929190818152602001828054610a7890611dab565b8015610ac35780601f10610a9a57610100808354040283529160200191610ac3565b820191905f5260205f20905b815481529060010190602001808311610aa657829003601f168201915b5050505050905090565b7f92de27771f92d6942691d73358b3a4673e4880de8356f8f2cf452be87e02d363610af781610f5a565b60075f8373ffffffffffffffffffffffffffffffffffffffff1673ffffffffffffffffffffffffffffffffffffffff1681526020019081526020015f205f9054906101000a900460ff1615610b81576040517f08c379a0000000000000000000000000000000000000000000000000000000008152600401610b7890611e8d565b60405180910390fd5b600160075f8473ffffffffffffffffffffffffffffffffffffffff1673ffffffffffffffffffffffffffffffffffffffff1681526020019081526020015f205f6101000a81548160ff0219169083151502179055508173ffffffffffffffffffffffffffffffffffffffff167fc9710d20bdbf99ca92a03644a5a8f85ea6badb387ff0abca08eebdfbff50b77f60405160405180910390a25050565b5f5f1b81565b5f5f610c2d610dbe565b9050610c3a818585610e6a565b600191505092915050565b7f9f2df0fed2c77648de5860a4cc508cd0818c85b8b8a1ab4ceeef8d981c8956a681565b610c728261067e565b610c7b81610f5a565b610c858383611058565b50505050565b5f60015f8473ffffffffffffffffffffffffffffffffffffffff1673ffffffffffffffffffffffffffffffffffffffff1681526020019081526020015f205f8373ffffffffffffffffffffffffffffffffffffffff1673ffffffffffffffffffffffffffffffffffffffff1681526020019081526020015f2054905092915050565b7f65d7a28e3265b37a6474929f336521b332c1681b933f6cb9f3376673440d862a81565b7ffacaf2747a7486cf5730e9265973fb54447d3ace6e7e4711f6360826b073194181565b5f7f01ffc9a7000000000000000000000000000000000000000000000000000000007bffffffffffffffffffffffffffffffffffffffffffffffffffffffff1916827bffffffffffffffffffffffffffffffffffffffffffffffffffffffff1916149050919050565b5f33905090565b610dd28383836001611284565b505050565b5f610de28484610c8b565b90507fffffffffffffffffffffffffffffffffffffffffffffffffffffffffffffffff811015610e645781811015610e55578281836040517ffb8f41b2000000000000000000000000000000000000000000000000000000008152600401610e4c93929190611eba565b60405180910390fd5b610e6384848484035f611284565b5b50505050565b5f73ffffffffffffffffffffffffffffffffffffffff168373ffffffffffffffffffffffffffffffffffffffff1603610eda575f6040517f96c6fd1e000000000000000000000000000000000000000000000000000000008152600401610ed19190611eef565b60405180910390fd5b5f73ffffffffffffffffffffffffffffffffffffffff168273ffffffffffffffffffffffffffffffffffffffff1603610f4a575f6040517fec442f05000000000000000000000000000000000000000000000000000000008152600401610f419190611eef565b60405180910390fd5b610f55838383611453565b505050565b610f6b81610f66610dbe565b611690565b50565b5f610f7983836109d9565b61104e57600160065f8581526020019081526020015f205f015f8473ffffffffffffffffffffffffffffffffffffffff1673ffffffffffffffffffffffffffffffffffffffff1681526020019081526020015f205f6101000a81548160ff021916908315150217905550610feb610dbe565b73ffffffffffffffffffffffffffffffffffffffff168273ffffffffffffffffffffffffffffffffffffffff16847f2f8788117e7eff1d82e926ec794901d17c78024a50270940304540a733656f0d60405160405180910390a460019050611052565b5f90505b92915050565b5f61106383836109d9565b15611138575f60065f8581526020019081526020015f205f015f8473ffffffffffffffffffffffffffffffffffffffff1673ffffffffffffffffffffffffffffffffffffffff1681526020019081526020015f205f6101000a81548160ff0219169083151502179055506110d5610dbe565b73ffffffffffffffffffffffffffffffffffffffff168273ffffffffffffffffffffffffffffffffffffffff16847ff6391f5c32d9c69d2a47ea670b442974b53935d1edc7fd64eb21e047a839171b60405160405180910390a46001905061113c565b5f90505b92915050565b61114a6116e1565b5f60055f6101000a81548160ff0219169083151502179055507f5db9ee0a495bf2e6ff9c91a7834c1ba4fdd244a5e8aa4e537bd38aeae4b073aa61118c610dbe565b6040516111999190611eef565b60405180910390a1565b5f73ffffffffffffffffffffffffffffffffffffffff168273ffffffffffffffffffffffffffffffffffffffff1603611213575f6040517fec442f0500000000000000000000000000000000000000000000000000000000815260040161120a9190611eef565b60405180910390fd5b61121e5f8383611453565b5050565b61122a611721565b600160055f6101000a81548160ff0219169083151502179055507f62e78cea01bee320cd4e420270b5ea74000d11b0c9f74754ebdbfc544b05a25861126d610dbe565b60405161127a9190611eef565b60405180910390a1565b5f73ffffffffffffffffffffffffffffffffffffffff168473ffffffffffffffffffffffffffffffffffffffff16036112f4575f6040517fe602df050000000000000000000000000000000000000000000000000000000081526004016112eb9190611eef565b60405180910390fd5b5f73ffffffffffffffffffffffffffffffffffffffff168373ffffffffffffffffffffffffffffffffffffffff1603611364575f6040517f94280d6200000000000000000000000000000000000000000000000000000000815260040161135b9190611eef565b60405180910390fd5b8160015f8673ffffffffffffffffffffffffffffffffffffffff1673ffffffffffffffffffffffffffffffffffffffff1681526020019081526020015f205f8573ffffffffffffffffffffffffffffffffffffffff1673ffffffffffffffffffffffffffffffffffffffff1681526020019081526020015f2081905550801561144d578273ffffffffffffffffffffffffffffffffffffffff168473ffffffffffffffffffffffffffffffffffffffff167f8c5be1e5ebec7d5bd14f71427d1e84f3dd0314c0f7b2291e5b200ac8c7c3b925846040516114449190611be5565b60405180910390a35b50505050565b60075f8473ffffffffffffffffffffffffffffffffffffffff1673ffffffffffffffffffffffffffffffffffffffff1681526020019081526020015f205f9054906101000a900460ff161580156114f1575060075f8373ffffffffffffffffffffffffffffffffffffffff1673ffffffffffffffffffffffffffffffffffffffff1681526020019081526020015f205f9054906101000a900460ff16155b611530576040517f08c379a000000000000000000000000000000000000000000000000000000000815260040161152790611f52565b60405180910390fd5b5f73ffffffffffffffffffffffffffffffffffffffff168373ffffffffffffffffffffffffffffffffffffffff161415801561159857505f73ffffffffffffffffffffffffffffffffffffffff168273ffffffffffffffffffffffffffffffffffffffff1614155b15611680576115c77ffacaf2747a7486cf5730e9265973fb54447d3ace6e7e4711f6360826b0731941846109d9565b611606576040517f08c379a00000000000000000000000000000000000000000000000000000000081526004016115fd90611fba565b60405180910390fd5b6116307ffacaf2747a7486cf5730e9265973fb54447d3ace6e7e4711f6360826b0731941836109d9565b61167f575f61163e8361095f565b1461167e576040517f08c379a000000000000000000000000000000000000000000000000000000000815260040161167590612048565b60405180910390fd5b5b5b61168b838383611762565b505050565b61169a82826109d9565b6116dd5780826040517fe2517d3f0000000000000000000000000000000000000000000000000000000081526004016116d4929190612066565b60405180910390fd5b5050565b6116e96107fc565b61171f576040517f8dfc202b00000000000000000000000000000000000000000000000000000000815260040160405180910390fd5b565b6117296107fc565b15611760576040517fd93c066500000000000000000000000000000000000000000000000000000000815260040160405180910390fd5b565b61176a611721565b61177583838361177a565b505050565b5f73ffffffffffffffffffffffffffffffffffffffff168373ffffffffffffffffffffffffffffffffffffffff16036117ca578060025f8282546117be91906120ba565b92505081905550611898565b5f5f5f8573ffffffffffffffffffffffffffffffffffffffff1673ffffffffffffffffffffffffffffffffffffffff1681526020019081526020015f2054905081811015611853578381836040517fe450d38c00000000000000000000000000000000000000000000000000000000815260040161184a93929190611eba565b60405180910390fd5b8181035f5f8673ffffffffffffffffffffffffffffffffffffffff1673ffffffffffffffffffffffffffffffffffffffff1681526020019081526020015f2081905550505b5f73ffffffffffffffffffffffffffffffffffffffff168273ffffffffffffffffffffffffffffffffffffffff16036118df578060025f8282540392505081905550611929565b805f5f8473ffffffffffffffffffffffffffffffffffffffff1673ffffffffffffffffffffffffffffffffffffffff1681526020019081526020015f205f82825401925050819055505b8173ffffffffffffffffffffffffffffffffffffffff168373ffffffffffffffffffffffffffffffffffffffff167fddf252ad1be2c89b69c2b068fc378daa952ba7f163c4a11628f55a4df523b3ef836040516119869190611be5565b60405180910390a3505050565b5f5ffd5b5f7fffffffff0000000000000000000000000000000000000000000000000000000082169050919050565b6119cb81611997565b81146119d5575f5ffd5b50565b5f813590506119e6816119c2565b92915050565b5f60208284031215611a0157611a00611993565b5b5f611a0e848285016119d8565b91505092915050565b5f8115159050919050565b611a2b81611a17565b82525050565b5f602082019050611a445f830184611a22565b92915050565b5f819050919050565b611a5c81611a4a565b82525050565b5f602082019050611a755f830184611a53565b92915050565b5f81519050919050565b5f82825260208201905092915050565b8281835e5f83830152505050565b5f601f19601f8301169050919050565b5f611abd82611a7b565b611ac78185611a85565b9350611ad7818560208601611a95565b611ae081611aa3565b840191505092915050565b5f6020820190508181035f830152611b038184611ab3565b905092915050565b5f73ffffffffffffffffffffffffffffffffffffffff82169050919050565b5f611b3482611b0b565b9050919050565b611b4481611b2a565b8114611b4e575f5ffd5b50565b5f81359050611b5f81611b3b565b92915050565b5f819050919050565b611b7781611b65565b8114611b81575f5ffd5b50565b5f81359050611b9281611b6e565b92915050565b5f5f60408385031215611bae57611bad611993565b5b5f611bbb85828601611b51565b9250506020611bcc85828601611b84565b9150509250929050565b611bdf81611b65565b82525050565b5f602082019050611bf85f830184611bd6565b92915050565b5f5f5f60608486031215611c1557611c14611993565b5b5f611c2286828701611b51565b9350506020611c3386828701611b51565b9250506040611c4486828701611b84565b9150509250925092565b611c5781611a4a565b8114611c61575f5ffd5b50565b5f81359050611c7281611c4e565b92915050565b5f60208284031215611c8d57611c8c611993565b5b5f611c9a84828501611c64565b91505092915050565b5f5f60408385031215611cb957611cb8611993565b5b5f611cc685828601611c64565b9250506020611cd785828601611b51565b9150509250929050565b5f60ff82169050919050565b611cf681611ce1565b82525050565b5f602082019050611d0f5f830184611ced565b92915050565b5f60208284031215611d2a57611d29611993565b5b5f611d3784828501611b51565b91505092915050565b5f5f60408385031215611d5657611d55611993565b5b5f611d6385828601611b51565b9250506020611d7485828601611b51565b9150509250929050565b7f4e487b71000000000000000000000000000000000000000000000000000000005f52602260045260245ffd5b5f6002820490506001821680611dc257607f821691505b602082108103611dd557611dd4611d7e565b5b50919050565b7f4e6f742066726f7a656e000000000000000000000000000000000000000000005f82015250565b5f611e0f600a83611a85565b9150611e1a82611ddb565b602082019050919050565b5f6020820190508181035f830152611e3c81611e03565b9050919050565b7f416c72656164792066726f7a656e0000000000000000000000000000000000005f82015250565b5f611e77600e83611a85565b9150611e8282611e43565b602082019050919050565b5f6020820190508181035f830152611ea481611e6b565b9050919050565b611eb481611b2a565b82525050565b5f606082019050611ecd5f830186611eab565b611eda6020830185611bd6565b611ee76040830184611bd6565b949350505050565b5f602082019050611f025f830184611eab565b92915050565b7f57616c6c65742069732066726f7a656e000000000000000000000000000000005f82015250565b5f611f3c601083611a85565b9150611f4782611f08565b602082019050919050565b5f6020820190508181035f830152611f6981611f30565b9050919050565b7f53656e646572206c61636b73205452414445525f524f4c4500000000000000005f82015250565b5f611fa4601883611a85565b9150611faf82611f70565b602082019050919050565b5f6020820190508181035f830152611fd181611f98565b9050919050565b7f5265636569766572206861732062616c616e636520627574206c61636b7320545f8201527f52414445525f524f4c4500000000000000000000000000000000000000000000602082015250565b5f612032602a83611a85565b915061203d82611fd8565b604082019050919050565b5f6020820190508181035f83015261205f81612026565b9050919050565b5f6040820190506120795f830185611eab565b6120866020830184611a53565b9392505050565b7f4e487b71000000000000000000000000000000000000000000000000000000005f52601160045260245ffd5b5f6120c482611b65565b91506120cf83611b65565b92508282019050808211156120e7576120e661208d565b5b9291505056fea26469706673582212204f6cc2974cfd5e7f59459701f8453580e48c7fcc3e02a8f3f2980201b40fdbe264736f6c63430008220033",
		"opcodes": "PUSH1 0x80 PUSH1 0x40 MSTORE CALLVALUE DUP1 ISZERO PUSH2 0xF JUMPI PUSH0 PUSH0 REVERT JUMPDEST POP PUSH1 0x4 CALLDATASIZE LT PUSH2 0x18C JUMPI PUSH0 CALLDATALOAD PUSH1 0xE0 SHR DUP1 PUSH4 0x60F588B7 GT PUSH2 0xDC JUMPI DUP1 PUSH4 0xA217FDDF GT PUSH2 0x95 JUMPI DUP1 PUSH4 0xD547741F GT PUSH2 0x6F JUMPI DUP1 PUSH4 0xD547741F EQ PUSH2 0x470 JUMPI DUP1 PUSH4 0xDD62ED3E EQ PUSH2 0x48C JUMPI DUP1 PUSH4 0xE63AB1E9 EQ PUSH2 0x4BC JUMPI DUP1 PUSH4 0xF0A56FC8 EQ PUSH2 0x4DA JUMPI PUSH2 0x18C JUMP JUMPDEST DUP1 PUSH4 0xA217FDDF EQ PUSH2 0x404 JUMPI DUP1 PUSH4 0xA9059CBB EQ PUSH2 0x422 JUMPI DUP1 PUSH4 0xD5391393 EQ PUSH2 0x452 JUMPI PUSH2 0x18C JUMP JUMPDEST DUP1 PUSH4 0x60F588B7 EQ PUSH2 0x344 JUMPI DUP1 PUSH4 0x70A08231 EQ PUSH2 0x360 JUMPI DUP1 PUSH4 0x8456CB59 EQ PUSH2 0x390 JUMPI DUP1 PUSH4 0x91D14854 EQ PUSH2 0x39A JUMPI DUP1 PUSH4 0x95D89B41 EQ PUSH2 0x3CA JUMPI DUP1 PUSH4 0x9F001169 EQ PUSH2 0x3E8 JUMPI PUSH2 0x18C JUMP JUMPDEST DUP1 PUSH4 0x248A9CA3 GT PUSH2 0x149 JUMPI DUP1 PUSH4 0x36568ABE GT PUSH2 0x123 JUMPI DUP1 PUSH4 0x36568ABE EQ PUSH2 0x2E4 JUMPI DUP1 PUSH4 0x3F4BA83A EQ PUSH2 0x300 JUMPI DUP1 PUSH4 0x40C10F19 EQ PUSH2 0x30A JUMPI DUP1 PUSH4 0x5C975ABB EQ PUSH2 0x326 JUMPI PUSH2 0x18C JUMP JUMPDEST DUP1 PUSH4 0x248A9CA3 EQ PUSH2 0x27A JUMPI DUP1 PUSH4 0x2F2FF15D EQ PUSH2 0x2AA JUMPI DUP1 PUSH4 0x313CE567 EQ PUSH2 0x2C6 JUMPI PUSH2 0x18C JUMP JUMPDEST DUP1 PUSH4 0x1FFC9A7 EQ PUSH2 0x190 JUMPI DUP1 PUSH4 0x6A85F0F EQ PUSH2 0x1C0 JUMPI DUP1 PUSH4 0x6FDDE03 EQ PUSH2 0x1DE JUMPI DUP1 PUSH4 0x95EA7B3 EQ PUSH2 0x1FC JUMPI DUP1 PUSH4 0x18160DDD EQ PUSH2 0x22C JUMPI DUP1 PUSH4 0x23B872DD EQ PUSH2 0x24A JUMPI JUMPDEST PUSH0 PUSH0 REVERT JUMPDEST PUSH2 0x1AA PUSH1 0x4 DUP1 CALLDATASIZE SUB DUP2 ADD SWAP1 PUSH2 0x1A5 SWAP2 SWAP1 PUSH2 0x19EC JUMP JUMPDEST PUSH2 0x4F8 JUMP JUMPDEST PUSH1 0x40 MLOAD PUSH2 0x1B7 SWAP2 SWAP1 PUSH2 0x1A31 JUMP JUMPDEST PUSH1 0x40 MLOAD DUP1 SWAP2 SUB SWAP1 RETURN JUMPDEST PUSH2 0x1C8 PUSH2 0x571 JUMP JUMPDEST PUSH1 0x40 MLOAD PUSH2 0x1D5 SWAP2 SWAP1 PUSH2 0x1A62 JUMP JUMPDEST PUSH1 0x40 MLOAD DUP1 SWAP2 SUB SWAP1 RETURN JUMPDEST PUSH2 0x1E6 PUSH2 0x595 JUMP JUMPDEST PUSH1 0x40 MLOAD PUSH2 0x1F3 SWAP2 SWAP1 PUSH2 0x1AEB JUMP JUMPDEST PUSH1 0x40 MLOAD DUP1 SWAP2 SUB SWAP1 RETURN JUMPDEST PUSH2 0x216 PUSH1 0x4 DUP1 CALLDATASIZE SUB DUP2 ADD SWAP1 PUSH2 0x211 SWAP2 SWAP1 PUSH2 0x1B98 JUMP JUMPDEST PUSH2 0x625 JUMP JUMPDEST PUSH1 0x40 MLOAD PUSH2 0x223 SWAP2 SWAP1 PUSH2 0x1A31 JUMP JUMPDEST PUSH1 0x40 MLOAD DUP1 SWAP2 SUB SWAP1 RETURN JUMPDEST PUSH2 0x234 PUSH2 0x647 JUMP JUMPDEST PUSH1 0x40 MLOAD PUSH2 0x241 SWAP2 SWAP1 PUSH2 0x1BE5 JUMP JUMPDEST PUSH1 0x40 MLOAD DUP1 SWAP2 SUB SWAP1 RETURN JUMPDEST PUSH2 0x264 PUSH1 0x4 DUP1 CALLDATASIZE SUB DUP2 ADD SWAP1 PUSH2 0x25F SWAP2 SWAP1 PUSH2 0x1BFE JUMP JUMPDEST PUSH2 0x650 JUMP JUMPDEST PUSH1 0x40 MLOAD PUSH2 0x271 SWAP2 SWAP1 PUSH2 0x1A31 JUMP JUMPDEST PUSH1 0x40 MLOAD DUP1 SWAP2 SUB SWAP1 RETURN JUMPDEST PUSH2 0x294 PUSH1 0x4 DUP1 CALLDATASIZE SUB DUP2 ADD SWAP1 PUSH2 0x28F SWAP2 SWAP1 PUSH2 0x1C78 JUMP JUMPDEST PUSH2 0x67E JUMP JUMPDEST PUSH1 0x40 MLOAD PUSH2 0x2A1 SWAP2 SWAP1 PUSH2 0x1A62 JUMP JUMPDEST PUSH1 0x40 MLOAD DUP1 SWAP2 SUB SWAP1 RETURN JUMPDEST PUSH2 0x2C4 PUSH1 0x4 DUP1 CALLDATASIZE SUB DUP2 ADD SWAP1 PUSH2 0x2BF SWAP2 SWAP1 PUSH2 0x1CA3 JUMP JUMPDEST PUSH2 0x69B JUMP JUMPDEST STOP JUMPDEST PUSH2 0x2CE PUSH2 0x6BD JUMP JUMPDEST PUSH1 0x40 MLOAD PUSH2 0x2DB SWAP2 SWAP1 PUSH2 0x1CFC JUMP JUMPDEST PUSH1 0x40 MLOAD DUP1 SWAP2 SUB SWAP1 RETURN JUMPDEST PUSH2 0x2FE PUSH1 0x4 DUP1 CALLDATASIZE SUB DUP2 ADD SWAP1 PUSH2 0x2F9 SWAP2 SWAP1 PUSH2 0x1CA3 JUMP JUMPDEST PUSH2 0x6C5 JUMP JUMPDEST STOP JUMPDEST PUSH2 0x308 PUSH2 0x740 JUMP JUMPDEST STOP JUMPDEST PUSH2 0x324 PUSH1 0x4 DUP1 CALLDATASIZE SUB DUP2 ADD SWAP1 PUSH2 0x31F SWAP2 SWAP1 PUSH2 0x1B98 JUMP JUMPDEST PUSH2 0x775 JUMP JUMPDEST STOP JUMPDEST PUSH2 0x32E PUSH2 0x7FC JUMP JUMPDEST PUSH1 0x40 MLOAD PUSH2 0x33B SWAP2 SWAP1 PUSH2 0x1A31 JUMP JUMPDEST PUSH1 0x40 MLOAD DUP1 SWAP2 SUB SWAP1 RETURN JUMPDEST PUSH2 0x35E PUSH1 0x4 DUP1 CALLDATASIZE SUB DUP2 ADD SWAP1 PUSH2 0x359 SWAP2 SWAP1 PUSH2 0x1D15 JUMP JUMPDEST PUSH2 0x811 JUMP JUMPDEST STOP JUMPDEST PUSH2 0x37A PUSH1 0x4 DUP1 CALLDATASIZE SUB DUP2 ADD SWAP1 PUSH2 0x375 SWAP2 SWAP1 PUSH2 0x1D15 JUMP JUMPDEST PUSH2 0x95F JUMP JUMPDEST PUSH1 0x40 MLOAD PUSH2 0x387 SWAP2 SWAP1 PUSH2 0x1BE5 JUMP JUMPDEST PUSH1 0x40 MLOAD DUP1 SWAP2 SUB SWAP1 RETURN JUMPDEST PUSH2 0x398 PUSH2 0x9A4 JUMP JUMPDEST STOP JUMPDEST PUSH2 0x3B4 PUSH1 0x4 DUP1 CALLDATASIZE SUB DUP2 ADD SWAP1 PUSH2 0x3AF SWAP2 SWAP1 PUSH2 0x1CA3 JUMP JUMPDEST PUSH2 0x9D9 JUMP JUMPDEST PUSH1 0x40 MLOAD PUSH2 0x3C1 SWAP2 SWAP1 PUSH2 0x1A31 JUMP JUMPDEST PUSH1 0x40 MLOAD DUP1 SWAP2 SUB SWAP1 RETURN JUMPDEST PUSH2 0x3D2 PUSH2 0xA3D JUMP JUMPDEST PUSH1 0x40 MLOAD PUSH2 0x3DF SWAP2 SWAP1 PUSH2 0x1AEB JUMP JUMPDEST PUSH1 0x40 MLOAD DUP1 SWAP2 SUB SWAP1 RETURN JUMPDEST PUSH2 0x402 PUSH1 0x4 DUP1 CALLDATASIZE SUB DUP2 ADD SWAP1 PUSH2 0x3FD SWAP2 SWAP1 PUSH2 0x1D15 JUMP JUMPDEST PUSH2 0xACD JUMP JUMPDEST STOP JUMPDEST PUSH2 0x40C PUSH2 0xC1D JUMP JUMPDEST PUSH1 0x40 MLOAD PUSH2 0x419 SWAP2 SWAP1 PUSH2 0x1A62 JUMP JUMPDEST PUSH1 0x40 MLOAD DUP1 SWAP2 SUB SWAP1 RETURN JUMPDEST PUSH2 0x43C PUSH1 0x4 DUP1 CALLDATASIZE SUB DUP2 ADD SWAP1 PUSH2 0x437 SWAP2 SWAP1 PUSH2 0x1B98 JUMP JUMPDEST PUSH2 0xC23 JUMP JUMPDEST PUSH1 0x40 MLOAD PUSH2 0x449 SWAP2 SWAP1 PUSH2 0x1A31 JUMP JUMPDEST PUSH1 0x40 MLOAD DUP1 SWAP2 SUB SWAP1 RETURN JUMPDEST PUSH2 0x45A PUSH2 0xC45 JUMP JUMPDEST PUSH1 0x40 MLOAD PUSH2 0x467 SWAP2 SWAP1 PUSH2 0x1A62 JUMP JUMPDEST PUSH1 0x40 MLOAD DUP1 SWAP2 SUB SWAP1 RETURN JUMPDEST PUSH2 0x48A PUSH1 0x4 DUP1 CALLDATASIZE SUB DUP2 ADD SWAP1 PUSH2 0x485 SWAP2 SWAP1 PUSH2 0x1CA3 JUMP JUMPDEST PUSH2 0xC69 JUMP JUMPDEST STOP JUMPDEST PUSH2 0x4A6 PUSH1 0x4 DUP1 CALLDATASIZE SUB DUP2 ADD SWAP1 PUSH2 0x4A1 SWAP2 SWAP1 PUSH2 0x1D40 JUMP JUMPDEST PUSH2 0xC8B JUMP JUMPDEST PUSH1 0x40 MLOAD PUSH2 0x4B3 SWAP2 SWAP1 PUSH2 0x1BE5 JUMP JUMPDEST PUSH1 0x40 MLOAD DUP1 SWAP2 SUB SWAP1 RETURN JUMPDEST PUSH2 0x4C4 PUSH2 0xD0D JUMP JUMPDEST PUSH1 0x40 MLOAD PUSH2 0x4D1 SWAP2 SWAP1 PUSH2 0x1A62 JUMP JUMPDEST PUSH1 0x40 MLOAD DUP1 SWAP2 SUB SWAP1 RETURN JUMPDEST PUSH2 0x4E2 PUSH2 0xD31 JUMP JUMPDEST PUSH1 0x40 MLOAD PUSH2 0x4EF SWAP2 SWAP1 PUSH2 0x1A62 JUMP JUMPDEST PUSH1 0x40 MLOAD DUP1 SWAP2 SUB SWAP1 RETURN JUMPDEST PUSH0 PUSH32 0x7965DB0B00000000000000000000000000000000000000000000000000000000 PUSH28 0xFFFFFFFFFFFFFFFFFFFFFFFFFFFFFFFFFFFFFFFFFFFFFFFFFFFFFFFF NOT AND DUP3 PUSH28 0xFFFFFFFFFFFFFFFFFFFFFFFFFFFFFFFFFFFFFFFFFFFFFFFFFFFFFFFF NOT AND EQ DUP1 PUSH2 0x56A JUMPI POP PUSH2 0x569 DUP3 PUSH2 0xD55 JUMP JUMPDEST JUMPDEST SWAP1 POP SWAP2 SWAP1 POP JUMP JUMPDEST PUSH32 0x92DE27771F92D6942691D73358B3A4673E4880DE8356F8F2CF452BE87E02D363 DUP2 JUMP JUMPDEST PUSH1 0x60 PUSH1 0x3 DUP1 SLOAD PUSH2 0x5A4 SWAP1 PUSH2 0x1DAB JUMP JUMPDEST DUP1 PUSH1 0x1F ADD PUSH1 0x20 DUP1 SWAP2 DIV MUL PUSH1 0x20 ADD PUSH1 0x40 MLOAD SWAP1 DUP2 ADD PUSH1 0x40 MSTORE DUP1 SWAP3 SWAP2 SWAP1 DUP2 DUP2 MSTORE PUSH1 0x20 ADD DUP3 DUP1 SLOAD PUSH2 0x5D0 SWAP1 PUSH2 0x1DAB JUMP JUMPDEST DUP1 ISZERO PUSH2 0x61B JUMPI DUP1 PUSH1 0x1F LT PUSH2 0x5F2 JUMPI PUSH2 0x100 DUP1 DUP4 SLOAD DIV MUL DUP4 MSTORE SWAP2 PUSH1 0x20 ADD SWAP2 PUSH2 0x61B JUMP JUMPDEST DUP3 ADD SWAP2 SWAP1 PUSH0 MSTORE PUSH1 0x20 PUSH0 KECCAK256 SWAP1 JUMPDEST DUP2 SLOAD DUP2 MSTORE SWAP1 PUSH1 0x1 ADD SWAP1 PUSH1 0x20 ADD DUP1 DUP4 GT PUSH2 0x5FE JUMPI DUP3 SWAP1 SUB PUSH1 0x1F AND DUP3 ADD SWAP2 JUMPDEST POP POP POP POP POP SWAP1 POP SWAP1 JUMP JUMPDEST PUSH0 PUSH0 PUSH2 0x62F PUSH2 0xDBE JUMP JUMPDEST SWAP1 POP PUSH2 0x63C DUP2 DUP6 DUP6 PUSH2 0xDC5 JUMP JUMPDEST PUSH1 0x1 SWAP2 POP POP SWAP3 SWAP2 POP POP JUMP JUMPDEST PUSH0 PUSH1 0x2 SLOAD SWAP1 POP SWAP1 JUMP JUMPDEST PUSH0 PUSH0 PUSH2 0x65A PUSH2 0xDBE JUMP JUMPDEST SWAP1 POP PUSH2 0x667 DUP6 DUP3 DUP6 PUSH2 0xDD7 JUMP JUMPDEST PUSH2 0x672 DUP6 DUP6 DUP6 PUSH2 0xE6A JUMP JUMPDEST PUSH1 0x1 SWAP2 POP POP SWAP4 SWAP3 POP POP POP JUMP JUMPDEST PUSH0 PUSH1 0x6 PUSH0 DUP4 DUP2 MSTORE PUSH1 0x20 ADD SWAP1 DUP2 MSTORE PUSH1 0x20 ADD PUSH0 KECCAK256 PUSH1 0x1 ADD SLOAD SWAP1 POP SWAP2 SWAP1 POP JUMP JUMPDEST PUSH2 0x6A4 DUP3 PUSH2 0x67E JUMP JUMPDEST PUSH2 0x6AD DUP2 PUSH2 0xF5A JUMP JUMPDEST PUSH2 0x6B7 DUP4 DUP4 PUSH2 0xF6E JUMP JUMPDEST POP POP POP POP JUMP JUMPDEST PUSH0 PUSH1 0x12 SWAP1 POP SWAP1 JUMP JUMPDEST PUSH2 0x6CD PUSH2 0xDBE JUMP JUMPDEST PUSH20 0xFFFFFFFFFFFFFFFFFFFFFFFFFFFFFFFFFFFFFFFF AND DUP2 PUSH20 0xFFFFFFFFFFFFFFFFFFFFFFFFFFFFFFFFFFFFFFFF AND EQ PUSH2 0x731 JUMPI PUSH1 0x40 MLOAD PUSH32 0x6697B23200000000000000000000000000000000000000000000000000000000 DUP2 MSTORE PUSH1 0x4 ADD PUSH1 0x40 MLOAD DUP1 SWAP2 SUB SWAP1 REVERT JUMPDEST PUSH2 0x73B DUP3 DUP3 PUSH2 0x1058 JUMP JUMPDEST POP POP POP JUMP JUMPDEST PUSH32 0x65D7A28E3265B37A6474929F336521B332C1681B933F6CB9F3376673440D862A PUSH2 0x76A DUP2 PUSH2 0xF5A JUMP JUMPDEST PUSH2 0x772 PUSH2 0x1142 JUMP JUMPDEST POP JUMP JUMPDEST PUSH32 0x9F2DF0FED2C77648DE5860A4CC508CD0818C85B8B8A1AB4CEEEF8D981C8956A6 PUSH2 0x79F DUP2 PUSH2 0xF5A JUMP JUMPDEST PUSH2 0x7A9 DUP4 DUP4 PUSH2 0x11A3 JUMP JUMPDEST DUP3 PUSH20 0xFFFFFFFFFFFFFFFFFFFFFFFFFFFFFFFFFFFFFFFF AND PUSH32 0x30385C845B448A36257A6A1716E6AD2E1BC2CBE333CDE1E69FE849AD6511ADFE DUP4 PUSH1 0x40 MLOAD PUSH2 0x7EF SWAP2 SWAP1 PUSH2 0x1BE5 JUMP JUMPDEST PUSH1 0x40 MLOAD DUP1 SWAP2 SUB SWAP1 LOG2 POP POP POP JUMP JUMPDEST PUSH0 PUSH1 0x5 PUSH0 SWAP1 SLOAD SWAP1 PUSH2 0x100 EXP SWAP1 DIV PUSH1 0xFF AND SWAP1 POP SWAP1 JUMP JUMPDEST PUSH32 0x92DE27771F92D6942691D73358B3A4673E4880DE8356F8F2CF452BE87E02D363 PUSH2 0x83B DUP2 PUSH2 0xF5A JUMP JUMPDEST PUSH1 0x7 PUSH0 DUP4 PUSH20 0xFFFFFFFFFFFFFFFFFFFFFFFFFFFFFFFFFFFFFFFF AND PUSH20 0xFFFFFFFFFFFFFFFFFFFFFFFFFFFFFFFFFFFFFFFF AND DUP2 MSTORE PUSH1 0x20 ADD SWAP1 DUP2 MSTORE PUSH1 0x20 ADD PUSH0 KECCAK256 PUSH0 SWAP1 SLOAD SWAP1 PUSH2 0x100 EXP SWAP1 DIV PUSH1 0xFF AND PUSH2 0x8C4 JUMPI PUSH1 0x40 MLOAD PUSH32 0x8C379A000000000000000000000000000000000000000000000000000000000 DUP2 MSTORE PUSH1 0x4 ADD PUSH2 0x8BB SWAP1 PUSH2 0x1E25 JUMP JUMPDEST PUSH1 0x40 MLOAD DUP1 SWAP2 SUB SWAP1 REVERT JUMPDEST PUSH0 PUSH1 0x7 PUSH0 DUP5 PUSH20 0xFFFFFFFFFFFFFFFFFFFFFFFFFFFFFFFFFFFFFFFF AND PUSH20 0xFFFFFFFFFFFFFFFFFFFFFFFFFFFFFFFFFFFFFFFF AND DUP2 MSTORE PUSH1 0x20 ADD SWAP1 DUP2 MSTORE PUSH1 0x20 ADD PUSH0 KECCAK256 PUSH0 PUSH2 0x100 EXP DUP2 SLOAD DUP2 PUSH1 0xFF MUL NOT AND SWAP1 DUP4 ISZERO ISZERO MUL OR SWAP1 SSTORE POP DUP2 PUSH20 0xFFFFFFFFFFFFFFFFFFFFFFFFFFFFFFFFFFFFFFFF AND PUSH32 0xD247131FABB99DC3BA793524F53F05A77EEEF38F12B30119655EE340810B1210 PUSH1 0x40 MLOAD PUSH1 0x40 MLOAD DUP1 SWAP2 SUB SWAP1 LOG2 POP POP JUMP JUMPDEST PUSH0 PUSH0 PUSH0 DUP4 PUSH20 0xFFFFFFFFFFFFFFFFFFFFFFFFFFFFFFFFFFFFFFFF AND PUSH20 0xFFFFFFFFFFFFFFFFFFFFFFFFFFFFFFFFFFFFFFFF AND DUP2 MSTORE PUSH1 0x20 ADD SWAP1 DUP2 MSTORE PUSH1 0x20 ADD PUSH0 KECCAK256 SLOAD SWAP1 POP SWAP2 SWAP1 POP JUMP JUMPDEST PUSH32 0x65D7A28E3265B37A6474929F336521B332C1681B933F6CB9F3376673440D862A PUSH2 0x9CE DUP2 PUSH2 0xF5A JUMP JUMPDEST PUSH2 0x9D6 PUSH2 0x1222 JUMP JUMPDEST POP JUMP JUMPDEST PUSH0 PUSH1 0x6 PUSH0 DUP5 DUP2 MSTORE PUSH1 0x20 ADD SWAP1 DUP2 MSTORE PUSH1 0x20 ADD PUSH0 KECCAK256 PUSH0 ADD PUSH0 DUP4 PUSH20 0xFFFFFFFFFFFFFFFFFFFFFFFFFFFFFFFFFFFFFFFF AND PUSH20 0xFFFFFFFFFFFFFFFFFFFFFFFFFFFFFFFFFFFFFFFF AND DUP2 MSTORE PUSH1 0x20 ADD SWAP1 DUP2 MSTORE PUSH1 0x20 ADD PUSH0 KECCAK256 PUSH0 SWAP1 SLOAD SWAP1 PUSH2 0x100 EXP SWAP1 DIV PUSH1 0xFF AND SWAP1 POP SWAP3 SWAP2 POP POP JUMP JUMPDEST PUSH1 0x60 PUSH1 0x4 DUP1 SLOAD PUSH2 0xA4C SWAP1 PUSH2 0x1DAB JUMP JUMPDEST DUP1 PUSH1 0x1F ADD PUSH1 0x20 DUP1 SWAP2 DIV MUL PUSH1 0x20 ADD PUSH1 0x40 MLOAD SWAP1 DUP2 ADD PUSH1 0x40 MSTORE DUP1 SWAP3 SWAP2 SWAP1 DUP2 DUP2 MSTORE PUSH1 0x20 ADD DUP3 DUP1 SLOAD PUSH2 0xA78 SWAP1 PUSH2 0x1DAB JUMP JUMPDEST DUP1 ISZERO PUSH2 0xAC3 JUMPI DUP1 PUSH1 0x1F LT PUSH2 0xA9A JUMPI PUSH2 0x100 DUP1 DUP4 SLOAD DIV MUL DUP4 MSTORE SWAP2 PUSH1 0x20 ADD SWAP2 PUSH2 0xAC3 JUMP JUMPDEST DUP3 ADD SWAP2 SWAP1 PUSH0 MSTORE PUSH1 0x20 PUSH0 KECCAK256 SWAP1 JUMPDEST DUP2 SLOAD DUP2 MSTORE SWAP1 PUSH1 0x1 ADD SWAP1 PUSH1 0x20 ADD DUP1 DUP4 GT PUSH2 0xAA6 JUMPI DUP3 SWAP1 SUB PUSH1 0x1F AND DUP3 ADD SWAP2 JUMPDEST POP POP POP POP POP SWAP1 POP SWAP1 JUMP JUMPDEST PUSH32 0x92DE27771F92D6942691D73358B3A4673E4880DE8356F8F2CF452BE87E02D363 PUSH2 0xAF7 DUP2 PUSH2 0xF5A JUMP JUMPDEST PUSH1 0x7 PUSH0 DUP4 PUSH20 0xFFFFFFFFFFFFFFFFFFFFFFFFFFFFFFFFFFFFFFFF AND PUSH20 0xFFFFFFFFFFFFFFFFFFFFFFFFFFFFFFFFFFFFFFFF AND DUP2 MSTORE PUSH1 0x20 ADD SWAP1 DUP2 MSTORE PUSH1 0x20 ADD PUSH0 KECCAK256 PUSH0 SWAP1 SLOAD SWAP1 PUSH2 0x100 EXP SWAP1 DIV PUSH1 0xFF AND ISZERO PUSH2 0xB81 JUMPI PUSH1 0x40 MLOAD PUSH32 0x8C379A000000000000000000000000000000000000000000000000000000000 DUP2 MSTORE PUSH1 0x4 ADD PUSH2 0xB78 SWAP1 PUSH2 0x1E8D JUMP JUMPDEST PUSH1 0x40 MLOAD DUP1 SWAP2 SUB SWAP1 REVERT JUMPDEST PUSH1 0x1 PUSH1 0x7 PUSH0 DUP5 PUSH20 0xFFFFFFFFFFFFFFFFFFFFFFFFFFFFFFFFFFFFFFFF AND PUSH20 0xFFFFFFFFFFFFFFFFFFFFFFFFFFFFFFFFFFFFFFFF AND DUP2 MSTORE PUSH1 0x20 ADD SWAP1 DUP2 MSTORE PUSH1 0x20 ADD PUSH0 KECCAK256 PUSH0 PUSH2 0x100 EXP DUP2 SLOAD DUP2 PUSH1 0xFF MUL NOT AND SWAP1 DUP4 ISZERO ISZERO MUL OR SWAP1 SSTORE POP DUP2 PUSH20 0xFFFFFFFFFFFFFFFFFFFFFFFFFFFFFFFFFFFFFFFF AND PUSH32 0xC9710D20BDBF99CA92A03644A5A8F85EA6BADB387FF0ABCA08EEBDFBFF50B77F PUSH1 0x40 MLOAD PUSH1 0x40 MLOAD DUP1 SWAP2 SUB SWAP1 LOG2 POP POP JUMP JUMPDEST PUSH0 PUSH0 SHL DUP2 JUMP JUMPDEST PUSH0 PUSH0 PUSH2 0xC2D PUSH2 0xDBE JUMP JUMPDEST SWAP1 POP PUSH2 0xC3A DUP2 DUP6 DUP6 PUSH2 0xE6A JUMP JUMPDEST PUSH1 0x1 SWAP2 POP POP SWAP3 SWAP2 POP POP JUMP JUMPDEST PUSH32 0x9F2DF0FED2C77648DE5860A4CC508CD0818C85B8B8A1AB4CEEEF8D981C8956A6 DUP2 JUMP JUMPDEST PUSH2 0xC72 DUP3 PUSH2 0x67E JUMP JUMPDEST PUSH2 0xC7B DUP2 PUSH2 0xF5A JUMP JUMPDEST PUSH2 0xC85 DUP4 DUP4 PUSH2 0x1058 JUMP JUMPDEST POP POP POP POP JUMP JUMPDEST PUSH0 PUSH1 0x1 PUSH0 DUP5 PUSH20 0xFFFFFFFFFFFFFFFFFFFFFFFFFFFFFFFFFFFFFFFF AND PUSH20 0xFFFFFFFFFFFFFFFFFFFFFFFFFFFFFFFFFFFFFFFF AND DUP2 MSTORE PUSH1 0x20 ADD SWAP1 DUP2 MSTORE PUSH1 0x20 ADD PUSH0 KECCAK256 PUSH0 DUP4 PUSH20 0xFFFFFFFFFFFFFFFFFFFFFFFFFFFFFFFFFFFFFFFF AND PUSH20 0xFFFFFFFFFFFFFFFFFFFFFFFFFFFFFFFFFFFFFFFF AND DUP2 MSTORE PUSH1 0x20 ADD SWAP1 DUP2 MSTORE PUSH1 0x20 ADD PUSH0 KECCAK256 SLOAD SWAP1 POP SWAP3 SWAP2 POP POP JUMP JUMPDEST PUSH32 0x65D7A28E3265B37A6474929F336521B332C1681B933F6CB9F3376673440D862A DUP2 JUMP JUMPDEST PUSH32 0xFACAF2747A7486CF5730E9265973FB54447D3ACE6E7E4711F6360826B0731941 DUP2 JUMP JUMPDEST PUSH0 PUSH32 0x1FFC9A700000000000000000000000000000000000000000000000000000000 PUSH28 0xFFFFFFFFFFFFFFFFFFFFFFFFFFFFFFFFFFFFFFFFFFFFFFFFFFFFFFFF NOT AND DUP3 PUSH28 0xFFFFFFFFFFFFFFFFFFFFFFFFFFFFFFFFFFFFFFFFFFFFFFFFFFFFFFFF NOT AND EQ SWAP1 POP SWAP2 SWAP1 POP JUMP JUMPDEST PUSH0 CALLER SWAP1 POP SWAP1 JUMP JUMPDEST PUSH2 0xDD2 DUP4 DUP4 DUP4 PUSH1 0x1 PUSH2 0x1284 JUMP JUMPDEST POP POP POP JUMP JUMPDEST PUSH0 PUSH2 0xDE2 DUP5 DUP5 PUSH2 0xC8B JUMP JUMPDEST SWAP1 POP PUSH32 0xFFFFFFFFFFFFFFFFFFFFFFFFFFFFFFFFFFFFFFFFFFFFFFFFFFFFFFFFFFFFFFFF DUP2 LT ISZERO PUSH2 0xE64 JUMPI DUP2 DUP2 LT ISZERO PUSH2 0xE55 JUMPI DUP3 DUP2 DUP4 PUSH1 0x40 MLOAD PUSH32 0xFB8F41B200000000000000000000000000000000000000000000000000000000 DUP2 MSTORE PUSH1 0x4 ADD PUSH2 0xE4C SWAP4 SWAP3 SWAP2 SWAP1 PUSH2 0x1EBA JUMP JUMPDEST PUSH1 0x40 MLOAD DUP1 SWAP2 SUB SWAP1 REVERT JUMPDEST PUSH2 0xE63 DUP5 DUP5 DUP5 DUP5 SUB PUSH0 PUSH2 0x1284 JUMP JUMPDEST JUMPDEST POP POP POP POP JUMP JUMPDEST PUSH0 PUSH20 0xFFFFFFFFFFFFFFFFFFFFFFFFFFFFFFFFFFFFFFFF AND DUP4 PUSH20 0xFFFFFFFFFFFFFFFFFFFFFFFFFFFFFFFFFFFFFFFF AND SUB PUSH2 0xEDA JUMPI PUSH0 PUSH1 0x40 MLOAD PUSH32 0x96C6FD1E00000000000000000000000000000000000000000000000000000000 DUP2 MSTORE PUSH1 0x4 ADD PUSH2 0xED1 SWAP2 SWAP1 PUSH2 0x1EEF JUMP JUMPDEST PUSH1 0x40 MLOAD DUP1 SWAP2 SUB SWAP1 REVERT JUMPDEST PUSH0 PUSH20 0xFFFFFFFFFFFFFFFFFFFFFFFFFFFFFFFFFFFFFFFF AND DUP3 PUSH20 0xFFFFFFFFFFFFFFFFFFFFFFFFFFFFFFFFFFFFFFFF AND SUB PUSH2 0xF4A JUMPI PUSH0 PUSH1 0x40 MLOAD PUSH32 0xEC442F0500000000000000000000000000000000000000000000000000000000 DUP2 MSTORE PUSH1 0x4 ADD PUSH2 0xF41 SWAP2 SWAP1 PUSH2 0x1EEF JUMP JUMPDEST PUSH1 0x40 MLOAD DUP1 SWAP2 SUB SWAP1 REVERT JUMPDEST PUSH2 0xF55 DUP4 DUP4 DUP4 PUSH2 0x1453 JUMP JUMPDEST POP POP POP JUMP JUMPDEST PUSH2 0xF6B DUP2 PUSH2 0xF66 PUSH2 0xDBE JUMP JUMPDEST PUSH2 0x1690 JUMP JUMPDEST POP JUMP JUMPDEST PUSH0 PUSH2 0xF79 DUP4 DUP4 PUSH2 0x9D9 JUMP JUMPDEST PUSH2 0x104E JUMPI PUSH1 0x1 PUSH1 0x6 PUSH0 DUP6 DUP2 MSTORE PUSH1 0x20 ADD SWAP1 DUP2 MSTORE PUSH1 0x20 ADD PUSH0 KECCAK256 PUSH0 ADD PUSH0 DUP5 PUSH20 0xFFFFFFFFFFFFFFFFFFFFFFFFFFFFFFFFFFFFFFFF AND PUSH20 0xFFFFFFFFFFFFFFFFFFFFFFFFFFFFFFFFFFFFFFFF AND DUP2 MSTORE PUSH1 0x20 ADD SWAP1 DUP2 MSTORE PUSH1 0x20 ADD PUSH0 KECCAK256 PUSH0 PUSH2 0x100 EXP DUP2 SLOAD DUP2 PUSH1 0xFF MUL NOT AND SWAP1 DUP4 ISZERO ISZERO MUL OR SWAP1 SSTORE POP PUSH2 0xFEB PUSH2 0xDBE JUMP JUMPDEST PUSH20 0xFFFFFFFFFFFFFFFFFFFFFFFFFFFFFFFFFFFFFFFF AND DUP3 PUSH20 0xFFFFFFFFFFFFFFFFFFFFFFFFFFFFFFFFFFFFFFFF AND DUP5 PUSH32 0x2F8788117E7EFF1D82E926EC794901D17C78024A50270940304540A733656F0D PUSH1 0x40 MLOAD PUSH1 0x40 MLOAD DUP1 SWAP2 SUB SWAP1 LOG4 PUSH1 0x1 SWAP1 POP PUSH2 0x1052 JUMP JUMPDEST PUSH0 SWAP1 POP JUMPDEST SWAP3 SWAP2 POP POP JUMP JUMPDEST PUSH0 PUSH2 0x1063 DUP4 DUP4 PUSH2 0x9D9 JUMP JUMPDEST ISZERO PUSH2 0x1138 JUMPI PUSH0 PUSH1 0x6 PUSH0 DUP6 DUP2 MSTORE PUSH1 0x20 ADD SWAP1 DUP2 MSTORE PUSH1 0x20 ADD PUSH0 KECCAK256 PUSH0 ADD PUSH0 DUP5 PUSH20 0xFFFFFFFFFFFFFFFFFFFFFFFFFFFFFFFFFFFFFFFF AND PUSH20 0xFFFFFFFFFFFFFFFFFFFFFFFFFFFFFFFFFFFFFFFF AND DUP2 MSTORE PUSH1 0x20 ADD SWAP1 DUP2 MSTORE PUSH1 0x20 ADD PUSH0 KECCAK256 PUSH0 PUSH2 0x100 EXP DUP2 SLOAD DUP2 PUSH1 0xFF MUL NOT AND SWAP1 DUP4 ISZERO ISZERO MUL OR SWAP1 SSTORE POP PUSH2 0x10D5 PUSH2 0xDBE JUMP JUMPDEST PUSH20 0xFFFFFFFFFFFFFFFFFFFFFFFFFFFFFFFFFFFFFFFF AND DUP3 PUSH20 0xFFFFFFFFFFFFFFFFFFFFFFFFFFFFFFFFFFFFFFFF AND DUP5 PUSH32 0xF6391F5C32D9C69D2A47EA670B442974B53935D1EDC7FD64EB21E047A839171B PUSH1 0x40 MLOAD PUSH1 0x40 MLOAD DUP1 SWAP2 SUB SWAP1 LOG4 PUSH1 0x1 SWAP1 POP PUSH2 0x113C JUMP JUMPDEST PUSH0 SWAP1 POP JUMPDEST SWAP3 SWAP2 POP POP JUMP JUMPDEST PUSH2 0x114A PUSH2 0x16E1 JUMP JUMPDEST PUSH0 PUSH1 0x5 PUSH0 PUSH2 0x100 EXP DUP2 SLOAD DUP2 PUSH1 0xFF MUL NOT AND SWAP1 DUP4 ISZERO ISZERO MUL OR SWAP1 SSTORE POP PUSH32 0x5DB9EE0A495BF2E6FF9C91A7834C1BA4FDD244A5E8AA4E537BD38AEAE4B073AA PUSH2 0x118C PUSH2 0xDBE JUMP JUMPDEST PUSH1 0x40 MLOAD PUSH2 0x1199 SWAP2 SWAP1 PUSH2 0x1EEF JUMP JUMPDEST PUSH1 0x40 MLOAD DUP1 SWAP2 SUB SWAP1 LOG1 JUMP JUMPDEST PUSH0 PUSH20 0xFFFFFFFFFFFFFFFFFFFFFFFFFFFFFFFFFFFFFFFF AND DUP3 PUSH20 0xFFFFFFFFFFFFFFFFFFFFFFFFFFFFFFFFFFFFFFFF AND SUB PUSH2 0x1213 JUMPI PUSH0 PUSH1 0x40 MLOAD PUSH32 0xEC442F0500000000000000000000000000000000000000000000000000000000 DUP2 MSTORE PUSH1 0x4 ADD PUSH2 0x120A SWAP2 SWAP1 PUSH2 0x1EEF JUMP JUMPDEST PUSH1 0x40 MLOAD DUP1 SWAP2 SUB SWAP1 REVERT JUMPDEST PUSH2 0x121E PUSH0 DUP4 DUP4 PUSH2 0x1453 JUMP JUMPDEST POP POP JUMP JUMPDEST PUSH2 0x122A PUSH2 0x1721 JUMP JUMPDEST PUSH1 0x1 PUSH1 0x5 PUSH0 PUSH2 0x100 EXP DUP2 SLOAD DUP2 PUSH1 0xFF MUL NOT AND SWAP1 DUP4 ISZERO ISZERO MUL OR SWAP1 SSTORE POP PUSH32 0x62E78CEA01BEE320CD4E420270B5EA74000D11B0C9F74754EBDBFC544B05A258 PUSH2 0x126D PUSH2 0xDBE JUMP JUMPDEST PUSH1 0x40 MLOAD PUSH2 0x127A SWAP2 SWAP1 PUSH2 0x1EEF JUMP JUMPDEST PUSH1 0x40 MLOAD DUP1 SWAP2 SUB SWAP1 LOG1 JUMP JUMPDEST PUSH0 PUSH20 0xFFFFFFFFFFFFFFFFFFFFFFFFFFFFFFFFFFFFFFFF AND DUP5 PUSH20 0xFFFFFFFFFFFFFFFFFFFFFFFFFFFFFFFFFFFFFFFF AND SUB PUSH2 0x12F4 JUMPI PUSH0 PUSH1 0x40 MLOAD PUSH32 0xE602DF0500000000000000000000000000000000000000000000000000000000 DUP2 MSTORE PUSH1 0x4 ADD PUSH2 0x12EB SWAP2 SWAP1 PUSH2 0x1EEF JUMP JUMPDEST PUSH1 0x40 MLOAD DUP1 SWAP2 SUB SWAP1 REVERT JUMPDEST PUSH0 PUSH20 0xFFFFFFFFFFFFFFFFFFFFFFFFFFFFFFFFFFFFFFFF AND DUP4 PUSH20 0xFFFFFFFFFFFFFFFFFFFFFFFFFFFFFFFFFFFFFFFF AND SUB PUSH2 0x1364 JUMPI PUSH0 PUSH1 0x40 MLOAD PUSH32 0x94280D6200000000000000000000000000000000000000000000000000000000 DUP2 MSTORE PUSH1 0x4 ADD PUSH2 0x135B SWAP2 SWAP1 PUSH2 0x1EEF JUMP JUMPDEST PUSH1 0x40 MLOAD DUP1 SWAP2 SUB SWAP1 REVERT JUMPDEST DUP2 PUSH1 0x1 PUSH0 DUP7 PUSH20 0xFFFFFFFFFFFFFFFFFFFFFFFFFFFFFFFFFFFFFFFF AND PUSH20 0xFFFFFFFFFFFFFFFFFFFFFFFFFFFFFFFFFFFFFFFF AND DUP2 MSTORE PUSH1 0x20 ADD SWAP1 DUP2 MSTORE PUSH1 0x20 ADD PUSH0 KECCAK256 PUSH0 DUP6 PUSH20 0xFFFFFFFFFFFFFFFFFFFFFFFFFFFFFFFFFFFFFFFF AND PUSH20 0xFFFFFFFFFFFFFFFFFFFFFFFFFFFFFFFFFFFFFFFF AND DUP2 MSTORE PUSH1 0x20 ADD SWAP1 DUP2 MSTORE PUSH1 0x20 ADD PUSH0 KECCAK256 DUP2 SWAP1 SSTORE POP DUP1 ISZERO PUSH2 0x144D JUMPI DUP3 PUSH20 0xFFFFFFFFFFFFFFFFFFFFFFFFFFFFFFFFFFFFFFFF AND DUP5 PUSH20 0xFFFFFFFFFFFFFFFFFFFFFFFFFFFFFFFFFFFFFFFF AND PUSH32 0x8C5BE1E5EBEC7D5BD14F71427D1E84F3DD0314C0F7B2291E5B200AC8C7C3B925 DUP5 PUSH1 0x40 MLOAD PUSH2 0x1444 SWAP2 SWAP1 PUSH2 0x1BE5 JUMP JUMPDEST PUSH1 0x40 MLOAD DUP1 SWAP2 SUB SWAP1 LOG3 JUMPDEST POP POP POP POP JUMP JUMPDEST PUSH1 0x7 PUSH0 DUP5 PUSH20 0xFFFFFFFFFFFFFFFFFFFFFFFFFFFFFFFFFFFFFFFF AND PUSH20 0xFFFFFFFFFFFFFFFFFFFFFFFFFFFFFFFFFFFFFFFF AND DUP2 MSTORE PUSH1 0x20 ADD SWAP1 DUP2 MSTORE PUSH1 0x20 ADD PUSH0 KECCAK256 PUSH0 SWAP1 SLOAD SWAP1 PUSH2 0x100 EXP SWAP1 DIV PUSH1 0xFF AND ISZERO DUP1 ISZERO PUSH2 0x14F1 JUMPI POP PUSH1 0x7 PUSH0 DUP4 PUSH20 0xFFFFFFFFFFFFFFFFFFFFFFFFFFFFFFFFFFFFFFFF AND PUSH20 0xFFFFFFFFFFFFFFFFFFFFFFFFFFFFFFFFFFFFFFFF AND DUP2 MSTORE PUSH1 0x20 ADD SWAP1 DUP2 MSTORE PUSH1 0x20 ADD PUSH0 KECCAK256 PUSH0 SWAP1 SLOAD SWAP1 PUSH2 0x100 EXP SWAP1 DIV PUSH1 0xFF AND ISZERO JUMPDEST PUSH2 0x1530 JUMPI PUSH1 0x40 MLOAD PUSH32 0x8C379A000000000000000000000000000000000000000000000000000000000 DUP2 MSTORE PUSH1 0x4 ADD PUSH2 0x1527 SWAP1 PUSH2 0x1F52 JUMP JUMPDEST PUSH1 0x40 MLOAD DUP1 SWAP2 SUB SWAP1 REVERT JUMPDEST PUSH0 PUSH20 0xFFFFFFFFFFFFFFFFFFFFFFFFFFFFFFFFFFFFFFFF AND DUP4 PUSH20 0xFFFFFFFFFFFFFFFFFFFFFFFFFFFFFFFFFFFFFFFF AND EQ ISZERO DUP1 ISZERO PUSH2 0x1598 JUMPI POP PUSH0 PUSH20 0xFFFFFFFFFFFFFFFFFFFFFFFFFFFFFFFFFFFFFFFF AND DUP3 PUSH20 0xFFFFFFFFFFFFFFFFFFFFFFFFFFFFFFFFFFFFFFFF AND EQ ISZERO JUMPDEST ISZERO PUSH2 0x1680 JUMPI PUSH2 0x15C7 PUSH32 0xFACAF2747A7486CF5730E9265973FB54447D3ACE6E7E4711F6360826B0731941 DUP5 PUSH2 0x9D9 JUMP JUMPDEST PUSH2 0x1606 JUMPI PUSH1 0x40 MLOAD PUSH32 0x8C379A000000000000000000000000000000000000000000000000000000000 DUP2 MSTORE PUSH1 0x4 ADD PUSH2 0x15FD SWAP1 PUSH2 0x1FBA JUMP JUMPDEST PUSH1 0x40 MLOAD DUP1 SWAP2 SUB SWAP1 REVERT JUMPDEST PUSH2 0x1630 PUSH32 0xFACAF2747A7486CF5730E9265973FB54447D3ACE6E7E4711F6360826B0731941 DUP4 PUSH2 0x9D9 JUMP JUMPDEST PUSH2 0x167F JUMPI PUSH0 PUSH2 0x163E DUP4 PUSH2 0x95F JUMP JUMPDEST EQ PUSH2 0x167E JUMPI PUSH1 0x40 MLOAD PUSH32 0x8C379A000000000000000000000000000000000000000000000000000000000 DUP2 MSTORE PUSH1 0x4 ADD PUSH2 0x1675 SWAP1 PUSH2 0x2048 JUMP JUMPDEST PUSH1 0x40 MLOAD DUP1 SWAP2 SUB SWAP1 REVERT JUMPDEST JUMPDEST JUMPDEST PUSH2 0x168B DUP4 DUP4 DUP4 PUSH2 0x1762 JUMP JUMPDEST POP POP POP JUMP JUMPDEST PUSH2 0x169A DUP3 DUP3 PUSH2 0x9D9 JUMP JUMPDEST PUSH2 0x16DD JUMPI DUP1 DUP3 PUSH1 0x40 MLOAD PUSH32 0xE2517D3F00000000000000000000000000000000000000000000000000000000 DUP2 MSTORE PUSH1 0x4 ADD PUSH2 0x16D4 SWAP3 SWAP2 SWAP1 PUSH2 0x2066 JUMP JUMPDEST PUSH1 0x40 MLOAD DUP1 SWAP2 SUB SWAP1 REVERT JUMPDEST POP POP JUMP JUMPDEST PUSH2 0x16E9 PUSH2 0x7FC JUMP JUMPDEST PUSH2 0x171F JUMPI PUSH1 0x40 MLOAD PUSH32 0x8DFC202B00000000000000000000000000000000000000000000000000000000 DUP2 MSTORE PUSH1 0x4 ADD PUSH1 0x40 MLOAD DUP1 SWAP2 SUB SWAP1 REVERT JUMPDEST JUMP JUMPDEST PUSH2 0x1729 PUSH2 0x7FC JUMP JUMPDEST ISZERO PUSH2 0x1760 JUMPI PUSH1 0x40 MLOAD PUSH32 0xD93C066500000000000000000000000000000000000000000000000000000000 DUP2 MSTORE PUSH1 0x4 ADD PUSH1 0x40 MLOAD DUP1 SWAP2 SUB SWAP1 REVERT JUMPDEST JUMP JUMPDEST PUSH2 0x176A PUSH2 0x1721 JUMP JUMPDEST PUSH2 0x1775 DUP4 DUP4 DUP4 PUSH2 0x177A JUMP JUMPDEST POP POP POP JUMP JUMPDEST PUSH0 PUSH20 0xFFFFFFFFFFFFFFFFFFFFFFFFFFFFFFFFFFFFFFFF AND DUP4 PUSH20 0xFFFFFFFFFFFFFFFFFFFFFFFFFFFFFFFFFFFFFFFF AND SUB PUSH2 0x17CA JUMPI DUP1 PUSH1 0x2 PUSH0 DUP3 DUP3 SLOAD PUSH2 0x17BE SWAP2 SWAP1 PUSH2 0x20BA JUMP JUMPDEST SWAP3 POP POP DUP2 SWAP1 SSTORE POP PUSH2 0x1898 JUMP JUMPDEST PUSH0 PUSH0 PUSH0 DUP6 PUSH20 0xFFFFFFFFFFFFFFFFFFFFFFFFFFFFFFFFFFFFFFFF AND PUSH20 0xFFFFFFFFFFFFFFFFFFFFFFFFFFFFFFFFFFFFFFFF AND DUP2 MSTORE PUSH1 0x20 ADD SWAP1 DUP2 MSTORE PUSH1 0x20 ADD PUSH0 KECCAK256 SLOAD SWAP1 POP DUP2 DUP2 LT ISZERO PUSH2 0x1853 JUMPI DUP4 DUP2 DUP4 PUSH1 0x40 MLOAD PUSH32 0xE450D38C00000000000000000000000000000000000000000000000000000000 DUP2 MSTORE PUSH1 0x4 ADD PUSH2 0x184A SWAP4 SWAP3 SWAP2 SWAP1 PUSH2 0x1EBA JUMP JUMPDEST PUSH1 0x40 MLOAD DUP1 SWAP2 SUB SWAP1 REVERT JUMPDEST DUP2 DUP2 SUB PUSH0 PUSH0 DUP7 PUSH20 0xFFFFFFFFFFFFFFFFFFFFFFFFFFFFFFFFFFFFFFFF AND PUSH20 0xFFFFFFFFFFFFFFFFFFFFFFFFFFFFFFFFFFFFFFFF AND DUP2 MSTORE PUSH1 0x20 ADD SWAP1 DUP2 MSTORE PUSH1 0x20 ADD PUSH0 KECCAK256 DUP2 SWAP1 SSTORE POP POP JUMPDEST PUSH0 PUSH20 0xFFFFFFFFFFFFFFFFFFFFFFFFFFFFFFFFFFFFFFFF AND DUP3 PUSH20 0xFFFFFFFFFFFFFFFFFFFFFFFFFFFFFFFFFFFFFFFF AND SUB PUSH2 0x18DF JUMPI DUP1 PUSH1 0x2 PUSH0 DUP3 DUP3 SLOAD SUB SWAP3 POP POP DUP2 SWAP1 SSTORE POP PUSH2 0x1929 JUMP JUMPDEST DUP1 PUSH0 PUSH0 DUP5 PUSH20 0xFFFFFFFFFFFFFFFFFFFFFFFFFFFFFFFFFFFFFFFF AND PUSH20 0xFFFFFFFFFFFFFFFFFFFFFFFFFFFFFFFFFFFFFFFF AND DUP2 MSTORE PUSH1 0x20 ADD SWAP1 DUP2 MSTORE PUSH1 0x20 ADD PUSH0 KECCAK256 PUSH0 DUP3 DUP3 SLOAD ADD SWAP3 POP POP DUP2 SWAP1 SSTORE POP JUMPDEST DUP2 PUSH20 0xFFFFFFFFFFFFFFFFFFFFFFFFFFFFFFFFFFFFFFFF AND DUP4 PUSH20 0xFFFFFFFFFFFFFFFFFFFFFFFFFFFFFFFFFFFFFFFF AND PUSH32 0xDDF252AD1BE2C89B69C2B068FC378DAA952BA7F163C4A11628F55A4DF523B3EF DUP4 PUSH1 0x40 MLOAD PUSH2 0x1986 SWAP2 SWAP1 PUSH2 0x1BE5 JUMP JUMPDEST PUSH1 0x40 MLOAD DUP1 SWAP2 SUB SWAP1 LOG3 POP POP POP JUMP JUMPDEST PUSH0 PUSH0 REVERT JUMPDEST PUSH0 PUSH32 0xFFFFFFFF00000000000000000000000000000000000000000000000000000000 DUP3 AND SWAP1 POP SWAP2 SWAP1 POP JUMP JUMPDEST PUSH2 0x19CB DUP2 PUSH2 0x1997 JUMP JUMPDEST DUP2 EQ PUSH2 0x19D5 JUMPI PUSH0 PUSH0 REVERT JUMPDEST POP JUMP JUMPDEST PUSH0 DUP2 CALLDATALOAD SWAP1 POP PUSH2 0x19E6 DUP2 PUSH2 0x19C2 JUMP JUMPDEST SWAP3 SWAP2 POP POP JUMP JUMPDEST PUSH0 PUSH1 0x20 DUP3 DUP5 SUB SLT ISZERO PUSH2 0x1A01 JUMPI PUSH2 0x1A00 PUSH2 0x1993 JUMP JUMPDEST JUMPDEST PUSH0 PUSH2 0x1A0E DUP5 DUP3 DUP6 ADD PUSH2 0x19D8 JUMP JUMPDEST SWAP2 POP POP SWAP3 SWAP2 POP POP JUMP JUMPDEST PUSH0 DUP2 ISZERO ISZERO SWAP1 POP SWAP2 SWAP1 POP JUMP JUMPDEST PUSH2 0x1A2B DUP2 PUSH2 0x1A17 JUMP JUMPDEST DUP3 MSTORE POP POP JUMP JUMPDEST PUSH0 PUSH1 0x20 DUP3 ADD SWAP1 POP PUSH2 0x1A44 PUSH0 DUP4 ADD DUP5 PUSH2 0x1A22 JUMP JUMPDEST SWAP3 SWAP2 POP POP JUMP JUMPDEST PUSH0 DUP2 SWAP1 POP SWAP2 SWAP1 POP JUMP JUMPDEST PUSH2 0x1A5C DUP2 PUSH2 0x1A4A JUMP JUMPDEST DUP3 MSTORE POP POP JUMP JUMPDEST PUSH0 PUSH1 0x20 DUP3 ADD SWAP1 POP PUSH2 0x1A75 PUSH0 DUP4 ADD DUP5 PUSH2 0x1A53 JUMP JUMPDEST SWAP3 SWAP2 POP POP JUMP JUMPDEST PUSH0 DUP2 MLOAD SWAP1 POP SWAP2 SWAP1 POP JUMP JUMPDEST PUSH0 DUP3 DUP3 MSTORE PUSH1 0x20 DUP3 ADD SWAP1 POP SWAP3 SWAP2 POP POP JUMP JUMPDEST DUP3 DUP2 DUP4 MCOPY PUSH0 DUP4 DUP4 ADD MSTORE POP POP POP JUMP JUMPDEST PUSH0 PUSH1 0x1F NOT PUSH1 0x1F DUP4 ADD AND SWAP1 POP SWAP2 SWAP1 POP JUMP JUMPDEST PUSH0 PUSH2 0x1ABD DUP3 PUSH2 0x1A7B JUMP JUMPDEST PUSH2 0x1AC7 DUP2 DUP6 PUSH2 0x1A85 JUMP JUMPDEST SWAP4 POP PUSH2 0x1AD7 DUP2 DUP6 PUSH1 0x20 DUP7 ADD PUSH2 0x1A95 JUMP JUMPDEST PUSH2 0x1AE0 DUP2 PUSH2 0x1AA3 JUMP JUMPDEST DUP5 ADD SWAP2 POP POP SWAP3 SWAP2 POP POP JUMP JUMPDEST PUSH0 PUSH1 0x20 DUP3 ADD SWAP1 POP DUP2 DUP2 SUB PUSH0 DUP4 ADD MSTORE PUSH2 0x1B03 DUP2 DUP5 PUSH2 0x1AB3 JUMP JUMPDEST SWAP1 POP SWAP3 SWAP2 POP POP JUMP JUMPDEST PUSH0 PUSH20 0xFFFFFFFFFFFFFFFFFFFFFFFFFFFFFFFFFFFFFFFF DUP3 AND SWAP1 POP SWAP2 SWAP1 POP JUMP JUMPDEST PUSH0 PUSH2 0x1B34 DUP3 PUSH2 0x1B0B JUMP JUMPDEST SWAP1 POP SWAP2 SWAP1 POP JUMP JUMPDEST PUSH2 0x1B44 DUP2 PUSH2 0x1B2A JUMP JUMPDEST DUP2 EQ PUSH2 0x1B4E JUMPI PUSH0 PUSH0 REVERT JUMPDEST POP JUMP JUMPDEST PUSH0 DUP2 CALLDATALOAD SWAP1 POP PUSH2 0x1B5F DUP2 PUSH2 0x1B3B JUMP JUMPDEST SWAP3 SWAP2 POP POP JUMP JUMPDEST PUSH0 DUP2 SWAP1 POP SWAP2 SWAP1 POP JUMP JUMPDEST PUSH2 0x1B77 DUP2 PUSH2 0x1B65 JUMP JUMPDEST DUP2 EQ PUSH2 0x1B81 JUMPI PUSH0 PUSH0 REVERT JUMPDEST POP JUMP JUMPDEST PUSH0 DUP2 CALLDATALOAD SWAP1 POP PUSH2 0x1B92 DUP2 PUSH2 0x1B6E JUMP JUMPDEST SWAP3 SWAP2 POP POP JUMP JUMPDEST PUSH0 PUSH0 PUSH1 0x40 DUP4 DUP6 SUB SLT ISZERO PUSH2 0x1BAE JUMPI PUSH2 0x1BAD PUSH2 0x1993 JUMP JUMPDEST JUMPDEST PUSH0 PUSH2 0x1BBB DUP6 DUP3 DUP7 ADD PUSH2 0x1B51 JUMP JUMPDEST SWAP3 POP POP PUSH1 0x20 PUSH2 0x1BCC DUP6 DUP3 DUP7 ADD PUSH2 0x1B84 JUMP JUMPDEST SWAP2 POP POP SWAP3 POP SWAP3 SWAP1 POP JUMP JUMPDEST PUSH2 0x1BDF DUP2 PUSH2 0x1B65 JUMP JUMPDEST DUP3 MSTORE POP POP JUMP JUMPDEST PUSH0 PUSH1 0x20 DUP3 ADD SWAP1 POP PUSH2 0x1BF8 PUSH0 DUP4 ADD DUP5 PUSH2 0x1BD6 JUMP JUMPDEST SWAP3 SWAP2 POP POP JUMP JUMPDEST PUSH0 PUSH0 PUSH0 PUSH1 0x60 DUP5 DUP7 SUB SLT ISZERO PUSH2 0x1C15 JUMPI PUSH2 0x1C14 PUSH2 0x1993 JUMP JUMPDEST JUMPDEST PUSH0 PUSH2 0x1C22 DUP7 DUP3 DUP8 ADD PUSH2 0x1B51 JUMP JUMPDEST SWAP4 POP POP PUSH1 0x20 PUSH2 0x1C33 DUP7 DUP3 DUP8 ADD PUSH2 0x1B51 JUMP JUMPDEST SWAP3 POP POP PUSH1 0x40 PUSH2 0x1C44 DUP7 DUP3 DUP8 ADD PUSH2 0x1B84 JUMP JUMPDEST SWAP2 POP POP SWAP3 POP SWAP3 POP SWAP3 JUMP JUMPDEST PUSH2 0x1C57 DUP2 PUSH2 0x1A4A JUMP JUMPDEST DUP2 EQ PUSH2 0x1C61 JUMPI PUSH0 PUSH0 REVERT JUMPDEST POP JUMP JUMPDEST PUSH0 DUP2 CALLDATALOAD SWAP1 POP PUSH2 0x1C72 DUP2 PUSH2 0x1C4E JUMP JUMPDEST SWAP3 SWAP2 POP POP JUMP JUMPDEST PUSH0 PUSH1 0x20 DUP3 DUP5 SUB SLT ISZERO PUSH2 0x1C8D JUMPI PUSH2 0x1C8C PUSH2 0x1993 JUMP JUMPDEST JUMPDEST PUSH0 PUSH2 0x1C9A DUP5 DUP3 DUP6 ADD PUSH2 0x1C64 JUMP JUMPDEST SWAP2 POP POP SWAP3 SWAP2 POP POP JUMP JUMPDEST PUSH0 PUSH0 PUSH1 0x40 DUP4 DUP6 SUB SLT ISZERO PUSH2 0x1CB9 JUMPI PUSH2 0x1CB8 PUSH2 0x1993 JUMP JUMPDEST JUMPDEST PUSH0 PUSH2 0x1CC6 DUP6 DUP3 DUP7 ADD PUSH2 0x1C64 JUMP JUMPDEST SWAP3 POP POP PUSH1 0x20 PUSH2 0x1CD7 DUP6 DUP3 DUP7 ADD PUSH2 0x1B51 JUMP JUMPDEST SWAP2 POP POP SWAP3 POP SWAP3 SWAP1 POP JUMP JUMPDEST PUSH0 PUSH1 0xFF DUP3 AND SWAP1 POP SWAP2 SWAP1 POP JUMP JUMPDEST PUSH2 0x1CF6 DUP2 PUSH2 0x1CE1 JUMP JUMPDEST DUP3 MSTORE POP POP JUMP JUMPDEST PUSH0 PUSH1 0x20 DUP3 ADD SWAP1 POP PUSH2 0x1D0F PUSH0 DUP4 ADD DUP5 PUSH2 0x1CED JUMP JUMPDEST SWAP3 SWAP2 POP POP JUMP JUMPDEST PUSH0 PUSH1 0x20 DUP3 DUP5 SUB SLT ISZERO PUSH2 0x1D2A JUMPI PUSH2 0x1D29 PUSH2 0x1993 JUMP JUMPDEST JUMPDEST PUSH0 PUSH2 0x1D37 DUP5 DUP3 DUP6 ADD PUSH2 0x1B51 JUMP JUMPDEST SWAP2 POP POP SWAP3 SWAP2 POP POP JUMP JUMPDEST PUSH0 PUSH0 PUSH1 0x40 DUP4 DUP6 SUB SLT ISZERO PUSH2 0x1D56 JUMPI PUSH2 0x1D55 PUSH2 0x1993 JUMP JUMPDEST JUMPDEST PUSH0 PUSH2 0x1D63 DUP6 DUP3 DUP7 ADD PUSH2 0x1B51 JUMP JUMPDEST SWAP3 POP POP PUSH1 0x20 PUSH2 0x1D74 DUP6 DUP3 DUP7 ADD PUSH2 0x1B51 JUMP JUMPDEST SWAP2 POP POP SWAP3 POP SWAP3 SWAP1 POP JUMP JUMPDEST PUSH32 0x4E487B7100000000000000000000000000000000000000000000000000000000 PUSH0 MSTORE PUSH1 0x22 PUSH1 0x4 MSTORE PUSH1 0x24 PUSH0 REVERT JUMPDEST PUSH0 PUSH1 0x2 DUP3 DIV SWAP1 POP PUSH1 0x1 DUP3 AND DUP1 PUSH2 0x1DC2 JUMPI PUSH1 0x7F DUP3 AND SWAP2 POP JUMPDEST PUSH1 0x20 DUP3 LT DUP2 SUB PUSH2 0x1DD5 JUMPI PUSH2 0x1DD4 PUSH2 0x1D7E JUMP JUMPDEST JUMPDEST POP SWAP2 SWAP1 POP JUMP JUMPDEST PUSH32 0x4E6F742066726F7A656E00000000000000000000000000000000000000000000 PUSH0 DUP3 ADD MSTORE POP JUMP JUMPDEST PUSH0 PUSH2 0x1E0F PUSH1 0xA DUP4 PUSH2 0x1A85 JUMP JUMPDEST SWAP2 POP PUSH2 0x1E1A DUP3 PUSH2 0x1DDB JUMP JUMPDEST PUSH1 0x20 DUP3 ADD SWAP1 POP SWAP2 SWAP1 POP JUMP JUMPDEST PUSH0 PUSH1 0x20 DUP3 ADD SWAP1 POP DUP2 DUP2 SUB PUSH0 DUP4 ADD MSTORE PUSH2 0x1E3C DUP2 PUSH2 0x1E03 JUMP JUMPDEST SWAP1 POP SWAP2 SWAP1 POP JUMP JUMPDEST PUSH32 0x416C72656164792066726F7A656E000000000000000000000000000000000000 PUSH0 DUP3 ADD MSTORE POP JUMP JUMPDEST PUSH0 PUSH2 0x1E77 PUSH1 0xE DUP4 PUSH2 0x1A85 JUMP JUMPDEST SWAP2 POP PUSH2 0x1E82 DUP3 PUSH2 0x1E43 JUMP JUMPDEST PUSH1 0x20 DUP3 ADD SWAP1 POP SWAP2 SWAP1 POP JUMP JUMPDEST PUSH0 PUSH1 0x20 DUP3 ADD SWAP1 POP DUP2 DUP2 SUB PUSH0 DUP4 ADD MSTORE PUSH2 0x1EA4 DUP2 PUSH2 0x1E6B JUMP JUMPDEST SWAP1 POP SWAP2 SWAP1 POP JUMP JUMPDEST PUSH2 0x1EB4 DUP2 PUSH2 0x1B2A JUMP JUMPDEST DUP3 MSTORE POP POP JUMP JUMPDEST PUSH0 PUSH1 0x60 DUP3 ADD SWAP1 POP PUSH2 0x1ECD PUSH0 DUP4 ADD DUP7 PUSH2 0x1EAB JUMP JUMPDEST PUSH2 0x1EDA PUSH1 0x20 DUP4 ADD DUP6 PUSH2 0x1BD6 JUMP JUMPDEST PUSH2 0x1EE7 PUSH1 0x40 DUP4 ADD DUP5 PUSH2 0x1BD6 JUMP JUMPDEST SWAP5 SWAP4 POP POP POP POP JUMP JUMPDEST PUSH0 PUSH1 0x20 DUP3 ADD SWAP1 POP PUSH2 0x1F02 PUSH0 DUP4 ADD DUP5 PUSH2 0x1EAB JUMP JUMPDEST SWAP3 SWAP2 POP POP JUMP JUMPDEST PUSH32 0x57616C6C65742069732066726F7A656E00000000000000000000000000000000 PUSH0 DUP3 ADD MSTORE POP JUMP JUMPDEST PUSH0 PUSH2 0x1F3C PUSH1 0x10 DUP4 PUSH2 0x1A85 JUMP JUMPDEST SWAP2 POP PUSH2 0x1F47 DUP3 PUSH2 0x1F08 JUMP JUMPDEST PUSH1 0x20 DUP3 ADD SWAP1 POP SWAP2 SWAP1 POP JUMP JUMPDEST PUSH0 PUSH1 0x20 DUP3 ADD SWAP1 POP DUP2 DUP2 SUB PUSH0 DUP4 ADD MSTORE PUSH2 0x1F69 DUP2 PUSH2 0x1F30 JUMP JUMPDEST SWAP1 POP SWAP2 SWAP1 POP JUMP JUMPDEST PUSH32 0x53656E646572206C61636B73205452414445525F524F4C450000000000000000 PUSH0 DUP3 ADD MSTORE POP JUMP JUMPDEST PUSH0 PUSH2 0x1FA4 PUSH1 0x18 DUP4 PUSH2 0x1A85 JUMP JUMPDEST SWAP2 POP PUSH2 0x1FAF DUP3 PUSH2 0x1F70 JUMP JUMPDEST PUSH1 0x20 DUP3 ADD SWAP1 POP SWAP2 SWAP1 POP JUMP JUMPDEST PUSH0 PUSH1 0x20 DUP3 ADD SWAP1 POP DUP2 DUP2 SUB PUSH0 DUP4 ADD MSTORE PUSH2 0x1FD1 DUP2 PUSH2 0x1F98 JUMP JUMPDEST SWAP1 POP SWAP2 SWAP1 POP JUMP JUMPDEST PUSH32 0x5265636569766572206861732062616C616E636520627574206C61636B732054 PUSH0 DUP3 ADD MSTORE PUSH32 0x52414445525F524F4C4500000000000000000000000000000000000000000000 PUSH1 0x20 DUP3 ADD MSTORE POP JUMP JUMPDEST PUSH0 PUSH2 0x2032 PUSH1 0x2A DUP4 PUSH2 0x1A85 JUMP JUMPDEST SWAP2 POP PUSH2 0x203D DUP3 PUSH2 0x1FD8 JUMP JUMPDEST PUSH1 0x40 DUP3 ADD SWAP1 POP SWAP2 SWAP1 POP JUMP JUMPDEST PUSH0 PUSH1 0x20 DUP3 ADD SWAP1 POP DUP2 DUP2 SUB PUSH0 DUP4 ADD MSTORE PUSH2 0x205F DUP2 PUSH2 0x2026 JUMP JUMPDEST SWAP1 POP SWAP2 SWAP1 POP JUMP JUMPDEST PUSH0 PUSH1 0x40 DUP3 ADD SWAP1 POP PUSH2 0x2079 PUSH0 DUP4 ADD DUP6 PUSH2 0x1EAB JUMP JUMPDEST PUSH2 0x2086 PUSH1 0x20 DUP4 ADD DUP5 PUSH2 0x1A53 JUMP JUMPDEST SWAP4 SWAP3 POP POP POP JUMP JUMPDEST PUSH32 0x4E487B7100000000000000000000000000000000000000000000000000000000 PUSH0 MSTORE PUSH1 0x11 PUSH1 0x4 MSTORE PUSH1 0x24 PUSH0 REVERT JUMPDEST PUSH0 PUSH2 0x20C4 DUP3 PUSH2 0x1B65 JUMP JUMPDEST SWAP2 POP PUSH2 0x20CF DUP4 PUSH2 0x1B65 JUMP JUMPDEST SWAP3 POP DUP3 DUP3 ADD SWAP1 POP DUP1 DUP3 GT ISZERO PUSH2 0x20E7 JUMPI PUSH2 0x20E6 PUSH2 0x208D JUMP JUMPDEST JUMPDEST SWAP3 SWAP2 POP POP JUMP INVALID LOG2 PUSH5 0x6970667358 0x22 SLT KECCAK256 0x4F PUSH13 0xC2974CFD5E7F59459701F84535 DUP1 RETF DUP13 PUSH32 0xCC3E02A8F3F2980201B40FDBE264736F6C634300082200330000000000000000 "
	},
	"Assembly": ".code\n  PUSH 80\t\t\tcontract Rinanze is ERC20, ERC...\n  PUSH 40\t\t\tcontract Rinanze is ERC20, ERC...\n  MSTORE \t\t\tcontract Rinanze is ERC20, ERC...\n  CALLVALUE \t\t\tconstructor() ERC20(\"RINANZE\",...\n  DUP1 \t\t\tconstructor() ERC20(\"RINANZE\",...\n  ISZERO \t\t\tconstructor() ERC20(\"RINANZE\",...\n  PUSH [tag] 1\t\t\tconstructor() ERC20(\"RINANZE\",...\n  JUMPI \t\t\tconstructor() ERC20(\"RINANZE\",...\n  PUSH 0\t\t\tconstructor() ERC20(\"RINANZE\",...\n  PUSH 0\t\t\tconstructor() ERC20(\"RINANZE\",...\n  REVERT \t\t\tconstructor() ERC20(\"RINANZE\",...\ntag 1\t\t\tconstructor() ERC20(\"RINANZE\",...\n  JUMPDEST \t\t\tconstructor() ERC20(\"RINANZE\",...\n  POP \t\t\tconstructor() ERC20(\"RINANZE\",...\n  PUSH 40\t\t\trozen\");\\n        _frozenWalle...\n  MLOAD \t\t\trozen\");\\n        _frozenWalle...\n  DUP1 \t\t\trozen\");\\n        _frozenWalle...\n  PUSH 40\t\t\trozen\");\\n        _frozenWalle...\n  ADD \t\t\trozen\");\\n        _frozenWalle...\n  PUSH 40\t\t\trozen\");\\n        _frozenWalle...\n  MSTORE \t\t\trozen\");\\n        _frozenWalle...\n  DUP1 \t\t\trozen\");\\n        _frozenWalle...\n  PUSH 7\t\t\trozen\");\\n        _frozenWalle...\n  DUP2 \t\t\trozen\");\\n        _frozenWalle...\n  MSTORE \t\t\trozen\");\\n        _frozenWalle...\n  PUSH 20\t\t\trozen\");\\n        _frozenWalle...\n  ADD \t\t\trozen\");\\n        _frozenWalle...\n  PUSH 52494E414E5A4500000000000000000000000000000000000000000000000000\t\t\trozen\");\\n        _frozenWalle...\n  DUP2 \t\t\trozen\");\\n        _frozenWalle...\n  MSTORE \t\t\trozen\");\\n        _frozenWalle...\n  POP \t\t\trozen\");\\n        _frozenWalle...\n  PUSH 40\t\t\trozen\");\\n        _frozenWalle...\n  MLOAD \t\t\trozen\");\\n        _frozenWalle...\n  DUP1 \t\t\trozen\");\\n        _frozenWalle...\n  PUSH 40\t\t\trozen\");\\n        _frozenWalle...\n  ADD \t\t\trozen\");\\n        _frozenWalle...\n  PUSH 40\t\t\trozen\");\\n        _frozenWalle...\n  MSTORE \t\t\trozen\");\\n        _frozenWalle...\n  DUP1 \t\t\trozen\");\\n        _frozenWalle...\n  PUSH 3\t\t\trozen\");\\n        _frozenWalle...\n  DUP2 \t\t\trozen\");\\n        _frozenWalle...\n  MSTORE \t\t\trozen\");\\n        _frozenWalle...\n  PUSH 20\t\t\trozen\");\\n        _frozenWalle...\n  ADD \t\t\trozen\");\\n        _frozenWalle...\n  PUSH 52494E0000000000000000000000000000000000000000000000000000000000\t\t\trozen\");\\n        _frozenWalle...\n  DUP2 \t\t\trozen\");\\n        _frozenWalle...\n  MSTORE \t\t\trozen\");\\n        _frozenWalle...\n  POP \t\t\trozen\");\\n        _frozenWalle...\n  DUP2 \t\t\t(acco\n  PUSH 3\t\t\tetFro\n  SWAP1 \t\t\tetFrozen(acco\n  DUP2 \t\t\tetFrozen(acco\n  PUSH [tag] 5\t\t\tetFrozen(acco\n  SWAP2 \t\t\tetFrozen(acco\n  SWAP1 \t\t\tetFrozen(acco\n  PUSH [tag] 6\t\t\tetFrozen(acco\n  JUMP \t\t\tetFrozen(acco\ntag 5\t\t\tetFrozen(acco\n  JUMPDEST \t\t\tetFrozen(acco\n  POP \t\t\tetFrozen(acco\n  DUP1 \t\t\tction u\n  PUSH 4\t\t\t}\\n\\n    \n  SWAP1 \t\t\t}\\n\\n    function u\n  DUP2 \t\t\t}\\n\\n    function u\n  PUSH [tag] 7\t\t\t}\\n\\n    function u\n  SWAP2 \t\t\t}\\n\\n    function u\n  SWAP1 \t\t\t}\\n\\n    function u\n  PUSH [tag] 6\t\t\t}\\n\\n    function u\n  JUMP \t\t\t}\\n\\n    function u\ntag 7\t\t\t}\\n\\n    function u\n  JUMPDEST \t\t\t}\\n\\n    function u\n  POP \t\t\t}\\n\\n    function u\n  POP \t\t\trozen\");\\n        _frozenWalle...\n  POP \t\t\trozen\");\\n        _frozenWalle...\n  PUSH [tag] 9\t\t\t_grantRole(DEFAULT_ADMIN_ROLE,...\n  PUSH 0\t\t\t Fre\n  PUSH 0\t\t\tDEFAULT_ADMIN_ROLE\n  SHL \t\t\tDEFAULT_ADMIN_ROLE\n  CALLER \t\t\tmsg.sender\n  PUSH [tag] 10\t\t\t_grantRole\n  PUSH 20\t\t\t_grantRole\n  SHL \t\t\t_grantRole\n  PUSH 20\t\t\t_grantRole(DEFAULT_ADMIN_ROLE,...\n  SHR \t\t\t_grantRole(DEFAULT_ADMIN_ROLE,...\n  JUMP \t\t\t_grantRole(DEFAULT_ADMIN_ROLE,...\ntag 9\t\t\t_grantRole(DEFAULT_ADMIN_ROLE,...\n  JUMPDEST \t\t\t_grantRole(DEFAULT_ADMIN_ROLE,...\n  POP \t\t\t_grantRole(DEFAULT_ADMIN_ROLE,...\n  PUSH [tag] 11\t\t\t_grantRole(MINTER_ROLE, msg.se...\n  PUSH 9F2DF0FED2C77648DE5860A4CC508CD0818C85B8B8A1AB4CEEEF8D981C8956A6\t\t\tkeccak256(\"MINTER_ROLE\")\n  CALLER \t\t\tmsg.sender\n  PUSH [tag] 10\t\t\t_grantRole\n  PUSH 20\t\t\t_grantRole\n  SHL \t\t\t_grantRole\n  PUSH 20\t\t\t_grantRole(MINTER_ROLE, msg.se...\n  SHR \t\t\t_grantRole(MINTER_ROLE, msg.se...\n  JUMP \t\t\t_grantRole(MINTER_ROLE, msg.se...\ntag 11\t\t\t_grantRole(MINTER_ROLE, msg.se...\n  JUMPDEST \t\t\t_grantRole(MINTER_ROLE, msg.se...\n  POP \t\t\t_grantRole(MINTER_ROLE, msg.se...\n  PUSH [tag] 12\t\t\t_grantRole(FREEZER_ROLE, msg.s...\n  PUSH 92DE27771F92D6942691D73358B3A4673E4880DE8356F8F2CF452BE87E02D363\t\t\tkeccak256(\"FREEZER_ROLE\")\n  CALLER \t\t\tmsg.sender\n  PUSH [tag] 10\t\t\t_grantRole\n  PUSH 20\t\t\t_grantRole\n  SHL \t\t\t_grantRole\n  PUSH 20\t\t\t_grantRole(FREEZER_ROLE, msg.s...\n  SHR \t\t\t_grantRole(FREEZER_ROLE, msg.s...\n  JUMP \t\t\t_grantRole(FREEZER_ROLE, msg.s...\ntag 12\t\t\t_grantRole(FREEZER_ROLE, msg.s...\n  JUMPDEST \t\t\t_grantRole(FREEZER_ROLE, msg.s...\n  POP \t\t\t_grantRole(FREEZER_ROLE, msg.s...\n  PUSH [tag] 13\t\t\t_grantRole(PAUSER_ROLE, msg.se...\n  PUSH 65D7A28E3265B37A6474929F336521B332C1681B933F6CB9F3376673440D862A\t\t\tkeccak256(\"PAUSER_ROLE\")\n  CALLER \t\t\tmsg.sender\n  PUSH [tag] 10\t\t\t_grantRole\n  PUSH 20\t\t\t_grantRole\n  SHL \t\t\t_grantRole\n  PUSH 20\t\t\t_grantRole(PAUSER_ROLE, msg.se...\n  SHR \t\t\t_grantRole(PAUSER_ROLE, msg.se...\n  JUMP \t\t\t_grantRole(PAUSER_ROLE, msg.se...\ntag 13\t\t\t_grantRole(PAUSER_ROLE, msg.se...\n  JUMPDEST \t\t\t_grantRole(PAUSER_ROLE, msg.se...\n  POP \t\t\t_grantRole(PAUSER_ROLE, msg.se...\n  PUSH [tag] 14\t\t\t_grantRole(TRADER_ROLE, msg.se...\n  PUSH FACAF2747A7486CF5730E9265973FB54447D3ACE6E7E4711F6360826B0731941\t\t\tkeccak256(\"TRADER_ROLE\")\n  CALLER \t\t\tmsg.sender\n  PUSH [tag] 10\t\t\t_grantRole\n  PUSH 20\t\t\t_grantRole\n  SHL \t\t\t_grantRole\n  PUSH 20\t\t\t_grantRole(TRADER_ROLE, msg.se...\n  SHR \t\t\t_grantRole(TRADER_ROLE, msg.se...\n  JUMP \t\t\t_grantRole(TRADER_ROLE, msg.se...\ntag 14\t\t\t_grantRole(TRADER_ROLE, msg.se...\n  JUMPDEST \t\t\t_grantRole(TRADER_ROLE, msg.se...\n  POP \t\t\t_grantRole(TRADER_ROLE, msg.se...\n  PUSH [tag] 15\t\t\tcontract Rinanze is ERC20, ERC...\n  JUMP \t\t\tcontract Rinanze is ERC20, ERC...\ntag 10\t\t\t\n  JUMPDEST \t\t\t\n  PUSH 0\t\t\t\n  PUSH [tag] 17\t\t\t\n  DUP4 \t\t\t\n  DUP4 \t\t\t\n  PUSH [tag] 18\t\t\t\n  PUSH 20\t\t\t\n  SHL \t\t\t\n  PUSH 20\t\t\t\n  SHR \t\t\t\n  JUMP \t\t\t\ntag 17\t\t\t\n  JUMPDEST \t\t\t\n  PUSH [tag] 19\t\t\t\n  JUMPI \t\t\t\n  PUSH 1\t\t\t\n  PUSH 6\t\t\t\n  PUSH 0\t\t\t\n  DUP6 \t\t\t\n  DUP2 \t\t\t\n  MSTORE \t\t\t\n  PUSH 20\t\t\t\n  ADD \t\t\t\n  SWAP1 \t\t\t\n  DUP2 \t\t\t\n  MSTORE \t\t\t\n  PUSH 20\t\t\t\n  ADD \t\t\t\n  PUSH 0\t\t\t\n  KECCAK256 \t\t\t\n  PUSH 0\t\t\t\n  ADD \t\t\t\n  PUSH 0\t\t\t\n  DUP5 \t\t\t\n  PUSH FFFFFFFFFFFFFFFFFFFFFFFFFFFFFFFFFFFFFFFF\t\t\t\n  AND \t\t\t\n  PUSH FFFFFFFFFFFFFFFFFFFFFFFFFFFFFFFFFFFFFFFF\t\t\t\n  AND \t\t\t\n  DUP2 \t\t\t\n  MSTORE \t\t\t\n  PUSH 20\t\t\t\n  ADD \t\t\t\n  SWAP1 \t\t\t\n  DUP2 \t\t\t\n  MSTORE \t\t\t\n  PUSH 20\t\t\t\n  ADD \t\t\t\n  PUSH 0\t\t\t\n  KECCAK256 \t\t\t\n  PUSH 0\t\t\t\n  PUSH 100\t\t\t\n  EXP \t\t\t\n  DUP2 \t\t\t\n  SLOAD \t\t\t\n  DUP2 \t\t\t\n  PUSH FF\t\t\t\n  MUL \t\t\t\n  NOT \t\t\t\n  AND \t\t\t\n  SWAP1 \t\t\t\n  DUP4 \t\t\t\n  ISZERO \t\t\t\n  ISZERO \t\t\t\n  MUL \t\t\t\n  OR \t\t\t\n  SWAP1 \t\t\t\n  SSTORE \t\t\t\n  POP \t\t\t\n  PUSH [tag] 20\t\t\t\n  PUSH [tag] 21\t\t\t\n  PUSH 20\t\t\t\n  SHL \t\t\t\n  PUSH 20\t\t\t\n  SHR \t\t\t\n  JUMP \t\t\t\ntag 20\t\t\t\n  JUMPDEST \t\t\t\n  PUSH FFFFFFFFFFFFFFFFFFFFFFFFFFFFFFFFFFFFFFFF\t\t\t\n  AND \t\t\t\n  DUP3 \t\t\t\n  PUSH FFFFFFFFFFFFFFFFFFFFFFFFFFFFFFFFFFFFFFFF\t\t\t\n  AND \t\t\t\n  DUP5 \t\t\t\n  PUSH 2F8788117E7EFF1D82E926EC794901D17C78024A50270940304540A733656F0D\t\t\t\n  PUSH 40\t\t\t\n  MLOAD \t\t\t\n  PUSH 40\t\t\t\n  MLOAD \t\t\t\n  DUP1 \t\t\t\n  SWAP2 \t\t\t\n  SUB \t\t\t\n  SWAP1 \t\t\t\n  LOG4 \t\t\t\n  PUSH 1\t\t\t\n  SWAP1 \t\t\t\n  POP \t\t\t\n  PUSH [tag] 16\t\t\t\n  JUMP \t\t\t\ntag 19\t\t\t\n  JUMPDEST \t\t\t\n  PUSH 0\t\t\t\n  SWAP1 \t\t\t\n  POP \t\t\t\ntag 16\t\t\t\n  JUMPDEST \t\t\t\n  SWAP3 \t\t\t\n  SWAP2 \t\t\t\n  POP \t\t\t\n  POP \t\t\t\n  JUMP \t\t\t\ntag 18\t\t\tlacks TRADER_ROLE\");\\n        ...\n  JUMPDEST \t\t\tlacks TRADER_ROLE\");\\n        ...\n  PUSH 0\t\t\t han\n  PUSH 6\t\t\t actua\n  PUSH 0\t\t\t actual tran\n  DUP5 \t\t\t tra\n  DUP2 \t\t\t actual tran\n  MSTORE \t\t\t actual tran\n  PUSH 20\t\t\t actual tran\n  ADD \t\t\t actual tran\n  SWAP1 \t\t\t actual tran\n  DUP2 \t\t\t actual tran\n  MSTORE \t\t\t actual tran\n  PUSH 20\t\t\t actual tran\n  ADD \t\t\t actual tran\n  PUSH 0\t\t\t actual tran\n  KECCAK256 \t\t\t actual tran\n  PUSH 0\t\t\t actual transfer\\n   \n  ADD \t\t\t actual transfer\\n   \n  PUSH 0\t\t\t actual transfer\\n        supe\n  DUP4 \t\t\t    sup\n  PUSH FFFFFFFFFFFFFFFFFFFFFFFFFFFFFFFFFFFFFFFF\t\t\t actual transfer\\n        supe\n  AND \t\t\t actual transfer\\n        supe\n  PUSH FFFFFFFFFFFFFFFFFFFFFFFFFFFFFFFFFFFFFFFF\t\t\t actual transfer\\n        supe\n  AND \t\t\t actual transfer\\n        supe\n  DUP2 \t\t\t actual transfer\\n        supe\n  MSTORE \t\t\t actual transfer\\n        supe\n  PUSH 20\t\t\t actual transfer\\n        supe\n  ADD \t\t\t actual transfer\\n        supe\n  SWAP1 \t\t\t actual transfer\\n        supe\n  DUP2 \t\t\t actual transfer\\n        supe\n  MSTORE \t\t\t actual transfer\\n        supe\n  PUSH 20\t\t\t actual transfer\\n        supe\n  ADD \t\t\t actual transfer\\n        supe\n  PUSH 0\t\t\t actual transfer\\n        supe\n  KECCAK256 \t\t\t actual transfer\\n        supe\n  PUSH 0\t\t\t actual transfer\\n        supe\n  SWAP1 \t\t\t actual transfer\\n        supe\n  SLOAD \t\t\t actual transfer\\n        supe\n  SWAP1 \t\t\t actual transfer\\n        supe\n  PUSH 100\t\t\t actual transfer\\n        supe\n  EXP \t\t\t actual transfer\\n        supe\n  SWAP1 \t\t\t actual transfer\\n        supe\n  DIV \t\t\t actual transfer\\n        supe\n  PUSH FF\t\t\t actual transfer\\n        supe\n  AND \t\t\t actual transfer\\n        supe\n  SWAP1 \t\t\teck and actual transfer\\n     ...\n  POP \t\t\teck and actual transfer\\n     ...\n  SWAP3 \t\t\tlacks TRADER_ROLE\");\\n        ...\n  SWAP2 \t\t\tlacks TRADER_ROLE\");\\n        ...\n  POP \t\t\tlacks TRADER_ROLE\");\\n        ...\n  POP \t\t\tlacks TRADER_ROLE\");\\n        ...\n  JUMP \t\t\tlacks TRADER_ROLE\");\\n        ...\ntag 21\t\t\ting(address => bool) private _...\n  JUMPDEST \t\t\ting(address => bool) private _...\n  PUSH 0\t\t\tEvents\\n\n  CALLER \t\t\tzen(addres\n  SWAP1 \t\t\tlletFrozen(addres\n  POP \t\t\tlletFrozen(addres\n  SWAP1 \t\t\ting(address => bool) private _...\n  JUMP \t\t\ting(address => bool) private _...\ntag 25\t\t\t-License-Identifier: MIT\\nprag...\n  JUMPDEST \t\t\t-License-Identifier: MIT\\nprag...\n  PUSH 0\t\t\tport \"\n  DUP2 \t\t\tn/ERC\n  MLOAD \t\t\ts/token/ERC2\n  SWAP1 \t\t\tn/contracts/token/ERC2\n  POP \t\t\tn/contracts/token/ERC2\n  SWAP2 \t\t\t-License-Identifier: MIT\\nprag...\n  SWAP1 \t\t\t-License-Identifier: MIT\\nprag...\n  POP \t\t\t-License-Identifier: MIT\\nprag...\n  JUMP \t\t\t-License-Identifier: MIT\\nprag...\ntag 26\t\t\t\\nimport \"@openzeppelin/contra...\n  JUMPDEST \t\t\t\\nimport \"@openzeppelin/contra...\n  PUSH 4E487B7100000000000000000000000000000000000000000000000000000000\t\t\tensions/ERC20Pausable.sol\";\\ni...\n  PUSH 0\t\t\te\n  MSTORE \t\t\t/ERC20/extensions/ERC20Pausabl...\n  PUSH 41\t\t\tRina\n  PUSH 4\t\t\tc\n  MSTORE \t\t\t\\ncontract Rinan\n  PUSH 24\t\t\tausa\n  PUSH 0\t\t\t2\n  REVERT \t\t\t20, ERC20Pausab\ntag 27\t\t\tntrol {\\n    // Role identifie...\n  JUMPDEST \t\t\tntrol {\\n    // Role identifie...\n  PUSH 4E487B7100000000000000000000000000000000000000000000000000000000\t\t\tic constant MINTER_ROLE = kecc...\n  PUSH 0\t\t\tu\n  MSTORE \t\t\ttes32 public constant MINTER_R...\n  PUSH 22\t\t\tccak\n  PUSH 4\t\t\t \n  MSTORE \t\t\t_ROLE = keccak2\n  PUSH 24\t\t\t\\n   \n  PUSH 0\t\t\t\"\n  REVERT \t\t\tER_ROLE\");\\n    \ntag 28\t\t\tic constant PAUSER_ROLE = kecc...\n  JUMPDEST \t\t\tic constant PAUSER_ROLE = kecc...\n  PUSH 0\t\t\tROLE\")\n  PUSH 2\t\t\tR\n  DUP3 \t\t\ttant\n  DIV \t\t\tconstant TRA\n  SWAP1 \t\t\t32 public constant TRA\n  POP \t\t\t32 public constant TRA\n  PUSH 1\t\t\t\\n\n  DUP3 \t\t\t// N\n  AND \t\t\t;   // NEW\\n\\n\n  DUP1 \t\t\tfrozen wallets\\n   \n  PUSH [tag] 50\t\t\torage for frozen wallets\\n    ...\n  JUMPI \t\t\torage for frozen wallets\\n    ...\n  PUSH 7F\t\t\tzenW\n  DUP3 \t\t\tate _f\n  AND \t\t\tprivate _frozenWa\n  SWAP2 \t\t\t => bool) private _frozenWa\n  POP \t\t\t => bool) private _frozenWa\ntag 50\t\t\torage for frozen wallets\\n    ...\n  JUMPDEST \t\t\torage for frozen wallets\\n    ...\n  PUSH 20\t\t\txe\n  DUP3 \t\t\tess in\n  LT \t\t\tddress indexed\n  DUP2 \t\t\tevent WalletFrozen\n  SUB \t\t\t   event WalletFrozen(address ...\n  PUSH [tag] 51\t\t\ts\\n    event WalletFrozen(addr...\n  JUMPI \t\t\ts\\n    event WalletFrozen(addr...\n  PUSH [tag] 52\t\t\tvent WalletUnfroze\n  PUSH [tag] 27\t\t\tvent WalletUnfroze\n  JUMP \t\t\tvent WalletUnfroze\ntag 52\t\t\tvent WalletUnfroze\n  JUMPDEST \t\t\tvent WalletUnfroze\ntag 51\t\t\ts\\n    event WalletFrozen(addr...\n  JUMPDEST \t\t\ts\\n    event WalletFrozen(addr...\n  POP \t\t\t\\n    bytes32 public constant ...\n  SWAP2 \t\t\tic constant PAUSER_ROLE = kecc...\n  SWAP1 \t\t\tic constant PAUSER_ROLE = kecc...\n  POP \t\t\tic constant PAUSER_ROLE = kecc...\n  JUMP \t\t\tic constant PAUSER_ROLE = kecc...\ntag 29\t\t\tunt);\\n    event Minted(addres...\n  JUMPDEST \t\t\tunt);\\n    event Minted(addres...\n  PUSH 0\t\t\t6 am\n  DUP2 \t\t\tcto\n  SWAP1 \t\t\t constructo\n  POP \t\t\t constructo\n  DUP2 \t\t\t \"R\n  PUSH 0\t\t\tE\n  MSTORE \t\t\t\"RINANZE\", \"RI\n  PUSH 20\t\t\tnce \n  PUSH 0\t\t\tr\n  KECCAK256 \t\t\tGrant governance r\n  SWAP1 \t\t\t     // Grant governance r\n  POP \t\t\t     // Grant governance r\n  SWAP2 \t\t\tunt);\\n    event Minted(addres...\n  SWAP1 \t\t\tunt);\\n    event Minted(addres...\n  POP \t\t\tunt);\\n    event Minted(addres...\n  JUMP \t\t\tunt);\\n    event Minted(addres...\ntag 30\t\t\tyer\\n        _grantRole(DEFAUL...\n  JUMPDEST \t\t\tyer\\n        _grantRole(DEFAUL...\n  PUSH 0\t\t\tROLE, \n  PUSH 20\t\t\tLE\n  PUSH 1F\t\t\tER\n  DUP4 \t\t\tle(MI\n  ADD \t\t\tntRole(MINTER_\n  DIV \t\t\t_grantRole(MINTER_ROLE,\n  SWAP1 \t\t\t;\\n        _grantRole(MINTER_R...\n  POP \t\t\t;\\n        _grantRole(MINTER_R...\n  SWAP2 \t\t\tyer\\n        _grantRole(DEFAUL...\n  SWAP1 \t\t\tyer\\n        _grantRole(DEFAUL...\n  POP \t\t\tyer\\n        _grantRole(DEFAUL...\n  JUMP \t\t\tyer\\n        _grantRole(DEFAUL...\ntag 31\t\t\t;\\n        _grantRole(FREEZER_...\n  JUMPDEST \t\t\t;\\n        _grantRole(FREEZER_...\n  PUSH 0\t\t\tr);\\n    \n  DUP3 \t\t\t     \n  DUP3 \t\t\ter);\n  SHL \t\t\tsender);\\n\\n      \n  SWAP1 \t\t\tole(PAUSER_ROLE, msg.sender);\\...\n  POP \t\t\tole(PAUSER_ROLE, msg.sender);\\...\n  SWAP3 \t\t\t;\\n        _grantRole(FREEZER_...\n  SWAP2 \t\t\t;\\n        _grantRole(FREEZER_...\n  POP \t\t\t;\\n        _grantRole(FREEZER_...\n  POP \t\t\t;\\n        _grantRole(FREEZER_...\n  JUMP \t\t\t;\\n        _grantRole(FREEZER_...\ntag 32\t\t\tADER_ROLE to the deployer so t...\n  JUMPDEST \t\t\tADER_ROLE to the deployer so t...\n  PUSH 0\t\t\tTRADER\n  PUSH 8\t\t\tn\n  DUP4 \t\t\t/ ----- Ad\n  MUL \t\t\t   // ----- Admin \n  PUSH [tag] 57\t\t\tfunction mint(address to, uint...\n  PUSH FFFFFFFFFFFFFFFFFFFFFFFFFFFFFFFFFFFFFFFFFFFFFFFFFFFFFFFFFFFFFFFF\t\t\t256 amount) external onlyRole(...\n  DUP3 \t\t\tss to, ui\n  PUSH [tag] 31\t\t\tfunction mint(address to, uint...\n  JUMP \t\t\tfunction mint(address to, uint...\ntag 57\t\t\tfunction mint(address to, uint...\n  JUMPDEST \t\t\tfunction mint(address to, uint...\n  PUSH [tag] 58\t\t\tted(to, amount);\\n    }\\n\\n   ...\n  DUP7 \t\t\tnction f\n  DUP4 \t\t\t  }\\n\\n    \n  PUSH [tag] 31\t\t\tted(to, amount);\\n    }\\n\\n   ...\n  JUMP \t\t\tted(to, amount);\\n    }\\n\\n   ...\ntag 58\t\t\tted(to, amount);\\n    }\\n\\n   ...\n  JUMPDEST \t\t\tted(to, amount);\\n    }\\n\\n   ...\n  SWAP6 \t\t\t    emit Minted(to, amount);\\n...\n  POP \t\t\t    emit Minted(to, amount);\\n...\n  DUP1 \t\t\tnal \n  NOT \t\t\txternal o\n  DUP5 \t\t\tount)\n  AND \t\t\t account) external on\n  SWAP4 \t\t\tt(address account) external on\n  POP \t\t\tt(address account) external on\n  DUP1 \t\t\tozen\n  DUP7 \t\t\tquire(!_\n  AND \t\t\t  require(!_frozenW\n  DUP5 \t\t\t\\n    \n  OR \t\t\t) {\\n        require(!_frozenW...\n  SWAP3 \t\t\tEEZER_ROLE) {\\n        require...\n  POP \t\t\tEEZER_ROLE) {\\n        require...\n  POP \t\t\tROLE, msg.sender);\\n    }\\n\\n ...\n  POP \t\t\tROLE, msg.sender);\\n    }\\n\\n ...\n  SWAP4 \t\t\tADER_ROLE to the deployer so t...\n  SWAP3 \t\t\tADER_ROLE to the deployer so t...\n  POP \t\t\tADER_ROLE to the deployer so t...\n  POP \t\t\tADER_ROLE to the deployer so t...\n  POP \t\t\tADER_ROLE to the deployer so t...\n  JUMP \t\t\tADER_ROLE to the deployer so t...\ntag 33\t\t\tt], \"Already frozen\");\\n      ...\n  JUMPDEST \t\t\tt], \"Already frozen\");\\n      ...\n  PUSH 0\t\t\tnWallet\n  DUP2 \t\t\t     \n  SWAP1 \t\t\t= true;\\n        \n  POP \t\t\t= true;\\n        \n  SWAP2 \t\t\tt], \"Already frozen\");\\n      ...\n  SWAP1 \t\t\tt], \"Already frozen\");\\n      ...\n  POP \t\t\tt], \"Already frozen\");\\n      ...\n  JUMP \t\t\tt], \"Already frozen\");\\n      ...\ntag 34\t\t\trozen(account);\\n    }\\n\\n    ...\n  JUMPDEST \t\t\trozen(account);\\n    }\\n\\n    ...\n  PUSH 0\t\t\tunc\n  DUP2 \t\t\tt(add\n  SWAP1 \t\t\tzeWallet(add\n  POP \t\t\tzeWallet(add\n  SWAP2 \t\t\trozen(account);\\n    }\\n\\n    ...\n  SWAP1 \t\t\trozen(account);\\n    }\\n\\n    ...\n  POP \t\t\trozen(account);\\n    }\\n\\n    ...\n  JUMP \t\t\trozen(account);\\n    }\\n\\n    ...\ntag 35\t\t\t) external onlyRole(FREEZER_RO...\n  JUMPDEST \t\t\t) external onlyRole(FREEZER_RO...\n  PUSH 0\t\t\te(_frozen\n  PUSH [tag] 62\t\t\trozen\");\\n        _frozenWalle...\n  PUSH [tag] 63\t\t\tfrozenWallets[account] = false...\n  PUSH [tag] 64\t\t\tlets[account] = false;\\n \n  DUP5 \t\t\tlse;\\n\n  PUSH [tag] 33\t\t\tlets[account] = false;\\n \n  JUMP \t\t\tlets[account] = false;\\n \ntag 64\t\t\tlets[account] = false;\\n \n  JUMPDEST \t\t\tlets[account] = false;\\n \n  PUSH [tag] 34\t\t\tfrozenWallets[account] = false...\n  JUMP \t\t\tfrozenWallets[account] = false...\ntag 63\t\t\tfrozenWallets[account] = false...\n  JUMPDEST \t\t\tfrozenWallets[account] = false...\n  PUSH [tag] 33\t\t\trozen\");\\n        _frozenWalle...\n  JUMP \t\t\trozen\");\\n        _frozenWalle...\ntag 62\t\t\trozen\");\\n        _frozenWalle...\n  JUMPDEST \t\t\trozen\");\\n        _frozenWalle...\n  SWAP1 \t\t\tount], \"Not frozen\");\\n       ...\n  POP \t\t\tount], \"Not frozen\");\\n       ...\n  SWAP2 \t\t\t) external onlyRole(FREEZER_RO...\n  SWAP1 \t\t\t) external onlyRole(FREEZER_RO...\n  POP \t\t\t) external onlyRole(FREEZER_RO...\n  JUMP \t\t\t) external onlyRole(FREEZER_RO...\ntag 36\t\t\tlletUnfrozen(account);\\n    }\\...\n  JUMPDEST \t\t\tlletUnfrozen(account);\\n    }\\...\n  PUSH 0\t\t\tpau\n  DUP2 \t\t\tRole(\n  SWAP1 \t\t\tal onlyRole(\n  POP \t\t\tal onlyRole(\n  SWAP2 \t\t\tlletUnfrozen(account);\\n    }\\...\n  SWAP1 \t\t\tlletUnfrozen(account);\\n    }\\...\n  POP \t\t\tlletUnfrozen(account);\\n    }\\...\n  JUMP \t\t\tlletUnfrozen(account);\\n    }\\...\ntag 37\t\t\t {\\n        _pause();\\n    }\\n...\n  JUMPDEST \t\t\t {\\n        _pause();\\n    }\\n...\n  PUSH [tag] 67\t\t\t\\n    // ----- Internal Overri...\n  DUP4 \t\t\t -----\\n\n  PUSH [tag] 35\t\t\t\\n    // ----- Internal Overri...\n  JUMP \t\t\t\\n    // ----- Internal Overri...\ntag 67\t\t\t\\n    // ----- Internal Overri...\n  JUMPDEST \t\t\t\\n    // ----- Internal Overri...\n  PUSH [tag] 68\t\t\tddress from, address to, uint2...\n  PUSH [tag] 69\t\t\tnternal\\n        override(ERC2...\n  DUP3 \t\t\t(ERC20, ERC20Pau\n  PUSH [tag] 36\t\t\tnternal\\n        override(ERC2...\n  JUMP \t\t\tnternal\\n        override(ERC2...\ntag 69\t\t\tnternal\\n        override(ERC2...\n  JUMPDEST \t\t\tnternal\\n        override(ERC2...\n  DUP5 \t\t\t      \n  DUP5 \t\t\talue\n  SLOAD \t\t\tt256 value)\n  PUSH [tag] 32\t\t\tddress from, address to, uint2...\n  JUMP \t\t\tddress from, address to, uint2...\ntag 68\t\t\tddress from, address to, uint2...\n  JUMPDEST \t\t\tddress from, address to, uint2...\n  DUP3 \t\t\tdate\n  SSTORE \t\t\tion _update(address from, addr...\n  POP \t\t\tROLE) {\\n        _unpause();\\n...\n  POP \t\t\t {\\n        _pause();\\n    }\\n...\n  POP \t\t\t {\\n        _pause();\\n    }\\n...\n  POP \t\t\t {\\n        _pause();\\n    }\\n...\n  JUMP \t\t\t {\\n        _pause();\\n    }\\n...\ntag 38\t\t\t      // 1. Freeze check\\n    ...\n  JUMPDEST \t\t\t      // 1. Freeze check\\n    ...\n  PUSH 0\t\t\toze\n  PUSH 0\t\t\t!\n  SWAP1 \t\t\tom] && !\n  POP \t\t\tom] && !\n  SWAP1 \t\t\t      // 1. Freeze check\\n    ...\n  JUMP \t\t\t      // 1. Freeze check\\n    ...\ntag 39\t\t\tts[to], \"Wallet is frozen\");\\n...\n  JUMPDEST \t\t\tts[to], \"Wallet is frozen\");\\n...\n  PUSH [tag] 72\t\t\tfrom != address(0) && to != ad...\n  PUSH [tag] 38\t\t\tfrom != address(0) && to != ad...\n  JUMP \t\t\tfrom != address(0) && to != ad...\ntag 72\t\t\tfrom != address(0) && to != ad...\n  JUMPDEST \t\t\tfrom != address(0) && to != ad...\n  PUSH [tag] 73\t\t\t\\n            // Sender MUST h...\n  DUP2 \t\t\tequire\n  DUP5 \t\t\t      \n  DUP5 \t\t\t\\n   \n  PUSH [tag] 37\t\t\t\\n            // Sender MUST h...\n  JUMP \t\t\t\\n            // Sender MUST h...\ntag 73\t\t\t\\n            // Sender MUST h...\n  JUMPDEST \t\t\t\\n            // Sender MUST h...\n  POP \t\t\trestriction\\n        if (from ...\n  POP \t\t\tts[to], \"Wallet is frozen\");\\n...\n  POP \t\t\tts[to], \"Wallet is frozen\");\\n...\n  JUMP \t\t\tts[to], \"Wallet is frozen\");\\n...\ntag 40\t\t\tER_ROLE, from), \"Sender lacks ...\n  JUMPDEST \t\t\tER_ROLE, from), \"Sender lacks ...\n  PUSH 0\t\t\tR\ntag 75\t\t\tmust have TRADER_ROLE, EXCEPT ...\n  JUMPDEST \t\t\tmust have TRADER_ROLE, EXCEPT ...\n  DUP3 \t\t\tCEPT if i\n  DUP2 \t\t\t \n  LT \t\t\tLE, EXCEPT if it\n  ISZERO \t\t\tmust have TRADER_ROLE, EXCEPT ...\n  PUSH [tag] 77\t\t\tmust have TRADER_ROLE, EXCEPT ...\n  JUMPI \t\t\tmust have TRADER_ROLE, EXCEPT ...\n  PUSH [tag] 78\t\t\tthis allows the initial seedin...\n  PUSH 0\t\t\tq\n  DUP3 \t\t\tw\n  DUP5 \t\t\t a brand \n  ADD \t\t\tg of a brand new \n  PUSH [tag] 39\t\t\tthis allows the initial seedin...\n  JUMP \t\t\tthis allows the initial seedin...\ntag 78\t\t\tthis allows the initial seedin...\n  JUMPDEST \t\t\tthis allows the initial seedin...\n  PUSH 1\t\t\ts\n  DUP2 \t\t\to\n  ADD \t\t\tly holds \n  SWAP1 \t\t\trrently holds \n  POP \t\t\trrently holds \n  PUSH [tag] 75\t\t\tmust have TRADER_ROLE, EXCEPT ...\n  JUMP \t\t\tmust have TRADER_ROLE, EXCEPT ...\ntag 77\t\t\tmust have TRADER_ROLE, EXCEPT ...\n  JUMPDEST \t\t\tmust have TRADER_ROLE, EXCEPT ...\n  POP \t\t\t have TRADER_R\n  POP \t\t\tER_ROLE, from), \"Sender lacks ...\n  POP \t\t\tER_ROLE, from), \"Sender lacks ...\n  JUMP \t\t\tER_ROLE, from), \"Sender lacks ...\ntag 41\t\t\t  if (!hasRole(TRADER_ROLE, to...\n  JUMPDEST \t\t\t  if (!hasRole(TRADER_ROLE, to...\n  PUSH 1F\t\t\tbu\n  DUP3 \t\t\tanc\n  GT \t\t\tbalance but\n  ISZERO \t\t\tas balance but lacks TRADER_RO...\n  PUSH [tag] 80\t\t\tas balance but lacks TRADER_RO...\n  JUMPI \t\t\tas balance but lacks TRADER_RO...\n  DUP3 \t\t\t        }\\n\n  DUP3 \t\t\t\\n  \n  GT \t\t\t\");\\n            }\\n \n  ISZERO \t\t\tOLE\");\\n            }\\n       ...\n  PUSH [tag] 81\t\t\tOLE\");\\n            }\\n       ...\n  JUMPI \t\t\tOLE\");\\n            }\\n       ...\n  PUSH [tag] 82\t\t\tusable handle pause check and ...\n  DUP2 \t\t\ttual \n  PUSH [tag] 29\t\t\tusable handle pause check and ...\n  JUMP \t\t\tusable handle pause check and ...\ntag 82\t\t\tusable handle pause check and ...\n  JUMPDEST \t\t\tusable handle pause check and ...\n  PUSH [tag] 83\t\t\to, value);\\n    }\\n}\\n\n  DUP4 \t\t\t\\n\n  PUSH [tag] 30\t\t\to, value);\\n    }\\n}\\n\n  JUMP \t\t\to, value);\\n    }\\n}\\n\ntag 83\t\t\to, value);\\n    }\\n}\\n\n  JUMPDEST \t\t\to, value);\\n    }\\n}\\n\n  PUSH [tag] 84\t\t\t\n  DUP6 \t\t\t\n  PUSH [tag] 30\t\t\t\n  JUMP \t\t\t\ntag 84\t\t\t\n  JUMPDEST \t\t\t\n  PUSH 20\t\t\t\n  DUP7 \t\t\t\n  LT \t\t\t\n  ISZERO \t\t\t\n  PUSH [tag] 85\t\t\t\n  JUMPI \t\t\t\n  PUSH 0\t\t\t\n  SWAP1 \t\t\t\n  POP \t\t\t\ntag 85\t\t\t\n  JUMPDEST \t\t\t\n  DUP1 \t\t\t\n  DUP4 \t\t\t\n  ADD \t\t\t\n  PUSH [tag] 86\t\t\t\n  DUP3 \t\t\t\n  DUP5 \t\t\t\n  SUB \t\t\t\n  DUP3 \t\t\t\n  PUSH [tag] 40\t\t\t\n  JUMP \t\t\t\ntag 86\t\t\t\n  JUMPDEST \t\t\t\n  POP \t\t\t      }\\n\\n        // 3. Let E...\n  POP \t\t\t      }\\n\\n        // 3. Let E...\n  POP \t\t\t      }\\n\\n        // 3. Let E...\n  POP \t\t\t      }\\n\\n        // 3. Let E...\ntag 81\t\t\tOLE\");\\n            }\\n       ...\n  JUMPDEST \t\t\tOLE\");\\n            }\\n       ...\ntag 80\t\t\tas balance but lacks TRADER_RO...\n  JUMPDEST \t\t\tas balance but lacks TRADER_RO...\n  POP \t\t\t  if (!hasRole(TRADER_ROLE, to...\n  POP \t\t\t  if (!hasRole(TRADER_ROLE, to...\n  POP \t\t\t  if (!hasRole(TRADER_ROLE, to...\n  JUMP \t\t\t  if (!hasRole(TRADER_ROLE, to...\ntag 42\t\t\t\n  JUMPDEST \t\t\t\n  PUSH 0\t\t\t\n  DUP3 \t\t\t\n  DUP3 \t\t\t\n  SHR \t\t\t\n  SWAP1 \t\t\t\n  POP \t\t\t\n  SWAP3 \t\t\t\n  SWAP2 \t\t\t\n  POP \t\t\t\n  POP \t\t\t\n  JUMP \t\t\t\ntag 43\t\t\t\n  JUMPDEST \t\t\t\n  PUSH 0\t\t\t\n  PUSH [tag] 89\t\t\t\n  PUSH 0\t\t\t\n  NOT \t\t\t\n  DUP5 \t\t\t\n  PUSH 8\t\t\t\n  MUL \t\t\t\n  PUSH [tag] 42\t\t\t\n  JUMP \t\t\t\ntag 89\t\t\t\n  JUMPDEST \t\t\t\n  NOT \t\t\t\n  DUP1 \t\t\t\n  DUP4 \t\t\t\n  AND \t\t\t\n  SWAP2 \t\t\t\n  POP \t\t\t\n  POP \t\t\t\n  SWAP3 \t\t\t\n  SWAP2 \t\t\t\n  POP \t\t\t\n  POP \t\t\t\n  JUMP \t\t\t\ntag 44\t\t\t\n  JUMPDEST \t\t\t\n  PUSH 0\t\t\t\n  PUSH [tag] 91\t\t\t\n  DUP4 \t\t\t\n  DUP4 \t\t\t\n  PUSH [tag] 43\t\t\t\n  JUMP \t\t\t\ntag 91\t\t\t\n  JUMPDEST \t\t\t\n  SWAP2 \t\t\t\n  POP \t\t\t\n  DUP3 \t\t\t\n  PUSH 2\t\t\t\n  MUL \t\t\t\n  DUP3 \t\t\t\n  OR \t\t\t\n  SWAP1 \t\t\t\n  POP \t\t\t\n  SWAP3 \t\t\t\n  SWAP2 \t\t\t\n  POP \t\t\t\n  POP \t\t\t\n  JUMP \t\t\t\ntag 6\t\t\t\n  JUMPDEST \t\t\t\n  PUSH [tag] 93\t\t\t\n  DUP3 \t\t\t\n  PUSH [tag] 25\t\t\t\n  JUMP \t\t\t\ntag 93\t\t\t\n  JUMPDEST \t\t\t\n  PUSH FFFFFFFFFFFFFFFF\t\t\t\n  DUP2 \t\t\t\n  GT \t\t\t\n  ISZERO \t\t\t\n  PUSH [tag] 94\t\t\t\n  JUMPI \t\t\t\n  PUSH [tag] 95\t\t\t\n  PUSH [tag] 26\t\t\t\n  JUMP \t\t\t\ntag 95\t\t\t\n  JUMPDEST \t\t\t\ntag 94\t\t\t\n  JUMPDEST \t\t\t\n  PUSH [tag] 96\t\t\t\n  DUP3 \t\t\t\n  SLOAD \t\t\t\n  PUSH [tag] 28\t\t\t\n  JUMP \t\t\t\ntag 96\t\t\t\n  JUMPDEST \t\t\t\n  PUSH [tag] 97\t\t\t\n  DUP3 \t\t\t\n  DUP3 \t\t\t\n  DUP6 \t\t\t\n  PUSH [tag] 41\t\t\t\n  JUMP \t\t\t\ntag 97\t\t\t\n  JUMPDEST \t\t\t\n  PUSH 0\t\t\t\n  PUSH 20\t\t\t\n  SWAP1 \t\t\t\n  POP \t\t\t\n  PUSH 1F\t\t\t\n  DUP4 \t\t\t\n  GT \t\t\t\n  PUSH 1\t\t\t\n  DUP2 \t\t\t\n  EQ \t\t\t\n  PUSH [tag] 99\t\t\t\n  JUMPI \t\t\t\n  PUSH 0\t\t\t\n  DUP5 \t\t\t\n  ISZERO \t\t\t\n  PUSH [tag] 100\t\t\t\n  JUMPI \t\t\t\n  DUP3 \t\t\t\n  DUP8 \t\t\t\n  ADD \t\t\t\n  MLOAD \t\t\t\n  SWAP1 \t\t\t\n  POP \t\t\t\ntag 100\t\t\t\n  JUMPDEST \t\t\t\n  PUSH [tag] 101\t\t\t\n  DUP6 \t\t\t\n  DUP3 \t\t\t\n  PUSH [tag] 44\t\t\t\n  JUMP \t\t\t\ntag 101\t\t\t\n  JUMPDEST \t\t\t\n  DUP7 \t\t\t\n  SSTORE \t\t\t\n  POP \t\t\t\n  PUSH [tag] 98\t\t\t\n  JUMP \t\t\t\ntag 99\t\t\t\n  JUMPDEST \t\t\t\n  PUSH 1F\t\t\t\n  NOT \t\t\t\n  DUP5 \t\t\t\n  AND \t\t\t\n  PUSH [tag] 102\t\t\t\n  DUP7 \t\t\t\n  PUSH [tag] 29\t\t\t\n  JUMP \t\t\t\ntag 102\t\t\t\n  JUMPDEST \t\t\t\n  PUSH 0\t\t\t\ntag 103\t\t\t\n  JUMPDEST \t\t\t\n  DUP3 \t\t\t\n  DUP2 \t\t\t\n  LT \t\t\t\n  ISZERO \t\t\t\n  PUSH [tag] 105\t\t\t\n  JUMPI \t\t\t\n  DUP5 \t\t\t\n  DUP10 \t\t\t\n  ADD \t\t\t\n  MLOAD \t\t\t\n  DUP3 \t\t\t\n  SSTORE \t\t\t\n  PUSH 1\t\t\t\n  DUP3 \t\t\t\n  ADD \t\t\t\n  SWAP2 \t\t\t\n  POP \t\t\t\n  PUSH 20\t\t\t\n  DUP6 \t\t\t\n  ADD \t\t\t\n  SWAP5 \t\t\t\n  POP \t\t\t\n  PUSH 20\t\t\t\n  DUP2 \t\t\t\n  ADD \t\t\t\n  SWAP1 \t\t\t\n  POP \t\t\t\n  PUSH [tag] 103\t\t\t\n  JUMP \t\t\t\ntag 105\t\t\t\n  JUMPDEST \t\t\t\n  DUP7 \t\t\t\n  DUP4 \t\t\t\n  LT \t\t\t\n  ISZERO \t\t\t\n  PUSH [tag] 106\t\t\t\n  JUMPI \t\t\t\n  DUP5 \t\t\t\n  DUP10 \t\t\t\n  ADD \t\t\t\n  MLOAD \t\t\t\n  PUSH [tag] 107\t\t\t\n  PUSH 1F\t\t\t\n  DUP10 \t\t\t\n  AND \t\t\t\n  DUP3 \t\t\t\n  PUSH [tag] 43\t\t\t\n  JUMP \t\t\t\ntag 107\t\t\t\n  JUMPDEST \t\t\t\n  DUP4 \t\t\t\n  SSTORE \t\t\t\n  POP \t\t\t\ntag 106\t\t\t\n  JUMPDEST \t\t\t\n  PUSH 1\t\t\t\n  PUSH 2\t\t\t\n  DUP9 \t\t\t\n  MUL \t\t\t\n  ADD \t\t\t\n  DUP9 \t\t\t\n  SSTORE \t\t\t\n  POP \t\t\t\n  POP \t\t\t\n  POP \t\t\t\ntag 98\t\t\t\n  JUMPDEST \t\t\t\n  POP \t\t\t\n  POP \t\t\t\n  POP \t\t\t\n  POP \t\t\t\n  POP \t\t\t\n  POP \t\t\t\n  JUMP \t\t\t\ntag 15\t\t\tcontract Rinanze is ERC20, ERC...\n  JUMPDEST \t\t\tcontract Rinanze is ERC20, ERC...\n  PUSH #[$] 0000000000000000000000000000000000000000000000000000000000000000\t\t\tcontract Rinanze is ERC20, ERC...\n  DUP1 \t\t\tcontract Rinanze is ERC20, ERC...\n  PUSH [$] 0000000000000000000000000000000000000000000000000000000000000000\t\t\tcontract Rinanze is ERC20, ERC...\n  PUSH 0\t\t\tcontract Rinanze is ERC20, ERC...\n  CODECOPY \t\t\tcontract Rinanze is ERC20, ERC...\n  PUSH 0\t\t\tcontract Rinanze is ERC20, ERC...\n  RETURN \t\t\tcontract Rinanze is ERC20, ERC...\n.data\n  0:\n    .code\n      PUSH 80\t\t\tcontract Rinanze is ERC20, ERC...\n      PUSH 40\t\t\tcontract Rinanze is ERC20, ERC...\n      MSTORE \t\t\tcontract Rinanze is ERC20, ERC...\n      CALLVALUE \t\t\tcontract Rinanze is ERC20, ERC...\n      DUP1 \t\t\tcontract Rinanze is ERC20, ERC...\n      ISZERO \t\t\tcontract Rinanze is ERC20, ERC...\n      PUSH [tag] 1\t\t\tcontract Rinanze is ERC20, ERC...\n      JUMPI \t\t\tcontract Rinanze is ERC20, ERC...\n      PUSH 0\t\t\tcontract Rinanze is ERC20, ERC...\n      PUSH 0\t\t\tcontract Rinanze is ERC20, ERC...\n      REVERT \t\t\tcontract Rinanze is ERC20, ERC...\n    tag 1\t\t\tcontract Rinanze is ERC20, ERC...\n      JUMPDEST \t\t\tcontract Rinanze is ERC20, ERC...\n      POP \t\t\tcontract Rinanze is ERC20, ERC...\n      PUSH 4\t\t\tcontract Rinanze is ERC20, ERC...\n      CALLDATASIZE \t\t\tcontract Rinanze is ERC20, ERC...\n      LT \t\t\tcontract Rinanze is ERC20, ERC...\n      PUSH [tag] 2\t\t\tcontract Rinanze is ERC20, ERC...\n      JUMPI \t\t\tcontract Rinanze is ERC20, ERC...\n      PUSH 0\t\t\tcontract Rinanze is ERC20, ERC...\n      CALLDATALOAD \t\t\tcontract Rinanze is ERC20, ERC...\n      PUSH E0\t\t\tcontract Rinanze is ERC20, ERC...\n      SHR \t\t\tcontract Rinanze is ERC20, ERC...\n      DUP1 \t\t\tcontract Rinanze is ERC20, ERC...\n      PUSH 60F588B7\t\t\tcontract Rinanze is ERC20, ERC...\n      GT \t\t\tcontract Rinanze is ERC20, ERC...\n      PUSH [tag] 29\t\t\tcontract Rinanze is ERC20, ERC...\n      JUMPI \t\t\tcontract Rinanze is ERC20, ERC...\n      DUP1 \t\t\tcontract Rinanze is ERC20, ERC...\n      PUSH A217FDDF\t\t\tcontract Rinanze is ERC20, ERC...\n      GT \t\t\tcontract Rinanze is ERC20, ERC...\n      PUSH [tag] 30\t\t\tcontract Rinanze is ERC20, ERC...\n      JUMPI \t\t\tcontract Rinanze is ERC20, ERC...\n      DUP1 \t\t\tcontract Rinanze is ERC20, ERC...\n      PUSH D547741F\t\t\tcontract Rinanze is ERC20, ERC...\n      GT \t\t\tcontract Rinanze is ERC20, ERC...\n      PUSH [tag] 31\t\t\tcontract Rinanze is ERC20, ERC...\n      JUMPI \t\t\tcontract Rinanze is ERC20, ERC...\n      DUP1 \t\t\tcontract Rinanze is ERC20, ERC...\n      PUSH D547741F\t\t\tcontract Rinanze is ERC20, ERC...\n      EQ \t\t\tcontract Rinanze is ERC20, ERC...\n      PUSH [tag] 25\t\t\tcontract Rinanze is ERC20, ERC...\n      JUMPI \t\t\tcontract Rinanze is ERC20, ERC...\n      DUP1 \t\t\tcontract Rinanze is ERC20, ERC...\n      PUSH DD62ED3E\t\t\tcontract Rinanze is ERC20, ERC...\n      EQ \t\t\tcontract Rinanze is ERC20, ERC...\n      PUSH [tag] 26\t\t\tcontract Rinanze is ERC20, ERC...\n      JUMPI \t\t\tcontract Rinanze is ERC20, ERC...\n      DUP1 \t\t\tcontract Rinanze is ERC20, ERC...\n      PUSH E63AB1E9\t\t\tcontract Rinanze is ERC20, ERC...\n      EQ \t\t\tcontract Rinanze is ERC20, ERC...\n      PUSH [tag] 27\t\t\tcontract Rinanze is ERC20, ERC...\n      JUMPI \t\t\tcontract Rinanze is ERC20, ERC...\n      DUP1 \t\t\tcontract Rinanze is ERC20, ERC...\n      PUSH F0A56FC8\t\t\tcontract Rinanze is ERC20, ERC...\n      EQ \t\t\tcontract Rinanze is ERC20, ERC...\n      PUSH [tag] 28\t\t\tcontract Rinanze is ERC20, ERC...\n      JUMPI \t\t\tcontract Rinanze is ERC20, ERC...\n      PUSH [tag] 2\t\t\tcontract Rinanze is ERC20, ERC...\n      JUMP \t\t\tcontract Rinanze is ERC20, ERC...\n    tag 31\t\t\tcontract Rinanze is ERC20, ERC...\n      JUMPDEST \t\t\tcontract Rinanze is ERC20, ERC...\n      DUP1 \t\t\tcontract Rinanze is ERC20, ERC...\n      PUSH A217FDDF\t\t\tcontract Rinanze is ERC20, ERC...\n      EQ \t\t\tcontract Rinanze is ERC20, ERC...\n      PUSH [tag] 22\t\t\tcontract Rinanze is ERC20, ERC...\n      JUMPI \t\t\tcontract Rinanze is ERC20, ERC...\n      DUP1 \t\t\tcontract Rinanze is ERC20, ERC...\n      PUSH A9059CBB\t\t\tcontract Rinanze is ERC20, ERC...\n      EQ \t\t\tcontract Rinanze is ERC20, ERC...\n      PUSH [tag] 23\t\t\tcontract Rinanze is ERC20, ERC...\n      JUMPI \t\t\tcontract Rinanze is ERC20, ERC...\n      DUP1 \t\t\tcontract Rinanze is ERC20, ERC...\n      PUSH D5391393\t\t\tcontract Rinanze is ERC20, ERC...\n      EQ \t\t\tcontract Rinanze is ERC20, ERC...\n      PUSH [tag] 24\t\t\tcontract Rinanze is ERC20, ERC...\n      JUMPI \t\t\tcontract Rinanze is ERC20, ERC...\n      PUSH [tag] 2\t\t\tcontract Rinanze is ERC20, ERC...\n      JUMP \t\t\tcontract Rinanze is ERC20, ERC...\n    tag 30\t\t\tcontract Rinanze is ERC20, ERC...\n      JUMPDEST \t\t\tcontract Rinanze is ERC20, ERC...\n      DUP1 \t\t\tcontract Rinanze is ERC20, ERC...\n      PUSH 60F588B7\t\t\tcontract Rinanze is ERC20, ERC...\n      EQ \t\t\tcontract Rinanze is ERC20, ERC...\n      PUSH [tag] 16\t\t\tcontract Rinanze is ERC20, ERC...\n      JUMPI \t\t\tcontract Rinanze is ERC20, ERC...\n      DUP1 \t\t\tcontract Rinanze is ERC20, ERC...\n      PUSH 70A08231\t\t\tcontract Rinanze is ERC20, ERC...\n      EQ \t\t\tcontract Rinanze is ERC20, ERC...\n      PUSH [tag] 17\t\t\tcontract Rinanze is ERC20, ERC...\n      JUMPI \t\t\tcontract Rinanze is ERC20, ERC...\n      DUP1 \t\t\tcontract Rinanze is ERC20, ERC...\n      PUSH 8456CB59\t\t\tcontract Rinanze is ERC20, ERC...\n      EQ \t\t\tcontract Rinanze is ERC20, ERC...\n      PUSH [tag] 18\t\t\tcontract Rinanze is ERC20, ERC...\n      JUMPI \t\t\tcontract Rinanze is ERC20, ERC...\n      DUP1 \t\t\tcontract Rinanze is ERC20, ERC...\n      PUSH 91D14854\t\t\tcontract Rinanze is ERC20, ERC...\n      EQ \t\t\tcontract Rinanze is ERC20, ERC...\n      PUSH [tag] 19\t\t\tcontract Rinanze is ERC20, ERC...\n      JUMPI \t\t\tcontract Rinanze is ERC20, ERC...\n      DUP1 \t\t\tcontract Rinanze is ERC20, ERC...\n      PUSH 95D89B41\t\t\tcontract Rinanze is ERC20, ERC...\n      EQ \t\t\tcontract Rinanze is ERC20, ERC...\n      PUSH [tag] 20\t\t\tcontract Rinanze is ERC20, ERC...\n      JUMPI \t\t\tcontract Rinanze is ERC20, ERC...\n      DUP1 \t\t\tcontract Rinanze is ERC20, ERC...\n      PUSH 9F001169\t\t\tcontract Rinanze is ERC20, ERC...\n      EQ \t\t\tcontract Rinanze is ERC20, ERC...\n      PUSH [tag] 21\t\t\tcontract Rinanze is ERC20, ERC...\n      JUMPI \t\t\tcontract Rinanze is ERC20, ERC...\n      PUSH [tag] 2\t\t\tcontract Rinanze is ERC20, ERC...\n      JUMP \t\t\tcontract Rinanze is ERC20, ERC...\n    tag 29\t\t\tcontract Rinanze is ERC20, ERC...\n      JUMPDEST \t\t\tcontract Rinanze is ERC20, ERC...\n      DUP1 \t\t\tcontract Rinanze is ERC20, ERC...\n      PUSH 248A9CA3\t\t\tcontract Rinanze is ERC20, ERC...\n      GT \t\t\tcontract Rinanze is ERC20, ERC...\n      PUSH [tag] 32\t\t\tcontract Rinanze is ERC20, ERC...\n      JUMPI \t\t\tcontract Rinanze is ERC20, ERC...\n      DUP1 \t\t\tcontract Rinanze is ERC20, ERC...\n      PUSH 36568ABE\t\t\tcontract Rinanze is ERC20, ERC...\n      GT \t\t\tcontract Rinanze is ERC20, ERC...\n      PUSH [tag] 33\t\t\tcontract Rinanze is ERC20, ERC...\n      JUMPI \t\t\tcontract Rinanze is ERC20, ERC...\n      DUP1 \t\t\tcontract Rinanze is ERC20, ERC...\n      PUSH 36568ABE\t\t\tcontract Rinanze is ERC20, ERC...\n      EQ \t\t\tcontract Rinanze is ERC20, ERC...\n      PUSH [tag] 12\t\t\tcontract Rinanze is ERC20, ERC...\n      JUMPI \t\t\tcontract Rinanze is ERC20, ERC...\n      DUP1 \t\t\tcontract Rinanze is ERC20, ERC...\n      PUSH 3F4BA83A\t\t\tcontract Rinanze is ERC20, ERC...\n      EQ \t\t\tcontract Rinanze is ERC20, ERC...\n      PUSH [tag] 13\t\t\tcontract Rinanze is ERC20, ERC...\n      JUMPI \t\t\tcontract Rinanze is ERC20, ERC...\n      DUP1 \t\t\tcontract Rinanze is ERC20, ERC...\n      PUSH 40C10F19\t\t\tcontract Rinanze is ERC20, ERC...\n      EQ \t\t\tcontract Rinanze is ERC20, ERC...\n      PUSH [tag] 14\t\t\tcontract Rinanze is ERC20, ERC...\n      JUMPI \t\t\tcontract Rinanze is ERC20, ERC...\n      DUP1 \t\t\tcontract Rinanze is ERC20, ERC...\n      PUSH 5C975ABB\t\t\tcontract Rinanze is ERC20, ERC...\n      EQ \t\t\tcontract Rinanze is ERC20, ERC...\n      PUSH [tag] 15\t\t\tcontract Rinanze is ERC20, ERC...\n      JUMPI \t\t\tcontract Rinanze is ERC20, ERC...\n      PUSH [tag] 2\t\t\tcontract Rinanze is ERC20, ERC...\n      JUMP \t\t\tcontract Rinanze is ERC20, ERC...\n    tag 33\t\t\tcontract Rinanze is ERC20, ERC...\n      JUMPDEST \t\t\tcontract Rinanze is ERC20, ERC...\n      DUP1 \t\t\tcontract Rinanze is ERC20, ERC...\n      PUSH 248A9CA3\t\t\tcontract Rinanze is ERC20, ERC...\n      EQ \t\t\tcontract Rinanze is ERC20, ERC...\n      PUSH [tag] 9\t\t\tcontract Rinanze is ERC20, ERC...\n      JUMPI \t\t\tcontract Rinanze is ERC20, ERC...\n      DUP1 \t\t\tcontract Rinanze is ERC20, ERC...\n      PUSH 2F2FF15D\t\t\tcontract Rinanze is ERC20, ERC...\n      EQ \t\t\tcontract Rinanze is ERC20, ERC...\n      PUSH [tag] 10\t\t\tcontract Rinanze is ERC20, ERC...\n      JUMPI \t\t\tcontract Rinanze is ERC20, ERC...\n      DUP1 \t\t\tcontract Rinanze is ERC20, ERC...\n      PUSH 313CE567\t\t\tcontract Rinanze is ERC20, ERC...\n      EQ \t\t\tcontract Rinanze is ERC20, ERC...\n      PUSH [tag] 11\t\t\tcontract Rinanze is ERC20, ERC...\n      JUMPI \t\t\tcontract Rinanze is ERC20, ERC...\n      PUSH [tag] 2\t\t\tcontract Rinanze is ERC20, ERC...\n      JUMP \t\t\tcontract Rinanze is ERC20, ERC...\n    tag 32\t\t\tcontract Rinanze is ERC20, ERC...\n      JUMPDEST \t\t\tcontract Rinanze is ERC20, ERC...\n      DUP1 \t\t\tcontract Rinanze is ERC20, ERC...\n      PUSH 1FFC9A7\t\t\tcontract Rinanze is ERC20, ERC...\n      EQ \t\t\tcontract Rinanze is ERC20, ERC...\n      PUSH [tag] 3\t\t\tcontract Rinanze is ERC20, ERC...\n      JUMPI \t\t\tcontract Rinanze is ERC20, ERC...\n      DUP1 \t\t\tcontract Rinanze is ERC20, ERC...\n      PUSH 6A85F0F\t\t\tcontract Rinanze is ERC20, ERC...\n      EQ \t\t\tcontract Rinanze is ERC20, ERC...\n      PUSH [tag] 4\t\t\tcontract Rinanze is ERC20, ERC...\n      JUMPI \t\t\tcontract Rinanze is ERC20, ERC...\n      DUP1 \t\t\tcontract Rinanze is ERC20, ERC...\n      PUSH 6FDDE03\t\t\tcontract Rinanze is ERC20, ERC...\n      EQ \t\t\tcontract Rinanze is ERC20, ERC...\n      PUSH [tag] 5\t\t\tcontract Rinanze is ERC20, ERC...\n      JUMPI \t\t\tcontract Rinanze is ERC20, ERC...\n      DUP1 \t\t\tcontract Rinanze is ERC20, ERC...\n      PUSH 95EA7B3\t\t\tcontract Rinanze is ERC20, ERC...\n      EQ \t\t\tcontract Rinanze is ERC20, ERC...\n      PUSH [tag] 6\t\t\tcontract Rinanze is ERC20, ERC...\n      JUMPI \t\t\tcontract Rinanze is ERC20, ERC...\n      DUP1 \t\t\tcontract Rinanze is ERC20, ERC...\n      PUSH 18160DDD\t\t\tcontract Rinanze is ERC20, ERC...\n      EQ \t\t\tcontract Rinanze is ERC20, ERC...\n      PUSH [tag] 7\t\t\tcontract Rinanze is ERC20, ERC...\n      JUMPI \t\t\tcontract Rinanze is ERC20, ERC...\n      DUP1 \t\t\tcontract Rinanze is ERC20, ERC...\n      PUSH 23B872DD\t\t\tcontract Rinanze is ERC20, ERC...\n      EQ \t\t\tcontract Rinanze is ERC20, ERC...\n      PUSH [tag] 8\t\t\tcontract Rinanze is ERC20, ERC...\n      JUMPI \t\t\tcontract Rinanze is ERC20, ERC...\n    tag 2\t\t\tcontract Rinanze is ERC20, ERC...\n      JUMPDEST \t\t\tcontract Rinanze is ERC20, ERC...\n      PUSH 0\t\t\tcontract Rinanze is ERC20, ERC...\n      PUSH 0\t\t\tcontract Rinanze is ERC20, ERC...\n      REVERT \t\t\tcontract Rinanze is ERC20, ERC...\n    tag 3\t\t\t_ROLE\");\\n\\n            // Rec...\n      JUMPDEST \t\t\t_ROLE\");\\n\\n            // Rec...\n      PUSH [tag] 34\t\t\t_ROLE\");\\n\\n            // Rec...\n      PUSH 4\t\t\t_ROLE\");\\n\\n            // Rec...\n      DUP1 \t\t\t_ROLE\");\\n\\n            // Rec...\n      CALLDATASIZE \t\t\t_ROLE\");\\n\\n            // Rec...\n      SUB \t\t\t_ROLE\");\\n\\n            // Rec...\n      DUP2 \t\t\t_ROLE\");\\n\\n            // Rec...\n      ADD \t\t\t_ROLE\");\\n\\n            // Rec...\n      SWAP1 \t\t\t_ROLE\");\\n\\n            // Rec...\n      PUSH [tag] 35\t\t\t_ROLE\");\\n\\n            // Rec...\n      SWAP2 \t\t\t_ROLE\");\\n\\n            // Rec...\n      SWAP1 \t\t\t_ROLE\");\\n\\n            // Rec...\n      PUSH [tag] 36\t\t\t_ROLE\");\\n\\n            // Rec...\n      JUMP \t\t\t_ROLE\");\\n\\n            // Rec...\n    tag 35\t\t\t_ROLE\");\\n\\n            // Rec...\n      JUMPDEST \t\t\t_ROLE\");\\n\\n            // Rec...\n      PUSH [tag] 37\t\t\t_ROLE\");\\n\\n            // Rec...\n      JUMP \t\t\t_ROLE\");\\n\\n            // Rec...\n    tag 34\t\t\t_ROLE\");\\n\\n            // Rec...\n      JUMPDEST \t\t\t_ROLE\");\\n\\n            // Rec...\n      PUSH 40\t\t\t_ROLE\");\\n\\n            // Rec...\n      MLOAD \t\t\t_ROLE\");\\n\\n            // Rec...\n      PUSH [tag] 38\t\t\t_ROLE\");\\n\\n            // Rec...\n      SWAP2 \t\t\t_ROLE\");\\n\\n            // Rec...\n      SWAP1 \t\t\t_ROLE\");\\n\\n            // Rec...\n      PUSH [tag] 39\t\t\t_ROLE\");\\n\\n            // Rec...\n      JUMP \t\t\t_ROLE\");\\n\\n            // Rec...\n    tag 38\t\t\t_ROLE\");\\n\\n            // Rec...\n      JUMPDEST \t\t\t_ROLE\");\\n\\n            // Rec...\n      PUSH 40\t\t\t_ROLE\");\\n\\n            // Rec...\n      MLOAD \t\t\t_ROLE\");\\n\\n            // Rec...\n      DUP1 \t\t\t_ROLE\");\\n\\n            // Rec...\n      SWAP2 \t\t\t_ROLE\");\\n\\n            // Rec...\n      SUB \t\t\t_ROLE\");\\n\\n            // Rec...\n      SWAP1 \t\t\t_ROLE\");\\n\\n            // Rec...\n      RETURN \t\t\t_ROLE\");\\n\\n            // Rec...\n    tag 4\t\t\tbytes32 public constant FREEZE...\n      JUMPDEST \t\t\tbytes32 public constant FREEZE...\n      PUSH [tag] 40\t\t\tbytes32 public constant FREEZE...\n      PUSH [tag] 41\t\t\tbytes32 public constant FREEZE...\n      JUMP \t\t\tbytes32 public constant FREEZE...\n    tag 40\t\t\tbytes32 public constant FREEZE...\n      JUMPDEST \t\t\tbytes32 public constant FREEZE...\n      PUSH 40\t\t\tbytes32 public constant FREEZE...\n      MLOAD \t\t\tbytes32 public constant FREEZE...\n      PUSH [tag] 42\t\t\tbytes32 public constant FREEZE...\n      SWAP2 \t\t\tbytes32 public constant FREEZE...\n      SWAP1 \t\t\tbytes32 public constant FREEZE...\n      PUSH [tag] 43\t\t\tbytes32 public constant FREEZE...\n      JUMP \t\t\tbytes32 public constant FREEZE...\n    tag 42\t\t\tbytes32 public constant FREEZE...\n      JUMPDEST \t\t\tbytes32 public constant FREEZE...\n      PUSH 40\t\t\tbytes32 public constant FREEZE...\n      MLOAD \t\t\tbytes32 public constant FREEZE...\n      DUP1 \t\t\tbytes32 public constant FREEZE...\n      SWAP2 \t\t\tbytes32 public constant FREEZE...\n      SUB \t\t\tbytes32 public constant FREEZE...\n      SWAP1 \t\t\tbytes32 public constant FREEZE...\n      RETURN \t\t\tbytes32 public constant FREEZE...\n    tag 5\t\t\t require(_frozenWallets[accoun...\n      JUMPDEST \t\t\t require(_frozenWallets[accoun...\n      PUSH [tag] 44\t\t\t require(_frozenWallets[accoun...\n      PUSH [tag] 45\t\t\t require(_frozenWallets[accoun...\n      JUMP \t\t\t require(_frozenWallets[accoun...\n    tag 44\t\t\t require(_frozenWallets[accoun...\n      JUMPDEST \t\t\t require(_frozenWallets[accoun...\n      PUSH 40\t\t\t require(_frozenWallets[accoun...\n      MLOAD \t\t\t require(_frozenWallets[accoun...\n      PUSH [tag] 46\t\t\t require(_frozenWallets[accoun...\n      SWAP2 \t\t\t require(_frozenWallets[accoun...\n      SWAP1 \t\t\t require(_frozenWallets[accoun...\n      PUSH [tag] 47\t\t\t require(_frozenWallets[accoun...\n      JUMP \t\t\t require(_frozenWallets[accoun...\n    tag 46\t\t\t require(_frozenWallets[accoun...\n      JUMPDEST \t\t\t require(_frozenWallets[accoun...\n      PUSH 40\t\t\t require(_frozenWallets[accoun...\n      MLOAD \t\t\t require(_frozenWallets[accoun...\n      DUP1 \t\t\t require(_frozenWallets[accoun...\n      SWAP2 \t\t\t require(_frozenWallets[accoun...\n      SUB \t\t\t require(_frozenWallets[accoun...\n      SWAP1 \t\t\t require(_frozenWallets[accoun...\n      RETURN \t\t\t require(_frozenWallets[accoun...\n    tag 6\t\t\t\n      JUMPDEST \t\t\t\n      PUSH [tag] 48\t\t\t\n      PUSH 4\t\t\t\n      DUP1 \t\t\t\n      CALLDATASIZE \t\t\t\n      SUB \t\t\t\n      DUP2 \t\t\t\n      ADD \t\t\t\n      SWAP1 \t\t\t\n      PUSH [tag] 49\t\t\t\n      SWAP2 \t\t\t\n      SWAP1 \t\t\t\n      PUSH [tag] 50\t\t\t\n      JUMP \t\t\t\n    tag 49\t\t\t\n      JUMPDEST \t\t\t\n      PUSH [tag] 51\t\t\t\n      JUMP \t\t\t\n    tag 48\t\t\t\n      JUMPDEST \t\t\t\n      PUSH 40\t\t\t\n      MLOAD \t\t\t\n      PUSH [tag] 52\t\t\t\n      SWAP2 \t\t\t\n      SWAP1 \t\t\t\n      PUSH [tag] 39\t\t\t\n      JUMP \t\t\t\n    tag 52\t\t\t\n      JUMPDEST \t\t\t\n      PUSH 40\t\t\t\n      MLOAD \t\t\t\n      DUP1 \t\t\t\n      SWAP2 \t\t\t\n      SUB \t\t\t\n      SWAP1 \t\t\t\n      RETURN \t\t\t\n    tag 7\t\t\t has balance but lacks TRADER_...\n      JUMPDEST \t\t\t has balance but lacks TRADER_...\n      PUSH [tag] 53\t\t\t has balance but lacks TRADER_...\n      PUSH [tag] 54\t\t\t has balance but lacks TRADER_...\n      JUMP \t\t\t has balance but lacks TRADER_...\n    tag 53\t\t\t has balance but lacks TRADER_...\n      JUMPDEST \t\t\t has balance but lacks TRADER_...\n      PUSH 40\t\t\t has balance but lacks TRADER_...\n      MLOAD \t\t\t has balance but lacks TRADER_...\n      PUSH [tag] 55\t\t\t has balance but lacks TRADER_...\n      SWAP2 \t\t\t has balance but lacks TRADER_...\n      SWAP1 \t\t\t has balance but lacks TRADER_...\n      PUSH [tag] 56\t\t\t has balance but lacks TRADER_...\n      JUMP \t\t\t has balance but lacks TRADER_...\n    tag 55\t\t\t has balance but lacks TRADER_...\n      JUMPDEST \t\t\t has balance but lacks TRADER_...\n      PUSH 40\t\t\t has balance but lacks TRADER_...\n      MLOAD \t\t\t has balance but lacks TRADER_...\n      DUP1 \t\t\t has balance but lacks TRADER_...\n      SWAP2 \t\t\t has balance but lacks TRADER_...\n      SUB \t\t\t has balance but lacks TRADER_...\n      SWAP1 \t\t\t has balance but lacks TRADER_...\n      RETURN \t\t\t has balance but lacks TRADER_...\n    tag 8\t\t\t\n      JUMPDEST \t\t\t\n      PUSH [tag] 57\t\t\t\n      PUSH 4\t\t\t\n      DUP1 \t\t\t\n      CALLDATASIZE \t\t\t\n      SUB \t\t\t\n      DUP2 \t\t\t\n      ADD \t\t\t\n      SWAP1 \t\t\t\n      PUSH [tag] 58\t\t\t\n      SWAP2 \t\t\t\n      SWAP1 \t\t\t\n      PUSH [tag] 59\t\t\t\n      JUMP \t\t\t\n    tag 58\t\t\t\n      JUMPDEST \t\t\t\n      PUSH [tag] 60\t\t\t\n      JUMP \t\t\t\n    tag 57\t\t\t\n      JUMPDEST \t\t\t\n      PUSH 40\t\t\t\n      MLOAD \t\t\t\n      PUSH [tag] 61\t\t\t\n      SWAP2 \t\t\t\n      SWAP1 \t\t\t\n      PUSH [tag] 39\t\t\t\n      JUMP \t\t\t\n    tag 61\t\t\t\n      JUMPDEST \t\t\t\n      PUSH 40\t\t\t\n      MLOAD \t\t\t\n      DUP1 \t\t\t\n      SWAP2 \t\t\t\n      SUB \t\t\t\n      SWAP1 \t\t\t\n      RETURN \t\t\t\n    tag 9\t\t\t\n      JUMPDEST \t\t\t\n      PUSH [tag] 62\t\t\t\n      PUSH 4\t\t\t\n      DUP1 \t\t\t\n      CALLDATASIZE \t\t\t\n      SUB \t\t\t\n      DUP2 \t\t\t\n      ADD \t\t\t\n      SWAP1 \t\t\t\n      PUSH [tag] 63\t\t\t\n      SWAP2 \t\t\t\n      SWAP1 \t\t\t\n      PUSH [tag] 64\t\t\t\n      JUMP \t\t\t\n    tag 63\t\t\t\n      JUMPDEST \t\t\t\n      PUSH [tag] 65\t\t\t\n      JUMP \t\t\t\n    tag 62\t\t\t\n      JUMPDEST \t\t\t\n      PUSH 40\t\t\t\n      MLOAD \t\t\t\n      PUSH [tag] 66\t\t\t\n      SWAP2 \t\t\t\n      SWAP1 \t\t\t\n      PUSH [tag] 43\t\t\t\n      JUMP \t\t\t\n    tag 66\t\t\t\n      JUMPDEST \t\t\t\n      PUSH 40\t\t\t\n      MLOAD \t\t\t\n      DUP1 \t\t\t\n      SWAP2 \t\t\t\n      SUB \t\t\t\n      SWAP1 \t\t\t\n      RETURN \t\t\t\n    tag 10\t\t\t\n      JUMPDEST \t\t\t\n      PUSH [tag] 67\t\t\t\n      PUSH 4\t\t\t\n      DUP1 \t\t\t\n      CALLDATASIZE \t\t\t\n      SUB \t\t\t\n      DUP2 \t\t\t\n      ADD \t\t\t\n      SWAP1 \t\t\t\n      PUSH [tag] 68\t\t\t\n      SWAP2 \t\t\t\n      SWAP1 \t\t\t\n      PUSH [tag] 69\t\t\t\n      JUMP \t\t\t\n    tag 68\t\t\t\n      JUMPDEST \t\t\t\n      PUSH [tag] 70\t\t\t\n      JUMP \t\t\t\n    tag 67\t\t\t\n      JUMPDEST \t\t\t\n      STOP \t\t\t\n    tag 11\t\t\t liquidity pool)\\n            ...\n      JUMPDEST \t\t\t liquidity pool)\\n            ...\n      PUSH [tag] 71\t\t\t liquidity pool)\\n            ...\n      PUSH [tag] 72\t\t\t liquidity pool)\\n            ...\n      JUMP \t\t\t liquidity pool)\\n            ...\n    tag 71\t\t\t liquidity pool)\\n            ...\n      JUMPDEST \t\t\t liquidity pool)\\n            ...\n      PUSH 40\t\t\t liquidity pool)\\n            ...\n      MLOAD \t\t\t liquidity pool)\\n            ...\n      PUSH [tag] 73\t\t\t liquidity pool)\\n            ...\n      SWAP2 \t\t\t liquidity pool)\\n            ...\n      SWAP1 \t\t\t liquidity pool)\\n            ...\n      PUSH [tag] 74\t\t\t liquidity pool)\\n            ...\n      JUMP \t\t\t liquidity pool)\\n            ...\n    tag 73\t\t\t liquidity pool)\\n            ...\n      JUMPDEST \t\t\t liquidity pool)\\n            ...\n      PUSH 40\t\t\t liquidity pool)\\n            ...\n      MLOAD \t\t\t liquidity pool)\\n            ...\n      DUP1 \t\t\t liquidity pool)\\n            ...\n      SWAP2 \t\t\t liquidity pool)\\n            ...\n      SUB \t\t\t liquidity pool)\\n            ...\n      SWAP1 \t\t\t liquidity pool)\\n            ...\n      RETURN \t\t\t liquidity pool)\\n            ...\n    tag 12\t\t\t\n      JUMPDEST \t\t\t\n      PUSH [tag] 75\t\t\t\n      PUSH 4\t\t\t\n      DUP1 \t\t\t\n      CALLDATASIZE \t\t\t\n      SUB \t\t\t\n      DUP2 \t\t\t\n      ADD \t\t\t\n      SWAP1 \t\t\t\n      PUSH [tag] 76\t\t\t\n      SWAP2 \t\t\t\n      SWAP1 \t\t\t\n      PUSH [tag] 69\t\t\t\n      JUMP \t\t\t\n    tag 76\t\t\t\n      JUMPDEST \t\t\t\n      PUSH [tag] 77\t\t\t\n      JUMP \t\t\t\n    tag 75\t\t\t\n      JUMPDEST \t\t\t\n      STOP \t\t\t\n    tag 13\t\t\tfunction unpause() external on...\n      JUMPDEST \t\t\tfunction unpause() external on...\n      PUSH [tag] 78\t\t\tfunction unpause() external on...\n      PUSH [tag] 79\t\t\tfunction unpause() external on...\n      JUMP \t\t\tfunction unpause() external on...\n    tag 78\t\t\tfunction unpause() external on...\n      JUMPDEST \t\t\tfunction unpause() external on...\n      STOP \t\t\tfunction unpause() external on...\n    tag 14\t\t\tfunction mint(address to, uint...\n      JUMPDEST \t\t\tfunction mint(address to, uint...\n      PUSH [tag] 80\t\t\tfunction mint(address to, uint...\n      PUSH 4\t\t\tfunction mint(address to, uint...\n      DUP1 \t\t\tfunction mint(address to, uint...\n      CALLDATASIZE \t\t\tfunction mint(address to, uint...\n      SUB \t\t\tfunction mint(address to, uint...\n      DUP2 \t\t\tfunction mint(address to, uint...\n      ADD \t\t\tfunction mint(address to, uint...\n      SWAP1 \t\t\tfunction mint(address to, uint...\n      PUSH [tag] 81\t\t\tfunction mint(address to, uint...\n      SWAP2 \t\t\tfunction mint(address to, uint...\n      SWAP1 \t\t\tfunction mint(address to, uint...\n      PUSH [tag] 50\t\t\tfunction mint(address to, uint...\n      JUMP \t\t\tfunction mint(address to, uint...\n    tag 81\t\t\tfunction mint(address to, uint...\n      JUMPDEST \t\t\tfunction mint(address to, uint...\n      PUSH [tag] 82\t\t\tfunction mint(address to, uint...\n      JUMP \t\t\tfunction mint(address to, uint...\n    tag 80\t\t\tfunction mint(address to, uint...\n      JUMPDEST \t\t\tfunction mint(address to, uint...\n      STOP \t\t\tfunction mint(address to, uint...\n    tag 15\t\t\tl onlyRole(FREEZER_ROLE) {\\n  ...\n      JUMPDEST \t\t\tl onlyRole(FREEZER_ROLE) {\\n  ...\n      PUSH [tag] 83\t\t\tl onlyRole(FREEZER_ROLE) {\\n  ...\n      PUSH [tag] 84\t\t\tl onlyRole(FREEZER_ROLE) {\\n  ...\n      JUMP \t\t\tl onlyRole(FREEZER_ROLE) {\\n  ...\n    tag 83\t\t\tl onlyRole(FREEZER_ROLE) {\\n  ...\n      JUMPDEST \t\t\tl onlyRole(FREEZER_ROLE) {\\n  ...\n      PUSH 40\t\t\tl onlyRole(FREEZER_ROLE) {\\n  ...\n      MLOAD \t\t\tl onlyRole(FREEZER_ROLE) {\\n  ...\n      PUSH [tag] 85\t\t\tl onlyRole(FREEZER_ROLE) {\\n  ...\n      SWAP2 \t\t\tl onlyRole(FREEZER_ROLE) {\\n  ...\n      SWAP1 \t\t\tl onlyRole(FREEZER_ROLE) {\\n  ...\n      PUSH [tag] 39\t\t\tl onlyRole(FREEZER_ROLE) {\\n  ...\n      JUMP \t\t\tl onlyRole(FREEZER_ROLE) {\\n  ...\n    tag 85\t\t\tl onlyRole(FREEZER_ROLE) {\\n  ...\n      JUMPDEST \t\t\tl onlyRole(FREEZER_ROLE) {\\n  ...\n      PUSH 40\t\t\tl onlyRole(FREEZER_ROLE) {\\n  ...\n      MLOAD \t\t\tl onlyRole(FREEZER_ROLE) {\\n  ...\n      DUP1 \t\t\tl onlyRole(FREEZER_ROLE) {\\n  ...\n      SWAP2 \t\t\tl onlyRole(FREEZER_ROLE) {\\n  ...\n      SUB \t\t\tl onlyRole(FREEZER_ROLE) {\\n  ...\n      SWAP1 \t\t\tl onlyRole(FREEZER_ROLE) {\\n  ...\n      RETURN \t\t\tl onlyRole(FREEZER_ROLE) {\\n  ...\n    tag 16\t\t\tfunction unfreezeWallet(addres...\n      JUMPDEST \t\t\tfunction unfreezeWallet(addres...\n      PUSH [tag] 86\t\t\tfunction unfreezeWallet(addres...\n      PUSH 4\t\t\tfunction unfreezeWallet(addres...\n      DUP1 \t\t\tfunction unfreezeWallet(addres...\n      CALLDATASIZE \t\t\tfunction unfreezeWallet(addres...\n      SUB \t\t\tfunction unfreezeWallet(addres...\n      DUP2 \t\t\tfunction unfreezeWallet(addres...\n      ADD \t\t\tfunction unfreezeWallet(addres...\n      SWAP1 \t\t\tfunction unfreezeWallet(addres...\n      PUSH [tag] 87\t\t\tfunction unfreezeWallet(addres...\n      SWAP2 \t\t\tfunction unfreezeWallet(addres...\n      SWAP1 \t\t\tfunction unfreezeWallet(addres...\n      PUSH [tag] 88\t\t\tfunction unfreezeWallet(addres...\n      JUMP \t\t\tfunction unfreezeWallet(addres...\n    tag 87\t\t\tfunction unfreezeWallet(addres...\n      JUMPDEST \t\t\tfunction unfreezeWallet(addres...\n      PUSH [tag] 89\t\t\tfunction unfreezeWallet(addres...\n      JUMP \t\t\tfunction unfreezeWallet(addres...\n    tag 86\t\t\tfunction unfreezeWallet(addres...\n      JUMPDEST \t\t\tfunction unfreezeWallet(addres...\n      STOP \t\t\tfunction unfreezeWallet(addres...\n    tag 17\t\t\tfer\\n        super._update(fro...\n      JUMPDEST \t\t\tfer\\n        super._update(fro...\n      PUSH [tag] 90\t\t\tfer\\n        super._update(fro...\n      PUSH 4\t\t\tfer\\n        super._update(fro...\n      DUP1 \t\t\tfer\\n        super._update(fro...\n      CALLDATASIZE \t\t\tfer\\n        super._update(fro...\n      SUB \t\t\tfer\\n        super._update(fro...\n      DUP2 \t\t\tfer\\n        super._update(fro...\n      ADD \t\t\tfer\\n        super._update(fro...\n      SWAP1 \t\t\tfer\\n        super._update(fro...\n      PUSH [tag] 91\t\t\tfer\\n        super._update(fro...\n      SWAP2 \t\t\tfer\\n        super._update(fro...\n      SWAP1 \t\t\tfer\\n        super._update(fro...\n      PUSH [tag] 88\t\t\tfer\\n        super._update(fro...\n      JUMP \t\t\tfer\\n        super._update(fro...\n    tag 91\t\t\tfer\\n        super._update(fro...\n      JUMPDEST \t\t\tfer\\n        super._update(fro...\n      PUSH [tag] 92\t\t\tfer\\n        super._update(fro...\n      JUMP \t\t\tfer\\n        super._update(fro...\n    tag 90\t\t\tfer\\n        super._update(fro...\n      JUMPDEST \t\t\tfer\\n        super._update(fro...\n      PUSH 40\t\t\tfer\\n        super._update(fro...\n      MLOAD \t\t\tfer\\n        super._update(fro...\n      PUSH [tag] 93\t\t\tfer\\n        super._update(fro...\n      SWAP2 \t\t\tfer\\n        super._update(fro...\n      SWAP1 \t\t\tfer\\n        super._update(fro...\n      PUSH [tag] 56\t\t\tfer\\n        super._update(fro...\n      JUMP \t\t\tfer\\n        super._update(fro...\n    tag 93\t\t\tfer\\n        super._update(fro...\n      JUMPDEST \t\t\tfer\\n        super._update(fro...\n      PUSH 40\t\t\tfer\\n        super._update(fro...\n      MLOAD \t\t\tfer\\n        super._update(fro...\n      DUP1 \t\t\tfer\\n        super._update(fro...\n      SWAP2 \t\t\tfer\\n        super._update(fro...\n      SUB \t\t\tfer\\n        super._update(fro...\n      SWAP1 \t\t\tfer\\n        super._update(fro...\n      RETURN \t\t\tfer\\n        super._update(fro...\n    tag 18\t\t\tfunction pause() external only...\n      JUMPDEST \t\t\tfunction pause() external only...\n      PUSH [tag] 94\t\t\tfunction pause() external only...\n      PUSH [tag] 95\t\t\tfunction pause() external only...\n      JUMP \t\t\tfunction pause() external only...\n    tag 94\t\t\tfunction pause() external only...\n      JUMPDEST \t\t\tfunction pause() external only...\n      STOP \t\t\tfunction pause() external only...\n    tag 19\t\t\tlacks TRADER_ROLE\");\\n        ...\n      JUMPDEST \t\t\tlacks TRADER_ROLE\");\\n        ...\n      PUSH [tag] 96\t\t\tlacks TRADER_ROLE\");\\n        ...\n      PUSH 4\t\t\tlacks TRADER_ROLE\");\\n        ...\n      DUP1 \t\t\tlacks TRADER_ROLE\");\\n        ...\n      CALLDATASIZE \t\t\tlacks TRADER_ROLE\");\\n        ...\n      SUB \t\t\tlacks TRADER_ROLE\");\\n        ...\n      DUP2 \t\t\tlacks TRADER_ROLE\");\\n        ...\n      ADD \t\t\tlacks TRADER_ROLE\");\\n        ...\n      SWAP1 \t\t\tlacks TRADER_ROLE\");\\n        ...\n      PUSH [tag] 97\t\t\tlacks TRADER_ROLE\");\\n        ...\n      SWAP2 \t\t\tlacks TRADER_ROLE\");\\n        ...\n      SWAP1 \t\t\tlacks TRADER_ROLE\");\\n        ...\n      PUSH [tag] 69\t\t\tlacks TRADER_ROLE\");\\n        ...\n      JUMP \t\t\tlacks TRADER_ROLE\");\\n        ...\n    tag 97\t\t\tlacks TRADER_ROLE\");\\n        ...\n      JUMPDEST \t\t\tlacks TRADER_ROLE\");\\n        ...\n      PUSH [tag] 98\t\t\tlacks TRADER_ROLE\");\\n        ...\n      JUMP \t\t\tlacks TRADER_ROLE\");\\n        ...\n    tag 96\t\t\tlacks TRADER_ROLE\");\\n        ...\n      JUMPDEST \t\t\tlacks TRADER_ROLE\");\\n        ...\n      PUSH 40\t\t\tlacks TRADER_ROLE\");\\n        ...\n      MLOAD \t\t\tlacks TRADER_ROLE\");\\n        ...\n      PUSH [tag] 99\t\t\tlacks TRADER_ROLE\");\\n        ...\n      SWAP2 \t\t\tlacks TRADER_ROLE\");\\n        ...\n      SWAP1 \t\t\tlacks TRADER_ROLE\");\\n        ...\n      PUSH [tag] 39\t\t\tlacks TRADER_ROLE\");\\n        ...\n      JUMP \t\t\tlacks TRADER_ROLE\");\\n        ...\n    tag 99\t\t\tlacks TRADER_ROLE\");\\n        ...\n      JUMPDEST \t\t\tlacks TRADER_ROLE\");\\n        ...\n      PUSH 40\t\t\tlacks TRADER_ROLE\");\\n        ...\n      MLOAD \t\t\tlacks TRADER_ROLE\");\\n        ...\n      DUP1 \t\t\tlacks TRADER_ROLE\");\\n        ...\n      SWAP2 \t\t\tlacks TRADER_ROLE\");\\n        ...\n      SUB \t\t\tlacks TRADER_ROLE\");\\n        ...\n      SWAP1 \t\t\tlacks TRADER_ROLE\");\\n        ...\n      RETURN \t\t\tlacks TRADER_ROLE\");\\n        ...\n    tag 20\t\t\te();\\n    }\\n\\n    function un...\n      JUMPDEST \t\t\te();\\n    }\\n\\n    function un...\n      PUSH [tag] 100\t\t\te();\\n    }\\n\\n    function un...\n      PUSH [tag] 101\t\t\te();\\n    }\\n\\n    function un...\n      JUMP \t\t\te();\\n    }\\n\\n    function un...\n    tag 100\t\t\te();\\n    }\\n\\n    function un...\n      JUMPDEST \t\t\te();\\n    }\\n\\n    function un...\n      PUSH 40\t\t\te();\\n    }\\n\\n    function un...\n      MLOAD \t\t\te();\\n    }\\n\\n    function un...\n      PUSH [tag] 102\t\t\te();\\n    }\\n\\n    function un...\n      SWAP2 \t\t\te();\\n    }\\n\\n    function un...\n      SWAP1 \t\t\te();\\n    }\\n\\n    function un...\n      PUSH [tag] 47\t\t\te();\\n    }\\n\\n    function un...\n      JUMP \t\t\te();\\n    }\\n\\n    function un...\n    tag 102\t\t\te();\\n    }\\n\\n    function un...\n      JUMPDEST \t\t\te();\\n    }\\n\\n    function un...\n      PUSH 40\t\t\te();\\n    }\\n\\n    function un...\n      MLOAD \t\t\te();\\n    }\\n\\n    function un...\n      DUP1 \t\t\te();\\n    }\\n\\n    function un...\n      SWAP2 \t\t\te();\\n    }\\n\\n    function un...\n      SUB \t\t\te();\\n    }\\n\\n    function un...\n      SWAP1 \t\t\te();\\n    }\\n\\n    function un...\n      RETURN \t\t\te();\\n    }\\n\\n    function un...\n    tag 21\t\t\tfunction freezeWallet(address ...\n      JUMPDEST \t\t\tfunction freezeWallet(address ...\n      PUSH [tag] 103\t\t\tfunction freezeWallet(address ...\n      PUSH 4\t\t\tfunction freezeWallet(address ...\n      DUP1 \t\t\tfunction freezeWallet(address ...\n      CALLDATASIZE \t\t\tfunction freezeWallet(address ...\n      SUB \t\t\tfunction freezeWallet(address ...\n      DUP2 \t\t\tfunction freezeWallet(address ...\n      ADD \t\t\tfunction freezeWallet(address ...\n      SWAP1 \t\t\tfunction freezeWallet(address ...\n      PUSH [tag] 104\t\t\tfunction freezeWallet(address ...\n      SWAP2 \t\t\tfunction freezeWallet(address ...\n      SWAP1 \t\t\tfunction freezeWallet(address ...\n      PUSH [tag] 88\t\t\tfunction freezeWallet(address ...\n      JUMP \t\t\tfunction freezeWallet(address ...\n    tag 104\t\t\tfunction freezeWallet(address ...\n      JUMPDEST \t\t\tfunction freezeWallet(address ...\n      PUSH [tag] 105\t\t\tfunction freezeWallet(address ...\n      JUMP \t\t\tfunction freezeWallet(address ...\n    tag 103\t\t\tfunction freezeWallet(address ...\n      JUMPDEST \t\t\tfunction freezeWallet(address ...\n      STOP \t\t\tfunction freezeWallet(address ...\n    tag 22\t\t\tide(ERC20, ERC20Pausable)\\n   ...\n      JUMPDEST \t\t\tide(ERC20, ERC20Pausable)\\n   ...\n      PUSH [tag] 106\t\t\tide(ERC20, ERC20Pausable)\\n   ...\n      PUSH [tag] 107\t\t\tide(ERC20, ERC20Pausable)\\n   ...\n      JUMP \t\t\tide(ERC20, ERC20Pausable)\\n   ...\n    tag 106\t\t\tide(ERC20, ERC20Pausable)\\n   ...\n      JUMPDEST \t\t\tide(ERC20, ERC20Pausable)\\n   ...\n      PUSH 40\t\t\tide(ERC20, ERC20Pausable)\\n   ...\n      MLOAD \t\t\tide(ERC20, ERC20Pausable)\\n   ...\n      PUSH [tag] 108\t\t\tide(ERC20, ERC20Pausable)\\n   ...\n      SWAP2 \t\t\tide(ERC20, ERC20Pausable)\\n   ...\n      SWAP1 \t\t\tide(ERC20, ERC20Pausable)\\n   ...\n      PUSH [tag] 43\t\t\tide(ERC20, ERC20Pausable)\\n   ...\n      JUMP \t\t\tide(ERC20, ERC20Pausable)\\n   ...\n    tag 108\t\t\tide(ERC20, ERC20Pausable)\\n   ...\n      JUMPDEST \t\t\tide(ERC20, ERC20Pausable)\\n   ...\n      PUSH 40\t\t\tide(ERC20, ERC20Pausable)\\n   ...\n      MLOAD \t\t\tide(ERC20, ERC20Pausable)\\n   ...\n      DUP1 \t\t\tide(ERC20, ERC20Pausable)\\n   ...\n      SWAP2 \t\t\tide(ERC20, ERC20Pausable)\\n   ...\n      SUB \t\t\tide(ERC20, ERC20Pausable)\\n   ...\n      SWAP1 \t\t\tide(ERC20, ERC20Pausable)\\n   ...\n      RETURN \t\t\tide(ERC20, ERC20Pausable)\\n   ...\n    tag 23\t\t\t\n      JUMPDEST \t\t\t\n      PUSH [tag] 109\t\t\t\n      PUSH 4\t\t\t\n      DUP1 \t\t\t\n      CALLDATASIZE \t\t\t\n      SUB \t\t\t\n      DUP2 \t\t\t\n      ADD \t\t\t\n      SWAP1 \t\t\t\n      PUSH [tag] 110\t\t\t\n      SWAP2 \t\t\t\n      SWAP1 \t\t\t\n      PUSH [tag] 50\t\t\t\n      JUMP \t\t\t\n    tag 110\t\t\t\n      JUMPDEST \t\t\t\n      PUSH [tag] 111\t\t\t\n      JUMP \t\t\t\n    tag 109\t\t\t\n      JUMPDEST \t\t\t\n      PUSH 40\t\t\t\n      MLOAD \t\t\t\n      PUSH [tag] 112\t\t\t\n      SWAP2 \t\t\t\n      SWAP1 \t\t\t\n      PUSH [tag] 39\t\t\t\n      JUMP \t\t\t\n    tag 112\t\t\t\n      JUMPDEST \t\t\t\n      PUSH 40\t\t\t\n      MLOAD \t\t\t\n      DUP1 \t\t\t\n      SWAP2 \t\t\t\n      SUB \t\t\t\n      SWAP1 \t\t\t\n      RETURN \t\t\t\n    tag 24\t\t\tbytes32 public constant MINTER...\n      JUMPDEST \t\t\tbytes32 public constant MINTER...\n      PUSH [tag] 113\t\t\tbytes32 public constant MINTER...\n      PUSH [tag] 114\t\t\tbytes32 public constant MINTER...\n      JUMP \t\t\tbytes32 public constant MINTER...\n    tag 113\t\t\tbytes32 public constant MINTER...\n      JUMPDEST \t\t\tbytes32 public constant MINTER...\n      PUSH 40\t\t\tbytes32 public constant MINTER...\n      MLOAD \t\t\tbytes32 public constant MINTER...\n      PUSH [tag] 115\t\t\tbytes32 public constant MINTER...\n      SWAP2 \t\t\tbytes32 public constant MINTER...\n      SWAP1 \t\t\tbytes32 public constant MINTER...\n      PUSH [tag] 43\t\t\tbytes32 public constant MINTER...\n      JUMP \t\t\tbytes32 public constant MINTER...\n    tag 115\t\t\tbytes32 public constant MINTER...\n      JUMPDEST \t\t\tbytes32 public constant MINTER...\n      PUSH 40\t\t\tbytes32 public constant MINTER...\n      MLOAD \t\t\tbytes32 public constant MINTER...\n      DUP1 \t\t\tbytes32 public constant MINTER...\n      SWAP2 \t\t\tbytes32 public constant MINTER...\n      SUB \t\t\tbytes32 public constant MINTER...\n      SWAP1 \t\t\tbytes32 public constant MINTER...\n      RETURN \t\t\tbytes32 public constant MINTER...\n    tag 25\t\t\t\n      JUMPDEST \t\t\t\n      PUSH [tag] 116\t\t\t\n      PUSH 4\t\t\t\n      DUP1 \t\t\t\n      CALLDATASIZE \t\t\t\n      SUB \t\t\t\n      DUP2 \t\t\t\n      ADD \t\t\t\n      SWAP1 \t\t\t\n      PUSH [tag] 117\t\t\t\n      SWAP2 \t\t\t\n      SWAP1 \t\t\t\n      PUSH [tag] 69\t\t\t\n      JUMP \t\t\t\n    tag 117\t\t\t\n      JUMPDEST \t\t\t\n      PUSH [tag] 118\t\t\t\n      JUMP \t\t\t\n    tag 116\t\t\t\n      JUMPDEST \t\t\t\n      STOP \t\t\t\n    tag 26\t\t\t\n      JUMPDEST \t\t\t\n      PUSH [tag] 119\t\t\t\n      PUSH 4\t\t\t\n      DUP1 \t\t\t\n      CALLDATASIZE \t\t\t\n      SUB \t\t\t\n      DUP2 \t\t\t\n      ADD \t\t\t\n      SWAP1 \t\t\t\n      PUSH [tag] 120\t\t\t\n      SWAP2 \t\t\t\n      SWAP1 \t\t\t\n      PUSH [tag] 121\t\t\t\n      JUMP \t\t\t\n    tag 120\t\t\t\n      JUMPDEST \t\t\t\n      PUSH [tag] 122\t\t\t\n      JUMP \t\t\t\n    tag 119\t\t\t\n      JUMPDEST \t\t\t\n      PUSH 40\t\t\t\n      MLOAD \t\t\t\n      PUSH [tag] 123\t\t\t\n      SWAP2 \t\t\t\n      SWAP1 \t\t\t\n      PUSH [tag] 56\t\t\t\n      JUMP \t\t\t\n    tag 123\t\t\t\n      JUMPDEST \t\t\t\n      PUSH 40\t\t\t\n      MLOAD \t\t\t\n      DUP1 \t\t\t\n      SWAP2 \t\t\t\n      SUB \t\t\t\n      SWAP1 \t\t\t\n      RETURN \t\t\t\n    tag 27\t\t\tbytes32 public constant PAUSER...\n      JUMPDEST \t\t\tbytes32 public constant PAUSER...\n      PUSH [tag] 124\t\t\tbytes32 public constant PAUSER...\n      PUSH [tag] 125\t\t\tbytes32 public constant PAUSER...\n      JUMP \t\t\tbytes32 public constant PAUSER...\n    tag 124\t\t\tbytes32 public constant PAUSER...\n      JUMPDEST \t\t\tbytes32 public constant PAUSER...\n      PUSH 40\t\t\tbytes32 public constant PAUSER...\n      MLOAD \t\t\tbytes32 public constant PAUSER...\n      PUSH [tag] 126\t\t\tbytes32 public constant PAUSER...\n      SWAP2 \t\t\tbytes32 public constant PAUSER...\n      SWAP1 \t\t\tbytes32 public constant PAUSER...\n      PUSH [tag] 43\t\t\tbytes32 public constant PAUSER...\n      JUMP \t\t\tbytes32 public constant PAUSER...\n    tag 126\t\t\tbytes32 public constant PAUSER...\n      JUMPDEST \t\t\tbytes32 public constant PAUSER...\n      PUSH 40\t\t\tbytes32 public constant PAUSER...\n      MLOAD \t\t\tbytes32 public constant PAUSER...\n      DUP1 \t\t\tbytes32 public constant PAUSER...\n      SWAP2 \t\t\tbytes32 public constant PAUSER...\n      SUB \t\t\tbytes32 public constant PAUSER...\n      SWAP1 \t\t\tbytes32 public constant PAUSER...\n      RETURN \t\t\tbytes32 public constant PAUSER...\n    tag 28\t\t\tbytes32 public constant TRADER...\n      JUMPDEST \t\t\tbytes32 public constant TRADER...\n      PUSH [tag] 127\t\t\tbytes32 public constant TRADER...\n      PUSH [tag] 128\t\t\tbytes32 public constant TRADER...\n      JUMP \t\t\tbytes32 public constant TRADER...\n    tag 127\t\t\tbytes32 public constant TRADER...\n      JUMPDEST \t\t\tbytes32 public constant TRADER...\n      PUSH 40\t\t\tbytes32 public constant TRADER...\n      MLOAD \t\t\tbytes32 public constant TRADER...\n      PUSH [tag] 129\t\t\tbytes32 public constant TRADER...\n      SWAP2 \t\t\tbytes32 public constant TRADER...\n      SWAP1 \t\t\tbytes32 public constant TRADER...\n      PUSH [tag] 43\t\t\tbytes32 public constant TRADER...\n      JUMP \t\t\tbytes32 public constant TRADER...\n    tag 129\t\t\tbytes32 public constant TRADER...\n      JUMPDEST \t\t\tbytes32 public constant TRADER...\n      PUSH 40\t\t\tbytes32 public constant TRADER...\n      MLOAD \t\t\tbytes32 public constant TRADER...\n      DUP1 \t\t\tbytes32 public constant TRADER...\n      SWAP2 \t\t\tbytes32 public constant TRADER...\n      SUB \t\t\tbytes32 public constant TRADER...\n      SWAP1 \t\t\tbytes32 public constant TRADER...\n      RETURN \t\t\tbytes32 public constant TRADER...\n    tag 37\t\t\t_ROLE\");\\n\\n            // Rec...\n      JUMPDEST \t\t\t_ROLE\");\\n\\n            // Rec...\n      PUSH 0\t\t\t 0 t\n      PUSH 7965DB0B00000000000000000000000000000000000000000000000000000000\t\t\tthe initial seeding of a brand...\n      PUSH FFFFFFFFFFFFFFFFFFFFFFFFFFFFFFFFFFFFFFFFFFFFFFFFFFFFFFFF\t\t\t/ (this allows the initial see...\n      NOT \t\t\t/ (this allows the initial see...\n      AND \t\t\t/ (this allows the initial see...\n      DUP3 \t\t\t/ (this all\n      PUSH FFFFFFFFFFFFFFFFFFFFFFFFFFFFFFFFFFFFFFFFFFFFFFFFFFFFFFFF\t\t\t/ (this allows the initial see...\n      NOT \t\t\t/ (this allows the initial see...\n      AND \t\t\t/ (this allows the initial see...\n      EQ \t\t\t/ (this allows the initial see...\n      DUP1 \t\t\t/ (this allows the initial see...\n      PUSH [tag] 131\t\t\t/ (this allows the initial see...\n      JUMPI \t\t\t/ (this allows the initial see...\n      POP \t\t\t/ (this allows the initial see...\n      PUSH [tag] 132\t\t\tiquidity pool)\\n            if...\n      DUP3 \t\t\t   if (!has\n      PUSH [tag] 133\t\t\tiquidity pool)\\n        \n      JUMP \t\t\tiquidity pool)\\n            if...\n    tag 132\t\t\tiquidity pool)\\n            if...\n      JUMPDEST \t\t\tiquidity pool)\\n            if...\n    tag 131\t\t\t/ (this allows the initial see...\n      JUMPDEST \t\t\t/ (this allows the initial see...\n      SWAP1 \t\t\t      // (this allows the init...\n      POP \t\t\t      // (this allows the init...\n      SWAP2 \t\t\t_ROLE\");\\n\\n            // Rec...\n      SWAP1 \t\t\t_ROLE\");\\n\\n            // Rec...\n      POP \t\t\t_ROLE\");\\n\\n            // Rec...\n      JUMP \t\t\t_ROLE\");\\n\\n            // Rec...\n    tag 41\t\t\tbytes32 public constant FREEZE...\n      JUMPDEST \t\t\tbytes32 public constant FREEZE...\n      PUSH 92DE27771F92D6942691D73358B3A4673E4880DE8356F8F2CF452BE87E02D363\t\t\tkeccak256(\"FREEZER_ROLE\")\n      DUP2 \t\t\tbytes32 public constant FREEZE...\n      JUMP \t\t\tbytes32 public constant FREEZE...\n    tag 45\t\t\t require(_frozenWallets[accoun...\n      JUMPDEST \t\t\t require(_frozenWallets[accoun...\n      PUSH 60\t\t\t\");\\n        _\n      PUSH 3\t\t\tnt] =\n      DUP1 \t\t\ts[account] =\n      SLOAD \t\t\ts[account] =\n      PUSH [tag] 135\t\t\ts[account] =\n      SWAP1 \t\t\ts[account] =\n      PUSH [tag] 136\t\t\ts[account] =\n      JUMP \t\t\ts[account] =\n    tag 135\t\t\ts[account] =\n      JUMPDEST \t\t\ts[account] =\n      DUP1 \t\t\ts[account] =\n      PUSH 1F\t\t\ts[account] =\n      ADD \t\t\ts[account] =\n      PUSH 20\t\t\ts[account] =\n      DUP1 \t\t\ts[account] =\n      SWAP2 \t\t\ts[account] =\n      DIV \t\t\ts[account] =\n      MUL \t\t\ts[account] =\n      PUSH 20\t\t\ts[account] =\n      ADD \t\t\ts[account] =\n      PUSH 40\t\t\ts[account] =\n      MLOAD \t\t\ts[account] =\n      SWAP1 \t\t\ts[account] =\n      DUP2 \t\t\ts[account] =\n      ADD \t\t\ts[account] =\n      PUSH 40\t\t\ts[account] =\n      MSTORE \t\t\ts[account] =\n      DUP1 \t\t\ts[account] =\n      SWAP3 \t\t\ts[account] =\n      SWAP2 \t\t\ts[account] =\n      SWAP1 \t\t\ts[account] =\n      DUP2 \t\t\ts[account] =\n      DUP2 \t\t\ts[account] =\n      MSTORE \t\t\ts[account] =\n      PUSH 20\t\t\ts[account] =\n      ADD \t\t\ts[account] =\n      DUP3 \t\t\ts[account] =\n      DUP1 \t\t\ts[account] =\n      SLOAD \t\t\ts[account] =\n      PUSH [tag] 137\t\t\ts[account] =\n      SWAP1 \t\t\ts[account] =\n      PUSH [tag] 136\t\t\ts[account] =\n      JUMP \t\t\ts[account] =\n    tag 137\t\t\ts[account] =\n      JUMPDEST \t\t\ts[account] =\n      DUP1 \t\t\ts[account] =\n      ISZERO \t\t\ts[account] =\n      PUSH [tag] 138\t\t\ts[account] =\n      JUMPI \t\t\ts[account] =\n      DUP1 \t\t\ts[account] =\n      PUSH 1F\t\t\ts[account] =\n      LT \t\t\ts[account] =\n      PUSH [tag] 139\t\t\ts[account] =\n      JUMPI \t\t\ts[account] =\n      PUSH 100\t\t\ts[account] =\n      DUP1 \t\t\ts[account] =\n      DUP4 \t\t\ts[account] =\n      SLOAD \t\t\ts[account] =\n      DIV \t\t\ts[account] =\n      MUL \t\t\ts[account] =\n      DUP4 \t\t\ts[account] =\n      MSTORE \t\t\ts[account] =\n      SWAP2 \t\t\ts[account] =\n      PUSH 20\t\t\ts[account] =\n      ADD \t\t\ts[account] =\n      SWAP2 \t\t\ts[account] =\n      PUSH [tag] 138\t\t\ts[account] =\n      JUMP \t\t\ts[account] =\n    tag 139\t\t\ts[account] =\n      JUMPDEST \t\t\ts[account] =\n      DUP3 \t\t\ts[account] =\n      ADD \t\t\ts[account] =\n      SWAP2 \t\t\ts[account] =\n      SWAP1 \t\t\ts[account] =\n      PUSH 0\t\t\ts[account] =\n      MSTORE \t\t\ts[account] =\n      PUSH 20\t\t\ts[account] =\n      PUSH 0\t\t\ts[account] =\n      KECCAK256 \t\t\ts[account] =\n      SWAP1 \t\t\ts[account] =\n    tag 140\t\t\ts[account] =\n      JUMPDEST \t\t\ts[account] =\n      DUP2 \t\t\ts[account] =\n      SLOAD \t\t\ts[account] =\n      DUP2 \t\t\ts[account] =\n      MSTORE \t\t\ts[account] =\n      SWAP1 \t\t\ts[account] =\n      PUSH 1\t\t\ts[account] =\n      ADD \t\t\ts[account] =\n      SWAP1 \t\t\ts[account] =\n      PUSH 20\t\t\ts[account] =\n      ADD \t\t\ts[account] =\n      DUP1 \t\t\ts[account] =\n      DUP4 \t\t\ts[account] =\n      GT \t\t\ts[account] =\n      PUSH [tag] 140\t\t\ts[account] =\n      JUMPI \t\t\ts[account] =\n      DUP3 \t\t\ts[account] =\n      SWAP1 \t\t\ts[account] =\n      SUB \t\t\ts[account] =\n      PUSH 1F\t\t\ts[account] =\n      AND \t\t\ts[account] =\n      DUP3 \t\t\ts[account] =\n      ADD \t\t\ts[account] =\n      SWAP2 \t\t\ts[account] =\n    tag 138\t\t\ts[account] =\n      JUMPDEST \t\t\ts[account] =\n      POP \t\t\ts[account] =\n      POP \t\t\ts[account] =\n      POP \t\t\ts[account] =\n      POP \t\t\ts[account] =\n      POP \t\t\ts[account] =\n      SWAP1 \t\t\ts[account] =\n      POP \t\t\ts[account] =\n      SWAP1 \t\t\t require(_frozenWallets[accoun...\n      JUMP \t\t\t require(_frozenWallets[accoun...\n    tag 51\t\t\t\n      JUMPDEST \t\t\t\n      PUSH 0\t\t\t\n      PUSH 0\t\t\t\n      PUSH [tag] 142\t\t\t\n      PUSH [tag] 143\t\t\t\n      JUMP \t\t\t\n    tag 142\t\t\t\n      JUMPDEST \t\t\t\n      SWAP1 \t\t\t\n      POP \t\t\t\n      PUSH [tag] 144\t\t\t\n      DUP2 \t\t\t\n      DUP6 \t\t\t\n      DUP6 \t\t\t\n      PUSH [tag] 145\t\t\t\n      JUMP \t\t\t\n    tag 144\t\t\t\n      JUMPDEST \t\t\t\n      PUSH 1\t\t\t\n      SWAP2 \t\t\t\n      POP \t\t\t\n      POP \t\t\t\n      SWAP3 \t\t\t\n      SWAP2 \t\t\t\n      POP \t\t\t\n      POP \t\t\t\n      JUMP \t\t\t\n    tag 54\t\t\t has balance but lacks TRADER_...\n      JUMPDEST \t\t\t has balance but lacks TRADER_...\n      PUSH 0\t\t\t       \n      PUSH 2\t\t\tet ERC20Paus\n      SLOAD \t\t\tet ERC20Paus\n      SWAP1 \t\t\t// 3. Let ERC20Paus\n      POP \t\t\t// 3. Let ERC20Paus\n      SWAP1 \t\t\t has balance but lacks TRADER_...\n      JUMP \t\t\t has balance but lacks TRADER_...\n    tag 60\t\t\t\n      JUMPDEST \t\t\t\n      PUSH 0\t\t\t\n      PUSH 0\t\t\t\n      PUSH [tag] 148\t\t\t\n      PUSH [tag] 143\t\t\t\n      JUMP \t\t\t\n    tag 148\t\t\t\n      JUMPDEST \t\t\t\n      SWAP1 \t\t\t\n      POP \t\t\t\n      PUSH [tag] 149\t\t\t\n      DUP6 \t\t\t\n      DUP3 \t\t\t\n      DUP6 \t\t\t\n      PUSH [tag] 150\t\t\t\n      JUMP \t\t\t\n    tag 149\t\t\t\n      JUMPDEST \t\t\t\n      PUSH [tag] 151\t\t\t\n      DUP6 \t\t\t\n      DUP6 \t\t\t\n      DUP6 \t\t\t\n      PUSH [tag] 152\t\t\t\n      JUMP \t\t\t\n    tag 151\t\t\t\n      JUMPDEST \t\t\t\n      PUSH 1\t\t\t\n      SWAP2 \t\t\t\n      POP \t\t\t\n      POP \t\t\t\n      SWAP4 \t\t\t\n      SWAP3 \t\t\t\n      POP \t\t\t\n      POP \t\t\t\n      POP \t\t\t\n      JUMP \t\t\t\n    tag 65\t\t\t\n      JUMPDEST \t\t\t\n      PUSH 0\t\t\t\n      PUSH 6\t\t\t\n      PUSH 0\t\t\t\n      DUP4 \t\t\t\n      DUP2 \t\t\t\n      MSTORE \t\t\t\n      PUSH 20\t\t\t\n      ADD \t\t\t\n      SWAP1 \t\t\t\n      DUP2 \t\t\t\n      MSTORE \t\t\t\n      PUSH 20\t\t\t\n      ADD \t\t\t\n      PUSH 0\t\t\t\n      KECCAK256 \t\t\t\n      PUSH 1\t\t\t\n      ADD \t\t\t\n      SLOAD \t\t\t\n      SWAP1 \t\t\t\n      POP \t\t\t\n      SWAP2 \t\t\t\n      SWAP1 \t\t\t\n      POP \t\t\t\n      JUMP \t\t\t\n    tag 70\t\t\t\n      JUMPDEST \t\t\t\n      PUSH [tag] 154\t\t\t\n      DUP3 \t\t\t\n      PUSH [tag] 65\t\t\t\n      JUMP \t\t\t\n    tag 154\t\t\t\n      JUMPDEST \t\t\t\n      PUSH [tag] 156\t\t\t           requi\n      DUP2 \t\t\trequ\n      PUSH [tag] 157\t\t\t          \n      JUMP \t\t\t           requi\n    tag 156\t\t\t           requi\n      JUMPDEST \t\t\t           requi\n      PUSH [tag] 159\t\t\t\n      DUP4 \t\t\t\n      DUP4 \t\t\t\n      PUSH [tag] 160\t\t\t\n      JUMP \t\t\t\n    tag 159\t\t\t\n      JUMPDEST \t\t\t\n      POP \t\t\t\n      POP \t\t\t\n      POP \t\t\t\n      POP \t\t\t\n      JUMP \t\t\t\n    tag 72\t\t\t liquidity pool)\\n            ...\n      JUMPDEST \t\t\t liquidity pool)\\n            ...\n      PUSH 0\t\t\tROLE,\n      PUSH 12\t\t\t  \n      SWAP1 \t\t\t         \n      POP \t\t\t         \n      SWAP1 \t\t\t liquidity pool)\\n            ...\n      JUMP \t\t\t liquidity pool)\\n            ...\n    tag 77\t\t\t\n      JUMPDEST \t\t\t\n      PUSH [tag] 163\t\t\t\n      PUSH [tag] 143\t\t\t\n      JUMP \t\t\t\n    tag 163\t\t\t\n      JUMPDEST \t\t\t\n      PUSH FFFFFFFFFFFFFFFFFFFFFFFFFFFFFFFFFFFFFFFF\t\t\t\n      AND \t\t\t\n      DUP2 \t\t\t\n      PUSH FFFFFFFFFFFFFFFFFFFFFFFFFFFFFFFFFFFFFFFF\t\t\t\n      AND \t\t\t\n      EQ \t\t\t\n      PUSH [tag] 164\t\t\t\n      JUMPI \t\t\t\n      PUSH 40\t\t\t\n      MLOAD \t\t\t\n      PUSH 6697B23200000000000000000000000000000000000000000000000000000000\t\t\t\n      DUP2 \t\t\t\n      MSTORE \t\t\t\n      PUSH 4\t\t\t\n      ADD \t\t\t\n      PUSH 40\t\t\t\n      MLOAD \t\t\t\n      DUP1 \t\t\t\n      SWAP2 \t\t\t\n      SUB \t\t\t\n      SWAP1 \t\t\t\n      REVERT \t\t\t\n    tag 164\t\t\t\n      JUMPDEST \t\t\t\n      PUSH [tag] 165\t\t\t\n      DUP3 \t\t\t\n      DUP3 \t\t\t\n      PUSH [tag] 166\t\t\t\n      JUMP \t\t\t\n    tag 165\t\t\t\n      JUMPDEST \t\t\t\n      POP \t\t\t\n      POP \t\t\t\n      POP \t\t\t\n      JUMP \t\t\t\n    tag 79\t\t\tfunction unpause() external on...\n      JUMPDEST \t\t\tfunction unpause() external on...\n      PUSH 65D7A28E3265B37A6474929F336521B332C1681B933F6CB9F3376673440D862A\t\t\tkeccak256(\"PAUSER_ROLE\")\n      PUSH [tag] 168\t\t\t           requi\n      DUP2 \t\t\trequ\n      PUSH [tag] 157\t\t\t          \n      JUMP \t\t\t           requi\n    tag 168\t\t\t           requi\n      JUMPDEST \t\t\t           requi\n      PUSH [tag] 170\t\t\t_unpause()\n      PUSH [tag] 171\t\t\t_unpause\n      JUMP \t\t\t_unpause()\n    tag 170\t\t\t_unpause()\n      JUMPDEST \t\t\t_unpause()\n      POP \t\t\tfunction unpause() external on...\n      JUMP \t\t\tfunction unpause() external on...\n    tag 82\t\t\tfunction mint(address to, uint...\n      JUMPDEST \t\t\tfunction mint(address to, uint...\n      PUSH 9F2DF0FED2C77648DE5860A4CC508CD0818C85B8B8A1AB4CEEEF8D981C8956A6\t\t\tkeccak256(\"MINTER_ROLE\")\n      PUSH [tag] 173\t\t\t           requi\n      DUP2 \t\t\trequ\n      PUSH [tag] 157\t\t\t          \n      JUMP \t\t\t           requi\n    tag 173\t\t\t           requi\n      JUMPDEST \t\t\t           requi\n      PUSH [tag] 175\t\t\t_mint(to, amount)\n      DUP4 \t\t\tto\n      DUP4 \t\t\tamount\n      PUSH [tag] 176\t\t\t_mint\n      JUMP \t\t\t_mint(to, amount)\n    tag 175\t\t\t_mint(to, amount)\n      JUMPDEST \t\t\t_mint(to, amount)\n      DUP3 \t\t\tto\n      PUSH FFFFFFFFFFFFFFFFFFFFFFFFFFFFFFFFFFFFFFFF\t\t\tMinted(to, amount)\n      AND \t\t\tMinted(to, amount)\n      PUSH 30385C845B448A36257A6A1716E6AD2E1BC2CBE333CDE1E69FE849AD6511ADFE\t\t\tMinted(to, amount)\n      DUP4 \t\t\tamount\n      PUSH 40\t\t\tMinted(to, amount)\n      MLOAD \t\t\tMinted(to, amount)\n      PUSH [tag] 177\t\t\tMinted(to, amount)\n      SWAP2 \t\t\tMinted(to, amount)\n      SWAP1 \t\t\tMinted(to, amount)\n      PUSH [tag] 56\t\t\tMinted(to, amount)\n      JUMP \t\t\tMinted(to, amount)\n    tag 177\t\t\tMinted(to, amount)\n      JUMPDEST \t\t\tMinted(to, amount)\n      PUSH 40\t\t\tMinted(to, amount)\n      MLOAD \t\t\tMinted(to, amount)\n      DUP1 \t\t\tMinted(to, amount)\n      SWAP2 \t\t\tMinted(to, amount)\n      SUB \t\t\tMinted(to, amount)\n      SWAP1 \t\t\tMinted(to, amount)\n      LOG2 \t\t\tMinted(to, amount)\n      POP \t\t\tfunction mint(address to, uint...\n      POP \t\t\tfunction mint(address to, uint...\n      POP \t\t\tfunction mint(address to, uint...\n      JUMP \t\t\tfunction mint(address to, uint...\n    tag 84\t\t\tl onlyRole(FREEZER_ROLE) {\\n  ...\n      JUMPDEST \t\t\tl onlyRole(FREEZER_ROLE) {\\n  ...\n      PUSH 0\t\t\tzenW\n      PUSH 5\t\t\tot froz\n      PUSH 0\t\t\tot froz\n      SWAP1 \t\t\tot froz\n      SLOAD \t\t\tot froz\n      SWAP1 \t\t\tot froz\n      PUSH 100\t\t\tot froz\n      EXP \t\t\tot froz\n      SWAP1 \t\t\tot froz\n      DIV \t\t\tot froz\n      PUSH FF\t\t\tot froz\n      AND \t\t\tot froz\n      SWAP1 \t\t\tnt], \"Not froz\n      POP \t\t\tnt], \"Not froz\n      SWAP1 \t\t\tl onlyRole(FREEZER_ROLE) {\\n  ...\n      JUMP \t\t\tl onlyRole(FREEZER_ROLE) {\\n  ...\n    tag 89\t\t\tfunction unfreezeWallet(addres...\n      JUMPDEST \t\t\tfunction unfreezeWallet(addres...\n      PUSH 92DE27771F92D6942691D73358B3A4673E4880DE8356F8F2CF452BE87E02D363\t\t\tkeccak256(\"FREEZER_ROLE\")\n      PUSH [tag] 180\t\t\t           requi\n      DUP2 \t\t\trequ\n      PUSH [tag] 157\t\t\t          \n      JUMP \t\t\t           requi\n    tag 180\t\t\t           requi\n      JUMPDEST \t\t\t           requi\n      PUSH 7\t\t\t_frozenWallets\n      PUSH 0\t\t\t_frozenWallets[account]\n      DUP4 \t\t\taccount\n      PUSH FFFFFFFFFFFFFFFFFFFFFFFFFFFFFFFFFFFFFFFF\t\t\t_frozenWallets[account]\n      AND \t\t\t_frozenWallets[account]\n      PUSH FFFFFFFFFFFFFFFFFFFFFFFFFFFFFFFFFFFFFFFF\t\t\t_frozenWallets[account]\n      AND \t\t\t_frozenWallets[account]\n      DUP2 \t\t\t_frozenWallets[account]\n      MSTORE \t\t\t_frozenWallets[account]\n      PUSH 20\t\t\t_frozenWallets[account]\n      ADD \t\t\t_frozenWallets[account]\n      SWAP1 \t\t\t_frozenWallets[account]\n      DUP2 \t\t\t_frozenWallets[account]\n      MSTORE \t\t\t_frozenWallets[account]\n      PUSH 20\t\t\t_frozenWallets[account]\n      ADD \t\t\t_frozenWallets[account]\n      PUSH 0\t\t\t_frozenWallets[account]\n      KECCAK256 \t\t\t_frozenWallets[account]\n      PUSH 0\t\t\t_frozenWallets[account]\n      SWAP1 \t\t\t_frozenWallets[account]\n      SLOAD \t\t\t_frozenWallets[account]\n      SWAP1 \t\t\t_frozenWallets[account]\n      PUSH 100\t\t\t_frozenWallets[account]\n      EXP \t\t\t_frozenWallets[account]\n      SWAP1 \t\t\t_frozenWallets[account]\n      DIV \t\t\t_frozenWallets[account]\n      PUSH FF\t\t\t_frozenWallets[account]\n      AND \t\t\t_frozenWallets[account]\n      PUSH [tag] 182\t\t\trequire(_frozenWallets[account...\n      JUMPI \t\t\trequire(_frozenWallets[account...\n      PUSH 40\t\t\trequire(_frozenWallets[account...\n      MLOAD \t\t\trequire(_frozenWallets[account...\n      PUSH 8C379A000000000000000000000000000000000000000000000000000000000\t\t\trequire(_frozenWallets[account...\n      DUP2 \t\t\trequire(_frozenWallets[account...\n      MSTORE \t\t\trequire(_frozenWallets[account...\n      PUSH 4\t\t\trequire(_frozenWallets[account...\n      ADD \t\t\trequire(_frozenWallets[account...\n      PUSH [tag] 183\t\t\trequire(_frozenWallets[account...\n      SWAP1 \t\t\trequire(_frozenWallets[account...\n      PUSH [tag] 184\t\t\trequire(_frozenWallets[account...\n      JUMP \t\t\trequire(_frozenWallets[account...\n    tag 183\t\t\trequire(_frozenWallets[account...\n      JUMPDEST \t\t\trequire(_frozenWallets[account...\n      PUSH 40\t\t\trequire(_frozenWallets[account...\n      MLOAD \t\t\trequire(_frozenWallets[account...\n      DUP1 \t\t\trequire(_frozenWallets[account...\n      SWAP2 \t\t\trequire(_frozenWallets[account...\n      SUB \t\t\trequire(_frozenWallets[account...\n      SWAP1 \t\t\trequire(_frozenWallets[account...\n      REVERT \t\t\trequire(_frozenWallets[account...\n    tag 182\t\t\trequire(_frozenWallets[account...\n      JUMPDEST \t\t\trequire(_frozenWallets[account...\n      PUSH 0\t\t\tfalse\n      PUSH 7\t\t\t_frozenWallets\n      PUSH 0\t\t\t_frozenWallets[account]\n      DUP5 \t\t\taccount\n      PUSH FFFFFFFFFFFFFFFFFFFFFFFFFFFFFFFFFFFFFFFF\t\t\t_frozenWallets[account]\n      AND \t\t\t_frozenWallets[account]\n      PUSH FFFFFFFFFFFFFFFFFFFFFFFFFFFFFFFFFFFFFFFF\t\t\t_frozenWallets[account]\n      AND \t\t\t_frozenWallets[account]\n      DUP2 \t\t\t_frozenWallets[account]\n      MSTORE \t\t\t_frozenWallets[account]\n      PUSH 20\t\t\t_frozenWallets[account]\n      ADD \t\t\t_frozenWallets[account]\n      SWAP1 \t\t\t_frozenWallets[account]\n      DUP2 \t\t\t_frozenWallets[account]\n      MSTORE \t\t\t_frozenWallets[account]\n      PUSH 20\t\t\t_frozenWallets[account]\n      ADD \t\t\t_frozenWallets[account]\n      PUSH 0\t\t\t_frozenWallets[account]\n      KECCAK256 \t\t\t_frozenWallets[account]\n      PUSH 0\t\t\t_frozenWallets[account]\n      PUSH 100\t\t\t_frozenWallets[account] = fals...\n      EXP \t\t\t_frozenWallets[account] = fals...\n      DUP2 \t\t\t_frozenWallets[account] = fals...\n      SLOAD \t\t\t_frozenWallets[account] = fals...\n      DUP2 \t\t\t_frozenWallets[account] = fals...\n      PUSH FF\t\t\t_frozenWallets[account] = fals...\n      MUL \t\t\t_frozenWallets[account] = fals...\n      NOT \t\t\t_frozenWallets[account] = fals...\n      AND \t\t\t_frozenWallets[account] = fals...\n      SWAP1 \t\t\t_frozenWallets[account] = fals...\n      DUP4 \t\t\t_frozenWallets[account] = fals...\n      ISZERO \t\t\t_frozenWallets[account] = fals...\n      ISZERO \t\t\t_frozenWallets[account] = fals...\n      MUL \t\t\t_frozenWallets[account] = fals...\n      OR \t\t\t_frozenWallets[account] = fals...\n      SWAP1 \t\t\t_frozenWallets[account] = fals...\n      SSTORE \t\t\t_frozenWallets[account] = fals...\n      POP \t\t\t_frozenWallets[account] = fals...\n      DUP2 \t\t\taccount\n      PUSH FFFFFFFFFFFFFFFFFFFFFFFFFFFFFFFFFFFFFFFF\t\t\tWalletUnfrozen(account)\n      AND \t\t\tWalletUnfrozen(account)\n      PUSH D247131FABB99DC3BA793524F53F05A77EEEF38F12B30119655EE340810B1210\t\t\tWalletUnfrozen(account)\n      PUSH 40\t\t\tWalletUnfrozen(account)\n      MLOAD \t\t\tWalletUnfrozen(account)\n      PUSH 40\t\t\tWalletUnfrozen(account)\n      MLOAD \t\t\tWalletUnfrozen(account)\n      DUP1 \t\t\tWalletUnfrozen(account)\n      SWAP2 \t\t\tWalletUnfrozen(account)\n      SUB \t\t\tWalletUnfrozen(account)\n      SWAP1 \t\t\tWalletUnfrozen(account)\n      LOG2 \t\t\tWalletUnfrozen(account)\n      POP \t\t\tfunction unfreezeWallet(addres...\n      POP \t\t\tfunction unfreezeWallet(addres...\n      JUMP \t\t\tfunction unfreezeWallet(addres...\n    tag 92\t\t\tfer\\n        super._update(fro...\n      JUMPDEST \t\t\tfer\\n        super._update(fro...\n      PUSH 0\t\t\t\n      PUSH 0\t\t\t\n      PUSH 0\t\t\t\n      DUP4 \t\t\t\n      PUSH FFFFFFFFFFFFFFFFFFFFFFFFFFFFFFFFFFFFFFFF\t\t\t\n      AND \t\t\t\n      PUSH FFFFFFFFFFFFFFFFFFFFFFFFFFFFFFFFFFFFFFFF\t\t\t\n      AND \t\t\t\n      DUP2 \t\t\t\n      MSTORE \t\t\t\n      PUSH 20\t\t\t\n      ADD \t\t\t\n      SWAP1 \t\t\t\n      DUP2 \t\t\t\n      MSTORE \t\t\t\n      PUSH 20\t\t\t\n      ADD \t\t\t\n      PUSH 0\t\t\t\n      KECCAK256 \t\t\t\n      SLOAD \t\t\t\n      SWAP1 \t\t\t\n      POP \t\t\t\n      SWAP2 \t\t\tfer\\n        super._update(fro...\n      SWAP1 \t\t\tfer\\n        super._update(fro...\n      POP \t\t\tfer\\n        super._update(fro...\n      JUMP \t\t\tfer\\n        super._update(fro...\n    tag 95\t\t\tfunction pause() external only...\n      JUMPDEST \t\t\tfunction pause() external only...\n      PUSH 65D7A28E3265B37A6474929F336521B332C1681B933F6CB9F3376673440D862A\t\t\tkeccak256(\"PAUSER_ROLE\")\n      PUSH [tag] 187\t\t\t           requi\n      DUP2 \t\t\trequ\n      PUSH [tag] 157\t\t\t          \n      JUMP \t\t\t           requi\n    tag 187\t\t\t           requi\n      JUMPDEST \t\t\t           requi\n      PUSH [tag] 189\t\t\t_pause()\n      PUSH [tag] 190\t\t\t_pause\n      JUMP \t\t\t_pause()\n    tag 189\t\t\t_pause()\n      JUMPDEST \t\t\t_pause()\n      POP \t\t\tfunction pause() external only...\n      JUMP \t\t\tfunction pause() external only...\n    tag 98\t\t\tlacks TRADER_ROLE\");\\n        ...\n      JUMPDEST \t\t\tlacks TRADER_ROLE\");\\n        ...\n      PUSH 0\t\t\t han\n      PUSH 6\t\t\t actua\n      PUSH 0\t\t\t actual tran\n      DUP5 \t\t\t tra\n      DUP2 \t\t\t actual tran\n      MSTORE \t\t\t actual tran\n      PUSH 20\t\t\t actual tran\n      ADD \t\t\t actual tran\n      SWAP1 \t\t\t actual tran\n      DUP2 \t\t\t actual tran\n      MSTORE \t\t\t actual tran\n      PUSH 20\t\t\t actual tran\n      ADD \t\t\t actual tran\n      PUSH 0\t\t\t actual tran\n      KECCAK256 \t\t\t actual tran\n      PUSH 0\t\t\t actual transfer\\n   \n      ADD \t\t\t actual transfer\\n   \n      PUSH 0\t\t\t actual transfer\\n        supe\n      DUP4 \t\t\t    sup\n      PUSH FFFFFFFFFFFFFFFFFFFFFFFFFFFFFFFFFFFFFFFF\t\t\t actual transfer\\n        supe\n      AND \t\t\t actual transfer\\n        supe\n      PUSH FFFFFFFFFFFFFFFFFFFFFFFFFFFFFFFFFFFFFFFF\t\t\t actual transfer\\n        supe\n      AND \t\t\t actual transfer\\n        supe\n      DUP2 \t\t\t actual transfer\\n        supe\n      MSTORE \t\t\t actual transfer\\n        supe\n      PUSH 20\t\t\t actual transfer\\n        supe\n      ADD \t\t\t actual transfer\\n        supe\n      SWAP1 \t\t\t actual transfer\\n        supe\n      DUP2 \t\t\t actual transfer\\n        supe\n      MSTORE \t\t\t actual transfer\\n        supe\n      PUSH 20\t\t\t actual transfer\\n        supe\n      ADD \t\t\t actual transfer\\n        supe\n      PUSH 0\t\t\t actual transfer\\n        supe\n      KECCAK256 \t\t\t actual transfer\\n        supe\n      PUSH 0\t\t\t actual transfer\\n        supe\n      SWAP1 \t\t\t actual transfer\\n        supe\n      SLOAD \t\t\t actual transfer\\n        supe\n      SWAP1 \t\t\t actual transfer\\n        supe\n      PUSH 100\t\t\t actual transfer\\n        supe\n      EXP \t\t\t actual transfer\\n        supe\n      SWAP1 \t\t\t actual transfer\\n        supe\n      DIV \t\t\t actual transfer\\n        supe\n      PUSH FF\t\t\t actual transfer\\n        supe\n      AND \t\t\t actual transfer\\n        supe\n      SWAP1 \t\t\teck and actual transfer\\n     ...\n      POP \t\t\teck and actual transfer\\n     ...\n      SWAP3 \t\t\tlacks TRADER_ROLE\");\\n        ...\n      SWAP2 \t\t\tlacks TRADER_ROLE\");\\n        ...\n      POP \t\t\tlacks TRADER_ROLE\");\\n        ...\n      POP \t\t\tlacks TRADER_ROLE\");\\n        ...\n      JUMP \t\t\tlacks TRADER_ROLE\");\\n        ...\n    tag 101\t\t\te();\\n    }\\n\\n    function un...\n      JUMPDEST \t\t\te();\\n    }\\n\\n    function un...\n      PUSH 60\t\t\tyRole(PAUSER_\n      PUSH 4\t\t\tpause()\n      DUP1 \t\t\t    _unpause()\n      SLOAD \t\t\t    _unpause()\n      PUSH [tag] 193\t\t\t    _unpause()\n      SWAP1 \t\t\t    _unpause()\n      PUSH [tag] 136\t\t\t    _unpause()\n      JUMP \t\t\t    _unpause()\n    tag 193\t\t\t    _unpause()\n      JUMPDEST \t\t\t    _unpause()\n      DUP1 \t\t\t    _unpause()\n      PUSH 1F\t\t\t    _unpause()\n      ADD \t\t\t    _unpause()\n      PUSH 20\t\t\t    _unpause()\n      DUP1 \t\t\t    _unpause()\n      SWAP2 \t\t\t    _unpause()\n      DIV \t\t\t    _unpause()\n      MUL \t\t\t    _unpause()\n      PUSH 20\t\t\t    _unpause()\n      ADD \t\t\t    _unpause()\n      PUSH 40\t\t\t    _unpause()\n      MLOAD \t\t\t    _unpause()\n      SWAP1 \t\t\t    _unpause()\n      DUP2 \t\t\t    _unpause()\n      ADD \t\t\t    _unpause()\n      PUSH 40\t\t\t    _unpause()\n      MSTORE \t\t\t    _unpause()\n      DUP1 \t\t\t    _unpause()\n      SWAP3 \t\t\t    _unpause()\n      SWAP2 \t\t\t    _unpause()\n      SWAP1 \t\t\t    _unpause()\n      DUP2 \t\t\t    _unpause()\n      DUP2 \t\t\t    _unpause()\n      MSTORE \t\t\t    _unpause()\n      PUSH 20\t\t\t    _unpause()\n      ADD \t\t\t    _unpause()\n      DUP3 \t\t\t    _unpause()\n      DUP1 \t\t\t    _unpause()\n      SLOAD \t\t\t    _unpause()\n      PUSH [tag] 194\t\t\t    _unpause()\n      SWAP1 \t\t\t    _unpause()\n      PUSH [tag] 136\t\t\t    _unpause()\n      JUMP \t\t\t    _unpause()\n    tag 194\t\t\t    _unpause()\n      JUMPDEST \t\t\t    _unpause()\n      DUP1 \t\t\t    _unpause()\n      ISZERO \t\t\t    _unpause()\n      PUSH [tag] 195\t\t\t    _unpause()\n      JUMPI \t\t\t    _unpause()\n      DUP1 \t\t\t    _unpause()\n      PUSH 1F\t\t\t    _unpause()\n      LT \t\t\t    _unpause()\n      PUSH [tag] 196\t\t\t    _unpause()\n      JUMPI \t\t\t    _unpause()\n      PUSH 100\t\t\t    _unpause()\n      DUP1 \t\t\t    _unpause()\n      DUP4 \t\t\t    _unpause()\n      SLOAD \t\t\t    _unpause()\n      DIV \t\t\t    _unpause()\n      MUL \t\t\t    _unpause()\n      DUP4 \t\t\t    _unpause()\n      MSTORE \t\t\t    _unpause()\n      SWAP2 \t\t\t    _unpause()\n      PUSH 20\t\t\t    _unpause()\n      ADD \t\t\t    _unpause()\n      SWAP2 \t\t\t    _unpause()\n      PUSH [tag] 195\t\t\t    _unpause()\n      JUMP \t\t\t    _unpause()\n    tag 196\t\t\t    _unpause()\n      JUMPDEST \t\t\t    _unpause()\n      DUP3 \t\t\t    _unpause()\n      ADD \t\t\t    _unpause()\n      SWAP2 \t\t\t    _unpause()\n      SWAP1 \t\t\t    _unpause()\n      PUSH 0\t\t\t    _unpause()\n      MSTORE \t\t\t    _unpause()\n      PUSH 20\t\t\t    _unpause()\n      PUSH 0\t\t\t    _unpause()\n      KECCAK256 \t\t\t    _unpause()\n      SWAP1 \t\t\t    _unpause()\n    tag 197\t\t\t    _unpause()\n      JUMPDEST \t\t\t    _unpause()\n      DUP2 \t\t\t    _unpause()\n      SLOAD \t\t\t    _unpause()\n      DUP2 \t\t\t    _unpause()\n      MSTORE \t\t\t    _unpause()\n      SWAP1 \t\t\t    _unpause()\n      PUSH 1\t\t\t    _unpause()\n      ADD \t\t\t    _unpause()\n      SWAP1 \t\t\t    _unpause()\n      PUSH 20\t\t\t    _unpause()\n      ADD \t\t\t    _unpause()\n      DUP1 \t\t\t    _unpause()\n      DUP4 \t\t\t    _unpause()\n      GT \t\t\t    _unpause()\n      PUSH [tag] 197\t\t\t    _unpause()\n      JUMPI \t\t\t    _unpause()\n      DUP3 \t\t\t    _unpause()\n      SWAP1 \t\t\t    _unpause()\n      SUB \t\t\t    _unpause()\n      PUSH 1F\t\t\t    _unpause()\n      AND \t\t\t    _unpause()\n      DUP3 \t\t\t    _unpause()\n      ADD \t\t\t    _unpause()\n      SWAP2 \t\t\t    _unpause()\n    tag 195\t\t\t    _unpause()\n      JUMPDEST \t\t\t    _unpause()\n      POP \t\t\t    _unpause()\n      POP \t\t\t    _unpause()\n      POP \t\t\t    _unpause()\n      POP \t\t\t    _unpause()\n      POP \t\t\t    _unpause()\n      SWAP1 \t\t\t    _unpause()\n      POP \t\t\t    _unpause()\n      SWAP1 \t\t\te();\\n    }\\n\\n    function un...\n      JUMP \t\t\te();\\n    }\\n\\n    function un...\n    tag 105\t\t\tfunction freezeWallet(address ...\n      JUMPDEST \t\t\tfunction freezeWallet(address ...\n      PUSH 92DE27771F92D6942691D73358B3A4673E4880DE8356F8F2CF452BE87E02D363\t\t\tkeccak256(\"FREEZER_ROLE\")\n      PUSH [tag] 199\t\t\t           requi\n      DUP2 \t\t\trequ\n      PUSH [tag] 157\t\t\t          \n      JUMP \t\t\t           requi\n    tag 199\t\t\t           requi\n      JUMPDEST \t\t\t           requi\n      PUSH 7\t\t\t_frozenWallets\n      PUSH 0\t\t\t_frozenWallets[account]\n      DUP4 \t\t\taccount\n      PUSH FFFFFFFFFFFFFFFFFFFFFFFFFFFFFFFFFFFFFFFF\t\t\t_frozenWallets[account]\n      AND \t\t\t_frozenWallets[account]\n      PUSH FFFFFFFFFFFFFFFFFFFFFFFFFFFFFFFFFFFFFFFF\t\t\t_frozenWallets[account]\n      AND \t\t\t_frozenWallets[account]\n      DUP2 \t\t\t_frozenWallets[account]\n      MSTORE \t\t\t_frozenWallets[account]\n      PUSH 20\t\t\t_frozenWallets[account]\n      ADD \t\t\t_frozenWallets[account]\n      SWAP1 \t\t\t_frozenWallets[account]\n      DUP2 \t\t\t_frozenWallets[account]\n      MSTORE \t\t\t_frozenWallets[account]\n      PUSH 20\t\t\t_frozenWallets[account]\n      ADD \t\t\t_frozenWallets[account]\n      PUSH 0\t\t\t_frozenWallets[account]\n      KECCAK256 \t\t\t_frozenWallets[account]\n      PUSH 0\t\t\t_frozenWallets[account]\n      SWAP1 \t\t\t_frozenWallets[account]\n      SLOAD \t\t\t_frozenWallets[account]\n      SWAP1 \t\t\t_frozenWallets[account]\n      PUSH 100\t\t\t_frozenWallets[account]\n      EXP \t\t\t_frozenWallets[account]\n      SWAP1 \t\t\t_frozenWallets[account]\n      DIV \t\t\t_frozenWallets[account]\n      PUSH FF\t\t\t_frozenWallets[account]\n      AND \t\t\t_frozenWallets[account]\n      ISZERO \t\t\t!_frozenWallets[account]\n      PUSH [tag] 201\t\t\trequire(!_frozenWallets[accoun...\n      JUMPI \t\t\trequire(!_frozenWallets[accoun...\n      PUSH 40\t\t\trequire(!_frozenWallets[accoun...\n      MLOAD \t\t\trequire(!_frozenWallets[accoun...\n      PUSH 8C379A000000000000000000000000000000000000000000000000000000000\t\t\trequire(!_frozenWallets[accoun...\n      DUP2 \t\t\trequire(!_frozenWallets[accoun...\n      MSTORE \t\t\trequire(!_frozenWallets[accoun...\n      PUSH 4\t\t\trequire(!_frozenWallets[accoun...\n      ADD \t\t\trequire(!_frozenWallets[accoun...\n      PUSH [tag] 202\t\t\trequire(!_frozenWallets[accoun...\n      SWAP1 \t\t\trequire(!_frozenWallets[accoun...\n      PUSH [tag] 203\t\t\trequire(!_frozenWallets[accoun...\n      JUMP \t\t\trequire(!_frozenWallets[accoun...\n    tag 202\t\t\trequire(!_frozenWallets[accoun...\n      JUMPDEST \t\t\trequire(!_frozenWallets[accoun...\n      PUSH 40\t\t\trequire(!_frozenWallets[accoun...\n      MLOAD \t\t\trequire(!_frozenWallets[accoun...\n      DUP1 \t\t\trequire(!_frozenWallets[accoun...\n      SWAP2 \t\t\trequire(!_frozenWallets[accoun...\n      SUB \t\t\trequire(!_frozenWallets[accoun...\n      SWAP1 \t\t\trequire(!_frozenWallets[accoun...\n      REVERT \t\t\trequire(!_frozenWallets[accoun...\n    tag 201\t\t\trequire(!_frozenWallets[accoun...\n      JUMPDEST \t\t\trequire(!_frozenWallets[accoun...\n      PUSH 1\t\t\ttrue\n      PUSH 7\t\t\t_frozenWallets\n      PUSH 0\t\t\t_frozenWallets[account]\n      DUP5 \t\t\taccount\n      PUSH FFFFFFFFFFFFFFFFFFFFFFFFFFFFFFFFFFFFFFFF\t\t\t_frozenWallets[account]\n      AND \t\t\t_frozenWallets[account]\n      PUSH FFFFFFFFFFFFFFFFFFFFFFFFFFFFFFFFFFFFFFFF\t\t\t_frozenWallets[account]\n      AND \t\t\t_frozenWallets[account]\n      DUP2 \t\t\t_frozenWallets[account]\n      MSTORE \t\t\t_frozenWallets[account]\n      PUSH 20\t\t\t_frozenWallets[account]\n      ADD \t\t\t_frozenWallets[account]\n      SWAP1 \t\t\t_frozenWallets[account]\n      DUP2 \t\t\t_frozenWallets[account]\n      MSTORE \t\t\t_frozenWallets[account]\n      PUSH 20\t\t\t_frozenWallets[account]\n      ADD \t\t\t_frozenWallets[account]\n      PUSH 0\t\t\t_frozenWallets[account]\n      KECCAK256 \t\t\t_frozenWallets[account]\n      PUSH 0\t\t\t_frozenWallets[account]\n      PUSH 100\t\t\t_frozenWallets[account] = true\n      EXP \t\t\t_frozenWallets[account] = true\n      DUP2 \t\t\t_frozenWallets[account] = true\n      SLOAD \t\t\t_frozenWallets[account] = true\n      DUP2 \t\t\t_frozenWallets[account] = true\n      PUSH FF\t\t\t_frozenWallets[account] = true\n      MUL \t\t\t_frozenWallets[account] = true\n      NOT \t\t\t_frozenWallets[account] = true\n      AND \t\t\t_frozenWallets[account] = true\n      SWAP1 \t\t\t_frozenWallets[account] = true\n      DUP4 \t\t\t_frozenWallets[account] = true\n      ISZERO \t\t\t_frozenWallets[account] = true\n      ISZERO \t\t\t_frozenWallets[account] = true\n      MUL \t\t\t_frozenWallets[account] = true\n      OR \t\t\t_frozenWallets[account] = true\n      SWAP1 \t\t\t_frozenWallets[account] = true\n      SSTORE \t\t\t_frozenWallets[account] = true\n      POP \t\t\t_frozenWallets[account] = true\n      DUP2 \t\t\taccount\n      PUSH FFFFFFFFFFFFFFFFFFFFFFFFFFFFFFFFFFFFFFFF\t\t\tWalletFrozen(account)\n      AND \t\t\tWalletFrozen(account)\n      PUSH C9710D20BDBF99CA92A03644A5A8F85EA6BADB387FF0ABCA08EEBDFBFF50B77F\t\t\tWalletFrozen(account)\n      PUSH 40\t\t\tWalletFrozen(account)\n      MLOAD \t\t\tWalletFrozen(account)\n      PUSH 40\t\t\tWalletFrozen(account)\n      MLOAD \t\t\tWalletFrozen(account)\n      DUP1 \t\t\tWalletFrozen(account)\n      SWAP2 \t\t\tWalletFrozen(account)\n      SUB \t\t\tWalletFrozen(account)\n      SWAP1 \t\t\tWalletFrozen(account)\n      LOG2 \t\t\tWalletFrozen(account)\n      POP \t\t\tfunction freezeWallet(address ...\n      POP \t\t\tfunction freezeWallet(address ...\n      JUMP \t\t\tfunction freezeWallet(address ...\n    tag 107\t\t\tide(ERC20, ERC20Pausable)\\n   ...\n      JUMPDEST \t\t\tide(ERC20, ERC20Pausable)\\n   ...\n      PUSH 0\t\t\t Fre\n      PUSH 0\t\t\tide(ERC20, ERC20Pausable)\\n   ...\n      SHL \t\t\tide(ERC20, ERC20Pausable)\\n   ...\n      DUP2 \t\t\tide(ERC20, ERC20Pausable)\\n   ...\n      JUMP \t\t\tide(ERC20, ERC20Pausable)\\n   ...\n    tag 111\t\t\t\n      JUMPDEST \t\t\t\n      PUSH 0\t\t\t\n      PUSH 0\t\t\t\n      PUSH [tag] 205\t\t\t\n      PUSH [tag] 143\t\t\t\n      JUMP \t\t\t\n    tag 205\t\t\t\n      JUMPDEST \t\t\t\n      SWAP1 \t\t\t\n      POP \t\t\t\n      PUSH [tag] 206\t\t\t\n      DUP2 \t\t\t\n      DUP6 \t\t\t\n      DUP6 \t\t\t\n      PUSH [tag] 152\t\t\t\n      JUMP \t\t\t\n    tag 206\t\t\t\n      JUMPDEST \t\t\t\n      PUSH 1\t\t\t\n      SWAP2 \t\t\t\n      POP \t\t\t\n      POP \t\t\t\n      SWAP3 \t\t\t\n      SWAP2 \t\t\t\n      POP \t\t\t\n      POP \t\t\t\n      JUMP \t\t\t\n    tag 114\t\t\tbytes32 public constant MINTER...\n      JUMPDEST \t\t\tbytes32 public constant MINTER...\n      PUSH 9F2DF0FED2C77648DE5860A4CC508CD0818C85B8B8A1AB4CEEEF8D981C8956A6\t\t\tkeccak256(\"MINTER_ROLE\")\n      DUP2 \t\t\tbytes32 public constant MINTER...\n      JUMP \t\t\tbytes32 public constant MINTER...\n    tag 118\t\t\t\n      JUMPDEST \t\t\t\n      PUSH [tag] 207\t\t\t\n      DUP3 \t\t\t\n      PUSH [tag] 65\t\t\t\n      JUMP \t\t\t\n    tag 207\t\t\t\n      JUMPDEST \t\t\t\n      PUSH [tag] 209\t\t\t           requi\n      DUP2 \t\t\trequ\n      PUSH [tag] 157\t\t\t          \n      JUMP \t\t\t           requi\n    tag 209\t\t\t           requi\n      JUMPDEST \t\t\t           requi\n      PUSH [tag] 211\t\t\t\n      DUP4 \t\t\t\n      DUP4 \t\t\t\n      PUSH [tag] 166\t\t\t\n      JUMP \t\t\t\n    tag 211\t\t\t\n      JUMPDEST \t\t\t\n      POP \t\t\t\n      POP \t\t\t\n      POP \t\t\t\n      POP \t\t\t\n      JUMP \t\t\t\n    tag 122\t\t\t\n      JUMPDEST \t\t\t\n      PUSH 0\t\t\t\n      PUSH 1\t\t\t\n      PUSH 0\t\t\t\n      DUP5 \t\t\t\n      PUSH FFFFFFFFFFFFFFFFFFFFFFFFFFFFFFFFFFFFFFFF\t\t\t\n      AND \t\t\t\n      PUSH FFFFFFFFFFFFFFFFFFFFFFFFFFFFFFFFFFFFFFFF\t\t\t\n      AND \t\t\t\n      DUP2 \t\t\t\n      MSTORE \t\t\t\n      PUSH 20\t\t\t\n      ADD \t\t\t\n      SWAP1 \t\t\t\n      DUP2 \t\t\t\n      MSTORE \t\t\t\n      PUSH 20\t\t\t\n      ADD \t\t\t\n      PUSH 0\t\t\t\n      KECCAK256 \t\t\t\n      PUSH 0\t\t\t\n      DUP4 \t\t\t\n      PUSH FFFFFFFFFFFFFFFFFFFFFFFFFFFFFFFFFFFFFFFF\t\t\t\n      AND \t\t\t\n      PUSH FFFFFFFFFFFFFFFFFFFFFFFFFFFFFFFFFFFFFFFF\t\t\t\n      AND \t\t\t\n      DUP2 \t\t\t\n      MSTORE \t\t\t\n      PUSH 20\t\t\t\n      ADD \t\t\t\n      SWAP1 \t\t\t\n      DUP2 \t\t\t\n      MSTORE \t\t\t\n      PUSH 20\t\t\t\n      ADD \t\t\t\n      PUSH 0\t\t\t\n      KECCAK256 \t\t\t\n      SLOAD \t\t\t\n      SWAP1 \t\t\t\n      POP \t\t\t\n      SWAP3 \t\t\t\n      SWAP2 \t\t\t\n      POP \t\t\t\n      POP \t\t\t\n      JUMP \t\t\t\n    tag 125\t\t\tbytes32 public constant PAUSER...\n      JUMPDEST \t\t\tbytes32 public constant PAUSER...\n      PUSH 65D7A28E3265B37A6474929F336521B332C1681B933F6CB9F3376673440D862A\t\t\tkeccak256(\"PAUSER_ROLE\")\n      DUP2 \t\t\tbytes32 public constant PAUSER...\n      JUMP \t\t\tbytes32 public constant PAUSER...\n    tag 128\t\t\tbytes32 public constant TRADER...\n      JUMPDEST \t\t\tbytes32 public constant TRADER...\n      PUSH FACAF2747A7486CF5730E9265973FB54447D3ACE6E7E4711F6360826B0731941\t\t\tkeccak256(\"TRADER_ROLE\")\n      DUP2 \t\t\tbytes32 public constant TRADER...\n      JUMP \t\t\tbytes32 public constant TRADER...\n    tag 133\t\t\tetFrozen(address indexed accou...\n      JUMPDEST \t\t\tetFrozen(address indexed accou...\n      PUSH 0\t\t\tacco\n      PUSH 1FFC9A700000000000000000000000000000000000000000000000000000000\t\t\texed to, uint256 amount);\n      PUSH FFFFFFFFFFFFFFFFFFFFFFFFFFFFFFFFFFFFFFFFFFFFFFFFFFFFFFFF\t\t\tted(address indexed to, uint25...\n      NOT \t\t\tted(address indexed to, uint25...\n      AND \t\t\tted(address indexed to, uint25...\n      DUP3 \t\t\tted(address\n      PUSH FFFFFFFFFFFFFFFFFFFFFFFFFFFFFFFFFFFFFFFFFFFFFFFFFFFFFFFF\t\t\tted(address indexed to, uint25...\n      NOT \t\t\tted(address indexed to, uint25...\n      AND \t\t\tted(address indexed to, uint25...\n      EQ \t\t\tted(address indexed to, uint25...\n      SWAP1 \t\t\tent Minted(address indexed to,...\n      POP \t\t\tent Minted(address indexed to,...\n      SWAP2 \t\t\tetFrozen(address indexed accou...\n      SWAP1 \t\t\tetFrozen(address indexed accou...\n      POP \t\t\tetFrozen(address indexed accou...\n      JUMP \t\t\tetFrozen(address indexed accou...\n    tag 143\t\t\ting(address => bool) private _...\n      JUMPDEST \t\t\ting(address => bool) private _...\n      PUSH 0\t\t\tEvents\\n\n      CALLER \t\t\tzen(addres\n      SWAP1 \t\t\tlletFrozen(addres\n      POP \t\t\tlletFrozen(addres\n      SWAP1 \t\t\ting(address => bool) private _...\n      JUMP \t\t\ting(address => bool) private _...\n    tag 145\t\t\t\n      JUMPDEST \t\t\t\n      PUSH [tag] 216\t\t\t\n      DUP4 \t\t\t\n      DUP4 \t\t\t\n      DUP4 \t\t\t\n      PUSH 1\t\t\t\n      PUSH [tag] 217\t\t\t\n      JUMP \t\t\t\n    tag 216\t\t\t\n      JUMPDEST \t\t\t\n      POP \t\t\t\n      POP \t\t\t\n      POP \t\t\t\n      JUMP \t\t\t\n    tag 150\t\t\t\n      JUMPDEST \t\t\t\n      PUSH 0\t\t\t\n      PUSH [tag] 219\t\t\t\n      DUP5 \t\t\t\n      DUP5 \t\t\t\n      PUSH [tag] 122\t\t\t\n      JUMP \t\t\t\n    tag 219\t\t\t\n      JUMPDEST \t\t\t\n      SWAP1 \t\t\t\n      POP \t\t\t\n      PUSH FFFFFFFFFFFFFFFFFFFFFFFFFFFFFFFFFFFFFFFFFFFFFFFFFFFFFFFFFFFFFFFF\t\t\t\n      DUP2 \t\t\t\n      LT \t\t\t\n      ISZERO \t\t\t\n      PUSH [tag] 220\t\t\t\n      JUMPI \t\t\t\n      DUP2 \t\t\t\n      DUP2 \t\t\t\n      LT \t\t\t\n      ISZERO \t\t\t\n      PUSH [tag] 221\t\t\t\n      JUMPI \t\t\t\n      DUP3 \t\t\t\n      DUP2 \t\t\t\n      DUP4 \t\t\t\n      PUSH 40\t\t\t\n      MLOAD \t\t\t\n      PUSH FB8F41B200000000000000000000000000000000000000000000000000000000\t\t\t\n      DUP2 \t\t\t\n      MSTORE \t\t\t\n      PUSH 4\t\t\t\n      ADD \t\t\t\n      PUSH [tag] 222\t\t\t\n      SWAP4 \t\t\t\n      SWAP3 \t\t\t\n      SWAP2 \t\t\t\n      SWAP1 \t\t\t\n      PUSH [tag] 223\t\t\t\n      JUMP \t\t\t\n    tag 222\t\t\t\n      JUMPDEST \t\t\t\n      PUSH 40\t\t\t\n      MLOAD \t\t\t\n      DUP1 \t\t\t\n      SWAP2 \t\t\t\n      SUB \t\t\t\n      SWAP1 \t\t\t\n      REVERT \t\t\t\n    tag 221\t\t\t\n      JUMPDEST \t\t\t\n      PUSH [tag] 224\t\t\t\n      DUP5 \t\t\t\n      DUP5 \t\t\t\n      DUP5 \t\t\t\n      DUP5 \t\t\t\n      SUB \t\t\t\n      PUSH 0\t\t\t\n      PUSH [tag] 217\t\t\t\n      JUMP \t\t\t\n    tag 224\t\t\t\n      JUMPDEST \t\t\t\n    tag 220\t\t\t\n      JUMPDEST \t\t\t\n      POP \t\t\t\n      POP \t\t\t\n      POP \t\t\t\n      POP \t\t\t\n      JUMP \t\t\t\n    tag 152\t\t\t\n      JUMPDEST \t\t\t\n      PUSH 0\t\t\t\n      PUSH FFFFFFFFFFFFFFFFFFFFFFFFFFFFFFFFFFFFFFFF\t\t\t\n      AND \t\t\t\n      DUP4 \t\t\t\n      PUSH FFFFFFFFFFFFFFFFFFFFFFFFFFFFFFFFFFFFFFFF\t\t\t\n      AND \t\t\t\n      SUB \t\t\t\n      PUSH [tag] 226\t\t\t\n      JUMPI \t\t\t\n      PUSH 0\t\t\t\n      PUSH 40\t\t\t\n      MLOAD \t\t\t\n      PUSH 96C6FD1E00000000000000000000000000000000000000000000000000000000\t\t\t\n      DUP2 \t\t\t\n      MSTORE \t\t\t\n      PUSH 4\t\t\t\n      ADD \t\t\t\n      PUSH [tag] 227\t\t\t\n      SWAP2 \t\t\t\n      SWAP1 \t\t\t\n      PUSH [tag] 228\t\t\t\n      JUMP \t\t\t\n    tag 227\t\t\t\n      JUMPDEST \t\t\t\n      PUSH 40\t\t\t\n      MLOAD \t\t\t\n      DUP1 \t\t\t\n      SWAP2 \t\t\t\n      SUB \t\t\t\n      SWAP1 \t\t\t\n      REVERT \t\t\t\n    tag 226\t\t\t\n      JUMPDEST \t\t\t\n      PUSH 0\t\t\t\n      PUSH FFFFFFFFFFFFFFFFFFFFFFFFFFFFFFFFFFFFFFFF\t\t\t\n      AND \t\t\t\n      DUP3 \t\t\t\n      PUSH FFFFFFFFFFFFFFFFFFFFFFFFFFFFFFFFFFFFFFFF\t\t\t\n      AND \t\t\t\n      SUB \t\t\t\n      PUSH [tag] 229\t\t\t\n      JUMPI \t\t\t\n      PUSH 0\t\t\t\n      PUSH 40\t\t\t\n      MLOAD \t\t\t\n      PUSH EC442F0500000000000000000000000000000000000000000000000000000000\t\t\t\n      DUP2 \t\t\t\n      MSTORE \t\t\t\n      PUSH 4\t\t\t\n      ADD \t\t\t\n      PUSH [tag] 230\t\t\t\n      SWAP2 \t\t\t\n      SWAP1 \t\t\t\n      PUSH [tag] 228\t\t\t\n      JUMP \t\t\t\n    tag 230\t\t\t\n      JUMPDEST \t\t\t\n      PUSH 40\t\t\t\n      MLOAD \t\t\t\n      DUP1 \t\t\t\n      SWAP2 \t\t\t\n      SUB \t\t\t\n      SWAP1 \t\t\t\n      REVERT \t\t\t\n    tag 229\t\t\t\n      JUMPDEST \t\t\t\n      PUSH [tag] 231\t\t\t\n      DUP4 \t\t\t\n      DUP4 \t\t\t\n      DUP4 \t\t\t\n      PUSH [tag] 232\t\t\t\n      JUMP \t\t\t\n    tag 231\t\t\t\n      JUMPDEST \t\t\t\n      POP \t\t\t\n      POP \t\t\t\n      POP \t\t\t\n      JUMP \t\t\t\n    tag 157\t\t\t\n      JUMPDEST \t\t\t\n      PUSH [tag] 234\t\t\t\n      DUP2 \t\t\t\n      PUSH [tag] 235\t\t\t\n      PUSH [tag] 143\t\t\t\n      JUMP \t\t\t\n    tag 235\t\t\t\n      JUMPDEST \t\t\t\n      PUSH [tag] 236\t\t\t\n      JUMP \t\t\t\n    tag 234\t\t\t\n      JUMPDEST \t\t\t\n      POP \t\t\t\n      JUMP \t\t\t\n    tag 160\t\t\t\n      JUMPDEST \t\t\t\n      PUSH 0\t\t\t\n      PUSH [tag] 238\t\t\t\n      DUP4 \t\t\t\n      DUP4 \t\t\t\n      PUSH [tag] 98\t\t\t\n      JUMP \t\t\t\n    tag 238\t\t\t\n      JUMPDEST \t\t\t\n      PUSH [tag] 239\t\t\t\n      JUMPI \t\t\t\n      PUSH 1\t\t\t\n      PUSH 6\t\t\t\n      PUSH 0\t\t\t\n      DUP6 \t\t\t\n      DUP2 \t\t\t\n      MSTORE \t\t\t\n      PUSH 20\t\t\t\n      ADD \t\t\t\n      SWAP1 \t\t\t\n      DUP2 \t\t\t\n      MSTORE \t\t\t\n      PUSH 20\t\t\t\n      ADD \t\t\t\n      PUSH 0\t\t\t\n      KECCAK256 \t\t\t\n      PUSH 0\t\t\t\n      ADD \t\t\t\n      PUSH 0\t\t\t\n      DUP5 \t\t\t\n      PUSH FFFFFFFFFFFFFFFFFFFFFFFFFFFFFFFFFFFFFFFF\t\t\t\n      AND \t\t\t\n      PUSH FFFFFFFFFFFFFFFFFFFFFFFFFFFFFFFFFFFFFFFF\t\t\t\n      AND \t\t\t\n      DUP2 \t\t\t\n      MSTORE \t\t\t\n      PUSH 20\t\t\t\n      ADD \t\t\t\n      SWAP1 \t\t\t\n      DUP2 \t\t\t\n      MSTORE \t\t\t\n      PUSH 20\t\t\t\n      ADD \t\t\t\n      PUSH 0\t\t\t\n      KECCAK256 \t\t\t\n      PUSH 0\t\t\t\n      PUSH 100\t\t\t\n      EXP \t\t\t\n      DUP2 \t\t\t\n      SLOAD \t\t\t\n      DUP2 \t\t\t\n      PUSH FF\t\t\t\n      MUL \t\t\t\n      NOT \t\t\t\n      AND \t\t\t\n      SWAP1 \t\t\t\n      DUP4 \t\t\t\n      ISZERO \t\t\t\n      ISZERO \t\t\t\n      MUL \t\t\t\n      OR \t\t\t\n      SWAP1 \t\t\t\n      SSTORE \t\t\t\n      POP \t\t\t\n      PUSH [tag] 240\t\t\t\n      PUSH [tag] 143\t\t\t\n      JUMP \t\t\t\n    tag 240\t\t\t\n      JUMPDEST \t\t\t\n      PUSH FFFFFFFFFFFFFFFFFFFFFFFFFFFFFFFFFFFFFFFF\t\t\t\n      AND \t\t\t\n      DUP3 \t\t\t\n      PUSH FFFFFFFFFFFFFFFFFFFFFFFFFFFFFFFFFFFFFFFF\t\t\t\n      AND \t\t\t\n      DUP5 \t\t\t\n      PUSH 2F8788117E7EFF1D82E926EC794901D17C78024A50270940304540A733656F0D\t\t\t\n      PUSH 40\t\t\t\n      MLOAD \t\t\t\n      PUSH 40\t\t\t\n      MLOAD \t\t\t\n      DUP1 \t\t\t\n      SWAP2 \t\t\t\n      SUB \t\t\t\n      SWAP1 \t\t\t\n      LOG4 \t\t\t\n      PUSH 1\t\t\t\n      SWAP1 \t\t\t\n      POP \t\t\t\n      PUSH [tag] 237\t\t\t\n      JUMP \t\t\t\n    tag 239\t\t\t\n      JUMPDEST \t\t\t\n      PUSH 0\t\t\t\n      SWAP1 \t\t\t\n      POP \t\t\t\n    tag 237\t\t\t\n      JUMPDEST \t\t\t\n      SWAP3 \t\t\t\n      SWAP2 \t\t\t\n      POP \t\t\t\n      POP \t\t\t\n      JUMP \t\t\t\n    tag 166\t\t\t\n      JUMPDEST \t\t\t\n      PUSH 0\t\t\t\n      PUSH [tag] 243\t\t\t\n      DUP4 \t\t\t\n      DUP4 \t\t\t\n      PUSH [tag] 98\t\t\t\n      JUMP \t\t\t\n    tag 243\t\t\t\n      JUMPDEST \t\t\t\n      ISZERO \t\t\t\n      PUSH [tag] 244\t\t\t\n      JUMPI \t\t\t\n      PUSH 0\t\t\t\n      PUSH 6\t\t\t\n      PUSH 0\t\t\t\n      DUP6 \t\t\t\n      DUP2 \t\t\t\n      MSTORE \t\t\t\n      PUSH 20\t\t\t\n      ADD \t\t\t\n      SWAP1 \t\t\t\n      DUP2 \t\t\t\n      MSTORE \t\t\t\n      PUSH 20\t\t\t\n      ADD \t\t\t\n      PUSH 0\t\t\t\n      KECCAK256 \t\t\t\n      PUSH 0\t\t\t\n      ADD \t\t\t\n      PUSH 0\t\t\t\n      DUP5 \t\t\t\n      PUSH FFFFFFFFFFFFFFFFFFFFFFFFFFFFFFFFFFFFFFFF\t\t\t\n      AND \t\t\t\n      PUSH FFFFFFFFFFFFFFFFFFFFFFFFFFFFFFFFFFFFFFFF\t\t\t\n      AND \t\t\t\n      DUP2 \t\t\t\n      MSTORE \t\t\t\n      PUSH 20\t\t\t\n      ADD \t\t\t\n      SWAP1 \t\t\t\n      DUP2 \t\t\t\n      MSTORE \t\t\t\n      PUSH 20\t\t\t\n      ADD \t\t\t\n      PUSH 0\t\t\t\n      KECCAK256 \t\t\t\n      PUSH 0\t\t\t\n      PUSH 100\t\t\t\n      EXP \t\t\t\n      DUP2 \t\t\t\n      SLOAD \t\t\t\n      DUP2 \t\t\t\n      PUSH FF\t\t\t\n      MUL \t\t\t\n      NOT \t\t\t\n      AND \t\t\t\n      SWAP1 \t\t\t\n      DUP4 \t\t\t\n      ISZERO \t\t\t\n      ISZERO \t\t\t\n      MUL \t\t\t\n      OR \t\t\t\n      SWAP1 \t\t\t\n      SSTORE \t\t\t\n      POP \t\t\t\n      PUSH [tag] 245\t\t\t\n      PUSH [tag] 143\t\t\t\n      JUMP \t\t\t\n    tag 245\t\t\t\n      JUMPDEST \t\t\t\n      PUSH FFFFFFFFFFFFFFFFFFFFFFFFFFFFFFFFFFFFFFFF\t\t\t\n      AND \t\t\t\n      DUP3 \t\t\t\n      PUSH FFFFFFFFFFFFFFFFFFFFFFFFFFFFFFFFFFFFFFFF\t\t\t\n      AND \t\t\t\n      DUP5 \t\t\t\n      PUSH F6391F5C32D9C69D2A47EA670B442974B53935D1EDC7FD64EB21E047A839171B\t\t\t\n      PUSH 40\t\t\t\n      MLOAD \t\t\t\n      PUSH 40\t\t\t\n      MLOAD \t\t\t\n      DUP1 \t\t\t\n      SWAP2 \t\t\t\n      SUB \t\t\t\n      SWAP1 \t\t\t\n      LOG4 \t\t\t\n      PUSH 1\t\t\t\n      SWAP1 \t\t\t\n      POP \t\t\t\n      PUSH [tag] 242\t\t\t\n      JUMP \t\t\t\n    tag 244\t\t\t\n      JUMPDEST \t\t\t\n      PUSH 0\t\t\t\n      SWAP1 \t\t\t\n      POP \t\t\t\n    tag 242\t\t\t\n      JUMPDEST \t\t\t\n      SWAP3 \t\t\t\n      SWAP2 \t\t\t\n      POP \t\t\t\n      POP \t\t\t\n      JUMP \t\t\t\n    tag 171\t\t\t, EXCEPT if it currently holds...\n      JUMPDEST \t\t\t, EXCEPT if it currently holds...\n      PUSH [tag] 248\t\t\t  _frozenWallets\n      PUSH [tag] 249\t\t\t  _frozenWalle\n      JUMP \t\t\t  _frozenWallets\n    tag 248\t\t\t  _frozenWallets\n      JUMPDEST \t\t\t  _frozenWallets\n      PUSH 0\t\t\tthe i\n      PUSH 5\t\t\tis allo\n      PUSH 0\t\t\tis allo\n      PUSH 100\t\t\tis allows the i\n      EXP \t\t\tis allows the i\n      DUP2 \t\t\tis allows the i\n      SLOAD \t\t\tis allows the i\n      DUP2 \t\t\tis allows the i\n      PUSH FF\t\t\tis allows the i\n      MUL \t\t\tis allows the i\n      NOT \t\t\tis allows the i\n      AND \t\t\tis allows the i\n      SWAP1 \t\t\tis allows the i\n      DUP4 \t\t\tis allows the i\n      ISZERO \t\t\tis allows the i\n      ISZERO \t\t\tis allows the i\n      MUL \t\t\tis allows the i\n      OR \t\t\tis allows the i\n      SWAP1 \t\t\tis allows the i\n      SSTORE \t\t\tis allows the i\n      POP \t\t\tis allows the i\n      PUSH 5DB9EE0A495BF2E6FF9C91A7834C1BA4FDD244A5E8AA4E537BD38AEAE4B073AA\t\t\tof a brand new liquidi\n      PUSH [tag] 251\t\t\td new liquid\n      PUSH [tag] 143\t\t\td new liqu\n      JUMP \t\t\td new liquid\n    tag 251\t\t\td new liquid\n      JUMPDEST \t\t\td new liquid\n      PUSH 40\t\t\tof a brand new liquidi\n      MLOAD \t\t\tof a brand new liquidi\n      PUSH [tag] 252\t\t\tof a brand new liquidi\n      SWAP2 \t\t\tof a brand new liquidi\n      SWAP1 \t\t\tof a brand new liquidi\n      PUSH [tag] 228\t\t\tof a brand new liquidi\n      JUMP \t\t\tof a brand new liquidi\n    tag 252\t\t\tof a brand new liquidi\n      JUMPDEST \t\t\tof a brand new liquidi\n      PUSH 40\t\t\tof a brand new liquidi\n      MLOAD \t\t\tof a brand new liquidi\n      DUP1 \t\t\tof a brand new liquidi\n      SWAP2 \t\t\tof a brand new liquidi\n      SUB \t\t\tof a brand new liquidi\n      SWAP1 \t\t\tof a brand new liquidi\n      LOG1 \t\t\tof a brand new liquidi\n      JUMP \t\t\t, EXCEPT if it currently holds...\n    tag 176\t\t\t\n      JUMPDEST \t\t\t\n      PUSH 0\t\t\t\n      PUSH FFFFFFFFFFFFFFFFFFFFFFFFFFFFFFFFFFFFFFFF\t\t\t\n      AND \t\t\t\n      DUP3 \t\t\t\n      PUSH FFFFFFFFFFFFFFFFFFFFFFFFFFFFFFFFFFFFFFFF\t\t\t\n      AND \t\t\t\n      SUB \t\t\t\n      PUSH [tag] 254\t\t\t\n      JUMPI \t\t\t\n      PUSH 0\t\t\t\n      PUSH 40\t\t\t\n      MLOAD \t\t\t\n      PUSH EC442F0500000000000000000000000000000000000000000000000000000000\t\t\t\n      DUP2 \t\t\t\n      MSTORE \t\t\t\n      PUSH 4\t\t\t\n      ADD \t\t\t\n      PUSH [tag] 255\t\t\t\n      SWAP2 \t\t\t\n      SWAP1 \t\t\t\n      PUSH [tag] 228\t\t\t\n      JUMP \t\t\t\n    tag 255\t\t\t\n      JUMPDEST \t\t\t\n      PUSH 40\t\t\t\n      MLOAD \t\t\t\n      DUP1 \t\t\t\n      SWAP2 \t\t\t\n      SUB \t\t\t\n      SWAP1 \t\t\t\n      REVERT \t\t\t\n    tag 254\t\t\t\n      JUMPDEST \t\t\t\n      PUSH [tag] 256\t\t\t\n      PUSH 0\t\t\t\n      DUP4 \t\t\t\n      DUP4 \t\t\t\n      PUSH [tag] 232\t\t\t\n      JUMP \t\t\t\n    tag 256\t\t\t\n      JUMPDEST \t\t\t\n      POP \t\t\t\n      POP \t\t\t\n      JUMP \t\t\t\n    tag 190\t\t\t/ 2. Transfer restriction\\n   ...\n      JUMPDEST \t\t\t/ 2. Transfer restriction\\n   ...\n      PUSH [tag] 258\t\t\tt) external onlyRol\n      PUSH [tag] 259\t\t\tt) external onlyR\n      JUMP \t\t\tt) external onlyRol\n    tag 258\t\t\tt) external onlyRol\n      JUMPDEST \t\t\tt) external onlyRol\n      PUSH 1\t\t\tress\n      PUSH 5\t\t\t to != \n      PUSH 0\t\t\t to != \n      PUSH 100\t\t\t to != address\n      EXP \t\t\t to != address\n      DUP2 \t\t\t to != address\n      SLOAD \t\t\t to != address\n      DUP2 \t\t\t to != address\n      PUSH FF\t\t\t to != address\n      MUL \t\t\t to != address\n      NOT \t\t\t to != address\n      AND \t\t\t to != address\n      SWAP1 \t\t\t to != address\n      DUP4 \t\t\t to != address\n      ISZERO \t\t\t to != address\n      ISZERO \t\t\t to != address\n      MUL \t\t\t to != address\n      OR \t\t\t to != address\n      SWAP1 \t\t\t to != address\n      SSTORE \t\t\t to != address\n      POP \t\t\t to != address\n      PUSH 62E78CEA01BEE320CD4E420270B5EA74000D11B0C9F74754EBDBFC544B05A258\t\t\t    // Sender MUST h\n      PUSH [tag] 261\t\t\tSender MUST \n      PUSH [tag] 143\t\t\tSender MUS\n      JUMP \t\t\tSender MUST \n    tag 261\t\t\tSender MUST \n      JUMPDEST \t\t\tSender MUST \n      PUSH 40\t\t\t    // Sender MUST h\n      MLOAD \t\t\t    // Sender MUST h\n      PUSH [tag] 262\t\t\t    // Sender MUST h\n      SWAP2 \t\t\t    // Sender MUST h\n      SWAP1 \t\t\t    // Sender MUST h\n      PUSH [tag] 228\t\t\t    // Sender MUST h\n      JUMP \t\t\t    // Sender MUST h\n    tag 262\t\t\t    // Sender MUST h\n      JUMPDEST \t\t\t    // Sender MUST h\n      PUSH 40\t\t\t    // Sender MUST h\n      MLOAD \t\t\t    // Sender MUST h\n      DUP1 \t\t\t    // Sender MUST h\n      SWAP2 \t\t\t    // Sender MUST h\n      SUB \t\t\t    // Sender MUST h\n      SWAP1 \t\t\t    // Sender MUST h\n      LOG1 \t\t\t    // Sender MUST h\n      JUMP \t\t\t/ 2. Transfer restriction\\n   ...\n    tag 217\t\t\t\n      JUMPDEST \t\t\t\n      PUSH 0\t\t\t\n      PUSH FFFFFFFFFFFFFFFFFFFFFFFFFFFFFFFFFFFFFFFF\t\t\t\n      AND \t\t\t\n      DUP5 \t\t\t\n      PUSH FFFFFFFFFFFFFFFFFFFFFFFFFFFFFFFFFFFFFFFF\t\t\t\n      AND \t\t\t\n      SUB \t\t\t\n      PUSH [tag] 264\t\t\t\n      JUMPI \t\t\t\n      PUSH 0\t\t\t\n      PUSH 40\t\t\t\n      MLOAD \t\t\t\n      PUSH E602DF0500000000000000000000000000000000000000000000000000000000\t\t\t\n      DUP2 \t\t\t\n      MSTORE \t\t\t\n      PUSH 4\t\t\t\n      ADD \t\t\t\n      PUSH [tag] 265\t\t\t\n      SWAP2 \t\t\t\n      SWAP1 \t\t\t\n      PUSH [tag] 228\t\t\t\n      JUMP \t\t\t\n    tag 265\t\t\t\n      JUMPDEST \t\t\t\n      PUSH 40\t\t\t\n      MLOAD \t\t\t\n      DUP1 \t\t\t\n      SWAP2 \t\t\t\n      SUB \t\t\t\n      SWAP1 \t\t\t\n      REVERT \t\t\t\n    tag 264\t\t\t\n      JUMPDEST \t\t\t\n      PUSH 0\t\t\t\n      PUSH FFFFFFFFFFFFFFFFFFFFFFFFFFFFFFFFFFFFFFFF\t\t\t\n      AND \t\t\t\n      DUP4 \t\t\t\n      PUSH FFFFFFFFFFFFFFFFFFFFFFFFFFFFFFFFFFFFFFFF\t\t\t\n      AND \t\t\t\n      SUB \t\t\t\n      PUSH [tag] 266\t\t\t\n      JUMPI \t\t\t\n      PUSH 0\t\t\t\n      PUSH 40\t\t\t\n      MLOAD \t\t\t\n      PUSH 94280D6200000000000000000000000000000000000000000000000000000000\t\t\t\n      DUP2 \t\t\t\n      MSTORE \t\t\t\n      PUSH 4\t\t\t\n      ADD \t\t\t\n      PUSH [tag] 267\t\t\t\n      SWAP2 \t\t\t\n      SWAP1 \t\t\t\n      PUSH [tag] 228\t\t\t\n      JUMP \t\t\t\n    tag 267\t\t\t\n      JUMPDEST \t\t\t\n      PUSH 40\t\t\t\n      MLOAD \t\t\t\n      DUP1 \t\t\t\n      SWAP2 \t\t\t\n      SUB \t\t\t\n      SWAP1 \t\t\t\n      REVERT \t\t\t\n    tag 266\t\t\t\n      JUMPDEST \t\t\t\n      DUP2 \t\t\t\n      PUSH 1\t\t\t\n      PUSH 0\t\t\t\n      DUP7 \t\t\t\n      PUSH FFFFFFFFFFFFFFFFFFFFFFFFFFFFFFFFFFFFFFFF\t\t\t\n      AND \t\t\t\n      PUSH FFFFFFFFFFFFFFFFFFFFFFFFFFFFFFFFFFFFFFFF\t\t\t\n      AND \t\t\t\n      DUP2 \t\t\t\n      MSTORE \t\t\t\n      PUSH 20\t\t\t\n      ADD \t\t\t\n      SWAP1 \t\t\t\n      DUP2 \t\t\t\n      MSTORE \t\t\t\n      PUSH 20\t\t\t\n      ADD \t\t\t\n      PUSH 0\t\t\t\n      KECCAK256 \t\t\t\n      PUSH 0\t\t\t\n      DUP6 \t\t\t\n      PUSH FFFFFFFFFFFFFFFFFFFFFFFFFFFFFFFFFFFFFFFF\t\t\t\n      AND \t\t\t\n      PUSH FFFFFFFFFFFFFFFFFFFFFFFFFFFFFFFFFFFFFFFF\t\t\t\n      AND \t\t\t\n      DUP2 \t\t\t\n      MSTORE \t\t\t\n      PUSH 20\t\t\t\n      ADD \t\t\t\n      SWAP1 \t\t\t\n      DUP2 \t\t\t\n      MSTORE \t\t\t\n      PUSH 20\t\t\t\n      ADD \t\t\t\n      PUSH 0\t\t\t\n      KECCAK256 \t\t\t\n      DUP2 \t\t\t\n      SWAP1 \t\t\t\n      SSTORE \t\t\t\n      POP \t\t\t\n      DUP1 \t\t\t\n      ISZERO \t\t\t\n      PUSH [tag] 268\t\t\t\n      JUMPI \t\t\t\n      DUP3 \t\t\t\n      PUSH FFFFFFFFFFFFFFFFFFFFFFFFFFFFFFFFFFFFFFFF\t\t\t\n      AND \t\t\t\n      DUP5 \t\t\t\n      PUSH FFFFFFFFFFFFFFFFFFFFFFFFFFFFFFFFFFFFFFFF\t\t\t\n      AND \t\t\t\n      PUSH 8C5BE1E5EBEC7D5BD14F71427D1E84F3DD0314C0F7B2291E5B200AC8C7C3B925\t\t\t\n      DUP5 \t\t\t\n      PUSH 40\t\t\t\n      MLOAD \t\t\t\n      PUSH [tag] 269\t\t\t\n      SWAP2 \t\t\t\n      SWAP1 \t\t\t\n      PUSH [tag] 56\t\t\t\n      JUMP \t\t\t\n    tag 269\t\t\t\n      JUMPDEST \t\t\t\n      PUSH 40\t\t\t\n      MLOAD \t\t\t\n      DUP1 \t\t\t\n      SWAP2 \t\t\t\n      SUB \t\t\t\n      SWAP1 \t\t\t\n      LOG3 \t\t\t\n    tag 268\t\t\t\n      JUMPDEST \t\t\t\n      POP \t\t\t\n      POP \t\t\t\n      POP \t\t\t\n      POP \t\t\t\n      JUMP \t\t\t\n    tag 232\t\t\tfunction _update(address from,...\n      JUMPDEST \t\t\tfunction _update(address from,...\n      PUSH 7\t\t\t_frozenWallets\n      PUSH 0\t\t\t_frozenWallets[from]\n      DUP5 \t\t\tfrom\n      PUSH FFFFFFFFFFFFFFFFFFFFFFFFFFFFFFFFFFFFFFFF\t\t\t_frozenWallets[from]\n      AND \t\t\t_frozenWallets[from]\n      PUSH FFFFFFFFFFFFFFFFFFFFFFFFFFFFFFFFFFFFFFFF\t\t\t_frozenWallets[from]\n      AND \t\t\t_frozenWallets[from]\n      DUP2 \t\t\t_frozenWallets[from]\n      MSTORE \t\t\t_frozenWallets[from]\n      PUSH 20\t\t\t_frozenWallets[from]\n      ADD \t\t\t_frozenWallets[from]\n      SWAP1 \t\t\t_frozenWallets[from]\n      DUP2 \t\t\t_frozenWallets[from]\n      MSTORE \t\t\t_frozenWallets[from]\n      PUSH 20\t\t\t_frozenWallets[from]\n      ADD \t\t\t_frozenWallets[from]\n      PUSH 0\t\t\t_frozenWallets[from]\n      KECCAK256 \t\t\t_frozenWallets[from]\n      PUSH 0\t\t\t_frozenWallets[from]\n      SWAP1 \t\t\t_frozenWallets[from]\n      SLOAD \t\t\t_frozenWallets[from]\n      SWAP1 \t\t\t_frozenWallets[from]\n      PUSH 100\t\t\t_frozenWallets[from]\n      EXP \t\t\t_frozenWallets[from]\n      SWAP1 \t\t\t_frozenWallets[from]\n      DIV \t\t\t_frozenWallets[from]\n      PUSH FF\t\t\t_frozenWallets[from]\n      AND \t\t\t_frozenWallets[from]\n      ISZERO \t\t\t!_frozenWallets[from]\n      DUP1 \t\t\t!_frozenWallets[from] && !_fro...\n      ISZERO \t\t\t!_frozenWallets[from] && !_fro...\n      PUSH [tag] 271\t\t\t!_frozenWallets[from] && !_fro...\n      JUMPI \t\t\t!_frozenWallets[from] && !_fro...\n      POP \t\t\t!_frozenWallets[from] && !_fro...\n      PUSH 7\t\t\t_frozenWallets\n      PUSH 0\t\t\t_frozenWallets[to]\n      DUP4 \t\t\tto\n      PUSH FFFFFFFFFFFFFFFFFFFFFFFFFFFFFFFFFFFFFFFF\t\t\t_frozenWallets[to]\n      AND \t\t\t_frozenWallets[to]\n      PUSH FFFFFFFFFFFFFFFFFFFFFFFFFFFFFFFFFFFFFFFF\t\t\t_frozenWallets[to]\n      AND \t\t\t_frozenWallets[to]\n      DUP2 \t\t\t_frozenWallets[to]\n      MSTORE \t\t\t_frozenWallets[to]\n      PUSH 20\t\t\t_frozenWallets[to]\n      ADD \t\t\t_frozenWallets[to]\n      SWAP1 \t\t\t_frozenWallets[to]\n      DUP2 \t\t\t_frozenWallets[to]\n      MSTORE \t\t\t_frozenWallets[to]\n      PUSH 20\t\t\t_frozenWallets[to]\n      ADD \t\t\t_frozenWallets[to]\n      PUSH 0\t\t\t_frozenWallets[to]\n      KECCAK256 \t\t\t_frozenWallets[to]\n      PUSH 0\t\t\t_frozenWallets[to]\n      SWAP1 \t\t\t_frozenWallets[to]\n      SLOAD \t\t\t_frozenWallets[to]\n      SWAP1 \t\t\t_frozenWallets[to]\n      PUSH 100\t\t\t_frozenWallets[to]\n      EXP \t\t\t_frozenWallets[to]\n      SWAP1 \t\t\t_frozenWallets[to]\n      DIV \t\t\t_frozenWallets[to]\n      PUSH FF\t\t\t_frozenWallets[to]\n      AND \t\t\t_frozenWallets[to]\n      ISZERO \t\t\t!_frozenWallets[to]\n    tag 271\t\t\t!_frozenWallets[from] && !_fro...\n      JUMPDEST \t\t\t!_frozenWallets[from] && !_fro...\n      PUSH [tag] 272\t\t\trequire(!_frozenWallets[from] ...\n      JUMPI \t\t\trequire(!_frozenWallets[from] ...\n      PUSH 40\t\t\trequire(!_frozenWallets[from] ...\n      MLOAD \t\t\trequire(!_frozenWallets[from] ...\n      PUSH 8C379A000000000000000000000000000000000000000000000000000000000\t\t\trequire(!_frozenWallets[from] ...\n      DUP2 \t\t\trequire(!_frozenWallets[from] ...\n      MSTORE \t\t\trequire(!_frozenWallets[from] ...\n      PUSH 4\t\t\trequire(!_frozenWallets[from] ...\n      ADD \t\t\trequire(!_frozenWallets[from] ...\n      PUSH [tag] 273\t\t\trequire(!_frozenWallets[from] ...\n      SWAP1 \t\t\trequire(!_frozenWallets[from] ...\n      PUSH [tag] 274\t\t\trequire(!_frozenWallets[from] ...\n      JUMP \t\t\trequire(!_frozenWallets[from] ...\n    tag 273\t\t\trequire(!_frozenWallets[from] ...\n      JUMPDEST \t\t\trequire(!_frozenWallets[from] ...\n      PUSH 40\t\t\trequire(!_frozenWallets[from] ...\n      MLOAD \t\t\trequire(!_frozenWallets[from] ...\n      DUP1 \t\t\trequire(!_frozenWallets[from] ...\n      SWAP2 \t\t\trequire(!_frozenWallets[from] ...\n      SUB \t\t\trequire(!_frozenWallets[from] ...\n      SWAP1 \t\t\trequire(!_frozenWallets[from] ...\n      REVERT \t\t\trequire(!_frozenWallets[from] ...\n    tag 272\t\t\trequire(!_frozenWallets[from] ...\n      JUMPDEST \t\t\trequire(!_frozenWallets[from] ...\n      PUSH 0\t\t\t0\n      PUSH FFFFFFFFFFFFFFFFFFFFFFFFFFFFFFFFFFFFFFFF\t\t\tfrom != address(0)\n      AND \t\t\tfrom != address(0)\n      DUP4 \t\t\tfrom\n      PUSH FFFFFFFFFFFFFFFFFFFFFFFFFFFFFFFFFFFFFFFF\t\t\tfrom != address(0)\n      AND \t\t\tfrom != address(0)\n      EQ \t\t\tfrom != address(0)\n      ISZERO \t\t\tfrom != address(0)\n      DUP1 \t\t\tfrom != address(0) && to != ad...\n      ISZERO \t\t\tfrom != address(0) && to != ad...\n      PUSH [tag] 275\t\t\tfrom != address(0) && to != ad...\n      JUMPI \t\t\tfrom != address(0) && to != ad...\n      POP \t\t\tfrom != address(0) && to != ad...\n      PUSH 0\t\t\t0\n      PUSH FFFFFFFFFFFFFFFFFFFFFFFFFFFFFFFFFFFFFFFF\t\t\tto != address(0)\n      AND \t\t\tto != address(0)\n      DUP3 \t\t\tto\n      PUSH FFFFFFFFFFFFFFFFFFFFFFFFFFFFFFFFFFFFFFFF\t\t\tto != address(0)\n      AND \t\t\tto != address(0)\n      EQ \t\t\tto != address(0)\n      ISZERO \t\t\tto != address(0)\n    tag 275\t\t\tfrom != address(0) && to != ad...\n      JUMPDEST \t\t\tfrom != address(0) && to != ad...\n      ISZERO \t\t\tif (from != address(0) && to !...\n      PUSH [tag] 276\t\t\tif (from != address(0) && to !...\n      JUMPI \t\t\tif (from != address(0) && to !...\n      PUSH [tag] 277\t\t\thasRole(TRADER_ROLE, from)\n      PUSH FACAF2747A7486CF5730E9265973FB54447D3ACE6E7E4711F6360826B0731941\t\t\tkeccak256(\"TRADER_ROLE\")\n      DUP5 \t\t\tfrom\n      PUSH [tag] 98\t\t\thasRole\n      JUMP \t\t\thasRole(TRADER_ROLE, from)\n    tag 277\t\t\thasRole(TRADER_ROLE, from)\n      JUMPDEST \t\t\thasRole(TRADER_ROLE, from)\n      PUSH [tag] 278\t\t\trequire(hasRole(TRADER_ROLE, f...\n      JUMPI \t\t\trequire(hasRole(TRADER_ROLE, f...\n      PUSH 40\t\t\trequire(hasRole(TRADER_ROLE, f...\n      MLOAD \t\t\trequire(hasRole(TRADER_ROLE, f...\n      PUSH 8C379A000000000000000000000000000000000000000000000000000000000\t\t\trequire(hasRole(TRADER_ROLE, f...\n      DUP2 \t\t\trequire(hasRole(TRADER_ROLE, f...\n      MSTORE \t\t\trequire(hasRole(TRADER_ROLE, f...\n      PUSH 4\t\t\trequire(hasRole(TRADER_ROLE, f...\n      ADD \t\t\trequire(hasRole(TRADER_ROLE, f...\n      PUSH [tag] 279\t\t\trequire(hasRole(TRADER_ROLE, f...\n      SWAP1 \t\t\trequire(hasRole(TRADER_ROLE, f...\n      PUSH [tag] 280\t\t\trequire(hasRole(TRADER_ROLE, f...\n      JUMP \t\t\trequire(hasRole(TRADER_ROLE, f...\n    tag 279\t\t\trequire(hasRole(TRADER_ROLE, f...\n      JUMPDEST \t\t\trequire(hasRole(TRADER_ROLE, f...\n      PUSH 40\t\t\trequire(hasRole(TRADER_ROLE, f...\n      MLOAD \t\t\trequire(hasRole(TRADER_ROLE, f...\n      DUP1 \t\t\trequire(hasRole(TRADER_ROLE, f...\n      SWAP2 \t\t\trequire(hasRole(TRADER_ROLE, f...\n      SUB \t\t\trequire(hasRole(TRADER_ROLE, f...\n      SWAP1 \t\t\trequire(hasRole(TRADER_ROLE, f...\n      REVERT \t\t\trequire(hasRole(TRADER_ROLE, f...\n    tag 278\t\t\trequire(hasRole(TRADER_ROLE, f...\n      JUMPDEST \t\t\trequire(hasRole(TRADER_ROLE, f...\n      PUSH [tag] 281\t\t\thasRole(TRADER_ROLE, to)\n      PUSH FACAF2747A7486CF5730E9265973FB54447D3ACE6E7E4711F6360826B0731941\t\t\tkeccak256(\"TRADER_ROLE\")\n      DUP4 \t\t\tto\n      PUSH [tag] 98\t\t\thasRole\n      JUMP \t\t\thasRole(TRADER_ROLE, to)\n    tag 281\t\t\thasRole(TRADER_ROLE, to)\n      JUMPDEST \t\t\thasRole(TRADER_ROLE, to)\n      PUSH [tag] 282\t\t\tif (!hasRole(TRADER_ROLE, to))...\n      JUMPI \t\t\tif (!hasRole(TRADER_ROLE, to))...\n      PUSH 0\t\t\t0\n      PUSH [tag] 283\t\t\tbalanceOf(to)\n      DUP4 \t\t\tto\n      PUSH [tag] 92\t\t\tbalanceOf\n      JUMP \t\t\tbalanceOf(to)\n    tag 283\t\t\tbalanceOf(to)\n      JUMPDEST \t\t\tbalanceOf(to)\n      EQ \t\t\tbalanceOf(to) == 0\n      PUSH [tag] 284\t\t\trequire(balanceOf(to) == 0, \"R...\n      JUMPI \t\t\trequire(balanceOf(to) == 0, \"R...\n      PUSH 40\t\t\trequire(balanceOf(to) == 0, \"R...\n      MLOAD \t\t\trequire(balanceOf(to) == 0, \"R...\n      PUSH 8C379A000000000000000000000000000000000000000000000000000000000\t\t\trequire(balanceOf(to) == 0, \"R...\n      DUP2 \t\t\trequire(balanceOf(to) == 0, \"R...\n      MSTORE \t\t\trequire(balanceOf(to) == 0, \"R...\n      PUSH 4\t\t\trequire(balanceOf(to) == 0, \"R...\n      ADD \t\t\trequire(balanceOf(to) == 0, \"R...\n      PUSH [tag] 285\t\t\trequire(balanceOf(to) == 0, \"R...\n      SWAP1 \t\t\trequire(balanceOf(to) == 0, \"R...\n      PUSH [tag] 286\t\t\trequire(balanceOf(to) == 0, \"R...\n      JUMP \t\t\trequire(balanceOf(to) == 0, \"R...\n    tag 285\t\t\trequire(balanceOf(to) == 0, \"R...\n      JUMPDEST \t\t\trequire(balanceOf(to) == 0, \"R...\n      PUSH 40\t\t\trequire(balanceOf(to) == 0, \"R...\n      MLOAD \t\t\trequire(balanceOf(to) == 0, \"R...\n      DUP1 \t\t\trequire(balanceOf(to) == 0, \"R...\n      SWAP2 \t\t\trequire(balanceOf(to) == 0, \"R...\n      SUB \t\t\trequire(balanceOf(to) == 0, \"R...\n      SWAP1 \t\t\trequire(balanceOf(to) == 0, \"R...\n      REVERT \t\t\trequire(balanceOf(to) == 0, \"R...\n    tag 284\t\t\trequire(balanceOf(to) == 0, \"R...\n      JUMPDEST \t\t\trequire(balanceOf(to) == 0, \"R...\n    tag 282\t\t\tif (!hasRole(TRADER_ROLE, to))...\n      JUMPDEST \t\t\tif (!hasRole(TRADER_ROLE, to))...\n    tag 276\t\t\tif (from != address(0) && to !...\n      JUMPDEST \t\t\tif (from != address(0) && to !...\n      PUSH [tag] 287\t\t\tsuper._update(from, to, value)\n      DUP4 \t\t\tfrom\n      DUP4 \t\t\tto\n      DUP4 \t\t\tvalue\n      PUSH [tag] 288\t\t\tsuper._update\n      JUMP \t\t\tsuper._update(from, to, value)\n    tag 287\t\t\tsuper._update(from, to, value)\n      JUMPDEST \t\t\tsuper._update(from, to, value)\n      POP \t\t\tfunction _update(address from,...\n      POP \t\t\tfunction _update(address from,...\n      POP \t\t\tfunction _update(address from,...\n      JUMP \t\t\tfunction _update(address from,...\n    tag 236\t\t\t\n      JUMPDEST \t\t\t\n      PUSH [tag] 290\t\t\t\n      DUP3 \t\t\t\n      DUP3 \t\t\t\n      PUSH [tag] 98\t\t\t\n      JUMP \t\t\t\n    tag 290\t\t\t\n      JUMPDEST \t\t\t\n      PUSH [tag] 291\t\t\t\n      JUMPI \t\t\t\n      DUP1 \t\t\t\n      DUP3 \t\t\t\n      PUSH 40\t\t\t\n      MLOAD \t\t\t\n      PUSH E2517D3F00000000000000000000000000000000000000000000000000000000\t\t\t\n      DUP2 \t\t\t\n      MSTORE \t\t\t\n      PUSH 4\t\t\t\n      ADD \t\t\t\n      PUSH [tag] 292\t\t\t\n      SWAP3 \t\t\t\n      SWAP2 \t\t\t\n      SWAP1 \t\t\t\n      PUSH [tag] 293\t\t\t\n      JUMP \t\t\t\n    tag 292\t\t\t\n      JUMPDEST \t\t\t\n      PUSH 40\t\t\t\n      MLOAD \t\t\t\n      DUP1 \t\t\t\n      SWAP2 \t\t\t\n      SUB \t\t\t\n      SWAP1 \t\t\t\n      REVERT \t\t\t\n    tag 291\t\t\t\n      JUMPDEST \t\t\t\n      POP \t\t\t\n      POP \t\t\t\n      JUMP \t\t\t\n    tag 249\t\t\t Override -----\\n\\n    functio...\n      JUMPDEST \t\t\t Override -----\\n\\n    functio...\n      PUSH [tag] 295\t\t\t uint256\n      PUSH [tag] 84\t\t\t uint2\n      JUMP \t\t\t uint256\n    tag 295\t\t\t uint256\n      JUMPDEST \t\t\t uint256\n      PUSH [tag] 296\t\t\ts to, uint256 value)\\n        ...\n      JUMPI \t\t\ts to, uint256 value)\\n        ...\n      PUSH 40\t\t\tl\\n        overr\n      MLOAD \t\t\tl\\n        overr\n      PUSH 8DFC202B00000000000000000000000000000000000000000000000000000000\t\t\tl\\n        overr\n      DUP2 \t\t\tl\\n        overr\n      MSTORE \t\t\tl\\n        overr\n      PUSH 4\t\t\tl\\n        overr\n      ADD \t\t\tl\\n        overr\n      PUSH 40\t\t\tl\\n        overr\n      MLOAD \t\t\tl\\n        overr\n      DUP1 \t\t\tl\\n        overr\n      SWAP2 \t\t\tl\\n        overr\n      SUB \t\t\tl\\n        overr\n      SWAP1 \t\t\tl\\n        overr\n      REVERT \t\t\tl\\n        overr\n    tag 296\t\t\ts to, uint256 value)\\n        ...\n      JUMPDEST \t\t\ts to, uint256 value)\\n        ...\n      JUMP \t\t\t Override -----\\n\\n    functio...\n    tag 259\t\t\taccount);\\n    }\\n\\n    functi...\n      JUMPDEST \t\t\taccount);\\n    }\\n\\n    functi...\n      PUSH [tag] 298\t\t\tLE) {\\n  \n      PUSH [tag] 84\t\t\tLE) {\\n\n      JUMP \t\t\tLE) {\\n  \n    tag 298\t\t\tLE) {\\n  \n      JUMPDEST \t\t\tLE) {\\n  \n      ISZERO \t\t\tR_ROLE) {\\n        _pause();\\n...\n      PUSH [tag] 299\t\t\tR_ROLE) {\\n        _pause();\\n...\n      JUMPI \t\t\tR_ROLE) {\\n        _pause();\\n...\n      PUSH 40\t\t\t    function un\n      MLOAD \t\t\t    function un\n      PUSH D93C066500000000000000000000000000000000000000000000000000000000\t\t\t    function un\n      DUP2 \t\t\t    function un\n      MSTORE \t\t\t    function un\n      PUSH 4\t\t\t    function un\n      ADD \t\t\t    function un\n      PUSH 40\t\t\t    function un\n      MLOAD \t\t\t    function un\n      DUP1 \t\t\t    function un\n      SWAP2 \t\t\t    function un\n      SUB \t\t\t    function un\n      SWAP1 \t\t\t    function un\n      REVERT \t\t\t    function un\n    tag 299\t\t\tR_ROLE) {\\n        _pause();\\n...\n      JUMPDEST \t\t\tR_ROLE) {\\n        _pause();\\n...\n      JUMP \t\t\taccount);\\n    }\\n\\n    functi...\n    tag 288\t\t\tgrantRole(PAUSER_ROLE, msg.sen...\n      JUMPDEST \t\t\tgrantRole(PAUSER_ROLE, msg.sen...\n      PUSH [tag] 301\t\t\tt) external onlyRol\n      PUSH [tag] 259\t\t\tt) external onlyR\n      JUMP \t\t\tt) external onlyRol\n    tag 301\t\t\tt) external onlyRol\n      JUMPDEST \t\t\tt) external onlyRol\n      PUSH [tag] 303\t\t\t      _grantRole(TRADER_ROLE, \n      DUP4 \t\t\tle(T\n      DUP4 \t\t\tDE\n      DUP4 \t\t\tROLE,\n      PUSH [tag] 304\t\t\t      _grantR\n      JUMP \t\t\t      _grantRole(TRADER_ROLE, \n    tag 303\t\t\t      _grantRole(TRADER_ROLE, \n      JUMPDEST \t\t\t      _grantRole(TRADER_ROLE, \n      POP \t\t\tgrantRole(PAUSER_ROLE, msg.sen...\n      POP \t\t\tgrantRole(PAUSER_ROLE, msg.sen...\n      POP \t\t\tgrantRole(PAUSER_ROLE, msg.sen...\n      JUMP \t\t\tgrantRole(PAUSER_ROLE, msg.sen...\n    tag 304\t\t\t\n      JUMPDEST \t\t\t\n      PUSH 0\t\t\t\n      PUSH FFFFFFFFFFFFFFFFFFFFFFFFFFFFFFFFFFFFFFFF\t\t\t\n      AND \t\t\t\n      DUP4 \t\t\t\n      PUSH FFFFFFFFFFFFFFFFFFFFFFFFFFFFFFFFFFFFFFFF\t\t\t\n      AND \t\t\t\n      SUB \t\t\t\n      PUSH [tag] 306\t\t\t\n      JUMPI \t\t\t\n      DUP1 \t\t\t\n      PUSH 2\t\t\t\n      PUSH 0\t\t\t\n      DUP3 \t\t\t\n      DUP3 \t\t\t\n      SLOAD \t\t\t\n      PUSH [tag] 307\t\t\t\n      SWAP2 \t\t\t\n      SWAP1 \t\t\t\n      PUSH [tag] 308\t\t\t\n      JUMP \t\t\t\n    tag 307\t\t\t\n      JUMPDEST \t\t\t\n      SWAP3 \t\t\t\n      POP \t\t\t\n      POP \t\t\t\n      DUP2 \t\t\t\n      SWAP1 \t\t\t\n      SSTORE \t\t\t\n      POP \t\t\t\n      PUSH [tag] 309\t\t\t\n      JUMP \t\t\t\n    tag 306\t\t\t\n      JUMPDEST \t\t\t\n      PUSH 0\t\t\t\n      PUSH 0\t\t\t\n      PUSH 0\t\t\t\n      DUP6 \t\t\t\n      PUSH FFFFFFFFFFFFFFFFFFFFFFFFFFFFFFFFFFFFFFFF\t\t\t\n      AND \t\t\t\n      PUSH FFFFFFFFFFFFFFFFFFFFFFFFFFFFFFFFFFFFFFFF\t\t\t\n      AND \t\t\t\n      DUP2 \t\t\t\n      MSTORE \t\t\t\n      PUSH 20\t\t\t\n      ADD \t\t\t\n      SWAP1 \t\t\t\n      DUP2 \t\t\t\n      MSTORE \t\t\t\n      PUSH 20\t\t\t\n      ADD \t\t\t\n      PUSH 0\t\t\t\n      KECCAK256 \t\t\t\n      SLOAD \t\t\t\n      SWAP1 \t\t\t\n      POP \t\t\t\n      DUP2 \t\t\t\n      DUP2 \t\t\t\n      LT \t\t\t\n      ISZERO \t\t\t\n      PUSH [tag] 310\t\t\t\n      JUMPI \t\t\t\n      DUP4 \t\t\t\n      DUP2 \t\t\t\n      DUP4 \t\t\t\n      PUSH 40\t\t\t\n      MLOAD \t\t\t\n      PUSH E450D38C00000000000000000000000000000000000000000000000000000000\t\t\t\n      DUP2 \t\t\t\n      MSTORE \t\t\t\n      PUSH 4\t\t\t\n      ADD \t\t\t\n      PUSH [tag] 311\t\t\t\n      SWAP4 \t\t\t\n      SWAP3 \t\t\t\n      SWAP2 \t\t\t\n      SWAP1 \t\t\t\n      PUSH [tag] 223\t\t\t\n      JUMP \t\t\t\n    tag 311\t\t\t\n      JUMPDEST \t\t\t\n      PUSH 40\t\t\t\n      MLOAD \t\t\t\n      DUP1 \t\t\t\n      SWAP2 \t\t\t\n      SUB \t\t\t\n      SWAP1 \t\t\t\n      REVERT \t\t\t\n    tag 310\t\t\t\n      JUMPDEST \t\t\t\n      DUP2 \t\t\t\n      DUP2 \t\t\t\n      SUB \t\t\t\n      PUSH 0\t\t\t\n      PUSH 0\t\t\t\n      DUP7 \t\t\t\n      PUSH FFFFFFFFFFFFFFFFFFFFFFFFFFFFFFFFFFFFFFFF\t\t\t\n      AND \t\t\t\n      PUSH FFFFFFFFFFFFFFFFFFFFFFFFFFFFFFFFFFFFFFFF\t\t\t\n      AND \t\t\t\n      DUP2 \t\t\t\n      MSTORE \t\t\t\n      PUSH 20\t\t\t\n      ADD \t\t\t\n      SWAP1 \t\t\t\n      DUP2 \t\t\t\n      MSTORE \t\t\t\n      PUSH 20\t\t\t\n      ADD \t\t\t\n      PUSH 0\t\t\t\n      KECCAK256 \t\t\t\n      DUP2 \t\t\t\n      SWAP1 \t\t\t\n      SSTORE \t\t\t\n      POP \t\t\t\n      POP \t\t\t\n    tag 309\t\t\t\n      JUMPDEST \t\t\t\n      PUSH 0\t\t\t\n      PUSH FFFFFFFFFFFFFFFFFFFFFFFFFFFFFFFFFFFFFFFF\t\t\t\n      AND \t\t\t\n      DUP3 \t\t\t\n      PUSH FFFFFFFFFFFFFFFFFFFFFFFFFFFFFFFFFFFFFFFF\t\t\t\n      AND \t\t\t\n      SUB \t\t\t\n      PUSH [tag] 312\t\t\t\n      JUMPI \t\t\t\n      DUP1 \t\t\t\n      PUSH 2\t\t\t\n      PUSH 0\t\t\t\n      DUP3 \t\t\t\n      DUP3 \t\t\t\n      SLOAD \t\t\t\n      SUB \t\t\t\n      SWAP3 \t\t\t\n      POP \t\t\t\n      POP \t\t\t\n      DUP2 \t\t\t\n      SWAP1 \t\t\t\n      SSTORE \t\t\t\n      POP \t\t\t\n      PUSH [tag] 313\t\t\t\n      JUMP \t\t\t\n    tag 312\t\t\t\n      JUMPDEST \t\t\t\n      DUP1 \t\t\t\n      PUSH 0\t\t\t\n      PUSH 0\t\t\t\n      DUP5 \t\t\t\n      PUSH FFFFFFFFFFFFFFFFFFFFFFFFFFFFFFFFFFFFFFFF\t\t\t\n      AND \t\t\t\n      PUSH FFFFFFFFFFFFFFFFFFFFFFFFFFFFFFFFFFFFFFFF\t\t\t\n      AND \t\t\t\n      DUP2 \t\t\t\n      MSTORE \t\t\t\n      PUSH 20\t\t\t\n      ADD \t\t\t\n      SWAP1 \t\t\t\n      DUP2 \t\t\t\n      MSTORE \t\t\t\n      PUSH 20\t\t\t\n      ADD \t\t\t\n      PUSH 0\t\t\t\n      KECCAK256 \t\t\t\n      PUSH 0\t\t\t\n      DUP3 \t\t\t\n      DUP3 \t\t\t\n      SLOAD \t\t\t\n      ADD \t\t\t\n      SWAP3 \t\t\t\n      POP \t\t\t\n      POP \t\t\t\n      DUP2 \t\t\t\n      SWAP1 \t\t\t\n      SSTORE \t\t\t\n      POP \t\t\t\n    tag 313\t\t\t\n      JUMPDEST \t\t\t\n      DUP2 \t\t\t\n      PUSH FFFFFFFFFFFFFFFFFFFFFFFFFFFFFFFFFFFFFFFF\t\t\t\n      AND \t\t\t\n      DUP4 \t\t\t\n      PUSH FFFFFFFFFFFFFFFFFFFFFFFFFFFFFFFFFFFFFFFF\t\t\t\n      AND \t\t\t\n      PUSH DDF252AD1BE2C89B69C2B068FC378DAA952BA7F163C4A11628F55A4DF523B3EF\t\t\t\n      DUP4 \t\t\t\n      PUSH 40\t\t\t\n      MLOAD \t\t\t\n      PUSH [tag] 314\t\t\t\n      SWAP2 \t\t\t\n      SWAP1 \t\t\t\n      PUSH [tag] 56\t\t\t\n      JUMP \t\t\t\n    tag 314\t\t\t\n      JUMPDEST \t\t\t\n      PUSH 40\t\t\t\n      MLOAD \t\t\t\n      DUP1 \t\t\t\n      SWAP2 \t\t\t\n      SUB \t\t\t\n      SWAP1 \t\t\t\n      LOG3 \t\t\t\n      POP \t\t\t\n      POP \t\t\t\n      POP \t\t\t\n      JUMP \t\t\t\n    tag 316\t\t\t/token/ERC20/ERC20.sol\";\\nimpo...\n      JUMPDEST \t\t\t/token/ERC20/ERC20.sol\";\\nimpo...\n      PUSH 0\t\t\to\n      PUSH 0\t\t\t \n      REVERT \t\t\t\\nimport \"@op\n    tag 318\t\t\tbytes32 public constant MINTER...\n      JUMPDEST \t\t\tbytes32 public constant MINTER...\n      PUSH 0\t\t\t= kecca\n      PUSH FFFFFFFF00000000000000000000000000000000000000000000000000000000\t\t\tpublic constant FREEZER_ROLE =...\n      DUP3 \t\t\tytes3\n      AND \t\t\t   bytes32 public constant FRE...\n      SWAP1 \t\t\tR_ROLE\");\\n    bytes32 public ...\n      POP \t\t\tR_ROLE\");\\n    bytes32 public ...\n      SWAP2 \t\t\tbytes32 public constant MINTER...\n      SWAP1 \t\t\tbytes32 public constant MINTER...\n      POP \t\t\tbytes32 public constant MINTER...\n      JUMP \t\t\tbytes32 public constant MINTER...\n    tag 319\t\t\tnstant PAUSER_ROLE = keccak256...\n      JUMPDEST \t\t\tnstant PAUSER_ROLE = keccak256...\n      PUSH [tag] 361\t\t\tnt TRADER_ROLE = keccak\n      DUP2 \t\t\tkecca\n      PUSH [tag] 318\t\t\tnt TRADER_ROLE = keccak\n      JUMP \t\t\tnt TRADER_ROLE = keccak\n    tag 361\t\t\tnt TRADER_ROLE = keccak\n      JUMPDEST \t\t\tnt TRADER_ROLE = keccak\n      DUP2 \t\t\t cons\n      EQ \t\t\tlic constant TRADER_ROLE = kec...\n      PUSH [tag] 362\t\t\tytes32 public constant TRADER_...\n      JUMPI \t\t\tytes32 public constant TRADER_...\n      PUSH 0\t\t\tE\n      PUSH 0\t\t\tR\n      REVERT \t\t\tTRADER_ROLE\"\n    tag 362\t\t\tytes32 public constant TRADER_...\n      JUMPDEST \t\t\tytes32 public constant TRADER_...\n      POP \t\t\tnstant PAUSER_ROLE = keccak256...\n      JUMP \t\t\tnstant PAUSER_ROLE = keccak256...\n    tag 320\t\t\t   // Storage for frozen walle...\n      JUMPDEST \t\t\t   // Storage for frozen walle...\n      PUSH 0\t\t\taddre\n      DUP2 \t\t\ts;\\n\\n  \n      CALLDATALOAD \t\t\t_frozenWallets;\\n\\n   \n      SWAP1 \t\t\t private _frozenWallets;\\n\\n  ...\n      POP \t\t\t private _frozenWallets;\\n\\n  ...\n      PUSH [tag] 364\t\t\ts\\n    event WalletFrozen(addr...\n      DUP2 \t\t\tddres\n      PUSH [tag] 319\t\t\ts\\n    event WalletFrozen(addr...\n      JUMP \t\t\ts\\n    event WalletFrozen(addr...\n    tag 364\t\t\ts\\n    event WalletFrozen(addr...\n      JUMPDEST \t\t\ts\\n    event WalletFrozen(addr...\n      SWAP3 \t\t\t   // Storage for frozen walle...\n      SWAP2 \t\t\t   // Storage for frozen walle...\n      POP \t\t\t   // Storage for frozen walle...\n      POP \t\t\t   // Storage for frozen walle...\n      JUMP \t\t\t   // Storage for frozen walle...\n    tag 36\t\t\tount);\\n    event WalletUnfroz...\n      JUMPDEST \t\t\tount);\\n    event WalletUnfroz...\n      PUSH 0\t\t\t    ev\n      PUSH 20\t\t\tnt\n      DUP3 \t\t\tuint256 a\n      DUP5 \t\t\texed to\n      SUB \t\t\t indexed to, uint256 am\n      SLT \t\t\tress indexed to, uint256 amoun...\n      ISZERO \t\t\taddress indexed to, uint256 am...\n      PUSH [tag] 366\t\t\taddress indexed to, uint256 am...\n      JUMPI \t\t\taddress indexed to, uint256 am...\n      PUSH [tag] 367\t\t\t    constructor() ERC20(\"RINAN...\n      PUSH [tag] 316\t\t\t    constructor() ERC20(\"RINAN...\n      JUMP \t\t\t    constructor() ERC20(\"RINAN...\n    tag 367\t\t\t    constructor() ERC20(\"RINAN...\n      JUMPDEST \t\t\t    constructor() ERC20(\"RINAN...\n    tag 366\t\t\taddress indexed to, uint256 am...\n      JUMPDEST \t\t\taddress indexed to, uint256 am...\n      PUSH 0\t\t\tI\n      PUSH [tag] 368\t\t\t     _grantRole(MINTER_ROLE, m...\n      DUP5 \t\t\t      _\n      DUP3 \t\t\tnder);\n      DUP6 \t\t\tOLE, msg.\n      ADD \t\t\tER_ROLE, msg.sender);\\n\n      PUSH [tag] 320\t\t\t     _grantRole(MINTER_ROLE, m...\n      JUMP \t\t\t     _grantRole(MINTER_ROLE, m...\n    tag 368\t\t\t     _grantRole(MINTER_ROLE, m...\n      JUMPDEST \t\t\t     _grantRole(MINTER_ROLE, m...\n      SWAP2 \t\t\tnder);\\n        _grantRole(MIN...\n      POP \t\t\tnder);\\n        _grantRole(MIN...\n      POP \t\t\t       _grantRole(DEFAULT_ADMI...\n      SWAP3 \t\t\tount);\\n    event WalletUnfroz...\n      SWAP2 \t\t\tount);\\n    event WalletUnfroz...\n      POP \t\t\tount);\\n    event WalletUnfroz...\n      POP \t\t\tount);\\n    event WalletUnfroz...\n      JUMP \t\t\tount);\\n    event WalletUnfroz...\n    tag 321\t\t\tmsg.sender);\\n        _grantRo...\n      JUMPDEST \t\t\tmsg.sender);\\n        _grantRo...\n      PUSH 0\t\t\tUSER_RO\n      DUP2 \t\t\tRADER\n      ISZERO \t\t\tGrant TRADER_\n      ISZERO \t\t\t    // Grant TRADER_R\n      SWAP1 \t\t\tder);\\n\\n        // Grant TRAD...\n      POP \t\t\tder);\\n\\n        // Grant TRAD...\n      SWAP2 \t\t\tmsg.sender);\\n        _grantRo...\n      SWAP1 \t\t\tmsg.sender);\\n        _grantRo...\n      POP \t\t\tmsg.sender);\\n        _grantRo...\n      JUMP \t\t\tmsg.sender);\\n        _grantRo...\n    tag 322\t\t\teployer so they can move token...\n      JUMPDEST \t\t\teployer so they can move token...\n      PUSH [tag] 371\t\t\t}\\n\\n    // ----- Admin\n      DUP2 \t\t\t Admi\n      PUSH [tag] 321\t\t\t}\\n\\n    // ----- Admin\n      JUMP \t\t\t}\\n\\n    // ----- Admin\n    tag 371\t\t\t}\\n\\n    // ----- Admin\n      JUMPDEST \t\t\t}\\n\\n    // ----- Admin\n      DUP3 \t\t\t\\n  \n      MSTORE \t\t\tender);\\n    }\\n\\n    // -----...\n      POP \t\t\teployer so they can move token...\n      POP \t\t\teployer so they can move token...\n      JUMP \t\t\teployer so they can move token...\n    tag 39\t\t\t---\\n\\n    function mint(addre...\n      JUMPDEST \t\t\t---\\n\\n    function mint(addre...\n      PUSH 0\t\t\t    \n      PUSH 20\t\t\tin\n      DUP3 \t\t\t     emit\n      ADD \t\t\t\\n        emit Mint\n      SWAP1 \t\t\tamount);\\n        emit Mint\n      POP \t\t\tamount);\\n        emit Mint\n      PUSH [tag] 373\t\t\tunt);\\n    }\\n\\n    function f...\n      PUSH 0\t\t\ta\n      DUP4 \t\t\tunt) exte\n      ADD \t\t\taccount) external\n      DUP5 \t\t\t(addre\n      PUSH [tag] 322\t\t\tunt);\\n    }\\n\\n    function f...\n      JUMP \t\t\tunt);\\n    }\\n\\n    function f...\n    tag 373\t\t\tunt);\\n    }\\n\\n    function f...\n      JUMPDEST \t\t\tunt);\\n    }\\n\\n    function f...\n      SWAP3 \t\t\t---\\n\\n    function mint(addre...\n      SWAP2 \t\t\t---\\n\\n    function mint(addre...\n      POP \t\t\t---\\n\\n    function mint(addre...\n      POP \t\t\t---\\n\\n    function mint(addre...\n      JUMP \t\t\t---\\n\\n    function mint(addre...\n    tag 323\t\t\tZER_ROLE) {\\n        require(!...\n      JUMPDEST \t\t\tZER_ROLE) {\\n        require(!...\n      PUSH 0\t\t\tallets[\n      DUP2 \t\t\tzen\")\n      SWAP1 \t\t\tAlready frozen\")\n      POP \t\t\tAlready frozen\")\n      SWAP2 \t\t\tZER_ROLE) {\\n        require(!...\n      SWAP1 \t\t\tZER_ROLE) {\\n        require(!...\n      POP \t\t\tZER_ROLE) {\\n        require(!...\n      JUMP \t\t\tZER_ROLE) {\\n        require(!...\n    tag 324\t\t\trozenWallets[account] = true;\\...\n      JUMPDEST \t\t\trozenWallets[account] = true;\\...\n      PUSH [tag] 376\t\t\tnfreezeWallet(address ac\n      DUP2 \t\t\tess a\n      PUSH [tag] 323\t\t\tnfreezeWallet(address ac\n      JUMP \t\t\tnfreezeWallet(address ac\n    tag 376\t\t\tnfreezeWallet(address ac\n      JUMPDEST \t\t\tnfreezeWallet(address ac\n      DUP3 \t\t\tion\n      MSTORE \t\t\t  function unfreezeWallet(addr...\n      POP \t\t\trozenWallets[account] = true;\\...\n      POP \t\t\trozenWallets[account] = true;\\...\n      JUMP \t\t\trozenWallets[account] = true;\\...\n    tag 43\t\t\tal onlyRole(FREEZER_ROLE) {\\n ...\n      JUMPDEST \t\t\tal onlyRole(FREEZER_ROLE) {\\n ...\n      PUSH 0\t\t\tfroz\n      PUSH 20\t\t\t  \n      DUP3 \t\t\tlse;\\n    \n      ADD \t\t\t= false;\\n        e\n      SWAP1 \t\t\tccount] = false;\\n        e\n      POP \t\t\tccount] = false;\\n        e\n      PUSH [tag] 378\t\t\tUnfrozen(account);\\n    }\\n\\n ...\n      PUSH 0\t\t\tS\n      DUP4 \t\t\tnlyRole(P\n      ADD \t\t\tal onlyRole(PAUSE\n      DUP5 \t\t\t() ext\n      PUSH [tag] 324\t\t\tUnfrozen(account);\\n    }\\n\\n ...\n      JUMP \t\t\tUnfrozen(account);\\n    }\\n\\n ...\n    tag 378\t\t\tUnfrozen(account);\\n    }\\n\\n ...\n      JUMPDEST \t\t\tUnfrozen(account);\\n    }\\n\\n ...\n      SWAP3 \t\t\tal onlyRole(FREEZER_ROLE) {\\n ...\n      SWAP2 \t\t\tal onlyRole(FREEZER_ROLE) {\\n ...\n      POP \t\t\tal onlyRole(FREEZER_ROLE) {\\n ...\n      POP \t\t\tal onlyRole(FREEZER_ROLE) {\\n ...\n      JUMP \t\t\tal onlyRole(FREEZER_ROLE) {\\n ...\n    tag 325\t\t\t    _pause();\\n    }\\n\\n    fu...\n      JUMPDEST \t\t\t    _pause();\\n    }\\n\\n    fu...\n      PUSH 0\t\t\t onlyR\n      DUP2 \t\t\tunpau\n      MLOAD \t\t\t     _unpaus\n      SWAP1 \t\t\tOLE) {\\n        _unpaus\n      POP \t\t\tOLE) {\\n        _unpaus\n      SWAP2 \t\t\t    _pause();\\n    }\\n\\n    fu...\n      SWAP1 \t\t\t    _pause();\\n    }\\n\\n    fu...\n      POP \t\t\t    _pause();\\n    }\\n\\n    fu...\n      JUMP \t\t\t    _pause();\\n    }\\n\\n    fu...\n    tag 326\t\t\t   // ----- Internal Override ...\n      JUMPDEST \t\t\t   // ----- Internal Override ...\n      PUSH 0\t\t\tuint256 val\n      DUP3 \t\t\t      \n      DUP3 \t\t\tal\\n\n      MSTORE \t\t\t internal\\n        o\n      PUSH 20\t\t\t {\\n \n      DUP3 \t\t\t)\\n \n      ADD \t\t\table)\\n    {\\n  \n      SWAP1 \t\t\tRC20, ERC20Pausable)\\n    {\\n ...\n      POP \t\t\tRC20, ERC20Pausable)\\n    {\\n ...\n      SWAP3 \t\t\t   // ----- Internal Override ...\n      SWAP2 \t\t\t   // ----- Internal Override ...\n      POP \t\t\t   // ----- Internal Override ...\n      POP \t\t\t   // ----- Internal Override ...\n      JUMP \t\t\t   // ----- Internal Override ...\n    tag 327\t\t\tFreeze check\\n        require(...\n      JUMPDEST \t\t\tFreeze check\\n        require(...\n      DUP3 \t\t\tzen\");\n      DUP2 \t\t\ts f\n      DUP4 \t\t\tlet\n      MCOPY \t\t\t, \"Wallet is frozen\");\\n\n      PUSH 0\t\t\tn\n      DUP4 \t\t\testric\n      DUP4 \t\t\tfer\n      ADD \t\t\transfer restrict\n      MSTORE \t\t\t// 2. Transfer restriction\\n\n      POP \t\t\tFreeze check\\n        require(...\n      POP \t\t\tFreeze check\\n        require(...\n      POP \t\t\tFreeze check\\n        require(...\n      JUMP \t\t\tFreeze check\\n        require(...\n    tag 328\t\t\trom != address(0) && to != add...\n      JUMPDEST \t\t\trom != address(0) && to != add...\n      PUSH 0\t\t\t      \n      PUSH 1F\t\t\t  \n      NOT \t\t\t       \n      PUSH 1F\t\t\tE\\n\n      DUP4 \t\t\tDER_R\n      ADD \t\t\t TRADER_ROLE\\n \n      AND \t\t\thave TRADER_ROLE\\n           \n      SWAP1 \t\t\tnder MUST have TRADER_ROLE\\n  ...\n      POP \t\t\tnder MUST have TRADER_ROLE\\n  ...\n      SWAP2 \t\t\trom != address(0) && to != add...\n      SWAP1 \t\t\trom != address(0) && to != add...\n      POP \t\t\trom != address(0) && to != add...\n      JUMP \t\t\trom != address(0) && to != add...\n    tag 329\t\t\tRole(TRADER_ROLE, from), \"Send...\n      JUMPDEST \t\t\tRole(TRADER_ROLE, from), \"Send...\n      PUSH 0\t\t\t TR\n      PUSH [tag] 384\t\t\turrently holds 0 tokens\\n     ...\n      DUP3 \t\t\t   //\n      PUSH [tag] 325\t\t\turrently holds 0 tokens\\n     ...\n      JUMP \t\t\turrently holds 0 tokens\\n     ...\n    tag 384\t\t\turrently holds 0 tokens\\n     ...\n      JUMPDEST \t\t\turrently holds 0 tokens\\n     ...\n      PUSH [tag] 385\t\t\t initial seeding of a brand ne...\n      DUP2 \t\t\t!hasRo\n      DUP6 \t\t\t if\n      PUSH [tag] 326\t\t\t initial seeding of a brand ne...\n      JUMP \t\t\t initial seeding of a brand ne...\n    tag 385\t\t\t initial seeding of a brand ne...\n      JUMPDEST \t\t\t initial seeding of a brand ne...\n      SWAP4 \t\t\tows the initial seeding of a b...\n      POP \t\t\tows the initial seeding of a b...\n      PUSH [tag] 386\t\t\tROLE, to)) {\\n                ...\n      DUP2 \t\t\tReceiv\n      DUP6 \t\t\t 0,\n      PUSH 20\t\t\t(to)\n      DUP7 \t\t\tlance\n      ADD \t\t\te(balanceOf(to) \n      PUSH [tag] 327\t\t\tROLE, to)) {\\n                ...\n      JUMP \t\t\tROLE, to)) {\\n                ...\n    tag 386\t\t\tROLE, to)) {\\n                ...\n      JUMPDEST \t\t\tROLE, to)) {\\n                ...\n      PUSH [tag] 387\t\t\tRADER_ROLE\");\\n            }\\n...\n      DUP2 \t\t\t    }\\n\n      PUSH [tag] 328\t\t\tRADER_ROLE\");\\n            }\\n...\n      JUMP \t\t\tRADER_ROLE\");\\n            }\\n...\n    tag 387\t\t\tRADER_ROLE\");\\n            }\\n...\n      JUMPDEST \t\t\tRADER_ROLE\");\\n            }\\n...\n      DUP5 \t\t\tcks\n      ADD \t\t\tt lacks TRADER_ROLE\");\\n      ...\n      SWAP2 \t\t\tance but lacks TRADER_ROLE\");\\...\n      POP \t\t\tance but lacks TRADER_ROLE\");\\...\n      POP \t\t\tDER_ROLE, EXCEPT if it current...\n      SWAP3 \t\t\tRole(TRADER_ROLE, from), \"Send...\n      SWAP2 \t\t\tRole(TRADER_ROLE, from), \"Send...\n      POP \t\t\tRole(TRADER_ROLE, from), \"Send...\n      POP \t\t\tRole(TRADER_ROLE, from), \"Send...\n      JUMP \t\t\tRole(TRADER_ROLE, from), \"Send...\n    tag 47\t\t\t     // 3. Let ERC20Pausable h...\n      JUMPDEST \t\t\t     // 3. Let ERC20Pausable h...\n      PUSH 0\t\t\t\\n}\\n\n      PUSH 20\t\t\t\n      DUP3 \t\t\t\n      ADD \t\t\t\n      SWAP1 \t\t\t\n      POP \t\t\t\n      DUP2 \t\t\t\n      DUP2 \t\t\t\n      SUB \t\t\t\n      PUSH 0\t\t\t\n      DUP4 \t\t\t\n      ADD \t\t\t\n      MSTORE \t\t\t\n      PUSH [tag] 389\t\t\t\n      DUP2 \t\t\t\n      DUP5 \t\t\t\n      PUSH [tag] 329\t\t\t\n      JUMP \t\t\t\n    tag 389\t\t\t\n      JUMPDEST \t\t\t\n      SWAP1 \t\t\t\n      POP \t\t\t\n      SWAP3 \t\t\t     // 3. Let ERC20Pausable h...\n      SWAP2 \t\t\t     // 3. Let ERC20Pausable h...\n      POP \t\t\t     // 3. Let ERC20Pausable h...\n      POP \t\t\t     // 3. Let ERC20Pausable h...\n      JUMP \t\t\t     // 3. Let ERC20Pausable h...\n    tag 330\t\t\t\n      JUMPDEST \t\t\t\n      PUSH 0\t\t\t\n      PUSH FFFFFFFFFFFFFFFFFFFFFFFFFFFFFFFFFFFFFFFF\t\t\t\n      DUP3 \t\t\t\n      AND \t\t\t\n      SWAP1 \t\t\t\n      POP \t\t\t\n      SWAP2 \t\t\t\n      SWAP1 \t\t\t\n      POP \t\t\t\n      JUMP \t\t\t\n    tag 331\t\t\t\n      JUMPDEST \t\t\t\n      PUSH 0\t\t\t\n      PUSH [tag] 392\t\t\t\n      DUP3 \t\t\t\n      PUSH [tag] 330\t\t\t\n      JUMP \t\t\t\n    tag 392\t\t\t\n      JUMPDEST \t\t\t\n      SWAP1 \t\t\t\n      POP \t\t\t\n      SWAP2 \t\t\t\n      SWAP1 \t\t\t\n      POP \t\t\t\n      JUMP \t\t\t\n    tag 332\t\t\t\n      JUMPDEST \t\t\t\n      PUSH [tag] 394\t\t\t\n      DUP2 \t\t\t\n      PUSH [tag] 331\t\t\t\n      JUMP \t\t\t\n    tag 394\t\t\t\n      JUMPDEST \t\t\t\n      DUP2 \t\t\t\n      EQ \t\t\t\n      PUSH [tag] 395\t\t\t\n      JUMPI \t\t\t\n      PUSH 0\t\t\t\n      PUSH 0\t\t\t\n      REVERT \t\t\t\n    tag 395\t\t\t\n      JUMPDEST \t\t\t\n      POP \t\t\t\n      JUMP \t\t\t\n    tag 333\t\t\t\n      JUMPDEST \t\t\t\n      PUSH 0\t\t\t\n      DUP2 \t\t\t\n      CALLDATALOAD \t\t\t\n      SWAP1 \t\t\t\n      POP \t\t\t\n      PUSH [tag] 397\t\t\t\n      DUP2 \t\t\t\n      PUSH [tag] 332\t\t\t\n      JUMP \t\t\t\n    tag 397\t\t\t\n      JUMPDEST \t\t\t\n      SWAP3 \t\t\t\n      SWAP2 \t\t\t\n      POP \t\t\t\n      POP \t\t\t\n      JUMP \t\t\t\n    tag 334\t\t\t\n      JUMPDEST \t\t\t\n      PUSH 0\t\t\t\n      DUP2 \t\t\t\n      SWAP1 \t\t\t\n      POP \t\t\t\n      SWAP2 \t\t\t\n      SWAP1 \t\t\t\n      POP \t\t\t\n      JUMP \t\t\t\n    tag 335\t\t\t\n      JUMPDEST \t\t\t\n      PUSH [tag] 400\t\t\t\n      DUP2 \t\t\t\n      PUSH [tag] 334\t\t\t\n      JUMP \t\t\t\n    tag 400\t\t\t\n      JUMPDEST \t\t\t\n      DUP2 \t\t\t\n      EQ \t\t\t\n      PUSH [tag] 401\t\t\t\n      JUMPI \t\t\t\n      PUSH 0\t\t\t\n      PUSH 0\t\t\t\n      REVERT \t\t\t\n    tag 401\t\t\t\n      JUMPDEST \t\t\t\n      POP \t\t\t\n      JUMP \t\t\t\n    tag 336\t\t\t\n      JUMPDEST \t\t\t\n      PUSH 0\t\t\t\n      DUP2 \t\t\t\n      CALLDATALOAD \t\t\t\n      SWAP1 \t\t\t\n      POP \t\t\t\n      PUSH [tag] 403\t\t\t\n      DUP2 \t\t\t\n      PUSH [tag] 335\t\t\t\n      JUMP \t\t\t\n    tag 403\t\t\t\n      JUMPDEST \t\t\t\n      SWAP3 \t\t\t\n      SWAP2 \t\t\t\n      POP \t\t\t\n      POP \t\t\t\n      JUMP \t\t\t\n    tag 50\t\t\t\n      JUMPDEST \t\t\t\n      PUSH 0\t\t\t\n      PUSH 0\t\t\t\n      PUSH 40\t\t\t\n      DUP4 \t\t\t\n      DUP6 \t\t\t\n      SUB \t\t\t\n      SLT \t\t\t\n      ISZERO \t\t\t\n      PUSH [tag] 405\t\t\t\n      JUMPI \t\t\t\n      PUSH [tag] 406\t\t\t\n      PUSH [tag] 316\t\t\t\n      JUMP \t\t\t\n    tag 406\t\t\t\n      JUMPDEST \t\t\t\n    tag 405\t\t\t\n      JUMPDEST \t\t\t\n      PUSH 0\t\t\t\n      PUSH [tag] 407\t\t\t\n      DUP6 \t\t\t\n      DUP3 \t\t\t\n      DUP7 \t\t\t\n      ADD \t\t\t\n      PUSH [tag] 333\t\t\t\n      JUMP \t\t\t\n    tag 407\t\t\t\n      JUMPDEST \t\t\t\n      SWAP3 \t\t\t\n      POP \t\t\t\n      POP \t\t\t\n      PUSH 20\t\t\t\n      PUSH [tag] 408\t\t\t\n      DUP6 \t\t\t\n      DUP3 \t\t\t\n      DUP7 \t\t\t\n      ADD \t\t\t\n      PUSH [tag] 336\t\t\t\n      JUMP \t\t\t\n    tag 408\t\t\t\n      JUMPDEST \t\t\t\n      SWAP2 \t\t\t\n      POP \t\t\t\n      POP \t\t\t\n      SWAP3 \t\t\t\n      POP \t\t\t\n      SWAP3 \t\t\t\n      SWAP1 \t\t\t\n      POP \t\t\t\n      JUMP \t\t\t\n    tag 337\t\t\t\n      JUMPDEST \t\t\t\n      PUSH [tag] 410\t\t\t\n      DUP2 \t\t\t\n      PUSH [tag] 334\t\t\t\n      JUMP \t\t\t\n    tag 410\t\t\t\n      JUMPDEST \t\t\t\n      DUP3 \t\t\t\n      MSTORE \t\t\t\n      POP \t\t\t\n      POP \t\t\t\n      JUMP \t\t\t\n    tag 56\t\t\t\n      JUMPDEST \t\t\t\n      PUSH 0\t\t\t\n      PUSH 20\t\t\t\n      DUP3 \t\t\t\n      ADD \t\t\t\n      SWAP1 \t\t\t\n      POP \t\t\t\n      PUSH [tag] 412\t\t\t\n      PUSH 0\t\t\t\n      DUP4 \t\t\t\n      ADD \t\t\t\n      DUP5 \t\t\t\n      PUSH [tag] 337\t\t\t\n      JUMP \t\t\t\n    tag 412\t\t\t\n      JUMPDEST \t\t\t\n      SWAP3 \t\t\t\n      SWAP2 \t\t\t\n      POP \t\t\t\n      POP \t\t\t\n      JUMP \t\t\t\n    tag 59\t\t\t\n      JUMPDEST \t\t\t\n      PUSH 0\t\t\t\n      PUSH 0\t\t\t\n      PUSH 0\t\t\t\n      PUSH 60\t\t\t\n      DUP5 \t\t\t\n      DUP7 \t\t\t\n      SUB \t\t\t\n      SLT \t\t\t\n      ISZERO \t\t\t\n      PUSH [tag] 414\t\t\t\n      JUMPI \t\t\t\n      PUSH [tag] 415\t\t\t\n      PUSH [tag] 316\t\t\t\n      JUMP \t\t\t\n    tag 415\t\t\t\n      JUMPDEST \t\t\t\n    tag 414\t\t\t\n      JUMPDEST \t\t\t\n      PUSH 0\t\t\t\n      PUSH [tag] 416\t\t\t\n      DUP7 \t\t\t\n      DUP3 \t\t\t\n      DUP8 \t\t\t\n      ADD \t\t\t\n      PUSH [tag] 333\t\t\t\n      JUMP \t\t\t\n    tag 416\t\t\t\n      JUMPDEST \t\t\t\n      SWAP4 \t\t\t\n      POP \t\t\t\n      POP \t\t\t\n      PUSH 20\t\t\t\n      PUSH [tag] 417\t\t\t\n      DUP7 \t\t\t\n      DUP3 \t\t\t\n      DUP8 \t\t\t\n      ADD \t\t\t\n      PUSH [tag] 333\t\t\t\n      JUMP \t\t\t\n    tag 417\t\t\t\n      JUMPDEST \t\t\t\n      SWAP3 \t\t\t\n      POP \t\t\t\n      POP \t\t\t\n      PUSH 40\t\t\t\n      PUSH [tag] 418\t\t\t\n      DUP7 \t\t\t\n      DUP3 \t\t\t\n      DUP8 \t\t\t\n      ADD \t\t\t\n      PUSH [tag] 336\t\t\t\n      JUMP \t\t\t\n    tag 418\t\t\t\n      JUMPDEST \t\t\t\n      SWAP2 \t\t\t\n      POP \t\t\t\n      POP \t\t\t\n      SWAP3 \t\t\t\n      POP \t\t\t\n      SWAP3 \t\t\t\n      POP \t\t\t\n      SWAP3 \t\t\t\n      JUMP \t\t\t\n    tag 338\t\t\t\n      JUMPDEST \t\t\t\n      PUSH [tag] 420\t\t\t\n      DUP2 \t\t\t\n      PUSH [tag] 323\t\t\t\n      JUMP \t\t\t\n    tag 420\t\t\t\n      JUMPDEST \t\t\t\n      DUP2 \t\t\t\n      EQ \t\t\t\n      PUSH [tag] 421\t\t\t\n      JUMPI \t\t\t\n      PUSH 0\t\t\t\n      PUSH 0\t\t\t\n      REVERT \t\t\t\n    tag 421\t\t\t\n      JUMPDEST \t\t\t\n      POP \t\t\t\n      JUMP \t\t\t\n    tag 339\t\t\t\n      JUMPDEST \t\t\t\n      PUSH 0\t\t\t\n      DUP2 \t\t\t\n      CALLDATALOAD \t\t\t\n      SWAP1 \t\t\t\n      POP \t\t\t\n      PUSH [tag] 423\t\t\t\n      DUP2 \t\t\t\n      PUSH [tag] 338\t\t\t\n      JUMP \t\t\t\n    tag 423\t\t\t\n      JUMPDEST \t\t\t\n      SWAP3 \t\t\t\n      SWAP2 \t\t\t\n      POP \t\t\t\n      POP \t\t\t\n      JUMP \t\t\t\n    tag 64\t\t\t\n      JUMPDEST \t\t\t\n      PUSH 0\t\t\t\n      PUSH 20\t\t\t\n      DUP3 \t\t\t\n      DUP5 \t\t\t\n      SUB \t\t\t\n      SLT \t\t\t\n      ISZERO \t\t\t\n      PUSH [tag] 425\t\t\t\n      JUMPI \t\t\t\n      PUSH [tag] 426\t\t\t\n      PUSH [tag] 316\t\t\t\n      JUMP \t\t\t\n    tag 426\t\t\t\n      JUMPDEST \t\t\t\n    tag 425\t\t\t\n      JUMPDEST \t\t\t\n      PUSH 0\t\t\t\n      PUSH [tag] 427\t\t\t\n      DUP5 \t\t\t\n      DUP3 \t\t\t\n      DUP6 \t\t\t\n      ADD \t\t\t\n      PUSH [tag] 339\t\t\t\n      JUMP \t\t\t\n    tag 427\t\t\t\n      JUMPDEST \t\t\t\n      SWAP2 \t\t\t\n      POP \t\t\t\n      POP \t\t\t\n      SWAP3 \t\t\t\n      SWAP2 \t\t\t\n      POP \t\t\t\n      POP \t\t\t\n      JUMP \t\t\t\n    tag 69\t\t\t\n      JUMPDEST \t\t\t\n      PUSH 0\t\t\t\n      PUSH 0\t\t\t\n      PUSH 40\t\t\t\n      DUP4 \t\t\t\n      DUP6 \t\t\t\n      SUB \t\t\t\n      SLT \t\t\t\n      ISZERO \t\t\t\n      PUSH [tag] 429\t\t\t\n      JUMPI \t\t\t\n      PUSH [tag] 430\t\t\t\n      PUSH [tag] 316\t\t\t\n      JUMP \t\t\t\n    tag 430\t\t\t\n      JUMPDEST \t\t\t\n    tag 429\t\t\t\n      JUMPDEST \t\t\t\n      PUSH 0\t\t\t\n      PUSH [tag] 431\t\t\t\n      DUP6 \t\t\t\n      DUP3 \t\t\t\n      DUP7 \t\t\t\n      ADD \t\t\t\n      PUSH [tag] 339\t\t\t\n      JUMP \t\t\t\n    tag 431\t\t\t\n      JUMPDEST \t\t\t\n      SWAP3 \t\t\t\n      POP \t\t\t\n      POP \t\t\t\n      PUSH 20\t\t\t\n      PUSH [tag] 432\t\t\t\n      DUP6 \t\t\t\n      DUP3 \t\t\t\n      DUP7 \t\t\t\n      ADD \t\t\t\n      PUSH [tag] 333\t\t\t\n      JUMP \t\t\t\n    tag 432\t\t\t\n      JUMPDEST \t\t\t\n      SWAP2 \t\t\t\n      POP \t\t\t\n      POP \t\t\t\n      SWAP3 \t\t\t\n      POP \t\t\t\n      SWAP3 \t\t\t\n      SWAP1 \t\t\t\n      POP \t\t\t\n      JUMP \t\t\t\n    tag 340\t\t\t\n      JUMPDEST \t\t\t\n      PUSH 0\t\t\t\n      PUSH FF\t\t\t\n      DUP3 \t\t\t\n      AND \t\t\t\n      SWAP1 \t\t\t\n      POP \t\t\t\n      SWAP2 \t\t\t\n      SWAP1 \t\t\t\n      POP \t\t\t\n      JUMP \t\t\t\n    tag 341\t\t\t\n      JUMPDEST \t\t\t\n      PUSH [tag] 435\t\t\t\n      DUP2 \t\t\t\n      PUSH [tag] 340\t\t\t\n      JUMP \t\t\t\n    tag 435\t\t\t\n      JUMPDEST \t\t\t\n      DUP3 \t\t\t\n      MSTORE \t\t\t\n      POP \t\t\t\n      POP \t\t\t\n      JUMP \t\t\t\n    tag 74\t\t\t\n      JUMPDEST \t\t\t\n      PUSH 0\t\t\t\n      PUSH 20\t\t\t\n      DUP3 \t\t\t\n      ADD \t\t\t\n      SWAP1 \t\t\t\n      POP \t\t\t\n      PUSH [tag] 437\t\t\t\n      PUSH 0\t\t\t\n      DUP4 \t\t\t\n      ADD \t\t\t\n      DUP5 \t\t\t\n      PUSH [tag] 341\t\t\t\n      JUMP \t\t\t\n    tag 437\t\t\t\n      JUMPDEST \t\t\t\n      SWAP3 \t\t\t\n      SWAP2 \t\t\t\n      POP \t\t\t\n      POP \t\t\t\n      JUMP \t\t\t\n    tag 88\t\t\t\n      JUMPDEST \t\t\t\n      PUSH 0\t\t\t\n      PUSH 20\t\t\t\n      DUP3 \t\t\t\n      DUP5 \t\t\t\n      SUB \t\t\t\n      SLT \t\t\t\n      ISZERO \t\t\t\n      PUSH [tag] 439\t\t\t\n      JUMPI \t\t\t\n      PUSH [tag] 440\t\t\t\n      PUSH [tag] 316\t\t\t\n      JUMP \t\t\t\n    tag 440\t\t\t\n      JUMPDEST \t\t\t\n    tag 439\t\t\t\n      JUMPDEST \t\t\t\n      PUSH 0\t\t\t\n      PUSH [tag] 441\t\t\t\n      DUP5 \t\t\t\n      DUP3 \t\t\t\n      DUP6 \t\t\t\n      ADD \t\t\t\n      PUSH [tag] 333\t\t\t\n      JUMP \t\t\t\n    tag 441\t\t\t\n      JUMPDEST \t\t\t\n      SWAP2 \t\t\t\n      POP \t\t\t\n      POP \t\t\t\n      SWAP3 \t\t\t\n      SWAP2 \t\t\t\n      POP \t\t\t\n      POP \t\t\t\n      JUMP \t\t\t\n    tag 121\t\t\t\n      JUMPDEST \t\t\t\n      PUSH 0\t\t\t\n      PUSH 0\t\t\t\n      PUSH 40\t\t\t\n      DUP4 \t\t\t\n      DUP6 \t\t\t\n      SUB \t\t\t\n      SLT \t\t\t\n      ISZERO \t\t\t\n      PUSH [tag] 443\t\t\t\n      JUMPI \t\t\t\n      PUSH [tag] 444\t\t\t\n      PUSH [tag] 316\t\t\t\n      JUMP \t\t\t\n    tag 444\t\t\t\n      JUMPDEST \t\t\t\n    tag 443\t\t\t\n      JUMPDEST \t\t\t\n      PUSH 0\t\t\t\n      PUSH [tag] 445\t\t\t\n      DUP6 \t\t\t\n      DUP3 \t\t\t\n      DUP7 \t\t\t\n      ADD \t\t\t\n      PUSH [tag] 333\t\t\t\n      JUMP \t\t\t\n    tag 445\t\t\t\n      JUMPDEST \t\t\t\n      SWAP3 \t\t\t\n      POP \t\t\t\n      POP \t\t\t\n      PUSH 20\t\t\t\n      PUSH [tag] 446\t\t\t\n      DUP6 \t\t\t\n      DUP3 \t\t\t\n      DUP7 \t\t\t\n      ADD \t\t\t\n      PUSH [tag] 333\t\t\t\n      JUMP \t\t\t\n    tag 446\t\t\t\n      JUMPDEST \t\t\t\n      SWAP2 \t\t\t\n      POP \t\t\t\n      POP \t\t\t\n      SWAP3 \t\t\t\n      POP \t\t\t\n      SWAP3 \t\t\t\n      SWAP1 \t\t\t\n      POP \t\t\t\n      JUMP \t\t\t\n    tag 342\t\t\t\n      JUMPDEST \t\t\t\n      PUSH 4E487B7100000000000000000000000000000000000000000000000000000000\t\t\t\n      PUSH 0\t\t\t\n      MSTORE \t\t\t\n      PUSH 22\t\t\t\n      PUSH 4\t\t\t\n      MSTORE \t\t\t\n      PUSH 24\t\t\t\n      PUSH 0\t\t\t\n      REVERT \t\t\t\n    tag 136\t\t\t\n      JUMPDEST \t\t\t\n      PUSH 0\t\t\t\n      PUSH 2\t\t\t\n      DUP3 \t\t\t\n      DIV \t\t\t\n      SWAP1 \t\t\t\n      POP \t\t\t\n      PUSH 1\t\t\t\n      DUP3 \t\t\t\n      AND \t\t\t\n      DUP1 \t\t\t\n      PUSH [tag] 449\t\t\t\n      JUMPI \t\t\t\n      PUSH 7F\t\t\t\n      DUP3 \t\t\t\n      AND \t\t\t\n      SWAP2 \t\t\t\n      POP \t\t\t\n    tag 449\t\t\t\n      JUMPDEST \t\t\t\n      PUSH 20\t\t\t\n      DUP3 \t\t\t\n      LT \t\t\t\n      DUP2 \t\t\t\n      SUB \t\t\t\n      PUSH [tag] 450\t\t\t\n      JUMPI \t\t\t\n      PUSH [tag] 451\t\t\t\n      PUSH [tag] 342\t\t\t\n      JUMP \t\t\t\n    tag 451\t\t\t\n      JUMPDEST \t\t\t\n    tag 450\t\t\t\n      JUMPDEST \t\t\t\n      POP \t\t\t\n      SWAP2 \t\t\t\n      SWAP1 \t\t\t\n      POP \t\t\t\n      JUMP \t\t\t\n    tag 343\t\t\t\n      JUMPDEST \t\t\t\n      PUSH 4E6F742066726F7A656E00000000000000000000000000000000000000000000\t\t\t\n      PUSH 0\t\t\t\n      DUP3 \t\t\t\n      ADD \t\t\t\n      MSTORE \t\t\t\n      POP \t\t\t\n      JUMP \t\t\t\n    tag 344\t\t\t\n      JUMPDEST \t\t\t\n      PUSH 0\t\t\t\n      PUSH [tag] 454\t\t\t\n      PUSH A\t\t\t\n      DUP4 \t\t\t\n      PUSH [tag] 326\t\t\t\n      JUMP \t\t\t\n    tag 454\t\t\t\n      JUMPDEST \t\t\t\n      SWAP2 \t\t\t\n      POP \t\t\t\n      PUSH [tag] 455\t\t\t\n      DUP3 \t\t\t\n      PUSH [tag] 343\t\t\t\n      JUMP \t\t\t\n    tag 455\t\t\t\n      JUMPDEST \t\t\t\n      PUSH 20\t\t\t\n      DUP3 \t\t\t\n      ADD \t\t\t\n      SWAP1 \t\t\t\n      POP \t\t\t\n      SWAP2 \t\t\t\n      SWAP1 \t\t\t\n      POP \t\t\t\n      JUMP \t\t\t\n    tag 184\t\t\t\n      JUMPDEST \t\t\t\n      PUSH 0\t\t\t\n      PUSH 20\t\t\t\n      DUP3 \t\t\t\n      ADD \t\t\t\n      SWAP1 \t\t\t\n      POP \t\t\t\n      DUP2 \t\t\t\n      DUP2 \t\t\t\n      SUB \t\t\t\n      PUSH 0\t\t\t\n      DUP4 \t\t\t\n      ADD \t\t\t\n      MSTORE \t\t\t\n      PUSH [tag] 457\t\t\t\n      DUP2 \t\t\t\n      PUSH [tag] 344\t\t\t\n      JUMP \t\t\t\n    tag 457\t\t\t\n      JUMPDEST \t\t\t\n      SWAP1 \t\t\t\n      POP \t\t\t\n      SWAP2 \t\t\t\n      SWAP1 \t\t\t\n      POP \t\t\t\n      JUMP \t\t\t\n    tag 345\t\t\t\n      JUMPDEST \t\t\t\n      PUSH 416C72656164792066726F7A656E000000000000000000000000000000000000\t\t\t\n      PUSH 0\t\t\t\n      DUP3 \t\t\t\n      ADD \t\t\t\n      MSTORE \t\t\t\n      POP \t\t\t\n      JUMP \t\t\t\n    tag 346\t\t\t\n      JUMPDEST \t\t\t\n      PUSH 0\t\t\t\n      PUSH [tag] 460\t\t\t\n      PUSH E\t\t\t\n      DUP4 \t\t\t\n      PUSH [tag] 326\t\t\t\n      JUMP \t\t\t\n    tag 460\t\t\t\n      JUMPDEST \t\t\t\n      SWAP2 \t\t\t\n      POP \t\t\t\n      PUSH [tag] 461\t\t\t\n      DUP3 \t\t\t\n      PUSH [tag] 345\t\t\t\n      JUMP \t\t\t\n    tag 461\t\t\t\n      JUMPDEST \t\t\t\n      PUSH 20\t\t\t\n      DUP3 \t\t\t\n      ADD \t\t\t\n      SWAP1 \t\t\t\n      POP \t\t\t\n      SWAP2 \t\t\t\n      SWAP1 \t\t\t\n      POP \t\t\t\n      JUMP \t\t\t\n    tag 203\t\t\t\n      JUMPDEST \t\t\t\n      PUSH 0\t\t\t\n      PUSH 20\t\t\t\n      DUP3 \t\t\t\n      ADD \t\t\t\n      SWAP1 \t\t\t\n      POP \t\t\t\n      DUP2 \t\t\t\n      DUP2 \t\t\t\n      SUB \t\t\t\n      PUSH 0\t\t\t\n      DUP4 \t\t\t\n      ADD \t\t\t\n      MSTORE \t\t\t\n      PUSH [tag] 463\t\t\t\n      DUP2 \t\t\t\n      PUSH [tag] 346\t\t\t\n      JUMP \t\t\t\n    tag 463\t\t\t\n      JUMPDEST \t\t\t\n      SWAP1 \t\t\t\n      POP \t\t\t\n      SWAP2 \t\t\t\n      SWAP1 \t\t\t\n      POP \t\t\t\n      JUMP \t\t\t\n    tag 347\t\t\t\n      JUMPDEST \t\t\t\n      PUSH [tag] 465\t\t\t\n      DUP2 \t\t\t\n      PUSH [tag] 331\t\t\t\n      JUMP \t\t\t\n    tag 465\t\t\t\n      JUMPDEST \t\t\t\n      DUP3 \t\t\t\n      MSTORE \t\t\t\n      POP \t\t\t\n      POP \t\t\t\n      JUMP \t\t\t\n    tag 223\t\t\t\n      JUMPDEST \t\t\t\n      PUSH 0\t\t\t\n      PUSH 60\t\t\t\n      DUP3 \t\t\t\n      ADD \t\t\t\n      SWAP1 \t\t\t\n      POP \t\t\t\n      PUSH [tag] 467\t\t\t\n      PUSH 0\t\t\t\n      DUP4 \t\t\t\n      ADD \t\t\t\n      DUP7 \t\t\t\n      PUSH [tag] 347\t\t\t\n      JUMP \t\t\t\n    tag 467\t\t\t\n      JUMPDEST \t\t\t\n      PUSH [tag] 468\t\t\t\n      PUSH 20\t\t\t\n      DUP4 \t\t\t\n      ADD \t\t\t\n      DUP6 \t\t\t\n      PUSH [tag] 337\t\t\t\n      JUMP \t\t\t\n    tag 468\t\t\t\n      JUMPDEST \t\t\t\n      PUSH [tag] 469\t\t\t\n      PUSH 40\t\t\t\n      DUP4 \t\t\t\n      ADD \t\t\t\n      DUP5 \t\t\t\n      PUSH [tag] 337\t\t\t\n      JUMP \t\t\t\n    tag 469\t\t\t\n      JUMPDEST \t\t\t\n      SWAP5 \t\t\t\n      SWAP4 \t\t\t\n      POP \t\t\t\n      POP \t\t\t\n      POP \t\t\t\n      POP \t\t\t\n      JUMP \t\t\t\n    tag 228\t\t\t\n      JUMPDEST \t\t\t\n      PUSH 0\t\t\t\n      PUSH 20\t\t\t\n      DUP3 \t\t\t\n      ADD \t\t\t\n      SWAP1 \t\t\t\n      POP \t\t\t\n      PUSH [tag] 471\t\t\t\n      PUSH 0\t\t\t\n      DUP4 \t\t\t\n      ADD \t\t\t\n      DUP5 \t\t\t\n      PUSH [tag] 347\t\t\t\n      JUMP \t\t\t\n    tag 471\t\t\t\n      JUMPDEST \t\t\t\n      SWAP3 \t\t\t\n      SWAP2 \t\t\t\n      POP \t\t\t\n      POP \t\t\t\n      JUMP \t\t\t\n    tag 348\t\t\t\n      JUMPDEST \t\t\t\n      PUSH 57616C6C65742069732066726F7A656E00000000000000000000000000000000\t\t\t\n      PUSH 0\t\t\t\n      DUP3 \t\t\t\n      ADD \t\t\t\n      MSTORE \t\t\t\n      POP \t\t\t\n      JUMP \t\t\t\n    tag 349\t\t\t\n      JUMPDEST \t\t\t\n      PUSH 0\t\t\t\n      PUSH [tag] 474\t\t\t\n      PUSH 10\t\t\t\n      DUP4 \t\t\t\n      PUSH [tag] 326\t\t\t\n      JUMP \t\t\t\n    tag 474\t\t\t\n      JUMPDEST \t\t\t\n      SWAP2 \t\t\t\n      POP \t\t\t\n      PUSH [tag] 475\t\t\t\n      DUP3 \t\t\t\n      PUSH [tag] 348\t\t\t\n      JUMP \t\t\t\n    tag 475\t\t\t\n      JUMPDEST \t\t\t\n      PUSH 20\t\t\t\n      DUP3 \t\t\t\n      ADD \t\t\t\n      SWAP1 \t\t\t\n      POP \t\t\t\n      SWAP2 \t\t\t\n      SWAP1 \t\t\t\n      POP \t\t\t\n      JUMP \t\t\t\n    tag 274\t\t\t\n      JUMPDEST \t\t\t\n      PUSH 0\t\t\t\n      PUSH 20\t\t\t\n      DUP3 \t\t\t\n      ADD \t\t\t\n      SWAP1 \t\t\t\n      POP \t\t\t\n      DUP2 \t\t\t\n      DUP2 \t\t\t\n      SUB \t\t\t\n      PUSH 0\t\t\t\n      DUP4 \t\t\t\n      ADD \t\t\t\n      MSTORE \t\t\t\n      PUSH [tag] 477\t\t\t\n      DUP2 \t\t\t\n      PUSH [tag] 349\t\t\t\n      JUMP \t\t\t\n    tag 477\t\t\t\n      JUMPDEST \t\t\t\n      SWAP1 \t\t\t\n      POP \t\t\t\n      SWAP2 \t\t\t\n      SWAP1 \t\t\t\n      POP \t\t\t\n      JUMP \t\t\t\n    tag 350\t\t\t\n      JUMPDEST \t\t\t\n      PUSH 53656E646572206C61636B73205452414445525F524F4C450000000000000000\t\t\t\n      PUSH 0\t\t\t\n      DUP3 \t\t\t\n      ADD \t\t\t\n      MSTORE \t\t\t\n      POP \t\t\t\n      JUMP \t\t\t\n    tag 351\t\t\t\n      JUMPDEST \t\t\t\n      PUSH 0\t\t\t\n      PUSH [tag] 480\t\t\t\n      PUSH 18\t\t\t\n      DUP4 \t\t\t\n      PUSH [tag] 326\t\t\t\n      JUMP \t\t\t\n    tag 480\t\t\t\n      JUMPDEST \t\t\t\n      SWAP2 \t\t\t\n      POP \t\t\t\n      PUSH [tag] 481\t\t\t\n      DUP3 \t\t\t\n      PUSH [tag] 350\t\t\t\n      JUMP \t\t\t\n    tag 481\t\t\t\n      JUMPDEST \t\t\t\n      PUSH 20\t\t\t\n      DUP3 \t\t\t\n      ADD \t\t\t\n      SWAP1 \t\t\t\n      POP \t\t\t\n      SWAP2 \t\t\t\n      SWAP1 \t\t\t\n      POP \t\t\t\n      JUMP \t\t\t\n    tag 280\t\t\t\n      JUMPDEST \t\t\t\n      PUSH 0\t\t\t\n      PUSH 20\t\t\t\n      DUP3 \t\t\t\n      ADD \t\t\t\n      SWAP1 \t\t\t\n      POP \t\t\t\n      DUP2 \t\t\t\n      DUP2 \t\t\t\n      SUB \t\t\t\n      PUSH 0\t\t\t\n      DUP4 \t\t\t\n      ADD \t\t\t\n      MSTORE \t\t\t\n      PUSH [tag] 483\t\t\t\n      DUP2 \t\t\t\n      PUSH [tag] 351\t\t\t\n      JUMP \t\t\t\n    tag 483\t\t\t\n      JUMPDEST \t\t\t\n      SWAP1 \t\t\t\n      POP \t\t\t\n      SWAP2 \t\t\t\n      SWAP1 \t\t\t\n      POP \t\t\t\n      JUMP \t\t\t\n    tag 352\t\t\t\n      JUMPDEST \t\t\t\n      PUSH 5265636569766572206861732062616C616E636520627574206C61636B732054\t\t\t\n      PUSH 0\t\t\t\n      DUP3 \t\t\t\n      ADD \t\t\t\n      MSTORE \t\t\t\n      PUSH 52414445525F524F4C4500000000000000000000000000000000000000000000\t\t\t\n      PUSH 20\t\t\t\n      DUP3 \t\t\t\n      ADD \t\t\t\n      MSTORE \t\t\t\n      POP \t\t\t\n      JUMP \t\t\t\n    tag 353\t\t\t\n      JUMPDEST \t\t\t\n      PUSH 0\t\t\t\n      PUSH [tag] 486\t\t\t\n      PUSH 2A\t\t\t\n      DUP4 \t\t\t\n      PUSH [tag] 326\t\t\t\n      JUMP \t\t\t\n    tag 486\t\t\t\n      JUMPDEST \t\t\t\n      SWAP2 \t\t\t\n      POP \t\t\t\n      PUSH [tag] 487\t\t\t\n      DUP3 \t\t\t\n      PUSH [tag] 352\t\t\t\n      JUMP \t\t\t\n    tag 487\t\t\t\n      JUMPDEST \t\t\t\n      PUSH 40\t\t\t\n      DUP3 \t\t\t\n      ADD \t\t\t\n      SWAP1 \t\t\t\n      POP \t\t\t\n      SWAP2 \t\t\t\n      SWAP1 \t\t\t\n      POP \t\t\t\n      JUMP \t\t\t\n    tag 286\t\t\t\n      JUMPDEST \t\t\t\n      PUSH 0\t\t\t\n      PUSH 20\t\t\t\n      DUP3 \t\t\t\n      ADD \t\t\t\n      SWAP1 \t\t\t\n      POP \t\t\t\n      DUP2 \t\t\t\n      DUP2 \t\t\t\n      SUB \t\t\t\n      PUSH 0\t\t\t\n      DUP4 \t\t\t\n      ADD \t\t\t\n      MSTORE \t\t\t\n      PUSH [tag] 489\t\t\t\n      DUP2 \t\t\t\n      PUSH [tag] 353\t\t\t\n      JUMP \t\t\t\n    tag 489\t\t\t\n      JUMPDEST \t\t\t\n      SWAP1 \t\t\t\n      POP \t\t\t\n      SWAP2 \t\t\t\n      SWAP1 \t\t\t\n      POP \t\t\t\n      JUMP \t\t\t\n    tag 293\t\t\t\n      JUMPDEST \t\t\t\n      PUSH 0\t\t\t\n      PUSH 40\t\t\t\n      DUP3 \t\t\t\n      ADD \t\t\t\n      SWAP1 \t\t\t\n      POP \t\t\t\n      PUSH [tag] 491\t\t\t\n      PUSH 0\t\t\t\n      DUP4 \t\t\t\n      ADD \t\t\t\n      DUP6 \t\t\t\n      PUSH [tag] 347\t\t\t\n      JUMP \t\t\t\n    tag 491\t\t\t\n      JUMPDEST \t\t\t\n      PUSH [tag] 492\t\t\t\n      PUSH 20\t\t\t\n      DUP4 \t\t\t\n      ADD \t\t\t\n      DUP5 \t\t\t\n      PUSH [tag] 324\t\t\t\n      JUMP \t\t\t\n    tag 492\t\t\t\n      JUMPDEST \t\t\t\n      SWAP4 \t\t\t\n      SWAP3 \t\t\t\n      POP \t\t\t\n      POP \t\t\t\n      POP \t\t\t\n      JUMP \t\t\t\n    tag 354\t\t\t\n      JUMPDEST \t\t\t\n      PUSH 4E487B7100000000000000000000000000000000000000000000000000000000\t\t\t\n      PUSH 0\t\t\t\n      MSTORE \t\t\t\n      PUSH 11\t\t\t\n      PUSH 4\t\t\t\n      MSTORE \t\t\t\n      PUSH 24\t\t\t\n      PUSH 0\t\t\t\n      REVERT \t\t\t\n    tag 308\t\t\t\n      JUMPDEST \t\t\t\n      PUSH 0\t\t\t\n      PUSH [tag] 495\t\t\t\n      DUP3 \t\t\t\n      PUSH [tag] 334\t\t\t\n      JUMP \t\t\t\n    tag 495\t\t\t\n      JUMPDEST \t\t\t\n      SWAP2 \t\t\t\n      POP \t\t\t\n      PUSH [tag] 496\t\t\t\n      DUP4 \t\t\t\n      PUSH [tag] 334\t\t\t\n      JUMP \t\t\t\n    tag 496\t\t\t\n      JUMPDEST \t\t\t\n      SWAP3 \t\t\t\n      POP \t\t\t\n      DUP3 \t\t\t\n      DUP3 \t\t\t\n      ADD \t\t\t\n      SWAP1 \t\t\t\n      POP \t\t\t\n      DUP1 \t\t\t\n      DUP3 \t\t\t\n      GT \t\t\t\n      ISZERO \t\t\t\n      PUSH [tag] 497\t\t\t\n      JUMPI \t\t\t\n      PUSH [tag] 498\t\t\t\n      PUSH [tag] 354\t\t\t\n      JUMP \t\t\t\n    tag 498\t\t\t\n      JUMPDEST \t\t\t\n    tag 497\t\t\t\n      JUMPDEST \t\t\t\n      SWAP3 \t\t\t\n      SWAP2 \t\t\t\n      POP \t\t\t\n      POP \t\t\t\n      JUMP \t\t\t\n    .data\n"
}